{
  "abi": [
    {
      "inputs": [],
      "name": "ETH",
      "outputs": [
        {
          "internalType": "address",
          "name": "",
          "type": "address"
        }
      ],
      "stateMutability": "view",
      "type": "function"
    }
  ],
  "bytecode": {
    "object": "0x608080604052346018576076908161001e823930815050f35b600080fdfe6080806040526004361015601257600080fd5b60003560e01c638322fff214602657600080fd5b6000366003190112603b578061eeee60209252f35b600080fdfea26469706673582212204c74dce496feea89bb4f3caa62c754c100a1feba2217f48ee4a041f38fcf3bf664736f6c63430008110033",
    "linkReferences": {}
  },
  "methodIdentifiers": {
    "ETH()": "8322fff2"
  },
  "id": 117
}