{
  "abi": [
    {
      "inputs": [],
      "stateMutability": "nonpayable",
      "type": "constructor"
    },
    {
      "inputs": [],
      "name": "ALEADY_MINTED",
      "type": "error"
    },
    {
      "inputs": [],
      "name": "APPROVAL_TO_CURRENT_OWNER",
      "type": "error"
    },
    {
      "inputs": [],
      "name": "APPROVE_TO_CALLER",
      "type": "error"
    },
    {
      "inputs": [],
      "name": "CALLER_NOT_OWNER_OR_APPROVED",
      "type": "error"
    },
    {
      "inputs": [],
      "name": "INCORRECT_OWNER",
      "type": "error"
    },
    {
      "inputs": [],
      "name": "INVALID_PAYMENT_EVENT",
      "type": "error"
    },
    {
      "inputs": [],
      "name": "INVALID_REDEMPTION_EVENT",
      "type": "error"
    },
    {
      "inputs": [],
      "name": "INVALID_REDEMPTION_METADATA",
      "type": "error"
    },
    {
      "inputs": [],
      "name": "INVALID_TOKEN_ID",
      "type": "error"
    },
    {
      "inputs": [],
      "name": "MINT_TO_ZERO",
      "type": "error"
    },
    {
      "inputs": [],
      "name": "NOT_AVAILABLE",
      "type": "error"
    },
    {
      "inputs": [],
      "name": "OVERSPENDING",
      "type": "error"
    },
    {
      "inputs": [
        {
          "internalType": "uint256",
          "name": "prod1",
          "type": "uint256"
        },
        {
          "internalType": "uint256",
          "name": "denominator",
          "type": "uint256"
        }
      ],
      "name": "PRBMath__MulDivOverflow",
      "type": "error"
    },
    {
      "inputs": [],
      "name": "PRICING_RESOLVER_CHANGES_PAUSED",
      "type": "error"
    },
    {
      "inputs": [],
      "name": "RESERVED_TOKEN_MINTING_PAUSED",
      "type": "error"
    },
    {
      "inputs": [],
      "name": "TRANSFERS_PAUSED",
      "type": "error"
    },
    {
      "inputs": [],
      "name": "TRANSFER_TO_NON_IMPLEMENTER",
      "type": "error"
    },
    {
      "inputs": [],
      "name": "TRANSFER_TO_ZERO_ADDRESS",
      "type": "error"
    },
    {
      "inputs": [],
      "name": "UNAUTHORIZED",
      "type": "error"
    },
    {
      "inputs": [],
      "name": "UNEXPECTED_TOKEN_REDEEMED",
      "type": "error"
    },
    {
      "anonymous": false,
      "inputs": [
        {
          "indexed": true,
          "internalType": "uint256",
          "name": "changeAmount",
          "type": "uint256"
        },
        {
          "indexed": true,
          "internalType": "uint256",
          "name": "newTotalCredits",
          "type": "uint256"
        },
        {
          "indexed": true,
          "internalType": "address",
          "name": "account",
          "type": "address"
        },
        {
          "indexed": false,
          "internalType": "address",
          "name": "caller",
          "type": "address"
        }
      ],
      "name": "AddCredits",
      "type": "event"
    },
    {
      "anonymous": false,
      "inputs": [
        {
          "indexed": true,
          "internalType": "uint256",
          "name": "tierId",
          "type": "uint256"
        },
        {
          "components": [
            {
              "internalType": "uint80",
              "name": "contributionFloor",
              "type": "uint80"
            },
            {
              "internalType": "uint48",
              "name": "lockedUntil",
              "type": "uint48"
            },
            {
              "internalType": "uint40",
              "name": "initialQuantity",
              "type": "uint40"
            },
            {
              "internalType": "uint16",
              "name": "votingUnits",
              "type": "uint16"
            },
            {
              "internalType": "uint16",
              "name": "reservedRate",
              "type": "uint16"
            },
            {
              "internalType": "address",
              "name": "reservedTokenBeneficiary",
              "type": "address"
            },
            {
              "internalType": "uint8",
              "name": "royaltyRate",
              "type": "uint8"
            },
            {
              "internalType": "address",
              "name": "royaltyBeneficiary",
              "type": "address"
            },
            {
              "internalType": "bytes32",
              "name": "encodedIPFSUri",
              "type": "bytes32"
            },
            {
              "internalType": "uint8",
              "name": "category",
              "type": "uint8"
            },
            {
              "internalType": "bool",
              "name": "allowManualMint",
              "type": "bool"
            },
            {
              "internalType": "bool",
              "name": "shouldUseReservedTokenBeneficiaryAsDefault",
              "type": "bool"
            },
            {
              "internalType": "bool",
              "name": "shouldUseRoyaltyBeneficiaryAsDefault",
              "type": "bool"
            },
            {
              "internalType": "bool",
              "name": "transfersPausable",
              "type": "bool"
            }
          ],
          "indexed": false,
          "internalType": "struct JB721TierParams",
          "name": "data",
          "type": "tuple"
        },
        {
          "indexed": false,
          "internalType": "address",
          "name": "caller",
          "type": "address"
        }
      ],
      "name": "AddTier",
      "type": "event"
    },
    {
      "anonymous": false,
      "inputs": [
        {
          "indexed": true,
          "internalType": "address",
          "name": "owner",
          "type": "address"
        },
        {
          "indexed": true,
          "internalType": "address",
          "name": "approved",
          "type": "address"
        },
        {
          "indexed": true,
          "internalType": "uint256",
          "name": "tokenId",
          "type": "uint256"
        }
      ],
      "name": "Approval",
      "type": "event"
    },
    {
      "anonymous": false,
      "inputs": [
        {
          "indexed": true,
          "internalType": "address",
          "name": "owner",
          "type": "address"
        },
        {
          "indexed": true,
          "internalType": "address",
          "name": "operator",
          "type": "address"
        },
        {
          "indexed": false,
          "internalType": "bool",
          "name": "approved",
          "type": "bool"
        }
      ],
      "name": "ApprovalForAll",
      "type": "event"
    },
    {
      "anonymous": false,
      "inputs": [
        {
          "indexed": true,
          "internalType": "uint256",
          "name": "tokenId",
          "type": "uint256"
        },
        {
          "indexed": true,
          "internalType": "uint256",
          "name": "tierId",
          "type": "uint256"
        },
        {
          "indexed": true,
          "internalType": "address",
          "name": "beneficiary",
          "type": "address"
        },
        {
          "indexed": false,
          "internalType": "uint256",
          "name": "totalAmountContributed",
          "type": "uint256"
        },
        {
          "indexed": false,
          "internalType": "address",
          "name": "caller",
          "type": "address"
        }
      ],
      "name": "Mint",
      "type": "event"
    },
    {
      "anonymous": false,
      "inputs": [
        {
          "indexed": true,
          "internalType": "uint256",
          "name": "tokenId",
          "type": "uint256"
        },
        {
          "indexed": true,
          "internalType": "uint256",
          "name": "tierId",
          "type": "uint256"
        },
        {
          "indexed": true,
          "internalType": "address",
          "name": "beneficiary",
          "type": "address"
        },
        {
          "indexed": false,
          "internalType": "address",
          "name": "caller",
          "type": "address"
        }
      ],
      "name": "MintReservedToken",
      "type": "event"
    },
    {
      "anonymous": false,
      "inputs": [
        {
          "indexed": true,
          "internalType": "address",
          "name": "previousOwner",
          "type": "address"
        },
        {
          "indexed": true,
          "internalType": "address",
          "name": "newOwner",
          "type": "address"
        }
      ],
      "name": "OwnershipTransferred",
      "type": "event"
    },
    {
      "anonymous": false,
      "inputs": [
        {
          "indexed": true,
          "internalType": "uint256",
          "name": "tierId",
          "type": "uint256"
        },
        {
          "indexed": false,
          "internalType": "address",
          "name": "caller",
          "type": "address"
        }
      ],
      "name": "RemoveTier",
      "type": "event"
    },
    {
      "anonymous": false,
      "inputs": [
        {
          "indexed": true,
          "internalType": "string",
          "name": "baseUri",
          "type": "string"
        },
        {
          "indexed": false,
          "internalType": "address",
          "name": "caller",
          "type": "address"
        }
      ],
      "name": "SetBaseUri",
      "type": "event"
    },
    {
      "anonymous": false,
      "inputs": [
        {
          "indexed": true,
          "internalType": "string",
          "name": "contractUri",
          "type": "string"
        },
        {
          "indexed": false,
          "internalType": "address",
          "name": "caller",
          "type": "address"
        }
      ],
      "name": "SetContractUri",
      "type": "event"
    },
    {
      "anonymous": false,
      "inputs": [
        {
          "indexed": true,
          "internalType": "address",
          "name": "beneficiary",
          "type": "address"
        },
        {
          "indexed": false,
          "internalType": "address",
          "name": "caller",
          "type": "address"
        }
      ],
      "name": "SetDefaultReservedTokenBeneficiary",
      "type": "event"
    },
    {
      "anonymous": false,
      "inputs": [
        {
          "indexed": true,
          "internalType": "uint256",
          "name": "tierId",
          "type": "uint256"
        },
        {
          "indexed": false,
          "internalType": "bytes32",
          "name": "encodedIPFSUri",
          "type": "bytes32"
        },
        {
          "indexed": false,
          "internalType": "address",
          "name": "caller",
          "type": "address"
        }
      ],
      "name": "SetEncodedIPFSUri",
      "type": "event"
    },
    {
      "anonymous": false,
      "inputs": [
        {
          "indexed": true,
          "internalType": "contract IJBTokenUriResolver",
          "name": "newResolver",
          "type": "address"
        },
        {
          "indexed": false,
          "internalType": "address",
          "name": "caller",
          "type": "address"
        }
      ],
      "name": "SetTokenUriResolver",
      "type": "event"
    },
    {
      "anonymous": false,
      "inputs": [
        {
          "indexed": true,
          "internalType": "address",
          "name": "from",
          "type": "address"
        },
        {
          "indexed": true,
          "internalType": "address",
          "name": "to",
          "type": "address"
        },
        {
          "indexed": true,
          "internalType": "uint256",
          "name": "tokenId",
          "type": "uint256"
        }
      ],
      "name": "Transfer",
      "type": "event"
    },
    {
      "anonymous": false,
      "inputs": [
        {
          "indexed": true,
          "internalType": "uint256",
          "name": "changeAmount",
          "type": "uint256"
        },
        {
          "indexed": true,
          "internalType": "uint256",
          "name": "newTotalCredits",
          "type": "uint256"
        },
        {
          "indexed": true,
          "internalType": "address",
          "name": "account",
          "type": "address"
        },
        {
          "indexed": false,
          "internalType": "address",
          "name": "caller",
          "type": "address"
        }
      ],
      "name": "UseCredits",
      "type": "event"
    },
    {
      "inputs": [
        {
          "components": [
            {
              "internalType": "uint80",
              "name": "contributionFloor",
              "type": "uint80"
            },
            {
              "internalType": "uint48",
              "name": "lockedUntil",
              "type": "uint48"
            },
            {
              "internalType": "uint40",
              "name": "initialQuantity",
              "type": "uint40"
            },
            {
              "internalType": "uint16",
              "name": "votingUnits",
              "type": "uint16"
            },
            {
              "internalType": "uint16",
              "name": "reservedRate",
              "type": "uint16"
            },
            {
              "internalType": "address",
              "name": "reservedTokenBeneficiary",
              "type": "address"
            },
            {
              "internalType": "uint8",
              "name": "royaltyRate",
              "type": "uint8"
            },
            {
              "internalType": "address",
              "name": "royaltyBeneficiary",
              "type": "address"
            },
            {
              "internalType": "bytes32",
              "name": "encodedIPFSUri",
              "type": "bytes32"
            },
            {
              "internalType": "uint8",
              "name": "category",
              "type": "uint8"
            },
            {
              "internalType": "bool",
              "name": "allowManualMint",
              "type": "bool"
            },
            {
              "internalType": "bool",
              "name": "shouldUseReservedTokenBeneficiaryAsDefault",
              "type": "bool"
            },
            {
              "internalType": "bool",
              "name": "shouldUseRoyaltyBeneficiaryAsDefault",
              "type": "bool"
            },
            {
              "internalType": "bool",
              "name": "transfersPausable",
              "type": "bool"
            }
          ],
          "internalType": "struct JB721TierParams[]",
          "name": "_tiersToAdd",
          "type": "tuple[]"
        },
        {
          "internalType": "uint256[]",
          "name": "_tierIdsToRemove",
          "type": "uint256[]"
        }
      ],
      "name": "adjustTiers",
      "outputs": [],
      "stateMutability": "nonpayable",
      "type": "function"
    },
    {
      "inputs": [
        {
          "internalType": "address",
          "name": "to",
          "type": "address"
        },
        {
          "internalType": "uint256",
          "name": "tokenId",
          "type": "uint256"
        }
      ],
      "name": "approve",
      "outputs": [],
      "stateMutability": "nonpayable",
      "type": "function"
    },
    {
      "inputs": [
        {
          "internalType": "address",
          "name": "_owner",
          "type": "address"
        }
      ],
      "name": "balanceOf",
      "outputs": [
        {
          "internalType": "uint256",
          "name": "balance",
          "type": "uint256"
        }
      ],
      "stateMutability": "view",
      "type": "function"
    },
    {
      "inputs": [],
      "name": "codeOrigin",
      "outputs": [
        {
          "internalType": "address",
          "name": "",
          "type": "address"
        }
      ],
      "stateMutability": "view",
      "type": "function"
    },
    {
      "inputs": [],
      "name": "contractURI",
      "outputs": [
        {
          "internalType": "string",
          "name": "",
          "type": "string"
        }
      ],
      "stateMutability": "view",
      "type": "function"
    },
    {
      "inputs": [
        {
          "internalType": "address",
          "name": "",
          "type": "address"
        }
      ],
      "name": "creditsOf",
      "outputs": [
        {
          "internalType": "uint256",
          "name": "",
          "type": "uint256"
        }
      ],
      "stateMutability": "view",
      "type": "function"
    },
    {
      "inputs": [
        {
          "components": [
            {
              "internalType": "address",
              "name": "payer",
              "type": "address"
            },
            {
              "internalType": "uint256",
              "name": "projectId",
              "type": "uint256"
            },
            {
              "internalType": "uint256",
              "name": "currentFundingCycleConfiguration",
              "type": "uint256"
            },
            {
              "components": [
                {
                  "internalType": "address",
                  "name": "token",
                  "type": "address"
                },
                {
                  "internalType": "uint256",
                  "name": "value",
                  "type": "uint256"
                },
                {
                  "internalType": "uint256",
                  "name": "decimals",
                  "type": "uint256"
                },
                {
                  "internalType": "uint256",
                  "name": "currency",
                  "type": "uint256"
                }
              ],
              "internalType": "struct JBTokenAmount",
              "name": "amount",
              "type": "tuple"
            },
            {
              "components": [
                {
                  "internalType": "address",
                  "name": "token",
                  "type": "address"
                },
                {
                  "internalType": "uint256",
                  "name": "value",
                  "type": "uint256"
                },
                {
                  "internalType": "uint256",
                  "name": "decimals",
                  "type": "uint256"
                },
                {
                  "internalType": "uint256",
                  "name": "currency",
                  "type": "uint256"
                }
              ],
              "internalType": "struct JBTokenAmount",
              "name": "forwardedAmount",
              "type": "tuple"
            },
            {
              "internalType": "uint256",
              "name": "projectTokenCount",
              "type": "uint256"
            },
            {
              "internalType": "address",
              "name": "beneficiary",
              "type": "address"
            },
            {
              "internalType": "bool",
              "name": "preferClaimedTokens",
              "type": "bool"
            },
            {
              "internalType": "string",
              "name": "memo",
              "type": "string"
            },
            {
              "internalType": "bytes",
              "name": "metadata",
              "type": "bytes"
            }
          ],
          "internalType": "struct JBDidPayData",
          "name": "_data",
          "type": "tuple"
        }
      ],
      "name": "didPay",
      "outputs": [],
      "stateMutability": "payable",
      "type": "function"
    },
    {
      "inputs": [
        {
          "components": [
            {
              "internalType": "address",
              "name": "holder",
              "type": "address"
            },
            {
              "internalType": "uint256",
              "name": "projectId",
              "type": "uint256"
            },
            {
              "internalType": "uint256",
              "name": "currentFundingCycleConfiguration",
              "type": "uint256"
            },
            {
              "internalType": "uint256",
              "name": "projectTokenCount",
              "type": "uint256"
            },
            {
              "components": [
                {
                  "internalType": "address",
                  "name": "token",
                  "type": "address"
                },
                {
                  "internalType": "uint256",
                  "name": "value",
                  "type": "uint256"
                },
                {
                  "internalType": "uint256",
                  "name": "decimals",
                  "type": "uint256"
                },
                {
                  "internalType": "uint256",
                  "name": "currency",
                  "type": "uint256"
                }
              ],
              "internalType": "struct JBTokenAmount",
              "name": "reclaimedAmount",
              "type": "tuple"
            },
            {
              "components": [
                {
                  "internalType": "address",
                  "name": "token",
                  "type": "address"
                },
                {
                  "internalType": "uint256",
                  "name": "value",
                  "type": "uint256"
                },
                {
                  "internalType": "uint256",
                  "name": "decimals",
                  "type": "uint256"
                },
                {
                  "internalType": "uint256",
                  "name": "currency",
                  "type": "uint256"
                }
              ],
              "internalType": "struct JBTokenAmount",
              "name": "forwardedAmount",
              "type": "tuple"
            },
            {
              "internalType": "address payable",
              "name": "beneficiary",
              "type": "address"
            },
            {
              "internalType": "string",
              "name": "memo",
              "type": "string"
            },
            {
              "internalType": "bytes",
              "name": "metadata",
              "type": "bytes"
            }
          ],
          "internalType": "struct JBDidRedeemData",
          "name": "_data",
          "type": "tuple"
        }
      ],
      "name": "didRedeem",
      "outputs": [],
      "stateMutability": "payable",
      "type": "function"
    },
    {
      "inputs": [],
      "name": "directory",
      "outputs": [
        {
          "internalType": "contract IJBDirectory",
          "name": "",
          "type": "address"
        }
      ],
      "stateMutability": "view",
      "type": "function"
    },
    {
      "inputs": [
        {
          "internalType": "uint256",
          "name": "_tokenId",
          "type": "uint256"
        }
      ],
      "name": "firstOwnerOf",
      "outputs": [
        {
          "internalType": "address",
          "name": "",
          "type": "address"
        }
      ],
      "stateMutability": "view",
      "type": "function"
    },
    {
      "inputs": [],
      "name": "fundingCycleStore",
      "outputs": [
        {
          "internalType": "contract IJBFundingCycleStore",
          "name": "",
          "type": "address"
        }
      ],
      "stateMutability": "view",
      "type": "function"
    },
    {
      "inputs": [
        {
          "internalType": "uint256",
          "name": "tokenId",
          "type": "uint256"
        }
      ],
      "name": "getApproved",
      "outputs": [
        {
          "internalType": "address",
          "name": "",
          "type": "address"
        }
      ],
      "stateMutability": "view",
      "type": "function"
    },
    {
      "inputs": [
        {
          "internalType": "uint256",
          "name": "_projectId",
          "type": "uint256"
        },
        {
          "internalType": "contract IJBDirectory",
          "name": "_directory",
          "type": "address"
        },
        {
          "internalType": "string",
          "name": "_name",
          "type": "string"
        },
        {
          "internalType": "string",
          "name": "_symbol",
          "type": "string"
        },
        {
          "internalType": "contract IJBFundingCycleStore",
          "name": "_fundingCycleStore",
          "type": "address"
        },
        {
          "internalType": "string",
          "name": "_baseUri",
          "type": "string"
        },
        {
          "internalType": "contract IJBTokenUriResolver",
          "name": "_tokenUriResolver",
          "type": "address"
        },
        {
          "internalType": "string",
          "name": "_contractUri",
          "type": "string"
        },
        {
          "components": [
            {
              "components": [
                {
                  "internalType": "uint80",
                  "name": "contributionFloor",
                  "type": "uint80"
                },
                {
                  "internalType": "uint48",
                  "name": "lockedUntil",
                  "type": "uint48"
                },
                {
                  "internalType": "uint40",
                  "name": "initialQuantity",
                  "type": "uint40"
                },
                {
                  "internalType": "uint16",
                  "name": "votingUnits",
                  "type": "uint16"
                },
                {
                  "internalType": "uint16",
                  "name": "reservedRate",
                  "type": "uint16"
                },
                {
                  "internalType": "address",
                  "name": "reservedTokenBeneficiary",
                  "type": "address"
                },
                {
                  "internalType": "uint8",
                  "name": "royaltyRate",
                  "type": "uint8"
                },
                {
                  "internalType": "address",
                  "name": "royaltyBeneficiary",
                  "type": "address"
                },
                {
                  "internalType": "bytes32",
                  "name": "encodedIPFSUri",
                  "type": "bytes32"
                },
                {
                  "internalType": "uint8",
                  "name": "category",
                  "type": "uint8"
                },
                {
                  "internalType": "bool",
                  "name": "allowManualMint",
                  "type": "bool"
                },
                {
                  "internalType": "bool",
                  "name": "shouldUseReservedTokenBeneficiaryAsDefault",
                  "type": "bool"
                },
                {
                  "internalType": "bool",
                  "name": "shouldUseRoyaltyBeneficiaryAsDefault",
                  "type": "bool"
                },
                {
                  "internalType": "bool",
                  "name": "transfersPausable",
                  "type": "bool"
                }
              ],
              "internalType": "struct JB721TierParams[]",
              "name": "tiers",
              "type": "tuple[]"
            },
            {
              "internalType": "uint256",
              "name": "currency",
              "type": "uint256"
            },
            {
              "internalType": "uint256",
              "name": "decimals",
              "type": "uint256"
            },
            {
              "internalType": "contract IJBPrices",
              "name": "prices",
              "type": "address"
            }
          ],
          "internalType": "struct JB721PricingParams",
          "name": "_pricing",
          "type": "tuple"
        },
        {
          "internalType": "contract IJBTiered721DelegateStore",
          "name": "_store",
          "type": "address"
        },
        {
          "components": [
            {
              "internalType": "bool",
              "name": "lockReservedTokenChanges",
              "type": "bool"
            },
            {
              "internalType": "bool",
              "name": "lockVotingUnitChanges",
              "type": "bool"
            },
            {
              "internalType": "bool",
              "name": "lockManualMintingChanges",
              "type": "bool"
            },
            {
              "internalType": "bool",
              "name": "preventOverspending",
              "type": "bool"
            }
          ],
          "internalType": "struct JBTiered721Flags",
          "name": "_flags",
          "type": "tuple"
        }
      ],
      "name": "initialize",
      "outputs": [],
      "stateMutability": "nonpayable",
      "type": "function"
    },
    {
      "inputs": [
        {
          "internalType": "address",
          "name": "owner",
          "type": "address"
        },
        {
          "internalType": "address",
          "name": "operator",
          "type": "address"
        }
      ],
      "name": "isApprovedForAll",
      "outputs": [
        {
          "internalType": "bool",
          "name": "",
          "type": "bool"
        }
      ],
      "stateMutability": "view",
      "type": "function"
    },
    {
      "inputs": [
        {
          "components": [
            {
              "internalType": "uint16[]",
              "name": "tierIds",
              "type": "uint16[]"
            },
            {
              "internalType": "address",
              "name": "beneficiary",
              "type": "address"
            }
          ],
          "internalType": "struct JBTiered721MintForTiersData[]",
          "name": "_mintForTiersData",
          "type": "tuple[]"
        }
      ],
      "name": "mintFor",
      "outputs": [],
      "stateMutability": "nonpayable",
      "type": "function"
    },
    {
      "inputs": [
        {
          "internalType": "uint16[]",
          "name": "_tierIds",
          "type": "uint16[]"
        },
        {
          "internalType": "address",
          "name": "_beneficiary",
          "type": "address"
        }
      ],
      "name": "mintFor",
      "outputs": [
        {
          "internalType": "uint256[]",
          "name": "tokenIds",
          "type": "uint256[]"
        }
      ],
      "stateMutability": "nonpayable",
      "type": "function"
    },
    {
      "inputs": [
        {
          "components": [
            {
              "internalType": "uint256",
              "name": "tierId",
              "type": "uint256"
            },
            {
              "internalType": "uint256",
              "name": "count",
              "type": "uint256"
            }
          ],
          "internalType": "struct JBTiered721MintReservesForTiersData[]",
          "name": "_mintReservesForTiersData",
          "type": "tuple[]"
        }
      ],
      "name": "mintReservesFor",
      "outputs": [],
      "stateMutability": "nonpayable",
      "type": "function"
    },
    {
      "inputs": [
        {
          "internalType": "uint256",
          "name": "_tierId",
          "type": "uint256"
        },
        {
          "internalType": "uint256",
          "name": "_count",
          "type": "uint256"
        }
      ],
      "name": "mintReservesFor",
      "outputs": [],
      "stateMutability": "nonpayable",
      "type": "function"
    },
    {
      "inputs": [],
      "name": "name",
      "outputs": [
        {
          "internalType": "string",
          "name": "",
          "type": "string"
        }
      ],
      "stateMutability": "view",
      "type": "function"
    },
    {
      "inputs": [],
      "name": "owner",
      "outputs": [
        {
          "internalType": "address",
          "name": "",
          "type": "address"
        }
      ],
      "stateMutability": "view",
      "type": "function"
    },
    {
      "inputs": [
        {
          "internalType": "uint256",
          "name": "tokenId",
          "type": "uint256"
        }
      ],
      "name": "ownerOf",
      "outputs": [
        {
          "internalType": "address",
          "name": "",
          "type": "address"
        }
      ],
      "stateMutability": "view",
      "type": "function"
    },
    {
      "inputs": [
        {
          "components": [
            {
              "internalType": "contract IJBPaymentTerminal",
              "name": "terminal",
              "type": "address"
            },
            {
              "internalType": "address",
              "name": "payer",
              "type": "address"
            },
            {
              "components": [
                {
                  "internalType": "address",
                  "name": "token",
                  "type": "address"
                },
                {
                  "internalType": "uint256",
                  "name": "value",
                  "type": "uint256"
                },
                {
                  "internalType": "uint256",
                  "name": "decimals",
                  "type": "uint256"
                },
                {
                  "internalType": "uint256",
                  "name": "currency",
                  "type": "uint256"
                }
              ],
              "internalType": "struct JBTokenAmount",
              "name": "amount",
              "type": "tuple"
            },
            {
              "internalType": "uint256",
              "name": "projectId",
              "type": "uint256"
            },
            {
              "internalType": "uint256",
              "name": "currentFundingCycleConfiguration",
              "type": "uint256"
            },
            {
              "internalType": "address",
              "name": "beneficiary",
              "type": "address"
            },
            {
              "internalType": "uint256",
              "name": "weight",
              "type": "uint256"
            },
            {
              "internalType": "uint256",
              "name": "reservedRate",
              "type": "uint256"
            },
            {
              "internalType": "string",
              "name": "memo",
              "type": "string"
            },
            {
              "internalType": "bytes",
              "name": "metadata",
              "type": "bytes"
            }
          ],
          "internalType": "struct JBPayParamsData",
          "name": "_data",
          "type": "tuple"
        }
      ],
      "name": "payParams",
      "outputs": [
        {
          "internalType": "uint256",
          "name": "weight",
          "type": "uint256"
        },
        {
          "internalType": "string",
          "name": "memo",
          "type": "string"
        },
        {
          "components": [
            {
              "internalType": "contract IJBPayDelegate",
              "name": "delegate",
              "type": "address"
            },
            {
              "internalType": "uint256",
              "name": "amount",
              "type": "uint256"
            }
          ],
          "internalType": "struct JBPayDelegateAllocation[]",
          "name": "delegateAllocations",
          "type": "tuple[]"
        }
      ],
      "stateMutability": "view",
      "type": "function"
    },
    {
      "inputs": [],
      "name": "prices",
      "outputs": [
        {
          "internalType": "contract IJBPrices",
          "name": "",
          "type": "address"
        }
      ],
      "stateMutability": "view",
      "type": "function"
    },
    {
      "inputs": [],
      "name": "pricingCurrency",
      "outputs": [
        {
          "internalType": "uint256",
          "name": "",
          "type": "uint256"
        }
      ],
      "stateMutability": "view",
      "type": "function"
    },
    {
      "inputs": [],
      "name": "pricingDecimals",
      "outputs": [
        {
          "internalType": "uint256",
          "name": "",
          "type": "uint256"
        }
      ],
      "stateMutability": "view",
      "type": "function"
    },
    {
      "inputs": [],
      "name": "projectId",
      "outputs": [
        {
          "internalType": "uint256",
          "name": "",
          "type": "uint256"
        }
      ],
      "stateMutability": "view",
      "type": "function"
    },
    {
      "inputs": [
        {
          "components": [
            {
              "internalType": "contract IJBPaymentTerminal",
              "name": "terminal",
              "type": "address"
            },
            {
              "internalType": "address",
              "name": "holder",
              "type": "address"
            },
            {
              "internalType": "uint256",
              "name": "projectId",
              "type": "uint256"
            },
            {
              "internalType": "uint256",
              "name": "currentFundingCycleConfiguration",
              "type": "uint256"
            },
            {
              "internalType": "uint256",
              "name": "tokenCount",
              "type": "uint256"
            },
            {
              "internalType": "uint256",
              "name": "totalSupply",
              "type": "uint256"
            },
            {
              "internalType": "uint256",
              "name": "overflow",
              "type": "uint256"
            },
            {
              "components": [
                {
                  "internalType": "address",
                  "name": "token",
                  "type": "address"
                },
                {
                  "internalType": "uint256",
                  "name": "value",
                  "type": "uint256"
                },
                {
                  "internalType": "uint256",
                  "name": "decimals",
                  "type": "uint256"
                },
                {
                  "internalType": "uint256",
                  "name": "currency",
                  "type": "uint256"
                }
              ],
              "internalType": "struct JBTokenAmount",
              "name": "reclaimAmount",
              "type": "tuple"
            },
            {
              "internalType": "bool",
              "name": "useTotalOverflow",
              "type": "bool"
            },
            {
              "internalType": "uint256",
              "name": "redemptionRate",
              "type": "uint256"
            },
            {
              "internalType": "string",
              "name": "memo",
              "type": "string"
            },
            {
              "internalType": "bytes",
              "name": "metadata",
              "type": "bytes"
            }
          ],
          "internalType": "struct JBRedeemParamsData",
          "name": "_data",
          "type": "tuple"
        }
      ],
      "name": "redeemParams",
      "outputs": [
        {
          "internalType": "uint256",
          "name": "reclaimAmount",
          "type": "uint256"
        },
        {
          "internalType": "string",
          "name": "memo",
          "type": "string"
        },
        {
          "components": [
            {
              "internalType": "contract IJBRedemptionDelegate",
              "name": "delegate",
              "type": "address"
            },
            {
              "internalType": "uint256",
              "name": "amount",
              "type": "uint256"
            }
          ],
          "internalType": "struct JBRedemptionDelegateAllocation[]",
          "name": "delegateAllocations",
          "type": "tuple[]"
        }
      ],
      "stateMutability": "view",
      "type": "function"
    },
    {
      "inputs": [
        {
          "internalType": "uint256[]",
          "name": "_tokenIds",
          "type": "uint256[]"
        },
        {
          "components": [
            {
              "internalType": "contract IJBPaymentTerminal",
              "name": "terminal",
              "type": "address"
            },
            {
              "internalType": "address",
              "name": "holder",
              "type": "address"
            },
            {
              "internalType": "uint256",
              "name": "projectId",
              "type": "uint256"
            },
            {
              "internalType": "uint256",
              "name": "currentFundingCycleConfiguration",
              "type": "uint256"
            },
            {
              "internalType": "uint256",
              "name": "tokenCount",
              "type": "uint256"
            },
            {
              "internalType": "uint256",
              "name": "totalSupply",
              "type": "uint256"
            },
            {
              "internalType": "uint256",
              "name": "overflow",
              "type": "uint256"
            },
            {
              "components": [
                {
                  "internalType": "address",
                  "name": "token",
                  "type": "address"
                },
                {
                  "internalType": "uint256",
                  "name": "value",
                  "type": "uint256"
                },
                {
                  "internalType": "uint256",
                  "name": "decimals",
                  "type": "uint256"
                },
                {
                  "internalType": "uint256",
                  "name": "currency",
                  "type": "uint256"
                }
              ],
              "internalType": "struct JBTokenAmount",
              "name": "reclaimAmount",
              "type": "tuple"
            },
            {
              "internalType": "bool",
              "name": "useTotalOverflow",
              "type": "bool"
            },
            {
              "internalType": "uint256",
              "name": "redemptionRate",
              "type": "uint256"
            },
            {
              "internalType": "string",
              "name": "memo",
              "type": "string"
            },
            {
              "internalType": "bytes",
              "name": "metadata",
              "type": "bytes"
            }
          ],
          "internalType": "struct JBRedeemParamsData",
          "name": "",
          "type": "tuple"
        }
      ],
      "name": "redemptionWeightOf",
      "outputs": [
        {
          "internalType": "uint256",
          "name": "",
          "type": "uint256"
        }
      ],
      "stateMutability": "view",
      "type": "function"
    },
    {
      "inputs": [],
      "name": "renounceOwnership",
      "outputs": [],
      "stateMutability": "nonpayable",
      "type": "function"
    },
    {
      "inputs": [
        {
          "internalType": "uint256",
          "name": "_tokenId",
          "type": "uint256"
        },
        {
          "internalType": "uint256",
          "name": "_salePrice",
          "type": "uint256"
        }
      ],
      "name": "royaltyInfo",
      "outputs": [
        {
          "internalType": "address",
          "name": "",
          "type": "address"
        },
        {
          "internalType": "uint256",
          "name": "",
          "type": "uint256"
        }
      ],
      "stateMutability": "view",
      "type": "function"
    },
    {
      "inputs": [
        {
          "internalType": "address",
          "name": "from",
          "type": "address"
        },
        {
          "internalType": "address",
          "name": "to",
          "type": "address"
        },
        {
          "internalType": "uint256",
          "name": "tokenId",
          "type": "uint256"
        }
      ],
      "name": "safeTransferFrom",
      "outputs": [],
      "stateMutability": "nonpayable",
      "type": "function"
    },
    {
      "inputs": [
        {
          "internalType": "address",
          "name": "from",
          "type": "address"
        },
        {
          "internalType": "address",
          "name": "to",
          "type": "address"
        },
        {
          "internalType": "uint256",
          "name": "tokenId",
          "type": "uint256"
        },
        {
          "internalType": "bytes",
          "name": "data",
          "type": "bytes"
        }
      ],
      "name": "safeTransferFrom",
      "outputs": [],
      "stateMutability": "nonpayable",
      "type": "function"
    },
    {
      "inputs": [
        {
          "internalType": "address",
          "name": "operator",
          "type": "address"
        },
        {
          "internalType": "bool",
          "name": "approved",
          "type": "bool"
        }
      ],
      "name": "setApprovalForAll",
      "outputs": [],
      "stateMutability": "nonpayable",
      "type": "function"
    },
    {
      "inputs": [
        {
          "internalType": "string",
          "name": "_baseUri",
          "type": "string"
        }
      ],
      "name": "setBaseUri",
      "outputs": [],
      "stateMutability": "nonpayable",
      "type": "function"
    },
    {
      "inputs": [
        {
          "internalType": "string",
          "name": "_contractUri",
          "type": "string"
        }
      ],
      "name": "setContractUri",
      "outputs": [],
      "stateMutability": "nonpayable",
      "type": "function"
    },
    {
      "inputs": [
        {
          "internalType": "address",
          "name": "_beneficiary",
          "type": "address"
        }
      ],
      "name": "setDefaultReservedTokenBeneficiary",
      "outputs": [],
      "stateMutability": "nonpayable",
      "type": "function"
    },
    {
      "inputs": [
        {
          "internalType": "uint256",
          "name": "_tierId",
          "type": "uint256"
        },
        {
          "internalType": "bytes32",
          "name": "_encodedIPFSUri",
          "type": "bytes32"
        }
      ],
      "name": "setEncodedIPFSUriOf",
      "outputs": [],
      "stateMutability": "nonpayable",
      "type": "function"
    },
    {
      "inputs": [
        {
          "internalType": "contract IJBTokenUriResolver",
          "name": "_tokenUriResolver",
          "type": "address"
        }
      ],
      "name": "setTokenUriResolver",
      "outputs": [],
      "stateMutability": "nonpayable",
      "type": "function"
    },
    {
      "inputs": [],
      "name": "store",
      "outputs": [
        {
          "internalType": "contract IJBTiered721DelegateStore",
          "name": "",
          "type": "address"
        }
      ],
      "stateMutability": "view",
      "type": "function"
    },
    {
      "inputs": [
        {
          "internalType": "bytes4",
          "name": "_interfaceId",
          "type": "bytes4"
        }
      ],
      "name": "supportsInterface",
      "outputs": [
        {
          "internalType": "bool",
          "name": "",
          "type": "bool"
        }
      ],
      "stateMutability": "view",
      "type": "function"
    },
    {
      "inputs": [],
      "name": "symbol",
      "outputs": [
        {
          "internalType": "string",
          "name": "",
          "type": "string"
        }
      ],
      "stateMutability": "view",
      "type": "function"
    },
    {
      "inputs": [
        {
          "internalType": "uint256",
          "name": "_tokenId",
          "type": "uint256"
        }
      ],
      "name": "tokenURI",
      "outputs": [
        {
          "internalType": "string",
          "name": "",
          "type": "string"
        }
      ],
      "stateMutability": "view",
      "type": "function"
    },
    {
      "inputs": [
        {
          "components": [
            {
              "internalType": "contract IJBPaymentTerminal",
              "name": "terminal",
              "type": "address"
            },
            {
              "internalType": "address",
              "name": "holder",
              "type": "address"
            },
            {
              "internalType": "uint256",
              "name": "projectId",
              "type": "uint256"
            },
            {
              "internalType": "uint256",
              "name": "currentFundingCycleConfiguration",
              "type": "uint256"
            },
            {
              "internalType": "uint256",
              "name": "tokenCount",
              "type": "uint256"
            },
            {
              "internalType": "uint256",
              "name": "totalSupply",
              "type": "uint256"
            },
            {
              "internalType": "uint256",
              "name": "overflow",
              "type": "uint256"
            },
            {
              "components": [
                {
                  "internalType": "address",
                  "name": "token",
                  "type": "address"
                },
                {
                  "internalType": "uint256",
                  "name": "value",
                  "type": "uint256"
                },
                {
                  "internalType": "uint256",
                  "name": "decimals",
                  "type": "uint256"
                },
                {
                  "internalType": "uint256",
                  "name": "currency",
                  "type": "uint256"
                }
              ],
              "internalType": "struct JBTokenAmount",
              "name": "reclaimAmount",
              "type": "tuple"
            },
            {
              "internalType": "bool",
              "name": "useTotalOverflow",
              "type": "bool"
            },
            {
              "internalType": "uint256",
              "name": "redemptionRate",
              "type": "uint256"
            },
            {
              "internalType": "string",
              "name": "memo",
              "type": "string"
            },
            {
              "internalType": "bytes",
              "name": "metadata",
              "type": "bytes"
            }
          ],
          "internalType": "struct JBRedeemParamsData",
          "name": "",
          "type": "tuple"
        }
      ],
      "name": "totalRedemptionWeight",
      "outputs": [
        {
          "internalType": "uint256",
          "name": "",
          "type": "uint256"
        }
      ],
      "stateMutability": "view",
      "type": "function"
    },
    {
      "inputs": [
        {
          "internalType": "address",
          "name": "from",
          "type": "address"
        },
        {
          "internalType": "address",
          "name": "to",
          "type": "address"
        },
        {
          "internalType": "uint256",
          "name": "tokenId",
          "type": "uint256"
        }
      ],
      "name": "transferFrom",
      "outputs": [],
      "stateMutability": "nonpayable",
      "type": "function"
    },
    {
      "inputs": [
        {
          "internalType": "address",
          "name": "newOwner",
          "type": "address"
        }
      ],
      "name": "transferOwnership",
      "outputs": [],
      "stateMutability": "nonpayable",
      "type": "function"
    }
  ],
  "bytecode": {
    "object": "0x608080604052346100655760078054336001600160a01b03198083168217909355906001600160a01b03167f8be0079c531659141344cd1fd0a4f28419497f9722a3daafe3b4186f6b6457e0600080a3309060085416176008556147de908161006b8239f35b600080fdfe608080604052600436101561001357600080fd5b600090813560e01c90816301ffc9a7146124c95750806306fdde0314612437578063081812fc14612418578063095ea7b31461234b5780631d153ca41461232257806323b872dd146122e85780632407497e14612244578063245a45b51461220b57806325eb91ee14611fcd5780632a55205a14611f035780632a596e5314611e655780632b13c58f1461198557806336c1a93b146118de5780633fafa127146118c057806342842e0e146118985780634ecba6251461187a578063525350ba146117cd57806354c6d1f5146117ae578063557e7155146117855780636352211e1461175457806364640c1e146117365780636ac6d941146116dd57806370a082311461163f578063715018a6146115e15780637ba62bf9146115895780638da5cb5b146115605780639494bf721461153e57806395d89b4114611481578063975057e714611458578063a0bcfc7f146113a6578063a22cb46514611307578063a51cfd1814611288578063aa4fb15b14611270578063b88d4fde14611210578063c41c2f24146111e7578063c87b56dd146111b3578063ccb4807b14611101578063d1704baf14610698578063d3419bf31461066f578063d46cf17114610547578063da9ee8b714610440578063df487e261461038d578063e8a3d485146102f7578063e985e9c5146102a35763f2fde38b1461021057600080fd5b346102a05760203660031901126102a057610229612627565b610231614585565b6001600160a01b0381161561024c57610249906145dd565b80f35b60405162461bcd60e51b815260206004820152602660248201527f4f776e61626c653a206e6577206f776e657220697320746865207a65726f206160448201526564647265737360d01b6064820152608490fd5b80fd5b50346102a05760403660031901126102a0576102bd612627565b60406102c761263d565b9260018060a01b0380931681526004602052209116600052602052602060ff604060002054166040519015158152f35b50346102a057806003193601126102a057600954604051630155619b60e71b8152306004820152908290829060249082906001600160a01b03165afa908115610382578261035b939261035f575b5050604051918291602083526020830190612602565b0390f35b61037b92503d8091833e61037381836127f9565b810190612a60565b3880610345565b6040513d84823e3d90fd5b50346102a05760203660031901126102a0576103a7612627565b6103af614585565b6009546001600160a01b0390811691839190833b1561043c5782916024839260405194859384926317161f7d60e01b845216978860048401525af1801561038257610424575b50507fab0014d4c7a642a02a31b303a318908c22b0fb2001f107278fc6076b4c671b656020604051338152a280f35b61042d90612748565b6104385781386103f5565b5080fd5b8280fd5b5060031960203682011261043857600435906001600160401b03821161043c57610200908236030112610438576005543415908115916104b4575b81156104a5575b506104935761024990600401613d65565b6040516331c57b1b60e21b8152600490fd5b90506024820135141538610482565b600654604051636e49181f60e01b815260048101839052336024820152919250602090829060449082906001600160a01b03165afa90811561053c5784916104ff575b50159061047b565b90506020813d8211610534575b81610519602093836127f9565b810103126105305761052a90613614565b386104f7565b8380fd5b3d915061050c565b6040513d86823e3d90fd5b50346102a0576003196020368201811361043c57600435916001600160401b038311610530576101a090833603011261043c579161059661058f610164840184600401613b5e565b3691612900565b90604051936105a485612771565b600192838652825b82811061064557506105fb906040516105c481612771565b30815284848201526105d588612f5d565b526105df87612f5d565b5061012460405196013586526060838701526060860190612602565b9084820360408601528080875193848152019601925b82811061061e5785870386f35b835180516001600160a01b0316885282015182880152604090960195928101928401610611565b829060409795975161065681612771565b60008152600083820152828288010152019593956105ac565b50346102a057806003193601126102a057600b546040516001600160a01b039091168152602090f35b50346102a057600319906101c0368301126102a0576024356001600160a01b0381168103610438576044356001600160401b03811161043c576106df903690600401612937565b926064356001600160401b038111610530576106ff903690600401612937565b91608435916001600160a01b0383168303610d425760a4356001600160401b038111610dbf57610733903690600401612937565b60c435926001600160a01b0384168403610fd35760e4356001600160401b038111610fdc57610766903690600401612937565b926001600160401b036101043511610fdc5760809061010435360301126110fd57604051946107948661278c565b61010435600401356001600160401b038111610fd857366023826101043501011215610fd85760048161010435010135906107ce8261281a565b916107dc60405193846127f9565b80835260208301913660246101c084028361010435010101116110f957602481610104350101925b60246101c0840283610104350101018410610fe05750505090875250610104356024810135602088015260448101356040880152606401356001600160a01b0381169003610fdc576101043560640135606087015261012435966001600160a01b0388168803610fd857608036610143190112610fd857604051996108888b61278c565b610144358015158103610fd3578b526101643515156101643503610fd3576101643560208c01526101843515156101843503610fd3576101843560408c01526101a43515156101a43503610fd3576101a43560608c01526008546001600160a01b03163014610fcf576009546001600160a01b0316610fcf578051906001600160401b038211610fbb57819061091e8c546133ab565b601f8111610f49575b50602090601f8311600114610ed5578c92610eca575b50508160011b916000199060031b1c19161789555b8051906001600160401b038211610eb65781906109706001546133ab565b601f8111610e44575b50602090601f8311600114610dce578b92610dc3575b50508160011b916000199060031b1c1916176001555b600435600555600680546001600160a01b03199081166001600160a01b0394851617909155600a80548216928416929092179091556009805482168884161790556020860151600c556040860151600d556060860151600b805490921692169190911790558051610d46575b508051610cc9575b506001600160a01b038116610c64575b5051928351610b0b575b829350805115801590610afe575b8015610af1575b8015610ae4575b610a5e575b82610249336145dd565b6001600160a01b0382163b15610ae0576060608484928360405195869485936365c13f1960e11b855280511515600486015260208101511515602486015260408101511515604486015201511515606484015260018060a01b03165af1801561038257610acc575b80610a54565b610ad590612748565b6102a0578038610ac6565b5050fd5b5060608101511515610a4f565b5060408101511515610a48565b5060208101511515610a41565b60405163229dad5f60e11b815260248101602060048301528551809152602060448301960190855b818110610b8357505050838180829703818360018060a01b0388165af1801561053c57610b61575b50610a33565b610b7c903d8086833e610b7481836127f9565b810190612ddc565b5038610b5b565b90919660206101c06001928a5169ffffffffffffffffffff815116825265ffffffffffff84820151168483015264ffffffffff604082015116604083015261ffff806060830151166060840152608082015116608083015260a0858060a01b0381830151169083015260ff60c081818401511690840152858060a01b0360e08301511660e08401526101008083015190840152610120908183015116908301526101408082015115159083015261016080820151151590830152610180808201511515908301526101a0809101511515908201520198019101919091610b33565b6001600160a01b0383163b156105305760405163036129cb60e61b81526001600160a01b03918216600482015290849082906024908290849088165af1801561053c57908491610cb5575b50610a29565b610cbe90612748565b61043c578238610caf565b6001600160a01b0384163b15610d425784610d00916040518093819263d67b78fd60e01b8352602060048401526024830190612602565b0381836001600160a01b0389165af18015610d3757908591610d23575b50610a19565b610d2c90612748565b610530578338610d1d565b6040513d87823e3d90fd5b8480fd5b6001600160a01b0385163b15610dbf5785610d7d91604051809381926331315e5960e11b8352602060048401526024830190612602565b0381836001600160a01b038a165af18015610db457908691610da0575b50610a11565b610da990612748565b610d42578438610d9a565b6040513d88823e3d90fd5b8580fd5b01519050388061098f565b925060018b52600080516020614789833981519152908b935b601f1984168510610e29576001945083601f19811610610e10575b505050811b016001556109a5565b015160001960f88460031b161c19169055388080610e02565b81810151835560209485019460019093019290910190610de7565b90915060018b52601f830160051c6000805160206147898339815191520160208410610ea1575b908392915b601f820160051c600080516020614789833981519152018110610e935750610979565b8c8155849350600101610e70565b50600080516020614789833981519152610e6b565b634e487b7160e01b8a52604160045260248afd5b01519050388061093d565b92508b8052600080516020614769833981519152908c935b601f1984168510610f2e576001945083601f19811610610f15575b505050811b018955610952565b015160001960f88460031b161c19169055388080610f08565b81810151835560209485019460019093019290910190610eed565b9091508b8052601f830160051c6000805160206147698339815191520160208410610fa6575b908392915b8d601f830160051c600080516020614769833981519152018210610f99575050610927565b8155849350600101610f74565b50600080516020614769833981519152610f6f565b634e487b7160e01b8b52604160045260248bfd5b8980fd5b600080fd5b8880fd5b8780fd5b6101c0843603126110f557906101c0806020602494604051611001816127a7565b61100a89612955565b8152611017838a0161296c565b8382015261102760408a0161297f565b60408201526060611039818b01612991565b9082015261104960808a01612991565b608082015260a061105b818b01612653565b9082015260c061106c818b016129a0565b9082015261107c60e08a01612653565b60e0820152610100808a01359082015261012061109a818b016129a0565b908201526101406110ac818b016128d8565b908201526101606110be818b016128d8565b908201526101806110d0818b016128d8565b908201526101a06110e2818b016128d8565b9082015281520195019491925050610804565b8c80fd5b8b80fd5b8680fd5b50346102a0576111103661288f565b90611119614585565b60095483906001600160a01b0316803b156104385781604051809263d67b78fd60e01b825281838161114f8a8a60048401612f7e565b03925af180156103825761119f575b50508160405192839283378101600081520390207fd36dc0c1a06103fdcaf15f3f6fb797d1a97997514c78de073640c8b5005454b86020604051338152a280f35b6111a890612748565b61043c57823861115e565b50346102a05760203660031901126102a05761035b6111d3600435612abe565b604051918291602083526020830190612602565b50346102a057806003193601126102a0576006546040516001600160a01b039091168152602090f35b50346102a05760803660031901126102a05761122a612627565b61123261263d565b606435916001600160401b038311610530573660238401121561053057611266610249933690602481600401359101612900565b916044359161341d565b50346102a057610249611282366126cc565b90613036565b50346102a05761129f61129a366126e2565b613beb565b906040519283526112bc6020916060838601526060850190612602565b9083820360408501528080845193848152019301945b8281106112df5784840385f35b855180516001600160a01b0316855282015184830152948101946040909301926001016112d2565b50346102a05760403660031901126102a057611321612627565b60243590811515809203610fd3576001600160a01b0316903382146113945733835260046020526040832082600052602052604060002060ff1981541660ff83161790556040519081527f17307eab39ab6107e8899845ad3d59bd9653f200f220920489ca2b5937696c3160203392a380f35b6040516306f8139d60e11b8152600490fd5b50346102a0576113b53661288f565b906113be614585565b60095483906001600160a01b0316803b15610438578160405180926331315e5960e11b82528183816113f48a8a60048401612f7e565b03925af1801561038257611444575b50508160405192839283378101600081520390207f7bc9110d5de090dd59e07912d2b93a5a27ac70a60c8d8e324db4f9ee8b8b5c136020604051338152a280f35b61144d90612748565b61043c578238611403565b50346102a057806003193601126102a0576009546040516001600160a01b039091168152602090f35b50346102a057806003193601126102a057604051908060018054916114a5836133ab565b8086529282811690811561151457506001146114cc575b61035b856111d3818703826127f9565b92508083526000805160206147898339815191525b8284106114fc5750505081016020016111d38261035b6114bc565b805460208587018101919091529093019281016114e1565b86955061035b969350602092506111d394915060ff191682840152151560051b82010192936114bc565b50346102a05761154d366126e2565b506020611558612d40565b604051908152f35b50346102a057806003193601126102a0576007546040516001600160a01b039091168152602090f35b50346102a057600319906040368301126102a0576001600160401b039160043583811161043c576115be903690600401612831565b9260243590811161043c57906101e091360301126102a057602061155883612cc2565b50346102a057806003193601126102a0576115fa614585565b600780546001600160a01b031981169091556000906001600160a01b03167f8be0079c531659141344cd1fd0a4f28419497f9722a3daafe3b4186f6b6457e08280a380f35b50346102a057602090816003193601126102a05761165b612627565b600954604051633de222bb60e21b81523060048201526001600160a01b03928316602482015291849183916044918391165afa9182156116d157916116a4575b50604051908152f35b90508181813d83116116ca575b6116bb81836127f9565b81010312610fd357513861169b565b503d6116b1565b604051903d90823e3d90fd5b50346102a05760403660031901126102a057600435906001600160401b0382116102a05761035b611722611714366004860161269c565b61171c61263d565b91613207565b604051918291602083526020830190612714565b50346102a057806003193601126102a0576020600c54604051908152f35b50346102a05760203660031901126102a0576020611773600435613378565b6040516001600160a01b039091168152f35b50346102a057806003193601126102a057600a546040516001600160a01b039091168152602090f35b50346102a05760203660031901126102a05760206117736004356129c2565b50346102a05760403660031901126102a0576004356024356117ed614585565b60095483906001600160a01b0316803b15610438578180916044604051809481936324de8d6360e11b83528960048401528860248401525af1801561038257611866575b505060407f677da4fed654db8e604791fa2582f342e2001aa217e27f6985eb3e0f67e5a7fc918151908152336020820152a280f35b61186f90612748565b61043c578238611831565b50346102a057806003193601126102a0576020600d54604051908152f35b50346102a0576102496118aa36612667565b90604051926118b8846127c3565b85845261341d565b50346102a057806003193601126102a0576020600554604051908152f35b50346102a057602080600319360112610438576001600160401b036004358181116105305761191190369060040161269c565b91909261191c614585565b845b838110611929578580f35b60059080821b860135603e1987360301811215610fdc5786018035601e1982360301811215610fd857810192833593868511610fcf5785859101911b36038113610fd85760019361171c8661197e9401612e01565b500161191e565b5061198f366126e2565b903415801590611ddf575b8015611dcf575b611dbd576101c08083016119b58185613b5e565b91905060248092108015611d8f575b611d7d576119d56119dd9186613b5e565b810190613b90565b93915050825190845b828110611a5557600954869081906001600160a01b03168688823b15611a5057611a2f928492836040518096819582946386bc2be360e01b845260206004850152830190612714565b03925af1801561038257611a405750f35b611a4990612748565b6102a05780f35b505050fd5b611a5f8186612f6a565b519081875260206002815260018060a01b03908160408a20541682611a838c612e01565b1603611d6b5784611a9385613378565b928084169384611bbc575b506002611b1793611aae886139f0565b878d525260408b2080546001600160a01b0319169055858b857fddf252ad1be2c89b69c2b068fc378daa952ba7f163c4a11628f55a4df523b3ef8280a460095460405163b67cb04760e01b81523060048201526024810197909752169491829081906044820190565b0381875afa908115611b8357600091611b8f575b505190833b15610fd35760646000928360405196879485936330b157e560e21b855260048501528b8401528160448401525af1918215611b8357600192611b74575b50016119e6565b611b7d90612748565b38611b6d565b6040513d6000823e3d90fd5b611baf9150853d8711611bb5575b611ba781836127f9565b810190613621565b38611b2b565b503d611b9d565b60095460405163b67cb04760e01b81523060048201526024810189905290831693508881604481875afa8015611b83576101a091600091611d4e575b500151611ce7575b6040516308ed6c0160e41b815230600482015260248101889052928484604481845afa8015611b83578994600091611ca9575b50831615611c42575b50611a9e565b809193503b15610fd357604051638cec7d3960e01b8152600481018890526001600160a01b039390931660248401526000908390604490829084905af18015611b8357611b17938893600292611c9a575b5093611c3c565b611ca390612748565b38611c93565b91929394508582813d8311611ce0575b611cc381836127f9565b810103126102a057509083611cda8a9594936129ae565b90611c33565b503d611cb9565b81600a54166005546040519182916321d1336160e11b83526004830152818d6101209485935afa8015611b8357611d20575b5050611c00565b81611d3f92903d10611d47575b611d3781836127f9565b810190612fa6565b503880611d19565b503d611d2d565b611d6591508a3d8c11611bb557611ba781836127f9565b38611bf8565b60405163075fd2b160e01b8152600490fd5b604051632a84050f60e01b8152600490fd5b50611d9a8186613b5e565b8311610d4257602001356001600160e01b03191663b3bcbb7960e01b14156119c4565b604051633efca5c360e11b8152600490fd5b50600554602083013514156119a1565b50600654600554604051636e49181f60e01b8152600481019190915233602482015290602090829060449082906001600160a01b03165afa908115610382578291611e2c575b501561199a565b90506020813d8211611e5d575b81611e46602093836127f9565b8101031261043857611e5790613614565b38611e25565b3d9150611e39565b50346102a057602080600319360112610438576001600160401b036004358181116105305736602382011215610530578060040135918211610530576024906006368385831b84010111610dbf57855b848110611ec0578680f35b80821b83019060406023198336030112610fdc57611efd87600193604051611ee781612771565b6044898301359283835201359283910152613036565b01611eb5565b50346102a057604090611f15366126cc565b60095484516329c5eaf560e11b815230600482015260248101939093526044830191909152909290839060649082906001600160a01b03165afa918215611fc057818093611f7c575b5050604080516001600160a01b039290921682526020820192909252f35b915091506040823d604011611fb8575b81611f99604093836127f9565b810103126102a057506020611fad826129ae565b910151903880611f5e565b3d9150611f8c565b50604051903d90823e3d90fd5b50346102a05760403660031901126102a0576001600160401b0360043581811161043c573660238201121561043c57806004013591808311610530576024906101c090368383870286010111610dbf578235908111610dbf5761203490369060040161269c565b61203c614585565b80612141575b50508361204d578480f35b60095460405163229dad5f60e11b81526020600482015283810186905290869082906001600160a01b031660448201878701845b878b821061211d575050508383809203925af1908115610db4578691612103575b50855b8581106120b25750508480f35b806120bf60019284612f6a565b517f8aa4a03deb8db10032373886aa0376c918ccf36bcdb59ca4da2a807ac7ff1a046101e06040516120f7818a8a88028d0101612e3b565b3388820152a2016120a5565b61211791503d8088833e610b7481836127f9565b386120a2565b919450929450808261213160019487612e3b565b0193019101918993918593612081565b6009546001600160a01b031690813b15610fdc576040516320512ba160e01b8152602060048201819052868201839052928991906001600160fb1b03841161043c5781839181836044828960051b808d8484013781010301925af18015610382576121f7575b5050875b8181106121b9575050612042565b806121c76001928487612e15565b357f832d89d991be5351d793c20faf4b7dd44f8aa9ce39e3cb160c6317de6fbba72985604051338152a2016121ab565b61220090612748565b610fdc5787386121a7565b50346102a05760203660031901126102a0576020906040906001600160a01b03612233612627565b168152600e83522054604051908152f35b50346102a05760203660031901126102a05761225e612627565b90612267614585565b6009546001600160a01b0390811692833b1561043c57829160248392604051948593849263036129cb60e61b845216978860048401525af18015610382576122d9575b50907fe7784d93cfbfa4408e19577e6cc0436f4dbb51214b70e100905dfce9def88c166020604051338152a280f35b6122e290612748565b386122aa565b50346102a0576122f736612667565b90612302823361345c565b1561231057610249926136e5565b60405163e5fa0e3560e01b8152600490fd5b50346102a057806003193601126102a0576008546040516001600160a01b039091168152602090f35b50346102a05760403660031901126102a057612365612627565b602435906001600160a01b03808061237c85613378565b16921691808314612406578033141590816123e4575b506123105782845260036020526040842080546001600160a01b031916831790556123bc83613378565b167f8c5be1e5ebec7d5bd14f71427d1e84f3dd0314c0f7b2291e5b200ac8c7c3b9258480a480f35b9050845260046020526040842033855260205260ff6040852054161538612392565b60405163133f8be960e01b8152600490fd5b50346102a05760203660031901126102a05760206117736004356133e5565b50346102a057806003193601126102a05760405190808054612458816133ab565b8085529160019180831690811561151457506001146124815761035b856111d3818703826127f9565b80809450526000805160206147698339815191525b8284106124b15750505081016020016111d38261035b6114bc565b80546020858701810191909152909301928101612496565b9050346104385760203660031901126104385760043563ffffffff60e01b811680910361043c57602092506306decc2d60e21b811490811561250d575b5015158152f35b63b3bcbb7960e01b8114915081156125b9575b81156125a8575b8115612597575b8115612586575b8115612543575b5038612506565b6380ac58cd60e01b811491508115612575575b8115612564575b503861253c565b6301ffc9a760e01b1490503861255d565b635b5e139f60e01b81149150612556565b63152a902d60e11b81149150612535565b632b13c58f60e01b8114915061252e565b63da9ee8b760e01b81149150612527565b6371700c6960e01b81149150612520565b35906001600160e01b031982168203610fd357565b60005b8381106125f25750506000910152565b81810151838201526020016125e2565b9060209161261b815180928185528580860191016125df565b601f01601f1916010190565b600435906001600160a01b0382168203610fd357565b602435906001600160a01b0382168203610fd357565b35906001600160a01b0382168203610fd357565b6060906003190112610fd3576001600160a01b03906004358281168103610fd357916024359081168103610fd3579060443590565b9181601f84011215610fd3578235916001600160401b038311610fd3576020808501948460051b010111610fd357565b6040906003190112610fd3576004359060243590565b60031990602081830112610fd357600435916001600160401b038311610fd357826101e092030112610fd35760040190565b90815180825260208080930193019160005b828110612734575050505090565b835185529381019392810192600101612726565b6001600160401b03811161275b57604052565b634e487b7160e01b600052604160045260246000fd5b604081019081106001600160401b0382111761275b57604052565b608081019081106001600160401b0382111761275b57604052565b6101c081019081106001600160401b0382111761275b57604052565b602081019081106001600160401b0382111761275b57604052565b606081019081106001600160401b0382111761275b57604052565b90601f801991011681019081106001600160401b0382111761275b57604052565b6001600160401b03811161275b5760051b60200190565b81601f82011215610fd3578035916128488361281a565b9261285660405194856127f9565b808452602092838086019260051b820101928311610fd3578301905b828210612880575050505090565b81358152908301908301612872565b906020600319830112610fd3576004356001600160401b0392838211610fd35780602383011215610fd3578160040135938411610fd35760248483010111610fd3576024019190565b35908115158203610fd357565b6001600160401b03811161275b57601f01601f191660200190565b92919261290c826128e5565b9161291a60405193846127f9565b829481845281830111610fd3578281602093846000960137010152565b9080601f83011215610fd35781602061295293359101612900565b90565b359069ffffffffffffffffffff82168203610fd357565b359065ffffffffffff82168203610fd357565b359064ffffffffff82168203610fd357565b359061ffff82168203610fd357565b359060ff82168203610fd357565b51906001600160a01b0382168203610fd357565b6009546040516308ed6c0160e41b8152306004820152602481018390526001600160a01b0392916020908290604490829087165afa908115611b8357600091612a27575b50828116612a21575060005260026020526040600020541690565b91505090565b906020823d8211612a58575b81612a40602093836127f9565b810103126102a05750612a52906129ae565b38612a06565b3d9150612a33565b602081830312610fd3578051906001600160401b038211610fd3570181601f82011215610fd3578051612a92816128e5565b92612aa060405194856127f9565b81845260208284010111610fd35761295291602080850191016125df565b60095460408051630fab094760e01b815230600482015290926020926001600160a01b03908116928481602481875afa908115612cb757600091612c81575b501680612c325750835163f682eeaf60e01b815230600482015290600082602481865afa918215612c2757908491600093612c0a575b508551630c8df17160e41b81523060048201526024810191909152919282908180604481015b03915afa908115612bff57600091612bd0575b5090612b996129529392855190609160f51b85830152602282015260228152612b94816127de565b614328565b93519381612bb086935180928680870191016125df565b8201612bc4825180938680850191016125df565b010380845201826127f9565b908382813d8311612bf8575b612be681836127f9565b810103126102a0575051612b99612b6c565b503d612bdc565b84513d6000823e3d90fd5b612c2190612b59943d8091833e61037381836127f9565b92612b33565b85513d6000823e3d90fd5b9250600091506024845180948193636d02a25560e11b835260048301525afa918215612c775750600091612c64575090565b612952913d8091833e61037381836127f9565b513d6000823e3d90fd5b8581813d8311612cb0575b612c9681836127f9565b8101031261043857519082821682036102a0575038612afd565b503d612c8c565b86513d6000823e3d90fd5b6020612cfc9160018060a01b0360095416604051808095819463051330b560e21b8352306004840152604060248401526044830190612714565b03915afa908115611b8357600091612d12575090565b906020823d8211612d38575b81612d2b602093836127f9565b810103126102a057505190565b3d9150612d1e565b600954604051631572f24960e11b815230600482015290602090829060249082906001600160a01b03165afa908115611b8357600091612d12575090565b81601f82011215610fd357805191612d958361281a565b92612da360405194856127f9565b808452602092838086019260051b820101928311610fd3578301905b828210612dcd575050505090565b81518152908301908301612dbf565b90602082820312610fd35781516001600160401b038111610fd3576129529201612d7e565b356001600160a01b0381168103610fd35790565b9190811015612e255760051b0190565b634e487b7160e01b600052603260045260246000fd5b69ffffffffffffffffffff612e4f82612955565b16825265ffffffffffff612e656020830161296c565b16602083015264ffffffffff612e7d6040830161297f565b16604083015261ffff80612e9360608401612991565b166060840152612ea560808301612991565b1660808301526001600160a01b0380612ec060a08401612653565b1660a084015260ff612ed460c084016129a0565b1660c0840152612ee660e08301612653565b1660e0830152610100808201359083015261012060ff612f078284016129a0565b1690830152610140612f1a8183016128d8565b151590830152610160612f2e8183016128d8565b151590830152610180612f428183016128d8565b151590830152612f566101a08092016128d8565b1515910152565b805115612e255760200190565b8051821015612e255760209160051b010190565b90918060409360208452816020850152848401376000828201840152601f01601f1916010190565b80916101209283910312610fd3576040519182018281106001600160401b0382111761275b57604052805182526020810151602083015260408101516040830152606081015160608301526080810151608083015260a081015160a083015260c081015160c083015260e081015160018060a01b0381168103610fd35760e0830152610100809101519082015290565b600a54600554604080516321d1336160e11b815260048101929092526101209594939290916001600160a01b039187908290602490829086165afa9081156131fc5761010096976000926131df575b5050600180968192015160f51c16146131ce5790816000809493600954166044845180978193635d53f40760e11b83528860048401528a60248401525af19384156131c3576000946131a8575b5060095482516304db994760e21b815230600482015260248101859052946020929183908790604490829086165afa958615612bff57600096613171575b5060005b87811061312657505050505050505050565b806131328a9284612f6a565b5161313d818a6134ca565b878751913383527f031e1988c95a91ec4d655ff63a8f87a80bc9daf28d95ae10ee08c0022cfb5c8b88888d1694a401613114565b90958382813d83116131a1575b61318881836127f9565b810103126102a0575061319a906129ae565b9438613110565b503d61317e565b6131bc91943d8091833e610b7481836127f9565b92386130d2565b82513d6000823e3d90fd5b8151631d2c125760e31b8152600490fd5b6131f59250803d10611d4757611d3781836127f9565b3880613085565b83513d6000823e3d90fd5b90613210614585565b6009546040805163eaa19ab360e01b81526000196004820152606060248201526064810184905294608486019490926001600160a01b0390879082168360005b8881106133205750509060009181838160019b8c604483015203925af19687156131fc576000976132fc575b5060005b858110613291575050505050505090565b61329b8189612f6a565b51906132a782876134ca565b6132b2818886612e15565b359161ffff8316809303610fd3578892865191600083523360208401527f598baf7bf150ca2f42be9e9f8f55e81d45f5715c3ff22bf46d697fabec7f31d688878b1694a401613280565b61331891973d8091833e61331081836127f9565b810190613348565b50953861327c565b9192509760019061ffff6133338b612991565b16815260208091019901910190899291613250565b9190604083820312610fd35782516001600160401b038111610fd357602091613372918501612d7e565b92015190565b6000908152600260205260409020546001600160a01b031680156133995790565b60405163b49aa3b560e01b8152600490fd5b90600182811c921680156133db575b60208310146133c557565b634e487b7160e01b600052602260045260246000fd5b91607f16916133ba565b6000818152600260205260409020546001600160a01b031615613399576000908152600360205260409020546001600160a01b031690565b92919061342a823361345c565b15612310578361343e8383613443976136e5565b613a44565b1561344a57565b6040516336f57c1b60e11b8152600490fd5b906001600160a01b03808061347084613378565b169316918383149384156134a3575b50831561348d575b50505090565b613499919293506133e5565b1614388080613487565b909350600052600460205260406000208260005260205260ff60406000205416923861347f565b6001600160a01b039081168015613602576000838152600260205260409020546001600160a01b03166135f057600083815260026020526040812080546001600160a01b0319168317905591613572908483857fddf252ad1be2c89b69c2b068fc378daa952ba7f163c4a11628f55a4df523b3ef8180a460095460405163b67cb04760e01b8152306004820152602481019690965216936101c0918290829081906044820190565b0381885afa91821561053c5784926135d3575b505051833b1561043c5790606483928360405196879485936330b157e560e21b8552600485015282602485015260448401525af19081156116d157506135c85750565b6135d190612748565b565b6135e99250803d10611bb557611ba781836127f9565b3880613585565b604051632eb5f0c360e21b8152600490fd5b604051633904578f60e11b8152600490fd5b51908115158203610fd357565b90816101c0910312610fd3576040519061363a826127a7565b805182526020810151602083015260408101516040830152606081015160608301526080810151608083015260a081015160a083015260c081015160c083015261368660e082016129ae565b60e083015261010080820151908301526101206136a48183016129ae565b90830152610140808201519083015261016080820151908301526101806136cc818301613614565b908301526136de6101a0809201613614565b9082015290565b916136ef81613378565b6001600160a01b0392848416929184168390036139de5783169384156139cc578261380e575b5061371f816139f0565b600081815260026020526040812080546001600160a01b031916861790559261379a908286857fddf252ad1be2c89b69c2b068fc378daa952ba7f163c4a11628f55a4df523b3ef8880a460095460405163b67cb04760e01b8152306004820152602481019490945216916101c0918290829081906044820190565b0381865afa918215610d375785926137f1575b50505190803b15610530578392918360649260405197889586946330b157e560e21b86526004860152602485015260448401525af19081156116d157506135c85750565b6138079250803d10611bb557611ba781836127f9565b38806137ad565b6009546040805163b67cb04760e01b81523060048201526024810185905290918616906101c0908181604481865afa918215612bff57906101a092916000926139af575b50500151613935575b81516308ed6c0160e41b815230600482015260248101859052602081604481855afa9081156131fc579087916000916138fa575b50161561389e575b5050613715565b803b15610fd3578151638cec7d3960e01b8152600481018590526001600160a01b039390931660248401526000908390604490829084905af1908115612c7757506138eb575b8080613897565b6138f490612748565b386138e4565b91506020823d821161392d575b81613914602093836127f9565b810103126102a0575061392787916129ae565b3861388f565b3d9150613907565b85600a541660055483519182916321d1336160e11b835260048301528160246101209485935afa918215612bff57600192839261010092600092613992575b5050015160f41c160361385b5781516318cdaf9760e01b8152600490fd5b6139a89250803d10611d4757611d3781836127f9565b3880613974565b6139c59250803d10611bb557611ba781836127f9565b3880613852565b604051632c95542760e01b8152600490fd5b60405163a195bc5360e01b8152600490fd5b600081815260036020526040812080546001600160a01b03191690556001600160a01b03613a1d83613378565b167f8c5be1e5ebec7d5bd14f71427d1e84f3dd0314c0f7b2291e5b200ac8c7c3b9258280a4565b9293600093909291803b15613b5357948491613a9e9660405180948193630a85bd0160e11b9788845233600485015260018060a01b0380921660248501526044840152608060648401528260209b8c976084830190612602565b0393165af1849181613b13575b50613b02575050503d600014613afa573d613ac5816128e5565b90613ad360405192836127f9565b81528091833d92013e5b80519182613af7576040516336f57c1b60e11b8152600490fd5b01fd5b506060613add565b6001600160e01b0319161492509050565b9091508581813d8311613b4c575b613b2b81836127f9565b81010312610d4257516001600160e01b031981168103610d42579038613aab565b503d613b21565b505050915050600190565b903590601e1981360301821215610fd357018035906001600160401b038211610fd357602001918136038313610fd357565b91606083830312610fd357823592613baa602082016125ca565b9260408201356001600160401b038111610fd3576129529201612831565b91908201809211613bd557565b634e487b7160e01b600052601160045260246000fd5b906080820135613d53576101c08201916024613c078483613b5e565b9050108015613d24575b611d7d57604092835191613c2483612771565b6001835260005b602080821015613c5957865160209291613c4482612771565b60008252600081830152828701015201613c2b565b505093929190613c996119d5613ca192849651613c7581612771565b30815260006020820152613c8886612f5d565b52613c9285612f5d565b5087613b5e565b915050612cc2565b613ca9612d40565b613cb8818360c08901356146ae565b6101808701359361271090818614613d095750848103908111613bd557613d0594613ced613cf994613cf39361058f976146ae565b90613bc8565b90614626565b946101a0810190613b5e565b9190565b965050959050613d05925061058f91506101a0810190613b5e565b50613d2f8382613b5e565b602411610fd357602001356001600160e01b03191663b3bcbb7960e01b1415613c11565b6040516309f82f1b60e31b8152600490fd5b600060c082013590600c548083146000146142215750505060808101355b61018082016001600160a01b0380613d9a83612e01565b16600052602091600e83526040938460002054958682600093613dbc84612e01565b8780613dc789612e01565b169116146000146142185750015b6000916101e08101906044613dea8383613b5e565b905011806141eb575b613f3a575b50909190508115613ec25715613eb1570194600e939291613e599180881115613e645787613e2583612e01565b7f2fb2733fb01b76e3290fa8b695d18e026ddd19c0a265ab90e95152e57da3033687878b51933385521694840392a4612e01565b166000525260002055565b878111613e72575b50612e01565b87613e7c83612e01565b7fe0e7c81cf67a96dd0e39bcf11521b1f4c0098cc1dbe8c30750a11d9ebfc3ed4d8783888c519433865216950392a438613e6c565b8551631b57826960e21b8152600490fd5b50509485819493929403613ed9575b505050505050565b858103908111613bd55783613f269187613ef4600e97612e01565b917fe0e7c81cf67a96dd0e39bcf11521b1f4c0098cc1dbe8c30750a11d9ebfc3ed4d87878b51953387521694a4612e01565b166000525260002055388080808080613ed1565b90613f4491613b5e565b8193910160a08482031261043857613f5d8985016125ca565b50613f6a606085016128d8565b936080810135906001600160401b03821161053057019080601f8301121561043c57813592613f988461281a565b92613fa58c5194856127f9565b8484528a8401918b839660051b8301019384116102a057508a809101915b8383106141d357505050508380614121575b614118575b805115613df857613fea86612e01565b87600954168a51809463eaa19ab360e01b8252606482018760048401526060602484015285518091526084830191908d6000905b8282106140fc57505050509181600081819582604483015203925af19384156140f15760009384956140d0575b50835193828a1693908c60005b87811061406e5750505050505050503880613df8565b8660019261407c8386612f6a565b51614087818a6134ca565b7f598baf7bf150ca2f42be9e9f8f55e81d45f5715c3ff22bf46d697fabec7f31d661ffff6140b5868a612f6a565b5193518a8152336020820152931692604090a4018d90614058565b9094506140e791933d8091833e61331081836127f9565b929092933861404b565b8a513d6000823e3d90fd5b835161ffff16855289955093840193909201916001018e61401e565b60009350613fda565b506024608088600954168b5192838092634228826f60e11b82523060048301525afa80156140f15760009061415e575b6060915001511515613fd5565b6080823d82116141cb575b81614176608093836127f9565b810103126102a057506060906141c2828c51926141928461278c565b61419b81613614565b84526141a88d8201613614565b8d8501528d6141b8818301613614565b9085015201613614565b82820152614151565b3d9150614169565b81906141de84612991565b8152019101908a90613fc3565b506141f68282613b5e565b604411610d42578901356001600160e01b03191663b3bcbb7960e01b14613df3565b93505091613dd5565b600b546001600160a01b03169081156142de57600d5493604d85116142ca579060646020926040519485938492635268657960e11b84526004840152602483015260a089013560448301525afa9182156116d1578092614294575b505061428f91600a0a60808401356146ae565b613d83565b9091506020823d82116142c2575b816142af602093836127f9565b810103126102a057505161428f3861427c565b3d91506142a2565b634e487b7160e01b84526011600452602484fd5b5050505050565b906142ef8261281a565b6142fc60405191826127f9565b828152809261430d601f199161281a565b0190602036910137565b908151811015612e25570160200190565b80511561456c5760409081516105e081018181106001600160401b0382111761275b578352602e81526020906105c036838301376000918261436983612f5d565b52600193805184915b8183106144cb5750505060ff80941661438a816142e5565b92845b8281106144aa5750505081516143a2816142e5565b92845b828110614482575050508151936143bb856128e5565b956143c8815197886127f9565b858752601f196143d7876128e5565b013684890137845b8681106143f0575050505050505090565b60019082516143fe816127de565b603a81527f31323334353637383941424344454647484a4b4c4d4e50515253545556575859868201527f5a6162636465666768696a6b6d6e6f707172737475767778797a000000000000848201526001600160f81b03199061446d9086614465858b612f6a565b511690614317565b5116871a61447b828b614317565b53016143df565b60019087614497600019838651030185612f6a565b51166144a38288612f6a565b52016143a5565b80876144b860019385612f6a565b51166144c48288612f6a565b520161438d565b9397919690946144db8886614317565b5160f81c9381945b60ff90818a1687101561452b579061451060019261ff006145058f8b90612f6a565b5160081b1690613bc8565b603a9182820616614521898f612f6a565b52049501946144e3565b919550508099959298919693995b61454857506001019190614372565b9660ff6001603a9282848c06166145618483168b612f6a565b520116970480614539565b50604051614579816127c3565b60008152600036813790565b6007546001600160a01b0316330361459957565b606460405162461bcd60e51b815260206004820152602060248201527f4f776e61626c653a2063616c6c6572206973206e6f7420746865206f776e65726044820152fd5b600780546001600160a01b039283166001600160a01b0319821681179092559091167f8be0079c531659141344cd1fd0a4f28419497f9722a3daafe3b4186f6b6457e0600080a3565b9190600019818409818402918280831092039180830392146146a3576127109081831015614685577fbc01a36e2eb1c432ca57a786c226809d495182a9930be0ded288ce703afb7e9194950990828211900360fc1b910360041c170290565b6044838360405191631dcf306360e21b835260048301526024820152fd5b505061271090049150565b90916000198383099280830292838086109503948086039514614744578285101561472657908291096001821901821680920460028082600302188083028203028083028203028083028203028083028203028083028203028092029003029360018380600003040190848311900302920304170290565b6044858460405191631dcf306360e21b835260048301526024820152fd5b505080925015614752570490565b634e487b7160e01b600052601260045260246000fdfe290decd9548b62a8d60345a988386fc84ba6bc95484008f6362f93160ef3e563b10e2d527612073b26eecdfd717e6a320cf44b4afac2b0732d9fcbe2b7fa0cf6a264697066735822122048d49737c88c247fc316de8eff1319f3e101dfb969717e158ad28fe8d8bda80664736f6c63430008110033",
    "linkReferences": {}
  },
  "methodIdentifiers": {
    "adjustTiers((uint80,uint48,uint40,uint16,uint16,address,uint8,address,bytes32,uint8,bool,bool,bool,bool)[],uint256[])": "25eb91ee",
    "approve(address,uint256)": "095ea7b3",
    "balanceOf(address)": "70a08231",
    "codeOrigin()": "1d153ca4",
    "contractURI()": "e8a3d485",
    "creditsOf(address)": "245a45b5",
    "didPay((address,uint256,uint256,(address,uint256,uint256,uint256),(address,uint256,uint256,uint256),uint256,address,bool,string,bytes))": "da9ee8b7",
    "didRedeem((address,uint256,uint256,uint256,(address,uint256,uint256,uint256),(address,uint256,uint256,uint256),address,string,bytes))": "2b13c58f",
    "directory()": "c41c2f24",
    "firstOwnerOf(uint256)": "54c6d1f5",
    "fundingCycleStore()": "557e7155",
    "getApproved(uint256)": "081812fc",
    "initialize(uint256,address,string,string,address,string,address,string,((uint80,uint48,uint40,uint16,uint16,address,uint8,address,bytes32,uint8,bool,bool,bool,bool)[],uint256,uint256,address),address,(bool,bool,bool,bool))": "d1704baf",
    "isApprovedForAll(address,address)": "e985e9c5",
    "mintFor((uint16[],address)[])": "36c1a93b",
    "mintFor(uint16[],address)": "6ac6d941",
    "mintReservesFor((uint256,uint256)[])": "2a596e53",
    "mintReservesFor(uint256,uint256)": "aa4fb15b",
    "name()": "06fdde03",
    "owner()": "8da5cb5b",
    "ownerOf(uint256)": "6352211e",
    "payParams((address,address,(address,uint256,uint256,uint256),uint256,uint256,address,uint256,uint256,string,bytes))": "d46cf171",
    "prices()": "d3419bf3",
    "pricingCurrency()": "64640c1e",
    "pricingDecimals()": "4ecba625",
    "projectId()": "3fafa127",
    "redeemParams((address,address,uint256,uint256,uint256,uint256,uint256,(address,uint256,uint256,uint256),bool,uint256,string,bytes))": "a51cfd18",
    "redemptionWeightOf(uint256[],(address,address,uint256,uint256,uint256,uint256,uint256,(address,uint256,uint256,uint256),bool,uint256,string,bytes))": "7ba62bf9",
    "renounceOwnership()": "715018a6",
    "royaltyInfo(uint256,uint256)": "2a55205a",
    "safeTransferFrom(address,address,uint256)": "42842e0e",
    "safeTransferFrom(address,address,uint256,bytes)": "b88d4fde",
    "setApprovalForAll(address,bool)": "a22cb465",
    "setBaseUri(string)": "a0bcfc7f",
    "setContractUri(string)": "ccb4807b",
    "setDefaultReservedTokenBeneficiary(address)": "df487e26",
    "setEncodedIPFSUriOf(uint256,bytes32)": "525350ba",
    "setTokenUriResolver(address)": "2407497e",
    "store()": "975057e7",
    "supportsInterface(bytes4)": "01ffc9a7",
    "symbol()": "95d89b41",
    "tokenURI(uint256)": "c87b56dd",
    "totalRedemptionWeight((address,address,uint256,uint256,uint256,uint256,uint256,(address,uint256,uint256,uint256),bool,uint256,string,bytes))": "9494bf72",
    "transferFrom(address,address,uint256)": "23b872dd",
    "transferOwnership(address)": "f2fde38b"
  },
  "id": 36
}