{
  "abi": [
    {
      "inputs": [],
      "stateMutability": "nonpayable",
      "type": "constructor"
    },
    {
      "inputs": [],
      "name": "ALEADY_MINTED",
      "type": "error"
    },
    {
      "inputs": [],
      "name": "APPROVAL_TO_CURRENT_OWNER",
      "type": "error"
    },
    {
      "inputs": [],
      "name": "APPROVE_TO_CALLER",
      "type": "error"
    },
    {
      "inputs": [],
      "name": "CALLER_NOT_OWNER_OR_APPROVED",
      "type": "error"
    },
    {
      "inputs": [],
      "name": "INCORRECT_OWNER",
      "type": "error"
    },
    {
      "inputs": [],
      "name": "INVALID_PAYMENT_EVENT",
      "type": "error"
    },
    {
      "inputs": [],
      "name": "INVALID_REDEMPTION_EVENT",
      "type": "error"
    },
    {
      "inputs": [],
      "name": "INVALID_REDEMPTION_METADATA",
      "type": "error"
    },
    {
      "inputs": [],
      "name": "INVALID_TOKEN_ID",
      "type": "error"
    },
    {
      "inputs": [],
      "name": "MINT_TO_ZERO",
      "type": "error"
    },
    {
      "inputs": [],
      "name": "NOT_AVAILABLE",
      "type": "error"
    },
    {
      "inputs": [],
      "name": "OVERSPENDING",
      "type": "error"
    },
    {
      "inputs": [
        {
          "internalType": "uint256",
          "name": "prod1",
          "type": "uint256"
        },
        {
          "internalType": "uint256",
          "name": "denominator",
          "type": "uint256"
        }
      ],
      "name": "PRBMath__MulDivOverflow",
      "type": "error"
    },
    {
      "inputs": [],
      "name": "PRICING_RESOLVER_CHANGES_PAUSED",
      "type": "error"
    },
    {
      "inputs": [],
      "name": "RESERVED_TOKEN_MINTING_PAUSED",
      "type": "error"
    },
    {
      "inputs": [],
      "name": "TRANSFERS_PAUSED",
      "type": "error"
    },
    {
      "inputs": [],
      "name": "TRANSFER_TO_NON_IMPLEMENTER",
      "type": "error"
    },
    {
      "inputs": [],
      "name": "TRANSFER_TO_ZERO_ADDRESS",
      "type": "error"
    },
    {
      "inputs": [],
      "name": "UNAUTHORIZED",
      "type": "error"
    },
    {
      "inputs": [],
      "name": "UNEXPECTED_TOKEN_REDEEMED",
      "type": "error"
    },
    {
      "anonymous": false,
      "inputs": [
        {
          "indexed": true,
          "internalType": "uint256",
          "name": "tierId",
          "type": "uint256"
        },
        {
          "components": [
            {
              "internalType": "uint80",
              "name": "contributionFloor",
              "type": "uint80"
            },
            {
              "internalType": "uint48",
              "name": "lockedUntil",
              "type": "uint48"
            },
            {
              "internalType": "uint40",
              "name": "initialQuantity",
              "type": "uint40"
            },
            {
              "internalType": "uint16",
              "name": "votingUnits",
              "type": "uint16"
            },
            {
              "internalType": "uint16",
              "name": "reservedRate",
              "type": "uint16"
            },
            {
              "internalType": "address",
              "name": "reservedTokenBeneficiary",
              "type": "address"
            },
            {
              "internalType": "uint8",
              "name": "royaltyRate",
              "type": "uint8"
            },
            {
              "internalType": "address",
              "name": "royaltyBeneficiary",
              "type": "address"
            },
            {
              "internalType": "bytes32",
              "name": "encodedIPFSUri",
              "type": "bytes32"
            },
            {
              "internalType": "uint8",
              "name": "category",
              "type": "uint8"
            },
            {
              "internalType": "bool",
              "name": "allowManualMint",
              "type": "bool"
            },
            {
              "internalType": "bool",
              "name": "shouldUseReservedTokenBeneficiaryAsDefault",
              "type": "bool"
            },
            {
              "internalType": "bool",
              "name": "shouldUseRoyaltyBeneficiaryAsDefault",
              "type": "bool"
            },
            {
              "internalType": "bool",
              "name": "transfersPausable",
              "type": "bool"
            }
          ],
          "indexed": false,
          "internalType": "struct JB721TierParams",
          "name": "data",
          "type": "tuple"
        },
        {
          "indexed": false,
          "internalType": "address",
          "name": "caller",
          "type": "address"
        }
      ],
      "name": "AddTier",
      "type": "event"
    },
    {
      "anonymous": false,
      "inputs": [
        {
          "indexed": true,
          "internalType": "address",
          "name": "owner",
          "type": "address"
        },
        {
          "indexed": true,
          "internalType": "address",
          "name": "approved",
          "type": "address"
        },
        {
          "indexed": true,
          "internalType": "uint256",
          "name": "tokenId",
          "type": "uint256"
        }
      ],
      "name": "Approval",
      "type": "event"
    },
    {
      "anonymous": false,
      "inputs": [
        {
          "indexed": true,
          "internalType": "address",
          "name": "owner",
          "type": "address"
        },
        {
          "indexed": true,
          "internalType": "address",
          "name": "operator",
          "type": "address"
        },
        {
          "indexed": false,
          "internalType": "bool",
          "name": "approved",
          "type": "bool"
        }
      ],
      "name": "ApprovalForAll",
      "type": "event"
    },
    {
      "anonymous": false,
      "inputs": [
        {
          "indexed": true,
          "internalType": "uint256",
          "name": "tokenId",
          "type": "uint256"
        },
        {
          "indexed": true,
          "internalType": "uint256",
          "name": "tierId",
          "type": "uint256"
        },
        {
          "indexed": true,
          "internalType": "address",
          "name": "beneficiary",
          "type": "address"
        },
        {
          "indexed": false,
          "internalType": "uint256",
          "name": "totalAmountContributed",
          "type": "uint256"
        },
        {
          "indexed": false,
          "internalType": "address",
          "name": "caller",
          "type": "address"
        }
      ],
      "name": "Mint",
      "type": "event"
    },
    {
      "anonymous": false,
      "inputs": [
        {
          "indexed": true,
          "internalType": "uint256",
          "name": "tokenId",
          "type": "uint256"
        },
        {
          "indexed": true,
          "internalType": "uint256",
          "name": "tierId",
          "type": "uint256"
        },
        {
          "indexed": true,
          "internalType": "address",
          "name": "beneficiary",
          "type": "address"
        },
        {
          "indexed": false,
          "internalType": "address",
          "name": "caller",
          "type": "address"
        }
      ],
      "name": "MintReservedToken",
      "type": "event"
    },
    {
      "anonymous": false,
      "inputs": [
        {
          "indexed": true,
          "internalType": "address",
          "name": "previousOwner",
          "type": "address"
        },
        {
          "indexed": true,
          "internalType": "address",
          "name": "newOwner",
          "type": "address"
        }
      ],
      "name": "OwnershipTransferred",
      "type": "event"
    },
    {
      "anonymous": false,
      "inputs": [
        {
          "indexed": true,
          "internalType": "uint256",
          "name": "tierId",
          "type": "uint256"
        },
        {
          "indexed": false,
          "internalType": "address",
          "name": "caller",
          "type": "address"
        }
      ],
      "name": "RemoveTier",
      "type": "event"
    },
    {
      "anonymous": false,
      "inputs": [
        {
          "indexed": true,
          "internalType": "string",
          "name": "baseUri",
          "type": "string"
        },
        {
          "indexed": false,
          "internalType": "address",
          "name": "caller",
          "type": "address"
        }
      ],
      "name": "SetBaseUri",
      "type": "event"
    },
    {
      "anonymous": false,
      "inputs": [
        {
          "indexed": true,
          "internalType": "string",
          "name": "contractUri",
          "type": "string"
        },
        {
          "indexed": false,
          "internalType": "address",
          "name": "caller",
          "type": "address"
        }
      ],
      "name": "SetContractUri",
      "type": "event"
    },
    {
      "anonymous": false,
      "inputs": [
        {
          "indexed": true,
          "internalType": "address",
          "name": "beneficiary",
          "type": "address"
        },
        {
          "indexed": false,
          "internalType": "address",
          "name": "caller",
          "type": "address"
        }
      ],
      "name": "SetDefaultReservedTokenBeneficiary",
      "type": "event"
    },
    {
      "anonymous": false,
      "inputs": [
        {
          "indexed": true,
          "internalType": "uint256",
          "name": "tierId",
          "type": "uint256"
        },
        {
          "indexed": false,
          "internalType": "bytes32",
          "name": "encodedIPFSUri",
          "type": "bytes32"
        },
        {
          "indexed": false,
          "internalType": "address",
          "name": "caller",
          "type": "address"
        }
      ],
      "name": "SetEncodedIPFSUri",
      "type": "event"
    },
    {
      "anonymous": false,
      "inputs": [
        {
          "indexed": true,
          "internalType": "contract IJBTokenUriResolver",
          "name": "newResolver",
          "type": "address"
        },
        {
          "indexed": false,
          "internalType": "address",
          "name": "caller",
          "type": "address"
        }
      ],
      "name": "SetTokenUriResolver",
      "type": "event"
    },
    {
      "anonymous": false,
      "inputs": [
        {
          "indexed": true,
          "internalType": "address",
          "name": "from",
          "type": "address"
        },
        {
          "indexed": true,
          "internalType": "address",
          "name": "to",
          "type": "address"
        },
        {
          "indexed": true,
          "internalType": "uint256",
          "name": "tokenId",
          "type": "uint256"
        }
      ],
      "name": "Transfer",
      "type": "event"
    },
    {
      "inputs": [],
      "name": "MAX_ROYALTY_RATE",
      "outputs": [
        {
          "internalType": "uint256",
          "name": "",
          "type": "uint256"
        }
      ],
      "stateMutability": "view",
      "type": "function"
    },
    {
      "inputs": [
        {
          "components": [
            {
              "internalType": "uint80",
              "name": "contributionFloor",
              "type": "uint80"
            },
            {
              "internalType": "uint48",
              "name": "lockedUntil",
              "type": "uint48"
            },
            {
              "internalType": "uint40",
              "name": "initialQuantity",
              "type": "uint40"
            },
            {
              "internalType": "uint16",
              "name": "votingUnits",
              "type": "uint16"
            },
            {
              "internalType": "uint16",
              "name": "reservedRate",
              "type": "uint16"
            },
            {
              "internalType": "address",
              "name": "reservedTokenBeneficiary",
              "type": "address"
            },
            {
              "internalType": "uint8",
              "name": "royaltyRate",
              "type": "uint8"
            },
            {
              "internalType": "address",
              "name": "royaltyBeneficiary",
              "type": "address"
            },
            {
              "internalType": "bytes32",
              "name": "encodedIPFSUri",
              "type": "bytes32"
            },
            {
              "internalType": "uint8",
              "name": "category",
              "type": "uint8"
            },
            {
              "internalType": "bool",
              "name": "allowManualMint",
              "type": "bool"
            },
            {
              "internalType": "bool",
              "name": "shouldUseReservedTokenBeneficiaryAsDefault",
              "type": "bool"
            },
            {
              "internalType": "bool",
              "name": "shouldUseRoyaltyBeneficiaryAsDefault",
              "type": "bool"
            },
            {
              "internalType": "bool",
              "name": "transfersPausable",
              "type": "bool"
            }
          ],
          "internalType": "struct JB721TierParams[]",
          "name": "_tiersToAdd",
          "type": "tuple[]"
        },
        {
          "internalType": "uint256[]",
          "name": "_tierIdsToRemove",
          "type": "uint256[]"
        }
      ],
      "name": "adjustTiers",
      "outputs": [],
      "stateMutability": "nonpayable",
      "type": "function"
    },
    {
      "inputs": [
        {
          "internalType": "address",
          "name": "to",
          "type": "address"
        },
        {
          "internalType": "uint256",
          "name": "tokenId",
          "type": "uint256"
        }
      ],
      "name": "approve",
      "outputs": [],
      "stateMutability": "nonpayable",
      "type": "function"
    },
    {
      "inputs": [
        {
          "internalType": "address",
          "name": "_owner",
          "type": "address"
        }
      ],
      "name": "balanceOf",
      "outputs": [
        {
          "internalType": "uint256",
          "name": "balance",
          "type": "uint256"
        }
      ],
      "stateMutability": "view",
      "type": "function"
    },
    {
      "inputs": [],
      "name": "codeOrigin",
      "outputs": [
        {
          "internalType": "address",
          "name": "",
          "type": "address"
        }
      ],
      "stateMutability": "view",
      "type": "function"
    },
    {
      "inputs": [],
      "name": "contractURI",
      "outputs": [
        {
          "internalType": "string",
          "name": "",
          "type": "string"
        }
      ],
      "stateMutability": "view",
      "type": "function"
    },
    {
      "inputs": [
        {
          "internalType": "address",
          "name": "",
          "type": "address"
        }
      ],
      "name": "creditsOf",
      "outputs": [
        {
          "internalType": "uint256",
          "name": "",
          "type": "uint256"
        }
      ],
      "stateMutability": "view",
      "type": "function"
    },
    {
      "inputs": [
        {
          "components": [
            {
              "internalType": "address",
              "name": "payer",
              "type": "address"
            },
            {
              "internalType": "uint256",
              "name": "projectId",
              "type": "uint256"
            },
            {
              "internalType": "uint256",
              "name": "currentFundingCycleConfiguration",
              "type": "uint256"
            },
            {
              "components": [
                {
                  "internalType": "address",
                  "name": "token",
                  "type": "address"
                },
                {
                  "internalType": "uint256",
                  "name": "value",
                  "type": "uint256"
                },
                {
                  "internalType": "uint256",
                  "name": "decimals",
                  "type": "uint256"
                },
                {
                  "internalType": "uint256",
                  "name": "currency",
                  "type": "uint256"
                }
              ],
              "internalType": "struct JBTokenAmount",
              "name": "amount",
              "type": "tuple"
            },
            {
              "components": [
                {
                  "internalType": "address",
                  "name": "token",
                  "type": "address"
                },
                {
                  "internalType": "uint256",
                  "name": "value",
                  "type": "uint256"
                },
                {
                  "internalType": "uint256",
                  "name": "decimals",
                  "type": "uint256"
                },
                {
                  "internalType": "uint256",
                  "name": "currency",
                  "type": "uint256"
                }
              ],
              "internalType": "struct JBTokenAmount",
              "name": "forwardedAmount",
              "type": "tuple"
            },
            {
              "internalType": "uint256",
              "name": "projectTokenCount",
              "type": "uint256"
            },
            {
              "internalType": "address",
              "name": "beneficiary",
              "type": "address"
            },
            {
              "internalType": "bool",
              "name": "preferClaimedTokens",
              "type": "bool"
            },
            {
              "internalType": "string",
              "name": "memo",
              "type": "string"
            },
            {
              "internalType": "bytes",
              "name": "metadata",
              "type": "bytes"
            }
          ],
          "internalType": "struct JBDidPayData",
          "name": "_data",
          "type": "tuple"
        }
      ],
      "name": "didPay",
      "outputs": [],
      "stateMutability": "payable",
      "type": "function"
    },
    {
      "inputs": [
        {
          "components": [
            {
              "internalType": "address",
              "name": "holder",
              "type": "address"
            },
            {
              "internalType": "uint256",
              "name": "projectId",
              "type": "uint256"
            },
            {
              "internalType": "uint256",
              "name": "currentFundingCycleConfiguration",
              "type": "uint256"
            },
            {
              "internalType": "uint256",
              "name": "projectTokenCount",
              "type": "uint256"
            },
            {
              "components": [
                {
                  "internalType": "address",
                  "name": "token",
                  "type": "address"
                },
                {
                  "internalType": "uint256",
                  "name": "value",
                  "type": "uint256"
                },
                {
                  "internalType": "uint256",
                  "name": "decimals",
                  "type": "uint256"
                },
                {
                  "internalType": "uint256",
                  "name": "currency",
                  "type": "uint256"
                }
              ],
              "internalType": "struct JBTokenAmount",
              "name": "reclaimedAmount",
              "type": "tuple"
            },
            {
              "components": [
                {
                  "internalType": "address",
                  "name": "token",
                  "type": "address"
                },
                {
                  "internalType": "uint256",
                  "name": "value",
                  "type": "uint256"
                },
                {
                  "internalType": "uint256",
                  "name": "decimals",
                  "type": "uint256"
                },
                {
                  "internalType": "uint256",
                  "name": "currency",
                  "type": "uint256"
                }
              ],
              "internalType": "struct JBTokenAmount",
              "name": "forwardedAmount",
              "type": "tuple"
            },
            {
              "internalType": "address payable",
              "name": "beneficiary",
              "type": "address"
            },
            {
              "internalType": "string",
              "name": "memo",
              "type": "string"
            },
            {
              "internalType": "bytes",
              "name": "metadata",
              "type": "bytes"
            }
          ],
          "internalType": "struct JBDidRedeemData",
          "name": "_data",
          "type": "tuple"
        }
      ],
      "name": "didRedeem",
      "outputs": [],
      "stateMutability": "payable",
      "type": "function"
    },
    {
      "inputs": [],
      "name": "directory",
      "outputs": [
        {
          "internalType": "contract IJBDirectory",
          "name": "",
          "type": "address"
        }
      ],
      "stateMutability": "view",
      "type": "function"
    },
    {
      "inputs": [
        {
          "internalType": "uint256",
          "name": "_tokenId",
          "type": "uint256"
        }
      ],
      "name": "firstOwnerOf",
      "outputs": [
        {
          "internalType": "address",
          "name": "",
          "type": "address"
        }
      ],
      "stateMutability": "view",
      "type": "function"
    },
    {
      "inputs": [],
      "name": "fundingCycleStore",
      "outputs": [
        {
          "internalType": "contract IJBFundingCycleStore",
          "name": "",
          "type": "address"
        }
      ],
      "stateMutability": "view",
      "type": "function"
    },
    {
      "inputs": [
        {
          "internalType": "uint256",
          "name": "tokenId",
          "type": "uint256"
        }
      ],
      "name": "getApproved",
      "outputs": [
        {
          "internalType": "address",
          "name": "",
          "type": "address"
        }
      ],
      "stateMutability": "view",
      "type": "function"
    },
    {
      "inputs": [
        {
          "internalType": "uint256",
          "name": "_projectId",
          "type": "uint256"
        },
        {
          "internalType": "contract IJBDirectory",
          "name": "_directory",
          "type": "address"
        },
        {
          "internalType": "string",
          "name": "_name",
          "type": "string"
        },
        {
          "internalType": "string",
          "name": "_symbol",
          "type": "string"
        },
        {
          "internalType": "contract IJBFundingCycleStore",
          "name": "_fundingCycleStore",
          "type": "address"
        },
        {
          "internalType": "string",
          "name": "_baseUri",
          "type": "string"
        },
        {
          "internalType": "contract IJBTokenUriResolver",
          "name": "_tokenUriResolver",
          "type": "address"
        },
        {
          "internalType": "string",
          "name": "_contractUri",
          "type": "string"
        },
        {
          "components": [
            {
              "components": [
                {
                  "internalType": "uint80",
                  "name": "contributionFloor",
                  "type": "uint80"
                },
                {
                  "internalType": "uint48",
                  "name": "lockedUntil",
                  "type": "uint48"
                },
                {
                  "internalType": "uint40",
                  "name": "initialQuantity",
                  "type": "uint40"
                },
                {
                  "internalType": "uint16",
                  "name": "votingUnits",
                  "type": "uint16"
                },
                {
                  "internalType": "uint16",
                  "name": "reservedRate",
                  "type": "uint16"
                },
                {
                  "internalType": "address",
                  "name": "reservedTokenBeneficiary",
                  "type": "address"
                },
                {
                  "internalType": "uint8",
                  "name": "royaltyRate",
                  "type": "uint8"
                },
                {
                  "internalType": "address",
                  "name": "royaltyBeneficiary",
                  "type": "address"
                },
                {
                  "internalType": "bytes32",
                  "name": "encodedIPFSUri",
                  "type": "bytes32"
                },
                {
                  "internalType": "uint8",
                  "name": "category",
                  "type": "uint8"
                },
                {
                  "internalType": "bool",
                  "name": "allowManualMint",
                  "type": "bool"
                },
                {
                  "internalType": "bool",
                  "name": "shouldUseReservedTokenBeneficiaryAsDefault",
                  "type": "bool"
                },
                {
                  "internalType": "bool",
                  "name": "shouldUseRoyaltyBeneficiaryAsDefault",
                  "type": "bool"
                },
                {
                  "internalType": "bool",
                  "name": "transfersPausable",
                  "type": "bool"
                }
              ],
              "internalType": "struct JB721TierParams[]",
              "name": "tiers",
              "type": "tuple[]"
            },
            {
              "internalType": "uint256",
              "name": "currency",
              "type": "uint256"
            },
            {
              "internalType": "uint256",
              "name": "decimals",
              "type": "uint256"
            },
            {
              "internalType": "contract IJBPrices",
              "name": "prices",
              "type": "address"
            }
          ],
          "internalType": "struct JB721PricingParams",
          "name": "_pricing",
          "type": "tuple"
        },
        {
          "internalType": "contract IJBTiered721DelegateStore",
          "name": "_store",
          "type": "address"
        },
        {
          "components": [
            {
              "internalType": "bool",
              "name": "lockReservedTokenChanges",
              "type": "bool"
            },
            {
              "internalType": "bool",
              "name": "lockVotingUnitChanges",
              "type": "bool"
            },
            {
              "internalType": "bool",
              "name": "lockManualMintingChanges",
              "type": "bool"
            },
            {
              "internalType": "bool",
              "name": "preventOverspending",
              "type": "bool"
            }
          ],
          "internalType": "struct JBTiered721Flags",
          "name": "_flags",
          "type": "tuple"
        }
      ],
      "name": "initialize",
      "outputs": [],
      "stateMutability": "nonpayable",
      "type": "function"
    },
    {
      "inputs": [
        {
          "internalType": "address",
          "name": "owner",
          "type": "address"
        },
        {
          "internalType": "address",
          "name": "operator",
          "type": "address"
        }
      ],
      "name": "isApprovedForAll",
      "outputs": [
        {
          "internalType": "bool",
          "name": "",
          "type": "bool"
        }
      ],
      "stateMutability": "view",
      "type": "function"
    },
    {
      "inputs": [
        {
          "components": [
            {
              "internalType": "uint16[]",
              "name": "tierIds",
              "type": "uint16[]"
            },
            {
              "internalType": "address",
              "name": "beneficiary",
              "type": "address"
            }
          ],
          "internalType": "struct JBTiered721MintForTiersData[]",
          "name": "_mintForTiersData",
          "type": "tuple[]"
        }
      ],
      "name": "mintFor",
      "outputs": [],
      "stateMutability": "nonpayable",
      "type": "function"
    },
    {
      "inputs": [
        {
          "internalType": "uint16[]",
          "name": "_tierIds",
          "type": "uint16[]"
        },
        {
          "internalType": "address",
          "name": "_beneficiary",
          "type": "address"
        }
      ],
      "name": "mintFor",
      "outputs": [
        {
          "internalType": "uint256[]",
          "name": "tokenIds",
          "type": "uint256[]"
        }
      ],
      "stateMutability": "nonpayable",
      "type": "function"
    },
    {
      "inputs": [
        {
          "components": [
            {
              "internalType": "uint256",
              "name": "tierId",
              "type": "uint256"
            },
            {
              "internalType": "uint256",
              "name": "count",
              "type": "uint256"
            }
          ],
          "internalType": "struct JBTiered721MintReservesForTiersData[]",
          "name": "_mintReservesForTiersData",
          "type": "tuple[]"
        }
      ],
      "name": "mintReservesFor",
      "outputs": [],
      "stateMutability": "nonpayable",
      "type": "function"
    },
    {
      "inputs": [
        {
          "internalType": "uint256",
          "name": "_tierId",
          "type": "uint256"
        },
        {
          "internalType": "uint256",
          "name": "_count",
          "type": "uint256"
        }
      ],
      "name": "mintReservesFor",
      "outputs": [],
      "stateMutability": "nonpayable",
      "type": "function"
    },
    {
      "inputs": [],
      "name": "name",
      "outputs": [
        {
          "internalType": "string",
          "name": "",
          "type": "string"
        }
      ],
      "stateMutability": "view",
      "type": "function"
    },
    {
      "inputs": [],
      "name": "owner",
      "outputs": [
        {
          "internalType": "address",
          "name": "",
          "type": "address"
        }
      ],
      "stateMutability": "view",
      "type": "function"
    },
    {
      "inputs": [
        {
          "internalType": "uint256",
          "name": "tokenId",
          "type": "uint256"
        }
      ],
      "name": "ownerOf",
      "outputs": [
        {
          "internalType": "address",
          "name": "",
          "type": "address"
        }
      ],
      "stateMutability": "view",
      "type": "function"
    },
    {
      "inputs": [
        {
          "components": [
            {
              "internalType": "contract IJBPaymentTerminal",
              "name": "terminal",
              "type": "address"
            },
            {
              "internalType": "address",
              "name": "payer",
              "type": "address"
            },
            {
              "components": [
                {
                  "internalType": "address",
                  "name": "token",
                  "type": "address"
                },
                {
                  "internalType": "uint256",
                  "name": "value",
                  "type": "uint256"
                },
                {
                  "internalType": "uint256",
                  "name": "decimals",
                  "type": "uint256"
                },
                {
                  "internalType": "uint256",
                  "name": "currency",
                  "type": "uint256"
                }
              ],
              "internalType": "struct JBTokenAmount",
              "name": "amount",
              "type": "tuple"
            },
            {
              "internalType": "uint256",
              "name": "projectId",
              "type": "uint256"
            },
            {
              "internalType": "uint256",
              "name": "currentFundingCycleConfiguration",
              "type": "uint256"
            },
            {
              "internalType": "address",
              "name": "beneficiary",
              "type": "address"
            },
            {
              "internalType": "uint256",
              "name": "weight",
              "type": "uint256"
            },
            {
              "internalType": "uint256",
              "name": "reservedRate",
              "type": "uint256"
            },
            {
              "internalType": "string",
              "name": "memo",
              "type": "string"
            },
            {
              "internalType": "bytes",
              "name": "metadata",
              "type": "bytes"
            }
          ],
          "internalType": "struct JBPayParamsData",
          "name": "_data",
          "type": "tuple"
        }
      ],
      "name": "payParams",
      "outputs": [
        {
          "internalType": "uint256",
          "name": "weight",
          "type": "uint256"
        },
        {
          "internalType": "string",
          "name": "memo",
          "type": "string"
        },
        {
          "components": [
            {
              "internalType": "contract IJBPayDelegate",
              "name": "delegate",
              "type": "address"
            },
            {
              "internalType": "uint256",
              "name": "amount",
              "type": "uint256"
            }
          ],
          "internalType": "struct JBPayDelegateAllocation[]",
          "name": "delegateAllocations",
          "type": "tuple[]"
        }
      ],
      "stateMutability": "view",
      "type": "function"
    },
    {
      "inputs": [],
      "name": "prices",
      "outputs": [
        {
          "internalType": "contract IJBPrices",
          "name": "",
          "type": "address"
        }
      ],
      "stateMutability": "view",
      "type": "function"
    },
    {
      "inputs": [],
      "name": "pricingCurrency",
      "outputs": [
        {
          "internalType": "uint256",
          "name": "",
          "type": "uint256"
        }
      ],
      "stateMutability": "view",
      "type": "function"
    },
    {
      "inputs": [],
      "name": "pricingDecimals",
      "outputs": [
        {
          "internalType": "uint256",
          "name": "",
          "type": "uint256"
        }
      ],
      "stateMutability": "view",
      "type": "function"
    },
    {
      "inputs": [],
      "name": "projectId",
      "outputs": [
        {
          "internalType": "uint256",
          "name": "",
          "type": "uint256"
        }
      ],
      "stateMutability": "view",
      "type": "function"
    },
    {
      "inputs": [
        {
          "components": [
            {
              "internalType": "contract IJBPaymentTerminal",
              "name": "terminal",
              "type": "address"
            },
            {
              "internalType": "address",
              "name": "holder",
              "type": "address"
            },
            {
              "internalType": "uint256",
              "name": "projectId",
              "type": "uint256"
            },
            {
              "internalType": "uint256",
              "name": "currentFundingCycleConfiguration",
              "type": "uint256"
            },
            {
              "internalType": "uint256",
              "name": "tokenCount",
              "type": "uint256"
            },
            {
              "internalType": "uint256",
              "name": "totalSupply",
              "type": "uint256"
            },
            {
              "internalType": "uint256",
              "name": "overflow",
              "type": "uint256"
            },
            {
              "components": [
                {
                  "internalType": "address",
                  "name": "token",
                  "type": "address"
                },
                {
                  "internalType": "uint256",
                  "name": "value",
                  "type": "uint256"
                },
                {
                  "internalType": "uint256",
                  "name": "decimals",
                  "type": "uint256"
                },
                {
                  "internalType": "uint256",
                  "name": "currency",
                  "type": "uint256"
                }
              ],
              "internalType": "struct JBTokenAmount",
              "name": "reclaimAmount",
              "type": "tuple"
            },
            {
              "internalType": "bool",
              "name": "useTotalOverflow",
              "type": "bool"
            },
            {
              "internalType": "uint256",
              "name": "redemptionRate",
              "type": "uint256"
            },
            {
              "internalType": "string",
              "name": "memo",
              "type": "string"
            },
            {
              "internalType": "bytes",
              "name": "metadata",
              "type": "bytes"
            }
          ],
          "internalType": "struct JBRedeemParamsData",
          "name": "_data",
          "type": "tuple"
        }
      ],
      "name": "redeemParams",
      "outputs": [
        {
          "internalType": "uint256",
          "name": "reclaimAmount",
          "type": "uint256"
        },
        {
          "internalType": "string",
          "name": "memo",
          "type": "string"
        },
        {
          "components": [
            {
              "internalType": "contract IJBRedemptionDelegate",
              "name": "delegate",
              "type": "address"
            },
            {
              "internalType": "uint256",
              "name": "amount",
              "type": "uint256"
            }
          ],
          "internalType": "struct JBRedemptionDelegateAllocation[]",
          "name": "delegateAllocations",
          "type": "tuple[]"
        }
      ],
      "stateMutability": "view",
      "type": "function"
    },
    {
      "inputs": [
        {
          "internalType": "uint256[]",
          "name": "_tokenIds",
          "type": "uint256[]"
        },
        {
          "components": [
            {
              "internalType": "contract IJBPaymentTerminal",
              "name": "terminal",
              "type": "address"
            },
            {
              "internalType": "address",
              "name": "holder",
              "type": "address"
            },
            {
              "internalType": "uint256",
              "name": "projectId",
              "type": "uint256"
            },
            {
              "internalType": "uint256",
              "name": "currentFundingCycleConfiguration",
              "type": "uint256"
            },
            {
              "internalType": "uint256",
              "name": "tokenCount",
              "type": "uint256"
            },
            {
              "internalType": "uint256",
              "name": "totalSupply",
              "type": "uint256"
            },
            {
              "internalType": "uint256",
              "name": "overflow",
              "type": "uint256"
            },
            {
              "components": [
                {
                  "internalType": "address",
                  "name": "token",
                  "type": "address"
                },
                {
                  "internalType": "uint256",
                  "name": "value",
                  "type": "uint256"
                },
                {
                  "internalType": "uint256",
                  "name": "decimals",
                  "type": "uint256"
                },
                {
                  "internalType": "uint256",
                  "name": "currency",
                  "type": "uint256"
                }
              ],
              "internalType": "struct JBTokenAmount",
              "name": "reclaimAmount",
              "type": "tuple"
            },
            {
              "internalType": "bool",
              "name": "useTotalOverflow",
              "type": "bool"
            },
            {
              "internalType": "uint256",
              "name": "redemptionRate",
              "type": "uint256"
            },
            {
              "internalType": "string",
              "name": "memo",
              "type": "string"
            },
            {
              "internalType": "bytes",
              "name": "metadata",
              "type": "bytes"
            }
          ],
          "internalType": "struct JBRedeemParamsData",
          "name": "",
          "type": "tuple"
        }
      ],
      "name": "redemptionWeightOf",
      "outputs": [
        {
          "internalType": "uint256",
          "name": "",
          "type": "uint256"
        }
      ],
      "stateMutability": "view",
      "type": "function"
    },
    {
      "inputs": [],
      "name": "renounceOwnership",
      "outputs": [],
      "stateMutability": "nonpayable",
      "type": "function"
    },
    {
      "inputs": [
        {
          "internalType": "uint256",
          "name": "_tokenId",
          "type": "uint256"
        },
        {
          "internalType": "uint256",
          "name": "_salePrice",
          "type": "uint256"
        }
      ],
      "name": "royaltyInfo",
      "outputs": [
        {
          "internalType": "address",
          "name": "receiver",
          "type": "address"
        },
        {
          "internalType": "uint256",
          "name": "royaltyAmount",
          "type": "uint256"
        }
      ],
      "stateMutability": "view",
      "type": "function"
    },
    {
      "inputs": [
        {
          "internalType": "address",
          "name": "from",
          "type": "address"
        },
        {
          "internalType": "address",
          "name": "to",
          "type": "address"
        },
        {
          "internalType": "uint256",
          "name": "tokenId",
          "type": "uint256"
        }
      ],
      "name": "safeTransferFrom",
      "outputs": [],
      "stateMutability": "nonpayable",
      "type": "function"
    },
    {
      "inputs": [
        {
          "internalType": "address",
          "name": "from",
          "type": "address"
        },
        {
          "internalType": "address",
          "name": "to",
          "type": "address"
        },
        {
          "internalType": "uint256",
          "name": "tokenId",
          "type": "uint256"
        },
        {
          "internalType": "bytes",
          "name": "data",
          "type": "bytes"
        }
      ],
      "name": "safeTransferFrom",
      "outputs": [],
      "stateMutability": "nonpayable",
      "type": "function"
    },
    {
      "inputs": [
        {
          "internalType": "address",
          "name": "operator",
          "type": "address"
        },
        {
          "internalType": "bool",
          "name": "approved",
          "type": "bool"
        }
      ],
      "name": "setApprovalForAll",
      "outputs": [],
      "stateMutability": "nonpayable",
      "type": "function"
    },
    {
      "inputs": [
        {
          "internalType": "string",
          "name": "_baseUri",
          "type": "string"
        }
      ],
      "name": "setBaseUri",
      "outputs": [],
      "stateMutability": "nonpayable",
      "type": "function"
    },
    {
      "inputs": [
        {
          "internalType": "string",
          "name": "_contractUri",
          "type": "string"
        }
      ],
      "name": "setContractUri",
      "outputs": [],
      "stateMutability": "nonpayable",
      "type": "function"
    },
    {
      "inputs": [
        {
          "internalType": "address",
          "name": "_beneficiary",
          "type": "address"
        }
      ],
      "name": "setDefaultReservedTokenBeneficiary",
      "outputs": [],
      "stateMutability": "nonpayable",
      "type": "function"
    },
    {
      "inputs": [
        {
          "internalType": "uint256",
          "name": "_tierId",
          "type": "uint256"
        },
        {
          "internalType": "bytes32",
          "name": "_encodedIPFSUri",
          "type": "bytes32"
        }
      ],
      "name": "setEncodedIPFSUriOf",
      "outputs": [],
      "stateMutability": "nonpayable",
      "type": "function"
    },
    {
      "inputs": [
        {
          "internalType": "contract IJBTokenUriResolver",
          "name": "_tokenUriResolver",
          "type": "address"
        }
      ],
      "name": "setTokenUriResolver",
      "outputs": [],
      "stateMutability": "nonpayable",
      "type": "function"
    },
    {
      "inputs": [],
      "name": "store",
      "outputs": [
        {
          "internalType": "contract IJBTiered721DelegateStore",
          "name": "",
          "type": "address"
        }
      ],
      "stateMutability": "view",
      "type": "function"
    },
    {
      "inputs": [
        {
          "internalType": "bytes4",
          "name": "_interfaceId",
          "type": "bytes4"
        }
      ],
      "name": "supportsInterface",
      "outputs": [
        {
          "internalType": "bool",
          "name": "",
          "type": "bool"
        }
      ],
      "stateMutability": "view",
      "type": "function"
    },
    {
      "inputs": [],
      "name": "symbol",
      "outputs": [
        {
          "internalType": "string",
          "name": "",
          "type": "string"
        }
      ],
      "stateMutability": "view",
      "type": "function"
    },
    {
      "inputs": [
        {
          "internalType": "uint256",
          "name": "_tokenId",
          "type": "uint256"
        }
      ],
      "name": "tokenURI",
      "outputs": [
        {
          "internalType": "string",
          "name": "",
          "type": "string"
        }
      ],
      "stateMutability": "view",
      "type": "function"
    },
    {
      "inputs": [
        {
          "components": [
            {
              "internalType": "contract IJBPaymentTerminal",
              "name": "terminal",
              "type": "address"
            },
            {
              "internalType": "address",
              "name": "holder",
              "type": "address"
            },
            {
              "internalType": "uint256",
              "name": "projectId",
              "type": "uint256"
            },
            {
              "internalType": "uint256",
              "name": "currentFundingCycleConfiguration",
              "type": "uint256"
            },
            {
              "internalType": "uint256",
              "name": "tokenCount",
              "type": "uint256"
            },
            {
              "internalType": "uint256",
              "name": "totalSupply",
              "type": "uint256"
            },
            {
              "internalType": "uint256",
              "name": "overflow",
              "type": "uint256"
            },
            {
              "components": [
                {
                  "internalType": "address",
                  "name": "token",
                  "type": "address"
                },
                {
                  "internalType": "uint256",
                  "name": "value",
                  "type": "uint256"
                },
                {
                  "internalType": "uint256",
                  "name": "decimals",
                  "type": "uint256"
                },
                {
                  "internalType": "uint256",
                  "name": "currency",
                  "type": "uint256"
                }
              ],
              "internalType": "struct JBTokenAmount",
              "name": "reclaimAmount",
              "type": "tuple"
            },
            {
              "internalType": "bool",
              "name": "useTotalOverflow",
              "type": "bool"
            },
            {
              "internalType": "uint256",
              "name": "redemptionRate",
              "type": "uint256"
            },
            {
              "internalType": "string",
              "name": "memo",
              "type": "string"
            },
            {
              "internalType": "bytes",
              "name": "metadata",
              "type": "bytes"
            }
          ],
          "internalType": "struct JBRedeemParamsData",
          "name": "",
          "type": "tuple"
        }
      ],
      "name": "totalRedemptionWeight",
      "outputs": [
        {
          "internalType": "uint256",
          "name": "",
          "type": "uint256"
        }
      ],
      "stateMutability": "view",
      "type": "function"
    },
    {
      "inputs": [
        {
          "internalType": "address",
          "name": "from",
          "type": "address"
        },
        {
          "internalType": "address",
          "name": "to",
          "type": "address"
        },
        {
          "internalType": "uint256",
          "name": "tokenId",
          "type": "uint256"
        }
      ],
      "name": "transferFrom",
      "outputs": [],
      "stateMutability": "nonpayable",
      "type": "function"
    },
    {
      "inputs": [
        {
          "internalType": "address",
          "name": "newOwner",
          "type": "address"
        }
      ],
      "name": "transferOwnership",
      "outputs": [],
      "stateMutability": "nonpayable",
      "type": "function"
    }
  ],
  "bytecode": {
    "object": "0x60806040523480156200001157600080fd5b506200001d3362000035565b600880546001600160a01b0319163017905562000087565b600780546001600160a01b038381166001600160a01b0319831681179093556040519116919082907f8be0079c531659141344cd1fd0a4f28419497f9722a3daafe3b4186f6b6457e090600090a35050565b61508e80620000976000396000f3fe60806040526004361061027d5760003560e01c8063715018a61161014f578063b88d4fde116100c1578063d46cf1711161007a578063d46cf171146107bb578063da9ee8b7146107db578063df487e26146107ee578063e8a3d4851461080e578063e985e9c514610823578063f2fde38b1461086c57600080fd5b8063b88d4fde146106fb578063c41c2f241461071b578063c87b56dd1461073b578063ccb4807b1461075b578063d1704baf1461077b578063d3419bf31461079b57600080fd5b806395d89b411161011357806395d89b4114610637578063975057e71461064c578063a0bcfc7f1461066c578063a22cb4651461068c578063a51cfd18146106ac578063aa4fb15b146106db57600080fd5b8063715018a6146105af57806379a75319146105c45780637ba62bf9146105d95780638da5cb5b146105f95780639494bf721461061757600080fd5b80632b13c58f116101f357806354c6d1f5116101ac57806354c6d1f5146104ec578063557e71551461050c5780636352211e1461052c57806364640c1e1461054c5780636ac6d9411461056257806370a082311461058f57600080fd5b80632b13c58f1461044d57806336c1a93b146104605780633fafa1271461048057806342842e0e146104965780634ecba625146104b6578063525350ba146104cc57600080fd5b806323b872dd1161024557806323b872dd146103535780632407497e14610373578063245a45b51461039357806325eb91ee146103ce5780632a55205a146103ee5780632a596e531461042d57600080fd5b806301ffc9a71461028257806306fdde03146102b7578063081812fc146102d9578063095ea7b3146103115780631d153ca414610333575b600080fd5b34801561028e57600080fd5b506102a261029d3660046136a1565b61088c565b60405190151581526020015b60405180910390f35b3480156102c357600080fd5b506102cc6108b7565b6040516102ae919061370e565b3480156102e557600080fd5b506102f96102f4366004613721565b610949565b6040516001600160a01b0390911681526020016102ae565b34801561031d57600080fd5b5061033161032c36600461375f565b610970565b005b34801561033f57600080fd5b506008546102f9906001600160a01b031681565b34801561035f57600080fd5b5061033161036e36600461378b565b6109fc565b34801561037f57600080fd5b5061033161038e3660046137cc565b610a2e565b34801561039f57600080fd5b506103c06103ae3660046137cc565b600e6020526000908152604090205481565b6040519081526020016102ae565b3480156103da57600080fd5b506103316103e936600461382d565b610ad7565b3480156103fa57600080fd5b5061040e6104093660046138c7565b610cba565b604080516001600160a01b0390931683526020830191909152016102ae565b34801561043957600080fd5b506103316104483660046138e9565b610ded565b61033161045b366004613976565b610e46565b34801561046c57600080fd5b5061033161047b3660046139aa565b611020565b34801561048c57600080fd5b506103c060055481565b3480156104a257600080fd5b506103316104b136600461378b565b611082565b3480156104c257600080fd5b506103c0600d5481565b3480156104d857600080fd5b506103316104e73660046138c7565b61109d565b3480156104f857600080fd5b506102f9610507366004613721565b611149565b34801561051857600080fd5b50600a546102f9906001600160a01b031681565b34801561053857600080fd5b506102f9610547366004613721565b6111f5565b34801561055857600080fd5b506103c0600c5481565b34801561056e57600080fd5b5061058261057d3660046139eb565b61122b565b6040516102ae9190613a7c565b34801561059b57600080fd5b506103c06105aa3660046137cc565b611371565b3480156105bb57600080fd5b506103316113e7565b3480156105d057600080fd5b506103c060c881565b3480156105e557600080fd5b506103c06105f4366004613bd1565b6113fb565b34801561060557600080fd5b506007546001600160a01b03166102f9565b34801561062357600080fd5b506103c0610632366004613976565b611476565b34801561064357600080fd5b506102cc6114a7565b34801561065857600080fd5b506009546102f9906001600160a01b031681565b34801561067857600080fd5b50610331610687366004613c34565b6114b6565b34801561069857600080fd5b506103316106a7366004613cac565b611569565b3480156106b857600080fd5b506106cc6106c7366004613976565b611578565b6040516102ae93929190613ce5565b3480156106e757600080fd5b506103316106f63660046138c7565b6117d7565b34801561070757600080fd5b50610331610716366004613db7565b6119f4565b34801561072757600080fd5b506006546102f9906001600160a01b031681565b34801561074757600080fd5b506102cc610756366004613721565b611a27565b34801561076757600080fd5b50610331610776366004613c34565b611c01565b34801561078757600080fd5b506103316107963660046140d6565b611cb4565b3480156107a757600080fd5b50600b546102f9906001600160a01b031681565b3480156107c757600080fd5b506106cc6107d636600461420f565b611fa6565b6103316107e936600461424a565b612089565b3480156107fa57600080fd5b506103316108093660046137cc565b612140565b34801561081a57600080fd5b506102cc6121e2565b34801561082f57600080fd5b506102a261083e366004614285565b6001600160a01b03918216600090815260046020908152604080832093909416825291909152205460ff1690565b34801561087857600080fd5b506103316108873660046137cc565b612258565b60006001600160e01b031982166306decc2d60e21b14806108b157506108b1826122d6565b92915050565b6060600080546108c6906142b3565b80601f01602080910402602001604051908101604052809291908181526020018280546108f2906142b3565b801561093f5780601f106109145761010080835404028352916020019161093f565b820191906000526020600020905b81548152906001019060200180831161092257829003601f168201915b5050505050905090565b600061095482612367565b506000908152600360205260409020546001600160a01b031690565b600061097b826111f5565b9050806001600160a01b0316836001600160a01b0316036109af5760405163133f8be960e01b815260040160405180910390fd5b336001600160a01b038216148015906109cf57506109cd813361083e565b155b156109ed5760405163e5fa0e3560e01b815260040160405180910390fd5b6109f7838361239c565b505050565b610a06338261240a565b610a235760405163e5fa0e3560e01b815260040160405180910390fd5b6109f7838383612489565b610a36612562565b60095460405163036129cb60e61b81526001600160a01b0383811660048301529091169063d84a72c090602401600060405180830381600087803b158015610a7d57600080fd5b505af1158015610a91573d6000803e3d6000fd5b50506040513381526001600160a01b03841692507fe7784d93cfbfa4408e19577e6cc0436f4dbb51214b70e100905dfce9def88c1691506020015b60405180910390a250565b610adf612562565b82818015610baf576009546040516320512ba160e01b81526001600160a01b03909116906320512ba190610b1990879087906004016142e7565b600060405180830381600087803b158015610b3357600080fd5b505af1158015610b47573d6000803e3d6000fd5b5050505060005b81811015610bad57848482818110610b6857610b68614320565b60405133815260209182029390930135927f832d89d991be5351d793c20faf4b7dd44f8aa9ce39e3cb160c6317de6fbba72992500160405180910390a2600101610b4e565b505b8115610cb25760095460405163229dad5f60e11b81526000916001600160a01b03169063453b5abe90610be8908a908a9060040161446c565b6000604051808303816000875af1158015610c07573d6000803e3d6000fd5b505050506040513d6000823e601f3d908101601f19168201604052610c2f919081019061450a565b905060005b83811015610caf57818181518110610c4e57610c4e614320565b60200260200101517f8aa4a03deb8db10032373886aa0376c918ccf36bcdb59ca4da2a807ac7ff1a04898984818110610c8957610c89614320565b90506101c0020133604051610c9f92919061453e565b60405180910390a2600101610c34565b50505b505050505050565b600954604051633a39e4d160e11b815230600482015260248101849052600091829182916001600160a01b031690637473c9a2906044016101c060405180830381865afa158015610d0f573d6000803e3d6000fd5b505050506040513d601f19601f82011682018060405250810190610d33919061457c565b600954815160405163792d5f6d60e11b815230600482015260248101919091529192506000916001600160a01b039091169063f25abeda90604401602060405180830381865afa158015610d8b573d6000803e3d6000fd5b505050506040513d601f19601f82011682018060405250810190610daf9190614646565b90506001600160a01b038116610dcd57600080935093505050610de6565b80610ddf8684610100015160c86125bc565b9350935050505b9250929050565b8060005b81811015610e40576000848483818110610e0d57610e0d614320565b905060400201803603810190610e239190614663565b9050610e37816000015182602001516117d7565b50600101610df1565b50505050565b34151580610ec85750600654600554604051636e49181f60e01b815260048101919091523360248201526001600160a01b0390911690636e49181f90604401602060405180830381865afa158015610ea2573d6000803e3d6000fd5b505050506040513d601f19601f82011682018060405250810190610ec691906146b1565b155b80610ed95750600554816020013514155b15610ef757604051633efca5c360e11b815260040160405180910390fd5b6024610f076101c08301836146ce565b90501080610f4b575063b3bcbb7960e01b610f266101c08301836146ce565b610f3591602491602091614714565b610f3e9161473e565b6001600160e01b03191614155b15610f6957604051632a84050f60e01b815260040160405180910390fd5b6000610f796101c08301836146ce565b810190610f86919061476e565b925050506000815190506000805b8281101561101657838181518110610fae57610fae614320565b60200260200101519150846000016020810190610fcb91906137cc565b6000838152600260205260409020546001600160a01b039081169116146110055760405163075fd2b160e01b815260040160405180910390fd5b61100e82612688565b600101610f94565b50610e4083612709565b611028612562565b8060005b81811015610e40573684848381811061104757611047614320565b905060200281019061105991906147c6565b905061107861106882806147e6565b61057d60408501602086016137cc565b505060010161102c565b6109f7838383604051806020016040528060008152506119f4565b6110a5612562565b6009546040516324de8d6360e11b815260048101849052602481018390526001600160a01b03909116906349bd1ac690604401600060405180830381600087803b1580156110f257600080fd5b505af1158015611106573d6000803e3d6000fd5b5050604080518481523360208201528593507f677da4fed654db8e604791fa2582f342e2001aa217e27f6985eb3e0f67e5a7fc9250015b60405180910390a25050565b6009546040516308ed6c0160e41b81523060048201526024810183905260009182916001600160a01b0390911690638ed6c01090604401602060405180830381865afa15801561119d573d6000803e3d6000fd5b505050506040513d601f19601f820116820180604052508101906111c19190614646565b90506001600160a01b038116156111d85792915050565b50506000908152600260205260409020546001600160a01b031690565b6000818152600260205260408120546001600160a01b0316806108b15760405163b49aa3b560e01b815260040160405180910390fd5b6060611235612562565b60095460405163eaa19ab360e01b81526001600160a01b039091169063eaa19ab39061126e90600019908890889060019060040161482f565b6000604051808303816000875af115801561128d573d6000803e3d6000fd5b505050506040513d6000823e601f3d908101601f191682016040526112b5919081019061488c565b509050826000805b82811015611367578381815181106112d7576112d7614320565b602002602001015191506112eb858361276e565b846001600160a01b031687878381811061130757611307614320565b905060200201602081019061131c91906148d2565b604080516000815233602082015261ffff929092169185917f598baf7bf150ca2f42be9e9f8f55e81d45f5715c3ff22bf46d697fabec7f31d6910160405180910390a46001016112bd565b5050509392505050565b600954604051633de222bb60e21b81523060048201526001600160a01b038381166024830152600092169063f7888aec906044015b602060405180830381865afa1580156113c3573d6000803e3d6000fd5b505050506040513d601f19601f820116820180604052508101906108b191906148ed565b6113ef612562565b6113f96000612838565b565b60095460405163051330b560e21b81526000916001600160a01b03169063144cc2d49061142e9030908790600401614906565b602060405180830381865afa15801561144b573d6000803e3d6000fd5b505050506040513d601f19601f8201168201806040525081019061146f91906148ed565b9392505050565b600954604051631572f24960e11b81523060048201526000916001600160a01b031690632ae5e492906024016113a6565b6060600180546108c6906142b3565b6114be612562565b6009546040516331315e5960e11b81526001600160a01b0390911690636262bcb2906114f0908590859060040161492a565b600060405180830381600087803b15801561150a57600080fd5b505af115801561151e573d6000803e3d6000fd5b505050508181604051611532929190614959565b604051908190038120338252907f7bc9110d5de090dd59e07912d2b93a5a27ac70a60c8d8e324db4f9ee8b8b5c139060200161113d565b61157433838361288a565b5050565b60006060806080840135156115a0576040516309f82f1b60e31b815260040160405180910390fd5b60246115b06101c08601866146ce565b905010806115f4575063b3bcbb7960e01b6115cf6101c08601866146ce565b6115de91602491602091614714565b6115e79161473e565b6001600160e01b03191614155b1561161257604051632a84050f60e01b815260040160405180910390fd5b60408051600180825281830190925290816020015b60408051808201909152600080825260208201528152602001906001900390816116275790505090506040518060400160405280306001600160a01b0316815260200160008152508160008151811061168257611682614320565b6020908102919091010152600061169d6101c08601866146ce565b8101906116aa919061476e565b9250505060006116ba82876113fb565b905060006116c787611476565b905060006116da8860c0013584846125bc565b90506127108861018001350361174557806116f96101a08a018a6146ce565b8782828080601f016020809104026020016040519081016040528093929190818152602001838380828437600092019190915250969d50919b509199506117d098505050505050505050565b61177b816117648561175e6101808d013561271061497f565b866125bc565b611773906101808c0135614992565b6127106125bc565b6117896101a08a018a6146ce565b8782828080601f016020809104026020016040519081016040528093929190818152602001838380828437600092019190915250969d50919b509199505050505050505050505b9193909250565b600a546005546040516321d1336160e11b815260048101919091526000916001600160a01b0316906343a266c29060240161012060405180830381865afa158015611826573d6000803e3d6000fd5b505050506040513d601f19601f8201168201806040525081019061184a91906149a5565b61010081015190915060f51c60019081160361187957604051631d2c125760e31b815260040160405180910390fd5b600954604051635d53f40760e11b815260048101859052602481018490526000916001600160a01b03169063baa7e80e906044016000604051808303816000875af11580156118cc573d6000803e3d6000fd5b505050506040513d6000823e601f3d908101601f191682016040526118f4919081019061450a565b6009546040516304db994760e21b8152306004820152602481018790529192506000916001600160a01b039091169063136e651c90604401602060405180830381865afa158015611949573d6000803e3d6000fd5b505050506040513d601f19601f8201168201806040525081019061196d9190614646565b90506000805b858110156119eb5783818151811061198d5761198d614320565b602002602001015191506119a1838361276e565b6040513381526001600160a01b03841690889084907f031e1988c95a91ec4d655ff63a8f87a80bc9daf28d95ae10ee08c0022cfb5c8b9060200160405180910390a4600101611973565b50505050505050565b6119fe338361240a565b611a1b5760405163e5fa0e3560e01b815260040160405180910390fd5b610e4084848484612929565b600954604051630fab094760e01b81523060048201526060916000916001600160a01b0390911690630fab094790602401602060405180830381865afa158015611a75573d6000803e3d6000fd5b505050506040513d601f19601f82011682018060405250810190611a999190614646565b90506001600160a01b03811615611b1757604051636d02a25560e11b8152600481018490526001600160a01b0382169063da0544aa90602401600060405180830381865afa158015611aef573d6000803e3d6000fd5b505050506040513d6000823e601f3d908101601f1916820160405261146f9190810190614a25565b60095460405163f682eeaf60e01b815230600482015261146f916001600160a01b03169063f682eeaf90602401600060405180830381865afa158015611b61573d6000803e3d6000fd5b505050506040513d6000823e601f3d908101601f19168201604052611b899190810190614a25565b600954604051630c8df17160e41b8152306004820152602481018790526001600160a01b039091169063c8df171090604401602060405180830381865afa158015611bd8573d6000803e3d6000fd5b505050506040513d601f19601f82011682018060405250810190611bfc91906148ed565b61295d565b611c09612562565b60095460405163d67b78fd60e01b81526001600160a01b039091169063d67b78fd90611c3b908590859060040161492a565b600060405180830381600087803b158015611c5557600080fd5b505af1158015611c69573d6000803e3d6000fd5b505050508181604051611c7d929190614959565b604051908190038120338252907fd36dc0c1a06103fdcaf15f3f6fb797d1a97997514c78de073640c8b5005454b89060200161113d565b6008546001600160a01b03163003611ccb57600080fd5b6009546001600160a01b031615611ce157600080fd5b611ced8b8b8b8b6129c4565b600a80546001600160a01b03808a166001600160a01b031992831617909255600980548584169083161790556020850151600c556040850151600d556060850151600b8054919093169116179055855115611da1576040516331315e5960e11b81526001600160a01b03831690636262bcb290611d6e90899060040161370e565b600060405180830381600087803b158015611d8857600080fd5b505af1158015611d9c573d6000803e3d6000fd5b505050505b835115611e075760405163d67b78fd60e01b81526001600160a01b0383169063d67b78fd90611dd490879060040161370e565b600060405180830381600087803b158015611dee57600080fd5b505af1158015611e02573d6000803e3d6000fd5b505050505b6001600160a01b03851615611e725760405163036129cb60e61b81526001600160a01b03868116600483015283169063d84a72c090602401600060405180830381600087803b158015611e5957600080fd5b505af1158015611e6d573d6000803e3d6000fd5b505050505b82515115611ef057825160405163229dad5f60e11b81526001600160a01b0384169163453b5abe91611ea79190600401614a92565b6000604051808303816000875af1158015611ec6573d6000803e3d6000fd5b505050506040513d6000823e601f3d908101601f19168201604052611eee919081019061450a565b505b805180611efe575080602001515b80611f0a575080604001515b15611f9057604080516365c13f1960e11b815282511515600482015260208301511515602482015290820151151560448201526060820151151560648201526001600160a01b0383169063cb827e3290608401600060405180830381600087803b158015611f7757600080fd5b505af1158015611f8b573d6000803e3d6000fd5b505050505b611f9933612838565b5050505050505050505050565b610120810135606080611fbd6101608501856146ce565b8080601f01602080910402602001604051908101604052809392919081815260200183838082843760009201919091525092945060019250611ffd915050565b60405190808252806020026020018201604052801561204257816020015b604080518082019091526000808252602082015281526020019060019003908161201b5790505b5090506040518060400160405280306001600160a01b0316815260200160008152508160008151811061207757612077614320565b60200260200101819052509193909250565b6005543415158061210a5750600654604051636e49181f60e01b8152600481018390523360248201526001600160a01b0390911690636e49181f90604401602060405180830381865afa1580156120e4573d6000803e3d6000fd5b505050506040513d601f19601f8201168201806040525081019061210891906146b1565b155b80612119575080826020013514155b15612137576040516331c57b1b60e21b815260040160405180910390fd5b611574826129f7565b612148612562565b6009546040516317161f7d60e01b81526001600160a01b038381166004830152909116906317161f7d90602401600060405180830381600087803b15801561218f57600080fd5b505af11580156121a3573d6000803e3d6000fd5b50506040513381526001600160a01b03841692507fab0014d4c7a642a02a31b303a318908c22b0fb2001f107278fc6076b4c671b659150602001610acc565b600954604051630155619b60e71b81523060048201526060916001600160a01b03169063aab0cd8090602401600060405180830381865afa15801561222b573d6000803e3d6000fd5b505050506040513d6000823e601f3d908101601f191682016040526122539190810190614a25565b905090565b612260612562565b6001600160a01b0381166122ca5760405162461bcd60e51b815260206004820152602660248201527f4f776e61626c653a206e6577206f776e657220697320746865207a65726f206160448201526564647265737360d01b60648201526084015b60405180910390fd5b6122d381612838565b50565b60006001600160e01b0319821663b3bcbb7960e01b148061230757506001600160e01b031982166371700c6960e01b145b8061232257506001600160e01b0319821663da9ee8b760e01b145b8061233d57506001600160e01b03198216632b13c58f60e01b145b8061235857506001600160e01b0319821663152a902d60e11b145b806108b157506108b182612d0a565b6000818152600260205260409020546001600160a01b03166122d35760405163b49aa3b560e01b815260040160405180910390fd5b600081815260036020526040902080546001600160a01b0319166001600160a01b03841690811790915581906123d1826111f5565b6001600160a01b03167f8c5be1e5ebec7d5bd14f71427d1e84f3dd0314c0f7b2291e5b200ac8c7c3b92560405160405180910390a45050565b600080612416836111f5565b9050806001600160a01b0316846001600160a01b0316148061245d57506001600160a01b0380821660009081526004602090815260408083209388168352929052205460ff165b806124815750836001600160a01b031661247684610949565b6001600160a01b0316145b949350505050565b826001600160a01b031661249c826111f5565b6001600160a01b0316146124c35760405163a195bc5360e01b815260040160405180910390fd5b6001600160a01b0382166124ea57604051632c95542760e01b815260040160405180910390fd5b6124f5838383612d5a565b61250060008261239c565b60008181526002602052604080822080546001600160a01b0319166001600160a01b0386811691821790925591518493918716917fddf252ad1be2c89b69c2b068fc378daa952ba7f163c4a11628f55a4df523b3ef91a46109f7838383612f87565b6007546001600160a01b031633146113f95760405162461bcd60e51b815260206004820181905260248201527f4f776e61626c653a2063616c6c6572206973206e6f7420746865206f776e657260448201526064016122c1565b60008080600019858709858702925082811083820303915050806000036125f6578382816125ec576125ec614baf565b049250505061146f565b83811061262057604051631dcf306360e21b815260048101829052602481018590526044016122c1565b600084868809600260036001881981018916988990049182028318808302840302808302840302808302840302808302840302808302840302918202909203026000889003889004909101858311909403939093029303949094049190911702949350505050565b6000612693826111f5565b90506126a181600084612d5a565b6126ac60008361239c565b60008281526002602052604080822080546001600160a01b0319169055518391906001600160a01b038416907fddf252ad1be2c89b69c2b068fc378daa952ba7f163c4a11628f55a4df523b3ef908390a461157481600084612f87565b6009546040516386bc2be360e01b81526001600160a01b03909116906386bc2be390612739908490600401613a7c565b600060405180830381600087803b15801561275357600080fd5b505af1158015612767573d6000803e3d6000fd5b5050505050565b6001600160a01b03821661279557604051633904578f60e11b815260040160405180910390fd5b6000818152600260205260409020546001600160a01b0316156127cb57604051632eb5f0c360e21b815260040160405180910390fd5b6127d760008383612d5a565b60008181526002602052604080822080546001600160a01b0319166001600160a01b03861690811790915590518392907fddf252ad1be2c89b69c2b068fc378daa952ba7f163c4a11628f55a4df523b3ef908290a461157460008383612f87565b600780546001600160a01b038381166001600160a01b0319831681179093556040519116919082907f8be0079c531659141344cd1fd0a4f28419497f9722a3daafe3b4186f6b6457e090600090a35050565b816001600160a01b0316836001600160a01b0316036128bc576040516306f8139d60e11b815260040160405180910390fd5b6001600160a01b03838116600081815260046020908152604080832094871680845294825291829020805460ff191686151590811790915591519182527f17307eab39ab6107e8899845ad3d59bd9653f200f220920489ca2b5937696c31910160405180910390a3505050565b612934848484612489565b61294084848484613074565b610e40576040516336f57c1b60e11b815260040160405180910390fd5b604051609160f51b6020820152602281018290526060906000906042016040516020818303038152906040529050600061299682613176565b905084816040516020016129ab929190614bc5565b6040516020818303038152906040529250505092915050565b6129ce828261330e565b5050600591909155600680546001600160a01b0319166001600160a01b03909216919091179055565b600c5460009060c083013503612a1257506080810135612ac8565b600b546001600160a01b03161561157457600d54612ac590608084013590612a3b90600a614cd8565b600b54600c54604051635268657960e11b815260c08801356004820152602481019190915260a087013560448201526001600160a01b039091169063a4d0caf290606401602060405180830381865afa158015612a9c573d6000803e3d6000fd5b505050506040513d601f19601f82011682018060405250810190612ac091906148ed565b6125bc565b90505b6000600e81612adf6101a0860161018087016137cc565b6001600160a01b03168152602081019190915260400160009081205491508290612b116101a0860161018087016137cc565b6001600160a01b0316612b2760208701876137cc565b6001600160a01b031603612b3e5790820190612b41565b50815b60006044612b536101e08801886146ce565b9050118015612b97575063b3bcbb7960e01b612b736101e08801886146ce565b612b8291604491604091614714565b612b8b9161473e565b6001600160e01b031916145b15612c6e576060612bac6101e08801886146ce565b810190612bb99190614ce4565b90955093508492505081159050612c3c5750600954604051634228826f60e11b81523060048201526001600160a01b039091169063845104de90602401608060405180830381865afa158015612c13573d6000803e3d6000fd5b505050506040513d601f19601f82011682018060405250810190612c379190614db6565b606001515b15612c4657600091505b805115612c6c57612c698482612c646101a08b016101808c016137cc565b613327565b93505b505b8215612cca5780612c9257604051631b57826960e21b815260040160405180910390fd5b828201600e6000612cab6101a08a016101808b016137cc565b6001600160a01b03168152602081019190915260400160002055610cb2565b818414610cb25781600e6000612ce86101a08a016101808b016137cc565b6001600160a01b03168152602081019190915260400160002055505050505050565b60006001600160e01b031982166380ac58cd60e01b1480612d3b57506001600160e01b03198216635b5e139f60e01b145b806108b157506301ffc9a760e01b6001600160e01b03198316146108b1565b6001600160a01b038316156109f75760095460405163b67cb04760e01b8152306004820152602481018390526000916001600160a01b03169063b67cb047906044016101c060405180830381865afa158015612dba573d6000803e3d6000fd5b505050506040513d601f19601f82011682018060405250810190612dde919061457c565b9050806101a0015115612ea357600a546005546040516321d1336160e11b815260048101919091526000916001600160a01b0316906343a266c29060240161012060405180830381865afa158015612e3a573d6000803e3d6000fd5b505050506040513d601f19601f82011682018060405250810190612e5e91906149a5565b90506001600160a01b03841615801590612e83575061010081015160f41c6001908116145b15612ea1576040516318cdaf9760e01b815260040160405180910390fd5b505b6009546040516308ed6c0160e41b8152306004820152602481018490526000916001600160a01b031690638ed6c01090604401602060405180830381865afa158015612ef3573d6000803e3d6000fd5b505050506040513d601f19601f82011682018060405250810190612f179190614646565b6001600160a01b031603610e4057600954604051638cec7d3960e01b8152600481018490526001600160a01b03868116602483015290911690638cec7d3990604401600060405180830381600087803b158015612f7357600080fd5b505af1158015610caf573d6000803e3d6000fd5b60095460405163b67cb04760e01b8152306004820152602481018390526000916001600160a01b03169063b67cb047906044016101c060405180830381865afa158015612fd8573d6000803e3d6000fd5b505050506040513d601f19601f82011682018060405250810190612ffc919061457c565b60095481516040516330b157e560e21b815260048101919091526001600160a01b038781166024830152868116604483015292935091169063c2c55f9490606401600060405180830381600087803b15801561305757600080fd5b505af115801561306b573d6000803e3d6000fd5b50505050610e40565b60006001600160a01b0384163b1561316b57604051630a85bd0160e11b81526001600160a01b0385169063150b7a02906130b8903390899088908890600401614e3a565b6020604051808303816000875af19250505080156130f3575060408051601f3d908101601f191682019092526130f091810190614e77565b60015b613151573d808015613121576040519150601f19603f3d011682016040523d82523d6000602084013e613126565b606091505b508051600003613149576040516336f57c1b60e11b815260040160405180910390fd5b805181602001fd5b6001600160e01b031916630a85bd0160e11b149050612481565b506001949350505050565b6060815160000361319557505060408051600081526020810190915290565b60408051602e8082526105e08201909252600091602082016105c0803683370190505090506000816000815181106131cf576131cf614320565b60ff90921660209283029190910190910152825160019060005b818110156132ea57600086828151811061320557613205614320565b016020015160f81c905060005b8460ff1681101561328f57600886828151811061323157613231614320565b602002602001015160ff16901b826132499190614992565b9150613256603a83614e94565b86828151811061326857613268614320565b60ff90921660209283029190910190910152613285603a83614ea8565b9150600101613212565b505b80156132e1576132a2603a82614e94565b858560ff16815181106132b7576132b7614320565b60ff909216602092830291909101909101526001909301926132da603a82614ea8565b9050613291565b506001016131e9565b506133056133006132fb8585613469565b613510565b6135b2565b95945050505050565b600061331a8382614f02565b5060016109f78282614f02565b60095460405163eaa19ab360e01b81526000916060916001600160a01b039091169063eaa19ab39061336190889088908790600401614fc1565b6000604051808303816000875af1158015613380573d6000803e3d6000fd5b505050506040513d6000823e601f3d908101601f191682016040526133a8919081019061488c565b81519093509091506000805b8281101561345e578381815181106133ce576133ce614320565b602002602001015191506133e2868361276e565b856001600160a01b03168782815181106133fe576133fe614320565b602002602001015161ffff16837f598baf7bf150ca2f42be9e9f8f55e81d45f5715c3ff22bf46d697fabec7f31d68b3360405161344e9291909182526001600160a01b0316602082015260400190565b60405180910390a46001016133b4565b505050509392505050565b606060008260ff166001600160401b0381111561348857613488613a8f565b6040519080825280602002602001820160405280156134b1578160200160208202803683370190505b50905060005b8360ff16811015613508578481815181106134d4576134d4614320565b60200260200101518282815181106134ee576134ee614320565b60ff909216602092830291909101909101526001016134b7565b509392505050565b80516060906000816001600160401b0381111561352f5761352f613a8f565b604051908082528060200260200182016040528015613558578160200160208202803683370190505b50905060005b828110156135085784816001875103038151811061357e5761357e614320565b602002602001015182828151811061359857613598614320565b60ff9092166020928302919091019091015260010161355e565b80516060906000816001600160401b038111156135d1576135d1613a8f565b6040519080825280601f01601f1916602001820160405280156135fb576020820181803683370190505b50905060005b82811015613508576040518060600160405280603a815260200161501f603a913985828151811061363457613634614320565b602002602001015160ff168151811061364f5761364f614320565b602001015160f81c60f81b82828151811061366c5761366c614320565b60200101906001600160f81b031916908160001a905350600101613601565b6001600160e01b0319811681146122d357600080fd5b6000602082840312156136b357600080fd5b813561146f8161368b565b60005b838110156136d95781810151838201526020016136c1565b50506000910152565b600081518084526136fa8160208601602086016136be565b601f01601f19169290920160200192915050565b60208152600061146f60208301846136e2565b60006020828403121561373357600080fd5b5035919050565b6001600160a01b03811681146122d357600080fd5b803561375a8161373a565b919050565b6000806040838503121561377257600080fd5b823561377d8161373a565b946020939093013593505050565b6000806000606084860312156137a057600080fd5b83356137ab8161373a565b925060208401356137bb8161373a565b929592945050506040919091013590565b6000602082840312156137de57600080fd5b813561146f8161373a565b60008083601f8401126137fb57600080fd5b5081356001600160401b0381111561381257600080fd5b6020830191508360208260051b8501011115610de657600080fd5b6000806000806040858703121561384357600080fd5b84356001600160401b038082111561385a57600080fd5b818701915087601f83011261386e57600080fd5b81358181111561387d57600080fd5b8860206101c08302850101111561389357600080fd5b6020928301965094509086013590808211156138ae57600080fd5b506138bb878288016137e9565b95989497509550505050565b600080604083850312156138da57600080fd5b50508035926020909101359150565b600080602083850312156138fc57600080fd5b82356001600160401b038082111561391357600080fd5b818501915085601f83011261392757600080fd5b81358181111561393657600080fd5b8660208260061b850101111561394b57600080fd5b60209290920196919550909350505050565b60006101e0828403121561397057600080fd5b50919050565b60006020828403121561398857600080fd5b81356001600160401b0381111561399e57600080fd5b6124818482850161395d565b600080602083850312156139bd57600080fd5b82356001600160401b038111156139d357600080fd5b6139df858286016137e9565b90969095509350505050565b600080600060408486031215613a0057600080fd5b83356001600160401b03811115613a1657600080fd5b613a22868287016137e9565b9094509250506020840135613a368161373a565b809150509250925092565b600081518084526020808501945080840160005b83811015613a7157815187529582019590820190600101613a55565b509495945050505050565b60208152600061146f6020830184613a41565b634e487b7160e01b600052604160045260246000fd5b604051608081016001600160401b0381118282101715613ac757613ac7613a8f565b60405290565b6040516101c081016001600160401b0381118282101715613ac757613ac7613a8f565b60405161012081016001600160401b0381118282101715613ac757613ac7613a8f565b604051601f8201601f191681016001600160401b0381118282101715613b3b57613b3b613a8f565b604052919050565b60006001600160401b03821115613b5c57613b5c613a8f565b5060051b60200190565b600082601f830112613b7757600080fd5b81356020613b8c613b8783613b43565b613b13565b82815260059290921b84018101918181019086841115613bab57600080fd5b8286015b84811015613bc65780358352918301918301613baf565b509695505050505050565b60008060408385031215613be457600080fd5b82356001600160401b0380821115613bfb57600080fd5b613c0786838701613b66565b93506020850135915080821115613c1d57600080fd5b50613c2a8582860161395d565b9150509250929050565b60008060208385031215613c4757600080fd5b82356001600160401b0380821115613c5e57600080fd5b818501915085601f830112613c7257600080fd5b813581811115613c8157600080fd5b86602082850101111561394b57600080fd5b80151581146122d357600080fd5b803561375a81613c93565b60008060408385031215613cbf57600080fd5b8235613cca8161373a565b91506020830135613cda81613c93565b809150509250929050565b83815260006020606081840152613cff60608401866136e2565b83810360408581019190915285518083528387019284019060005b81811015613d4857845180516001600160a01b03168452860151868401529385019391830191600101613d1a565b50909998505050505050505050565b60006001600160401b03821115613d7057613d70613a8f565b50601f01601f191660200190565b6000613d8c613b8784613d57565b9050828152838383011115613da057600080fd5b828260208301376000602084830101529392505050565b60008060008060808587031215613dcd57600080fd5b8435613dd88161373a565b93506020850135613de88161373a565b92506040850135915060608501356001600160401b03811115613e0a57600080fd5b8501601f81018713613e1b57600080fd5b613e2a87823560208401613d7e565b91505092959194509250565b600082601f830112613e4757600080fd5b61146f83833560208501613d7e565b803569ffffffffffffffffffff8116811461375a57600080fd5b803565ffffffffffff8116811461375a57600080fd5b803564ffffffffff8116811461375a57600080fd5b803561ffff8116811461375a57600080fd5b803560ff8116811461375a57600080fd5b60006080808385031215613ed157600080fd5b613ed9613aa5565b915082356001600160401b03811115613ef157600080fd5b8301601f81018513613f0257600080fd5b80356020613f12613b8783613b43565b8281526101c09283028401820192828201919089851115613f3257600080fd5b948301945b848610156140495780868b031215613f4f5760008081fd5b613f57613acd565b613f6087613e56565b8152613f6d858801613e70565b858201526040613f7e818901613e86565b908201526060613f8f888201613e9b565b90820152613f9e878901613e9b565b8882015260a0613faf81890161374f565b9082015260c0613fc0888201613ead565b9082015260e0613fd188820161374f565b908201526101008781013590820152610120613fee818901613ead565b90820152610140614000888201613ca1565b90820152610160614012888201613ca1565b90820152610180614024888201613ca1565b908201526101a0614036888201613ca1565b9082015283529485019491830191613f37565b5086525085810135908501525050506040808301359082015261406e6060830161374f565b606082015292915050565b60006080828403121561408b57600080fd5b614093613aa5565b905081356140a081613c93565b815260208201356140b081613c93565b602082015260408201356140c381613c93565b6040820152606082013561406e81613c93565b60008060008060008060008060008060006101c08c8e0312156140f857600080fd5b8b359a5061410860208d0161374f565b99506001600160401b038060408e0135111561412357600080fd5b6141338e60408f01358f01613e36565b99508060608e0135111561414657600080fd5b6141568e60608f01358f01613e36565b985061416460808e0161374f565b97508060a08e0135111561417757600080fd5b6141878e60a08f01358f01613e36565b965061419560c08e0161374f565b95508060e08e013511156141a857600080fd5b6141b88e60e08f01358f01613e36565b9450806101008e013511156141cc57600080fd5b506141de8d6101008e01358e01613ebe565b92506141ed6101208d0161374f565b91506141fd8d6101408e01614079565b90509295989b509295989b9093969950565b60006020828403121561422157600080fd5b81356001600160401b0381111561423757600080fd5b82016101a0818503121561146f57600080fd5b60006020828403121561425c57600080fd5b81356001600160401b0381111561427257600080fd5b8201610200818503121561146f57600080fd5b6000806040838503121561429857600080fd5b82356142a38161373a565b91506020830135613cda8161373a565b600181811c908216806142c757607f821691505b60208210810361397057634e487b7160e01b600052602260045260246000fd5b6020808252810182905260006001600160fb1b0383111561430757600080fd5b8260051b80856040850137919091016040019392505050565b634e487b7160e01b600052603260045260246000fd5b6143538261434383613e56565b69ffffffffffffffffffff169052565b61435f60208201613e70565b65ffffffffffff16602083015261437860408201613e86565b64ffffffffff16604083015261439060608201613e9b565b61ffff1660608301526143a560808201613e9b565b61ffff1660808301526143ba60a0820161374f565b6001600160a01b031660a08301526143d460c08201613ead565b60ff1660c08301526143e860e0820161374f565b6001600160a01b031660e0830152610100818101359083015261012061440f818301613ead565b60ff1690830152610140614424828201613ca1565b151590830152610160614438828201613ca1565b15159083015261018061444c828201613ca1565b1515908301526101a0614460828201613ca1565b80151584830152610e40565b6020808252810182905260008360408301825b858110156144a5576144918284614336565b6101c092830192919091019060010161447f565b5095945050505050565b600082601f8301126144c057600080fd5b815160206144d0613b8783613b43565b82815260059290921b840181019181810190868411156144ef57600080fd5b8286015b84811015613bc657805183529183019183016144f3565b60006020828403121561451c57600080fd5b81516001600160401b0381111561453257600080fd5b612481848285016144af565b6101e0810161454d8285614336565b6001600160a01b03929092166101c09190910152919050565b805161375a8161373a565b805161375a81613c93565b60006101c0828403121561458f57600080fd5b614597613acd565b825181526020830151602082015260408301516040820152606083015160608201526080830151608082015260a083015160a082015260c083015160c08201526145e360e08401614566565b60e08201526101008381015190820152610120614601818501614566565b9082015261014083810151908201526101608084015190820152610180614629818501614571565b908201526101a061463b848201614571565b908201529392505050565b60006020828403121561465857600080fd5b815161146f8161373a565b60006040828403121561467557600080fd5b604051604081018181106001600160401b038211171561469757614697613a8f565b604052823581526020928301359281019290925250919050565b6000602082840312156146c357600080fd5b815161146f81613c93565b6000808335601e198436030181126146e557600080fd5b8301803591506001600160401b038211156146ff57600080fd5b602001915036819003821315610de657600080fd5b6000808585111561472457600080fd5b8386111561473157600080fd5b5050820193919092039150565b6001600160e01b031981358181169160048510156147665780818660040360031b1b83161692505b505092915050565b60008060006060848603121561478357600080fd5b8335925060208401356147958161368b565b915060408401356001600160401b038111156147b057600080fd5b6147bc86828701613b66565b9150509250925092565b60008235603e198336030181126147dc57600080fd5b9190910192915050565b6000808335601e198436030181126147fd57600080fd5b8301803591506001600160401b0382111561481757600080fd5b6020019150600581901b3603821315610de657600080fd5b84815260606020808301829052908201849052600090859060808401835b878110156148745761ffff61486185613e9b565b168252928201929082019060010161484d565b50809350505050821515604083015295945050505050565b6000806040838503121561489f57600080fd5b82516001600160401b038111156148b557600080fd5b6148c1858286016144af565b925050602083015190509250929050565b6000602082840312156148e457600080fd5b61146f82613e9b565b6000602082840312156148ff57600080fd5b5051919050565b6001600160a01b038316815260406020820181905260009061248190830184613a41565b60208152816020820152818360408301376000818301604090810191909152601f909201601f19160101919050565b8183823760009101908152919050565b634e487b7160e01b600052601160045260246000fd5b818103818111156108b1576108b1614969565b808201808211156108b1576108b1614969565b600061012082840312156149b857600080fd5b6149c0613af0565b825181526020830151602082015260408301516040820152606083015160608201526080830151608082015260a083015160a082015260c083015160c0820152614a0c60e08401614566565b60e0820152610100928301519281019290925250919050565b600060208284031215614a3757600080fd5b81516001600160401b03811115614a4d57600080fd5b8201601f81018413614a5e57600080fd5b8051614a6c613b8782613d57565b818152856020838501011115614a8157600080fd5b6133058260208301602086016136be565b602080825282518282018190526000919060409081850190868401855b82811015614ba2578151805169ffffffffffffffffffff1685528681015165ffffffffffff16878601528581015164ffffffffff168686015260608082015161ffff908116918701919091526080808301519091169086015260a0808201516001600160a01b039081169187019190915260c08083015160ff9081169188019190915260e08084015190921691870191909152610100808301519087015261012080830151909116908601526101408082015115159086015261016080820151151590860152610180808201511515908601526101a0908101511515908501526101c09093019290850190600101614aaf565b5091979650505050505050565b634e487b7160e01b600052601260045260246000fd5b60008351614bd78184602088016136be565b835190830190614beb8183602088016136be565b01949350505050565b600181815b80851115614c2f578160001904821115614c1557614c15614969565b80851615614c2257918102915b93841c9390800290614bf9565b509250929050565b600082614c46575060016108b1565b81614c53575060006108b1565b8160018114614c695760028114614c7357614c8f565b60019150506108b1565b60ff841115614c8457614c84614969565b50506001821b6108b1565b5060208310610133831016604e8410600b8410161715614cb2575081810a6108b1565b614cbc8383614bf4565b8060001904821115614cd057614cd0614969565b029392505050565b600061146f8383614c37565b600080600080600060a08688031215614cfc57600080fd5b8535945060208087013594506040870135614d168161368b565b93506060870135614d2681613c93565b925060808701356001600160401b03811115614d4157600080fd5b8701601f81018913614d5257600080fd5b8035614d60613b8782613b43565b81815260059190911b8201830190838101908b831115614d7f57600080fd5b928401925b82841015614da457614d9584613e9b565b82529284019290840190614d84565b80955050505050509295509295909350565b600060808284031215614dc857600080fd5b604051608081018181106001600160401b0382111715614dea57614dea613a8f565b6040528251614df881613c93565b81526020830151614e0881613c93565b60208201526040830151614e1b81613c93565b60408201526060830151614e2e81613c93565b60608201529392505050565b6001600160a01b0385811682528416602082015260408101839052608060608201819052600090614e6d908301846136e2565b9695505050505050565b600060208284031215614e8957600080fd5b815161146f8161368b565b600082614ea357614ea3614baf565b500690565b600082614eb757614eb7614baf565b500490565b601f8211156109f757600081815260208120601f850160051c81016020861015614ee35750805b601f850160051c820191505b81811015610cb257828155600101614eef565b81516001600160401b03811115614f1b57614f1b613a8f565b614f2f81614f2984546142b3565b84614ebc565b602080601f831160018114614f645760008415614f4c5750858301515b600019600386901b1c1916600185901b178555610cb2565b600085815260208120601f198616915b82811015614f9357888601518255948401946001909101908401614f74565b5085821015614fb15787850151600019600388901b60f8161c191681555b5050505050600190811b01905550565b6000606082018583526020606081850152818651808452608086019150828801935060005b8181101561500657845161ffff1683529383019391830191600101614fe6565b5050809350505050821515604083015294935050505056fe31323334353637383941424344454647484a4b4c4d4e505152535455565758595a6162636465666768696a6b6d6e6f707172737475767778797aa2646970667358221220ee6539cb500e66dd3c5be1d5bb98cd37d8576170902e3f26a295d89aaff3ed4a64736f6c63430008110033",
    "linkReferences": {}
  },
  "methodIdentifiers": {
    "MAX_ROYALTY_RATE()": "79a75319",
    "adjustTiers((uint80,uint48,uint40,uint16,uint16,address,uint8,address,bytes32,uint8,bool,bool,bool,bool)[],uint256[])": "25eb91ee",
    "approve(address,uint256)": "095ea7b3",
    "balanceOf(address)": "70a08231",
    "codeOrigin()": "1d153ca4",
    "contractURI()": "e8a3d485",
    "creditsOf(address)": "245a45b5",
    "didPay((address,uint256,uint256,(address,uint256,uint256,uint256),(address,uint256,uint256,uint256),uint256,address,bool,string,bytes))": "da9ee8b7",
    "didRedeem((address,uint256,uint256,uint256,(address,uint256,uint256,uint256),(address,uint256,uint256,uint256),address,string,bytes))": "2b13c58f",
    "directory()": "c41c2f24",
    "firstOwnerOf(uint256)": "54c6d1f5",
    "fundingCycleStore()": "557e7155",
    "getApproved(uint256)": "081812fc",
    "initialize(uint256,address,string,string,address,string,address,string,((uint80,uint48,uint40,uint16,uint16,address,uint8,address,bytes32,uint8,bool,bool,bool,bool)[],uint256,uint256,address),address,(bool,bool,bool,bool))": "d1704baf",
    "isApprovedForAll(address,address)": "e985e9c5",
    "mintFor((uint16[],address)[])": "36c1a93b",
    "mintFor(uint16[],address)": "6ac6d941",
    "mintReservesFor((uint256,uint256)[])": "2a596e53",
    "mintReservesFor(uint256,uint256)": "aa4fb15b",
    "name()": "06fdde03",
    "owner()": "8da5cb5b",
    "ownerOf(uint256)": "6352211e",
    "payParams((address,address,(address,uint256,uint256,uint256),uint256,uint256,address,uint256,uint256,string,bytes))": "d46cf171",
    "prices()": "d3419bf3",
    "pricingCurrency()": "64640c1e",
    "pricingDecimals()": "4ecba625",
    "projectId()": "3fafa127",
    "redeemParams((address,address,uint256,uint256,uint256,uint256,uint256,(address,uint256,uint256,uint256),bool,uint256,string,bytes))": "a51cfd18",
    "redemptionWeightOf(uint256[],(address,address,uint256,uint256,uint256,uint256,uint256,(address,uint256,uint256,uint256),bool,uint256,string,bytes))": "7ba62bf9",
    "renounceOwnership()": "715018a6",
    "royaltyInfo(uint256,uint256)": "2a55205a",
    "safeTransferFrom(address,address,uint256)": "42842e0e",
    "safeTransferFrom(address,address,uint256,bytes)": "b88d4fde",
    "setApprovalForAll(address,bool)": "a22cb465",
    "setBaseUri(string)": "a0bcfc7f",
    "setContractUri(string)": "ccb4807b",
    "setDefaultReservedTokenBeneficiary(address)": "df487e26",
    "setEncodedIPFSUriOf(uint256,bytes32)": "525350ba",
    "setTokenUriResolver(address)": "2407497e",
    "store()": "975057e7",
    "supportsInterface(bytes4)": "01ffc9a7",
    "symbol()": "95d89b41",
    "tokenURI(uint256)": "c87b56dd",
    "totalRedemptionWeight((address,address,uint256,uint256,uint256,uint256,uint256,(address,uint256,uint256,uint256),bool,uint256,string,bytes))": "9494bf72",
    "transferFrom(address,address,uint256)": "23b872dd",
    "transferOwnership(address)": "f2fde38b"
  },
  "id": 34
}