{
  "abi": [
    {
      "inputs": [],
      "name": "CANT_MINT_MANUALLY",
      "type": "error"
    },
    {
      "inputs": [],
      "name": "INSUFFICIENT_AMOUNT",
      "type": "error"
    },
    {
      "inputs": [],
      "name": "INSUFFICIENT_RESERVES",
      "type": "error"
    },
    {
      "inputs": [],
      "name": "INVALID_CATEGORY_SORT_ORDER",
      "type": "error"
    },
    {
      "inputs": [],
      "name": "INVALID_LOCKED_UNTIL",
      "type": "error"
    },
    {
      "inputs": [],
      "name": "INVALID_QUANTITY",
      "type": "error"
    },
    {
      "inputs": [],
      "name": "INVALID_ROYALTY_RATE",
      "type": "error"
    },
    {
      "inputs": [],
      "name": "INVALID_TIER",
      "type": "error"
    },
    {
      "inputs": [],
      "name": "MANUAL_MINTING_NOT_ALLOWED",
      "type": "error"
    },
    {
      "inputs": [],
      "name": "MAX_TIERS_EXCEEDED",
      "type": "error"
    },
    {
      "inputs": [],
      "name": "NO_QUANTITY",
      "type": "error"
    },
    {
      "inputs": [],
      "name": "OUT",
      "type": "error"
    },
    {
      "inputs": [
        {
          "internalType": "uint256",
          "name": "prod1",
          "type": "uint256"
        },
        {
          "internalType": "uint256",
          "name": "denominator",
          "type": "uint256"
        }
      ],
      "name": "PRBMath__MulDivOverflow",
      "type": "error"
    },
    {
      "inputs": [],
      "name": "PRICING_RESOLVER_CHANGES_LOCKED",
      "type": "error"
    },
    {
      "inputs": [],
      "name": "RESERVED_RATE_NOT_ALLOWED",
      "type": "error"
    },
    {
      "inputs": [],
      "name": "TIER_LOCKED",
      "type": "error"
    },
    {
      "inputs": [],
      "name": "TIER_REMOVED",
      "type": "error"
    },
    {
      "inputs": [],
      "name": "VOTING_UNITS_NOT_ALLOWED",
      "type": "error"
    },
    {
      "anonymous": false,
      "inputs": [
        {
          "indexed": true,
          "internalType": "address",
          "name": "nft",
          "type": "address"
        },
        {
          "indexed": false,
          "internalType": "address",
          "name": "caller",
          "type": "address"
        }
      ],
      "name": "CleanTiers",
      "type": "event"
    },
    {
      "inputs": [],
      "name": "MAX_ROYALTY_RATE",
      "outputs": [
        {
          "internalType": "uint256",
          "name": "",
          "type": "uint256"
        }
      ],
      "stateMutability": "view",
      "type": "function"
    },
    {
      "inputs": [
        {
          "internalType": "address",
          "name": "_nft",
          "type": "address"
        },
        {
          "internalType": "address",
          "name": "_owner",
          "type": "address"
        }
      ],
      "name": "balanceOf",
      "outputs": [
        {
          "internalType": "uint256",
          "name": "balance",
          "type": "uint256"
        }
      ],
      "stateMutability": "view",
      "type": "function"
    },
    {
      "inputs": [
        {
          "internalType": "address",
          "name": "",
          "type": "address"
        }
      ],
      "name": "baseUriOf",
      "outputs": [
        {
          "internalType": "string",
          "name": "",
          "type": "string"
        }
      ],
      "stateMutability": "view",
      "type": "function"
    },
    {
      "inputs": [
        {
          "internalType": "address",
          "name": "_nft",
          "type": "address"
        }
      ],
      "name": "cleanTiers",
      "outputs": [],
      "stateMutability": "nonpayable",
      "type": "function"
    },
    {
      "inputs": [
        {
          "internalType": "address",
          "name": "",
          "type": "address"
        }
      ],
      "name": "contractUriOf",
      "outputs": [
        {
          "internalType": "string",
          "name": "",
          "type": "string"
        }
      ],
      "stateMutability": "view",
      "type": "function"
    },
    {
      "inputs": [
        {
          "internalType": "address",
          "name": "",
          "type": "address"
        }
      ],
      "name": "defaultReservedTokenBeneficiaryOf",
      "outputs": [
        {
          "internalType": "address",
          "name": "",
          "type": "address"
        }
      ],
      "stateMutability": "view",
      "type": "function"
    },
    {
      "inputs": [
        {
          "internalType": "address",
          "name": "",
          "type": "address"
        }
      ],
      "name": "defaultRoyaltyBeneficiaryOf",
      "outputs": [
        {
          "internalType": "address",
          "name": "",
          "type": "address"
        }
      ],
      "stateMutability": "view",
      "type": "function"
    },
    {
      "inputs": [
        {
          "internalType": "address",
          "name": "",
          "type": "address"
        },
        {
          "internalType": "uint256",
          "name": "",
          "type": "uint256"
        }
      ],
      "name": "encodedIPFSUriOf",
      "outputs": [
        {
          "internalType": "bytes32",
          "name": "",
          "type": "bytes32"
        }
      ],
      "stateMutability": "view",
      "type": "function"
    },
    {
      "inputs": [
        {
          "internalType": "address",
          "name": "_nft",
          "type": "address"
        },
        {
          "internalType": "uint256",
          "name": "_tokenId",
          "type": "uint256"
        }
      ],
      "name": "encodedTierIPFSUriOf",
      "outputs": [
        {
          "internalType": "bytes32",
          "name": "",
          "type": "bytes32"
        }
      ],
      "stateMutability": "view",
      "type": "function"
    },
    {
      "inputs": [
        {
          "internalType": "address",
          "name": "",
          "type": "address"
        },
        {
          "internalType": "uint256",
          "name": "",
          "type": "uint256"
        }
      ],
      "name": "firstOwnerOf",
      "outputs": [
        {
          "internalType": "address",
          "name": "",
          "type": "address"
        }
      ],
      "stateMutability": "view",
      "type": "function"
    },
    {
      "inputs": [
        {
          "internalType": "address",
          "name": "_nft",
          "type": "address"
        }
      ],
      "name": "flagsOf",
      "outputs": [
        {
          "components": [
            {
              "internalType": "bool",
              "name": "lockReservedTokenChanges",
              "type": "bool"
            },
            {
              "internalType": "bool",
              "name": "lockVotingUnitChanges",
              "type": "bool"
            },
            {
              "internalType": "bool",
              "name": "lockManualMintingChanges",
              "type": "bool"
            },
            {
              "internalType": "bool",
              "name": "preventOverspending",
              "type": "bool"
            }
          ],
          "internalType": "struct JBTiered721Flags",
          "name": "",
          "type": "tuple"
        }
      ],
      "stateMutability": "view",
      "type": "function"
    },
    {
      "inputs": [
        {
          "internalType": "address",
          "name": "_nft",
          "type": "address"
        },
        {
          "internalType": "uint256",
          "name": "_tierId",
          "type": "uint256"
        }
      ],
      "name": "isTierRemoved",
      "outputs": [
        {
          "internalType": "bool",
          "name": "",
          "type": "bool"
        }
      ],
      "stateMutability": "view",
      "type": "function"
    },
    {
      "inputs": [
        {
          "internalType": "address",
          "name": "",
          "type": "address"
        }
      ],
      "name": "maxTierIdOf",
      "outputs": [
        {
          "internalType": "uint256",
          "name": "",
          "type": "uint256"
        }
      ],
      "stateMutability": "view",
      "type": "function"
    },
    {
      "inputs": [
        {
          "internalType": "address",
          "name": "",
          "type": "address"
        },
        {
          "internalType": "uint256",
          "name": "",
          "type": "uint256"
        }
      ],
      "name": "numberOfBurnedFor",
      "outputs": [
        {
          "internalType": "uint256",
          "name": "",
          "type": "uint256"
        }
      ],
      "stateMutability": "view",
      "type": "function"
    },
    {
      "inputs": [
        {
          "internalType": "address",
          "name": "_nft",
          "type": "address"
        },
        {
          "internalType": "uint256",
          "name": "_tierId",
          "type": "uint256"
        }
      ],
      "name": "numberOfReservedTokensOutstandingFor",
      "outputs": [
        {
          "internalType": "uint256",
          "name": "",
          "type": "uint256"
        }
      ],
      "stateMutability": "view",
      "type": "function"
    },
    {
      "inputs": [
        {
          "internalType": "address",
          "name": "",
          "type": "address"
        },
        {
          "internalType": "uint256",
          "name": "",
          "type": "uint256"
        }
      ],
      "name": "numberOfReservesMintedFor",
      "outputs": [
        {
          "internalType": "uint256",
          "name": "",
          "type": "uint256"
        }
      ],
      "stateMutability": "view",
      "type": "function"
    },
    {
      "inputs": [
        {
          "components": [
            {
              "internalType": "uint80",
              "name": "contributionFloor",
              "type": "uint80"
            },
            {
              "internalType": "uint48",
              "name": "lockedUntil",
              "type": "uint48"
            },
            {
              "internalType": "uint40",
              "name": "initialQuantity",
              "type": "uint40"
            },
            {
              "internalType": "uint16",
              "name": "votingUnits",
              "type": "uint16"
            },
            {
              "internalType": "uint16",
              "name": "reservedRate",
              "type": "uint16"
            },
            {
              "internalType": "address",
              "name": "reservedTokenBeneficiary",
              "type": "address"
            },
            {
              "internalType": "uint8",
              "name": "royaltyRate",
              "type": "uint8"
            },
            {
              "internalType": "address",
              "name": "royaltyBeneficiary",
              "type": "address"
            },
            {
              "internalType": "bytes32",
              "name": "encodedIPFSUri",
              "type": "bytes32"
            },
            {
              "internalType": "uint8",
              "name": "category",
              "type": "uint8"
            },
            {
              "internalType": "bool",
              "name": "allowManualMint",
              "type": "bool"
            },
            {
              "internalType": "bool",
              "name": "shouldUseReservedTokenBeneficiaryAsDefault",
              "type": "bool"
            },
            {
              "internalType": "bool",
              "name": "shouldUseRoyaltyBeneficiaryAsDefault",
              "type": "bool"
            },
            {
              "internalType": "bool",
              "name": "transfersPausable",
              "type": "bool"
            }
          ],
          "internalType": "struct JB721TierParams[]",
          "name": "_tiersToAdd",
          "type": "tuple[]"
        }
      ],
      "name": "recordAddTiers",
      "outputs": [
        {
          "internalType": "uint256[]",
          "name": "tierIds",
          "type": "uint256[]"
        }
      ],
      "stateMutability": "nonpayable",
      "type": "function"
    },
    {
      "inputs": [
        {
          "internalType": "uint256[]",
          "name": "_tokenIds",
          "type": "uint256[]"
        }
      ],
      "name": "recordBurn",
      "outputs": [],
      "stateMutability": "nonpayable",
      "type": "function"
    },
    {
      "inputs": [
        {
          "components": [
            {
              "internalType": "bool",
              "name": "lockReservedTokenChanges",
              "type": "bool"
            },
            {
              "internalType": "bool",
              "name": "lockVotingUnitChanges",
              "type": "bool"
            },
            {
              "internalType": "bool",
              "name": "lockManualMintingChanges",
              "type": "bool"
            },
            {
              "internalType": "bool",
              "name": "preventOverspending",
              "type": "bool"
            }
          ],
          "internalType": "struct JBTiered721Flags",
          "name": "_flags",
          "type": "tuple"
        }
      ],
      "name": "recordFlags",
      "outputs": [],
      "stateMutability": "nonpayable",
      "type": "function"
    },
    {
      "inputs": [
        {
          "internalType": "uint256",
          "name": "_amount",
          "type": "uint256"
        },
        {
          "internalType": "uint16[]",
          "name": "_tierIds",
          "type": "uint16[]"
        },
        {
          "internalType": "bool",
          "name": "_isManualMint",
          "type": "bool"
        }
      ],
      "name": "recordMint",
      "outputs": [
        {
          "internalType": "uint256[]",
          "name": "tokenIds",
          "type": "uint256[]"
        },
        {
          "internalType": "uint256",
          "name": "leftoverAmount",
          "type": "uint256"
        }
      ],
      "stateMutability": "nonpayable",
      "type": "function"
    },
    {
      "inputs": [
        {
          "internalType": "uint256",
          "name": "_tierId",
          "type": "uint256"
        },
        {
          "internalType": "uint256",
          "name": "_count",
          "type": "uint256"
        }
      ],
      "name": "recordMintReservesFor",
      "outputs": [
        {
          "internalType": "uint256[]",
          "name": "tokenIds",
          "type": "uint256[]"
        }
      ],
      "stateMutability": "nonpayable",
      "type": "function"
    },
    {
      "inputs": [
        {
          "internalType": "uint256[]",
          "name": "_tierIds",
          "type": "uint256[]"
        }
      ],
      "name": "recordRemoveTierIds",
      "outputs": [],
      "stateMutability": "nonpayable",
      "type": "function"
    },
    {
      "inputs": [
        {
          "internalType": "string",
          "name": "_uri",
          "type": "string"
        }
      ],
      "name": "recordSetBaseUri",
      "outputs": [],
      "stateMutability": "nonpayable",
      "type": "function"
    },
    {
      "inputs": [
        {
          "internalType": "string",
          "name": "_uri",
          "type": "string"
        }
      ],
      "name": "recordSetContractUri",
      "outputs": [],
      "stateMutability": "nonpayable",
      "type": "function"
    },
    {
      "inputs": [
        {
          "internalType": "address",
          "name": "_beneficiary",
          "type": "address"
        }
      ],
      "name": "recordSetDefaultReservedTokenBeneficiary",
      "outputs": [],
      "stateMutability": "nonpayable",
      "type": "function"
    },
    {
      "inputs": [
        {
          "internalType": "uint256",
          "name": "_tierId",
          "type": "uint256"
        },
        {
          "internalType": "bytes32",
          "name": "_encodedIPFSUri",
          "type": "bytes32"
        }
      ],
      "name": "recordSetEncodedIPFSUriOf",
      "outputs": [],
      "stateMutability": "nonpayable",
      "type": "function"
    },
    {
      "inputs": [
        {
          "internalType": "uint256",
          "name": "_tokenId",
          "type": "uint256"
        },
        {
          "internalType": "address",
          "name": "_owner",
          "type": "address"
        }
      ],
      "name": "recordSetFirstOwnerOf",
      "outputs": [],
      "stateMutability": "nonpayable",
      "type": "function"
    },
    {
      "inputs": [
        {
          "internalType": "contract IJBTokenUriResolver",
          "name": "_resolver",
          "type": "address"
        }
      ],
      "name": "recordSetTokenUriResolver",
      "outputs": [],
      "stateMutability": "nonpayable",
      "type": "function"
    },
    {
      "inputs": [
        {
          "internalType": "uint256",
          "name": "_tierId",
          "type": "uint256"
        },
        {
          "internalType": "address",
          "name": "_from",
          "type": "address"
        },
        {
          "internalType": "address",
          "name": "_to",
          "type": "address"
        }
      ],
      "name": "recordTransferForTier",
      "outputs": [],
      "stateMutability": "nonpayable",
      "type": "function"
    },
    {
      "inputs": [
        {
          "internalType": "address",
          "name": "_nft",
          "type": "address"
        },
        {
          "internalType": "uint256[]",
          "name": "_tokenIds",
          "type": "uint256[]"
        }
      ],
      "name": "redemptionWeightOf",
      "outputs": [
        {
          "internalType": "uint256",
          "name": "weight",
          "type": "uint256"
        }
      ],
      "stateMutability": "view",
      "type": "function"
    },
    {
      "inputs": [
        {
          "internalType": "address",
          "name": "_nft",
          "type": "address"
        },
        {
          "internalType": "uint256",
          "name": "_tierId",
          "type": "uint256"
        }
      ],
      "name": "reservedTokenBeneficiaryOf",
      "outputs": [
        {
          "internalType": "address",
          "name": "",
          "type": "address"
        }
      ],
      "stateMutability": "view",
      "type": "function"
    },
    {
      "inputs": [
        {
          "internalType": "address",
          "name": "_nft",
          "type": "address"
        },
        {
          "internalType": "uint256",
          "name": "_tokenId",
          "type": "uint256"
        },
        {
          "internalType": "uint256",
          "name": "_salePrice",
          "type": "uint256"
        }
      ],
      "name": "royaltyInfo",
      "outputs": [
        {
          "internalType": "address",
          "name": "receiver",
          "type": "address"
        },
        {
          "internalType": "uint256",
          "name": "royaltyAmount",
          "type": "uint256"
        }
      ],
      "stateMutability": "view",
      "type": "function"
    },
    {
      "inputs": [
        {
          "internalType": "address",
          "name": "_nft",
          "type": "address"
        },
        {
          "internalType": "uint256",
          "name": "_id",
          "type": "uint256"
        }
      ],
      "name": "tier",
      "outputs": [
        {
          "components": [
            {
              "internalType": "uint256",
              "name": "id",
              "type": "uint256"
            },
            {
              "internalType": "uint256",
              "name": "contributionFloor",
              "type": "uint256"
            },
            {
              "internalType": "uint256",
              "name": "lockedUntil",
              "type": "uint256"
            },
            {
              "internalType": "uint256",
              "name": "remainingQuantity",
              "type": "uint256"
            },
            {
              "internalType": "uint256",
              "name": "initialQuantity",
              "type": "uint256"
            },
            {
              "internalType": "uint256",
              "name": "votingUnits",
              "type": "uint256"
            },
            {
              "internalType": "uint256",
              "name": "reservedRate",
              "type": "uint256"
            },
            {
              "internalType": "address",
              "name": "reservedTokenBeneficiary",
              "type": "address"
            },
            {
              "internalType": "uint256",
              "name": "royaltyRate",
              "type": "uint256"
            },
            {
              "internalType": "address",
              "name": "royaltyBeneficiary",
              "type": "address"
            },
            {
              "internalType": "bytes32",
              "name": "encodedIPFSUri",
              "type": "bytes32"
            },
            {
              "internalType": "uint256",
              "name": "category",
              "type": "uint256"
            },
            {
              "internalType": "bool",
              "name": "allowManualMint",
              "type": "bool"
            },
            {
              "internalType": "bool",
              "name": "transfersPausable",
              "type": "bool"
            }
          ],
          "internalType": "struct JB721Tier",
          "name": "",
          "type": "tuple"
        }
      ],
      "stateMutability": "view",
      "type": "function"
    },
    {
      "inputs": [
        {
          "internalType": "address",
          "name": "",
          "type": "address"
        },
        {
          "internalType": "address",
          "name": "",
          "type": "address"
        },
        {
          "internalType": "uint256",
          "name": "",
          "type": "uint256"
        }
      ],
      "name": "tierBalanceOf",
      "outputs": [
        {
          "internalType": "uint256",
          "name": "",
          "type": "uint256"
        }
      ],
      "stateMutability": "view",
      "type": "function"
    },
    {
      "inputs": [
        {
          "internalType": "uint256",
          "name": "_tokenId",
          "type": "uint256"
        }
      ],
      "name": "tierIdOfToken",
      "outputs": [
        {
          "internalType": "uint256",
          "name": "",
          "type": "uint256"
        }
      ],
      "stateMutability": "pure",
      "type": "function"
    },
    {
      "inputs": [
        {
          "internalType": "address",
          "name": "_nft",
          "type": "address"
        },
        {
          "internalType": "uint256",
          "name": "_tokenId",
          "type": "uint256"
        }
      ],
      "name": "tierOfTokenId",
      "outputs": [
        {
          "components": [
            {
              "internalType": "uint256",
              "name": "id",
              "type": "uint256"
            },
            {
              "internalType": "uint256",
              "name": "contributionFloor",
              "type": "uint256"
            },
            {
              "internalType": "uint256",
              "name": "lockedUntil",
              "type": "uint256"
            },
            {
              "internalType": "uint256",
              "name": "remainingQuantity",
              "type": "uint256"
            },
            {
              "internalType": "uint256",
              "name": "initialQuantity",
              "type": "uint256"
            },
            {
              "internalType": "uint256",
              "name": "votingUnits",
              "type": "uint256"
            },
            {
              "internalType": "uint256",
              "name": "reservedRate",
              "type": "uint256"
            },
            {
              "internalType": "address",
              "name": "reservedTokenBeneficiary",
              "type": "address"
            },
            {
              "internalType": "uint256",
              "name": "royaltyRate",
              "type": "uint256"
            },
            {
              "internalType": "address",
              "name": "royaltyBeneficiary",
              "type": "address"
            },
            {
              "internalType": "bytes32",
              "name": "encodedIPFSUri",
              "type": "bytes32"
            },
            {
              "internalType": "uint256",
              "name": "category",
              "type": "uint256"
            },
            {
              "internalType": "bool",
              "name": "allowManualMint",
              "type": "bool"
            },
            {
              "internalType": "bool",
              "name": "transfersPausable",
              "type": "bool"
            }
          ],
          "internalType": "struct JB721Tier",
          "name": "",
          "type": "tuple"
        }
      ],
      "stateMutability": "view",
      "type": "function"
    },
    {
      "inputs": [
        {
          "internalType": "address",
          "name": "_nft",
          "type": "address"
        },
        {
          "internalType": "address",
          "name": "_account",
          "type": "address"
        },
        {
          "internalType": "uint256",
          "name": "_tierId",
          "type": "uint256"
        }
      ],
      "name": "tierVotingUnitsOf",
      "outputs": [
        {
          "internalType": "uint256",
          "name": "",
          "type": "uint256"
        }
      ],
      "stateMutability": "view",
      "type": "function"
    },
    {
      "inputs": [
        {
          "internalType": "address",
          "name": "_nft",
          "type": "address"
        },
        {
          "internalType": "uint256",
          "name": "_category",
          "type": "uint256"
        },
        {
          "internalType": "uint256",
          "name": "_startingId",
          "type": "uint256"
        },
        {
          "internalType": "uint256",
          "name": "_size",
          "type": "uint256"
        }
      ],
      "name": "tiers",
      "outputs": [
        {
          "components": [
            {
              "internalType": "uint256",
              "name": "id",
              "type": "uint256"
            },
            {
              "internalType": "uint256",
              "name": "contributionFloor",
              "type": "uint256"
            },
            {
              "internalType": "uint256",
              "name": "lockedUntil",
              "type": "uint256"
            },
            {
              "internalType": "uint256",
              "name": "remainingQuantity",
              "type": "uint256"
            },
            {
              "internalType": "uint256",
              "name": "initialQuantity",
              "type": "uint256"
            },
            {
              "internalType": "uint256",
              "name": "votingUnits",
              "type": "uint256"
            },
            {
              "internalType": "uint256",
              "name": "reservedRate",
              "type": "uint256"
            },
            {
              "internalType": "address",
              "name": "reservedTokenBeneficiary",
              "type": "address"
            },
            {
              "internalType": "uint256",
              "name": "royaltyRate",
              "type": "uint256"
            },
            {
              "internalType": "address",
              "name": "royaltyBeneficiary",
              "type": "address"
            },
            {
              "internalType": "bytes32",
              "name": "encodedIPFSUri",
              "type": "bytes32"
            },
            {
              "internalType": "uint256",
              "name": "category",
              "type": "uint256"
            },
            {
              "internalType": "bool",
              "name": "allowManualMint",
              "type": "bool"
            },
            {
              "internalType": "bool",
              "name": "transfersPausable",
              "type": "bool"
            }
          ],
          "internalType": "struct JB721Tier[]",
          "name": "_tiers",
          "type": "tuple[]"
        }
      ],
      "stateMutability": "view",
      "type": "function"
    },
    {
      "inputs": [
        {
          "internalType": "address",
          "name": "",
          "type": "address"
        }
      ],
      "name": "tokenUriResolverOf",
      "outputs": [
        {
          "internalType": "contract IJBTokenUriResolver",
          "name": "",
          "type": "address"
        }
      ],
      "stateMutability": "view",
      "type": "function"
    },
    {
      "inputs": [
        {
          "internalType": "address",
          "name": "_nft",
          "type": "address"
        }
      ],
      "name": "totalRedemptionWeight",
      "outputs": [
        {
          "internalType": "uint256",
          "name": "weight",
          "type": "uint256"
        }
      ],
      "stateMutability": "view",
      "type": "function"
    },
    {
      "inputs": [
        {
          "internalType": "address",
          "name": "_nft",
          "type": "address"
        }
      ],
      "name": "totalSupply",
      "outputs": [
        {
          "internalType": "uint256",
          "name": "supply",
          "type": "uint256"
        }
      ],
      "stateMutability": "view",
      "type": "function"
    },
    {
      "inputs": [
        {
          "internalType": "address",
          "name": "_nft",
          "type": "address"
        },
        {
          "internalType": "address",
          "name": "_account",
          "type": "address"
        }
      ],
      "name": "votingUnitsOf",
      "outputs": [
        {
          "internalType": "uint256",
          "name": "units",
          "type": "uint256"
        }
      ],
      "stateMutability": "view",
      "type": "function"
    }
  ],
  "bytecode": {
    "object": "0x6080806040523461001657613238908161001c8239f35b600080fdfe610100604052600436101561001357600080fd5b60003560e01c8063086bb19a146125725780630fab094714612537578063136e651c146124fe578063144cc2d41461245357806315fa7dff1461241857806317161f7d146123d157806320512ba11461230c5780632ae5e4921461223b5780632b7e6ef0146121f35780632e4d0ea8146121da57806335314b921461218357806337f446521461213957806342f9914b14612116578063453b5abe146117cc57806349bd1ac614611796578063538bd5ea146117555780635f646611146117075780636262bcb2146116045780636825bb80146115bc5780637473c9a21461142e57806379a7531914611412578063845104de1461135d57806386bc2be3146112925780638cec7d391461123e5780638ed6c010146111f6578063911c80b5146111bb57806393355578146110f8578063aab0cd80146110be578063b67cb04714610f09578063baa7e80e14610db5578063bd51923c14610d6d578063c2c55f9414610cbf578063c8df171014610c71578063cb827e3214610bdc578063d65981a9146107bd578063d67b78fd1461067d578063d84a72c014610635578063e4dc2aa4146105a5578063eaa19ab314610308578063f1bea54f146102ce578063f682eeaf146102845763f7888aec146101eb57600080fd5b3461027f57604036600319011261027f576102046126ee565b61020c612704565b6001600160a01b0391821660008181526008602090815260408220549094919390929116825b61024157505050604051908152f35b9091926102729083600052600986526040600020836000528652604060002085600052865260406000205490612bc9565b9260001901919082610232565b600080fd5b3461027f57602036600319011261027f576001600160a01b036102a56126ee565b16600052600f6020526102ca6102be6040600020612975565b60405191829182612a1b565b0390f35b3461027f57602036600319011261027f576001600160a01b036102ef6126ee565b1660005260086020526020604060002054604051908152f35b3461027f57606036600319011261027f576024356001600160401b03811161027f5761033890369060040161272e565b9060443515156044350361027f5760043561035283612d3f565b913360005260056020526040600020841561058f5761037e9061ffff61037784612ed6565b1690613137565b906000915b8583106103ad576103a38585604051928392604084526040840190612793565b9060208301520390f35b9091926103c36103be858886612cee565b612ed6565b602083015160ff90818360081c1603610566575b6001809185519084161c161461055457336000526003602052604060002061ffff8216600052602052604060002091604435604435610548575b6105365782549164ffffffffff8360a01c161561052457816001600160501b038416116105125761046261045261044786612b3c565b61ffff841633612f26565b64ffffffffff8560781c16612ec9565b15610500576001936104e46001600160501b039261ffff6104f79664ffffffffff80600019818460781c1601166104b781889081549064ffffffffff60781b9060781b169064ffffffffff60781b1916179055565b33600052600b6020526040600020848616600052602052816040600020549360a01c160316019116613058565b6104ee898b612be5565b52541690612ec9565b93019190610383565b60405163985a45d960e01b8152600490fd5b604051632cd294cf60e01b8152600490fd5b604051630de5859f60e01b8152600490fd5b604051632f792d3960e11b8152600490fd5b50825460f81c15610411565b60405163d32cb5c160e01b8152600490fd5b925033600052600560205260018061058661ffff84166040600020613137565b949150506103d7565b634e487b7160e01b600052603260045260246000fd5b3461027f5760208060031936011261027f576105bf6126ee565b6001600160a01b031660008181526008835260408120549091815b6105e8575050604051908152f35b9091610629908260005260038552604060002084600052855260406000205461062264ffffffffff9182808260781c169160a01c16612bf9565b1690612bc9565b916000190190816105da565b3461027f57602036600319011261027f576004356001600160a01b0381169081900361027f5733600090815260106020526040902080546001600160a01b0319169091179055005b3461027f5761068b366127c7565b9033600052602091601183526040600020916001600160401b0382116107a7576106b583546128ac565b601f8111610761575b50600093601f83116001146106fd5750928192936000926106f2575b5050600019600383901b1c191660019190911b179055005b0135905083806106da565b90601f198316948460005282600020926000905b87821061074957505083600195961061072f575b505050811b019055005b0135600019600384901b60f8161c19169055838080610725565b80600184968294958701358155019501920190610711565b8360005284600020601f840160051c81019186851061079d575b601f0160051c01905b81811061079157506106be565b60008155600101610784565b909150819061077b565b634e487b7160e01b600052604160045260246000fd5b3461027f57608036600319011261027f576107d66126ee565b604435906107e381613107565b60c0526107f1606435612a71565b6107fe6040519182612954565b6064358152601f19610811606435612a71565b0160005b818110610bc5575060009390508015610b5757610857905b8060a052610839612af0565b506001600160a01b0384166000908152600560205260409020613137565b60a05180151580610b4c575b15610ae65760208201518160081c03610abe575b50805160a051906001809160ff84161c16036108a6575b5061089e60c05160a05185613078565b60a052610857565b60018060a01b03841660005260036020526040600020906000526020526108d06040600020612b3c565b6108dc60a05185612cfe565b906024351580159081610aac575b15610a8057506001600160501b0381511660805264ffffffffff6020820151166363b0cd00928184018411610a6a5760408301516060840151608085015164ffffffffff92831693919092169161ffff16906001600160a01b038116610a5b5761ffff60005b60ff60c089015116936109668d60a05190612ee5565b958d60018060a01b03166000526012602052604060002060a0516000526020526040600020549760ff60e08c015116996101206101008d015115159c015115159c6109b66040518060e05261291d565b60a05160e05152608051602060e051015201604060e0510152606060e0510152608060e051015260a060e05101521660c060e051015260018060a01b031660e08051015261010060e051015260018060a01b031661012060e051015261014060e051015261016060e051015261018060e05101526101a060e0510152610a53610a3e85612bd6565b9460e051610a4c8286612be5565b5283612be5565b505b8461088e565b61ffff8060a088015116610950565b634e487b7160e01b600052601160045260246000fd5b915081610a98575b5015610a5557600060a052610a55565b905060ff60e0602435920151161185610a88565b5060243560ff60e084015116146108ea565b6001600160a01b0384166000908152600560205260409020610ae09250613137565b84610877565b82856064358103610b44575b5060405180916020820160208352815180915260206040840192019060005b818110610b1f575050500390f35b9193509160206101c082610b366001948851612810565b019401910191849392610b11565b815281610af2565b506064358510610863565b5060243580610b9d575060018060a01b03821660005260006020526040600020600080526020526040600020545b8015610b95575b6108579061082d565b506001610b8c565b60018060a01b0383166000526007602052604060002090600052602052604060002054610b85565b602090610bd0612a88565b82828601015201610815565b3461027f57608036600319011261027f573360005260046020526040600020600435801515810361027f57815490151560ff1660ff199190911617815560243580151580910361027f5781546044359081151580920361027f576064359081151580920361027f5761ff0063ff00000062ff00009360181b169460081b169063ffffff001916179160101b1617179055600080f35b3461027f57604036600319011261027f576001600160a01b03610c926126ee565b1660005260126020526040600020633b9aca00602435046000526020526020604060002054604051908152f35b3461027f57606036600319011261027f57600435610cdb612704565b6001600160a01b03604435818116929083900361027f571680610d33575b5080610d0157005b336000526009602052604060002090600052602052604060002090600052602052604060002060018154019055600080f35b336000526009602052604060002090600052602052604060002082600052602052604060002080548015610a6a5760001901905582610cf9565b3461027f57604036600319011261027f576001600160a01b03610d8e6126ee565b16600052601260205260406000206024356000526020526020604060002054604051908152f35b3461027f57604036600319011261027f57600435602490813590336000526020916003835260406000208260005283526040600020610dfd610df682612b3c565b8433612f26565b8211610ef75733600052600a845260406000208360005284526040600020610e26838254612bc9565b9055610e3182612d3f565b9433600052600b855260406000208460005285526040600020549160005b848110610e6957604051878152806102ca818a018b612793565b815464ffffffffff90818160781c168015610ee257845464ffffffffff60781b1916600019909101607881901b64ffffffffff60781b1691909117855560019392610ed192610ecb92899291610ec59190839060a01c16612bf9565b16612bc9565b88613058565b610edb828b612be5565b5201610e4f565b85634e487b7160e01b60005260116004526000fd5b60405163226f999960e11b8152600490fd5b3461027f57604036600319011261027f57610f226126ee565b610f2a612a88565b5060018060a01b038116908160005260036020526040600020633b9aca0060243504600052602052610f5f6040600020612b3c565b610f71633b9aca006024350483612cfe565b916001600160501b038251169364ffffffffff9081602085015116926363b0cd00958487018711610a6a5760408601516060870151608088015191861695169061ffff166001600160a01b0383166110af576000915b60c089015160ff1694602435633b9aca009004610fe391612ee5565b9560005260126020526040600020602435633b9aca0090046000526020526040600020549660e08a015160ff16986101008b015115159a610120015115159b6040519d8e6110308161291d565b602435633b9aca0090048152602001520160408d015260608c015260808b015260a08a015261ffff1660c0890152600160a01b600190031660e0880152610100870152600160a01b60019003166101208601526101408501526101608401526101808301526101a082015260405190816110a991612810565b6101c090f35b61ffff60a08901511691610fc7565b3461027f57602036600319011261027f576001600160a01b036110df6126ee565b1660005260116020526102ca6102be6040600020612975565b3461027f57604036600319011261027f576111116126ee565b611119612704565b600060018060a01b03809316806000526020926008845260406000205494859116945b61114a575050604051908152f35b8160005260098452604060002085600052845260406000208160005284526040600020548061117f575b50600019018061113c565b926111ae6111b492948460005260038752604060002086600052875261ffff60406000205460c81c1690612c10565b90612bc9565b9185611174565b3461027f57602036600319011261027f5760206001600160a01b03806111df6126ee565b16600052600c825260406000205416604051908152f35b3461027f57604036600319011261027f5760206001600160a01b038061121a6126ee565b16600052600e82526040600020602435600052825260406000205416604051908152f35b3461027f57604036600319011261027f57611257612704565b33600052600e602052604060002060043560005260205260406000209060018060a01b03166001600160601b0360a01b825416179055600080f35b3461027f5760208060031936011261027f576004356001600160401b03811161027f576112c390369060040161272e565b919060005b8381106112d157005b633b9aca006112e1828685612cee565b350433600052600b8452604060002081600052845260406000206113058154612bd6565b90553360005260038452604060002090600052835260406000209064ffffffffff9182815460781c16928314610a6a57805464ffffffffff60781b1916600193840160781b64ffffffffff60781b16179055016112c8565b3461027f57602036600319011261027f576113766126ee565b60006060604051611386816128e6565b828152826020820152826040820152015260018060a01b0316600052600460205260806040600020604051906113bb826128e6565b5460ff81161515918281526020810160ff8360081c161515815260ff60606040840193828660101c1615158552019360181c1615158352604051938452511515602084015251151560408301525115156060820152f35b3461027f57600036600319011261027f57602060405160c88152f35b3461027f57604036600319011261027f576114476126ee565b61144f612a88565b5060018060a01b03811690816000526003602052604060002060243560005260205261147e6040600020612b3c565b61148a60243583612cfe565b916001600160501b038251169364ffffffffff9081602085015116926363b0cd00958487018711610a6a5760408601516060870151608088015191861695169061ffff166001600160a01b0383166115ad576000915b60c089015160ff16946024356114f591612ee5565b95600052601260205260406000206024356000526020526040600020549660e08a015160ff16986101008b015115159a610120015115159b6040519d8e61153b8161291d565b6024358152602001520160408d015260608c015260808b015260a08a015261ffff1660c0890152600160a01b600190031660e0880152610100870152600160a01b60019003166101208601526101408501526101608401526101808301526101a082015260405190816110a991612810565b61ffff60a089015116916114e0565b3461027f57604036600319011261027f576001600160a01b036115dd6126ee565b16600052600a60205260406000206024356000526020526020604060002054604051908152f35b3461027f57611612366127c7565b9033600052602091600f83526040600020916001600160401b0382116107a75761163c83546128ac565b601f81116116c1575b50600093601f83116001146116785750928192936000926106f2575050600019600383901b1c191660019190911b179055005b90601f198316948460005282600020926000905b8782106116a957505083600195961061072f57505050811b019055005b8060018496829495870135815501950192019061168c565b8360005284600020601f840160051c8101918685106116fd575b601f0160051c01905b8181106116f15750611645565b600081556001016116e4565b90915081906116db565b3461027f57604036600319011261027f5760206117226126ee565b6024359060018060a01b031660005260058252600180611746836040600020613137565b5160ff60405194161c16148152f35b3461027f57606036600319011261027f5760406117806117736126ee565b6044359060243590612c88565b82516001600160a01b0390921682526020820152f35b3461027f57604036600319011261027f573360005260126020526040600020600435600052602052602435604060002055600080f35b3461027f57602036600319011261027f576001600160401b03806004351161027f5736602360043501121561027f57600435600401351161027f573660246101c0600435600401350260043501011161027f5733600052600860205260406000205461ffff6118416004356004013583612bc9565b116121045761184f33613107565b61185e60043560040135612d3f565b90826120f65760005b906000611872612a88565b5033600052600460205260406000209060ff60405192611891846128e6565b5481811615158452818160081c1615156020850152818160101c161515604085015260181c161515606083015260005b600435600401358110611904576102ca866118e16004803501358a612bc9565b336000526008602052604060002055604051918291602083526020830190612793565b61192261191d8260043560040135602460043501612d71565b612d9f565b633b9ac9ff64ffffffffff604083015116116120e4578161207d575b602084015115158061206c575b61205a5783511580159061204c575b8061203b575b61202957604084015115158061201b575b6120095764ffffffffff60408201511615611ff75765ffffffffffff6020820151168015159081611fed575b50611fdb5760c860ff60c08301511611611fc9576119bb8289612bc9565b9060018201821180610a6a578151602083015165ffffffffffff16906001600160501b031681611fa457611b8f915060005b64ffffffffff60408601511661ffff60608701511661ffff60808801511660ff60c0890151169060ff6101208a015116926101408a015115159464ffffffffff6101a08c015115159760405199611a438b612901565b8a521660208901528060408901526060880152608087015260a086015260c085015260e084015261010083015261012082015233600052600360205260406000206001860160005260205260016101206040600020926001600160501b0381511684549064ffffffffff60501b602084015160501b16916effffffffffffffffffffffffffffff191617178455611b0364ffffffffff604083015116859081549064ffffffffff60781b9060781b169064ffffffffff60781b1916179055565b6060810151845461ffff60c81b608084015160c81b1661ffff60d81b60a085015160d81b1660ff60e81b60c086015160e81b169160e08601519360ff60f81b610100880151151560f81b169564ffffffffff60a01b9060a01b1690898060a01b0316171717179060ff60f01b9060f01b16171784550151151591019060ff801983541691151516179055565b33600052600780602052604060002060ff6101208501511660005260205260406000205415611f79575b5060a0820180516001600160a01b031680611eeb575b505060e0820180516001600160a01b031680611e5d575b505061010082015180611e39575b5087611c14575b5050906001809201611c0d8289612be5565b52016118c1565b908733600052600560205280611c2e8a6040600020613137565b915b611c3b575050611bfb565b919590929860208401518360081c03611e1a575b611c5a898433613078565b60ff6101208901511633600052600360205260406000208560005260205260ff60406000205460f01c161015600014611d91575050600284016001850111610a6a57600284018203611d6d575b88851580611d53575b611d3c575b610a6a5780841490811582611d19575b611cdf575b50509660018301946000805b93919293611c30565b600099509015611d0f576000905b3360005260006020526040600020906000526020526040600020558a80611cca565b6001840190611ced565b503360005260006020526040600020816000526020526040600020541515611cc5565b503360005260066020528888604060002055611cb5565b505033600052600660205288886040600020541415611cb0565b33600052600060205260406000206001850160005260205281604060002055611ca7565b809a9392979a158015611e11575b15611e06575050600181018111610a6a57808403611de1575b50600183019760003360005260066020528060406000205415611cd65760006040812055611cd6565b336000526000602052604060002090600052602052600183016040600020558a611db8565b965098909580611cd6565b508c8111611d9f565b9250336000526005602052611e33826040600020613137565b92611c4f565b3360005260126020526040600020600185016000526020526040600020558a611bf4565b61018084015115611eb55750336000908152600d602052604090205490516001600160a01b039081169116819003611e99575b505b8a80611be6565b604060002080546001600160a01b03191690911790558a611e90565b90503360005260026020526040600020600185016000526020526040600020906001600160601b0360a01b825416179055611e92565b61016084015115611f435750336000908152600c602052604090205490516001600160a01b039081169116819003611f27575b505b8a80611bcf565b604060002080546001600160a01b03191690911790558a611f1e565b90503360005260016020526040600020600185016000526020526040600020906001600160601b0360a01b825416179055611f20565b33600052602052604060002060ff61012084015116600052602052600183016040600020558a611bb9565b816363b0ccff19810111610a6a57611b8f916363b0ccff190164ffffffffff166119ed565b60405163fd912b8360e01b8152600490fd5b60405163d509b54d60e01b8152600490fd5b905042118961199d565b604051631e0a863160e31b8152600490fd5b6040516330ec637f60e01b8152600490fd5b506101408101511515611971565b60405163a75b1cd560e01b8152600490fd5b5061ffff6080820151161515611960565b50610140810151151561195a565b604051630189200360e11b8152600490fd5b5061ffff606082015116151561194b565b81600019810111610a6a576120a561191d600019840160043560040135602460043501612d71565b61012060ff81840151169081159283156120d4575b5050501561193e57604051631cabebd560e21b8152600490fd5b015160ff161190508980806120ba565b6040516349016ea360e01b8152600490fd5b6120ff336130d7565b611867565b604051631bc68c8b60e11b8152600490fd5b3461027f57602036600319011261027f576020604051633b9aca00600435048152f35b3461027f576121473661275e565b9160018060a01b038091166000526009602052604060002091166000526020526040600020906000526020526020604060002054604051908152f35b3461027f57604036600319011261027f5760206121d26121a16126ee565b60243560018060a01b0382166000526003845260406000208160005284526121cc6040600020612b3c565b91612f26565b604051908152f35b3461027f5760206121d26121ed3661275e565b91612c23565b3461027f57604036600319011261027f576001600160a01b036122146126ee565b16600052600b60205260406000206024356000526020526020604060002054604051908152f35b3461027f5760208060031936011261027f576122556126ee565b6001600160a01b0381166000818152600884526040812054929091612278612af0565b5060005b84811061228d578584604051908152f35b816000526003865260406000209360018201948560005287526122b36040600020612b3c565b6001600160501b0381511664ffffffffff91876122dd846060840151168560408501511690612bf9565b9511610a6a57612306946111ae936122f9612300938b8b612f26565b9116612bc9565b90612c10565b9261227c565b3461027f5760208060031936011261027f576004356001600160401b03811161027f5761233d90369060040161272e565b60005b81811061234957005b612354818385612cee565b35903360005260038552604060002082600052855264ffffffffff60406000205460501c166363b0cd008101809111610a6a574211156123bf5760ff91336000526005865260406000208160081c60005286526040600020906001938491161b815417905501612340565b604051636b73d51160e11b8152600490fd5b3461027f57602036600319011261027f576123ea6126ee565b336000908152600c6020526040902080546001600160a01b0319166001600160a01b03909216919091179055005b3461027f57602036600319011261027f5760206001600160a01b038061243c6126ee565b16600052600d825260406000205416604051908152f35b3461027f57604036600319011261027f5761246c6126ee565b6024356001600160401b03811161027f5761248b90369060040161272e565b60009283926001600160a01b03909116915b8085106124af57602084604051908152f35b9091926124f360019185600052602060038152604060002090633b9aca006124d88a888a612cee565b3504600052526001600160501b036040600020541690612bc9565b94019392919061249d565b3461027f57604036600319011261027f57602061252561251c6126ee565b60243590612cfe565b6040516001600160a01b039091168152f35b3461027f57602036600319011261027f5760206001600160a01b038061255b6126ee565b166000526010825260406000205416604051908152f35b3461027f5760208060031936011261027f5761258c6126ee565b9061259682613107565b906125a0836130d7565b60009360018060a01b0381169485600052600592838552806125c6816040600020613137565b915b6125f857877f4a0f854ce3c180d56f3e9eb47eb064c595bf3de0ab9af45425291e5b1bb733a887604051338152a2005b8690868301518160081c036126cf575b60018080855160ff85161c160361262c575b50906126269185613078565b806125c8565b909380925001808211610a6a57831461268b5787600052600086526040600020816000528652826040600020540361266b575b505b858261262661261a565b87600052600086526040600020906000528552816040600020558761265f565b876000526000865260406000208160005286526040600020546126af575b50612661565b8760005260008652604060002090600052855260006040812055876126a9565b91505086600052838552856126e8826040600020613137565b91612608565b600435906001600160a01b038216820361027f57565b602435906001600160a01b038216820361027f57565b35906001600160a01b038216820361027f57565b9181601f8401121561027f578235916001600160401b03831161027f576020808501948460051b01011161027f57565b606090600319011261027f576001600160a01b0390600435828116810361027f5791602435908116810361027f579060443590565b90815180825260208080930193019160005b8281106127b3575050505090565b8351855293810193928101926001016127a5565b90602060031983011261027f576004356001600160401b039283821161027f578060238301121561027f57816004013593841161027f576024848301011161027f576024019190565b805182526020810151602083015260408101516040830152606081015160608301526080810151608083015260a081015160a083015260c081015160c083015260018060a01b038060e08301511660e084015261010080830151908401526101209081830151169083015261014080820151908301526101608082015190830152610180808201511515908301526101a0809101511515910152565b90600182811c921680156128dc575b60208310146128c657565b634e487b7160e01b600052602260045260246000fd5b91607f16916128bb565b608081019081106001600160401b038211176107a757604052565b61014081019081106001600160401b038211176107a757604052565b6101c081019081106001600160401b038211176107a757604052565b604081019081106001600160401b038211176107a757604052565b90601f801991011681019081106001600160401b038211176107a757604052565b60405190816000825492612988846128ac565b9081845260019485811690816000146129f857506001146129b5575b50506129b292500382612954565b90565b9093915060005260209081600020936000915b8183106129e05750506129b2935082010138806129a4565b855487840185015294850194869450918301916129c8565b9150506129b294506020925060ff191682840152151560051b82010138806129a4565b6020808252825181830181905290939260005b828110612a5057505060409293506000838284010152601f8019910116010190565b818101860151848201604001528501612a2e565b3590811515820361027f57565b6001600160401b0381116107a75760051b60200190565b60405190612a958261291d565b816101a06000918281528260208201528260408201528260608201528260808201528260a08201528260c08201528260e082015282610100820152826101208201528261014082015282610160820152826101808201520152565b60405190612afd82612901565b816101206000918281528260208201528260408201528260608201528260808201528260a08201528260c08201528260e0820152826101008201520152565b90604051612b4981612901565b61012060ff6001839580546001600160501b038116865264ffffffffff808260501c166020880152808260781c1660408801528160a01c16606087015261ffff808260c81c1660808801528160d81c1660a0870152838160e81c1660c0870152838160f01c1660e087015260f81c15156101008601520154161515910152565b91908201809211610a6a57565b6000198114610a6a5760010190565b805182101561058f5760209160051b010190565b64ffffffffff9182169082160391908211610a6a57565b81810292918115918404141715610a6a57565b9160018060a01b038093169160009383855260096020526040852091168452602052604083208184526020526040832054918215612c82578361ffff926040926129b296526003602052828220908252602052205460c81c1690612c10565b50505090565b9290633b9aca00900491612c9c8385612ee5565b926001600160a01b0380851615612ce2576129b293949516600052600360205260406000209060005260205260ff60c0612cd96040600020612b3c565b01511690613176565b50600094508493505050565b919081101561058f5760051b0190565b6001600160a01b039081166000818152600160209081526040808320958352949052928320548216929083612c825760409293508152600c60205220541690565b90612d4982612a71565b612d566040519182612954565b8281528092612d67601f1991612a71565b0190602036910137565b919081101561058f576101c0020190565b359061ffff8216820361027f57565b359060ff8216820361027f57565b6101c090818136031261027f576040519182018281106001600160401b038211176107a75760405280356001600160501b038116810361027f578252602081013565ffffffffffff8116810361027f576020830152604081013564ffffffffff8116810361027f576040830152612e1860608201612d82565b6060830152612e2960808201612d82565b6080830152612e3a60a0820161271a565b60a0830152612e4b60c08201612d91565b60c0830152612e5c60e0820161271a565b60e08301526101008082013590830152610120612e7a818301612d91565b90830152610140612e8c818301612a64565b90830152610160612e9e818301612a64565b90830152610180612eb0818301612a64565b90830152612ec26101a0809201612a64565b9082015290565b91908203918211610a6a57565b3561ffff8116810361027f5790565b6001600160a01b039081166000818152600260209081526040808320958352949052928320548216929083612c825760409293508152600d60205220541690565b919060a082019061ffff908183511615801561303d575b8015613023575b6130195760009460018060a01b03168552600a60205260408520908552602052604084205492606081019064ffffffffff806040612f858883875116612ec9565b9301511680921461301057612fa1869282612fa7955116612bf9565b16612ec9565b90808351168015612ffc578204925116908115612fe85706612fda575b808211612fd5576129b29250612ec9565b505090565b612fe390612bd6565b612fc4565b634e487b7160e01b85526012600452602485fd5b634e487b7160e01b86526012600452602486fd5b50505050505090565b5050505050600090565b506001600160a01b036130368287612cfe565b1615612f44565b5064ffffffffff806060860151169060408601511614612f3d565b90633b9aca0091828102928184041490151715610a6a576129b291612bc9565b909182146130d0576001600160a01b0316600090815260208181526040808320848452909152812054806130ca5750600182018092116130b6575090565b634e487b7160e01b81526011600452602490fd5b91505090565b5050600090565b6001600160a01b031660009081526020818152604080832083805290915290205490811561310157565b60019150565b6001600160a01b031660009081526006602052604090205490811561312857565b60086020526040600020549150565b906000602060405161314881612939565b828152015260081c9081600052602052604060002054906040519161316c83612939565b8252602082015290565b90919060001983820992808202918280861095039480860395146131f85760c88510156131d8577f5c28f5c28f5c28f5c28f5c28f5c28f5c28f5c28f5c28f5c28f5c28f5c28f5c2993949160c8910990828211900360fd1b910360031c170290565b604051631dcf306360e21b81526004810186905260c86024820152604490fd5b505060c89004915056fea26469706673582212201357c3bd283660aa630322019042c17d669ff1ceb219635358d6a395861056ac64736f6c63430008110033",
    "linkReferences": {}
  },
  "methodIdentifiers": {
    "MAX_ROYALTY_RATE()": "79a75319",
    "balanceOf(address,address)": "f7888aec",
    "baseUriOf(address)": "f682eeaf",
    "cleanTiers(address)": "086bb19a",
    "contractUriOf(address)": "aab0cd80",
    "defaultReservedTokenBeneficiaryOf(address)": "911c80b5",
    "defaultRoyaltyBeneficiaryOf(address)": "15fa7dff",
    "encodedIPFSUriOf(address,uint256)": "bd51923c",
    "encodedTierIPFSUriOf(address,uint256)": "c8df1710",
    "firstOwnerOf(address,uint256)": "8ed6c010",
    "flagsOf(address)": "845104de",
    "isTierRemoved(address,uint256)": "5f646611",
    "maxTierIdOf(address)": "f1bea54f",
    "numberOfBurnedFor(address,uint256)": "2b7e6ef0",
    "numberOfReservedTokensOutstandingFor(address,uint256)": "35314b92",
    "numberOfReservesMintedFor(address,uint256)": "6825bb80",
    "recordAddTiers((uint80,uint48,uint40,uint16,uint16,address,uint8,address,bytes32,uint8,bool,bool,bool,bool)[])": "453b5abe",
    "recordBurn(uint256[])": "86bc2be3",
    "recordFlags((bool,bool,bool,bool))": "cb827e32",
    "recordMint(uint256,uint16[],bool)": "eaa19ab3",
    "recordMintReservesFor(uint256,uint256)": "baa7e80e",
    "recordRemoveTierIds(uint256[])": "20512ba1",
    "recordSetBaseUri(string)": "6262bcb2",
    "recordSetContractUri(string)": "d67b78fd",
    "recordSetDefaultReservedTokenBeneficiary(address)": "17161f7d",
    "recordSetEncodedIPFSUriOf(uint256,bytes32)": "49bd1ac6",
    "recordSetFirstOwnerOf(uint256,address)": "8cec7d39",
    "recordSetTokenUriResolver(address)": "d84a72c0",
    "recordTransferForTier(uint256,address,address)": "c2c55f94",
    "redemptionWeightOf(address,uint256[])": "144cc2d4",
    "reservedTokenBeneficiaryOf(address,uint256)": "136e651c",
    "royaltyInfo(address,uint256,uint256)": "538bd5ea",
    "tier(address,uint256)": "7473c9a2",
    "tierBalanceOf(address,address,uint256)": "37f44652",
    "tierIdOfToken(uint256)": "42f9914b",
    "tierOfTokenId(address,uint256)": "b67cb047",
    "tierVotingUnitsOf(address,address,uint256)": "2e4d0ea8",
    "tiers(address,uint256,uint256,uint256)": "d65981a9",
    "tokenUriResolverOf(address)": "0fab0947",
    "totalRedemptionWeight(address)": "2ae5e492",
    "totalSupply(address)": "e4dc2aa4",
    "votingUnitsOf(address,address)": "93355578"
  },
  "id": 37
}