{
  "abi": [
    {
      "inputs": [],
      "name": "CANT_MINT_MANUALLY",
      "type": "error"
    },
    {
      "inputs": [],
      "name": "INSUFFICIENT_AMOUNT",
      "type": "error"
    },
    {
      "inputs": [],
      "name": "INSUFFICIENT_RESERVES",
      "type": "error"
    },
    {
      "inputs": [],
      "name": "INVALID_CATEGORY",
      "type": "error"
    },
    {
      "inputs": [],
      "name": "INVALID_CATEGORY_SORT_ORDER",
      "type": "error"
    },
    {
      "inputs": [],
      "name": "INVALID_LOCKED_UNTIL",
      "type": "error"
    },
    {
      "inputs": [],
      "name": "INVALID_QUANTITY",
      "type": "error"
    },
    {
      "inputs": [],
      "name": "INVALID_ROYALTY_RATE",
      "type": "error"
    },
    {
      "inputs": [],
      "name": "INVALID_TIER",
      "type": "error"
    },
    {
      "inputs": [],
      "name": "MANUAL_MINTING_NOT_ALLOWED",
      "type": "error"
    },
    {
      "inputs": [],
      "name": "MAX_TIERS_EXCEEDED",
      "type": "error"
    },
    {
      "inputs": [],
      "name": "NO_QUANTITY",
      "type": "error"
    },
    {
      "inputs": [],
      "name": "OUT",
      "type": "error"
    },
    {
      "inputs": [
        {
          "internalType": "uint256",
          "name": "prod1",
          "type": "uint256"
        },
        {
          "internalType": "uint256",
          "name": "denominator",
          "type": "uint256"
        }
      ],
      "name": "PRBMath__MulDivOverflow",
      "type": "error"
    },
    {
      "inputs": [],
      "name": "PRICING_RESOLVER_CHANGES_LOCKED",
      "type": "error"
    },
    {
      "inputs": [],
      "name": "RESERVED_RATE_NOT_ALLOWED",
      "type": "error"
    },
    {
      "inputs": [],
      "name": "TIER_LOCKED",
      "type": "error"
    },
    {
      "inputs": [],
      "name": "TIER_REMOVED",
      "type": "error"
    },
    {
      "inputs": [],
      "name": "VOTING_UNITS_NOT_ALLOWED",
      "type": "error"
    },
    {
      "anonymous": false,
      "inputs": [
        {
          "indexed": true,
          "internalType": "address",
          "name": "nft",
          "type": "address"
        },
        {
          "indexed": false,
          "internalType": "address",
          "name": "caller",
          "type": "address"
        }
      ],
      "name": "CleanTiers",
      "type": "event"
    },
    {
      "inputs": [],
      "name": "MAX_ROYALTY_RATE",
      "outputs": [
        {
          "internalType": "uint256",
          "name": "",
          "type": "uint256"
        }
      ],
      "stateMutability": "view",
      "type": "function"
    },
    {
      "inputs": [
        {
          "internalType": "address",
          "name": "_nft",
          "type": "address"
        },
        {
          "internalType": "address",
          "name": "_owner",
          "type": "address"
        }
      ],
      "name": "balanceOf",
      "outputs": [
        {
          "internalType": "uint256",
          "name": "balance",
          "type": "uint256"
        }
      ],
      "stateMutability": "view",
      "type": "function"
    },
    {
      "inputs": [
        {
          "internalType": "address",
          "name": "",
          "type": "address"
        }
      ],
      "name": "baseUriOf",
      "outputs": [
        {
          "internalType": "string",
          "name": "",
          "type": "string"
        }
      ],
      "stateMutability": "view",
      "type": "function"
    },
    {
      "inputs": [
        {
          "internalType": "address",
          "name": "_nft",
          "type": "address"
        }
      ],
      "name": "cleanTiers",
      "outputs": [],
      "stateMutability": "nonpayable",
      "type": "function"
    },
    {
      "inputs": [
        {
          "internalType": "address",
          "name": "",
          "type": "address"
        }
      ],
      "name": "contractUriOf",
      "outputs": [
        {
          "internalType": "string",
          "name": "",
          "type": "string"
        }
      ],
      "stateMutability": "view",
      "type": "function"
    },
    {
      "inputs": [
        {
          "internalType": "address",
          "name": "",
          "type": "address"
        }
      ],
      "name": "defaultReservedTokenBeneficiaryOf",
      "outputs": [
        {
          "internalType": "address",
          "name": "",
          "type": "address"
        }
      ],
      "stateMutability": "view",
      "type": "function"
    },
    {
      "inputs": [
        {
          "internalType": "address",
          "name": "",
          "type": "address"
        }
      ],
      "name": "defaultRoyaltyBeneficiaryOf",
      "outputs": [
        {
          "internalType": "address",
          "name": "",
          "type": "address"
        }
      ],
      "stateMutability": "view",
      "type": "function"
    },
    {
      "inputs": [
        {
          "internalType": "address",
          "name": "",
          "type": "address"
        },
        {
          "internalType": "uint256",
          "name": "",
          "type": "uint256"
        }
      ],
      "name": "encodedIPFSUriOf",
      "outputs": [
        {
          "internalType": "bytes32",
          "name": "",
          "type": "bytes32"
        }
      ],
      "stateMutability": "view",
      "type": "function"
    },
    {
      "inputs": [
        {
          "internalType": "address",
          "name": "_nft",
          "type": "address"
        },
        {
          "internalType": "uint256",
          "name": "_tokenId",
          "type": "uint256"
        }
      ],
      "name": "encodedTierIPFSUriOf",
      "outputs": [
        {
          "internalType": "bytes32",
          "name": "",
          "type": "bytes32"
        }
      ],
      "stateMutability": "view",
      "type": "function"
    },
    {
      "inputs": [
        {
          "internalType": "address",
          "name": "",
          "type": "address"
        },
        {
          "internalType": "uint256",
          "name": "",
          "type": "uint256"
        }
      ],
      "name": "firstOwnerOf",
      "outputs": [
        {
          "internalType": "address",
          "name": "",
          "type": "address"
        }
      ],
      "stateMutability": "view",
      "type": "function"
    },
    {
      "inputs": [
        {
          "internalType": "address",
          "name": "_nft",
          "type": "address"
        }
      ],
      "name": "flagsOf",
      "outputs": [
        {
          "components": [
            {
              "internalType": "bool",
              "name": "lockReservedTokenChanges",
              "type": "bool"
            },
            {
              "internalType": "bool",
              "name": "lockVotingUnitChanges",
              "type": "bool"
            },
            {
              "internalType": "bool",
              "name": "lockManualMintingChanges",
              "type": "bool"
            },
            {
              "internalType": "bool",
              "name": "preventOverspending",
              "type": "bool"
            }
          ],
          "internalType": "struct JBTiered721Flags",
          "name": "",
          "type": "tuple"
        }
      ],
      "stateMutability": "view",
      "type": "function"
    },
    {
      "inputs": [
        {
          "internalType": "address",
          "name": "_nft",
          "type": "address"
        },
        {
          "internalType": "uint256",
          "name": "_tierId",
          "type": "uint256"
        }
      ],
      "name": "isTierRemoved",
      "outputs": [
        {
          "internalType": "bool",
          "name": "",
          "type": "bool"
        }
      ],
      "stateMutability": "view",
      "type": "function"
    },
    {
      "inputs": [
        {
          "internalType": "address",
          "name": "",
          "type": "address"
        }
      ],
      "name": "maxTierIdOf",
      "outputs": [
        {
          "internalType": "uint256",
          "name": "",
          "type": "uint256"
        }
      ],
      "stateMutability": "view",
      "type": "function"
    },
    {
      "inputs": [
        {
          "internalType": "address",
          "name": "",
          "type": "address"
        },
        {
          "internalType": "uint256",
          "name": "",
          "type": "uint256"
        }
      ],
      "name": "numberOfBurnedFor",
      "outputs": [
        {
          "internalType": "uint256",
          "name": "",
          "type": "uint256"
        }
      ],
      "stateMutability": "view",
      "type": "function"
    },
    {
      "inputs": [
        {
          "internalType": "address",
          "name": "_nft",
          "type": "address"
        },
        {
          "internalType": "uint256",
          "name": "_tierId",
          "type": "uint256"
        }
      ],
      "name": "numberOfReservedTokensOutstandingFor",
      "outputs": [
        {
          "internalType": "uint256",
          "name": "",
          "type": "uint256"
        }
      ],
      "stateMutability": "view",
      "type": "function"
    },
    {
      "inputs": [
        {
          "internalType": "address",
          "name": "",
          "type": "address"
        },
        {
          "internalType": "uint256",
          "name": "",
          "type": "uint256"
        }
      ],
      "name": "numberOfReservesMintedFor",
      "outputs": [
        {
          "internalType": "uint256",
          "name": "",
          "type": "uint256"
        }
      ],
      "stateMutability": "view",
      "type": "function"
    },
    {
      "inputs": [
        {
          "components": [
            {
              "internalType": "uint80",
              "name": "contributionFloor",
              "type": "uint80"
            },
            {
              "internalType": "uint48",
              "name": "lockedUntil",
              "type": "uint48"
            },
            {
              "internalType": "uint40",
              "name": "initialQuantity",
              "type": "uint40"
            },
            {
              "internalType": "uint16",
              "name": "votingUnits",
              "type": "uint16"
            },
            {
              "internalType": "uint16",
              "name": "reservedRate",
              "type": "uint16"
            },
            {
              "internalType": "address",
              "name": "reservedTokenBeneficiary",
              "type": "address"
            },
            {
              "internalType": "uint8",
              "name": "royaltyRate",
              "type": "uint8"
            },
            {
              "internalType": "address",
              "name": "royaltyBeneficiary",
              "type": "address"
            },
            {
              "internalType": "bytes32",
              "name": "encodedIPFSUri",
              "type": "bytes32"
            },
            {
              "internalType": "uint8",
              "name": "category",
              "type": "uint8"
            },
            {
              "internalType": "bool",
              "name": "allowManualMint",
              "type": "bool"
            },
            {
              "internalType": "bool",
              "name": "shouldUseReservedTokenBeneficiaryAsDefault",
              "type": "bool"
            },
            {
              "internalType": "bool",
              "name": "shouldUseRoyaltyBeneficiaryAsDefault",
              "type": "bool"
            },
            {
              "internalType": "bool",
              "name": "transfersPausable",
              "type": "bool"
            }
          ],
          "internalType": "struct JB721TierParams[]",
          "name": "_tiersToAdd",
          "type": "tuple[]"
        }
      ],
      "name": "recordAddTiers",
      "outputs": [
        {
          "internalType": "uint256[]",
          "name": "tierIds",
          "type": "uint256[]"
        }
      ],
      "stateMutability": "nonpayable",
      "type": "function"
    },
    {
      "inputs": [
        {
          "internalType": "uint256[]",
          "name": "_tokenIds",
          "type": "uint256[]"
        }
      ],
      "name": "recordBurn",
      "outputs": [],
      "stateMutability": "nonpayable",
      "type": "function"
    },
    {
      "inputs": [
        {
          "components": [
            {
              "internalType": "bool",
              "name": "lockReservedTokenChanges",
              "type": "bool"
            },
            {
              "internalType": "bool",
              "name": "lockVotingUnitChanges",
              "type": "bool"
            },
            {
              "internalType": "bool",
              "name": "lockManualMintingChanges",
              "type": "bool"
            },
            {
              "internalType": "bool",
              "name": "preventOverspending",
              "type": "bool"
            }
          ],
          "internalType": "struct JBTiered721Flags",
          "name": "_flags",
          "type": "tuple"
        }
      ],
      "name": "recordFlags",
      "outputs": [],
      "stateMutability": "nonpayable",
      "type": "function"
    },
    {
      "inputs": [
        {
          "internalType": "uint256",
          "name": "_amount",
          "type": "uint256"
        },
        {
          "internalType": "uint16[]",
          "name": "_tierIds",
          "type": "uint16[]"
        },
        {
          "internalType": "bool",
          "name": "_isManualMint",
          "type": "bool"
        }
      ],
      "name": "recordMint",
      "outputs": [
        {
          "internalType": "uint256[]",
          "name": "tokenIds",
          "type": "uint256[]"
        },
        {
          "internalType": "uint256",
          "name": "leftoverAmount",
          "type": "uint256"
        }
      ],
      "stateMutability": "nonpayable",
      "type": "function"
    },
    {
      "inputs": [
        {
          "internalType": "uint256",
          "name": "_tierId",
          "type": "uint256"
        },
        {
          "internalType": "uint256",
          "name": "_count",
          "type": "uint256"
        }
      ],
      "name": "recordMintReservesFor",
      "outputs": [
        {
          "internalType": "uint256[]",
          "name": "tokenIds",
          "type": "uint256[]"
        }
      ],
      "stateMutability": "nonpayable",
      "type": "function"
    },
    {
      "inputs": [
        {
          "internalType": "uint256[]",
          "name": "_tierIds",
          "type": "uint256[]"
        }
      ],
      "name": "recordRemoveTierIds",
      "outputs": [],
      "stateMutability": "nonpayable",
      "type": "function"
    },
    {
      "inputs": [
        {
          "internalType": "string",
          "name": "_uri",
          "type": "string"
        }
      ],
      "name": "recordSetBaseUri",
      "outputs": [],
      "stateMutability": "nonpayable",
      "type": "function"
    },
    {
      "inputs": [
        {
          "internalType": "string",
          "name": "_uri",
          "type": "string"
        }
      ],
      "name": "recordSetContractUri",
      "outputs": [],
      "stateMutability": "nonpayable",
      "type": "function"
    },
    {
      "inputs": [
        {
          "internalType": "address",
          "name": "_beneficiary",
          "type": "address"
        }
      ],
      "name": "recordSetDefaultReservedTokenBeneficiary",
      "outputs": [],
      "stateMutability": "nonpayable",
      "type": "function"
    },
    {
      "inputs": [
        {
          "internalType": "uint256",
          "name": "_tierId",
          "type": "uint256"
        },
        {
          "internalType": "bytes32",
          "name": "_encodedIPFSUri",
          "type": "bytes32"
        }
      ],
      "name": "recordSetEncodedIPFSUriOf",
      "outputs": [],
      "stateMutability": "nonpayable",
      "type": "function"
    },
    {
      "inputs": [
        {
          "internalType": "uint256",
          "name": "_tokenId",
          "type": "uint256"
        },
        {
          "internalType": "address",
          "name": "_owner",
          "type": "address"
        }
      ],
      "name": "recordSetFirstOwnerOf",
      "outputs": [],
      "stateMutability": "nonpayable",
      "type": "function"
    },
    {
      "inputs": [
        {
          "internalType": "contract IJBTokenUriResolver",
          "name": "_resolver",
          "type": "address"
        }
      ],
      "name": "recordSetTokenUriResolver",
      "outputs": [],
      "stateMutability": "nonpayable",
      "type": "function"
    },
    {
      "inputs": [
        {
          "internalType": "uint256",
          "name": "_tierId",
          "type": "uint256"
        },
        {
          "internalType": "address",
          "name": "_from",
          "type": "address"
        },
        {
          "internalType": "address",
          "name": "_to",
          "type": "address"
        }
      ],
      "name": "recordTransferForTier",
      "outputs": [],
      "stateMutability": "nonpayable",
      "type": "function"
    },
    {
      "inputs": [
        {
          "internalType": "address",
          "name": "_nft",
          "type": "address"
        },
        {
          "internalType": "uint256[]",
          "name": "_tokenIds",
          "type": "uint256[]"
        }
      ],
      "name": "redemptionWeightOf",
      "outputs": [
        {
          "internalType": "uint256",
          "name": "weight",
          "type": "uint256"
        }
      ],
      "stateMutability": "view",
      "type": "function"
    },
    {
      "inputs": [
        {
          "internalType": "address",
          "name": "_nft",
          "type": "address"
        },
        {
          "internalType": "uint256",
          "name": "_tierId",
          "type": "uint256"
        }
      ],
      "name": "reservedTokenBeneficiaryOf",
      "outputs": [
        {
          "internalType": "address",
          "name": "",
          "type": "address"
        }
      ],
      "stateMutability": "view",
      "type": "function"
    },
    {
      "inputs": [
        {
          "internalType": "address",
          "name": "_nft",
          "type": "address"
        },
        {
          "internalType": "uint256",
          "name": "_tokenId",
          "type": "uint256"
        },
        {
          "internalType": "uint256",
          "name": "_salePrice",
          "type": "uint256"
        }
      ],
      "name": "royaltyInfo",
      "outputs": [
        {
          "internalType": "address",
          "name": "receiver",
          "type": "address"
        },
        {
          "internalType": "uint256",
          "name": "royaltyAmount",
          "type": "uint256"
        }
      ],
      "stateMutability": "view",
      "type": "function"
    },
    {
      "inputs": [
        {
          "internalType": "address",
          "name": "_nft",
          "type": "address"
        },
        {
          "internalType": "uint256",
          "name": "_id",
          "type": "uint256"
        }
      ],
      "name": "tier",
      "outputs": [
        {
          "components": [
            {
              "internalType": "uint256",
              "name": "id",
              "type": "uint256"
            },
            {
              "internalType": "uint256",
              "name": "contributionFloor",
              "type": "uint256"
            },
            {
              "internalType": "uint256",
              "name": "lockedUntil",
              "type": "uint256"
            },
            {
              "internalType": "uint256",
              "name": "remainingQuantity",
              "type": "uint256"
            },
            {
              "internalType": "uint256",
              "name": "initialQuantity",
              "type": "uint256"
            },
            {
              "internalType": "uint256",
              "name": "votingUnits",
              "type": "uint256"
            },
            {
              "internalType": "uint256",
              "name": "reservedRate",
              "type": "uint256"
            },
            {
              "internalType": "address",
              "name": "reservedTokenBeneficiary",
              "type": "address"
            },
            {
              "internalType": "uint256",
              "name": "royaltyRate",
              "type": "uint256"
            },
            {
              "internalType": "address",
              "name": "royaltyBeneficiary",
              "type": "address"
            },
            {
              "internalType": "bytes32",
              "name": "encodedIPFSUri",
              "type": "bytes32"
            },
            {
              "internalType": "uint256",
              "name": "category",
              "type": "uint256"
            },
            {
              "internalType": "bool",
              "name": "allowManualMint",
              "type": "bool"
            },
            {
              "internalType": "bool",
              "name": "transfersPausable",
              "type": "bool"
            }
          ],
          "internalType": "struct JB721Tier",
          "name": "",
          "type": "tuple"
        }
      ],
      "stateMutability": "view",
      "type": "function"
    },
    {
      "inputs": [
        {
          "internalType": "address",
          "name": "",
          "type": "address"
        },
        {
          "internalType": "address",
          "name": "",
          "type": "address"
        },
        {
          "internalType": "uint256",
          "name": "",
          "type": "uint256"
        }
      ],
      "name": "tierBalanceOf",
      "outputs": [
        {
          "internalType": "uint256",
          "name": "",
          "type": "uint256"
        }
      ],
      "stateMutability": "view",
      "type": "function"
    },
    {
      "inputs": [
        {
          "internalType": "uint256",
          "name": "_tokenId",
          "type": "uint256"
        }
      ],
      "name": "tierIdOfToken",
      "outputs": [
        {
          "internalType": "uint256",
          "name": "",
          "type": "uint256"
        }
      ],
      "stateMutability": "pure",
      "type": "function"
    },
    {
      "inputs": [
        {
          "internalType": "address",
          "name": "_nft",
          "type": "address"
        },
        {
          "internalType": "uint256",
          "name": "_tokenId",
          "type": "uint256"
        }
      ],
      "name": "tierOfTokenId",
      "outputs": [
        {
          "components": [
            {
              "internalType": "uint256",
              "name": "id",
              "type": "uint256"
            },
            {
              "internalType": "uint256",
              "name": "contributionFloor",
              "type": "uint256"
            },
            {
              "internalType": "uint256",
              "name": "lockedUntil",
              "type": "uint256"
            },
            {
              "internalType": "uint256",
              "name": "remainingQuantity",
              "type": "uint256"
            },
            {
              "internalType": "uint256",
              "name": "initialQuantity",
              "type": "uint256"
            },
            {
              "internalType": "uint256",
              "name": "votingUnits",
              "type": "uint256"
            },
            {
              "internalType": "uint256",
              "name": "reservedRate",
              "type": "uint256"
            },
            {
              "internalType": "address",
              "name": "reservedTokenBeneficiary",
              "type": "address"
            },
            {
              "internalType": "uint256",
              "name": "royaltyRate",
              "type": "uint256"
            },
            {
              "internalType": "address",
              "name": "royaltyBeneficiary",
              "type": "address"
            },
            {
              "internalType": "bytes32",
              "name": "encodedIPFSUri",
              "type": "bytes32"
            },
            {
              "internalType": "uint256",
              "name": "category",
              "type": "uint256"
            },
            {
              "internalType": "bool",
              "name": "allowManualMint",
              "type": "bool"
            },
            {
              "internalType": "bool",
              "name": "transfersPausable",
              "type": "bool"
            }
          ],
          "internalType": "struct JB721Tier",
          "name": "",
          "type": "tuple"
        }
      ],
      "stateMutability": "view",
      "type": "function"
    },
    {
      "inputs": [
        {
          "internalType": "address",
          "name": "_nft",
          "type": "address"
        },
        {
          "internalType": "address",
          "name": "_account",
          "type": "address"
        },
        {
          "internalType": "uint256",
          "name": "_tierId",
          "type": "uint256"
        }
      ],
      "name": "tierVotingUnitsOf",
      "outputs": [
        {
          "internalType": "uint256",
          "name": "",
          "type": "uint256"
        }
      ],
      "stateMutability": "view",
      "type": "function"
    },
    {
      "inputs": [
        {
          "internalType": "address",
          "name": "_nft",
          "type": "address"
        },
        {
          "internalType": "uint256",
          "name": "_category",
          "type": "uint256"
        },
        {
          "internalType": "uint256",
          "name": "_startingId",
          "type": "uint256"
        },
        {
          "internalType": "uint256",
          "name": "_size",
          "type": "uint256"
        }
      ],
      "name": "tiers",
      "outputs": [
        {
          "components": [
            {
              "internalType": "uint256",
              "name": "id",
              "type": "uint256"
            },
            {
              "internalType": "uint256",
              "name": "contributionFloor",
              "type": "uint256"
            },
            {
              "internalType": "uint256",
              "name": "lockedUntil",
              "type": "uint256"
            },
            {
              "internalType": "uint256",
              "name": "remainingQuantity",
              "type": "uint256"
            },
            {
              "internalType": "uint256",
              "name": "initialQuantity",
              "type": "uint256"
            },
            {
              "internalType": "uint256",
              "name": "votingUnits",
              "type": "uint256"
            },
            {
              "internalType": "uint256",
              "name": "reservedRate",
              "type": "uint256"
            },
            {
              "internalType": "address",
              "name": "reservedTokenBeneficiary",
              "type": "address"
            },
            {
              "internalType": "uint256",
              "name": "royaltyRate",
              "type": "uint256"
            },
            {
              "internalType": "address",
              "name": "royaltyBeneficiary",
              "type": "address"
            },
            {
              "internalType": "bytes32",
              "name": "encodedIPFSUri",
              "type": "bytes32"
            },
            {
              "internalType": "uint256",
              "name": "category",
              "type": "uint256"
            },
            {
              "internalType": "bool",
              "name": "allowManualMint",
              "type": "bool"
            },
            {
              "internalType": "bool",
              "name": "transfersPausable",
              "type": "bool"
            }
          ],
          "internalType": "struct JB721Tier[]",
          "name": "_tiers",
          "type": "tuple[]"
        }
      ],
      "stateMutability": "view",
      "type": "function"
    },
    {
      "inputs": [
        {
          "internalType": "address",
          "name": "",
          "type": "address"
        }
      ],
      "name": "tokenUriResolverOf",
      "outputs": [
        {
          "internalType": "contract IJBTokenUriResolver",
          "name": "",
          "type": "address"
        }
      ],
      "stateMutability": "view",
      "type": "function"
    },
    {
      "inputs": [
        {
          "internalType": "address",
          "name": "_nft",
          "type": "address"
        }
      ],
      "name": "totalRedemptionWeight",
      "outputs": [
        {
          "internalType": "uint256",
          "name": "weight",
          "type": "uint256"
        }
      ],
      "stateMutability": "view",
      "type": "function"
    },
    {
      "inputs": [
        {
          "internalType": "address",
          "name": "_nft",
          "type": "address"
        }
      ],
      "name": "totalSupply",
      "outputs": [
        {
          "internalType": "uint256",
          "name": "supply",
          "type": "uint256"
        }
      ],
      "stateMutability": "view",
      "type": "function"
    },
    {
      "inputs": [
        {
          "internalType": "address",
          "name": "_nft",
          "type": "address"
        },
        {
          "internalType": "address",
          "name": "_account",
          "type": "address"
        }
      ],
      "name": "votingUnitsOf",
      "outputs": [
        {
          "internalType": "uint256",
          "name": "units",
          "type": "uint256"
        }
      ],
      "stateMutability": "view",
      "type": "function"
    }
  ],
  "bytecode": {
    "object": "0x60808060405234610016576132d3908161001c8239f35b600080fdfe60e0604052600436101561001257600080fd5b60003560e01c8063086bb19a146126b05780630fab094714612675578063136e651c1461263c578063144cc2d41461259157806315fa7dff1461255657806317161f7d1461250f57806320512ba11461244a5780632ae5e492146123795780632b7e6ef0146123315780632e4d0ea81461231857806335314b92146122c157806337f446521461227757806342f9914b14612254578063453b5abe1461191457806349bd1ac6146118de578063538bd5ea1461189d5780635f6466111461184f5780636262bcb21461174c5780636825bb80146117045780637473c9a21461156057806379a7531914611544578063845104de1461148f57806386bc2be3146113c45780638cec7d39146113705780638ed6c01014611328578063911c80b5146112ed578063933555781461122a578063aab0cd8014611182578063b67cb04714610fbe578063baa7e80e14610e6a578063bd51923c14610e22578063c2c55f9414610d5e578063c8df171014610d10578063cb827e3214610c7b578063d65981a91461084d578063d67b78fd1461070d578063d84a72c0146106c5578063e4dc2aa414610635578063eaa19ab314610398578063f1bea54f1461035e578063f682eeaf146102835763f7888aec146101ea57600080fd5b3461027e57604036600319011261027e5761020361282c565b61020b612842565b6001600160a01b0391821660008181526008602090815260408220549094919390929116825b61024057505050604051908152f35b9091926102719083600052600986526040600020836000528652604060002085600052865260406000205490612c61565b9260001901919082610231565b600080fd5b3461027e5760208060031936011261027e576001600160a01b036102a561282c565b16600052600f81526040600020906040519060009280546102c5816129ea565b8085529160019180831690811561033c57506001146102ff575b6102fb856102ef81890382612a92565b60405191829182612ab3565b0390f35b6000908152838120939550925b82841061032957505050816102fb936102ef9282010193856102df565b805485850187015292850192810161030c565b60ff191686860152505050151560051b82010191506102ef816102fb856102df565b3461027e57602036600319011261027e576001600160a01b0361037f61282c565b1660005260086020526020604060002054604051908152f35b3461027e57606036600319011261027e576024356001600160401b03811161027e576103c890369060040161286c565b9060443515156044350361027e576004356103e283612dda565b913360005260056020526040600020841561061f5761040e9061ffff61040784612f71565b16906131d2565b906000915b85831061043d5761043385856040519283926040845260408401906128d1565b9060208301520390f35b90919261045361044e858886612d89565b612f71565b602083015160ff90818360081c16036105f6575b6001809185519084161c16146105e457336000526003602052604060002061ffff82166000526020526040600020916044356044356105d8575b6105c65782549164ffffffffff8360a01c16156105b457816001600160501b038416116105a2576104f26104e26104d786612bd4565b61ffff841633612fc1565b64ffffffffff8560781c16612f64565b15610590576001936105746001600160501b039261ffff6105879664ffffffffff80600019818460781c16011661054781889081549064ffffffffff60781b9060781b169064ffffffffff60781b1916179055565b33600052600b6020526040600020848616600052602052816040600020549360a01c1603160191166130f3565b61057e898b612c7d565b52541690612f64565b93019190610413565b60405163985a45d960e01b8152600490fd5b604051632cd294cf60e01b8152600490fd5b604051630de5859f60e01b8152600490fd5b604051632f792d3960e11b8152600490fd5b50825460f81c156104a1565b60405163d32cb5c160e01b8152600490fd5b925033600052600560205260018061061661ffff841660406000206131d2565b94915050610467565b634e487b7160e01b600052603260045260246000fd5b3461027e5760208060031936011261027e5761064f61282c565b6001600160a01b031660008181526008835260408120549091815b610678575050604051908152f35b90916106b990826000526003855260406000208460005285526040600020546106b264ffffffffff9182808260781c169160a01c16612c91565b1690612c61565b9160001901908161066a565b3461027e57602036600319011261027e576004356001600160a01b0381169081900361027e5733600090815260106020526040902080546001600160a01b0319169091179055005b3461027e5761071b36612905565b9033600052602091601183526040600020916001600160401b0382116108375761074583546129ea565b601f81116107f1575b50600093601f831160011461078d575092819293600092610782575b5050600019600383901b1c191660019190911b179055005b01359050838061076a565b90601f198316948460005282600020926000905b8782106107d95750508360019596106107bf575b505050811b019055005b0135600019600384901b60f8161c191690558380806107b5565b806001849682949587013581550195019201906107a1565b8360005284600020601f840160051c81019186851061082d575b601f0160051c01905b818110610821575061074e565b60008155600101610814565b909150819061080b565b634e487b7160e01b600052604160045260246000fd5b3461027e57608036600319011261027e5761086661282c565b60443590610873816131a2565b9061087f606435612b09565b61088c6040519182612a92565b6064358152601f1961089f606435612b09565b0160005b818110610c64575060009490508015610bf6576108e5905b806080526108c7612b88565b506001600160a01b03841660009081526005602052604090206131d2565b60805180151580610beb575b15610b855760208201518160081c03610b5d575b508051608051906001809160ff84161c1603610932575b5061092a8460805185613113565b6080526108e5565b60018060a01b038416600052600360205260406000209060005260205261095c6040600020612bd4565b61096860805185612d99565b90602480351580159081610b4c575b15610b1e575081516001600160501b031660c052602082015164ffffffffff169081610af35750506000915b60408201516060830151608084015164ffffffffff92831693919092169161ffff16906001600160a01b038116610ae4576000905b61ffff60ff60c088015116926109f06080518d612f80565b9460018060a01b038d16600052601260205260406000206080516000526020526040600020549660ff60e08b015116986101206101008c015115159b015115159b610a406040518060a052612a5b565b60805160a0515260c051602060a0510152604060a0510152606060a0510152608060a051015260a0805101521660c060a051015260018060a01b031660e060a051015261010060a051015260018060a01b031661012060a051015261014060a051015261016060a051015261018060a05101526101a060a0510152610adc610ac786612c6e565b9560a051610ad58286612c7d565b5283612c7d565b505b8561091c565b61ffff60a086015116906109d8565b6363b0cd00908282018211610b0a575001916109a3565b634e487b7160e01b60009081526011600452fd5b925082610b37575b505015610ade576000608052610ade565b60ff91925060e0903592015116118680610b26565b50813560ff60e08501511614610977565b6001600160a01b0384166000908152600560205260409020610b7f92506131d2565b85610905565b82866064358103610be3575b5060405180916020820160208352815180915260206040840192019060005b818110610bbe575050500390f35b9193509160206101c082610bd5600194885161294e565b019401910191849392610bb0565b815281610b91565b5060643586106108f1565b5060243580610c3c575060018060a01b03821660005260006020526040600020600080526020526040600020545b8015610c34575b6108e5906108bb565b506001610c2b565b60018060a01b0383166000526007602052604060002090600052602052604060002054610c24565b602090610c6f612b20565b828286010152016108a3565b3461027e57608036600319011261027e573360005260046020526040600020600435801515810361027e57815490151560ff1660ff199190911617815560243580151580910361027e5781546044359081151580920361027e576064359081151580920361027e5761ff0063ff00000062ff00009360181b169460081b169063ffffff001916179160101b1617179055600080f35b3461027e57604036600319011261027e576001600160a01b03610d3161282c565b1660005260126020526040600020633b9aca00602435046000526020526020604060002054604051908152f35b3461027e57606036600319011261027e57600435610d7a612842565b6001600160a01b03604435818116929083900361027e571680610dd2575b5080610da057005b336000526009602052604060002090600052602052604060002090600052602052604060002060018154019055600080f35b336000526009602052604060002090600052602052604060002082600052602052604060002080548015610e0c5760001901905582610d98565b634e487b7160e01b600052601160045260246000fd5b3461027e57604036600319011261027e576001600160a01b03610e4361282c565b16600052601260205260406000206024356000526020526020604060002054604051908152f35b3461027e57604036600319011261027e57600435602490813590336000526020916003835260406000208260005283526040600020610eb2610eab82612bd4565b8433612fc1565b8211610fac5733600052600a845260406000208360005284526040600020610edb838254612c61565b9055610ee682612dda565b9433600052600b855260406000208460005285526040600020549160005b848110610f1e57604051878152806102fb818a018b6128d1565b815464ffffffffff90818160781c168015610f9757845464ffffffffff60781b1916600019909101607881901b64ffffffffff60781b1691909117855560019392610f8692610f8092899291610f7a9190839060a01c16612c91565b16612c61565b886130f3565b610f90828b612c7d565b5201610f04565b85634e487b7160e01b60005260116004526000fd5b60405163226f999960e11b8152600490fd5b3461027e57604036600319011261027e57610fd761282c565b610fdf612b20565b5060018060a01b038116908160005260036020526040600020633b9aca00602435046000526020526110146040600020612bd4565b90611027633b9aca006024350482612d99565b916001600160501b038151169264ffffffffff9081602084015116958615600014611169576101c096506000945b6040850151606086015160808701519186169516939061ffff9081166001600160a01b03831661115c576000905b61109e60ff60c08b01511695633b9aca006024350490612f80565b9560005260126020526040600020633b9aca00602435046000526020526040600020549660ff60e08b015116986101206101008c015115159b015115159b604080519e8f906110ec82612a5b565b633b9aca006024350482526020820152015260608d015260808c015260a08b01521660c08901526001600160a01b0390811660e0890152610100880191909152166101208601526101408501526101608401526101808301526101a08201526040519061115a90829061294e565bf35b8160a08901511690611083565b6363b0cd00968701809711610e0c576101c09694611055565b3461027e5760208060031936011261027e576001600160a01b036111a461282c565b16600052601181526040600020906040519060009280546111c4816129ea565b8085529160019180831690811561033c57506001146111ed576102fb856102ef81890382612a92565b6000908152838120939550925b82841061121757505050816102fb936102ef9282010193856102df565b80548585018701529285019281016111fa565b3461027e57604036600319011261027e5761124361282c565b61124b612842565b600060018060a01b03809316806000526020926008845260406000205494859116945b61127c575050604051908152f35b816000526009845260406000208560005284526040600020816000528452604060002054806112b1575b50600019018061126e565b926112e06112e692948460005260038752604060002086600052875261ffff60406000205460c81c1690612ca8565b90612c61565b91856112a6565b3461027e57602036600319011261027e5760206001600160a01b038061131161282c565b16600052600c825260406000205416604051908152f35b3461027e57604036600319011261027e5760206001600160a01b038061134c61282c565b16600052600e82526040600020602435600052825260406000205416604051908152f35b3461027e57604036600319011261027e57611389612842565b33600052600e602052604060002060043560005260205260406000209060018060a01b03166001600160601b0360a01b825416179055600080f35b3461027e5760208060031936011261027e576004356001600160401b03811161027e576113f590369060040161286c565b919060005b83811061140357005b633b9aca00611413828685612d89565b350433600052600b8452604060002081600052845260406000206114378154612c6e565b90553360005260038452604060002090600052835260406000209064ffffffffff9182815460781c16928314610e0c57805464ffffffffff60781b1916600193840160781b64ffffffffff60781b16179055016113fa565b3461027e57602036600319011261027e576114a861282c565b600060606040516114b881612a24565b828152826020820152826040820152015260018060a01b0316600052600460205260806040600020604051906114ed82612a24565b5460ff81161515918281526020810160ff8360081c161515815260ff60606040840193828660101c1615158552019360181c1615158352604051938452511515602084015251151560408301525115156060820152f35b3461027e57600036600319011261027e57602060405160c88152f35b3461027e57604036600319011261027e5761157961282c565b611581612b20565b5060018060a01b0381169081600052600360205260406000206024356000526020526115b06040600020612bd4565b906115bd60243582612d99565b916001600160501b038151169264ffffffffff90816020840151169586156000146116eb576101c096506000945b6040850151606086015160808701519186169516939061ffff9081166001600160a01b0383166116de576000905b61162e60ff60c08b0151169560243590612f80565b95600052601260205260406000206024356000526020526040600020549660ff60e08b015116986101206101008c015115159b015115159b604080519e8f9061167682612a5b565b60243582526020820152015260608d015260808c015260a08b01521660c08901526001600160a01b0390811660e0890152610100880191909152166101208601526101408501526101608401526101808301526101a08201526040519061115a90829061294e565b8160a08901511690611619565b6363b0cd00968701809711610e0c576101c096946115eb565b3461027e57604036600319011261027e576001600160a01b0361172561282c565b16600052600a60205260406000206024356000526020526020604060002054604051908152f35b3461027e5761175a36612905565b9033600052602091600f83526040600020916001600160401b0382116108375761178483546129ea565b601f8111611809575b50600093601f83116001146117c0575092819293600092610782575050600019600383901b1c191660019190911b179055005b90601f198316948460005282600020926000905b8782106117f15750508360019596106107bf57505050811b019055005b806001849682949587013581550195019201906117d4565b8360005284600020601f840160051c810191868510611845575b601f0160051c01905b818110611839575061178d565b6000815560010161182c565b9091508190611823565b3461027e57604036600319011261027e57602061186a61282c565b6024359060018060a01b03166000526005825260018061188e8360406000206131d2565b5160ff60405194161c16148152f35b3461027e57606036600319011261027e5760406118c86118bb61282c565b6044359060243590612d23565b82516001600160a01b0390921682526020820152f35b3461027e57604036600319011261027e573360005260126020526040600020600435600052602052602435604060002055600080f35b3461027e57602036600319011261027e576001600160401b03806004351161027e5736602360043501121561027e57600435600401351161027e573660246101c0600435600401350260043501011161027e5733600052600860205260406000205461ffff6119896004356004013583612c61565b1161224257611997336131a2565b6119a660043560040135612dda565b90826122345760005b9060006119ba612b20565b50336000526004602052604060002060ff604051916119d883612a24565b5481811615158352818160081c1615156020840152818160101c161515604084015260181c161515606082015260005b600435600401358110611a4b576102fb86611a286004803501358a612c61565b3360005260086020526040600020556040519182916020835260208301906128d1565b611a69611a648260043560040135602460043501612e0c565b612e3a565b633b9ac9ff64ffffffffff6040830151161161222257611a87612b20565b9060ff610120820151161561221057826121bb575b60208401511515806121aa575b6121985783511580159061218a575b80612179575b612167576040840151151580612159575b6121475764ffffffffff604082015116156121355765ffffffffffff602082015116801515908161212b575b506121195760c860ff60c0830151161161210757611b19838a612c61565b916001830183119081610e0c576001600160501b0383511665ffffffffffff60208501511680156000146120db575060ff91611cec6101209260005b8764ffffffffff60408201511661ffff60608301511661ffff6080840151168960c085015116918a8a860151169364ffffffffff6101a0610140880151151597015115159760405199611ba78b612a3f565b8a521660208901528060408901526060880152608087015260a086015260c085015260e0840152610100830152848201523360005260036020526040600020600189016000526020526001846040600020926001600160501b0381511684549064ffffffffff60501b602084015160501b16916effffffffffffffffffffffffffffff191617178455611c6364ffffffffff604083015116859081549064ffffffffff60781b9060781b169064ffffffffff60781b1916179055565b6060810151845461ffff60c81b608084015160c81b1661ffff60d81b60a085015160d81b168b60e81b60c086015160e81b169160e0860151938d60f81b610100880151151560f81b169564ffffffffff60a01b9060a01b1690898060a01b031617171717908a60f01b9060f01b16171784550151151591019060ff801983541691151516179055565b01511660ff61012084015116036120af575b60a0820180516001600160a01b031680612021575b505060e0820180516001600160a01b031680611f93575b505061010082015180611f6f575b5087611d58575b5050906001809201611d518289612c7d565b5201611a08565b908733600052600560205280611d728a60406000206131d2565b915b611d7f575050611d3f565b919690929860208401518360081c03611f50575b611d9e898433613113565b60ff6101208a01511633600052600360205260406000208560005260205260ff60406000205460f01c16101580611f46575b15611ebd575050600284016001850111610e0c57600284018203611e99575b336000526006602052888860406000205403611e8d575b610e0c5780841490811582611e6a575b611e30575b50509660018301956000805b93919293611d74565b600099509015611e60576000905b3360005260006020526040600020906000526020526040600020558a80611e1b565b6001840190611e3e565b503360005260006020526040600020816000526020526040600020541515611e16565b88604060002055611e06565b33600052600060205260406000206001850160005260205281604060002055611def565b809a9392989a158015611f3d575b15611f32575050600181018111610e0c57808403611f0d575b50600183019760003360005260066020528060406000205415611e275760006040812055611e27565b336000526000602052604060002090600052602052600183016040600020558a611ee4565b975098909680611e27565b508c8111611ecb565b508c841115611dd0565b9250336000526005602052611f698260406000206131d2565b92611d93565b3360005260126020526040600020600185016000526020526040600020558a611d38565b61018084015115611feb5750336000908152600d602052604090205490516001600160a01b039081169116819003611fcf575b505b8a80611d2a565b604060002080546001600160a01b03191690911790558a611fc6565b90503360005260026020526040600020600185016000526020526040600020906001600160601b0360a01b825416179055611fc8565b610160840151156120795750336000908152600c602052604090205490516001600160a01b03908116911681900361205d575b505b8a80611d13565b604060002080546001600160a01b03191690911790558a612054565b90503360005260016020526040600020600185016000526020526040600020906001600160601b0360a01b825416179055612056565b336000526007602052604060002060ff6101208401511660005260205260018301604060002055611cfe565b91826363b0ccff19810111610e0c57611cec6101209264ffffffffff60ff956363b0ccff190116611b55565b60405163fd912b8360e01b8152600490fd5b60405163d509b54d60e01b8152600490fd5b905042118a611afb565b604051631e0a863160e31b8152600490fd5b6040516330ec637f60e01b8152600490fd5b506101408101511515611acf565b60405163a75b1cd560e01b8152600490fd5b5061ffff6080820151161515611abe565b506101408101511515611ab8565b604051630189200360e11b8152600490fd5b5061ffff6060820151161515611aa9565b905081600019810111610e0c576121e5611a64600019840160043560040135602460043501612e0c565b9060ff6101208201511660ff610120840151161115611a9c57604051631cabebd560e21b8152600490fd5b6040516305650b5760e31b8152600490fd5b6040516349016ea360e01b8152600490fd5b61223d33613172565b6119af565b604051631bc68c8b60e11b8152600490fd5b3461027e57602036600319011261027e576020604051633b9aca00600435048152f35b3461027e576122853661289c565b9160018060a01b038091166000526009602052604060002091166000526020526040600020906000526020526020604060002054604051908152f35b3461027e57604036600319011261027e5760206123106122df61282c565b60243560018060a01b03821660005260038452604060002081600052845261230a6040600020612bd4565b91612fc1565b604051908152f35b3461027e57602061231061232b3661289c565b91612cbb565b3461027e57604036600319011261027e576001600160a01b0361235261282c565b16600052600b60205260406000206024356000526020526020604060002054604051908152f35b3461027e5760208060031936011261027e5761239361282c565b6001600160a01b03811660008181526008845260408120549290916123b6612b88565b5060005b8481106123cb578584604051908152f35b816000526003865260406000209360018201948560005287526123f16040600020612bd4565b6001600160501b0381511664ffffffffff918761241b846060840151168560408501511690612c91565b9511610e0c57612444946112e09361243761243e938b8b612fc1565b9116612c61565b90612ca8565b926123ba565b3461027e5760208060031936011261027e576004356001600160401b03811161027e5761247b90369060040161286c565b60005b81811061248757005b612492818385612d89565b35903360005260038552604060002082600052855264ffffffffff60406000205460501c166363b0cd008101809111610e0c574211156124fd5760ff91336000526005865260406000208160081c60005286526040600020906001938491161b81541790550161247e565b604051636b73d51160e11b8152600490fd5b3461027e57602036600319011261027e5761252861282c565b336000908152600c6020526040902080546001600160a01b0319166001600160a01b03909216919091179055005b3461027e57602036600319011261027e5760206001600160a01b038061257a61282c565b16600052600d825260406000205416604051908152f35b3461027e57604036600319011261027e576125aa61282c565b6024356001600160401b03811161027e576125c990369060040161286c565b60009283926001600160a01b03909116915b8085106125ed57602084604051908152f35b90919261263160019185600052602060038152604060002090633b9aca006126168a888a612d89565b3504600052526001600160501b036040600020541690612c61565b9401939291906125db565b3461027e57604036600319011261027e57602061266361265a61282c565b60243590612d99565b6040516001600160a01b039091168152f35b3461027e57602036600319011261027e5760206001600160a01b038061269961282c565b166000526010825260406000205416604051908152f35b3461027e5760208060031936011261027e576126ca61282c565b906126d4826131a2565b906126de83613172565b60009360018060a01b0381169485600052600592838552806127048160406000206131d2565b915b61273657877f4a0f854ce3c180d56f3e9eb47eb064c595bf3de0ab9af45425291e5b1bb733a887604051338152a2005b8690868301518160081c0361280d575b60018080855160ff85161c160361276a575b50906127649185613113565b80612706565b909380925001808211610e0c5783146127c9578760005260008652604060002081600052865282604060002054036127a9575b505b8582612764612758565b87600052600086526040600020906000528552816040600020558761279d565b876000526000865260406000208160005286526040600020546127ed575b5061279f565b8760005260008652604060002090600052855260006040812055876127e7565b91505086600052838552856128268260406000206131d2565b91612746565b600435906001600160a01b038216820361027e57565b602435906001600160a01b038216820361027e57565b35906001600160a01b038216820361027e57565b9181601f8401121561027e578235916001600160401b03831161027e576020808501948460051b01011161027e57565b606090600319011261027e576001600160a01b0390600435828116810361027e5791602435908116810361027e579060443590565b90815180825260208080930193019160005b8281106128f1575050505090565b8351855293810193928101926001016128e3565b90602060031983011261027e576004356001600160401b039283821161027e578060238301121561027e57816004013593841161027e576024848301011161027e576024019190565b805182526020810151602083015260408101516040830152606081015160608301526080810151608083015260a081015160a083015260c081015160c083015260018060a01b038060e08301511660e084015261010080830151908401526101209081830151169083015261014080820151908301526101608082015190830152610180808201511515908301526101a0809101511515910152565b90600182811c92168015612a1a575b6020831014612a0457565b634e487b7160e01b600052602260045260246000fd5b91607f16916129f9565b608081019081106001600160401b0382111761083757604052565b61014081019081106001600160401b0382111761083757604052565b6101c081019081106001600160401b0382111761083757604052565b604081019081106001600160401b0382111761083757604052565b90601f801991011681019081106001600160401b0382111761083757604052565b6020808252825181830181905290939260005b828110612ae857505060409293506000838284010152601f8019910116010190565b818101860151848201604001528501612ac6565b3590811515820361027e57565b6001600160401b0381116108375760051b60200190565b60405190612b2d82612a5b565b816101a06000918281528260208201528260408201528260608201528260808201528260a08201528260c08201528260e082015282610100820152826101208201528261014082015282610160820152826101808201520152565b60405190612b9582612a3f565b816101206000918281528260208201528260408201528260608201528260808201528260a08201528260c08201528260e0820152826101008201520152565b90604051612be181612a3f565b61012060ff6001839580546001600160501b038116865264ffffffffff808260501c166020880152808260781c1660408801528160a01c16606087015261ffff808260c81c1660808801528160d81c1660a0870152838160e81c1660c0870152838160f01c1660e087015260f81c15156101008601520154161515910152565b91908201809211610e0c57565b6000198114610e0c5760010190565b805182101561061f5760209160051b010190565b64ffffffffff9182169082160391908211610e0c57565b81810292918115918404141715610e0c57565b9160018060a01b038093169160009383855260096020526040852091168452602052604083208184526020526040832054918215612d1d578361ffff92604092612d1a96526003602052828220908252602052205460c81c1690612ca8565b90565b50505090565b9290633b9aca00900491612d378385612f80565b926001600160a01b0380851615612d7d57612d1a93949516600052600360205260406000209060005260205260ff60c0612d746040600020612bd4565b01511690613211565b50600094508493505050565b919081101561061f5760051b0190565b6001600160a01b039081166000818152600160209081526040808320958352949052928320548216929083612d1d5760409293508152600c60205220541690565b90612de482612b09565b612df16040519182612a92565b8281528092612e02601f1991612b09565b0190602036910137565b919081101561061f576101c0020190565b359061ffff8216820361027e57565b359060ff8216820361027e57565b6101c090818136031261027e576040519182018281106001600160401b038211176108375760405280356001600160501b038116810361027e578252602081013565ffffffffffff8116810361027e576020830152604081013564ffffffffff8116810361027e576040830152612eb360608201612e1d565b6060830152612ec460808201612e1d565b6080830152612ed560a08201612858565b60a0830152612ee660c08201612e2c565b60c0830152612ef760e08201612858565b60e08301526101008082013590830152610120612f15818301612e2c565b90830152610140612f27818301612afc565b90830152610160612f39818301612afc565b90830152610180612f4b818301612afc565b90830152612f5d6101a0809201612afc565b9082015290565b91908203918211610e0c57565b3561ffff8116810361027e5790565b6001600160a01b039081166000818152600260209081526040808320958352949052928320548216929083612d1d5760409293508152600d60205220541690565b919060a082019061ffff90818351161580156130d8575b80156130be575b6130b45760009460018060a01b03168552600a60205260408520908552602052604084205492606081019064ffffffffff8060406130208883875116612f64565b930151168092146130ab5761303c869282613042955116612c91565b16612f64565b908083511680156130975782049251169081156130835706613075575b80821161307057612d1a9250612f64565b505090565b61307e90612c6e565b61305f565b634e487b7160e01b85526012600452602485fd5b634e487b7160e01b86526012600452602486fd5b50505050505090565b5050505050600090565b506001600160a01b036130d18287612d99565b1615612fdf565b5064ffffffffff806060860151169060408601511614612fd8565b90633b9aca0091828102928184041490151715610e0c57612d1a91612c61565b9091821461316b576001600160a01b031660009081526020818152604080832084845290915281205480613165575060018201809211613151575090565b634e487b7160e01b81526011600452602490fd5b91505090565b5050600090565b6001600160a01b031660009081526020818152604080832083805290915290205490811561319c57565b60019150565b6001600160a01b03166000908152600660205260409020549081156131c357565b60086020526040600020549150565b90600060206040516131e381612a77565b828152015260081c9081600052602052604060002054906040519161320783612a77565b8252602082015290565b90919060001983820992808202918280861095039480860395146132935760c8851015613273577f5c28f5c28f5c28f5c28f5c28f5c28f5c28f5c28f5c28f5c28f5c28f5c28f5c2993949160c8910990828211900360fd1b910360031c170290565b604051631dcf306360e21b81526004810186905260c86024820152604490fd5b505060c89004915056fea2646970667358221220cf171e4f229a370e09359f6d96e8c7bb65dc2ab0234ece5d2e6dbfe728b3a7fe64736f6c63430008110033",
    "linkReferences": {}
  },
  "methodIdentifiers": {
    "MAX_ROYALTY_RATE()": "79a75319",
    "balanceOf(address,address)": "f7888aec",
    "baseUriOf(address)": "f682eeaf",
    "cleanTiers(address)": "086bb19a",
    "contractUriOf(address)": "aab0cd80",
    "defaultReservedTokenBeneficiaryOf(address)": "911c80b5",
    "defaultRoyaltyBeneficiaryOf(address)": "15fa7dff",
    "encodedIPFSUriOf(address,uint256)": "bd51923c",
    "encodedTierIPFSUriOf(address,uint256)": "c8df1710",
    "firstOwnerOf(address,uint256)": "8ed6c010",
    "flagsOf(address)": "845104de",
    "isTierRemoved(address,uint256)": "5f646611",
    "maxTierIdOf(address)": "f1bea54f",
    "numberOfBurnedFor(address,uint256)": "2b7e6ef0",
    "numberOfReservedTokensOutstandingFor(address,uint256)": "35314b92",
    "numberOfReservesMintedFor(address,uint256)": "6825bb80",
    "recordAddTiers((uint80,uint48,uint40,uint16,uint16,address,uint8,address,bytes32,uint8,bool,bool,bool,bool)[])": "453b5abe",
    "recordBurn(uint256[])": "86bc2be3",
    "recordFlags((bool,bool,bool,bool))": "cb827e32",
    "recordMint(uint256,uint16[],bool)": "eaa19ab3",
    "recordMintReservesFor(uint256,uint256)": "baa7e80e",
    "recordRemoveTierIds(uint256[])": "20512ba1",
    "recordSetBaseUri(string)": "6262bcb2",
    "recordSetContractUri(string)": "d67b78fd",
    "recordSetDefaultReservedTokenBeneficiary(address)": "17161f7d",
    "recordSetEncodedIPFSUriOf(uint256,bytes32)": "49bd1ac6",
    "recordSetFirstOwnerOf(uint256,address)": "8cec7d39",
    "recordSetTokenUriResolver(address)": "d84a72c0",
    "recordTransferForTier(uint256,address,address)": "c2c55f94",
    "redemptionWeightOf(address,uint256[])": "144cc2d4",
    "reservedTokenBeneficiaryOf(address,uint256)": "136e651c",
    "royaltyInfo(address,uint256,uint256)": "538bd5ea",
    "tier(address,uint256)": "7473c9a2",
    "tierBalanceOf(address,address,uint256)": "37f44652",
    "tierIdOfToken(uint256)": "42f9914b",
    "tierOfTokenId(address,uint256)": "b67cb047",
    "tierVotingUnitsOf(address,address,uint256)": "2e4d0ea8",
    "tiers(address,uint256,uint256,uint256)": "d65981a9",
    "tokenUriResolverOf(address)": "0fab0947",
    "totalRedemptionWeight(address)": "2ae5e492",
    "totalSupply(address)": "e4dc2aa4",
    "votingUnitsOf(address,address)": "93355578"
  },
  "id": 34
}