{
  "abi": [
    {
      "inputs": [],
      "name": "CANT_MINT_MANUALLY",
      "type": "error"
    },
    {
      "inputs": [],
      "name": "INSUFFICIENT_AMOUNT",
      "type": "error"
    },
    {
      "inputs": [],
      "name": "INSUFFICIENT_RESERVES",
      "type": "error"
    },
    {
      "inputs": [],
      "name": "INVALID_CATEGORY_SORT_ORDER",
      "type": "error"
    },
    {
      "inputs": [],
      "name": "INVALID_LOCKED_UNTIL",
      "type": "error"
    },
    {
      "inputs": [],
      "name": "INVALID_QUANTITY",
      "type": "error"
    },
    {
      "inputs": [],
      "name": "INVALID_TIER",
      "type": "error"
    },
    {
      "inputs": [],
      "name": "MANUAL_MINTING_NOT_ALLOWED",
      "type": "error"
    },
    {
      "inputs": [],
      "name": "MAX_TIERS_EXCEEDED",
      "type": "error"
    },
    {
      "inputs": [],
      "name": "NO_QUANTITY",
      "type": "error"
    },
    {
      "inputs": [],
      "name": "OUT",
      "type": "error"
    },
    {
      "inputs": [],
      "name": "PRICING_RESOLVER_CHANGES_LOCKED",
      "type": "error"
    },
    {
      "inputs": [],
      "name": "RESERVED_RATE_NOT_ALLOWED",
      "type": "error"
    },
    {
      "inputs": [],
      "name": "TIER_LOCKED",
      "type": "error"
    },
    {
      "inputs": [],
      "name": "TIER_REMOVED",
      "type": "error"
    },
    {
      "inputs": [],
      "name": "VOTING_UNITS_NOT_ALLOWED",
      "type": "error"
    },
    {
      "anonymous": false,
      "inputs": [
        {
          "indexed": true,
          "internalType": "address",
          "name": "nft",
          "type": "address"
        },
        {
          "indexed": false,
          "internalType": "address",
          "name": "caller",
          "type": "address"
        }
      ],
      "name": "CleanTiers",
      "type": "event"
    },
    {
      "inputs": [
        {
          "internalType": "address",
          "name": "_nft",
          "type": "address"
        },
        {
          "internalType": "address",
          "name": "_owner",
          "type": "address"
        }
      ],
      "name": "balanceOf",
      "outputs": [
        {
          "internalType": "uint256",
          "name": "balance",
          "type": "uint256"
        }
      ],
      "stateMutability": "view",
      "type": "function"
    },
    {
      "inputs": [
        {
          "internalType": "address",
          "name": "",
          "type": "address"
        }
      ],
      "name": "baseUriOf",
      "outputs": [
        {
          "internalType": "string",
          "name": "",
          "type": "string"
        }
      ],
      "stateMutability": "view",
      "type": "function"
    },
    {
      "inputs": [
        {
          "internalType": "address",
          "name": "_nft",
          "type": "address"
        }
      ],
      "name": "cleanTiers",
      "outputs": [],
      "stateMutability": "nonpayable",
      "type": "function"
    },
    {
      "inputs": [
        {
          "internalType": "address",
          "name": "",
          "type": "address"
        }
      ],
      "name": "contractUriOf",
      "outputs": [
        {
          "internalType": "string",
          "name": "",
          "type": "string"
        }
      ],
      "stateMutability": "view",
      "type": "function"
    },
    {
      "inputs": [
        {
          "internalType": "address",
          "name": "",
          "type": "address"
        }
      ],
      "name": "defaultReservedTokenBeneficiaryOf",
      "outputs": [
        {
          "internalType": "address",
          "name": "",
          "type": "address"
        }
      ],
      "stateMutability": "view",
      "type": "function"
    },
    {
      "inputs": [
        {
          "internalType": "address",
          "name": "",
          "type": "address"
        }
      ],
      "name": "defaultRoyaltyBeneficiaryOf",
      "outputs": [
        {
          "internalType": "address",
          "name": "",
          "type": "address"
        }
      ],
      "stateMutability": "view",
      "type": "function"
    },
    {
      "inputs": [
        {
          "internalType": "address",
          "name": "",
          "type": "address"
        },
        {
          "internalType": "uint256",
          "name": "",
          "type": "uint256"
        }
      ],
      "name": "encodedIPFSUriOf",
      "outputs": [
        {
          "internalType": "bytes32",
          "name": "",
          "type": "bytes32"
        }
      ],
      "stateMutability": "view",
      "type": "function"
    },
    {
      "inputs": [
        {
          "internalType": "address",
          "name": "_nft",
          "type": "address"
        },
        {
          "internalType": "uint256",
          "name": "_tokenId",
          "type": "uint256"
        }
      ],
      "name": "encodedTierIPFSUriOf",
      "outputs": [
        {
          "internalType": "bytes32",
          "name": "",
          "type": "bytes32"
        }
      ],
      "stateMutability": "view",
      "type": "function"
    },
    {
      "inputs": [
        {
          "internalType": "address",
          "name": "",
          "type": "address"
        },
        {
          "internalType": "uint256",
          "name": "",
          "type": "uint256"
        }
      ],
      "name": "firstOwnerOf",
      "outputs": [
        {
          "internalType": "address",
          "name": "",
          "type": "address"
        }
      ],
      "stateMutability": "view",
      "type": "function"
    },
    {
      "inputs": [
        {
          "internalType": "address",
          "name": "_nft",
          "type": "address"
        }
      ],
      "name": "flagsOf",
      "outputs": [
        {
          "components": [
            {
              "internalType": "bool",
              "name": "lockReservedTokenChanges",
              "type": "bool"
            },
            {
              "internalType": "bool",
              "name": "lockVotingUnitChanges",
              "type": "bool"
            },
            {
              "internalType": "bool",
              "name": "lockManualMintingChanges",
              "type": "bool"
            },
            {
              "internalType": "bool",
              "name": "preventOverspending",
              "type": "bool"
            }
          ],
          "internalType": "struct JBTiered721Flags",
          "name": "",
          "type": "tuple"
        }
      ],
      "stateMutability": "view",
      "type": "function"
    },
    {
      "inputs": [
        {
          "internalType": "address",
          "name": "_nft",
          "type": "address"
        },
        {
          "internalType": "uint256",
          "name": "_tierId",
          "type": "uint256"
        }
      ],
      "name": "isTierRemoved",
      "outputs": [
        {
          "internalType": "bool",
          "name": "",
          "type": "bool"
        }
      ],
      "stateMutability": "view",
      "type": "function"
    },
    {
      "inputs": [
        {
          "internalType": "address",
          "name": "",
          "type": "address"
        }
      ],
      "name": "maxTierIdOf",
      "outputs": [
        {
          "internalType": "uint256",
          "name": "",
          "type": "uint256"
        }
      ],
      "stateMutability": "view",
      "type": "function"
    },
    {
      "inputs": [
        {
          "internalType": "address",
          "name": "",
          "type": "address"
        },
        {
          "internalType": "uint256",
          "name": "",
          "type": "uint256"
        }
      ],
      "name": "numberOfBurnedFor",
      "outputs": [
        {
          "internalType": "uint256",
          "name": "",
          "type": "uint256"
        }
      ],
      "stateMutability": "view",
      "type": "function"
    },
    {
      "inputs": [
        {
          "internalType": "address",
          "name": "_nft",
          "type": "address"
        },
        {
          "internalType": "uint256",
          "name": "_tierId",
          "type": "uint256"
        }
      ],
      "name": "numberOfReservedTokensOutstandingFor",
      "outputs": [
        {
          "internalType": "uint256",
          "name": "",
          "type": "uint256"
        }
      ],
      "stateMutability": "view",
      "type": "function"
    },
    {
      "inputs": [
        {
          "internalType": "address",
          "name": "",
          "type": "address"
        },
        {
          "internalType": "uint256",
          "name": "",
          "type": "uint256"
        }
      ],
      "name": "numberOfReservesMintedFor",
      "outputs": [
        {
          "internalType": "uint256",
          "name": "",
          "type": "uint256"
        }
      ],
      "stateMutability": "view",
      "type": "function"
    },
    {
      "inputs": [
        {
          "components": [
            {
              "internalType": "uint80",
              "name": "contributionFloor",
              "type": "uint80"
            },
            {
              "internalType": "uint48",
              "name": "lockedUntil",
              "type": "uint48"
            },
            {
              "internalType": "uint40",
              "name": "initialQuantity",
              "type": "uint40"
            },
            {
              "internalType": "uint16",
              "name": "votingUnits",
              "type": "uint16"
            },
            {
              "internalType": "uint16",
              "name": "reservedRate",
              "type": "uint16"
            },
            {
              "internalType": "address",
              "name": "reservedTokenBeneficiary",
              "type": "address"
            },
            {
              "internalType": "uint8",
              "name": "royaltyRate",
              "type": "uint8"
            },
            {
              "internalType": "address",
              "name": "royaltyBeneficiary",
              "type": "address"
            },
            {
              "internalType": "bytes32",
              "name": "encodedIPFSUri",
              "type": "bytes32"
            },
            {
              "internalType": "uint8",
              "name": "category",
              "type": "uint8"
            },
            {
              "internalType": "bool",
              "name": "allowManualMint",
              "type": "bool"
            },
            {
              "internalType": "bool",
              "name": "shouldUseReservedTokenBeneficiaryAsDefault",
              "type": "bool"
            },
            {
              "internalType": "bool",
              "name": "shouldUseRoyaltyBeneficiaryAsDefault",
              "type": "bool"
            },
            {
              "internalType": "bool",
              "name": "transfersPausable",
              "type": "bool"
            }
          ],
          "internalType": "struct JB721TierParams[]",
          "name": "_tiersToAdd",
          "type": "tuple[]"
        }
      ],
      "name": "recordAddTiers",
      "outputs": [
        {
          "internalType": "uint256[]",
          "name": "tierIds",
          "type": "uint256[]"
        }
      ],
      "stateMutability": "nonpayable",
      "type": "function"
    },
    {
      "inputs": [
        {
          "internalType": "uint256[]",
          "name": "_tokenIds",
          "type": "uint256[]"
        }
      ],
      "name": "recordBurn",
      "outputs": [],
      "stateMutability": "nonpayable",
      "type": "function"
    },
    {
      "inputs": [
        {
          "components": [
            {
              "internalType": "bool",
              "name": "lockReservedTokenChanges",
              "type": "bool"
            },
            {
              "internalType": "bool",
              "name": "lockVotingUnitChanges",
              "type": "bool"
            },
            {
              "internalType": "bool",
              "name": "lockManualMintingChanges",
              "type": "bool"
            },
            {
              "internalType": "bool",
              "name": "preventOverspending",
              "type": "bool"
            }
          ],
          "internalType": "struct JBTiered721Flags",
          "name": "_flags",
          "type": "tuple"
        }
      ],
      "name": "recordFlags",
      "outputs": [],
      "stateMutability": "nonpayable",
      "type": "function"
    },
    {
      "inputs": [
        {
          "internalType": "uint256",
          "name": "_amount",
          "type": "uint256"
        },
        {
          "internalType": "uint16[]",
          "name": "_tierIds",
          "type": "uint16[]"
        },
        {
          "internalType": "bool",
          "name": "_isManualMint",
          "type": "bool"
        }
      ],
      "name": "recordMint",
      "outputs": [
        {
          "internalType": "uint256[]",
          "name": "tokenIds",
          "type": "uint256[]"
        },
        {
          "internalType": "uint256",
          "name": "leftoverAmount",
          "type": "uint256"
        }
      ],
      "stateMutability": "nonpayable",
      "type": "function"
    },
    {
      "inputs": [
        {
          "internalType": "uint256",
          "name": "_tierId",
          "type": "uint256"
        },
        {
          "internalType": "uint256",
          "name": "_count",
          "type": "uint256"
        }
      ],
      "name": "recordMintReservesFor",
      "outputs": [
        {
          "internalType": "uint256[]",
          "name": "tokenIds",
          "type": "uint256[]"
        }
      ],
      "stateMutability": "nonpayable",
      "type": "function"
    },
    {
      "inputs": [
        {
          "internalType": "uint256[]",
          "name": "_tierIds",
          "type": "uint256[]"
        }
      ],
      "name": "recordRemoveTierIds",
      "outputs": [],
      "stateMutability": "nonpayable",
      "type": "function"
    },
    {
      "inputs": [
        {
          "internalType": "string",
          "name": "_uri",
          "type": "string"
        }
      ],
      "name": "recordSetBaseUri",
      "outputs": [],
      "stateMutability": "nonpayable",
      "type": "function"
    },
    {
      "inputs": [
        {
          "internalType": "string",
          "name": "_uri",
          "type": "string"
        }
      ],
      "name": "recordSetContractUri",
      "outputs": [],
      "stateMutability": "nonpayable",
      "type": "function"
    },
    {
      "inputs": [
        {
          "internalType": "address",
          "name": "_beneficiary",
          "type": "address"
        }
      ],
      "name": "recordSetDefaultReservedTokenBeneficiary",
      "outputs": [],
      "stateMutability": "nonpayable",
      "type": "function"
    },
    {
      "inputs": [
        {
          "internalType": "uint256",
          "name": "_tierId",
          "type": "uint256"
        },
        {
          "internalType": "bytes32",
          "name": "_encodedIPFSUri",
          "type": "bytes32"
        }
      ],
      "name": "recordSetEncodedIPFSUriOf",
      "outputs": [],
      "stateMutability": "nonpayable",
      "type": "function"
    },
    {
      "inputs": [
        {
          "internalType": "uint256",
          "name": "_tokenId",
          "type": "uint256"
        },
        {
          "internalType": "address",
          "name": "_owner",
          "type": "address"
        }
      ],
      "name": "recordSetFirstOwnerOf",
      "outputs": [],
      "stateMutability": "nonpayable",
      "type": "function"
    },
    {
      "inputs": [
        {
          "internalType": "contract IJBTokenUriResolver",
          "name": "_resolver",
          "type": "address"
        }
      ],
      "name": "recordSetTokenUriResolver",
      "outputs": [],
      "stateMutability": "nonpayable",
      "type": "function"
    },
    {
      "inputs": [
        {
          "internalType": "uint256",
          "name": "_tierId",
          "type": "uint256"
        },
        {
          "internalType": "address",
          "name": "_from",
          "type": "address"
        },
        {
          "internalType": "address",
          "name": "_to",
          "type": "address"
        }
      ],
      "name": "recordTransferForTier",
      "outputs": [],
      "stateMutability": "nonpayable",
      "type": "function"
    },
    {
      "inputs": [
        {
          "internalType": "address",
          "name": "_nft",
          "type": "address"
        },
        {
          "internalType": "uint256[]",
          "name": "_tokenIds",
          "type": "uint256[]"
        }
      ],
      "name": "redemptionWeightOf",
      "outputs": [
        {
          "internalType": "uint256",
          "name": "weight",
          "type": "uint256"
        }
      ],
      "stateMutability": "view",
      "type": "function"
    },
    {
      "inputs": [
        {
          "internalType": "address",
          "name": "_nft",
          "type": "address"
        },
        {
          "internalType": "uint256",
          "name": "_tierId",
          "type": "uint256"
        }
      ],
      "name": "reservedTokenBeneficiaryOf",
      "outputs": [
        {
          "internalType": "address",
          "name": "",
          "type": "address"
        }
      ],
      "stateMutability": "view",
      "type": "function"
    },
    {
      "inputs": [
        {
          "internalType": "address",
          "name": "_nft",
          "type": "address"
        },
        {
          "internalType": "uint256",
          "name": "_tierId",
          "type": "uint256"
        }
      ],
      "name": "royaltyBeneficiaryOf",
      "outputs": [
        {
          "internalType": "address",
          "name": "",
          "type": "address"
        }
      ],
      "stateMutability": "view",
      "type": "function"
    },
    {
      "inputs": [
        {
          "internalType": "address",
          "name": "_nft",
          "type": "address"
        },
        {
          "internalType": "uint256",
          "name": "_id",
          "type": "uint256"
        }
      ],
      "name": "tier",
      "outputs": [
        {
          "components": [
            {
              "internalType": "uint256",
              "name": "id",
              "type": "uint256"
            },
            {
              "internalType": "uint256",
              "name": "contributionFloor",
              "type": "uint256"
            },
            {
              "internalType": "uint256",
              "name": "lockedUntil",
              "type": "uint256"
            },
            {
              "internalType": "uint256",
              "name": "remainingQuantity",
              "type": "uint256"
            },
            {
              "internalType": "uint256",
              "name": "initialQuantity",
              "type": "uint256"
            },
            {
              "internalType": "uint256",
              "name": "votingUnits",
              "type": "uint256"
            },
            {
              "internalType": "uint256",
              "name": "reservedRate",
              "type": "uint256"
            },
            {
              "internalType": "address",
              "name": "reservedTokenBeneficiary",
              "type": "address"
            },
            {
              "internalType": "uint256",
              "name": "royaltyRate",
              "type": "uint256"
            },
            {
              "internalType": "address",
              "name": "royaltyBeneficiary",
              "type": "address"
            },
            {
              "internalType": "bytes32",
              "name": "encodedIPFSUri",
              "type": "bytes32"
            },
            {
              "internalType": "uint256",
              "name": "category",
              "type": "uint256"
            },
            {
              "internalType": "bool",
              "name": "allowManualMint",
              "type": "bool"
            },
            {
              "internalType": "bool",
              "name": "transfersPausable",
              "type": "bool"
            }
          ],
          "internalType": "struct JB721Tier",
          "name": "",
          "type": "tuple"
        }
      ],
      "stateMutability": "view",
      "type": "function"
    },
    {
      "inputs": [
        {
          "internalType": "address",
          "name": "",
          "type": "address"
        },
        {
          "internalType": "address",
          "name": "",
          "type": "address"
        },
        {
          "internalType": "uint256",
          "name": "",
          "type": "uint256"
        }
      ],
      "name": "tierBalanceOf",
      "outputs": [
        {
          "internalType": "uint256",
          "name": "",
          "type": "uint256"
        }
      ],
      "stateMutability": "view",
      "type": "function"
    },
    {
      "inputs": [
        {
          "internalType": "uint256",
          "name": "_tokenId",
          "type": "uint256"
        }
      ],
      "name": "tierIdOfToken",
      "outputs": [
        {
          "internalType": "uint256",
          "name": "",
          "type": "uint256"
        }
      ],
      "stateMutability": "pure",
      "type": "function"
    },
    {
      "inputs": [
        {
          "internalType": "address",
          "name": "_nft",
          "type": "address"
        },
        {
          "internalType": "uint256",
          "name": "_tokenId",
          "type": "uint256"
        }
      ],
      "name": "tierOfTokenId",
      "outputs": [
        {
          "components": [
            {
              "internalType": "uint256",
              "name": "id",
              "type": "uint256"
            },
            {
              "internalType": "uint256",
              "name": "contributionFloor",
              "type": "uint256"
            },
            {
              "internalType": "uint256",
              "name": "lockedUntil",
              "type": "uint256"
            },
            {
              "internalType": "uint256",
              "name": "remainingQuantity",
              "type": "uint256"
            },
            {
              "internalType": "uint256",
              "name": "initialQuantity",
              "type": "uint256"
            },
            {
              "internalType": "uint256",
              "name": "votingUnits",
              "type": "uint256"
            },
            {
              "internalType": "uint256",
              "name": "reservedRate",
              "type": "uint256"
            },
            {
              "internalType": "address",
              "name": "reservedTokenBeneficiary",
              "type": "address"
            },
            {
              "internalType": "uint256",
              "name": "royaltyRate",
              "type": "uint256"
            },
            {
              "internalType": "address",
              "name": "royaltyBeneficiary",
              "type": "address"
            },
            {
              "internalType": "bytes32",
              "name": "encodedIPFSUri",
              "type": "bytes32"
            },
            {
              "internalType": "uint256",
              "name": "category",
              "type": "uint256"
            },
            {
              "internalType": "bool",
              "name": "allowManualMint",
              "type": "bool"
            },
            {
              "internalType": "bool",
              "name": "transfersPausable",
              "type": "bool"
            }
          ],
          "internalType": "struct JB721Tier",
          "name": "",
          "type": "tuple"
        }
      ],
      "stateMutability": "view",
      "type": "function"
    },
    {
      "inputs": [
        {
          "internalType": "address",
          "name": "_nft",
          "type": "address"
        },
        {
          "internalType": "address",
          "name": "_account",
          "type": "address"
        },
        {
          "internalType": "uint256",
          "name": "_tierId",
          "type": "uint256"
        }
      ],
      "name": "tierVotingUnitsOf",
      "outputs": [
        {
          "internalType": "uint256",
          "name": "",
          "type": "uint256"
        }
      ],
      "stateMutability": "view",
      "type": "function"
    },
    {
      "inputs": [
        {
          "internalType": "address",
          "name": "_nft",
          "type": "address"
        },
        {
          "internalType": "uint256",
          "name": "_category",
          "type": "uint256"
        },
        {
          "internalType": "uint256",
          "name": "_startingId",
          "type": "uint256"
        },
        {
          "internalType": "uint256",
          "name": "_size",
          "type": "uint256"
        }
      ],
      "name": "tiers",
      "outputs": [
        {
          "components": [
            {
              "internalType": "uint256",
              "name": "id",
              "type": "uint256"
            },
            {
              "internalType": "uint256",
              "name": "contributionFloor",
              "type": "uint256"
            },
            {
              "internalType": "uint256",
              "name": "lockedUntil",
              "type": "uint256"
            },
            {
              "internalType": "uint256",
              "name": "remainingQuantity",
              "type": "uint256"
            },
            {
              "internalType": "uint256",
              "name": "initialQuantity",
              "type": "uint256"
            },
            {
              "internalType": "uint256",
              "name": "votingUnits",
              "type": "uint256"
            },
            {
              "internalType": "uint256",
              "name": "reservedRate",
              "type": "uint256"
            },
            {
              "internalType": "address",
              "name": "reservedTokenBeneficiary",
              "type": "address"
            },
            {
              "internalType": "uint256",
              "name": "royaltyRate",
              "type": "uint256"
            },
            {
              "internalType": "address",
              "name": "royaltyBeneficiary",
              "type": "address"
            },
            {
              "internalType": "bytes32",
              "name": "encodedIPFSUri",
              "type": "bytes32"
            },
            {
              "internalType": "uint256",
              "name": "category",
              "type": "uint256"
            },
            {
              "internalType": "bool",
              "name": "allowManualMint",
              "type": "bool"
            },
            {
              "internalType": "bool",
              "name": "transfersPausable",
              "type": "bool"
            }
          ],
          "internalType": "struct JB721Tier[]",
          "name": "_tiers",
          "type": "tuple[]"
        }
      ],
      "stateMutability": "view",
      "type": "function"
    },
    {
      "inputs": [
        {
          "internalType": "address",
          "name": "",
          "type": "address"
        }
      ],
      "name": "tokenUriResolverOf",
      "outputs": [
        {
          "internalType": "contract IJBTokenUriResolver",
          "name": "",
          "type": "address"
        }
      ],
      "stateMutability": "view",
      "type": "function"
    },
    {
      "inputs": [
        {
          "internalType": "address",
          "name": "_nft",
          "type": "address"
        }
      ],
      "name": "totalRedemptionWeight",
      "outputs": [
        {
          "internalType": "uint256",
          "name": "weight",
          "type": "uint256"
        }
      ],
      "stateMutability": "view",
      "type": "function"
    },
    {
      "inputs": [
        {
          "internalType": "address",
          "name": "_nft",
          "type": "address"
        }
      ],
      "name": "totalSupply",
      "outputs": [
        {
          "internalType": "uint256",
          "name": "supply",
          "type": "uint256"
        }
      ],
      "stateMutability": "view",
      "type": "function"
    },
    {
      "inputs": [
        {
          "internalType": "address",
          "name": "_nft",
          "type": "address"
        },
        {
          "internalType": "address",
          "name": "_account",
          "type": "address"
        }
      ],
      "name": "votingUnitsOf",
      "outputs": [
        {
          "internalType": "uint256",
          "name": "units",
          "type": "uint256"
        }
      ],
      "stateMutability": "view",
      "type": "function"
    }
  ],
  "bytecode": {
    "object": "0x608060405234801561001057600080fd5b5061389d806100206000396000f3fe608060405234801561001057600080fd5b50600436106102535760003560e01c806386bc2be311610146578063c8df1710116100c3578063e4dc2aa411610087578063e4dc2aa41461078c578063eaa19ab31461079f578063f1bea54f146107c0578063f25abeda146107e0578063f682eeaf146107f3578063f7888aec1461080657600080fd5b8063c8df1710146106f6578063cb827e3214610709578063d65981a91461071c578063d67b78fd1461073c578063d84a72c01461074f57600080fd5b8063aab0cd801161010a578063aab0cd8014610672578063b67cb04714610692578063baa7e80e146106a5578063bd51923c146106b8578063c2c55f94146106e357600080fd5b806386bc2be3146105a65780638cec7d39146105b95780638ed6c01014610602578063911c80b514610636578063933555781461065f57600080fd5b806335314b92116101d45780635f646611116101985780635f646611146104555780636262bcb2146104785780636825bb801461048b5780637473c9a2146104b6578063845104de146104d657600080fd5b806335314b92146103b157806337f44652146103c457806342f9914b146103f5578063453b5abe1461040857806349bd1ac61461042857600080fd5b806317161f7d1161021b57806317161f7d1461031057806320512ba11461034d5780632ae5e492146103605780632b7e6ef0146103735780632e4d0ea81461039e57600080fd5b8063086bb19a146102585780630fab09471461026d578063136e651c146102b3578063144cc2d4146102c657806315fa7dff146102e7575b600080fd5b61026b610266366004612dc1565b610819565b005b61029661027b366004612dc1565b6010602052600090815260409020546001600160a01b031681565b6040516001600160a01b0390911681526020015b60405180910390f35b6102966102c1366004612dde565b6109ae565b6102d96102d4366004612e56565b610a07565b6040519081526020016102aa565b6102966102f5366004612dc1565b600d602052600090815260409020546001600160a01b031681565b61026b61031e366004612dc1565b336000908152600c6020526040902080546001600160a01b0319166001600160a01b0392909216919091179055565b61026b61035b366004612eab565b610a85565b6102d961036e366004612dc1565b610b32565b6102d9610381366004612dde565b600b60209081526000928352604080842090915290825290205481565b6102d96103ac366004612eed565b610c9c565b6102d96103bf366004612dde565b610d21565b6102d96103d2366004612eed565b600960209081526000938452604080852082529284528284209052825290205481565b6102d9610403366004612f2e565b610df8565b61041b610416366004612f47565b610e08565b6040516102aa9190612ff8565b61026b61043636600461300b565b3360009081526012602090815260408083209483529390529190912055565b610468610463366004612dde565b61182c565b60405190151581526020016102aa565b61026b61048636600461302d565b611864565b6102d9610499366004612dde565b600a60209081526000928352604080842090915290825290205481565b6104c96104c4366004612dde565b611883565b6040516102aa9190613138565b61056b6104e4366004612dc1565b604080516080810182526000808252602082018190529181018290526060810191909152506001600160a01b03166000908152600460209081526040918290208251608081018452905460ff808216151583526101008204811615159383019390935262010000810483161515938201939093526301000000909204161515606082015290565b6040516102aa919081511515815260208083015115159082015260408083015115159082015260609182015115159181019190915260800190565b61026b6105b4366004612eab565b611a57565b61026b6105c7366004613147565b336000908152600e602090815260408083209483529390529190912080546001600160a01b0319166001600160a01b03909216919091179055565b610296610610366004612dde565b600e6020908152600092835260408084209091529082529020546001600160a01b031681565b610296610644366004612dc1565b600c602052600090815260409020546001600160a01b031681565b6102d961066d366004613177565b611b1b565b610685610680366004612dc1565b611bcb565b6040516102aa91906131a5565b6104c96106a0366004612dde565b611c65565b61041b6106b336600461300b565b611e60565b6102d96106c6366004612dde565b601260209081526000928352604080842090915290825290205481565b61026b6106f13660046131f3565b6120a0565b6102d9610704366004612dde565b612133565b61026b610717366004613235565b61216c565b61072f61072a36600461324d565b612187565b6040516102aa9190613288565b61026b61074a36600461302d565b6124f0565b61026b61075d366004612dc1565b33600090815260106020526040902080546001600160a01b0319166001600160a01b0392909216919091179055565b6102d961079a366004612dc1565b61250a565b6107b26107ad3660046132f0565b612592565b6040516102aa92919061334f565b6102d96107ce366004612dc1565b60086020526000908152604090205481565b6102966107ee366004612dde565b6128ff565b610685610801366004612dc1565b612955565b6102d9610814366004613177565b61296e565b6000610824826129da565b90506000610833836000612a1b565b6001600160a01b038416600090815260056020526040812091925090819061085b9084612a82565b90505b82156109695761086e8184612ac8565b15610898576001600160a01b03851660009081526005602052604090206108959084612a82565b90505b6108a28184612ae2565b610957576108b1826001613387565b8314610909576001600160a01b0385166000908152602081815260408083208584529091529020548314610904576001600160a01b03851660009081526020818152604080832085845290915290208390555b610953565b6001600160a01b03851660009081526020818152604080832085845290915290205415610953576001600160a01b0385166000908152602081815260408083208584529091528120555b8291505b610962858486612b01565b925061085e565b6040513381526001600160a01b038616907f4a0f854ce3c180d56f3e9eb47eb064c595bf3de0ab9af45425291e5b1bb733a89060200160405180910390a25050505050565b6001600160a01b03808316600090815260016020908152604080832085845290915281205490911680156109e3579050610a01565b50506001600160a01b038083166000908152600c6020526040902054165b92915050565b600081815b81811015610a7c576001600160a01b038616600090815260036020526040812090610a4e878785818110610a4257610a4261339a565b90506020020135610df8565b8152602081019190915260400160002054610a72906001600160501b031684613387565b9250600101610a0c565b50509392505050565b806000805b82811015610b2b57848482818110610aa457610aa461339a565b336000908152600360209081526040808320938202959095013580835292905292909220549193504291610aec91506363b0cd0090600160501b900464ffffffffff16613387565b10610b0a57604051636b73d51160e11b815260040160405180910390fd5b336000908152600560205260409020610b239083612b4c565b600101610a8a565b5050505050565b6001600160a01b038116600090815260086020526040812054610b53612cc2565b60005b82811015610c94576001600160a01b0385166000908152600360209081526040808320600180860185529083529281902081516101408101835281546001600160501b038116825264ffffffffff600160501b8204811695830195909552600160781b8104851693820193909352600160a01b8304909316606084015261ffff600160c81b830481166080850152600160d81b83041660a084015260ff600160e81b8304811660c0850152600160f01b8304811660e0850152600160f81b909204821615156101008401528301541615156101208201529250610c46908690610c40908490613387565b84612b85565b82604001518360600151610c5a91906133b0565b64ffffffffff16610c6b9190613387565b8251610c8091906001600160501b03166133d5565b610c8a9085613387565b9350600101610b56565b505050919050565b6001600160a01b0380841660009081526009602090815260408083209386168352928152828220848352905290812054808203610cdd576000915050610d1a565b6001600160a01b0385166000908152600360209081526040808320868452909152902054610d1690600160c81b900461ffff16826133d5565b9150505b9392505050565b6001600160a01b0382166000908152600360209081526040808320848452825280832081516101408101835281546001600160501b038116825264ffffffffff600160501b8204811695830195909552600160781b8104851693820193909352600160a01b8304909316606084015261ffff600160c81b830481166080850152600160d81b83041660a084015260ff600160e81b8304811660c0850152600160f01b8304811660e0850152600160f81b9092048216151561010084015260010154161515610120820152610d1a9084908490612b85565b6000610a01633b9aca0083613402565b33600090815260086020526040902054606090829061ffff610e2a8383613387565b1115610e4957604051631bc68c8b60e11b815260040160405180910390fd5b6000610e54336129da565b90508267ffffffffffffffff811115610e6f57610e6f613416565b604051908082528060200260200182016040528015610e98578160200160208202803683370190505b50935060008215610eb357610eae336000612a1b565b610eb6565b60005b604080516101c081018252600080825260208201819052918101829052606081018290526080810182905260a0810182905260c0810182905260e08101829052610100810182905261012081018290526101408101829052610160810182905261018081018290526101a08101829052919250903360009081526004602090815260408083208151608081018352905460ff80821615158352610100820481161515948301949094526201000081048416151592820192909252630100000090910490911615156060820152905b87811015611803578a8a82818110610f9e57610f9e61339a565b90506101c00201803603810190610fb591906134bb565b9250610fc66001633b9aca006135c4565b836040015164ffffffffff161115610ff1576040516349016ea360e01b815260040160405180910390fd5b80156110745760008b8b6110066001856135c4565b8181106110155761101561339a565b90506101c0020180360381019061102c91906134bb565b905083610120015160ff1660001480611054575080610120015160ff1684610120015160ff16105b1561107257604051631cabebd560e21b815260040160405180910390fd5b505b8160200151801561108c5750606083015161ffff1615155b156110aa57604051630189200360e11b815260040160405180910390fd5b8151806110b957508261014001515b80156110cc5750608083015161ffff1615155b156110ea5760405163a75b1cd560e01b815260040160405180910390fd5b816040015180156110fd57508261014001515b1561111b576040516330ec637f60e01b815260040160405180910390fd5b826040015164ffffffffff1660000361114757604051631e0a863160e31b815260040160405180910390fd5b602083015165ffffffffffff161580159061116d575042836020015165ffffffffffff16105b1561118b5760405163d509b54d60e01b815260040160405180910390fd5b60006111978289613387565b6111a2906001613387565b905060405180610140016040528085600001516001600160501b03168152602001856020015165ffffffffffff166000146111f8576363b0cd00866020015165ffffffffffff166111f391906135c4565b6111fb565b60005b64ffffffffff168152602001856040015164ffffffffff168152602001856040015164ffffffffff168152602001856060015161ffff168152602001856080015161ffff1681526020018560c0015160ff16815260200185610120015160ff16815260200185610140015115158152602001856101a00151151581525060036000336001600160a01b03166001600160a01b03168152602001908152602001600020600083815260200190815260200160002060008201518160000160006101000a8154816001600160501b0302191690836001600160501b03160217905550602082015181600001600a6101000a81548164ffffffffff021916908364ffffffffff160217905550604082015181600001600f6101000a81548164ffffffffff021916908364ffffffffff16021790555060608201518160000160146101000a81548164ffffffffff021916908364ffffffffff16021790555060808201518160000160196101000a81548161ffff021916908361ffff16021790555060a082015181600001601b6101000a81548161ffff021916908361ffff16021790555060c082015181600001601d6101000a81548160ff021916908360ff16021790555060e082015181600001601e6101000a81548160ff021916908360ff16021790555061010082015181600001601f6101000a81548160ff0219169083151502179055506101208201518160010160006101000a81548160ff02191690831515021790555090505060076000336001600160a01b03166001600160a01b03168152602001908152602001600020600085610120015160ff1681526020019081526020016000205460000361148f5733600090815260076020908152604080832061012088015160ff16845290915290208190555b60a08401516001600160a01b03161561152057836101600151156114e35760a0840151336000908152600c6020526040902080546001600160a01b0319166001600160a01b03909216919091179055611520565b60a0840151336000908152600160209081526040808320858452909152902080546001600160a01b0319166001600160a01b039092169190911790555b60e08401516001600160a01b0316156115b157836101800151156115745760e0840151336000908152600d6020526040902080546001600160a01b0319166001600160a01b039092169190911790556115b1565b60e0840151336000908152600260209081526040808320858452909152902080546001600160a01b0319166001600160a01b039092169190911790555b610100840151156115de576101008401513360009081526012602090815260408083208584529091529020555b85156117dc573360009081526005602052604081208791906116009083612a82565b905060005b82156117d8576116158284612ac8565b15611636573360009081526005602052604090206116339084612a82565b91505b61164133848c612b01565b33600090815260036020908152604080832087845290915290205461012089015191925060ff600160f01b90910481169116101561175e57611684846001613387565b83146116a6573360009081526020818152604080832087845290915290208390555b6116b160018d6135c4565b851480156116ce5750336000908152600660205260409020548a14155b156116e6573360009081526006602052604090208a90555b6116f16001856135c4565b881415806117165750336000908152602081815260408083208b845290915290205415155b1561174f576117266001856135c4565b88146117325783611735565b60005b336000908152602081815260408083208c84529091529020555b82985083975060009250611605565b80158061176a57508a81115b156117cf5761177a836001613387565b841461179c573360009081526020818152604080832086845290915290208490555b336000908152600660205260408120549499508994909350156117ca57336000908152600660205260408120555b611605565b91965081611605565b5050505b808a83815181106117ef576117ef61339a565b602090810291909101015250600101610f84565b5061180e8787613387565b33600090815260086020526040902055509598975050505050505050565b6001600160a01b038216600090815260056020526040812081906118509084612a82565b905061185c8184612ae2565b949350505050565b336000908152600f6020526040902061187e828483613659565b505050565b61188b612d16565b6001600160a01b038316600090815260036020908152604080832085845282529182902082516101408101845281546001600160501b03808216835264ffffffffff600160501b83048116848701908152600160781b8404821685890152600160a01b84048216606086015261ffff600160c81b850481166080870152600160d81b85041660a086015260ff600160e81b8504811660c0870152600160f01b8504811660e0870152600160f81b90940484161515610100860152600190950154909216151561012084015285516101c0810187528881528351909116948101949094529151909383019161198491166363b0cd00613387565b8152602001826040015164ffffffffff168152602001826060015164ffffffffff168152602001826080015161ffff1681526020018260a0015161ffff1681526020016119d186866109ae565b6001600160a01b031681526020018260c0015160ff1681526020016119f686866128ff565b6001600160a01b03908116825286166000908152601260209081526040808320888452825291829020549083015260e084015160ff169082015261010083015115156060820152610120909201511515608090920191909152905092915050565b806000805b82811015610b2b57848482818110611a7657611a7661339a565b9050602002013591506000611a8a83610df8565b336000908152600b602090815260408083208484529091528120805492935090611ab383613719565b909155505033600090815260036020908152604080832084845290915290208054600160781b900464ffffffffff1690600f611aee83613732565b91906101000a81548164ffffffffff021916908364ffffffffff1602179055505081600101915050611a5c565b6001600160a01b03821660009081526008602052604081205481815b8015611bc2576001600160a01b03808716600090815260096020908152604080832093891683529281528282208483529052205491508115611bb9576001600160a01b0386166000908152600360209081526040808320848452909152902054611bac90600160c81b900461ffff16836133d5565b611bb69085613387565b93505b60001901611b37565b50505092915050565b60116020526000908152604090208054611be4906135d7565b80601f0160208091040260200160405190810160405280929190818152602001828054611c10906135d7565b8015611c5d5780601f10611c3257610100808354040283529160200191611c5d565b820191906000526020600020905b815481529060010190602001808311611c4057829003601f168201915b505050505081565b611c6d612d16565b6000611c7883610df8565b6001600160a01b038516600090815260036020908152604080832084845282529182902082516101408101845281546001600160501b03808216835264ffffffffff600160501b83048116848701908152600160781b8404821685890152600160a01b84048216606086015261ffff600160c81b850481166080870152600160d81b85041660a086015260ff600160e81b8504811660c0870152600160f01b8504811660e0870152600160f81b90940484161515610100860152600190950154909216151561012084015285516101c0810187528781528351909116948101949094529151949550939192830191611d7591166363b0cd00613387565b8152602001826040015164ffffffffff168152602001826060015164ffffffffff168152602001826080015161ffff1681526020018260a0015161ffff168152602001611dc287856109ae565b6001600160a01b031681526020018260c0015160ff168152602001611de787856128ff565b6001600160a01b0316815260200160126000886001600160a01b03166001600160a01b0316815260200190815260200160002060008581526020019081526020016000205481526020018260e0015160ff1681526020018261010001511515815260200182610120015115158152509250505092915050565b336000818152600360209081526040808320868452825280832081516101408101835281546001600160501b038116825264ffffffffff600160501b8204811695830195909552600160781b8104851693820193909352600160a01b830490931660608481019190915261ffff600160c81b840481166080860152600160d81b84041660a085015260ff600160e81b8404811660c0860152600160f01b8404811660e0860152600160f81b90930483161515610100850152600182015490921615156101208401529093909291611f3991908790612b85565b905080841115611f5c5760405163226f999960e11b815260040160405180910390fd5b336000908152600a6020908152604080832088845290915281208054869290611f86908490613387565b9091555084905067ffffffffffffffff811115611fa557611fa5613416565b604051908082528060200260200182016040528015611fce578160200160208202803683370190505b50336000908152600b602090815260408083208984529091528120549194505b8581101561209657612071878386600001600f81819054906101000a900464ffffffffff1661201c90613756565b91906101000a81548164ffffffffff021916908364ffffffffff16021790558760000160149054906101000a900464ffffffffff1661205b91906133b0565b64ffffffffff1661206c9190613387565b612ca7565b8582815181106120835761208361339a565b6020908102919091010152600101611fee565b5050505092915050565b6001600160a01b038216156120ed573360009081526009602090815260408083206001600160a01b03861684528252808320868452909152812080549091906120e890613777565b909155505b6001600160a01b0381161561187e573360009081526009602090815260408083206001600160a01b03851684528252808320868452909152902080546001019055505050565b6001600160a01b03821660009081526012602052604081208161215584610df8565b815260200190815260200160002054905092915050565b336000908152600460205260409020819061187e828261379b565b60606000612194866129da565b90508267ffffffffffffffff8111156121af576121af613416565b6040519080825280602002602001820160405280156121e857816020015b6121d5612d16565b8152602001906001900390816121cd5790505b50915060008085600003612205576122008888612a1b565b612207565b855b9050612211612cc2565b6001600160a01b03891660009081526005602052604081206122339084612a82565b90505b821580159061224457508684105b156124d8576122538184612ac8565b1561227d576001600160a01b038a16600090815260056020526040902061227a9084612a82565b90505b6122878184612ae2565b6124c6576001600160a01b038a16600090815260036020908152604080832086845282529182902082516101408101845281546001600160501b038116825264ffffffffff600160501b8204811694830194909452600160781b8104841694820194909452600160a01b8404909216606083015261ffff600160c81b840481166080840152600160d81b84041660a083015260ff600160e81b8404811660c0840152600160f01b8404811660e0840152600160f81b90930483161515610100830152600101549091161515610120820152915088158061236d5750888260e0015160ff16145b156124a657604051806101c0016040528084815260200183600001516001600160501b03168152602001836020015164ffffffffff166363b0cd006123b29190613387565b8152602001836040015164ffffffffff168152602001836060015164ffffffffff168152602001836080015161ffff1681526020018360a0015161ffff1681526020016123ff8c866109ae565b6001600160a01b031681526020018360c0015160ff1681526020016124248c866128ff565b6001600160a01b0390811682528c166000908152601260209081526040808320888452825291829020549083015260e085015160ff1690820152610100840151151560608201526101208401511515608090910152868561248481613719565b9650815181106124965761249661339a565b60200260200101819052506124c6565b6000891180156124bc5750888260e0015160ff16115b156124c657600092505b6124d18a8487612b01565b9250612236565b8684146124e3578386525b5050505050949350505050565b33600090815260116020526040902061187e828483613659565b6001600160a01b0381166000908152600860205260408120548190805b8015610c94576001600160a01b0385166000908152600360209081526040808320848452909152902080549093506125769064ffffffffff600160781b8204811691600160a01b9004166133b0565b6125879064ffffffffff1685613387565b935060001901612527565b606084836000808267ffffffffffffffff8111156125b2576125b2613416565b6040519080825280602002602001820160405280156125db578160200160208202803683370190505b5094506000612624898960008181106125f6576125f661339a565b905060200201602081019061260b9190613838565b3360009081526005602052604090209061ffff16612a82565b905060005b848110156128f1578989828181106126435761264361339a565b90506020020160208101906126589190613838565b61ffff1692506126688284612ac8565b15612689573360009081526005602052604090206126869084612a82565b91505b6126938284612ae2565b156126b15760405163d32cb5c160e01b815260040160405180910390fd5b336000908152600360209081526040808320868452909152902093508780156126e357508354600160f81b900460ff16155b1561270157604051632f792d3960e11b815260040160405180910390fd5b8354600160a01b900464ffffffffff1660000361273157604051630de5859f60e01b815260040160405180910390fd5b83546001600160501b031686101561275c57604051632cd294cf60e01b815260040160405180910390fd5b604080516101408101825285546001600160501b038116825264ffffffffff600160501b820481166020840152600160781b8204811693830193909352600160a01b8104909216606082015261ffff600160c81b830481166080830152600160d81b83041660a082015260ff600160e81b8304811660c0830152600160f01b8304811660e0830152600160f81b90920482161515610100820152600186015490911615156101208201526128139033908590612b85565b845461282d9190600160781b900464ffffffffff166135c4565b60000361284d5760405163985a45d960e01b815260040160405180910390fd5b336000908152600b60209081526040808320868452909152902054845460001964ffffffffff600160781b808404821692830182160264ffffffffff60781b19909316929092178088556128b5938793600160a01b9092048216929092036001011601612ca7565b8782815181106128c7576128c761339a565b602090810291909101015283546128e7906001600160501b0316876135c4565b9550600101612629565b505050505094509492505050565b6001600160a01b0380831660009081526002602090815260408083208584529091528120549091168015612934579050610a01565b5050506001600160a01b039081166000908152600d60205260409020541690565b600f6020526000908152604090208054611be4906135d7565b6001600160a01b038216600090815260086020526040812054805b80156129d2576001600160a01b0380861660009081526009602090815260408083209388168352928152828220848352905220546129c79084613387565b925060001901612989565b505092915050565b6001600160a01b03811660009081526006602052604081205490819003612a1657506001600160a01b0381166000908152600860205260409020545b919050565b60008115612a4c576001600160a01b0383166000908152600760209081526040808320858452909152902054612a6f565b6001600160a01b0383166000908152602081815260408083208380529091529020545b905080600003610a015750600192915050565b60408051808201909152600080825260208201526000612aa28360081c90565b604080518082018252600083815260209788529190912054815294850152509192915050565b60008260200151612ad98360081c90565b14159392505050565b6000612af061010083613853565b83516001911c811614905092915050565b6000818303612b1257506000610d1a565b6001600160a01b0384166000908152602081815260408083208684529091529020548015612b41579050610d1a565b610d16846001613387565b6000612b588260081c90565b9050612b6661010083613853565b6000918252602093909352604090208054600190931b90921790915550565b60008160a0015161ffff1660001480612bb35750816040015164ffffffffff16826060015164ffffffffff16145b15612bc057506000610d1a565b6001600160a01b0384166000908152600a60209081526040808320868452909152908190205490830151606084015164ffffffffff91821691612c05918491166135c4565b03612c14576000915050610d1a565b60008184604001518560600151612c2b91906133b0565b64ffffffffff16612c3c91906135c4565b905060008460a0015161ffff1682612c549190613402565b905060008560a0015161ffff1683612c6c9190613853565b1115612c7e57612c7b81613719565b90505b80831115612c925760009350505050610d1a565b612c9c83826135c4565b979650505050505050565b600081612cb8633b9aca00856133d5565b610d1a9190613387565b6040805161014081018252600080825260208201819052918101829052606081018290526080810182905260a0810182905260c0810182905260e08101829052610100810182905261012081019190915290565b604051806101c001604052806000815260200160008152602001600081526020016000815260200160008152602001600081526020016000815260200160006001600160a01b031681526020016000815260200160006001600160a01b0316815260200160008019168152602001600081526020016000151581526020016000151581525090565b6001600160a01b0381168114612db357600080fd5b50565b8035612a1681612d9e565b600060208284031215612dd357600080fd5b8135610d1a81612d9e565b60008060408385031215612df157600080fd5b8235612dfc81612d9e565b946020939093013593505050565b60008083601f840112612e1c57600080fd5b50813567ffffffffffffffff811115612e3457600080fd5b6020830191508360208260051b8501011115612e4f57600080fd5b9250929050565b600080600060408486031215612e6b57600080fd5b8335612e7681612d9e565b9250602084013567ffffffffffffffff811115612e9257600080fd5b612e9e86828701612e0a565b9497909650939450505050565b60008060208385031215612ebe57600080fd5b823567ffffffffffffffff811115612ed557600080fd5b612ee185828601612e0a565b90969095509350505050565b600080600060608486031215612f0257600080fd5b8335612f0d81612d9e565b92506020840135612f1d81612d9e565b929592945050506040919091013590565b600060208284031215612f4057600080fd5b5035919050565b60008060208385031215612f5a57600080fd5b823567ffffffffffffffff80821115612f7257600080fd5b818501915085601f830112612f8657600080fd5b813581811115612f9557600080fd5b8660206101c083028501011115612fab57600080fd5b60209290920196919550909350505050565b600081518084526020808501945080840160005b83811015612fed57815187529582019590820190600101612fd1565b509495945050505050565b602081526000610d1a6020830184612fbd565b6000806040838503121561301e57600080fd5b50508035926020909101359150565b6000806020838503121561304057600080fd5b823567ffffffffffffffff8082111561305857600080fd5b818501915085601f83011261306c57600080fd5b81358181111561307b57600080fd5b866020828501011115612fab57600080fd5b805182526020810151602083015260408101516040830152606081015160608301526080810151608083015260a081015160a083015260c081015160c083015260e08101516130e760e08401826001600160a01b03169052565b506101008181015190830152610120808201516001600160a01b03169083015261014080820151908301526101608082015190830152610180808201511515908301526101a0908101511515910152565b6101c08101610a01828461308d565b6000806040838503121561315a57600080fd5b82359150602083013561316c81612d9e565b809150509250929050565b6000806040838503121561318a57600080fd5b823561319581612d9e565b9150602083013561316c81612d9e565b600060208083528351808285015260005b818110156131d2578581018301518582016040015282016131b6565b506000604082860101526040601f19601f8301168501019250505092915050565b60008060006060848603121561320857600080fd5b83359250602084013561321a81612d9e565b9150604084013561322a81612d9e565b809150509250925092565b60006080828403121561324757600080fd5b50919050565b6000806000806080858703121561326357600080fd5b843561326e81612d9e565b966020860135965060408601359560600135945092505050565b6020808252825182820181905260009190848201906040850190845b818110156132cb576132b783855161308d565b928401926101c092909201916001016132a4565b50909695505050505050565b8015158114612db357600080fd5b8035612a16816132d7565b6000806000806060858703121561330657600080fd5b84359350602085013567ffffffffffffffff81111561332457600080fd5b61333087828801612e0a565b9094509250506040850135613344816132d7565b939692955090935050565b6040815260006133626040830185612fbd565b90508260208301529392505050565b634e487b7160e01b600052601160045260246000fd5b80820180821115610a0157610a01613371565b634e487b7160e01b600052603260045260246000fd5b64ffffffffff8281168282160390808211156133ce576133ce613371565b5092915050565b8082028115828204841417610a0157610a01613371565b634e487b7160e01b600052601260045260246000fd5b600082613411576134116133ec565b500490565b634e487b7160e01b600052604160045260246000fd5b6040516101c0810167ffffffffffffffff8111828210171561345057613450613416565b60405290565b80356001600160501b0381168114612a1657600080fd5b803565ffffffffffff81168114612a1657600080fd5b803564ffffffffff81168114612a1657600080fd5b803561ffff81168114612a1657600080fd5b803560ff81168114612a1657600080fd5b60006101c082840312156134ce57600080fd5b6134d661342c565b6134df83613456565b81526134ed6020840161346d565b60208201526134fe60408401613483565b604082015261350f60608401613498565b606082015261352060808401613498565b608082015261353160a08401612db6565b60a082015261354260c084016134aa565b60c082015261355360e08401612db6565b60e082015261010083810135908201526101206135718185016134aa565b908201526101406135838482016132e5565b908201526101606135958482016132e5565b908201526101806135a78482016132e5565b908201526101a06135b98482016132e5565b908201529392505050565b81810381811115610a0157610a01613371565b600181811c908216806135eb57607f821691505b60208210810361324757634e487b7160e01b600052602260045260246000fd5b601f82111561187e57600081815260208120601f850160051c810160208610156136325750805b601f850160051c820191505b818110156136515782815560010161363e565b505050505050565b67ffffffffffffffff83111561367157613671613416565b6136858361367f83546135d7565b8361360b565b6000601f8411600181146136b957600085156136a15750838201355b600019600387901b1c1916600186901b178355610b2b565b600083815260209020601f19861690835b828110156136ea57868501358255602094850194600190920191016136ca565b50868210156137075760001960f88860031b161c19848701351681555b505060018560011b0183555050505050565b60006001820161372b5761372b613371565b5060010190565b600064ffffffffff80831681810361374c5761374c613371565b6001019392505050565b600064ffffffffff82168061376d5761376d613371565b6000190192915050565b60008161378657613786613371565b506000190190565b60008135610a01816132d7565b81356137a6816132d7565b815460ff19811691151560ff16918217835560208401356137c6816132d7565b61ff0090151560081b1661ffff19821683178117845560408501356137ea816132d7565b62ff000081151560101b168462ffffff198516178317178555505050506138346138166060840161378e565b82805463ff000000191691151560181b63ff00000016919091179055565b5050565b60006020828403121561384a57600080fd5b610d1a82613498565b600082613862576138626133ec565b50069056fea264697066735822122033f2a2937ab3d7defeeecc2ba5970d460503ad0a07a24d151630f64c7cceca1564736f6c63430008110033",
    "linkReferences": {}
  },
  "methodIdentifiers": {
    "balanceOf(address,address)": "f7888aec",
    "baseUriOf(address)": "f682eeaf",
    "cleanTiers(address)": "086bb19a",
    "contractUriOf(address)": "aab0cd80",
    "defaultReservedTokenBeneficiaryOf(address)": "911c80b5",
    "defaultRoyaltyBeneficiaryOf(address)": "15fa7dff",
    "encodedIPFSUriOf(address,uint256)": "bd51923c",
    "encodedTierIPFSUriOf(address,uint256)": "c8df1710",
    "firstOwnerOf(address,uint256)": "8ed6c010",
    "flagsOf(address)": "845104de",
    "isTierRemoved(address,uint256)": "5f646611",
    "maxTierIdOf(address)": "f1bea54f",
    "numberOfBurnedFor(address,uint256)": "2b7e6ef0",
    "numberOfReservedTokensOutstandingFor(address,uint256)": "35314b92",
    "numberOfReservesMintedFor(address,uint256)": "6825bb80",
    "recordAddTiers((uint80,uint48,uint40,uint16,uint16,address,uint8,address,bytes32,uint8,bool,bool,bool,bool)[])": "453b5abe",
    "recordBurn(uint256[])": "86bc2be3",
    "recordFlags((bool,bool,bool,bool))": "cb827e32",
    "recordMint(uint256,uint16[],bool)": "eaa19ab3",
    "recordMintReservesFor(uint256,uint256)": "baa7e80e",
    "recordRemoveTierIds(uint256[])": "20512ba1",
    "recordSetBaseUri(string)": "6262bcb2",
    "recordSetContractUri(string)": "d67b78fd",
    "recordSetDefaultReservedTokenBeneficiary(address)": "17161f7d",
    "recordSetEncodedIPFSUriOf(uint256,bytes32)": "49bd1ac6",
    "recordSetFirstOwnerOf(uint256,address)": "8cec7d39",
    "recordSetTokenUriResolver(address)": "d84a72c0",
    "recordTransferForTier(uint256,address,address)": "c2c55f94",
    "redemptionWeightOf(address,uint256[])": "144cc2d4",
    "reservedTokenBeneficiaryOf(address,uint256)": "136e651c",
    "royaltyBeneficiaryOf(address,uint256)": "f25abeda",
    "tier(address,uint256)": "7473c9a2",
    "tierBalanceOf(address,address,uint256)": "37f44652",
    "tierIdOfToken(uint256)": "42f9914b",
    "tierOfTokenId(address,uint256)": "b67cb047",
    "tierVotingUnitsOf(address,address,uint256)": "2e4d0ea8",
    "tiers(address,uint256,uint256,uint256)": "d65981a9",
    "tokenUriResolverOf(address)": "0fab0947",
    "totalRedemptionWeight(address)": "2ae5e492",
    "totalSupply(address)": "e4dc2aa4",
    "votingUnitsOf(address,address)": "93355578"
  },
  "id": 35
}