{
  "abi": [
    {
      "inputs": [],
      "name": "InvalidRequestsLength",
      "type": "error"
    },
    {
      "inputs": [],
      "name": "HTML_BASE64_DATA_URI_BYTES",
      "outputs": [
        {
          "internalType": "uint256",
          "name": "",
          "type": "uint256"
        }
      ],
      "stateMutability": "view",
      "type": "function"
    },
    {
      "inputs": [],
      "name": "HTML_BODY_CLOSED_RAW",
      "outputs": [
        {
          "internalType": "bytes",
          "name": "",
          "type": "bytes"
        }
      ],
      "stateMutability": "view",
      "type": "function"
    },
    {
      "inputs": [],
      "name": "HTML_BODY_CLOSED_URL_SAFE",
      "outputs": [
        {
          "internalType": "bytes",
          "name": "",
          "type": "bytes"
        }
      ],
      "stateMutability": "view",
      "type": "function"
    },
    {
      "inputs": [],
      "name": "HTML_BODY_OPEN_RAW",
      "outputs": [
        {
          "internalType": "bytes",
          "name": "",
          "type": "bytes"
        }
      ],
      "stateMutability": "view",
      "type": "function"
    },
    {
      "inputs": [],
      "name": "HTML_BODY_OPEN_URL_SAFE",
      "outputs": [
        {
          "internalType": "bytes",
          "name": "",
          "type": "bytes"
        }
      ],
      "stateMutability": "view",
      "type": "function"
    },
    {
      "inputs": [],
      "name": "HTML_TAG_RAW",
      "outputs": [
        {
          "internalType": "bytes",
          "name": "",
          "type": "bytes"
        }
      ],
      "stateMutability": "view",
      "type": "function"
    },
    {
      "inputs": [],
      "name": "HTML_TAG_URL_SAFE",
      "outputs": [
        {
          "internalType": "bytes",
          "name": "",
          "type": "bytes"
        }
      ],
      "stateMutability": "view",
      "type": "function"
    },
    {
      "inputs": [],
      "name": "SCRIPT_INLINE_BYTES",
      "outputs": [
        {
          "internalType": "uint256",
          "name": "",
          "type": "uint256"
        }
      ],
      "stateMutability": "view",
      "type": "function"
    },
    {
      "inputs": [],
      "name": "URLS_RAW_BYTES",
      "outputs": [
        {
          "internalType": "uint256",
          "name": "",
          "type": "uint256"
        }
      ],
      "stateMutability": "view",
      "type": "function"
    },
    {
      "inputs": [],
      "name": "URLS_SAFE_BYTES",
      "outputs": [
        {
          "internalType": "uint256",
          "name": "",
          "type": "uint256"
        }
      ],
      "stateMutability": "view",
      "type": "function"
    },
    {
      "inputs": [
        {
          "components": [
            {
              "internalType": "string",
              "name": "name",
              "type": "string"
            },
            {
              "internalType": "address",
              "name": "contractAddress",
              "type": "address"
            },
            {
              "internalType": "bytes",
              "name": "contractData",
              "type": "bytes"
            },
            {
              "internalType": "bytes",
              "name": "scriptContent",
              "type": "bytes"
            }
          ],
          "internalType": "struct InlineScriptRequest[]",
          "name": "requests",
          "type": "tuple[]"
        }
      ],
      "name": "getBufferSizeForEncodedHTMLInline",
      "outputs": [
        {
          "internalType": "uint256",
          "name": "",
          "type": "uint256"
        }
      ],
      "stateMutability": "view",
      "type": "function"
    },
    {
      "inputs": [
        {
          "components": [
            {
              "internalType": "string",
              "name": "name",
              "type": "string"
            },
            {
              "internalType": "address",
              "name": "contractAddress",
              "type": "address"
            },
            {
              "internalType": "bytes",
              "name": "contractData",
              "type": "bytes"
            },
            {
              "internalType": "uint8",
              "name": "wrapType",
              "type": "uint8"
            },
            {
              "internalType": "bytes",
              "name": "wrapPrefix",
              "type": "bytes"
            },
            {
              "internalType": "bytes",
              "name": "wrapSuffix",
              "type": "bytes"
            },
            {
              "internalType": "bytes",
              "name": "scriptContent",
              "type": "bytes"
            }
          ],
          "internalType": "struct WrappedScriptRequest[]",
          "name": "requests",
          "type": "tuple[]"
        }
      ],
      "name": "getBufferSizeForEncodedHTMLWrapped",
      "outputs": [
        {
          "internalType": "uint256",
          "name": "",
          "type": "uint256"
        }
      ],
      "stateMutability": "view",
      "type": "function"
    },
    {
      "inputs": [
        {
          "components": [
            {
              "internalType": "string",
              "name": "name",
              "type": "string"
            },
            {
              "internalType": "address",
              "name": "contractAddress",
              "type": "address"
            },
            {
              "internalType": "bytes",
              "name": "contractData",
              "type": "bytes"
            },
            {
              "internalType": "bytes",
              "name": "scriptContent",
              "type": "bytes"
            }
          ],
          "internalType": "struct InlineScriptRequest[]",
          "name": "requests",
          "type": "tuple[]"
        }
      ],
      "name": "getBufferSizeForHTMLInline",
      "outputs": [
        {
          "internalType": "uint256",
          "name": "",
          "type": "uint256"
        }
      ],
      "stateMutability": "view",
      "type": "function"
    },
    {
      "inputs": [
        {
          "components": [
            {
              "internalType": "string",
              "name": "name",
              "type": "string"
            },
            {
              "internalType": "address",
              "name": "contractAddress",
              "type": "address"
            },
            {
              "internalType": "bytes",
              "name": "contractData",
              "type": "bytes"
            },
            {
              "internalType": "uint8",
              "name": "wrapType",
              "type": "uint8"
            },
            {
              "internalType": "bytes",
              "name": "wrapPrefix",
              "type": "bytes"
            },
            {
              "internalType": "bytes",
              "name": "wrapSuffix",
              "type": "bytes"
            },
            {
              "internalType": "bytes",
              "name": "scriptContent",
              "type": "bytes"
            }
          ],
          "internalType": "struct WrappedScriptRequest[]",
          "name": "requests",
          "type": "tuple[]"
        }
      ],
      "name": "getBufferSizeForHTMLWrapped",
      "outputs": [
        {
          "internalType": "uint256",
          "name": "",
          "type": "uint256"
        }
      ],
      "stateMutability": "view",
      "type": "function"
    },
    {
      "inputs": [
        {
          "components": [
            {
              "internalType": "string",
              "name": "name",
              "type": "string"
            },
            {
              "internalType": "address",
              "name": "contractAddress",
              "type": "address"
            },
            {
              "internalType": "bytes",
              "name": "contractData",
              "type": "bytes"
            },
            {
              "internalType": "uint8",
              "name": "wrapType",
              "type": "uint8"
            },
            {
              "internalType": "bytes",
              "name": "wrapPrefix",
              "type": "bytes"
            },
            {
              "internalType": "bytes",
              "name": "wrapSuffix",
              "type": "bytes"
            },
            {
              "internalType": "bytes",
              "name": "scriptContent",
              "type": "bytes"
            }
          ],
          "internalType": "struct WrappedScriptRequest[]",
          "name": "requests",
          "type": "tuple[]"
        }
      ],
      "name": "getBufferSizeForURLSafeHTMLWrapped",
      "outputs": [
        {
          "internalType": "uint256",
          "name": "",
          "type": "uint256"
        }
      ],
      "stateMutability": "view",
      "type": "function"
    },
    {
      "inputs": [
        {
          "components": [
            {
              "internalType": "string",
              "name": "name",
              "type": "string"
            },
            {
              "internalType": "address",
              "name": "contractAddress",
              "type": "address"
            },
            {
              "internalType": "bytes",
              "name": "contractData",
              "type": "bytes"
            },
            {
              "internalType": "bytes",
              "name": "scriptContent",
              "type": "bytes"
            }
          ],
          "internalType": "struct InlineScriptRequest[]",
          "name": "requests",
          "type": "tuple[]"
        },
        {
          "internalType": "uint256",
          "name": "bufferSize",
          "type": "uint256"
        }
      ],
      "name": "getEncodedHTMLInline",
      "outputs": [
        {
          "internalType": "bytes",
          "name": "",
          "type": "bytes"
        }
      ],
      "stateMutability": "view",
      "type": "function"
    },
    {
      "inputs": [
        {
          "components": [
            {
              "internalType": "string",
              "name": "name",
              "type": "string"
            },
            {
              "internalType": "address",
              "name": "contractAddress",
              "type": "address"
            },
            {
              "internalType": "bytes",
              "name": "contractData",
              "type": "bytes"
            },
            {
              "internalType": "bytes",
              "name": "scriptContent",
              "type": "bytes"
            }
          ],
          "internalType": "struct InlineScriptRequest[]",
          "name": "requests",
          "type": "tuple[]"
        },
        {
          "internalType": "uint256",
          "name": "bufferSize",
          "type": "uint256"
        }
      ],
      "name": "getEncodedHTMLInlineString",
      "outputs": [
        {
          "internalType": "string",
          "name": "",
          "type": "string"
        }
      ],
      "stateMutability": "view",
      "type": "function"
    },
    {
      "inputs": [
        {
          "components": [
            {
              "internalType": "string",
              "name": "name",
              "type": "string"
            },
            {
              "internalType": "address",
              "name": "contractAddress",
              "type": "address"
            },
            {
              "internalType": "bytes",
              "name": "contractData",
              "type": "bytes"
            },
            {
              "internalType": "uint8",
              "name": "wrapType",
              "type": "uint8"
            },
            {
              "internalType": "bytes",
              "name": "wrapPrefix",
              "type": "bytes"
            },
            {
              "internalType": "bytes",
              "name": "wrapSuffix",
              "type": "bytes"
            },
            {
              "internalType": "bytes",
              "name": "scriptContent",
              "type": "bytes"
            }
          ],
          "internalType": "struct WrappedScriptRequest[]",
          "name": "requests",
          "type": "tuple[]"
        },
        {
          "internalType": "uint256",
          "name": "bufferSize",
          "type": "uint256"
        }
      ],
      "name": "getEncodedHTMLWrapped",
      "outputs": [
        {
          "internalType": "bytes",
          "name": "",
          "type": "bytes"
        }
      ],
      "stateMutability": "view",
      "type": "function"
    },
    {
      "inputs": [
        {
          "components": [
            {
              "internalType": "string",
              "name": "name",
              "type": "string"
            },
            {
              "internalType": "address",
              "name": "contractAddress",
              "type": "address"
            },
            {
              "internalType": "bytes",
              "name": "contractData",
              "type": "bytes"
            },
            {
              "internalType": "uint8",
              "name": "wrapType",
              "type": "uint8"
            },
            {
              "internalType": "bytes",
              "name": "wrapPrefix",
              "type": "bytes"
            },
            {
              "internalType": "bytes",
              "name": "wrapSuffix",
              "type": "bytes"
            },
            {
              "internalType": "bytes",
              "name": "scriptContent",
              "type": "bytes"
            }
          ],
          "internalType": "struct WrappedScriptRequest[]",
          "name": "requests",
          "type": "tuple[]"
        },
        {
          "internalType": "uint256",
          "name": "bufferSize",
          "type": "uint256"
        }
      ],
      "name": "getEncodedHTMLWrappedString",
      "outputs": [
        {
          "internalType": "string",
          "name": "",
          "type": "string"
        }
      ],
      "stateMutability": "view",
      "type": "function"
    },
    {
      "inputs": [
        {
          "components": [
            {
              "internalType": "string",
              "name": "name",
              "type": "string"
            },
            {
              "internalType": "address",
              "name": "contractAddress",
              "type": "address"
            },
            {
              "internalType": "bytes",
              "name": "contractData",
              "type": "bytes"
            },
            {
              "internalType": "bytes",
              "name": "scriptContent",
              "type": "bytes"
            }
          ],
          "internalType": "struct InlineScriptRequest[]",
          "name": "requests",
          "type": "tuple[]"
        },
        {
          "internalType": "uint256",
          "name": "bufferSize",
          "type": "uint256"
        }
      ],
      "name": "getHTMLInline",
      "outputs": [
        {
          "internalType": "bytes",
          "name": "",
          "type": "bytes"
        }
      ],
      "stateMutability": "view",
      "type": "function"
    },
    {
      "inputs": [
        {
          "components": [
            {
              "internalType": "string",
              "name": "name",
              "type": "string"
            },
            {
              "internalType": "address",
              "name": "contractAddress",
              "type": "address"
            },
            {
              "internalType": "bytes",
              "name": "contractData",
              "type": "bytes"
            },
            {
              "internalType": "bytes",
              "name": "scriptContent",
              "type": "bytes"
            }
          ],
          "internalType": "struct InlineScriptRequest[]",
          "name": "requests",
          "type": "tuple[]"
        },
        {
          "internalType": "uint256",
          "name": "bufferSize",
          "type": "uint256"
        }
      ],
      "name": "getHTMLInlineString",
      "outputs": [
        {
          "internalType": "string",
          "name": "",
          "type": "string"
        }
      ],
      "stateMutability": "view",
      "type": "function"
    },
    {
      "inputs": [
        {
          "components": [
            {
              "internalType": "string",
              "name": "name",
              "type": "string"
            },
            {
              "internalType": "address",
              "name": "contractAddress",
              "type": "address"
            },
            {
              "internalType": "bytes",
              "name": "contractData",
              "type": "bytes"
            },
            {
              "internalType": "uint8",
              "name": "wrapType",
              "type": "uint8"
            },
            {
              "internalType": "bytes",
              "name": "wrapPrefix",
              "type": "bytes"
            },
            {
              "internalType": "bytes",
              "name": "wrapSuffix",
              "type": "bytes"
            },
            {
              "internalType": "bytes",
              "name": "scriptContent",
              "type": "bytes"
            }
          ],
          "internalType": "struct WrappedScriptRequest[]",
          "name": "requests",
          "type": "tuple[]"
        },
        {
          "internalType": "uint256",
          "name": "bufferSize",
          "type": "uint256"
        }
      ],
      "name": "getHTMLWrapped",
      "outputs": [
        {
          "internalType": "bytes",
          "name": "",
          "type": "bytes"
        }
      ],
      "stateMutability": "view",
      "type": "function"
    },
    {
      "inputs": [
        {
          "components": [
            {
              "internalType": "string",
              "name": "name",
              "type": "string"
            },
            {
              "internalType": "address",
              "name": "contractAddress",
              "type": "address"
            },
            {
              "internalType": "bytes",
              "name": "contractData",
              "type": "bytes"
            },
            {
              "internalType": "uint8",
              "name": "wrapType",
              "type": "uint8"
            },
            {
              "internalType": "bytes",
              "name": "wrapPrefix",
              "type": "bytes"
            },
            {
              "internalType": "bytes",
              "name": "wrapSuffix",
              "type": "bytes"
            },
            {
              "internalType": "bytes",
              "name": "scriptContent",
              "type": "bytes"
            }
          ],
          "internalType": "struct WrappedScriptRequest[]",
          "name": "requests",
          "type": "tuple[]"
        },
        {
          "internalType": "uint256",
          "name": "bufferSize",
          "type": "uint256"
        }
      ],
      "name": "getHTMLWrappedString",
      "outputs": [
        {
          "internalType": "string",
          "name": "",
          "type": "string"
        }
      ],
      "stateMutability": "view",
      "type": "function"
    },
    {
      "inputs": [
        {
          "components": [
            {
              "internalType": "string",
              "name": "name",
              "type": "string"
            },
            {
              "internalType": "address",
              "name": "contractAddress",
              "type": "address"
            },
            {
              "internalType": "bytes",
              "name": "contractData",
              "type": "bytes"
            },
            {
              "internalType": "uint8",
              "name": "wrapType",
              "type": "uint8"
            },
            {
              "internalType": "bytes",
              "name": "wrapPrefix",
              "type": "bytes"
            },
            {
              "internalType": "bytes",
              "name": "wrapSuffix",
              "type": "bytes"
            },
            {
              "internalType": "bytes",
              "name": "scriptContent",
              "type": "bytes"
            }
          ],
          "internalType": "struct WrappedScriptRequest[]",
          "name": "requests",
          "type": "tuple[]"
        },
        {
          "internalType": "uint256",
          "name": "bufferSize",
          "type": "uint256"
        }
      ],
      "name": "getHTMLWrappedURLSafe",
      "outputs": [
        {
          "internalType": "bytes",
          "name": "",
          "type": "bytes"
        }
      ],
      "stateMutability": "view",
      "type": "function"
    },
    {
      "inputs": [
        {
          "components": [
            {
              "internalType": "string",
              "name": "name",
              "type": "string"
            },
            {
              "internalType": "address",
              "name": "contractAddress",
              "type": "address"
            },
            {
              "internalType": "bytes",
              "name": "contractData",
              "type": "bytes"
            },
            {
              "internalType": "bytes",
              "name": "scriptContent",
              "type": "bytes"
            }
          ],
          "internalType": "struct InlineScriptRequest",
          "name": "request",
          "type": "tuple"
        }
      ],
      "name": "getInlineScriptSize",
      "outputs": [
        {
          "internalType": "uint256",
          "name": "",
          "type": "uint256"
        }
      ],
      "stateMutability": "view",
      "type": "function"
    },
    {
      "inputs": [
        {
          "components": [
            {
              "internalType": "string",
              "name": "name",
              "type": "string"
            },
            {
              "internalType": "address",
              "name": "contractAddress",
              "type": "address"
            },
            {
              "internalType": "bytes",
              "name": "contractData",
              "type": "bytes"
            },
            {
              "internalType": "uint8",
              "name": "wrapType",
              "type": "uint8"
            },
            {
              "internalType": "bytes",
              "name": "wrapPrefix",
              "type": "bytes"
            },
            {
              "internalType": "bytes",
              "name": "wrapSuffix",
              "type": "bytes"
            },
            {
              "internalType": "bytes",
              "name": "scriptContent",
              "type": "bytes"
            }
          ],
          "internalType": "struct WrappedScriptRequest[]",
          "name": "requests",
          "type": "tuple[]"
        },
        {
          "internalType": "uint256",
          "name": "bufferSize",
          "type": "uint256"
        }
      ],
      "name": "getURLSafeHTMLWrappedString",
      "outputs": [
        {
          "internalType": "string",
          "name": "",
          "type": "string"
        }
      ],
      "stateMutability": "view",
      "type": "function"
    },
    {
      "inputs": [
        {
          "components": [
            {
              "internalType": "string",
              "name": "name",
              "type": "string"
            },
            {
              "internalType": "address",
              "name": "contractAddress",
              "type": "address"
            },
            {
              "internalType": "bytes",
              "name": "contractData",
              "type": "bytes"
            },
            {
              "internalType": "uint8",
              "name": "wrapType",
              "type": "uint8"
            },
            {
              "internalType": "bytes",
              "name": "wrapPrefix",
              "type": "bytes"
            },
            {
              "internalType": "bytes",
              "name": "wrapSuffix",
              "type": "bytes"
            },
            {
              "internalType": "bytes",
              "name": "scriptContent",
              "type": "bytes"
            }
          ],
          "internalType": "struct WrappedScriptRequest",
          "name": "request",
          "type": "tuple"
        }
      ],
      "name": "getURLSafeWrappedScriptSize",
      "outputs": [
        {
          "internalType": "uint256",
          "name": "",
          "type": "uint256"
        }
      ],
      "stateMutability": "view",
      "type": "function"
    },
    {
      "inputs": [
        {
          "components": [
            {
              "internalType": "string",
              "name": "name",
              "type": "string"
            },
            {
              "internalType": "address",
              "name": "contractAddress",
              "type": "address"
            },
            {
              "internalType": "bytes",
              "name": "contractData",
              "type": "bytes"
            },
            {
              "internalType": "uint8",
              "name": "wrapType",
              "type": "uint8"
            },
            {
              "internalType": "bytes",
              "name": "wrapPrefix",
              "type": "bytes"
            },
            {
              "internalType": "bytes",
              "name": "wrapSuffix",
              "type": "bytes"
            },
            {
              "internalType": "bytes",
              "name": "scriptContent",
              "type": "bytes"
            }
          ],
          "internalType": "struct WrappedScriptRequest",
          "name": "request",
          "type": "tuple"
        }
      ],
      "name": "getWrappedScriptSize",
      "outputs": [
        {
          "internalType": "uint256",
          "name": "",
          "type": "uint256"
        }
      ],
      "stateMutability": "view",
      "type": "function"
    }
  ],
  "bytecode": {
    "object": "0x60808060405234610016576116ee908161001c8239f35b600080fdfe6080604052600436101561001257600080fd5b60003560e01c8063053f1eb0146101be57806333a656c1146101b957806334c3c9d51461016e578063479751c31461019657806349a6b847146101b45780634ce2f931146101af578063529df5d7146101aa578063668db168146101a557806368e1644a146101a05780637510ac241461019b5780637603465f146101645780637ea050061461019657806387598e52146101915780639a7f08e0146101785780639e7083301461018c578063a0a5eeac14610187578063b4f7d41e14610169578063b8108e3014610182578063b97e52da1461017d578063ba69524d14610178578063bee84ae314610173578063c03f39cd1461016e578063c71dd02614610169578063c8d00e0514610164578063cab6a3f31461015f578063d602d7d01461015a578063e572b8a0146101555763f051dcf81461015057600080fd5b610b26565b610ae0565b610a65565b610a15565b6107c9565b610887565b610406565b6109f9565b6107f9565b6109e6565b6109d3565b61085a565b61083e565b6107dd565b610467565b6107ad565b610716565b6106fe565b6105be565b6104bf565b610481565b6103b3565b61031c565b634e487b7160e01b600052604160045260246000fd5b608081019081106001600160401b038211176101f457604052565b6101c3565b604081019081106001600160401b038211176101f457604052565b606081019081106001600160401b038211176101f457604052565b60a081019081106001600160401b038211176101f457604052565b90601f801991011681019081106001600160401b038211176101f457604052565b6040519060e082018281106001600160401b038211176101f457604052565b6001600160401b0381116101f457601f01601f191660200190565b604051906102b2826101f9565b601382527225323533432532353246626f6479253235334560681b6020830152565b60005b8381106102e75750506000910152565b81810151838201526020016102d7565b90602091610310815180928185528580860191016102d4565b601f01601f1916010190565b346103505760003660031901126103505761034c6103386102a5565b6040519182916020835260208301906102f7565b0390f35b600080fd5b9181601f84011215610350578235916001600160401b038311610350576020808501948460051b01011161035057565b602060031982011261035057600435906001600160401b038211610350576103af91600401610355565b9091565b346103505760206103cc6103c636610385565b90610ef2565b604051908152f35b604060031982011261035057600435906001600160401b038211610350576103fe91600401610355565b909160243590565b346103505761034c61042061041a366103d4565b91610bd3565b61033861044f600360028451010460021b60160160209060408051916060818401018252018152016000815290565b9161046161045b610e0a565b84611500565b82611544565b346103505761034c61042061047b366103d4565b91610d34565b3461035057600036600319011261035057602060405160118152f35b604051906104aa826101f9565b60068252651e343a36b61f60d11b6020830152565b346103505760003660031901126103505761034c61033861049d565b81601f82011215610350578035906104f28261028a565b92610500604051948561024a565b8284526020838301011161035057816000926020809301838601378301015290565b35906001600160a01b038216820361035057565b9190608083820312610350576040519061054f826101d9565b81938035916001600160401b039283811161035057816105709184016104db565b845261057e60208301610522565b60208501526040820135838111610350578161059b9184016104db565b60408501526060820135928311610350576060926105b992016104db565b910152565b34610350576020366003190112610350576004356001600160401b038111610350576103cc6105f36020923690600401610536565b610e3c565b359060ff8216820361035057565b91909160e0818403126103505761061b61026b565b926001600160401b03823581811161035057826106399185016104db565b855261064760208401610522565b6020860152604083013581811161035057826106649185016104db565b6040860152610675606084016105f8565b6060860152608083013581811161035057826106929185016104db565b608086015260a083013581811161035057826106af9185016104db565b60a086015260c0830135908111610350576106ca92016104db565b60c0830152565b602060031982011261035057600435906001600160401b038211610350576106fb91600401610606565b90565b346103505760206103cc610711366106d1565b610e64565b346103505761072436610385565b906000918290610732610b42565b5080610747575b602084606060405191018152f35b92919060019384805b61075f575b5050829350610739565b93859192939415610794575b60009061078a6107853661078088888b610ba1565b610606565b610e9d565b0194939291610750565b920191818310156107a657849061076b565b9280610755565b3461035057600036600319011261035057602060405160168152f35b346103505761034c61033861041a366103d4565b34610350576000366003190112610350576020604051602c8152f35b346103505761034c61033861047b366103d4565b6040519061081a826101f9565b6015825274646174612533417465787425324668746d6c25324360581b6020830152565b346103505760003660031901126103505761034c61033861080d565b346103505760206003600261087761087136610385565b90610f70565b010460021b601601604051908152f35b3461035057610895366103d4565b819291156109c1576108bc9060209060408051916060818401018252018152016000815290565b916108c861045b61080d565b6108d361045b610a81565b6108db610b42565b5060009182600180805b6108ff575b61034c876103386108f96102a5565b82611500565b156109b0575b818161098261093161092061091b8a8a8a610ba1565b610bc8565b610929816113ff565b92908c611500565b610948610942606083015160ff1690565b60ff1690565b610987578051602082015161097c9261097692916001600160a01b03165b60c0604083015192015192610fe9565b8b611544565b89611500565b6108e5565b805160208201516109ab926109a592916001600160a01b0316610966565b8b611500565b61097c565b8094019383851061090557806108ea565b604051632a553e1560e11b8152600490fd5b346103505760206103cc610785366106d1565b346103505760206103cc61087136610385565b3461035057600036600319011261035057602060405160608152f35b34610350576020600360026108776103c636610385565b60405190610a39826101f9565b601882527f3c626f6479207374796c653d276d617267696e3a303b273e00000000000000006020830152565b346103505760003660031901126103505761034c610338610a2c565b60405190610a8e82610214565b603882527f67696e25323533413025323533422532353237253235334500000000000000006040837f2532353343626f647925323532307374796c65253235334425323532376d617260208201520152565b346103505760003660031901126103505761034c610338610a81565b60405190610b09826101f9565b600e82526d1e17b137b23c9f1e17b43a36b61f60911b6020830152565b346103505760003660031901126103505761034c610338610afc565b6040519060e082018281106001600160401b038211176101f4576040528160c0606091828152600060208201528260408201526000838201528260808201528260a08201520152565b634e487b7160e01b600052603260045260246000fd5b9190811015610bc35760051b8101359060de1981360301821215610350570190565b610b8b565b6106fb903690610606565b909182156109c157610bfa9060209060408051916060818401018252018152016000815290565b91610c0661045b61049d565b610c1161045b610a2c565b610c19610b42565b5060009182600180805b610c39575b5050505050506106fb6108f9610afc565b15610c88575b8181610c838861097c6109a5610c5961091b8c8c8c610ba1565b610c6b610c6582611232565b95611500565b805160208201519091906001600160a01b0316610966565b610c23565b80940193838510610c3f5780610c28565b60405190610ca6826101f9565b60088252671e39b1b934b83a1f60c11b6020830152565b60405190610cca826101d9565b60608083818152600060208201528160408201520152565b9190811015610bc35760051b81013590607e1981360301821215610350570190565b6106fb903690610536565b60405190610d1c826101f9565b60098252681e17b9b1b934b83a1f60b91b6020830152565b909182156109c157610d5b9060209060408051916060818401018252018152016000815290565b91610d6761045b61049d565b610d7261045b610a2c565b610d7d61045b610c99565b610d85610cbd565b5060009182600180805b610db0575b505050505050610da56108f9610d0f565b6106fb6108f9610afc565b15610df9575b8181610df461097c610dd1610dcc8a8a8a610ce2565b610d04565b805160208201519091906001600160a01b03166060604083015192015192610fe9565b610d8f565b80940193838510610db65780610d94565b60405190610e17826101f9565b601682527519185d184e9d195e1d0bda1d1b5b0ed8985cd94d8d0b60521b6020830152565b610e609080519060018060a01b036020820151166060604083015192015192610fe9565b5190565b610e93610e7082611232565b91909280519060018060a01b0360208201511660c0604083015192015192610fe9565b5191519051010190565b610ea6816113ff565b9060ff6060610ece855160018060a01b0360208801511660408801519060c089015192610fe9565b519401511615610ee1575b519051010190565b916002600391010460021b91610ed9565b6000918290610eff610cbd565b5080610f0f575b505050603d0190565b92919060019384805b610f27575b5050829350610f06565b93859192939415610f57575b600090610f4d6105f336610f4888888b610ce2565b610536565b0194939291610f18565b92019181831015610f69578490610f33565b9280610f1d565b6000918290610f7d610b42565b5080610f8d575b505050602c0190565b92919060019384805b610fa5575b5050829350610f84565b93859192939415610fd0575b600090610fc66107113661078088888b610ba1565b0194939291610f96565b92019181831015610fe2578490610fb1565b9280610f9b565b91909183516110e157611019929350604051928391633e58d56560e21b83526040600484015260448301906102f7565b93600319828603016024830152818061103560009788966102f7565b03916001600160a01b03165afa9182156110d557809261105457505090565b9091503d8082843e611066818461024a565b8201916020818403126110cd578051906001600160401b0382116110d1570182601f820112156110cd5780519161109c8361028a565b936110aa604051958661024a565b838552602084840101116110ca5750906106fb91602080850191016102d4565b80fd5b5080fd5b8280fd5b604051903d90823e3d90fd5b50505090565b604051906110f4826101d9565b6044825263194d8d0b60e21b6060837f3c73637269707420747970653d22746578742f6a6176617363726970742b706e60208201527f6722207372633d22646174613a746578742f6a6176617363726970743b62617360408201520152565b60405190611160826101f9565b600b82526a111f1e17b9b1b934b83a1f60a91b6020830152565b60405190611187826101d9565b60458252641cd94d8d0b60da1b6060837f3c73637269707420747970653d22746578742f6a6176617363726970742b677a60208201527f697022207372633d22646174613a746578742f6a6176617363726970743b626160408201520152565b604051906111f482610214565b60298252681d0ed8985cd94d8d0b60ba1b6040837f3c736372697074207372633d22646174613a746578742f6a617661736372697060208201520152565b9060ff611243606084015160ff1690565b168061125d57509050611254610c99565b906106fb610d0f565b60018103611279575090506112706111e7565b906106fb611153565b6002810361128c5750905061127061117a565b6003146112a05760a0608083015192015190565b90506112706110e7565b604051906112b7826101f9565b601f82527f25323532322532353345253235334325323532467363726970742532353345006020830152565b604051906112f08261022f565b607d82527f3532466a617661736372697074253235334262617365363425323532430000006080837f253235334373637269707425323532307479706525323533442532353232746560208201527f787425323532466a6176617363726970742532353242677a697025323532322560408201527f323532307372632532353344253235323264617461253235334174657874253260608201520152565b6040519061139b826101d9565b604982526873653634253235324360b81b6060837f253235334373637269707425323532307372632532353344253235323264617460208201527f6125323533417465787425323532466a6176617363726970742532353342626160408201520152565b606081015190919060ff16600181116114265750905061141d61138e565b906106fb6112aa565b600281036114395750905061141d6112e3565b60031461144d5760a0608083015192015190565b905060405161145b8161022f565b607c81527f253235334373637269707425323532307479706525323533442532353232746560208201527f787425323532466a6176617363726970742532353242706e672532353232253260408201527f353230737263253235334425323532326461746125323533417465787425323560608201527f32466a61766173637269707425323533426261736536342532353243000000006080820152906106fb6112aa565b9061150c815183611630565b805190602090818381830192010190828551860101905b82811061153557505050508151019052565b80518252908301908301611523565b815191821561162b5760039260028481830104811b92858306926115688587611630565b604051967f4142434445464748494a4b4c4d4e4f505152535455565758595a616263646566601f52603f61022f197f6768696a6b6c6d6e6f707172737475767778797a303132333435363738392d5f01815260048260208a518b0101948601955b0193828551818160121c165183538181600c1c16516001840153818160061c1651898401531651848201530192848110156116085760049083906115c9565b5050509150506001603d92838115158403531460011b9003538151019052604052565b505050565b603f19601f198201510190519182018092116116a2571061164d57565b60405162461bcd60e51b815260206004820152602760248201527f44796e616d69634275666665723a20417070656e64696e67206f7574206f66206044820152663137bab732399760c91b6064820152608490fd5b634e487b7160e01b600052601160045260246000fdfea2646970667358221220319243e438f0989765a8e9f96061297859eeeb168b315e5f1481df54213e4d9f64736f6c63430008120033",
    "linkReferences": {}
  },
  "methodIdentifiers": {
    "HTML_BASE64_DATA_URI_BYTES()": "7510ac24",
    "HTML_BODY_CLOSED_RAW()": "f051dcf8",
    "HTML_BODY_CLOSED_URL_SAFE()": "053f1eb0",
    "HTML_BODY_OPEN_RAW()": "d602d7d0",
    "HTML_BODY_OPEN_URL_SAFE()": "e572b8a0",
    "HTML_TAG_RAW()": "4ce2f931",
    "HTML_TAG_URL_SAFE()": "9e708330",
    "SCRIPT_INLINE_BYTES()": "49a6b847",
    "URLS_RAW_BYTES()": "87598e52",
    "URLS_SAFE_BYTES()": "bee84ae3",
    "getBufferSizeForEncodedHTMLInline((string,address,bytes,bytes)[])": "cab6a3f3",
    "getBufferSizeForEncodedHTMLWrapped((string,address,bytes,uint8,bytes,bytes,bytes)[])": "a0a5eeac",
    "getBufferSizeForHTMLInline((string,address,bytes,bytes)[])": "33a656c1",
    "getBufferSizeForHTMLWrapped((string,address,bytes,uint8,bytes,bytes,bytes)[])": "b97e52da",
    "getBufferSizeForURLSafeHTMLWrapped((string,address,bytes,uint8,bytes,bytes,bytes)[])": "68e1644a",
    "getEncodedHTMLInline((string,address,bytes,bytes)[],uint256)": "479751c3",
    "getEncodedHTMLInlineString((string,address,bytes,bytes)[],uint256)": "7ea05006",
    "getEncodedHTMLWrapped((string,address,bytes,uint8,bytes,bytes,bytes)[],uint256)": "34c3c9d5",
    "getEncodedHTMLWrappedString((string,address,bytes,uint8,bytes,bytes,bytes)[],uint256)": "c03f39cd",
    "getHTMLInline((string,address,bytes,bytes)[],uint256)": "ba69524d",
    "getHTMLInlineString((string,address,bytes,bytes)[],uint256)": "9a7f08e0",
    "getHTMLWrapped((string,address,bytes,uint8,bytes,bytes,bytes)[],uint256)": "7603465f",
    "getHTMLWrappedString((string,address,bytes,uint8,bytes,bytes,bytes)[],uint256)": "c8d00e05",
    "getHTMLWrappedURLSafe((string,address,bytes,uint8,bytes,bytes,bytes)[],uint256)": "b4f7d41e",
    "getInlineScriptSize((string,address,bytes,bytes))": "529df5d7",
    "getURLSafeHTMLWrappedString((string,address,bytes,uint8,bytes,bytes,bytes)[],uint256)": "c71dd026",
    "getURLSafeWrappedScriptSize((string,address,bytes,uint8,bytes,bytes,bytes))": "b8108e30",
    "getWrappedScriptSize((string,address,bytes,uint8,bytes,bytes,bytes))": "668db168"
  },
  "id": 174
}