{
  "abi": [
    {
      "inputs": [],
      "name": "ETH",
      "outputs": [
        {
          "internalType": "uint256",
          "name": "",
          "type": "uint256"
        }
      ],
      "stateMutability": "pure",
      "type": "function"
    },
    {
      "inputs": [],
      "name": "ETHToken",
      "outputs": [
        {
          "internalType": "address",
          "name": "",
          "type": "address"
        }
      ],
      "stateMutability": "pure",
      "type": "function"
    },
    {
      "inputs": [],
      "name": "MAX_DISCOUNT_RATE",
      "outputs": [
        {
          "internalType": "uint256",
          "name": "",
          "type": "uint256"
        }
      ],
      "stateMutability": "pure",
      "type": "function"
    },
    {
      "inputs": [],
      "name": "MAX_FEE",
      "outputs": [
        {
          "internalType": "uint256",
          "name": "",
          "type": "uint256"
        }
      ],
      "stateMutability": "pure",
      "type": "function"
    },
    {
      "inputs": [],
      "name": "MAX_FEE_DISCOUNT",
      "outputs": [
        {
          "internalType": "uint256",
          "name": "",
          "type": "uint256"
        }
      ],
      "stateMutability": "pure",
      "type": "function"
    },
    {
      "inputs": [],
      "name": "MAX_REDEMPTION_RATE",
      "outputs": [
        {
          "internalType": "uint256",
          "name": "",
          "type": "uint256"
        }
      ],
      "stateMutability": "pure",
      "type": "function"
    },
    {
      "inputs": [],
      "name": "MAX_RESERVED_RATE",
      "outputs": [
        {
          "internalType": "uint256",
          "name": "",
          "type": "uint256"
        }
      ],
      "stateMutability": "pure",
      "type": "function"
    },
    {
      "inputs": [],
      "name": "SPLITS_TOTAL_PERCENT",
      "outputs": [
        {
          "internalType": "uint256",
          "name": "",
          "type": "uint256"
        }
      ],
      "stateMutability": "pure",
      "type": "function"
    },
    {
      "inputs": [],
      "name": "USD",
      "outputs": [
        {
          "internalType": "uint256",
          "name": "",
          "type": "uint256"
        }
      ],
      "stateMutability": "pure",
      "type": "function"
    }
  ],
  "bytecode": {
    "object": "0x6080806040523461001657610160908161001c8239f35b600080fdfe6080604052600436101561001257600080fd5b6000803560e01c806319a9f941146100a05780631bf6c21b146100d05780634bb97042146100c65780635d14fef8146100c65780638322fff2146100aa578063870bc1fd146100a0578063bc063e1a146100a0578063d3c4fca9146100a05763deda20c214610081575b600080fd5b3461009d578060031936011261009d57602060405161eeee8152f35b80fd5b505061007c6100ec565b503461009d578060031936011261009d57602060405160018152f35b505061007c61010c565b503461009d578060031936011261009d57602060405160028152f35b503461007c57600036600319011261007c576020604051633b9aca008152f35b503461007c57600036600319011261007c5760206040516127108152f3fea264697066735822122049f23ec55bbb5583bf8b0b0d05c4fa8ac5222ef3496b179cf7d73bd13c6031bf64736f6c63430008110033",
    "linkReferences": {}
  },
  "methodIdentifiers": {
    "ETH()": "8322fff2",
    "ETHToken()": "deda20c2",
    "MAX_DISCOUNT_RATE()": "870bc1fd",
    "MAX_FEE()": "bc063e1a",
    "MAX_FEE_DISCOUNT()": "19a9f941",
    "MAX_REDEMPTION_RATE()": "4bb97042",
    "MAX_RESERVED_RATE()": "5d14fef8",
    "SPLITS_TOTAL_PERCENT()": "d3c4fca9",
    "USD()": "1bf6c21b"
  },
  "id": 41
}