{
  "abi": [
    {
      "inputs": [
        {
          "internalType": "contract IJBOperatorStore",
          "name": "_operatorStore",
          "type": "address"
        }
      ],
      "stateMutability": "nonpayable",
      "type": "constructor"
    },
    {
      "inputs": [],
      "name": "UNAUTHORIZED",
      "type": "error"
    },
    {
      "anonymous": false,
      "inputs": [
        {
          "indexed": true,
          "internalType": "address",
          "name": "owner",
          "type": "address"
        },
        {
          "indexed": true,
          "internalType": "address",
          "name": "approved",
          "type": "address"
        },
        {
          "indexed": true,
          "internalType": "uint256",
          "name": "tokenId",
          "type": "uint256"
        }
      ],
      "name": "Approval",
      "type": "event"
    },
    {
      "anonymous": false,
      "inputs": [
        {
          "indexed": true,
          "internalType": "address",
          "name": "owner",
          "type": "address"
        },
        {
          "indexed": true,
          "internalType": "address",
          "name": "operator",
          "type": "address"
        },
        {
          "indexed": false,
          "internalType": "bool",
          "name": "approved",
          "type": "bool"
        }
      ],
      "name": "ApprovalForAll",
      "type": "event"
    },
    {
      "anonymous": false,
      "inputs": [
        {
          "indexed": true,
          "internalType": "uint256",
          "name": "projectId",
          "type": "uint256"
        },
        {
          "indexed": true,
          "internalType": "address",
          "name": "owner",
          "type": "address"
        },
        {
          "components": [
            {
              "internalType": "string",
              "name": "content",
              "type": "string"
            },
            {
              "internalType": "uint256",
              "name": "domain",
              "type": "uint256"
            }
          ],
          "indexed": false,
          "internalType": "struct JBProjectMetadata",
          "name": "metadata",
          "type": "tuple"
        },
        {
          "indexed": false,
          "internalType": "address",
          "name": "caller",
          "type": "address"
        }
      ],
      "name": "Create",
      "type": "event"
    },
    {
      "anonymous": false,
      "inputs": [
        {
          "indexed": true,
          "internalType": "address",
          "name": "delegator",
          "type": "address"
        },
        {
          "indexed": true,
          "internalType": "address",
          "name": "fromDelegate",
          "type": "address"
        },
        {
          "indexed": true,
          "internalType": "address",
          "name": "toDelegate",
          "type": "address"
        }
      ],
      "name": "DelegateChanged",
      "type": "event"
    },
    {
      "anonymous": false,
      "inputs": [
        {
          "indexed": true,
          "internalType": "address",
          "name": "delegate",
          "type": "address"
        },
        {
          "indexed": false,
          "internalType": "uint256",
          "name": "previousBalance",
          "type": "uint256"
        },
        {
          "indexed": false,
          "internalType": "uint256",
          "name": "newBalance",
          "type": "uint256"
        }
      ],
      "name": "DelegateVotesChanged",
      "type": "event"
    },
    {
      "anonymous": false,
      "inputs": [
        {
          "indexed": true,
          "internalType": "address",
          "name": "previousOwner",
          "type": "address"
        },
        {
          "indexed": true,
          "internalType": "address",
          "name": "newOwner",
          "type": "address"
        }
      ],
      "name": "OwnershipTransferred",
      "type": "event"
    },
    {
      "anonymous": false,
      "inputs": [
        {
          "indexed": true,
          "internalType": "uint256",
          "name": "projectId",
          "type": "uint256"
        },
        {
          "components": [
            {
              "internalType": "string",
              "name": "content",
              "type": "string"
            },
            {
              "internalType": "uint256",
              "name": "domain",
              "type": "uint256"
            }
          ],
          "indexed": false,
          "internalType": "struct JBProjectMetadata",
          "name": "metadata",
          "type": "tuple"
        },
        {
          "indexed": false,
          "internalType": "address",
          "name": "caller",
          "type": "address"
        }
      ],
      "name": "SetMetadata",
      "type": "event"
    },
    {
      "anonymous": false,
      "inputs": [
        {
          "indexed": true,
          "internalType": "contract IJBTokenUriResolver",
          "name": "resolver",
          "type": "address"
        },
        {
          "indexed": false,
          "internalType": "address",
          "name": "caller",
          "type": "address"
        }
      ],
      "name": "SetTokenUriResolver",
      "type": "event"
    },
    {
      "anonymous": false,
      "inputs": [
        {
          "indexed": true,
          "internalType": "address",
          "name": "from",
          "type": "address"
        },
        {
          "indexed": true,
          "internalType": "address",
          "name": "to",
          "type": "address"
        },
        {
          "indexed": true,
          "internalType": "uint256",
          "name": "tokenId",
          "type": "uint256"
        }
      ],
      "name": "Transfer",
      "type": "event"
    },
    {
      "inputs": [],
      "name": "DOMAIN_SEPARATOR",
      "outputs": [
        {
          "internalType": "bytes32",
          "name": "",
          "type": "bytes32"
        }
      ],
      "stateMutability": "view",
      "type": "function"
    },
    {
      "inputs": [
        {
          "internalType": "address",
          "name": "to",
          "type": "address"
        },
        {
          "internalType": "uint256",
          "name": "tokenId",
          "type": "uint256"
        }
      ],
      "name": "approve",
      "outputs": [],
      "stateMutability": "nonpayable",
      "type": "function"
    },
    {
      "inputs": [
        {
          "internalType": "address",
          "name": "owner",
          "type": "address"
        }
      ],
      "name": "balanceOf",
      "outputs": [
        {
          "internalType": "uint256",
          "name": "",
          "type": "uint256"
        }
      ],
      "stateMutability": "view",
      "type": "function"
    },
    {
      "inputs": [],
      "name": "count",
      "outputs": [
        {
          "internalType": "uint256",
          "name": "",
          "type": "uint256"
        }
      ],
      "stateMutability": "view",
      "type": "function"
    },
    {
      "inputs": [
        {
          "internalType": "address",
          "name": "_owner",
          "type": "address"
        },
        {
          "components": [
            {
              "internalType": "string",
              "name": "content",
              "type": "string"
            },
            {
              "internalType": "uint256",
              "name": "domain",
              "type": "uint256"
            }
          ],
          "internalType": "struct JBProjectMetadata",
          "name": "_metadata",
          "type": "tuple"
        }
      ],
      "name": "createFor",
      "outputs": [
        {
          "internalType": "uint256",
          "name": "projectId",
          "type": "uint256"
        }
      ],
      "stateMutability": "nonpayable",
      "type": "function"
    },
    {
      "inputs": [
        {
          "internalType": "address",
          "name": "delegatee",
          "type": "address"
        }
      ],
      "name": "delegate",
      "outputs": [],
      "stateMutability": "nonpayable",
      "type": "function"
    },
    {
      "inputs": [
        {
          "internalType": "address",
          "name": "delegatee",
          "type": "address"
        },
        {
          "internalType": "uint256",
          "name": "nonce",
          "type": "uint256"
        },
        {
          "internalType": "uint256",
          "name": "expiry",
          "type": "uint256"
        },
        {
          "internalType": "uint8",
          "name": "v",
          "type": "uint8"
        },
        {
          "internalType": "bytes32",
          "name": "r",
          "type": "bytes32"
        },
        {
          "internalType": "bytes32",
          "name": "s",
          "type": "bytes32"
        }
      ],
      "name": "delegateBySig",
      "outputs": [],
      "stateMutability": "nonpayable",
      "type": "function"
    },
    {
      "inputs": [
        {
          "internalType": "address",
          "name": "account",
          "type": "address"
        }
      ],
      "name": "delegates",
      "outputs": [
        {
          "internalType": "address",
          "name": "",
          "type": "address"
        }
      ],
      "stateMutability": "view",
      "type": "function"
    },
    {
      "inputs": [
        {
          "internalType": "uint256",
          "name": "tokenId",
          "type": "uint256"
        }
      ],
      "name": "getApproved",
      "outputs": [
        {
          "internalType": "address",
          "name": "",
          "type": "address"
        }
      ],
      "stateMutability": "view",
      "type": "function"
    },
    {
      "inputs": [
        {
          "internalType": "uint256",
          "name": "blockNumber",
          "type": "uint256"
        }
      ],
      "name": "getPastTotalSupply",
      "outputs": [
        {
          "internalType": "uint256",
          "name": "",
          "type": "uint256"
        }
      ],
      "stateMutability": "view",
      "type": "function"
    },
    {
      "inputs": [
        {
          "internalType": "address",
          "name": "account",
          "type": "address"
        },
        {
          "internalType": "uint256",
          "name": "blockNumber",
          "type": "uint256"
        }
      ],
      "name": "getPastVotes",
      "outputs": [
        {
          "internalType": "uint256",
          "name": "",
          "type": "uint256"
        }
      ],
      "stateMutability": "view",
      "type": "function"
    },
    {
      "inputs": [
        {
          "internalType": "address",
          "name": "account",
          "type": "address"
        }
      ],
      "name": "getVotes",
      "outputs": [
        {
          "internalType": "uint256",
          "name": "",
          "type": "uint256"
        }
      ],
      "stateMutability": "view",
      "type": "function"
    },
    {
      "inputs": [
        {
          "internalType": "address",
          "name": "owner",
          "type": "address"
        },
        {
          "internalType": "address",
          "name": "operator",
          "type": "address"
        }
      ],
      "name": "isApprovedForAll",
      "outputs": [
        {
          "internalType": "bool",
          "name": "",
          "type": "bool"
        }
      ],
      "stateMutability": "view",
      "type": "function"
    },
    {
      "inputs": [
        {
          "internalType": "uint256",
          "name": "",
          "type": "uint256"
        },
        {
          "internalType": "uint256",
          "name": "",
          "type": "uint256"
        }
      ],
      "name": "metadataContentOf",
      "outputs": [
        {
          "internalType": "string",
          "name": "",
          "type": "string"
        }
      ],
      "stateMutability": "view",
      "type": "function"
    },
    {
      "inputs": [],
      "name": "name",
      "outputs": [
        {
          "internalType": "string",
          "name": "",
          "type": "string"
        }
      ],
      "stateMutability": "view",
      "type": "function"
    },
    {
      "inputs": [
        {
          "internalType": "address",
          "name": "owner",
          "type": "address"
        }
      ],
      "name": "nonces",
      "outputs": [
        {
          "internalType": "uint256",
          "name": "",
          "type": "uint256"
        }
      ],
      "stateMutability": "view",
      "type": "function"
    },
    {
      "inputs": [],
      "name": "operatorStore",
      "outputs": [
        {
          "internalType": "contract IJBOperatorStore",
          "name": "",
          "type": "address"
        }
      ],
      "stateMutability": "view",
      "type": "function"
    },
    {
      "inputs": [],
      "name": "owner",
      "outputs": [
        {
          "internalType": "address",
          "name": "",
          "type": "address"
        }
      ],
      "stateMutability": "view",
      "type": "function"
    },
    {
      "inputs": [
        {
          "internalType": "uint256",
          "name": "tokenId",
          "type": "uint256"
        }
      ],
      "name": "ownerOf",
      "outputs": [
        {
          "internalType": "address",
          "name": "",
          "type": "address"
        }
      ],
      "stateMutability": "view",
      "type": "function"
    },
    {
      "inputs": [],
      "name": "renounceOwnership",
      "outputs": [],
      "stateMutability": "nonpayable",
      "type": "function"
    },
    {
      "inputs": [
        {
          "internalType": "address",
          "name": "from",
          "type": "address"
        },
        {
          "internalType": "address",
          "name": "to",
          "type": "address"
        },
        {
          "internalType": "uint256",
          "name": "tokenId",
          "type": "uint256"
        }
      ],
      "name": "safeTransferFrom",
      "outputs": [],
      "stateMutability": "nonpayable",
      "type": "function"
    },
    {
      "inputs": [
        {
          "internalType": "address",
          "name": "from",
          "type": "address"
        },
        {
          "internalType": "address",
          "name": "to",
          "type": "address"
        },
        {
          "internalType": "uint256",
          "name": "tokenId",
          "type": "uint256"
        },
        {
          "internalType": "bytes",
          "name": "data",
          "type": "bytes"
        }
      ],
      "name": "safeTransferFrom",
      "outputs": [],
      "stateMutability": "nonpayable",
      "type": "function"
    },
    {
      "inputs": [
        {
          "internalType": "address",
          "name": "operator",
          "type": "address"
        },
        {
          "internalType": "bool",
          "name": "approved",
          "type": "bool"
        }
      ],
      "name": "setApprovalForAll",
      "outputs": [],
      "stateMutability": "nonpayable",
      "type": "function"
    },
    {
      "inputs": [
        {
          "internalType": "uint256",
          "name": "_projectId",
          "type": "uint256"
        },
        {
          "components": [
            {
              "internalType": "string",
              "name": "content",
              "type": "string"
            },
            {
              "internalType": "uint256",
              "name": "domain",
              "type": "uint256"
            }
          ],
          "internalType": "struct JBProjectMetadata",
          "name": "_metadata",
          "type": "tuple"
        }
      ],
      "name": "setMetadataOf",
      "outputs": [],
      "stateMutability": "nonpayable",
      "type": "function"
    },
    {
      "inputs": [
        {
          "internalType": "contract IJBTokenUriResolver",
          "name": "_newResolver",
          "type": "address"
        }
      ],
      "name": "setTokenUriResolver",
      "outputs": [],
      "stateMutability": "nonpayable",
      "type": "function"
    },
    {
      "inputs": [
        {
          "internalType": "bytes4",
          "name": "_interfaceId",
          "type": "bytes4"
        }
      ],
      "name": "supportsInterface",
      "outputs": [
        {
          "internalType": "bool",
          "name": "",
          "type": "bool"
        }
      ],
      "stateMutability": "view",
      "type": "function"
    },
    {
      "inputs": [],
      "name": "symbol",
      "outputs": [
        {
          "internalType": "string",
          "name": "",
          "type": "string"
        }
      ],
      "stateMutability": "view",
      "type": "function"
    },
    {
      "inputs": [
        {
          "internalType": "uint256",
          "name": "_projectId",
          "type": "uint256"
        }
      ],
      "name": "tokenURI",
      "outputs": [
        {
          "internalType": "string",
          "name": "",
          "type": "string"
        }
      ],
      "stateMutability": "view",
      "type": "function"
    },
    {
      "inputs": [],
      "name": "tokenUriResolver",
      "outputs": [
        {
          "internalType": "contract IJBTokenUriResolver",
          "name": "",
          "type": "address"
        }
      ],
      "stateMutability": "view",
      "type": "function"
    },
    {
      "inputs": [
        {
          "internalType": "address",
          "name": "from",
          "type": "address"
        },
        {
          "internalType": "address",
          "name": "to",
          "type": "address"
        },
        {
          "internalType": "uint256",
          "name": "tokenId",
          "type": "uint256"
        }
      ],
      "name": "transferFrom",
      "outputs": [],
      "stateMutability": "nonpayable",
      "type": "function"
    },
    {
      "inputs": [
        {
          "internalType": "address",
          "name": "newOwner",
          "type": "address"
        }
      ],
      "name": "transferOwnership",
      "outputs": [],
      "stateMutability": "nonpayable",
      "type": "function"
    }
  ],
  "bytecode": {
    "object": "0x61016034620004dd57601f620037eb38819003918201601f19168301916001600160401b03831184841017620002e557808492602094604052833981010312620004dd57516001600160a01b0381168103620004dd57604051906200006482620004e2565b60118252704a75696365626f782050726f6a6563747360781b91826020820152604051906200009382620004e2565b60018252603160f81b602083015260405193620000b085620004e2565b60118552602085015260405192620000c884620004e2565b6008845267094aa92868a849eb60c31b602085015260805283516001600160401b038111620002e557600054600181811c91168015620004d2575b6020821014620003d957601f81116200047e575b50602094601f82116001146200040657948192939495600092620003fa575b50508160011b916000199060031b1c1916176000555b82516001600160401b038111620002e557600154600181811c91168015620003ef575b6020821014620003d957601f811162000380575b506020601f8211600114620003075781929394600092620002fb575b50508160011b916000199060031b1c1916176001555b602081519101209060208151910120610100918083526101208281524660c0526040519260208401907f8b73c3c69bb8fe3d512ecc4cf759cc79239f7b179b0ffacaa9a75d522b39400f93848352604086015260608501524660808501523060a085015260a0845260c084019380851060018060401b03861117620002e557604085905251902060a0523060e052610140918252600a8054336001600160a01b0319821681179092556001600160a01b03167f8be0079c531659141344cd1fd0a4f28419497f9722a3daafe3b4186f6b6457e0600080a36000600b556132ac9384620004ff853960805184818161056d0152818161164c01526116f1015260a051846130dc015260c051846131a7015260e051846130a60152518361312b01525182613151015251816131080152f35b634e487b7160e01b600052604160045260246000fd5b0151905038806200019f565b60016000908152600080516020620037cb8339815191529190601f198416905b81811062000367575095836001959697106200034d575b505050811b01600155620001b5565b015160001960f88460031b161c191690553880806200033e565b9192602060018192868b01518155019401920162000327565b6001600052600080516020620037cb833981519152601f830160051c81019160208410620003ce575b601f0160051c01905b818110620003c1575062000183565b60008155600101620003b2565b9091508190620003a9565b634e487b7160e01b600052602260045260246000fd5b90607f16906200016f565b01519050388062000136565b6000808052601f19831696600080516020620037ab8339815191529290915b88811062000465575083600195969798106200044b575b505050811b016000556200014c565b015160001960f88460031b161c191690553880806200043c565b9192602060018192868501518155019401920162000425565b60008052600080516020620037ab833981519152601f830160051c810160208410620004ca575b601f830160051c82018110620004bd57505062000117565b60008155600101620004a5565b5080620004a5565b90607f169062000103565b600080fd5b604081019081106001600160401b03821117620002e55760405256fe608080604052600436101561001357600080fd5b60003560e01c90816301ffc9a714611a4e5750806306661abd14611a3057806306fdde031461198d578063081812fc1461196f578063095ea7b3146117f557806323b872dd146117d15780632407497e146117635780633644e51514611748578063365749751461141557806339fbc775146113325780633a46b1a81461120557806342842e0e146111d2578063587cde1e146111975780635c19a95c146111755780636352211e14611145578063666d87a01461097d57806370a082311461095a578063715018a6146108fd5780637ecebe00146108c35780638da5cb5b1461089a5780638e539e8c1461077a57806395d89b41146106af5780639ab24eb01461066e578063a22cb4651461059c578063ad007d6314610557578063b88d4fde146104aa578063c3cda520146102f3578063c87b56dd146102bc578063e131fc0c14610293578063e985e9c51461023d5763f2fde38b1461017457600080fd5b346102385760203660031901126102385761018d611b33565b610195611deb565b6001600160a01b039081169081156101e457600a54826001600160601b0360a01b821617600a55167f8be0079c531659141344cd1fd0a4f28419497f9722a3daafe3b4186f6b6457e0600080a3005b60405162461bcd60e51b815260206004820152602660248201527f4f776e61626c653a206e6577206f776e657220697320746865207a65726f206160448201526564647265737360d01b6064820152608490fd5b600080fd5b3461023857604036600319011261023857610256611b33565b61025e611b49565b9060018060a01b03809116600052600560205260406000209116600052602052602060ff604060002054166040519015158152f35b3461023857600036600319011261023857600d546040516001600160a01b039091168152602090f35b34610238576020366003190112610238576102ef6102db600435611c40565b604051918291602083526020830190611b0e565b0390f35b346102385760c03660031901126102385761030c611b33565b6064359060243560443560ff841684036102385780421161046557604051602081017fe48329057bfd03d55e49b547132e39cffd9c1820ad7b9d4c5307691425d15adf815260018060a01b0392838616604084015284606084015260808301526080825260a08201916001600160401b03928181108482111761044f576040525190206103976130a3565b9060405190602082019261190160f01b8452602283015260428201526042815260808101928184109084111761044f576103ea966103e29360405260a4359260843592519020612fee565b949094612e7c565b83166000526009602052604060002090815491600183019055036104135761041191611e43565b005b60405162461bcd60e51b8152602060048201526014602482015273566f7465733a20696e76616c6964206e6f6e636560601b6044820152606490fd5b634e487b7160e01b600052604160045260246000fd5b60405162461bcd60e51b815260206004820152601860248201527f566f7465733a207369676e6174757265206578706972656400000000000000006044820152606490fd5b34610238576080366003190112610238576104c3611b33565b6104cb611b49565b90606435906044356001600160401b0383116102385736602384011215610238578260040135936104fb85611c25565b926105096040519485611c04565b85845236602487870101116102385760006020876104119860246105529901838901378601015261054261053d8433612483565b6123a9565b61054d8383836124f1565b612d13565b61245f565b34610238576000366003190112610238576040517f00000000000000000000000000000000000000000000000000000000000000006001600160a01b03168152602090f35b34610238576040366003190112610238576105b5611b33565b60243590811515809203610238576001600160a01b03169033821461062957336000526005602052604060002082600052602052604060002060ff1981541660ff83161790556040519081527f17307eab39ab6107e8899845ad3d59bd9653f200f220920489ca2b5937696c3160203392a3005b60405162461bcd60e51b815260206004820152601960248201527f4552433732313a20617070726f766520746f2063616c6c6572000000000000006044820152606490fd5b34610238576020366003190112610238576001600160a01b0361068f611b33565b16600052600760205260206106a76040600020612e3e565b604051908152f35b3461023857600036600319011261023857604051600060018054906106d382611b94565b8085529181811690811561075357506001146106fa575b6102ef846102db81860382611c04565b600081815292507fb10e2d527612073b26eecdfd717e6a320cf44b4afac2b0732d9fcbe2b7fa0cf65b82841061073b5750505081016020016102db826106ea565b80546020858701810191909152909301928101610723565b60ff191660208087019190915292151560051b850190920192506102db91508390506106ea565b346102385760203660031901126102385760043543811015610855576008549060005b8281106107f85782806107c25750602060005b6040516001600160e01b039091168152f35b60001981019081116107e2576107d9602091612d9e565b5054811c6107b0565b634e487b7160e01b600052601160045260246000fd5b909160019061080d818418831c828516612278565b918463ffffffff61081d85612d9e565b5054161115610832575050905b91909161079d565b90925081018091111561082a57634e487b7160e01b600052601160045260246000fd5b60405162461bcd60e51b815260206004820152601a60248201527f566f7465733a20626c6f636b206e6f7420796574206d696e65640000000000006044820152606490fd5b3461023857600036600319011261023857600a546040516001600160a01b039091168152602090f35b34610238576020366003190112610238576001600160a01b036108e4611b33565b1660005260096020526020604060002054604051908152f35b3461023857600036600319011261023857610916611deb565b600a80546001600160a01b031981169091556000906001600160a01b03167f8be0079c531659141344cd1fd0a4f28419497f9722a3daafe3b4186f6b6457e08280a3005b346102385760203660031901126102385760206106a7610978611b33565b612285565b346102385760031960403682011261023857610997611b33565b6001600160401b0360243511610238576040602435600401926024353603011261023857600b549060001982146107e25760018201600b556040516109db81611be9565b600081526001600160a01b0382161561110157600183016000908152600260205260409020546001600160a01b03166110bc576001600160a01b0382166000908152600360205260409020805460018101919082106107e2575560018301600081815260026020526040812080546001600160a01b0319166001600160a01b038616908117909155907fddf252ad1be2c89b69c2b068fc378daa952ba7f163c4a11628f55a4df523b3ef8180a4610a90612e03565b600181018091116107e25760085490610aa7612e03565b5081151580611097575b1561101857610abf906131cd565b60001982019182116107e257610ad7610aef92612d9e565b509063ffffffff82549181199060201b169116179055565b60066020527f54cdd369e4e8a8515e52ca72ec816c2101831ad1f18bf44102ed171459c9b4f8546001600160a01b0383811660009081526040902054811691168181141580611010575b610cf6575b5050610552610b51916001850184612bf3565b610b5b8380611d29565b9050610bb2575b6020927fa1c6fd563bcbc3222f6031d7c26ff58cd6c701abff0bfffe652d055ce40629d46040519260018060a01b03169280610ba46001870194339083611d5b565b0390a3600160405191018152f35b610bbc8380611d29565b60018495929501600052600c60205260406000206024803501356000526020526040600020906001600160401b03811161044f57610bfa8254611b94565b601f8111610cae575b5080602096600090601f8311600114610c4557600092610c3a575b50508160011b916000199060031b1c19161790555b9250610b62565b013590508780610c1e565b909150601f1983169184600052886000209260005b818110610c975750908460019594939210610c7d575b505050811b019055610c33565b0135600019600384901b60f8161c19169055878080610c70565b91938a600181928787013581550195019201610c5a565b826000526020600020601f830160051c81019160208410610cec575b601f0160051c01905b818110610ce05750610c03565b60008155600101610cd3565b9091508190610cca565b80610ebf575b5080610d09575b80610b3e565b806000526007602052604060002091610d2183612e3e565b916001830183116107e257835493610d3881612e3e565b85151580610e99575b15610d9e57610d52600186016131cd565b90866000198101116107e257600161055296610d8b604094610ad760008051602061325783398151915297610b519c6000190190612deb565b8351928352016020820152a29150610d03565b94939063ffffffff4311610e5757610db8600183016131cd565b9460405195610dc687611bce565b4363ffffffff1687526001600160e01b03166020870152600160401b81101561044f57610df891600182018155612deb565b949094610e4157805160209182015190911b63ffffffff191663ffffffff9190911617909355610b51936105529360008051602061325783398151915291604091600190610d8b565b634e487b7160e01b600052600060045260246000fd5b60405162461bcd60e51b8152602060048201526026602482015260008051602061323783398151915260448201526532206269747360d01b6064820152608490fd5b5060001986018681116107e257610eb563ffffffff9184612deb565b5054164314610d41565b8060005260076020526040600020610ed681612e3e565b806000198101116107e257815490610eed83612e3e565b9082151580610fea575b15610f4e57610f0960001982016131cd565b93836000198101116107e25760008051602061325783398151915294610ad7610f39926040966000190190612deb565b8251918252600019016020820152a285610cfc565b919263ffffffff4311610e5757610f6860001984016131cd565b9360405194610f7686611bce565b4363ffffffff1686526001600160e01b03166020860152600160401b81101561044f57610fa891600182018155612deb565b929092610e4157835160209485015190941b63ffffffff191663ffffffff94909416939093179091556000805160206132578339815191529160409190610f39565b5060001983018381116107e25761100663ffffffff9186612deb565b5054164314610ef7565b506001610b39565b63ffffffff4311610e575761102c906131cd565b906040519161103a83611bce565b4363ffffffff1683526001600160e01b03166020830152600160401b81101561044f5780600161106d9201600855612d9e565b610e4157815160209283015190921b63ffffffff191663ffffffff92909216919091179055610aef565b5060001982018281116107e2576110b263ffffffff91612d9e565b5054164314610ab1565b60405162461bcd60e51b815260206004820152601c60248201527f4552433732313a20746f6b656e20616c7265616479206d696e746564000000006044820152606490fd5b606460405162461bcd60e51b815260206004820152602060248201527f4552433732313a206d696e7420746f20746865207a65726f20616464726573736044820152fd5b34610238576020366003190112610238576020611163600435612348565b6040516001600160a01b039091168152f35b3461023857602036600319011261023857610411611191611b33565b33611e43565b346102385760203660031901126102385760206001600160a01b03806111bb611b33565b166000526006825260406000205416604051908152f35b34610238576104116105526111e636611b5f565b90604051926111f484611be9565b6000845261054261053d8433612483565b346102385760403660031901126102385761121e611b33565b6001600160a01b03166000908152600760205260409020602480359190438310156112ef578154926000905b848210611294575050826112675750506040516000815260209150f35b600019830192831161128057506020916107d991612deb565b634e487b7160e01b60009081526011600452fd5b90936001906112a9818718831c828816612278565b918363ffffffff6112ba8589612deb565b50541611156112cd575050935b9061124a565b9095508101809111156112c75782634e487b7160e01b60005260116004526000fd5b60649060206040519162461bcd60e51b83528160048401528201527f436865636b706f696e74733a20626c6f636b206e6f7420796574206d696e65646044820152fd5b34610238576040366003190112610238576004356000526020600c81526040600020602435600052815260406000209060405191826000825461137481611b94565b938484526001918683821691826000146113f35750506001146113b4575b50506113a092500383611c04565b6102ef604051928284938452830190611b0e565b85925060005281600020906000915b8583106113db5750506113a093508201018580611392565b805483890185015287945086939092019181016113c3565b92509350506113a094915060ff191682840152151560051b8201018580611392565b346102385760031960403682011261023857600435906001600160401b0360243581811161023857604081600401938236030112610238576001600160a01b038061145f86612348565b16908133141591826116c0575b82611619575b5050611607576114828380611d29565b919085600052602091600c8352602460406000209101356000528252604060002093831161044f576114b48454611b94565b601f81116115c1575b50600091601f84116001146115325750918061152294927fd07720acb527321c9d1766f359139d0e0e3551bd99fb3ca353d4f008f3aad8e69694600092611527575b50508160011b916000199060031b1c19161790555b604051918291339083611d5b565b0390a2005b0135905087806114ff565b91601f1984168560005283600020936000905b8282106115a95750509260019285927fd07720acb527321c9d1766f359139d0e0e3551bd99fb3ca353d4f008f3aad8e6989661152298961061158f575b505050811b019055611514565b0135600019600384901b60f8161c19169055878080611582565b80600185978294968801358155019601930190611545565b8460005282600020601f850160051c8101918486106115fd575b601f0160051c01905b8181106115f157506114bd565b600081556001016115e4565b90915081906115db565b60405163075fd2b160e01b8152600490fd5b602091925060846040518094819363c161c93f60e01b8352336004840152602483015260006044830152600660648301527f0000000000000000000000000000000000000000000000000000000000000000165afa9081156116b457600091611686575b50158580611472565b6116a7915060203d81116116ad575b61169f8183611c04565b810190611dd3565b8561167d565b503d611695565b6040513d6000823e3d90fd5b915060405163c161c93f60e01b815233600482015282602482015286604482015260066064820152602081608481857f0000000000000000000000000000000000000000000000000000000000000000165afa9081156116b45760009161172a575b50159161146c565b611742915060203d81116116ad5761169f8183611c04565b87611722565b346102385760003660031901126102385760206106a76130a3565b34610238576020366003190112610238576004356001600160a01b0381169081900361023857611791611deb565b806001600160601b0360a01b600d541617600d557fe7784d93cfbfa4408e19577e6cc0436f4dbb51214b70e100905dfce9def88c166020604051338152a2005b34610238576104116117e236611b5f565b916117f061053d8433612483565b6124f1565b346102385760403660031901126102385761180e611b33565b602435906001600160a01b03808061182585612348565b16921691808314611920578033149081156118fb575b501561189057600083815260046020526040902080546001600160a01b0319168317905561186883612348565b167f8c5be1e5ebec7d5bd14f71427d1e84f3dd0314c0f7b2291e5b200ac8c7c3b925600080a4005b60405162461bcd60e51b815260206004820152603e60248201527f4552433732313a20617070726f76652063616c6c6572206973206e6f7420746f60448201527f6b656e206f776e6572206e6f7220617070726f76656420666f7220616c6c00006064820152608490fd5b9050600052600560205260406000203360005260205260ff604060002054168461183b565b60405162461bcd60e51b815260206004820152602160248201527f4552433732313a20617070726f76616c20746f2063757272656e74206f776e656044820152603960f91b6064820152608490fd5b3461023857602036600319011261023857602061116360043561236b565b3461023857600036600319011261023857604051600080546119ae81611b94565b8084529060019081811690811561075357506001146119d7576102ef846102db81860382611c04565b600080805292507f290decd9548b62a8d60345a988386fc84ba6bc95484008f6362f93160ef3e5635b828410611a185750505081016020016102db826106ea565b80546020858701810191909152909301928101611a00565b34610238576000366003190112610238576020600b54604051908152f35b34610238576020366003190112610238576004359063ffffffff60e01b82168092036102385760209163aa91a66f60e01b8114908115611ada575b8115611a97575b5015158152f35b6380ac58cd60e01b811491508115611ac9575b8115611ab8575b5083611a90565b6301ffc9a760e01b14905083611ab1565b635b5e139f60e01b81149150611aaa565b63ad007d6360e01b81149150611a89565b60005b838110611afe5750506000910152565b8181015183820152602001611aee565b90602091611b2781518092818552858086019101611aeb565b601f01601f1916010190565b600435906001600160a01b038216820361023857565b602435906001600160a01b038216820361023857565b6060906003190112610238576001600160a01b0390600435828116810361023857916024359081168103610238579060443590565b90600182811c92168015611bc4575b6020831014611bae57565b634e487b7160e01b600052602260045260246000fd5b91607f1691611ba3565b604081019081106001600160401b0382111761044f57604052565b602081019081106001600160401b0382111761044f57604052565b90601f801991011681019081106001600160401b0382111761044f57604052565b6001600160401b03811161044f57601f01601f191660200190565b600d546001600160a01b0316908115611d1457604051918291636d02a25560e11b8352600483015281602460009485935afa918215611d08578092611c8457505090565b9091503d8082843e611c968184611c04565b820191602081840312611d00578051906001600160401b038211611d04570182601f82011215611d0057805191611ccc83611c25565b93611cda6040519586611c04565b83855260208484010111611cfd575090611cfa9160208085019101611aeb565b90565b80fd5b5080fd5b8280fd5b604051903d90823e3d90fd5b5050604051611d2281611be9565b6000815290565b903590601e198136030182121561023857018035906001600160401b0382116102385760200191813603831361023857565b90929192604082528035601e198236030181121561023857810190602082359201916001600160401b03811161023857803603831361023857602060a09282829560408089015281608089015285880137600084848801015201356060850152601f80199101168301019360018060a01b0316910152565b90816020910312610238575180151581036102385790565b600a546001600160a01b03163303611dff57565b606460405162461bcd60e51b815260206004820152602060248201527f4f776e61626c653a2063616c6c6572206973206e6f7420746865206f776e65726044820152fd5b6001600160a01b03808216600081815260066020908152604080832080546001600160a01b0319811698871698891790915592979695909492909216929091611eb391869085907f3134e8a2e6d97e929a7e54011ea5485d7d196dd5f0ba4d4ef95803e8e3fc257f8b80a4612285565b91848114158061226f575b611ecc575b50505050509050565b806120a9575b5083611edf575b80611ec3565b83865260078152611efb83872092611ef684612e3e565b612278565b908254611f0784612e3e565b938115158061206f575b15611f7357611f1f846131cd565b986000198301928311611f5f575097610ad7611f4c9260008051602061325783398151915298999a612deb565b8351928352820152a28038808080611ed9565b634e487b7160e01b81526011600452602490fd5b63ffffffff80431161202e57611f88856131cd565b92875190611f9582611bce565b43831682526001600160e01b0394851686830190815293600160401b82101561201a5790611fc891600182018155612deb565b9b909b612006575051915163ffffffff9190921616911660201b63ffffffff1916179096559394929360008051602061325783398151915293611f4c565b634e487b7160e01b81526004819052602490fd5b634e487b7160e01b8d52604160045260248dfd5b865162461bcd60e51b8152600481018590526026602482015260008051602061323783398151915260448201526532206269747360d01b6064820152608490fd5b5060001982018281116120955761208b63ffffffff9183612deb565b5054164314611f11565b634e487b7160e01b8a52601160045260248afd5b808752600782528387206120bc81612e3e565b84810390811161225b578154916120d281612e3e565b9280151580612235575b1561213b576120ea836131cd565b916000198201918211612127576000805160206132578339815191529492610ad78a959361211793612deb565b825191825285820152a238611ed2565b634e487b7160e01b8c52601160045260248cfd5b9063ffffffff908143116121f457612152846131cd565b9189519361215f85611bce565b43821685526001600160e01b0393841689860190815292600160401b8210156121e0579061219291600182018155612deb565b9490946121cc5751915163ffffffff9190921616911660201b63ffffffff1916179055600080516020613257833981519152918691612117565b634e487b7160e01b8e5260048e905260248efd5b634e487b7160e01b8f52604160045260248ffd5b885162461bcd60e51b8152600481018890526026602482015260008051602061323783398151915260448201526532206269747360d01b6064820152608490fd5b5060001981018181116121275761225163ffffffff9184612deb565b50541643146120dc565b634e487b7160e01b89526011600452602489fd5b50821515611ebe565b919082018092116107e257565b6001600160a01b031680156122a557600052600360205260406000205490565b60405162461bcd60e51b815260206004820152602960248201527f4552433732313a2061646472657373207a65726f206973206e6f7420612076616044820152683634b21037bbb732b960b91b6064820152608490fd5b1561230357565b60405162461bcd60e51b815260206004820152601860248201527f4552433732313a20696e76616c696420746f6b656e20494400000000000000006044820152606490fd5b6000908152600260205260409020546001600160a01b0316611cfa8115156122fc565b60008181526002602052604090205461238e906001600160a01b031615156122fc565b6000908152600460205260409020546001600160a01b031690565b156123b057565b60405162461bcd60e51b815260206004820152602e60248201527f4552433732313a2063616c6c6572206973206e6f7420746f6b656e206f776e6560448201526d1c881b9bdc88185c1c1c9bdd995960921b6064820152608490fd5b60809060208152603260208201527f4552433732313a207472616e7366657220746f206e6f6e20455243373231526560408201527131b2b4bb32b91034b6b83632b6b2b73a32b960711b60608201520190565b1561246657565b60405162461bcd60e51b81528061247f6004820161240c565b0390fd5b906001600160a01b03808061249784612348565b169316918383149384156124ca575b5083156124b4575b50505090565b6124c09192935061236b565b16143880806124ae565b909350600052600560205260406000208260005260205260ff6040600020541692386124a6565b9291926124fd84612348565b6001600160a01b0391821692908216839003612ba0578116918215612b4f576000858152600495602090878252604094858420946001600160601b0360a01b9586815416905582858361254f83612348565b167f8c5be1e5ebec7d5bd14f71427d1e84f3dd0314c0f7b2291e5b200ac8c7c3b9258280a48085526003845286852080546000199491858201918211612b3c575588865260038552878620968754600198898201809211612886575581875260028652898988209182541617905588827fddf252ad1be2c89b69c2b068fc378daa952ba7f163c4a11628f55a4df523b3ef8880a480156129d0575b84526006835280868520541696845285842054169586811415806129c9575b612619575b505050505050509050565b8061280a575b508561262c575b8061260e565b858352600782528483209261264084612e3e565b938585018095116127f75780549161265782612e3e565b96831515806127c0575b156126c45750612670866131cd565b9383019283116126b157506000805160206132578339815191529798995061269c9291610ad791612deb565b8351928352820152a280388080808080612626565b634e487b7160e01b815260118b52602490fd5b9190935063ffffffff90814311612780576126de876131cd565b938951916126eb83611bce565b43841683526001600160e01b0395861688840190815294600160401b83101561276d578201815561271c9190612deb565b95909561275b575051915163ffffffff9190921616911660201b63ffffffff19161790559495509293600080516020613257833981519152939061269c565b634e487b7160e01b8152808d52602490fd5b634e487b7160e01b885260418f52602488fd5b885162461bcd60e51b8152808d018790526026602482015260008051602061323783398151915260448201526532206269747360d01b6064820152608490fd5b508484018481116127e4576127da63ffffffff9185612deb565b5054164314612661565b634e487b7160e01b835260118d52602483fd5b634e487b7160e01b825260118a52602482fd5b8084526007835285842061281d81612e3e565b8381019081116129b65781549161283381612e3e565b9280151580612992575b1561289a5761284b836131cd565b91868201918211612886576000805160206132578339815191529492610ad78c959361287693612deb565b825191825286820152a23861261f565b50634e487b7160e01b885260118d52602488fd5b9063ffffffff90814311612952576128b1846131cd565b918b51936128be85611bce565b43821685526001600160e01b039384168a860190815292600160401b82101561293d57906128f0918d82018155612deb565b94909461292a5751915163ffffffff9190921616911660201b63ffffffff1916179055600080516020613257833981519152918891612876565b8f8b80602492634e487b7160e01b825252fd5b508f8b6041602492634e487b7160e01b835252fd5b8a5162461bcd60e51b8152808f018990526026602482015260008051602061323783398151915260448201526532206269747360d01b6064820152608490fd5b50858101818111612886576129ac63ffffffff9184612deb565b505416431461283d565b634e487b7160e01b865260118b52602486fd5b5084612609565b6129d8612e03565b8681018091116129b657600854906129ee612e03565b5081151580612b19575b15612a3657612a06906131cd565b90848101908111612a235790610ad7612a1e92612d9e565b6125ea565b634e487b7160e01b875260118c52602487fd5b9063ffffffff91824311612ad957612a4d906131cd565b90895192612a5a84611bce565b43811684526001600160e01b0392831688850190815291600160401b811015612ac657808b612a8c9201600855612d9e565b949094612ab45751915163ffffffff9190921616911660201b63ffffffff19161790556125ea565b634e487b7160e01b8a52898f5260248afd5b634e487b7160e01b8a5260418f5260248afd5b895162461bcd60e51b8152808e018890526026602482015260008051602061323783398151915260448201526532206269747360d01b6064820152608490fd5b50848201828111612b3c57612b3263ffffffff91612d9e565b50541643146129f8565b634e487b7160e01b885260118d52602488fd5b60405162461bcd60e51b8152602060048201526024808201527f4552433732313a207472616e7366657220746f20746865207a65726f206164646044820152637265737360e01b6064820152608490fd5b60405162461bcd60e51b815260206004820152602560248201527f4552433732313a207472616e736665722066726f6d20696e636f72726563742060448201526437bbb732b960d91b6064820152608490fd5b9192600092909190803b15612d0957612c41946040518092630a85bd0160e11b9485835233600484015287602484015260448301526080606483015281878160209a8b966084830190611b0e565b03926001600160a01b03165af1849181612cc5575b50612cb4575050503d600014612cac573d612c7081611c25565b90612c7e6040519283611c04565b81528091833d92013e5b80519182612ca95760405162461bcd60e51b81528061247f6004820161240c565b01fd5b506060612c88565b6001600160e01b0319161492509050565b9091508581813d8311612d02575b612cdd8183611c04565b81010312612cfe57516001600160e01b031981168103612cfe579038612c56565b8480fd5b503d612cd3565b5050915050600190565b9293600093909291803b15612d9357948491612d6d9660405180948193630a85bd0160e11b9788845233600485015260018060a01b0380921660248501526044840152608060648401528260209b8c976084830190611b0e565b0393165af1849181612cc55750612cb4575050503d600014612cac573d612c7081611c25565b505050915050600190565b600854811015612dd55760086000527ff3f7a9fe364faab93b216da50a3214154f22a0a2b415b23a84c8169e8b636ee30190600090565b634e487b7160e01b600052603260045260246000fd5b8054821015612dd55760005260206000200190600090565b600854600081612e1e57505060005b6001600160e01b031690565b6000198201918211611f5f5750612e3490612d9e565b505460201c612e12565b80546000929181612e5157506000925050565b6000198201918211612e6857612e34929350612deb565b634e487b7160e01b84526011600452602484fd5b6005811015612fd85780612e8d5750565b60018103612eda5760405162461bcd60e51b815260206004820152601860248201527f45434453413a20696e76616c6964207369676e617475726500000000000000006044820152606490fd5b60028103612f275760405162461bcd60e51b815260206004820152601f60248201527f45434453413a20696e76616c6964207369676e6174757265206c656e677468006044820152606490fd5b60038103612f7f5760405162461bcd60e51b815260206004820152602260248201527f45434453413a20696e76616c6964207369676e6174757265202773272076616c604482015261756560f01b6064820152608490fd5b600414612f8857565b60405162461bcd60e51b815260206004820152602260248201527f45434453413a20696e76616c6964207369676e6174757265202776272076616c604482015261756560f01b6064820152608490fd5b634e487b7160e01b600052602160045260246000fd5b9291907f7fffffffffffffffffffffffffffffff5d576e7357a4501ddfe92f46681b20a083116130975760ff16601b8114158061308c575b613080579160809493916020936040519384528484015260408301526060820152600093849182805260015afa156130735781516001600160a01b0381161561306d579190565b50600190565b50604051903d90823e3d90fd5b50505050600090600490565b50601c811415613026565b50505050600090600390565b307f00000000000000000000000000000000000000000000000000000000000000006001600160a01b031614806131a4575b156130fe577f000000000000000000000000000000000000000000000000000000000000000090565b60405160208101907f000000000000000000000000000000000000000000000000000000000000000082527f000000000000000000000000000000000000000000000000000000000000000060408201527f000000000000000000000000000000000000000000000000000000000000000060608201524660808201523060a082015260a0815260c081018181106001600160401b0382111761044f5760405251902090565b507f000000000000000000000000000000000000000000000000000000000000000046146130d5565b6001600160e01b03908181116131e1571690565b60405162461bcd60e51b815260206004820152602760248201527f53616665436173743a2076616c756520646f65736e27742066697420696e20326044820152663234206269747360c81b6064820152608490fdfe53616665436173743a2076616c756520646f65736e27742066697420696e2033dec2bacdd2f05b59de34da9b523dff8be42e5e38e818c82fdb0bae774387a724a2646970667358221220a669ce5670308c7bb48661b434586aaa55a9fd56176f8a65233b8d0747f29ba364736f6c63430008110033290decd9548b62a8d60345a988386fc84ba6bc95484008f6362f93160ef3e563b10e2d527612073b26eecdfd717e6a320cf44b4afac2b0732d9fcbe2b7fa0cf6",
    "linkReferences": {}
  },
  "methodIdentifiers": {
    "DOMAIN_SEPARATOR()": "3644e515",
    "approve(address,uint256)": "095ea7b3",
    "balanceOf(address)": "70a08231",
    "count()": "06661abd",
    "createFor(address,(string,uint256))": "666d87a0",
    "delegate(address)": "5c19a95c",
    "delegateBySig(address,uint256,uint256,uint8,bytes32,bytes32)": "c3cda520",
    "delegates(address)": "587cde1e",
    "getApproved(uint256)": "081812fc",
    "getPastTotalSupply(uint256)": "8e539e8c",
    "getPastVotes(address,uint256)": "3a46b1a8",
    "getVotes(address)": "9ab24eb0",
    "isApprovedForAll(address,address)": "e985e9c5",
    "metadataContentOf(uint256,uint256)": "39fbc775",
    "name()": "06fdde03",
    "nonces(address)": "7ecebe00",
    "operatorStore()": "ad007d63",
    "owner()": "8da5cb5b",
    "ownerOf(uint256)": "6352211e",
    "renounceOwnership()": "715018a6",
    "safeTransferFrom(address,address,uint256)": "42842e0e",
    "safeTransferFrom(address,address,uint256,bytes)": "b88d4fde",
    "setApprovalForAll(address,bool)": "a22cb465",
    "setMetadataOf(uint256,(string,uint256))": "36574975",
    "setTokenUriResolver(address)": "2407497e",
    "supportsInterface(bytes4)": "01ffc9a7",
    "symbol()": "95d89b41",
    "tokenURI(uint256)": "c87b56dd",
    "tokenUriResolver()": "e131fc0c",
    "transferFrom(address,address,uint256)": "23b872dd",
    "transferOwnership(address)": "f2fde38b"
  },
  "id": 71
}