{
  "abi": [
    {
      "inputs": [
        {
          "internalType": "contract IJBOperatorStore",
          "name": "_operatorStore",
          "type": "address"
        },
        {
          "internalType": "contract IJBProjects",
          "name": "_projects",
          "type": "address"
        },
        {
          "internalType": "contract IJBDirectory",
          "name": "_directory",
          "type": "address"
        },
        {
          "internalType": "contract IJBFundingCycleStore",
          "name": "_fundingCycleStore",
          "type": "address"
        }
      ],
      "stateMutability": "nonpayable",
      "type": "constructor"
    },
    {
      "inputs": [],
      "name": "ALREADY_SET",
      "type": "error"
    },
    {
      "inputs": [],
      "name": "CONTROLLER_UNAUTHORIZED",
      "type": "error"
    },
    {
      "inputs": [],
      "name": "EMPTY_NAME",
      "type": "error"
    },
    {
      "inputs": [],
      "name": "EMPTY_SYMBOL",
      "type": "error"
    },
    {
      "inputs": [],
      "name": "EMPTY_TOKEN",
      "type": "error"
    },
    {
      "inputs": [],
      "name": "INSUFFICIENT_FUNDS",
      "type": "error"
    },
    {
      "inputs": [],
      "name": "INSUFFICIENT_UNCLAIMED_TOKENS",
      "type": "error"
    },
    {
      "inputs": [],
      "name": "OVERFLOW_ALERT",
      "type": "error"
    },
    {
      "inputs": [],
      "name": "PROJECT_ALREADY_HAS_TOKEN",
      "type": "error"
    },
    {
      "inputs": [],
      "name": "RECIPIENT_ZERO_ADDRESS",
      "type": "error"
    },
    {
      "inputs": [],
      "name": "TOKENS_MUST_HAVE_18_DECIMALS",
      "type": "error"
    },
    {
      "inputs": [],
      "name": "TOKEN_NOT_FOUND",
      "type": "error"
    },
    {
      "inputs": [],
      "name": "TRANSFERS_PAUSED",
      "type": "error"
    },
    {
      "inputs": [],
      "name": "UNAUTHORIZED",
      "type": "error"
    },
    {
      "anonymous": false,
      "inputs": [
        {
          "indexed": true,
          "internalType": "address",
          "name": "holder",
          "type": "address"
        },
        {
          "indexed": true,
          "internalType": "uint256",
          "name": "projectId",
          "type": "uint256"
        },
        {
          "indexed": false,
          "internalType": "uint256",
          "name": "amount",
          "type": "uint256"
        },
        {
          "indexed": false,
          "internalType": "uint256",
          "name": "initialUnclaimedBalance",
          "type": "uint256"
        },
        {
          "indexed": false,
          "internalType": "uint256",
          "name": "initialClaimedBalance",
          "type": "uint256"
        },
        {
          "indexed": false,
          "internalType": "bool",
          "name": "preferClaimedTokens",
          "type": "bool"
        },
        {
          "indexed": false,
          "internalType": "address",
          "name": "caller",
          "type": "address"
        }
      ],
      "name": "Burn",
      "type": "event"
    },
    {
      "anonymous": false,
      "inputs": [
        {
          "indexed": true,
          "internalType": "address",
          "name": "holder",
          "type": "address"
        },
        {
          "indexed": true,
          "internalType": "uint256",
          "name": "projectId",
          "type": "uint256"
        },
        {
          "indexed": false,
          "internalType": "uint256",
          "name": "initialUnclaimedBalance",
          "type": "uint256"
        },
        {
          "indexed": false,
          "internalType": "uint256",
          "name": "amount",
          "type": "uint256"
        },
        {
          "indexed": false,
          "internalType": "address",
          "name": "caller",
          "type": "address"
        }
      ],
      "name": "Claim",
      "type": "event"
    },
    {
      "anonymous": false,
      "inputs": [
        {
          "indexed": true,
          "internalType": "uint256",
          "name": "projectId",
          "type": "uint256"
        },
        {
          "indexed": true,
          "internalType": "contract IJBToken",
          "name": "token",
          "type": "address"
        },
        {
          "indexed": false,
          "internalType": "string",
          "name": "name",
          "type": "string"
        },
        {
          "indexed": false,
          "internalType": "string",
          "name": "symbol",
          "type": "string"
        },
        {
          "indexed": false,
          "internalType": "address",
          "name": "caller",
          "type": "address"
        }
      ],
      "name": "Issue",
      "type": "event"
    },
    {
      "anonymous": false,
      "inputs": [
        {
          "indexed": true,
          "internalType": "address",
          "name": "holder",
          "type": "address"
        },
        {
          "indexed": true,
          "internalType": "uint256",
          "name": "projectId",
          "type": "uint256"
        },
        {
          "indexed": false,
          "internalType": "uint256",
          "name": "amount",
          "type": "uint256"
        },
        {
          "indexed": false,
          "internalType": "bool",
          "name": "tokensWereClaimed",
          "type": "bool"
        },
        {
          "indexed": false,
          "internalType": "bool",
          "name": "preferClaimedTokens",
          "type": "bool"
        },
        {
          "indexed": false,
          "internalType": "address",
          "name": "caller",
          "type": "address"
        }
      ],
      "name": "Mint",
      "type": "event"
    },
    {
      "anonymous": false,
      "inputs": [
        {
          "indexed": true,
          "internalType": "uint256",
          "name": "projectId",
          "type": "uint256"
        },
        {
          "indexed": true,
          "internalType": "contract IJBToken",
          "name": "newToken",
          "type": "address"
        },
        {
          "indexed": false,
          "internalType": "address",
          "name": "caller",
          "type": "address"
        }
      ],
      "name": "Set",
      "type": "event"
    },
    {
      "anonymous": false,
      "inputs": [
        {
          "indexed": true,
          "internalType": "address",
          "name": "holder",
          "type": "address"
        },
        {
          "indexed": true,
          "internalType": "uint256",
          "name": "projectId",
          "type": "uint256"
        },
        {
          "indexed": true,
          "internalType": "address",
          "name": "recipient",
          "type": "address"
        },
        {
          "indexed": false,
          "internalType": "uint256",
          "name": "amount",
          "type": "uint256"
        },
        {
          "indexed": false,
          "internalType": "address",
          "name": "caller",
          "type": "address"
        }
      ],
      "name": "Transfer",
      "type": "event"
    },
    {
      "inputs": [
        {
          "internalType": "address",
          "name": "_holder",
          "type": "address"
        },
        {
          "internalType": "uint256",
          "name": "_projectId",
          "type": "uint256"
        }
      ],
      "name": "balanceOf",
      "outputs": [
        {
          "internalType": "uint256",
          "name": "balance",
          "type": "uint256"
        }
      ],
      "stateMutability": "view",
      "type": "function"
    },
    {
      "inputs": [
        {
          "internalType": "address",
          "name": "_holder",
          "type": "address"
        },
        {
          "internalType": "uint256",
          "name": "_projectId",
          "type": "uint256"
        },
        {
          "internalType": "uint256",
          "name": "_amount",
          "type": "uint256"
        },
        {
          "internalType": "bool",
          "name": "_preferClaimedTokens",
          "type": "bool"
        }
      ],
      "name": "burnFrom",
      "outputs": [],
      "stateMutability": "nonpayable",
      "type": "function"
    },
    {
      "inputs": [
        {
          "internalType": "address",
          "name": "_holder",
          "type": "address"
        },
        {
          "internalType": "uint256",
          "name": "_projectId",
          "type": "uint256"
        },
        {
          "internalType": "uint256",
          "name": "_amount",
          "type": "uint256"
        }
      ],
      "name": "claimFor",
      "outputs": [],
      "stateMutability": "nonpayable",
      "type": "function"
    },
    {
      "inputs": [],
      "name": "directory",
      "outputs": [
        {
          "internalType": "contract IJBDirectory",
          "name": "",
          "type": "address"
        }
      ],
      "stateMutability": "view",
      "type": "function"
    },
    {
      "inputs": [],
      "name": "fundingCycleStore",
      "outputs": [
        {
          "internalType": "contract IJBFundingCycleStore",
          "name": "",
          "type": "address"
        }
      ],
      "stateMutability": "view",
      "type": "function"
    },
    {
      "inputs": [
        {
          "internalType": "uint256",
          "name": "_projectId",
          "type": "uint256"
        },
        {
          "internalType": "string",
          "name": "_name",
          "type": "string"
        },
        {
          "internalType": "string",
          "name": "_symbol",
          "type": "string"
        }
      ],
      "name": "issueFor",
      "outputs": [
        {
          "internalType": "contract IJBToken",
          "name": "token",
          "type": "address"
        }
      ],
      "stateMutability": "nonpayable",
      "type": "function"
    },
    {
      "inputs": [
        {
          "internalType": "address",
          "name": "_holder",
          "type": "address"
        },
        {
          "internalType": "uint256",
          "name": "_projectId",
          "type": "uint256"
        },
        {
          "internalType": "uint256",
          "name": "_amount",
          "type": "uint256"
        },
        {
          "internalType": "bool",
          "name": "_preferClaimedTokens",
          "type": "bool"
        }
      ],
      "name": "mintFor",
      "outputs": [],
      "stateMutability": "nonpayable",
      "type": "function"
    },
    {
      "inputs": [],
      "name": "operatorStore",
      "outputs": [
        {
          "internalType": "contract IJBOperatorStore",
          "name": "",
          "type": "address"
        }
      ],
      "stateMutability": "view",
      "type": "function"
    },
    {
      "inputs": [],
      "name": "projects",
      "outputs": [
        {
          "internalType": "contract IJBProjects",
          "name": "",
          "type": "address"
        }
      ],
      "stateMutability": "view",
      "type": "function"
    },
    {
      "inputs": [
        {
          "internalType": "uint256",
          "name": "_projectId",
          "type": "uint256"
        },
        {
          "internalType": "contract IJBToken",
          "name": "_token",
          "type": "address"
        }
      ],
      "name": "setFor",
      "outputs": [],
      "stateMutability": "nonpayable",
      "type": "function"
    },
    {
      "inputs": [
        {
          "internalType": "uint256",
          "name": "",
          "type": "uint256"
        }
      ],
      "name": "tokenOf",
      "outputs": [
        {
          "internalType": "contract IJBToken",
          "name": "",
          "type": "address"
        }
      ],
      "stateMutability": "view",
      "type": "function"
    },
    {
      "inputs": [
        {
          "internalType": "uint256",
          "name": "_projectId",
          "type": "uint256"
        }
      ],
      "name": "totalSupplyOf",
      "outputs": [
        {
          "internalType": "uint256",
          "name": "totalSupply",
          "type": "uint256"
        }
      ],
      "stateMutability": "view",
      "type": "function"
    },
    {
      "inputs": [
        {
          "internalType": "address",
          "name": "_holder",
          "type": "address"
        },
        {
          "internalType": "uint256",
          "name": "_projectId",
          "type": "uint256"
        },
        {
          "internalType": "address",
          "name": "_recipient",
          "type": "address"
        },
        {
          "internalType": "uint256",
          "name": "_amount",
          "type": "uint256"
        }
      ],
      "name": "transferFrom",
      "outputs": [],
      "stateMutability": "nonpayable",
      "type": "function"
    },
    {
      "inputs": [
        {
          "internalType": "address",
          "name": "",
          "type": "address"
        },
        {
          "internalType": "uint256",
          "name": "",
          "type": "uint256"
        }
      ],
      "name": "unclaimedBalanceOf",
      "outputs": [
        {
          "internalType": "uint256",
          "name": "",
          "type": "uint256"
        }
      ],
      "stateMutability": "view",
      "type": "function"
    },
    {
      "inputs": [
        {
          "internalType": "uint256",
          "name": "",
          "type": "uint256"
        }
      ],
      "name": "unclaimedTotalSupplyOf",
      "outputs": [
        {
          "internalType": "uint256",
          "name": "",
          "type": "uint256"
        }
      ],
      "stateMutability": "view",
      "type": "function"
    }
  ],
  "bytecode": {
    "object": "0x6101003461011b57601f620041f038819003918201601f19168301916001600160401b038311848410176101205780849260809460405283398101031261011b5780516001600160a01b039190828116810361011b57602082015191838316830361011b57604081015190848216820361011b5760600151938416840361011b5760805260a05260c05260e0526040516140b9908162000137823960805181818161014b015281816103560152610b79015260a05181818161039c015281816106a10152818161074b01528181610a0701528181610a9e01528181611080015281816111170152818161138d0152611422015260c05181818161083001528181610e720152610eed015260e05181818161044201526114960152f35b600080fd5b634e487b7160e01b600052604160045260246000fdfe608060408181526004803610156200001657600080fd5b600092833560e01c908162fdd58e1462001533575080631412884f146200150a5780635287af3714620014c5578063557e7155146200147f5780636607955d14620011cc57806375b0d9cd14620011a1578063831d7fac1462000ea15780638b79543c1462000e5b578063906ebd0f1462000b3e578063a7f2a70b14620007ae578063ac689bcd14620003cb578063ad007d631462000385578063c41c2f24146200033f578063ceddd3e4146200010c5763ea78803f14620000d757600080fd5b346200010857602036600319011262000108573582526020828152918190205490516001600160a01b039091168152f35b8280fd5b50903462000108576200011f3662001648565b8451632eec7b5560e11b8152808701849052929591946001600160a01b039493909260209182816024817f00000000000000000000000000000000000000000000000000000000000000008b165afa90811562000335578a9162000301575b508633911603620002f3578290888a528983528987868220541683620002e8575b83156200028e57803b156200028a57865163020da84160e61b81528381018c81526001600160a01b038a166020820152604081018c90529091839183919082908490829060600103925af18015620002805762000264575b50505b6001600160e01b036200020d8a62001742565b11620002565750835196875215159086015215159084015233606084015216907f5dd3ead325af435e56bc762b40de54c96de6071938d18a26414245807591d86f90608090a380f35b8451633062f38960e11b8152fd5b6200026f90620016b3565b6200027c578938620001f7565b8980fd5b87513d84823e3d90fd5b5080fd5b5050868616808b5260028452858b208a8c528452620002b189878d20546200171e565b908b5260028452858b208a8c528452858b205560018352620002d788868c20546200171e565b898b5260018452858b2055620001fa565b80151593506200019f565b8351632adfdd0560e21b8152fd5b620003269150833d85116200032d575b6200031d8183620016fb565b81019062001804565b386200017e565b503d62000311565b85513d8c823e3d90fd5b5050346200028a57816003193601126200028a57517f00000000000000000000000000000000000000000000000000000000000000006001600160a01b03168152602090f35b5050346200028a57816003193601126200028a57517f00000000000000000000000000000000000000000000000000000000000000006001600160a01b03168152602090f35b509034620001085760803660031901126200010857620003ea62001631565b6001600160a01b036044358181169460243594929391869003620007a9578360643592169384331415806200071d575b8062000672575b620006635783516321d1336160e11b815282810187905261012080826024817f000000000000000000000000000000000000000000000000000000000000000087165afa91821562000659578a9262000596575b50506101009150620004866200186e565b50015190620004946200186e565b50836001808085600a1c1614918291815190620004b182620016de565b80808860081c161482528060209760091c1614868201520152620005885786156200057a5784885260028252838820868952825283882054908184116200056c575090827fae47e55abe3902569528abe4272b889079230a248aec0659a2939a90354982c6949392868a5260028352848a20888b52835203838920558688526002815282882086895281526200054b82848a20546200171e565b87895260028252838920878a5282528389205582519182523390820152a480f35b84516383fc8b2d60e01b8152fd5b835163c6587bab60e01b8152fd5b83516318cdaf9760e01b8152fd5b9080925081813d831162000651575b620005b18183620016fb565b810103126200027c57855191820182811067ffffffffffffffff8211176200063c57865280518252602081015160208301528581015186830152606081015160608301526080810151608083015260a081015160a083015260c081015160c083015260e081015192831683036200027c576101009260e0830152828091015190820152388062000475565b604185634e487b7160e01b6000525260246000fd5b503d620005a5565b86513d8c823e3d90fd5b50825163075fd2b160e01b8152fd5b50835163c161c93f60e01b815233838201526024810186905260006044820152600c60648201526020816084817f000000000000000000000000000000000000000000000000000000000000000086165afa9081156200071257600091620006dd575b501562000421565b62000703915060203d81116200070a575b620006fa8183620016fb565b81019062001854565b38620006d5565b503d620006ee565b85513d6000823e3d90fd5b50835163c161c93f60e01b81523383820152856024820152866044820152600c6064820152602081608481857f0000000000000000000000000000000000000000000000000000000000000000165afa908115620007125760009162000786575b50156200041a565b620007a2915060203d81116200070a57620006fa8183620016fb565b386200077e565b600080fd5b50913462000b3b57606036600319011262000b3b5782356024359367ffffffffffffffff9485811162000b3757620007ea903690830162001682565b909160443587811162000b335762000806903690830162001682565b87516331a9108f60e11b8152808401879052602099929391926001600160a01b0392918b816024817f000000000000000000000000000000000000000000000000000000000000000088165afa90811562000b29579084918b9162000b07575b501680331415908162000a70575b81620009d8575b50620009c9578515620009ba578315620009ab57878952888b52828a8a2054166200099c578951916127f490818401928484109084111762000989575090888b620008ed8e869562001890873960608552620008dd8c8c606088019162001825565b9085820390860152888a62001825565b920152039088f080156200097f57927f1b1705bef26552c8f314c5eb80e9c84f02876c2f7f30a7f9ad5cafd17d5fa6da949262000971928a99989795169988888c9a52808d5220886bffffffffffffffffffffffff60a01b82541617905562000963895195869560608752606087019162001825565b918483038c86015262001825565b33878301520390a351908152f35b88513d89823e3d90fd5b634e487b7160e01b8b526041905260248afd5b5088516329518c2b60e21b8152fd5b50885163571431a760e01b8152fd5b5088516392bf449d60e01b8152fd5b50885163075fd2b160e01b8152fd5b90508a519063c161c93f60e01b82523384830152602482015260006044820152600760648201528b81608481877f0000000000000000000000000000000000000000000000000000000000000000165afa90811562000a655760009162000a43575b5015386200087b565b62000a5e91508c8d3d106200070a57620006fa8183620016fb565b3862000a3a565b8b513d6000823e3d90fd5b90508a5163c161c93f60e01b81523384820152816024820152896044820152600760648201528c81608481887f0000000000000000000000000000000000000000000000000000000000000000165afa90811562000afc5760009162000ada575b50159062000874565b62000af591508d803d106200070a57620006fa8183620016fb565b3862000ad1565b8c513d6000823e3d90fd5b62000b2291508d803d106200032d576200031d8183620016fb565b3862000866565b8b513d8c823e3d90fd5b8580fd5b8380fd5b80fd5b509034620001085762000b513662001648565b90919492845194632eec7b5560e11b86528685870152602060018060a01b039681816024818b7f0000000000000000000000000000000000000000000000000000000000000000165afa90811562000e51578a9162000e2f575b50873391160362000e1f5787895288815286828a20541696831696878a5260028252828a20898b528252828a205496811560001462000d9a578a945b62000bf389876200171e565b881162000d8b57908b929183928762000d4f575b8c848b038d8162000cf7575b5050508362000c67575b5050505050907fbe100da6adaa492f7ba1b0de916ae2606126ec7b044d7aa8ec74971a607ceecd9560a095949392825195865285015283015215156060820152336080820152a380f35b803b1562000cf3578651634f752fb360e11b81529283018d81526001600160a01b03909216602083015260408201939093529091839183919082908490829060600103925af1801562000ce95762000cc3575b80808062000c1d565b62000cd490969594939296620016b3565b62000ce55790919293883862000cba565b8880fd5b84513d84823e3d90fd5b8480fd5b62000d3b9281895260028a528a8920818a528a5262000d1a838c8b205462001846565b91895260028a528a8920908952895289882055600188528887205462001846565b8d865260018752878620558c388d62000c13565b9250871562000d71578887101562000d6a57865b9262000c07565b8862000d63565b888a101562000d84578989039262000c07565b8362000d63565b508351631cf2628760e31b8152fd5b8351627eeac760e11b81526001600160a01b038616828201908152602081018c90528490829081906040010381865afa90811562000e15578c9162000de2575b509462000be7565b90508381813d831162000e0d575b62000dfc8183620016fb565b81010312620007a957513862000dda565b503d62000df0565b85513d8e823e3d90fd5b8151632adfdd0560e21b81528690fd5b62000e4a9150823d84116200032d576200031d8183620016fb565b3862000bab565b83513d8c823e3d90fd5b5050346200028a57816003193601126200028a57517f00000000000000000000000000000000000000000000000000000000000000006001600160a01b03168152602090f35b503462000108578160031936011262000108576001600160a01b0360243581811693833593909185900362000b335781516331a9108f60e11b81528181018590526020939084816024817f000000000000000000000000000000000000000000000000000000000000000086165afa9081156200119757908291899162001175575b5016803314159081620010e9575b8162001051575b5062001042578515620010335784875286845282872054166200102557815163313ce56760e01b815283818381895afa9081156200101b57879162000fd8575b5060ff601291160362000fca575082855284825280852080546001600160a01b03191685179055513381527ff2b3bb02e24e3ecd8d6fbce63d308207ce06307b9f7ba575bef710e1e70ac60e9190a380f35b9051632b70e32560e21b8152fd5b90508381813d831162001013575b62000ff28183620016fb565b810103126200100f575160ff811681036200100f5760ff62000f78565b8680fd5b503d62000fe6565b83513d89823e3d90fd5b90516397f9d95760e01b8152fd5b5090516324679e7b60e01b8152fd5b50905163075fd2b160e01b8152fd5b905083519063c161c93f60e01b82523384830152602482015260006044820152600860648201528481608481857f0000000000000000000000000000000000000000000000000000000000000000165afa908115620010de57600091620010bc575b50153862000f38565b620010d79150853d87116200070a57620006fa8183620016fb565b38620010b3565b84513d6000823e3d90fd5b9050835163c161c93f60e01b81523384820152816024820152866044820152600860648201528581608481867f0000000000000000000000000000000000000000000000000000000000000000165afa908115620007125760009162001153575b50159062000f31565b6200116e9150863d88116200070a57620006fa8183620016fb565b386200114a565b620011909150863d88116200032d576200031d8183620016fb565b3862000f23565b84513d8a823e3d90fd5b50913462000b3b57602036600319011262000b3b5750620011c56020923562001742565b9051908152f35b5034620001085760603660031901126200010857620011ea62001631565b602435926001600160a01b038281169360443591903386141580620013f4575b806200135f575b62001351578688526020918883528489205416948515620013425786895260028352848920888a52835284892054958487106200133257908991888352600285528683208a84528552858803878420556001855285878420540387842055803b156200010857865163020da84160e61b81529384018a81526001600160a01b03909216602083015260408201869052839182908490829060600103925af180156200119757620012f3575b50825193845283015233908201527fe718784128df3c3d45fbd6519133fee450494f7cdb2b53830a5087cd47f9808290606090a380f35b916060939197620013267fe718784128df3c3d45fbd6519133fee450494f7cdb2b53830a5087cd47f980829694620016b3565b979193509193620012bc565b85516383fc8b2d60e01b81528390fd5b5083516339e231e760e11b8152fd5b835163075fd2b160e01b8152fd5b50835163c161c93f60e01b81523382820152866024820152886044820152600b6064820152602081608481867f0000000000000000000000000000000000000000000000000000000000000000165afa908115620013ea578991620013c7575b501562001211565b620013e3915060203d81116200070a57620006fa8183620016fb565b38620013bf565b85513d8b823e3d90fd5b50835163c161c93f60e01b81523382820152866024820152876044820152600b6064820152602081608481867f0000000000000000000000000000000000000000000000000000000000000000165afa908115620013ea5789916200145c575b50156200120a565b62001478915060203d81116200070a57620006fa8183620016fb565b3862001454565b5050346200028a57816003193601126200028a57517f00000000000000000000000000000000000000000000000000000000000000006001600160a01b03168152602090f35b5050346200028a57806003193601126200028a5760209181906001600160a01b03620014f062001631565b168152600284528181206024358252845220549051908152f35b503462000108576020366003190112620001085760209282913581526001845220549051908152f35b9390503462000b3b578260031936011262000b3b576200155262001631565b936024359460018060a01b03938482168452602096879260028452878620828752845287862054968685528887205416928362001593575b84888a51908152f35b627eeac760e11b86526001600160a01b0390911690850190815260208101919091528391908290819060400103915afa91821562001626578092620015ed575b5050620015e0916200171e565b388084818080806200158a565b9091508482813d83116200161e575b620016088183620016fb565b8101031262000b3b575051620015e038620015d3565b503d620015fc565b8451903d90823e3d90fd5b600435906001600160a01b0382168203620007a957565b6080906003190112620007a9576004356001600160a01b0381168103620007a9579060243590604435906064358015158103620007a95790565b9181601f84011215620007a95782359167ffffffffffffffff8311620007a95760208381860195010111620007a957565b67ffffffffffffffff8111620016c857604052565b634e487b7160e01b600052604160045260246000fd5b6060810190811067ffffffffffffffff821117620016c857604052565b90601f8019910116810190811067ffffffffffffffff821117620016c857604052565b919082018092116200172c57565b634e487b7160e01b600052601160045260246000fd5b90600082815260206001815260408220549382825260018060a01b03604084205416908162001772575b50505050565b918093959260246040518094819363bd85b03960e01b835260048301525afa928315620017f9578593620017bb575b5050620017b09293506200171e565b90388080806200176c565b9080929350813d8311620017f1575b620017d68183620016fb565b8101031262000b3757620017b09293505190839238620017a1565b503d620017ca565b6040513d87823e3d90fd5b90816020910312620007a957516001600160a01b0381168103620007a95790565b908060209392818452848401376000828201840152601f01601f1916010190565b919082039182116200172c57565b90816020910312620007a957518015158103620007a95790565b604051906200187d82620016de565b6000604083828152826020820152015256fe6101606040818152346200047057620027f4803803809162000022828662000475565b84398201606083820312620004705782516001600160401b0392908381116200047057826200005391860162000499565b9060209283860151858111620004705782916200007291880162000499565b95015192815192828401848110878211176200037d57835260019081855282850191603160f81b835281518881116200037d5760038054918383811c9316801562000465575b878410146200044f57601f9283811162000404575b5080878482116001146200039f5760009162000393575b5060001982841b1c191690841b1781555b8a51918a83116200037d5760049b8c548581811c9116801562000372575b898210146200035d5782811162000312575b5087918411600114620002a7579383949184926000956200029b575b50501b92600019911b1c19161788555b82815191012093519020918360e052610100968388524660a0528151928301937f8b73c3c69bb8fe3d512ecc4cf759cc79239f7b179b0ffacaa9a75d522b39400f958686528385015260608401524660808401523060a084015260a0835260c0830196838810908811176200028657508590525190206080523060c052610120908152600a8054336001600160a01b0319821681179092556001600160a01b03167f8be0079c531659141344cd1fd0a4f28419497f9722a3daafe3b4186f6b6457e0600080a36101409182526122e3938462000511853960805184612085015260a05184612151015260c0518461204f015260e051846120d4015251836120fa015251826120b101525181818161019e015281816107ef01528181610d6d01528181610dce0152818161112c01526113340152f35b604190634e487b7160e01b6000525260246000fd5b01519350388062000141565b9190601f198416928d60005284896000209460005b8b89838310620002fa5750505010620002df575b50505050811b01885562000151565b01519060f884600019921b161c1916905538808080620002d0565b868601518955909701969485019488935001620002bc565b8d600052886000208380870160051c8201928b881062000353575b0160051c019086905b8281106200034657505062000125565b6000815501869062000336565b925081926200032d565b60228e634e487b7160e01b6000525260246000fd5b90607f169062000113565b634e487b7160e01b600052604160045260246000fd5b905085015138620000e4565b859250601f1982169084600052896000209160005b8b828210620003ed5750508311620003d4575b5050811b018155620000f5565b87015160001983861b60f8161c191690553880620003c7565b838b015185558996909401939283019201620003b4565b82600052876000208480840160051c8201928a851062000445575b0160051c019085905b82811062000438575050620000cd565b6000815501859062000428565b925081926200041f565b634e487b7160e01b600052602260045260246000fd5b92607f1692620000b8565b600080fd5b601f909101601f19168101906001600160401b038211908210176200037d57604052565b919080601f8401121562000470578251906001600160401b0382116200037d5760405191602091620004d5601f8301601f191684018562000475565b818452828287010111620004705760005b818110620004fc57508260009394955001015290565b8581018301518482018401528201620004e656fe6040608081526004908136101561001557600080fd5b600090813560e01c8062fdd58e146114c157806306fdde03146113cc578063095ea7b3146113a357806318160ddd146113855780631c0f12b61461130357806323b872dd146112c9578063313ce567146112ae5780633644e5151461129257806339509351146112435780633a46b1a81461114f5780633fafa12714611115578063587cde1e146110db5780635c19a95c146110b85780636fcfff451461107157806370a082311461102f578063715018a614610fd25780637ecebe0014610f9b578063836a104014610db35780638cb0a51114610d595780638da5cb5b14610d315780638e539e8c14610c6157806395d89b4114610b5f5780639ab24eb014610ad75780639eea5f66146107d3578063a457c2d71461072e578063a9059cbb146106fe578063bd85b039146106df578063c3cda52014610554578063d505accf146103a9578063dd62ed3e14610361578063f1127ed8146102c9578063f2fde38b146101f95763f8548e361461018b57600080fd5b346101f55761019936611556565b9290917f000000000000000000000000000000000000000000000000000000000000000080151591826101ea575b50506101dc5750906101d991336116ef565b80f35b5162cdceed60e81b81528490fd5b1415905038806101c7565b5080fd5b5082346102c55760203660031901126102c5576102146114dc565b9061021d611580565b6001600160a01b03918216928315610273575050600a54826bffffffffffffffffffffffff60a01b821617600a55167f8be0079c531659141344cd1fd0a4f28419497f9722a3daafe3b4186f6b6457e08380a380f35b906020608492519162461bcd60e51b8352820152602660248201527f4f776e61626c653a206e6577206f776e657220697320746865207a65726f206160448201526564647265737360d01b6064820152fd5b8280fd5b50903461035e578160031936011261035e576102e36114dc565b63ffffffff916024359183831683036101f55781859161032694936020845161030b816115d8565b82815201526001600160a01b031681526008602052206119d5565b50906020835192610336846115d8565b54918216808452602092831c919093019081528351928352516001600160e01b031690820152f35b80fd5b50346101f557806003193601126101f5578060209261037e6114dc565b6103866114f7565b6001600160a01b0391821683526001865283832091168252845220549051908152f35b5091346101f55760e03660031901126101f5576103c46114dc565b6103cc6114f7565b90604435926064356084359060ff821682036105505780421161050d576001600160a01b038416600090815260056020526040902080546001810190915591885160208101917f6e71edae12b1b97f4d1f60370fef10105fa2faae0126114a169c64845d6126c9835260018060a01b039384881695868d850152858a1660608501528a608085015260a084015260c083015260c0825260e0820182811067ffffffffffffffff8211176104fa57916104a5939161049d938d5261049860c4359360a43593519020612177565b611f97565b919091611e25565b16036104b757506101d9939450611886565b606490602087519162461bcd60e51b8352820152601e60248201527f45524332305065726d69743a20696e76616c6964207369676e617475726500006044820152fd5b634e487b7160e01b8b526041875260248bfd5b875162461bcd60e51b8152602081850152601d60248201527f45524332305065726d69743a206578706972656420646561646c696e650000006044820152606490fd5b8680fd5b5091346101f55760c03660031901126101f55761056f6114dc565b9060243560443560643560ff811681036106db578142116106985786519060208201927fe48329057bfd03d55e49b547132e39cffd9c1820ad7b9d4c5307691425d15adf845260018060a01b0387168984015284606084015260808301526080825260a0820182811067ffffffffffffffff821117610685579161061195949391610609938a5261049860a4359360843593519020612177565b939093611e25565b6001600160a01b0383166000908152600560205260409020805460018101909155036106425750906101d991611a46565b606490602086519162461bcd60e51b8352820152601960248201527f4552433230566f7465733a20696e76616c6964206e6f6e6365000000000000006044820152fd5b634e487b7160e01b885260418652602488fd5b865162461bcd60e51b8152602081860152601d60248201527f4552433230566f7465733a207369676e617475726520657870697265640000006044820152606490fd5b8580fd5b50346101f55760203660031901126101f5576020906002549051908152f35b50346101f557806003193601126101f55760209061072761071d6114dc565b60243590336116ef565b5160018152f35b5091903461035e578260031936011261035e576107496114dc565b918360243592338152600160205281812060018060a01b0386168252602052205490828210610782576020856107278585038733611886565b608490602086519162461bcd60e51b8352820152602560248201527f45524332303a2064656372656173656420616c6c6f77616e63652062656c6f77604482015264207a65726f60d81b6064820152fd5b5091346101f5576107e336611556565b94916107ed611580565b7f00000000000000000000000000000000000000000000000000000000000000008015159182610acc575b5050610abf576001600160a01b03908116908115610a725781855260209185835283862054878110610a24579181886108aa9481948a528987520386892055610863836002546119ed565b60025587817fddf252ad1be2c89b69c2b068fc378daa952ba7f163c4a11628f55a4df523b3ef878951878152a3875260078452848720548780528588205482169116611aba565b600954948515928315610a02576108cd86925b6001600160e01b039384166119ed565b9315806109ca575b1561092c575050506108e6906121bf565b90600019840193841161091957506109016101d99293611988565b509063ffffffff82549181199060201b169116179055565b634e487b7160e01b835260119052602482fd5b9193958161094561093f95939543612228565b936121bf565b935195610951876115d8565b63ffffffff8094168752860193168352600160401b8110156109b75780600161097d9201600955611988565b9490946109a55751915163ffffffff9190921616911660201b63ffffffff1916179055905080f35b634e487b7160e01b8652858752602486fd5b634e487b7160e01b865260418752602486fd5b5060001987018781116109ef576109e563ffffffff91611988565b50541643146108d5565b634e487b7160e01b875260118652602487fd5b60001987018781116109ef57610a1a6108cd91611988565b5054841c926108bd565b845162461bcd60e51b8152808701859052602260248201527f45524332303a206275726e20616d6f756e7420657863656564732062616c616e604482015261636560f01b6064820152608490fd5b825162461bcd60e51b8152602081860152602160248201527f45524332303a206275726e2066726f6d20746865207a65726f206164647265736044820152607360f81b6064820152608490fd5b505162cdceed60e81b8152fd5b141590503880610818565b50903461035e57602036600319011261035e576001600160a01b03610afa6114dc565b16815260086020528181205480610b22575060209250905b516001600160e01b039091168152f35b82822060001982019290918311610b4c57506020935090610b42916119d5565b5054821c90610b12565b634e487b7160e01b815260118552602490fd5b50346101f557816003193601126101f557805191809380549160019083821c92828516948515610c57575b6020958686108114610c4457858952908115610c205750600114610bc8575b610bc48787610bba828c038361160a565b519182918261150d565b0390f35b81529295507f8a35acfbc15ff81a39ae7d344fd709f28e8600b4aa8c65c6b64bfe7fe36bd19b5b828410610c0d5750505082610bc494610bba92820101943880610ba9565b8054868501880152928601928101610bef565b60ff19168887015250505050151560051b8301019250610bba82610bc43880610ba9565b634e487b7160e01b845260228352602484fd5b93607f1693610b8a565b50903461035e57602036600319011261035e57823592610c824385106119fa565b6009549382905b858210610cd957505083610cad57506020925090516001600160e01b039091168152f35b6000198401938411610cc6575050610b42602092611988565b634e487b7160e01b825260119052602490fd5b9094600190610cee818818831c8289166116cc565b918363ffffffff610cfe85611988565b5054161115610d11575050945b90610c89565b909650810180911115610d0b57634e487b7160e01b845260118352602484fd5b50346101f557816003193601126101f557600a5490516001600160a01b039091168152602090f35b50346101f557610d6836611556565b9290917f00000000000000000000000000000000000000000000000000000000000000008015159182610da8575b50506101dc5750906101d99133611886565b141590503880610d96565b5091346101f557610dc336611556565b91610dcc611580565b7f00000000000000000000000000000000000000000000000000000000000000008015159182610f90575b5050610f81576001600160a01b039081168015610f3e5782610e8091610e1f826002546116cc565b600255808752602093878552888820610e398482546116cc565b905581887fddf252ad1be2c89b69c2b068fc378daa952ba7f163c4a11628f55a4df523b3ef878c51878152a387805260078552808989205416918852888820541690611aba565b6002546001600160e01b03908110610ee257600954958615938415610eac576108cd9083885b166116cc565b6000198801888111610ecf579083610ec66108cd93611988565b5054861c610ea6565b634e487b7160e01b885260118752602488fd5b855162461bcd60e51b8152808501839052603060248201527f4552433230566f7465733a20746f74616c20737570706c79207269736b73206f60448201526f766572666c6f77696e6720766f74657360801b6064820152608490fd5b855162461bcd60e51b8152602081860152601f60248201527f45524332303a206d696e7420746f20746865207a65726f2061646472657373006044820152606490fd5b845162cdceed60e81b81528390fd5b141590503880610df7565b50346101f55760203660031901126101f55760209181906001600160a01b03610fc26114dc565b1681526005845220549051908152f35b823461035e578060031936011261035e57610feb611580565b600a80546001600160a01b0319811690915581906001600160a01b03167f8be0079c531659141344cd1fd0a4f28419497f9722a3daafe3b4186f6b6457e08280a380f35b50346101f55760203660031901126101f55760209061106a61104f6114dc565b6001600160a01b031660009081526020819052604090205490565b9051908152f35b50346101f55760203660031901126101f55760209163ffffffff906110b09083906001600160a01b036110a26114dc565b168152600886522054612228565b915191168152f35b823461035e57602036600319011261035e576101d96110d56114dc565b33611a46565b50346101f55760203660031901126101f5576020916001600160a01b03908290826111046114dc565b168152600785522054169051908152f35b50346101f557816003193601126101f557602090517f00000000000000000000000000000000000000000000000000000000000000008152f35b50903461035e578160031936011261035e576111696114dc565b92602480359461117a4387106119fa565b6001600160a01b03168352600860205283832080549590929084905b8782106111eb575050856111bc575050506020925090516001600160e01b039091168152f35b6000198601959293919286116111db57505050602092610b42916119d5565b634e487b7160e01b825260119052fd5b9096600190611200818a18831c828b166116cc565b918363ffffffff611211858a6119d5565b5054161115611224575050965b90611196565b90985081018091111561121e57634e487b7160e01b8652601183528386fd5b50346101f557806003193601126101f55761072760209261128b6112656114dc565b338352600186528483206001600160a01b038216845286529184902054602435906116cc565b9033611886565b50346101f557816003193601126101f55760209061106a61204c565b50346101f557816003193601126101f5576020905160128152f35b50346101f55760603660031901126101f5576020906112fa6112e96114dc565b6112f16114f7565b6044359161162c565b90519015158152f35b50346101f55760803660031901126101f55761131d6114f7565b90604435906001600160a01b0382168203611381577f00000000000000000000000000000000000000000000000000000000000000008015159081611375575b506101dc575090611371916064359161162c565b5080f35b9050853514153861135d565b8380fd5b50346101f557816003193601126101f5576020906002549051908152f35b50346101f557806003193601126101f5576020906107276113c26114dc565b6024359033611886565b508290346102c557826003193601126102c557805191836003549060019082821c9282811680156114b7575b60209586861082146114a457508488529081156114825750600114611429575b610bc48686610bba828b038361160a565b929550600383527fc2575a0e9e593c00f959f8c92f12db2869c3395a3b0502d05e2516446f71f85b5b82841061146f5750505082610bc494610bba928201019486611418565b8054868501880152928601928101611452565b60ff191687860152505050151560051b8301019250610bba82610bc486611418565b634e487b7160e01b845260229052602483fd5b93607f16936113f8565b50346101f557806003193601126101f55760209061106a61104f5b600435906001600160a01b03821682036114f257565b600080fd5b602435906001600160a01b03821682036114f257565b6020808252825181830181905290939260005b82811061154257505060409293506000838284010152601f8019910116010190565b818101860151848201604001528501611520565b60609060031901126114f257600435906024356001600160a01b03811681036114f2579060443590565b600a546001600160a01b0316330361159457565b606460405162461bcd60e51b815260206004820152602060248201527f4f776e61626c653a2063616c6c6572206973206e6f7420746865206f776e65726044820152fd5b6040810190811067ffffffffffffffff8211176115f457604052565b634e487b7160e01b600052604160045260246000fd5b90601f8019910116810190811067ffffffffffffffff8211176115f457604052565b919060018060a01b038316600052600160205260406000203360005260205260406000205492600019840361166b575b61166693506116ef565b600190565b828410611687576116828361166695033383611886565b61165c565b60405162461bcd60e51b815260206004820152601d60248201527f45524332303a20696e73756666696369656e7420616c6c6f77616e63650000006044820152606490fd5b919082018092116116d957565b634e487b7160e01b600052601160045260246000fd5b6001600160a01b0390811693929184156118335781169081156117e257600085815280602052604090818120549685881061178f578561178d97988284528360205203838320558482528282206117478782546116cc565b905584817fddf252ad1be2c89b69c2b068fc378daa952ba7f163c4a11628f55a4df523b3ef602086518a8152a38152600760205282828220541693815220541690611aba565b565b825162461bcd60e51b815260206004820152602660248201527f45524332303a207472616e7366657220616d6f756e7420657863656564732062604482015265616c616e636560d01b6064820152608490fd5b60405162461bcd60e51b815260206004820152602360248201527f45524332303a207472616e7366657220746f20746865207a65726f206164647260448201526265737360e81b6064820152608490fd5b60405162461bcd60e51b815260206004820152602560248201527f45524332303a207472616e736665722066726f6d20746865207a65726f206164604482015264647265737360d81b6064820152608490fd5b6001600160a01b0390811691821561193757169182156118e75760207f8c5be1e5ebec7d5bd14f71427d1e84f3dd0314c0f7b2291e5b200ac8c7c3b925918360005260018252604060002085600052825280604060002055604051908152a3565b60405162461bcd60e51b815260206004820152602260248201527f45524332303a20617070726f766520746f20746865207a65726f206164647265604482015261737360f01b6064820152608490fd5b60405162461bcd60e51b8152602060048201526024808201527f45524332303a20617070726f76652066726f6d20746865207a65726f206164646044820152637265737360e01b6064820152608490fd5b6009548110156119bf5760096000527f6e1540171b6c0c960b71a7020d9f60077f6af931a8bbf590da0223dacf75c7af0190600090565b634e487b7160e01b600052603260045260246000fd5b80548210156119bf5760005260206000200190600090565b919082039182116116d957565b15611a0157565b60405162461bcd60e51b815260206004820152601f60248201527f4552433230566f7465733a20626c6f636b206e6f7420796574206d696e6564006044820152606490fd5b61178d9160018060a01b038092166000928184526007602052806040852054168092856020527f3134e8a2e6d97e929a7e54011ea5485d7d196dd5f0ba4d4ef95803e8e3fc257f60408720549660076020526040812094871694856bffffffffffffffffffffffff60a01b82541617905580a45b6001600160a01b039182169291168083141580611e1c575b611adb57505050565b80611ca8575b5081611aeb575050565b60008281526008602052604081208054801592918315611c7457825b6001600160e01b0390811695611b1d90876116cc565b941580611c3a575b15611b845750611b34846121bf565b926000198301928311611b70575060008051602061228e833981519152949261090160409593611b63936119d5565b82519182526020820152a2565b634e487b7160e01b81526011600452602490fd5b9190611b8f43612228565b90611b99866121bf565b9260405191611ba7836115d8565b63ffffffff8094168352856020840195168552600160401b821015611c265790611bd6916001820181556119d5565b959095611c12575051915163ffffffff9190921616911660201b63ffffffff191617905560008051602061228e83398151915291604091611b63565b634e487b7160e01b81526004819052602490fd5b634e487b7160e01b87526041600452602487fd5b506000198301838111611c6057611c5663ffffffff91846119d5565b5054164314611b25565b634e487b7160e01b85526011600452602485fd5b6000198201828111611c9457611c8a90826119d5565b505460201c611b07565b634e487b7160e01b84526011600452602484fd5b6000818152600860205260408120805490918115918215611de75781935b6001600160e01b0394851694611cdc88876119ed565b941580611dc1575b15611d335750611cf3846121bf565b926000198301928311611b70575060008051602061228e833981519152949261090160409593611d22936119d5565b82519182526020820152a238611ae1565b9190611d3e43612228565b90611d48866121bf565b9260405191611d56836115d8565b63ffffffff8094168352856020840195168552600160401b821015611c265790611d85916001820181556119d5565b959095611c12575051915163ffffffff9190921616911660201b63ffffffff191617905560008051602061228e83398151915291604091611d22565b506000198301838111611c6057611ddd63ffffffff91846119d5565b5054164314611ce4565b6000198101818111611e0857611dfd90856119d5565b505460201c93611cc6565b634e487b7160e01b83526011600452602483fd5b50811515611ad2565b6005811015611f815780611e365750565b60018103611e835760405162461bcd60e51b815260206004820152601860248201527f45434453413a20696e76616c6964207369676e617475726500000000000000006044820152606490fd5b60028103611ed05760405162461bcd60e51b815260206004820152601f60248201527f45434453413a20696e76616c6964207369676e6174757265206c656e677468006044820152606490fd5b60038103611f285760405162461bcd60e51b815260206004820152602260248201527f45434453413a20696e76616c6964207369676e6174757265202773272076616c604482015261756560f01b6064820152608490fd5b600414611f3157565b60405162461bcd60e51b815260206004820152602260248201527f45434453413a20696e76616c6964207369676e6174757265202776272076616c604482015261756560f01b6064820152608490fd5b634e487b7160e01b600052602160045260246000fd5b9291907f7fffffffffffffffffffffffffffffff5d576e7357a4501ddfe92f46681b20a083116120405760ff16601b81141580612035575b612029579160809493916020936040519384528484015260408301526060820152600093849182805260015afa1561201c5781516001600160a01b03811615612016579190565b50600190565b50604051903d90823e3d90fd5b50505050600090600490565b50601c811415611fcf565b50505050600090600390565b307f00000000000000000000000000000000000000000000000000000000000000006001600160a01b0316148061214e575b156120a7577f000000000000000000000000000000000000000000000000000000000000000090565b60405160208101907f000000000000000000000000000000000000000000000000000000000000000082527f000000000000000000000000000000000000000000000000000000000000000060408201527f000000000000000000000000000000000000000000000000000000000000000060608201524660808201523060a082015260a0815260c0810181811067ffffffffffffffff8211176115f45760405251902090565b507f0000000000000000000000000000000000000000000000000000000000000000461461207e565b61217f61204c565b9060405190602082019261190160f01b845260228301526042820152604281526080810181811067ffffffffffffffff8211176115f45760405251902090565b6001600160e01b03908181116121d3571690565b60405162461bcd60e51b815260206004820152602760248201527f53616665436173743a2076616c756520646f65736e27742066697420696e20326044820152663234206269747360c81b6064820152608490fd5b63ffffffff90818111612239571690565b60405162461bcd60e51b815260206004820152602660248201527f53616665436173743a2076616c756520646f65736e27742066697420696e203360448201526532206269747360d01b6064820152608490fdfedec2bacdd2f05b59de34da9b523dff8be42e5e38e818c82fdb0bae774387a724a2646970667358221220cb42b0dfa43d7b900b7bf4bb7bdc23a2cb4db6971649fd5487895961688a71a264736f6c63430008110033a264697066735822122025c85b1b73f06250a701be704a961784d58bf78d8730bb1dd80eec4cc6dca3a164736f6c63430008110033",
    "linkReferences": {}
  },
  "methodIdentifiers": {
    "balanceOf(address,uint256)": "00fdd58e",
    "burnFrom(address,uint256,uint256,bool)": "906ebd0f",
    "claimFor(address,uint256,uint256)": "6607955d",
    "directory()": "c41c2f24",
    "fundingCycleStore()": "557e7155",
    "issueFor(uint256,string,string)": "a7f2a70b",
    "mintFor(address,uint256,uint256,bool)": "ceddd3e4",
    "operatorStore()": "ad007d63",
    "projects()": "8b79543c",
    "setFor(uint256,address)": "831d7fac",
    "tokenOf(uint256)": "ea78803f",
    "totalSupplyOf(uint256)": "75b0d9cd",
    "transferFrom(address,uint256,address,uint256)": "ac689bcd",
    "unclaimedBalanceOf(address,uint256)": "5287af37",
    "unclaimedTotalSupplyOf(uint256)": "1412884f"
  },
  "id": 75
}