{
  "abi": [
    {
      "inputs": [],
      "name": "ALEADY_MINTED",
      "type": "error"
    },
    {
      "inputs": [],
      "name": "APPROVAL_TO_CURRENT_OWNER",
      "type": "error"
    },
    {
      "inputs": [],
      "name": "APPROVE_TO_CALLER",
      "type": "error"
    },
    {
      "inputs": [],
      "name": "BLOCK_NOT_YET_MINED",
      "type": "error"
    },
    {
      "inputs": [],
      "name": "CALLER_NOT_OWNER_OR_APPROVED",
      "type": "error"
    },
    {
      "inputs": [],
      "name": "DELEGATE_ADDRESS_ZERO",
      "type": "error"
    },
    {
      "inputs": [],
      "name": "GAME_ISNT_OVER_YET",
      "type": "error"
    },
    {
      "inputs": [],
      "name": "INCORRECT_OWNER",
      "type": "error"
    },
    {
      "inputs": [],
      "name": "INVALID_PAYMENT_EVENT",
      "type": "error"
    },
    {
      "inputs": [],
      "name": "INVALID_REDEMPTION_EVENT",
      "type": "error"
    },
    {
      "inputs": [],
      "name": "INVALID_REDEMPTION_METADATA",
      "type": "error"
    },
    {
      "inputs": [],
      "name": "INVALID_REDEMPTION_WEIGHTS",
      "type": "error"
    },
    {
      "inputs": [],
      "name": "INVALID_TIER_ID",
      "type": "error"
    },
    {
      "inputs": [],
      "name": "INVALID_TOKEN_ID",
      "type": "error"
    },
    {
      "inputs": [],
      "name": "MINT_TO_ZERO",
      "type": "error"
    },
    {
      "inputs": [],
      "name": "NOTHING_TO_CLAIM",
      "type": "error"
    },
    {
      "inputs": [],
      "name": "NOT_AVAILABLE",
      "type": "error"
    },
    {
      "inputs": [],
      "name": "OVERSPENDING",
      "type": "error"
    },
    {
      "inputs": [
        {
          "internalType": "uint256",
          "name": "prod1",
          "type": "uint256"
        },
        {
          "internalType": "uint256",
          "name": "denominator",
          "type": "uint256"
        }
      ],
      "name": "PRBMath__MulDivOverflow",
      "type": "error"
    },
    {
      "inputs": [],
      "name": "PRICING_RESOLVER_CHANGES_PAUSED",
      "type": "error"
    },
    {
      "inputs": [],
      "name": "RESERVED_TOKEN_MINTING_PAUSED",
      "type": "error"
    },
    {
      "inputs": [],
      "name": "TRANSFERS_PAUSED",
      "type": "error"
    },
    {
      "inputs": [],
      "name": "TRANSFER_TO_NON_IMPLEMENTER",
      "type": "error"
    },
    {
      "inputs": [],
      "name": "TRANSFER_TO_ZERO_ADDRESS",
      "type": "error"
    },
    {
      "inputs": [],
      "name": "UNAUTHORIZED",
      "type": "error"
    },
    {
      "inputs": [],
      "name": "UNEXPECTED_TOKEN_REDEEMED",
      "type": "error"
    },
    {
      "anonymous": false,
      "inputs": [
        {
          "indexed": true,
          "internalType": "uint256",
          "name": "changeAmount",
          "type": "uint256"
        },
        {
          "indexed": true,
          "internalType": "uint256",
          "name": "newTotalCredits",
          "type": "uint256"
        },
        {
          "indexed": true,
          "internalType": "address",
          "name": "account",
          "type": "address"
        },
        {
          "indexed": false,
          "internalType": "address",
          "name": "caller",
          "type": "address"
        }
      ],
      "name": "AddCredits",
      "type": "event"
    },
    {
      "anonymous": false,
      "inputs": [
        {
          "indexed": true,
          "internalType": "uint256",
          "name": "tierId",
          "type": "uint256"
        },
        {
          "components": [
            {
              "internalType": "uint80",
              "name": "contributionFloor",
              "type": "uint80"
            },
            {
              "internalType": "uint48",
              "name": "lockedUntil",
              "type": "uint48"
            },
            {
              "internalType": "uint40",
              "name": "initialQuantity",
              "type": "uint40"
            },
            {
              "internalType": "uint16",
              "name": "votingUnits",
              "type": "uint16"
            },
            {
              "internalType": "uint16",
              "name": "reservedRate",
              "type": "uint16"
            },
            {
              "internalType": "address",
              "name": "reservedTokenBeneficiary",
              "type": "address"
            },
            {
              "internalType": "uint8",
              "name": "royaltyRate",
              "type": "uint8"
            },
            {
              "internalType": "address",
              "name": "royaltyBeneficiary",
              "type": "address"
            },
            {
              "internalType": "bytes32",
              "name": "encodedIPFSUri",
              "type": "bytes32"
            },
            {
              "internalType": "uint8",
              "name": "category",
              "type": "uint8"
            },
            {
              "internalType": "bool",
              "name": "allowManualMint",
              "type": "bool"
            },
            {
              "internalType": "bool",
              "name": "shouldUseReservedTokenBeneficiaryAsDefault",
              "type": "bool"
            },
            {
              "internalType": "bool",
              "name": "shouldUseRoyaltyBeneficiaryAsDefault",
              "type": "bool"
            },
            {
              "internalType": "bool",
              "name": "transfersPausable",
              "type": "bool"
            }
          ],
          "indexed": false,
          "internalType": "struct JB721TierParams",
          "name": "data",
          "type": "tuple"
        },
        {
          "indexed": false,
          "internalType": "address",
          "name": "caller",
          "type": "address"
        }
      ],
      "name": "AddTier",
      "type": "event"
    },
    {
      "anonymous": false,
      "inputs": [
        {
          "indexed": true,
          "internalType": "address",
          "name": "owner",
          "type": "address"
        },
        {
          "indexed": true,
          "internalType": "address",
          "name": "approved",
          "type": "address"
        },
        {
          "indexed": true,
          "internalType": "uint256",
          "name": "tokenId",
          "type": "uint256"
        }
      ],
      "name": "Approval",
      "type": "event"
    },
    {
      "anonymous": false,
      "inputs": [
        {
          "indexed": true,
          "internalType": "address",
          "name": "owner",
          "type": "address"
        },
        {
          "indexed": true,
          "internalType": "address",
          "name": "operator",
          "type": "address"
        },
        {
          "indexed": false,
          "internalType": "bool",
          "name": "approved",
          "type": "bool"
        }
      ],
      "name": "ApprovalForAll",
      "type": "event"
    },
    {
      "anonymous": false,
      "inputs": [
        {
          "indexed": true,
          "internalType": "address",
          "name": "delegator",
          "type": "address"
        },
        {
          "indexed": true,
          "internalType": "address",
          "name": "fromDelegate",
          "type": "address"
        },
        {
          "indexed": true,
          "internalType": "address",
          "name": "toDelegate",
          "type": "address"
        }
      ],
      "name": "DelegateChanged",
      "type": "event"
    },
    {
      "anonymous": false,
      "inputs": [
        {
          "indexed": true,
          "internalType": "uint256",
          "name": "tokenId",
          "type": "uint256"
        },
        {
          "indexed": true,
          "internalType": "uint256",
          "name": "tierId",
          "type": "uint256"
        },
        {
          "indexed": true,
          "internalType": "address",
          "name": "beneficiary",
          "type": "address"
        },
        {
          "indexed": false,
          "internalType": "uint256",
          "name": "totalAmountContributed",
          "type": "uint256"
        },
        {
          "indexed": false,
          "internalType": "address",
          "name": "caller",
          "type": "address"
        }
      ],
      "name": "Mint",
      "type": "event"
    },
    {
      "anonymous": false,
      "inputs": [
        {
          "indexed": true,
          "internalType": "uint256",
          "name": "tokenId",
          "type": "uint256"
        },
        {
          "indexed": true,
          "internalType": "uint256",
          "name": "tierId",
          "type": "uint256"
        },
        {
          "indexed": true,
          "internalType": "address",
          "name": "beneficiary",
          "type": "address"
        },
        {
          "indexed": false,
          "internalType": "address",
          "name": "caller",
          "type": "address"
        }
      ],
      "name": "MintReservedToken",
      "type": "event"
    },
    {
      "anonymous": false,
      "inputs": [
        {
          "indexed": true,
          "internalType": "address",
          "name": "previousOwner",
          "type": "address"
        },
        {
          "indexed": true,
          "internalType": "address",
          "name": "newOwner",
          "type": "address"
        }
      ],
      "name": "OwnershipTransferred",
      "type": "event"
    },
    {
      "anonymous": false,
      "inputs": [
        {
          "indexed": true,
          "internalType": "uint256",
          "name": "tierId",
          "type": "uint256"
        },
        {
          "indexed": false,
          "internalType": "address",
          "name": "caller",
          "type": "address"
        }
      ],
      "name": "RemoveTier",
      "type": "event"
    },
    {
      "anonymous": false,
      "inputs": [
        {
          "indexed": true,
          "internalType": "string",
          "name": "baseUri",
          "type": "string"
        },
        {
          "indexed": false,
          "internalType": "address",
          "name": "caller",
          "type": "address"
        }
      ],
      "name": "SetBaseUri",
      "type": "event"
    },
    {
      "anonymous": false,
      "inputs": [
        {
          "indexed": true,
          "internalType": "string",
          "name": "contractUri",
          "type": "string"
        },
        {
          "indexed": false,
          "internalType": "address",
          "name": "caller",
          "type": "address"
        }
      ],
      "name": "SetContractUri",
      "type": "event"
    },
    {
      "anonymous": false,
      "inputs": [
        {
          "indexed": true,
          "internalType": "address",
          "name": "beneficiary",
          "type": "address"
        },
        {
          "indexed": false,
          "internalType": "address",
          "name": "caller",
          "type": "address"
        }
      ],
      "name": "SetDefaultReservedTokenBeneficiary",
      "type": "event"
    },
    {
      "anonymous": false,
      "inputs": [
        {
          "indexed": true,
          "internalType": "uint256",
          "name": "tierId",
          "type": "uint256"
        },
        {
          "indexed": false,
          "internalType": "bytes32",
          "name": "encodedIPFSUri",
          "type": "bytes32"
        },
        {
          "indexed": false,
          "internalType": "address",
          "name": "caller",
          "type": "address"
        }
      ],
      "name": "SetEncodedIPFSUri",
      "type": "event"
    },
    {
      "anonymous": false,
      "inputs": [
        {
          "indexed": true,
          "internalType": "contract IJBTokenUriResolver",
          "name": "newResolver",
          "type": "address"
        },
        {
          "indexed": false,
          "internalType": "address",
          "name": "caller",
          "type": "address"
        }
      ],
      "name": "SetTokenUriResolver",
      "type": "event"
    },
    {
      "anonymous": false,
      "inputs": [
        {
          "indexed": true,
          "internalType": "address",
          "name": "delegator",
          "type": "address"
        },
        {
          "indexed": true,
          "internalType": "address",
          "name": "fromDelegate",
          "type": "address"
        },
        {
          "indexed": true,
          "internalType": "address",
          "name": "toDelegate",
          "type": "address"
        },
        {
          "indexed": false,
          "internalType": "uint256",
          "name": "tierId",
          "type": "uint256"
        },
        {
          "indexed": false,
          "internalType": "address",
          "name": "caller",
          "type": "address"
        }
      ],
      "name": "TierDelegateChanged",
      "type": "event"
    },
    {
      "anonymous": false,
      "inputs": [
        {
          "indexed": true,
          "internalType": "address",
          "name": "delegate",
          "type": "address"
        },
        {
          "indexed": true,
          "internalType": "uint256",
          "name": "tierId",
          "type": "uint256"
        },
        {
          "indexed": false,
          "internalType": "uint256",
          "name": "previousBalance",
          "type": "uint256"
        },
        {
          "indexed": false,
          "internalType": "uint256",
          "name": "newBalance",
          "type": "uint256"
        },
        {
          "indexed": false,
          "internalType": "address",
          "name": "caller",
          "type": "address"
        }
      ],
      "name": "TierDelegateVotesChanged",
      "type": "event"
    },
    {
      "anonymous": false,
      "inputs": [
        {
          "indexed": true,
          "internalType": "address",
          "name": "from",
          "type": "address"
        },
        {
          "indexed": true,
          "internalType": "address",
          "name": "to",
          "type": "address"
        },
        {
          "indexed": true,
          "internalType": "uint256",
          "name": "tokenId",
          "type": "uint256"
        }
      ],
      "name": "Transfer",
      "type": "event"
    },
    {
      "anonymous": false,
      "inputs": [
        {
          "indexed": true,
          "internalType": "uint256",
          "name": "changeAmount",
          "type": "uint256"
        },
        {
          "indexed": true,
          "internalType": "uint256",
          "name": "newTotalCredits",
          "type": "uint256"
        },
        {
          "indexed": true,
          "internalType": "address",
          "name": "account",
          "type": "address"
        },
        {
          "indexed": false,
          "internalType": "address",
          "name": "caller",
          "type": "address"
        }
      ],
      "name": "UseCredits",
      "type": "event"
    },
    {
      "inputs": [],
      "name": "TOTAL_REDEMPTION_WEIGHT",
      "outputs": [
        {
          "internalType": "uint256",
          "name": "",
          "type": "uint256"
        }
      ],
      "stateMutability": "view",
      "type": "function"
    },
    {
      "inputs": [
        {
          "components": [
            {
              "internalType": "uint80",
              "name": "contributionFloor",
              "type": "uint80"
            },
            {
              "internalType": "uint48",
              "name": "lockedUntil",
              "type": "uint48"
            },
            {
              "internalType": "uint40",
              "name": "initialQuantity",
              "type": "uint40"
            },
            {
              "internalType": "uint16",
              "name": "votingUnits",
              "type": "uint16"
            },
            {
              "internalType": "uint16",
              "name": "reservedRate",
              "type": "uint16"
            },
            {
              "internalType": "address",
              "name": "reservedTokenBeneficiary",
              "type": "address"
            },
            {
              "internalType": "uint8",
              "name": "royaltyRate",
              "type": "uint8"
            },
            {
              "internalType": "address",
              "name": "royaltyBeneficiary",
              "type": "address"
            },
            {
              "internalType": "bytes32",
              "name": "encodedIPFSUri",
              "type": "bytes32"
            },
            {
              "internalType": "uint8",
              "name": "category",
              "type": "uint8"
            },
            {
              "internalType": "bool",
              "name": "allowManualMint",
              "type": "bool"
            },
            {
              "internalType": "bool",
              "name": "shouldUseReservedTokenBeneficiaryAsDefault",
              "type": "bool"
            },
            {
              "internalType": "bool",
              "name": "shouldUseRoyaltyBeneficiaryAsDefault",
              "type": "bool"
            },
            {
              "internalType": "bool",
              "name": "transfersPausable",
              "type": "bool"
            }
          ],
          "internalType": "struct JB721TierParams[]",
          "name": "_tiersToAdd",
          "type": "tuple[]"
        },
        {
          "internalType": "uint256[]",
          "name": "_tierIdsToRemove",
          "type": "uint256[]"
        }
      ],
      "name": "adjustTiers",
      "outputs": [],
      "stateMutability": "nonpayable",
      "type": "function"
    },
    {
      "inputs": [
        {
          "internalType": "address",
          "name": "to",
          "type": "address"
        },
        {
          "internalType": "uint256",
          "name": "tokenId",
          "type": "uint256"
        }
      ],
      "name": "approve",
      "outputs": [],
      "stateMutability": "nonpayable",
      "type": "function"
    },
    {
      "inputs": [
        {
          "internalType": "address",
          "name": "_owner",
          "type": "address"
        }
      ],
      "name": "balanceOf",
      "outputs": [
        {
          "internalType": "uint256",
          "name": "balance",
          "type": "uint256"
        }
      ],
      "stateMutability": "view",
      "type": "function"
    },
    {
      "inputs": [],
      "name": "codeOrigin",
      "outputs": [
        {
          "internalType": "address",
          "name": "",
          "type": "address"
        }
      ],
      "stateMutability": "view",
      "type": "function"
    },
    {
      "inputs": [],
      "name": "contractURI",
      "outputs": [
        {
          "internalType": "string",
          "name": "",
          "type": "string"
        }
      ],
      "stateMutability": "view",
      "type": "function"
    },
    {
      "inputs": [
        {
          "internalType": "address",
          "name": "",
          "type": "address"
        }
      ],
      "name": "creditsOf",
      "outputs": [
        {
          "internalType": "uint256",
          "name": "",
          "type": "uint256"
        }
      ],
      "stateMutability": "view",
      "type": "function"
    },
    {
      "inputs": [
        {
          "components": [
            {
              "internalType": "address",
              "name": "payer",
              "type": "address"
            },
            {
              "internalType": "uint256",
              "name": "projectId",
              "type": "uint256"
            },
            {
              "internalType": "uint256",
              "name": "currentFundingCycleConfiguration",
              "type": "uint256"
            },
            {
              "components": [
                {
                  "internalType": "address",
                  "name": "token",
                  "type": "address"
                },
                {
                  "internalType": "uint256",
                  "name": "value",
                  "type": "uint256"
                },
                {
                  "internalType": "uint256",
                  "name": "decimals",
                  "type": "uint256"
                },
                {
                  "internalType": "uint256",
                  "name": "currency",
                  "type": "uint256"
                }
              ],
              "internalType": "struct JBTokenAmount",
              "name": "amount",
              "type": "tuple"
            },
            {
              "components": [
                {
                  "internalType": "address",
                  "name": "token",
                  "type": "address"
                },
                {
                  "internalType": "uint256",
                  "name": "value",
                  "type": "uint256"
                },
                {
                  "internalType": "uint256",
                  "name": "decimals",
                  "type": "uint256"
                },
                {
                  "internalType": "uint256",
                  "name": "currency",
                  "type": "uint256"
                }
              ],
              "internalType": "struct JBTokenAmount",
              "name": "forwardedAmount",
              "type": "tuple"
            },
            {
              "internalType": "uint256",
              "name": "projectTokenCount",
              "type": "uint256"
            },
            {
              "internalType": "address",
              "name": "beneficiary",
              "type": "address"
            },
            {
              "internalType": "bool",
              "name": "preferClaimedTokens",
              "type": "bool"
            },
            {
              "internalType": "string",
              "name": "memo",
              "type": "string"
            },
            {
              "internalType": "bytes",
              "name": "metadata",
              "type": "bytes"
            }
          ],
          "internalType": "struct JBDidPayData",
          "name": "_data",
          "type": "tuple"
        }
      ],
      "name": "didPay",
      "outputs": [],
      "stateMutability": "payable",
      "type": "function"
    },
    {
      "inputs": [
        {
          "components": [
            {
              "internalType": "address",
              "name": "holder",
              "type": "address"
            },
            {
              "internalType": "uint256",
              "name": "projectId",
              "type": "uint256"
            },
            {
              "internalType": "uint256",
              "name": "currentFundingCycleConfiguration",
              "type": "uint256"
            },
            {
              "internalType": "uint256",
              "name": "projectTokenCount",
              "type": "uint256"
            },
            {
              "components": [
                {
                  "internalType": "address",
                  "name": "token",
                  "type": "address"
                },
                {
                  "internalType": "uint256",
                  "name": "value",
                  "type": "uint256"
                },
                {
                  "internalType": "uint256",
                  "name": "decimals",
                  "type": "uint256"
                },
                {
                  "internalType": "uint256",
                  "name": "currency",
                  "type": "uint256"
                }
              ],
              "internalType": "struct JBTokenAmount",
              "name": "reclaimedAmount",
              "type": "tuple"
            },
            {
              "components": [
                {
                  "internalType": "address",
                  "name": "token",
                  "type": "address"
                },
                {
                  "internalType": "uint256",
                  "name": "value",
                  "type": "uint256"
                },
                {
                  "internalType": "uint256",
                  "name": "decimals",
                  "type": "uint256"
                },
                {
                  "internalType": "uint256",
                  "name": "currency",
                  "type": "uint256"
                }
              ],
              "internalType": "struct JBTokenAmount",
              "name": "forwardedAmount",
              "type": "tuple"
            },
            {
              "internalType": "address payable",
              "name": "beneficiary",
              "type": "address"
            },
            {
              "internalType": "string",
              "name": "memo",
              "type": "string"
            },
            {
              "internalType": "bytes",
              "name": "metadata",
              "type": "bytes"
            }
          ],
          "internalType": "struct JBDidRedeemData",
          "name": "_data",
          "type": "tuple"
        }
      ],
      "name": "didRedeem",
      "outputs": [],
      "stateMutability": "payable",
      "type": "function"
    },
    {
      "inputs": [],
      "name": "directory",
      "outputs": [
        {
          "internalType": "contract IJBDirectory",
          "name": "",
          "type": "address"
        }
      ],
      "stateMutability": "view",
      "type": "function"
    },
    {
      "inputs": [
        {
          "internalType": "uint256",
          "name": "_tokenId",
          "type": "uint256"
        }
      ],
      "name": "firstOwnerOf",
      "outputs": [
        {
          "internalType": "address",
          "name": "",
          "type": "address"
        }
      ],
      "stateMutability": "view",
      "type": "function"
    },
    {
      "inputs": [],
      "name": "fundingCycleStore",
      "outputs": [
        {
          "internalType": "contract IJBFundingCycleStore",
          "name": "",
          "type": "address"
        }
      ],
      "stateMutability": "view",
      "type": "function"
    },
    {
      "inputs": [
        {
          "internalType": "uint256",
          "name": "tokenId",
          "type": "uint256"
        }
      ],
      "name": "getApproved",
      "outputs": [
        {
          "internalType": "address",
          "name": "",
          "type": "address"
        }
      ],
      "stateMutability": "view",
      "type": "function"
    },
    {
      "inputs": [
        {
          "internalType": "uint256",
          "name": "_tier",
          "type": "uint256"
        },
        {
          "internalType": "uint256",
          "name": "_blockNumber",
          "type": "uint256"
        }
      ],
      "name": "getPastTierTotalVotes",
      "outputs": [
        {
          "internalType": "uint256",
          "name": "",
          "type": "uint256"
        }
      ],
      "stateMutability": "view",
      "type": "function"
    },
    {
      "inputs": [
        {
          "internalType": "address",
          "name": "_account",
          "type": "address"
        },
        {
          "internalType": "uint256",
          "name": "_tier",
          "type": "uint256"
        },
        {
          "internalType": "uint256",
          "name": "_blockNumber",
          "type": "uint256"
        }
      ],
      "name": "getPastTierVotes",
      "outputs": [
        {
          "internalType": "uint256",
          "name": "",
          "type": "uint256"
        }
      ],
      "stateMutability": "view",
      "type": "function"
    },
    {
      "inputs": [
        {
          "internalType": "address",
          "name": "_account",
          "type": "address"
        },
        {
          "internalType": "uint256",
          "name": "_tier",
          "type": "uint256"
        }
      ],
      "name": "getTierDelegate",
      "outputs": [
        {
          "internalType": "address",
          "name": "",
          "type": "address"
        }
      ],
      "stateMutability": "view",
      "type": "function"
    },
    {
      "inputs": [
        {
          "internalType": "uint256",
          "name": "_tier",
          "type": "uint256"
        }
      ],
      "name": "getTierTotalVotes",
      "outputs": [
        {
          "internalType": "uint256",
          "name": "",
          "type": "uint256"
        }
      ],
      "stateMutability": "view",
      "type": "function"
    },
    {
      "inputs": [
        {
          "internalType": "address",
          "name": "_account",
          "type": "address"
        },
        {
          "internalType": "uint256",
          "name": "_tier",
          "type": "uint256"
        }
      ],
      "name": "getTierVotes",
      "outputs": [
        {
          "internalType": "uint256",
          "name": "",
          "type": "uint256"
        }
      ],
      "stateMutability": "view",
      "type": "function"
    },
    {
      "inputs": [
        {
          "internalType": "uint256",
          "name": "_projectId",
          "type": "uint256"
        },
        {
          "internalType": "contract IJBDirectory",
          "name": "_directory",
          "type": "address"
        },
        {
          "internalType": "string",
          "name": "_name",
          "type": "string"
        },
        {
          "internalType": "string",
          "name": "_symbol",
          "type": "string"
        },
        {
          "internalType": "contract IJBFundingCycleStore",
          "name": "_fundingCycleStore",
          "type": "address"
        },
        {
          "internalType": "string",
          "name": "_baseUri",
          "type": "string"
        },
        {
          "internalType": "contract IJBTokenUriResolver",
          "name": "_tokenUriResolver",
          "type": "address"
        },
        {
          "internalType": "string",
          "name": "_contractUri",
          "type": "string"
        },
        {
          "components": [
            {
              "components": [
                {
                  "internalType": "uint80",
                  "name": "contributionFloor",
                  "type": "uint80"
                },
                {
                  "internalType": "uint48",
                  "name": "lockedUntil",
                  "type": "uint48"
                },
                {
                  "internalType": "uint40",
                  "name": "initialQuantity",
                  "type": "uint40"
                },
                {
                  "internalType": "uint16",
                  "name": "votingUnits",
                  "type": "uint16"
                },
                {
                  "internalType": "uint16",
                  "name": "reservedRate",
                  "type": "uint16"
                },
                {
                  "internalType": "address",
                  "name": "reservedTokenBeneficiary",
                  "type": "address"
                },
                {
                  "internalType": "uint8",
                  "name": "royaltyRate",
                  "type": "uint8"
                },
                {
                  "internalType": "address",
                  "name": "royaltyBeneficiary",
                  "type": "address"
                },
                {
                  "internalType": "bytes32",
                  "name": "encodedIPFSUri",
                  "type": "bytes32"
                },
                {
                  "internalType": "uint8",
                  "name": "category",
                  "type": "uint8"
                },
                {
                  "internalType": "bool",
                  "name": "allowManualMint",
                  "type": "bool"
                },
                {
                  "internalType": "bool",
                  "name": "shouldUseReservedTokenBeneficiaryAsDefault",
                  "type": "bool"
                },
                {
                  "internalType": "bool",
                  "name": "shouldUseRoyaltyBeneficiaryAsDefault",
                  "type": "bool"
                },
                {
                  "internalType": "bool",
                  "name": "transfersPausable",
                  "type": "bool"
                }
              ],
              "internalType": "struct JB721TierParams[]",
              "name": "tiers",
              "type": "tuple[]"
            },
            {
              "internalType": "uint256",
              "name": "currency",
              "type": "uint256"
            },
            {
              "internalType": "uint256",
              "name": "decimals",
              "type": "uint256"
            },
            {
              "internalType": "contract IJBPrices",
              "name": "prices",
              "type": "address"
            }
          ],
          "internalType": "struct JB721PricingParams",
          "name": "_pricing",
          "type": "tuple"
        },
        {
          "internalType": "contract IJBTiered721DelegateStore",
          "name": "_store",
          "type": "address"
        },
        {
          "components": [
            {
              "internalType": "bool",
              "name": "lockReservedTokenChanges",
              "type": "bool"
            },
            {
              "internalType": "bool",
              "name": "lockVotingUnitChanges",
              "type": "bool"
            },
            {
              "internalType": "bool",
              "name": "lockManualMintingChanges",
              "type": "bool"
            },
            {
              "internalType": "bool",
              "name": "preventOverspending",
              "type": "bool"
            }
          ],
          "internalType": "struct JBTiered721Flags",
          "name": "_flags",
          "type": "tuple"
        },
        {
          "internalType": "string[]",
          "name": "_tierNames",
          "type": "string[]"
        }
      ],
      "name": "initialize",
      "outputs": [],
      "stateMutability": "nonpayable",
      "type": "function"
    },
    {
      "inputs": [
        {
          "internalType": "uint256",
          "name": "_projectId",
          "type": "uint256"
        },
        {
          "internalType": "contract IJBDirectory",
          "name": "_directory",
          "type": "address"
        },
        {
          "internalType": "string",
          "name": "_name",
          "type": "string"
        },
        {
          "internalType": "string",
          "name": "_symbol",
          "type": "string"
        },
        {
          "internalType": "contract IJBFundingCycleStore",
          "name": "_fundingCycleStore",
          "type": "address"
        },
        {
          "internalType": "string",
          "name": "_baseUri",
          "type": "string"
        },
        {
          "internalType": "contract IJBTokenUriResolver",
          "name": "_tokenUriResolver",
          "type": "address"
        },
        {
          "internalType": "string",
          "name": "_contractUri",
          "type": "string"
        },
        {
          "components": [
            {
              "components": [
                {
                  "internalType": "uint80",
                  "name": "contributionFloor",
                  "type": "uint80"
                },
                {
                  "internalType": "uint48",
                  "name": "lockedUntil",
                  "type": "uint48"
                },
                {
                  "internalType": "uint40",
                  "name": "initialQuantity",
                  "type": "uint40"
                },
                {
                  "internalType": "uint16",
                  "name": "votingUnits",
                  "type": "uint16"
                },
                {
                  "internalType": "uint16",
                  "name": "reservedRate",
                  "type": "uint16"
                },
                {
                  "internalType": "address",
                  "name": "reservedTokenBeneficiary",
                  "type": "address"
                },
                {
                  "internalType": "uint8",
                  "name": "royaltyRate",
                  "type": "uint8"
                },
                {
                  "internalType": "address",
                  "name": "royaltyBeneficiary",
                  "type": "address"
                },
                {
                  "internalType": "bytes32",
                  "name": "encodedIPFSUri",
                  "type": "bytes32"
                },
                {
                  "internalType": "uint8",
                  "name": "category",
                  "type": "uint8"
                },
                {
                  "internalType": "bool",
                  "name": "allowManualMint",
                  "type": "bool"
                },
                {
                  "internalType": "bool",
                  "name": "shouldUseReservedTokenBeneficiaryAsDefault",
                  "type": "bool"
                },
                {
                  "internalType": "bool",
                  "name": "shouldUseRoyaltyBeneficiaryAsDefault",
                  "type": "bool"
                },
                {
                  "internalType": "bool",
                  "name": "transfersPausable",
                  "type": "bool"
                }
              ],
              "internalType": "struct JB721TierParams[]",
              "name": "tiers",
              "type": "tuple[]"
            },
            {
              "internalType": "uint256",
              "name": "currency",
              "type": "uint256"
            },
            {
              "internalType": "uint256",
              "name": "decimals",
              "type": "uint256"
            },
            {
              "internalType": "contract IJBPrices",
              "name": "prices",
              "type": "address"
            }
          ],
          "internalType": "struct JB721PricingParams",
          "name": "_pricing",
          "type": "tuple"
        },
        {
          "internalType": "contract IJBTiered721DelegateStore",
          "name": "_store",
          "type": "address"
        },
        {
          "components": [
            {
              "internalType": "bool",
              "name": "lockReservedTokenChanges",
              "type": "bool"
            },
            {
              "internalType": "bool",
              "name": "lockVotingUnitChanges",
              "type": "bool"
            },
            {
              "internalType": "bool",
              "name": "lockManualMintingChanges",
              "type": "bool"
            },
            {
              "internalType": "bool",
              "name": "preventOverspending",
              "type": "bool"
            }
          ],
          "internalType": "struct JBTiered721Flags",
          "name": "_flags",
          "type": "tuple"
        }
      ],
      "name": "initialize",
      "outputs": [],
      "stateMutability": "nonpayable",
      "type": "function"
    },
    {
      "inputs": [
        {
          "internalType": "address",
          "name": "owner",
          "type": "address"
        },
        {
          "internalType": "address",
          "name": "operator",
          "type": "address"
        }
      ],
      "name": "isApprovedForAll",
      "outputs": [
        {
          "internalType": "bool",
          "name": "",
          "type": "bool"
        }
      ],
      "stateMutability": "view",
      "type": "function"
    },
    {
      "inputs": [
        {
          "components": [
            {
              "internalType": "uint16[]",
              "name": "tierIds",
              "type": "uint16[]"
            },
            {
              "internalType": "address",
              "name": "beneficiary",
              "type": "address"
            }
          ],
          "internalType": "struct JBTiered721MintForTiersData[]",
          "name": "_mintForTiersData",
          "type": "tuple[]"
        }
      ],
      "name": "mintFor",
      "outputs": [],
      "stateMutability": "nonpayable",
      "type": "function"
    },
    {
      "inputs": [
        {
          "internalType": "uint16[]",
          "name": "_tierIds",
          "type": "uint16[]"
        },
        {
          "internalType": "address",
          "name": "_beneficiary",
          "type": "address"
        }
      ],
      "name": "mintFor",
      "outputs": [
        {
          "internalType": "uint256[]",
          "name": "tokenIds",
          "type": "uint256[]"
        }
      ],
      "stateMutability": "nonpayable",
      "type": "function"
    },
    {
      "inputs": [
        {
          "components": [
            {
              "internalType": "uint256",
              "name": "tierId",
              "type": "uint256"
            },
            {
              "internalType": "uint256",
              "name": "count",
              "type": "uint256"
            }
          ],
          "internalType": "struct JBTiered721MintReservesForTiersData[]",
          "name": "_mintReservesForTiersData",
          "type": "tuple[]"
        }
      ],
      "name": "mintReservesFor",
      "outputs": [],
      "stateMutability": "nonpayable",
      "type": "function"
    },
    {
      "inputs": [
        {
          "internalType": "uint256",
          "name": "_tierId",
          "type": "uint256"
        },
        {
          "internalType": "uint256",
          "name": "_count",
          "type": "uint256"
        }
      ],
      "name": "mintReservesFor",
      "outputs": [],
      "stateMutability": "nonpayable",
      "type": "function"
    },
    {
      "inputs": [],
      "name": "name",
      "outputs": [
        {
          "internalType": "string",
          "name": "",
          "type": "string"
        }
      ],
      "stateMutability": "view",
      "type": "function"
    },
    {
      "inputs": [],
      "name": "owner",
      "outputs": [
        {
          "internalType": "address",
          "name": "",
          "type": "address"
        }
      ],
      "stateMutability": "view",
      "type": "function"
    },
    {
      "inputs": [
        {
          "internalType": "uint256",
          "name": "tokenId",
          "type": "uint256"
        }
      ],
      "name": "ownerOf",
      "outputs": [
        {
          "internalType": "address",
          "name": "",
          "type": "address"
        }
      ],
      "stateMutability": "view",
      "type": "function"
    },
    {
      "inputs": [
        {
          "components": [
            {
              "internalType": "contract IJBPaymentTerminal",
              "name": "terminal",
              "type": "address"
            },
            {
              "internalType": "address",
              "name": "payer",
              "type": "address"
            },
            {
              "components": [
                {
                  "internalType": "address",
                  "name": "token",
                  "type": "address"
                },
                {
                  "internalType": "uint256",
                  "name": "value",
                  "type": "uint256"
                },
                {
                  "internalType": "uint256",
                  "name": "decimals",
                  "type": "uint256"
                },
                {
                  "internalType": "uint256",
                  "name": "currency",
                  "type": "uint256"
                }
              ],
              "internalType": "struct JBTokenAmount",
              "name": "amount",
              "type": "tuple"
            },
            {
              "internalType": "uint256",
              "name": "projectId",
              "type": "uint256"
            },
            {
              "internalType": "uint256",
              "name": "currentFundingCycleConfiguration",
              "type": "uint256"
            },
            {
              "internalType": "address",
              "name": "beneficiary",
              "type": "address"
            },
            {
              "internalType": "uint256",
              "name": "weight",
              "type": "uint256"
            },
            {
              "internalType": "uint256",
              "name": "reservedRate",
              "type": "uint256"
            },
            {
              "internalType": "string",
              "name": "memo",
              "type": "string"
            },
            {
              "internalType": "bytes",
              "name": "metadata",
              "type": "bytes"
            }
          ],
          "internalType": "struct JBPayParamsData",
          "name": "_data",
          "type": "tuple"
        }
      ],
      "name": "payParams",
      "outputs": [
        {
          "internalType": "uint256",
          "name": "weight",
          "type": "uint256"
        },
        {
          "internalType": "string",
          "name": "memo",
          "type": "string"
        },
        {
          "components": [
            {
              "internalType": "contract IJBPayDelegate",
              "name": "delegate",
              "type": "address"
            },
            {
              "internalType": "uint256",
              "name": "amount",
              "type": "uint256"
            }
          ],
          "internalType": "struct JBPayDelegateAllocation[]",
          "name": "delegateAllocations",
          "type": "tuple[]"
        }
      ],
      "stateMutability": "view",
      "type": "function"
    },
    {
      "inputs": [],
      "name": "prices",
      "outputs": [
        {
          "internalType": "contract IJBPrices",
          "name": "",
          "type": "address"
        }
      ],
      "stateMutability": "view",
      "type": "function"
    },
    {
      "inputs": [],
      "name": "pricingCurrency",
      "outputs": [
        {
          "internalType": "uint256",
          "name": "",
          "type": "uint256"
        }
      ],
      "stateMutability": "view",
      "type": "function"
    },
    {
      "inputs": [],
      "name": "pricingDecimals",
      "outputs": [
        {
          "internalType": "uint256",
          "name": "",
          "type": "uint256"
        }
      ],
      "stateMutability": "view",
      "type": "function"
    },
    {
      "inputs": [],
      "name": "projectId",
      "outputs": [
        {
          "internalType": "uint256",
          "name": "",
          "type": "uint256"
        }
      ],
      "stateMutability": "view",
      "type": "function"
    },
    {
      "inputs": [
        {
          "components": [
            {
              "internalType": "contract IJBPaymentTerminal",
              "name": "terminal",
              "type": "address"
            },
            {
              "internalType": "address",
              "name": "holder",
              "type": "address"
            },
            {
              "internalType": "uint256",
              "name": "projectId",
              "type": "uint256"
            },
            {
              "internalType": "uint256",
              "name": "currentFundingCycleConfiguration",
              "type": "uint256"
            },
            {
              "internalType": "uint256",
              "name": "tokenCount",
              "type": "uint256"
            },
            {
              "internalType": "uint256",
              "name": "totalSupply",
              "type": "uint256"
            },
            {
              "internalType": "uint256",
              "name": "overflow",
              "type": "uint256"
            },
            {
              "components": [
                {
                  "internalType": "address",
                  "name": "token",
                  "type": "address"
                },
                {
                  "internalType": "uint256",
                  "name": "value",
                  "type": "uint256"
                },
                {
                  "internalType": "uint256",
                  "name": "decimals",
                  "type": "uint256"
                },
                {
                  "internalType": "uint256",
                  "name": "currency",
                  "type": "uint256"
                }
              ],
              "internalType": "struct JBTokenAmount",
              "name": "reclaimAmount",
              "type": "tuple"
            },
            {
              "internalType": "bool",
              "name": "useTotalOverflow",
              "type": "bool"
            },
            {
              "internalType": "uint256",
              "name": "redemptionRate",
              "type": "uint256"
            },
            {
              "internalType": "string",
              "name": "memo",
              "type": "string"
            },
            {
              "internalType": "bytes",
              "name": "metadata",
              "type": "bytes"
            }
          ],
          "internalType": "struct JBRedeemParamsData",
          "name": "_data",
          "type": "tuple"
        }
      ],
      "name": "redeemParams",
      "outputs": [
        {
          "internalType": "uint256",
          "name": "reclaimAmount",
          "type": "uint256"
        },
        {
          "internalType": "string",
          "name": "memo",
          "type": "string"
        },
        {
          "components": [
            {
              "internalType": "contract IJBRedemptionDelegate",
              "name": "delegate",
              "type": "address"
            },
            {
              "internalType": "uint256",
              "name": "amount",
              "type": "uint256"
            }
          ],
          "internalType": "struct JBRedemptionDelegateAllocation[]",
          "name": "delegateAllocations",
          "type": "tuple[]"
        }
      ],
      "stateMutability": "view",
      "type": "function"
    },
    {
      "inputs": [
        {
          "internalType": "uint256[]",
          "name": "_tokenIds",
          "type": "uint256[]"
        },
        {
          "components": [
            {
              "internalType": "contract IJBPaymentTerminal",
              "name": "terminal",
              "type": "address"
            },
            {
              "internalType": "address",
              "name": "holder",
              "type": "address"
            },
            {
              "internalType": "uint256",
              "name": "projectId",
              "type": "uint256"
            },
            {
              "internalType": "uint256",
              "name": "currentFundingCycleConfiguration",
              "type": "uint256"
            },
            {
              "internalType": "uint256",
              "name": "tokenCount",
              "type": "uint256"
            },
            {
              "internalType": "uint256",
              "name": "totalSupply",
              "type": "uint256"
            },
            {
              "internalType": "uint256",
              "name": "overflow",
              "type": "uint256"
            },
            {
              "components": [
                {
                  "internalType": "address",
                  "name": "token",
                  "type": "address"
                },
                {
                  "internalType": "uint256",
                  "name": "value",
                  "type": "uint256"
                },
                {
                  "internalType": "uint256",
                  "name": "decimals",
                  "type": "uint256"
                },
                {
                  "internalType": "uint256",
                  "name": "currency",
                  "type": "uint256"
                }
              ],
              "internalType": "struct JBTokenAmount",
              "name": "reclaimAmount",
              "type": "tuple"
            },
            {
              "internalType": "bool",
              "name": "useTotalOverflow",
              "type": "bool"
            },
            {
              "internalType": "uint256",
              "name": "redemptionRate",
              "type": "uint256"
            },
            {
              "internalType": "string",
              "name": "memo",
              "type": "string"
            },
            {
              "internalType": "bytes",
              "name": "metadata",
              "type": "bytes"
            }
          ],
          "internalType": "struct JBRedeemParamsData",
          "name": "",
          "type": "tuple"
        }
      ],
      "name": "redemptionWeightOf",
      "outputs": [
        {
          "internalType": "uint256",
          "name": "cumulativeWeight",
          "type": "uint256"
        }
      ],
      "stateMutability": "view",
      "type": "function"
    },
    {
      "inputs": [],
      "name": "renounceOwnership",
      "outputs": [],
      "stateMutability": "nonpayable",
      "type": "function"
    },
    {
      "inputs": [
        {
          "internalType": "uint256",
          "name": "_tokenId",
          "type": "uint256"
        },
        {
          "internalType": "uint256",
          "name": "_salePrice",
          "type": "uint256"
        }
      ],
      "name": "royaltyInfo",
      "outputs": [
        {
          "internalType": "address",
          "name": "",
          "type": "address"
        },
        {
          "internalType": "uint256",
          "name": "",
          "type": "uint256"
        }
      ],
      "stateMutability": "view",
      "type": "function"
    },
    {
      "inputs": [
        {
          "internalType": "address",
          "name": "from",
          "type": "address"
        },
        {
          "internalType": "address",
          "name": "to",
          "type": "address"
        },
        {
          "internalType": "uint256",
          "name": "tokenId",
          "type": "uint256"
        }
      ],
      "name": "safeTransferFrom",
      "outputs": [],
      "stateMutability": "nonpayable",
      "type": "function"
    },
    {
      "inputs": [
        {
          "internalType": "address",
          "name": "from",
          "type": "address"
        },
        {
          "internalType": "address",
          "name": "to",
          "type": "address"
        },
        {
          "internalType": "uint256",
          "name": "tokenId",
          "type": "uint256"
        },
        {
          "internalType": "bytes",
          "name": "data",
          "type": "bytes"
        }
      ],
      "name": "safeTransferFrom",
      "outputs": [],
      "stateMutability": "nonpayable",
      "type": "function"
    },
    {
      "inputs": [
        {
          "internalType": "address",
          "name": "operator",
          "type": "address"
        },
        {
          "internalType": "bool",
          "name": "approved",
          "type": "bool"
        }
      ],
      "name": "setApprovalForAll",
      "outputs": [],
      "stateMutability": "nonpayable",
      "type": "function"
    },
    {
      "inputs": [
        {
          "internalType": "string",
          "name": "_baseUri",
          "type": "string"
        }
      ],
      "name": "setBaseUri",
      "outputs": [],
      "stateMutability": "nonpayable",
      "type": "function"
    },
    {
      "inputs": [
        {
          "internalType": "string",
          "name": "_contractUri",
          "type": "string"
        }
      ],
      "name": "setContractUri",
      "outputs": [],
      "stateMutability": "nonpayable",
      "type": "function"
    },
    {
      "inputs": [
        {
          "internalType": "address",
          "name": "_beneficiary",
          "type": "address"
        }
      ],
      "name": "setDefaultReservedTokenBeneficiary",
      "outputs": [],
      "stateMutability": "nonpayable",
      "type": "function"
    },
    {
      "inputs": [
        {
          "internalType": "uint256",
          "name": "_tierId",
          "type": "uint256"
        },
        {
          "internalType": "bytes32",
          "name": "_encodedIPFSUri",
          "type": "bytes32"
        }
      ],
      "name": "setEncodedIPFSUriOf",
      "outputs": [],
      "stateMutability": "nonpayable",
      "type": "function"
    },
    {
      "inputs": [
        {
          "internalType": "address",
          "name": "_delegatee",
          "type": "address"
        },
        {
          "internalType": "uint256",
          "name": "_tierId",
          "type": "uint256"
        }
      ],
      "name": "setTierDelegate",
      "outputs": [],
      "stateMutability": "nonpayable",
      "type": "function"
    },
    {
      "inputs": [
        {
          "components": [
            {
              "internalType": "address",
              "name": "delegatee",
              "type": "address"
            },
            {
              "internalType": "uint256",
              "name": "tierId",
              "type": "uint256"
            }
          ],
          "internalType": "struct JBTiered721SetTierDelegatesData[]",
          "name": "_setTierDelegatesData",
          "type": "tuple[]"
        }
      ],
      "name": "setTierDelegates",
      "outputs": [],
      "stateMutability": "nonpayable",
      "type": "function"
    },
    {
      "inputs": [
        {
          "components": [
            {
              "internalType": "uint256",
              "name": "id",
              "type": "uint256"
            },
            {
              "internalType": "uint256",
              "name": "redemptionWeight",
              "type": "uint256"
            }
          ],
          "internalType": "struct DefifaTierRedemptionWeight[]",
          "name": "_tierWeights",
          "type": "tuple[]"
        }
      ],
      "name": "setTierRedemptionWeights",
      "outputs": [],
      "stateMutability": "nonpayable",
      "type": "function"
    },
    {
      "inputs": [
        {
          "internalType": "contract IJBTokenUriResolver",
          "name": "_tokenUriResolver",
          "type": "address"
        }
      ],
      "name": "setTokenUriResolver",
      "outputs": [],
      "stateMutability": "nonpayable",
      "type": "function"
    },
    {
      "inputs": [],
      "name": "store",
      "outputs": [
        {
          "internalType": "contract IJBTiered721DelegateStore",
          "name": "",
          "type": "address"
        }
      ],
      "stateMutability": "view",
      "type": "function"
    },
    {
      "inputs": [
        {
          "internalType": "bytes4",
          "name": "_interfaceId",
          "type": "bytes4"
        }
      ],
      "name": "supportsInterface",
      "outputs": [
        {
          "internalType": "bool",
          "name": "",
          "type": "bool"
        }
      ],
      "stateMutability": "view",
      "type": "function"
    },
    {
      "inputs": [],
      "name": "symbol",
      "outputs": [
        {
          "internalType": "string",
          "name": "",
          "type": "string"
        }
      ],
      "stateMutability": "view",
      "type": "function"
    },
    {
      "inputs": [],
      "name": "tierRedemptionWeights",
      "outputs": [
        {
          "internalType": "uint256[128]",
          "name": "",
          "type": "uint256[128]"
        }
      ],
      "stateMutability": "view",
      "type": "function"
    },
    {
      "inputs": [
        {
          "internalType": "uint256",
          "name": "_tokenId",
          "type": "uint256"
        }
      ],
      "name": "tokenURI",
      "outputs": [
        {
          "internalType": "string",
          "name": "",
          "type": "string"
        }
      ],
      "stateMutability": "view",
      "type": "function"
    },
    {
      "inputs": [
        {
          "components": [
            {
              "internalType": "contract IJBPaymentTerminal",
              "name": "terminal",
              "type": "address"
            },
            {
              "internalType": "address",
              "name": "holder",
              "type": "address"
            },
            {
              "internalType": "uint256",
              "name": "projectId",
              "type": "uint256"
            },
            {
              "internalType": "uint256",
              "name": "currentFundingCycleConfiguration",
              "type": "uint256"
            },
            {
              "internalType": "uint256",
              "name": "tokenCount",
              "type": "uint256"
            },
            {
              "internalType": "uint256",
              "name": "totalSupply",
              "type": "uint256"
            },
            {
              "internalType": "uint256",
              "name": "overflow",
              "type": "uint256"
            },
            {
              "components": [
                {
                  "internalType": "address",
                  "name": "token",
                  "type": "address"
                },
                {
                  "internalType": "uint256",
                  "name": "value",
                  "type": "uint256"
                },
                {
                  "internalType": "uint256",
                  "name": "decimals",
                  "type": "uint256"
                },
                {
                  "internalType": "uint256",
                  "name": "currency",
                  "type": "uint256"
                }
              ],
              "internalType": "struct JBTokenAmount",
              "name": "reclaimAmount",
              "type": "tuple"
            },
            {
              "internalType": "bool",
              "name": "useTotalOverflow",
              "type": "bool"
            },
            {
              "internalType": "uint256",
              "name": "redemptionRate",
              "type": "uint256"
            },
            {
              "internalType": "string",
              "name": "memo",
              "type": "string"
            },
            {
              "internalType": "bytes",
              "name": "metadata",
              "type": "bytes"
            }
          ],
          "internalType": "struct JBRedeemParamsData",
          "name": "",
          "type": "tuple"
        }
      ],
      "name": "totalRedemptionWeight",
      "outputs": [
        {
          "internalType": "uint256",
          "name": "",
          "type": "uint256"
        }
      ],
      "stateMutability": "view",
      "type": "function"
    },
    {
      "inputs": [
        {
          "internalType": "address",
          "name": "from",
          "type": "address"
        },
        {
          "internalType": "address",
          "name": "to",
          "type": "address"
        },
        {
          "internalType": "uint256",
          "name": "tokenId",
          "type": "uint256"
        }
      ],
      "name": "transferFrom",
      "outputs": [],
      "stateMutability": "nonpayable",
      "type": "function"
    },
    {
      "inputs": [
        {
          "internalType": "address",
          "name": "newOwner",
          "type": "address"
        }
      ],
      "name": "transferOwnership",
      "outputs": [],
      "stateMutability": "nonpayable",
      "type": "function"
    }
  ],
  "bytecode": {
    "object": "0x608080604052346100665760078054336001600160a01b03198083168217909355906001600160a01b03167f8be0079c531659141344cd1fd0a4f28419497f9722a3daafe3b4186f6b6457e0600080a3309060085416176008556171c290816200006c8239f35b600080fdfe60806040526004361015610013575b600080fd5b60003560e01c806301ffc9a71461047357806306fdde031461046a578063081812fc14610461578063095ea7b3146104585780631d153ca41461044f57806323b872dd146104465780632407497e1461043d578063245a45b51461043457806325eb91ee1461042b5780632a55205a146104225780632a596e53146104195780632b13c58f146104105780632f4415001461040757806336c1a93b146103fe5780633fafa127146103f557806342842e0e146103ec5780634ecba625146103e3578063525350ba146103da57806354c6d1f5146103d1578063557e7155146103c85780636352211e146103bf578063640abacd146103b657806364640c1e146103ad5780636ac6d941146103a457806370a082311461039b578063715018a6146103925780637ba62bf91461038957806382732b6d146103805780638da5cb5b146103775780639494bf721461036e57806394c5c5ca1461036557806395d89b411461035c578063975057e7146103535780639df454681461034a578063a0bcfc7f14610341578063a22cb46514610338578063a51cfd181461032f578063aa4fb15b14610326578063aae832261461031d578063ab951e3914610314578063b88d4fde1461030b578063c41c2f2414610302578063c74b13d9146102f9578063c87b56dd146102f0578063ca323efe146102e7578063ccb4807b146102de578063d1704baf146102d5578063d31cc52c146102cc578063d3419bf3146102c3578063d40e7146146102ba578063d46cf171146102b1578063da9ee8b7146102a8578063df487e261461029f578063e8a3d48514610296578063e985e9c51461028d5763f2fde38b1461028557600080fd5b61000e6130c9565b5061000e613060565b5061000e612f9d565b5061000e612edf565b5061000e612de9565b5061000e612d2d565b5061000e612c72565b5061000e612c48565b5061000e612c19565b5061000e612b50565b5061000e612a99565b5061000e612a4e565b5061000e612038565b5061000e611f86565b5061000e611f5c565b5061000e611ef4565b5061000e611ec9565b5061000e611de7565b5061000e611a38565b5061000e6119ad565b5061000e6118fd565b5061000e61182d565b5061000e61175e565b5061000e611734565b5061000e61168e565b5061000e611662565b5061000e611644565b5061000e61161a565b5061000e6115cd565b5061000e61156e565b5061000e6114b1565b5061000e611410565b5061000e6113bb565b5061000e611361565b5061000e611341565b5061000e611322565b5061000e6112f8565b5061000e6112d9565b5061000e61120e565b5061000e6111ef565b5061000e6111a8565b5061000e611189565b5061000e6110dd565b5061000e61104a565b5061000e610b92565b5061000e610ad4565b5061000e610a1a565b5061000e6109a7565b5061000e610939565b5061000e61084f565b5061000e61081a565b5061000e6107c4565b5061000e610722565b5061000e6106d3565b5061000e610605565b5061000e61048e565b6001600160e01b031981160361000e57565b503461000e57602036600319011261000e576104dd6004356104af8161047c565b63ffffffff60e01b166306decc2d60e21b81149081156104e1575b5060405190151581529081906020820190565b0390f35b63b3bcbb7960e01b81149150811561058d575b811561057c575b811561056b575b811561055a575b8115610517575b50386104ca565b6380ac58cd60e01b811491508115610549575b8115610538575b5038610510565b6301ffc9a760e01b14905038610531565b635b5e139f60e01b8114915061052a565b63152a902d60e11b81149150610509565b632b13c58f60e01b81149150610502565b63da9ee8b760e01b811491506104fb565b6371700c6960e01b811491506104f4565b600091031261000e57565b60005b8381106105bc5750506000910152565b81810151838201526020016105ac565b906020916105e5815180928185528580860191016105a9565b601f01601f1916010190565b9060206106029281815201906105cc565b90565b503461000e576000806003193601126106d0576040519080805461062881613a0a565b808552916001918083169081156106a6575060011461065e575b6104dd8561065281870382610f70565b604051918291826105f1565b808094505260008051602061714d8339815191525b82841061068e575050508101602001610652826104dd610642565b80546020858701810191909152909301928101610673565b8695506104dd9693506020925061065294915060ff191682840152151560051b8201019293610642565b80fd5b503461000e57602036600319011261000e5760206106f26004356155c0565b6040516001600160a01b039091168152f35b6001600160a01b0381160361000e57565b359061072082610704565b565b503461000e57604036600319011261000e5760043561074081610704565b6024356001600160a01b03806107558361558d565b1680918416146107b25780331415908161078c575b5061077a57610778916162b7565b005b60405163e5fa0e3560e01b8152600490fd5b600090815260046020908152604080832033845290915290205460ff161590503861076a565b60405163133f8be960e01b8152600490fd5b503461000e57600036600319011261000e576008546040516001600160a01b039091168152602090f35b606090600319011261000e5760043561080681610704565b9060243561081381610704565b9060443590565b503461000e57610829366107ee565b906108348233615637565b1561077a5761077892615ffe565b60c4359061072082610704565b503461000e57600060203660031901126106d05760043561086f81610704565b610877616bda565b6009546001600160a01b03908116803b156109355760405163036129cb60e61b81526001600160a01b03841660048201529084908290602490829084905af18015610928575b6108f5575b506040513381529116907fe7784d93cfbfa4408e19577e6cc0436f4dbb51214b70e100905dfce9def88c1690602090a280f35b926109217fe7784d93cfbfa4408e19577e6cc0436f4dbb51214b70e100905dfce9def88c169294610efe565b92906108c2565b61093061336f565b6108bd565b8380fd5b503461000e57602036600319011261000e5760043561095781610704565b60018060a01b0316600052600e6020526020604060002054604051908152f35b9181601f8401121561000e578235916001600160401b03831161000e576020808501948460051b01011161000e57565b503461000e57604036600319011261000e576004356001600160401b0380821161000e573660238301121561000e5781600401359181831161000e573660246101c085028301011161000e5760243591821161000e5761077892610a116024933690600401610977565b93909201614d69565b503461000e5760408060031936011261000e5760648160018060a01b03600954168151928380926329c5eaf560e11b8252306004830152600435602483015260243560448301525afa918215610ac7575b6000918293610a92575b50516001600160a01b039190911681526020810191909152604090f35b81610ab89294506104dd93503d8511610ac0575b610ab08183610f70565b810190614864565b929091610a75565b503d610aa6565b610acf61336f565b610a6b565b503461000e5760208060031936011261000e57600435906001600160401b039081831161000e573660238401121561000e57826004013591821161000e57602490600693368385871b8301011161000e5760005b848110610b3157005b600190610b53610b473687848b1b870101611004565b85815191015190615180565b01610b28565b90816101e091031261000e5790565b602060031982011261000e57600435906001600160401b03821161000e5761060291600401610b59565b50610b9c36610b68565b3415801590610e47575b8015610e37575b610e25576101c081016024610bc2828461315b565b9050108015610ded575b610ddb57610bdd610be5918361315b565b8101906132b6565b8051600a54909350909150610c0a906001600160a01b03165b6001600160a01b031690565b600554604080516321d1336160e11b81526004808201939093529094928291610120918290829060249082905afa918215610dce575b600092610da1575b505051149360005b838110610c80578686610c628761552c565b610c6857005b610c7b60a0610778920135609254613490565b609255565b610c8a8186613294565b51610caf610ca2826000526002602052604060002090565b546001600160a01b031690565b610cbb610bfe8a61424d565b6001600160a01b0390911603610d9257908187610cd9600194615d9b565b610ce5575b5001610c50565b600954610d4b91610d2591610d02906001600160a01b0316610bfe565b90865180926342f9914b60e01b8252818060209687958d83019190602083019252565b03915afa918215610d85575b600092610d58575b50506000526093602052604060002090565b8054600101905538610cde565b610d779250803d10610d7e575b610d6f8183610f70565b8101906136fe565b3880610d39565b503d610d65565b610d8d61336f565b610d31565b50505163075fd2b160e01b8152fd5b610dc09250803d10610dc7575b610db88183610f70565b8101906132fb565b3880610c48565b503d610dae565b610dd661336f565b610c40565b604051632a84050f60e01b8152600490fd5b50610e01610dfb828461315b565b9061318d565b63b3bcbb7960e01b916001600160e01b031991610e1d916131af565b161415610bcc565b604051633efca5c360e11b8152600490fd5b5060055460208201351415610bad565b50600654610e9190602090610e64906001600160a01b0316610bfe565b600554604051636e49181f60e01b8152600481019190915233602482015292839190829081906044820190565b03915afa908115610eda575b600091610eac575b5015610ba6565b610ecd915060203d8111610ed3575b610ec58183610f70565b810190614238565b38610ea5565b503d610ebb565b610ee261336f565b610e9d565b50634e487b7160e01b600052604160045260246000fd5b6001600160401b038111610f1157604052565b610f19610ee7565b604052565b608081019081106001600160401b03821117610f1157604052565b604081019081106001600160401b03821117610f1157604052565b61100081019081106001600160401b03821117610f1157604052565b90601f801991011681019081106001600160401b03821117610f1157604052565b604051906101c082018281106001600160401b03821117610f1157604052565b6040519061072082610f39565b6040519061012082018281106001600160401b03821117610f1157604052565b6020906001600160401b038111610ff7575b60051b0190565b610fff610ee7565b610ff0565b919082604091031261000e57604051604081018181106001600160401b0382111761103d575b6040526020808294803584520135910152565b611045610ee7565b61102a565b503461000e5760208060031936011261000e57600435906001600160401b03821161000e573660238301121561000e5781600401359161108983610fde565b9160409361109985519485610f70565b80845260248285019160061b8401019236841161000e57602401905b8382106110c5576107788561403a565b8286916110d23685611004565b8152019101906110b5565b503461000e5760208060031936011261000e576001600160401b039060043582811161000e57611111903690600401610977565b919061111b616bda565b60005b83811061112757005b60059080821b830135603e198436030181121561000e5783018035601e198236030181121561000e5781019283359388851161000e5786859101911b3603811361000e5760019361117c87611182940161424d565b9161538c565b500161111e565b503461000e57600036600319011261000e576020600554604051908152f35b503461000e576107786111ba366107ee565b9060405192602084018481106001600160401b038211176111e2575b604052600084526155f8565b6111ea610ee7565b6111d6565b503461000e57600036600319011261000e576020600d54604051908152f35b503461000e57604036600319011261000e5760043560243561122e616bda565b6009546001600160a01b0316803b1561000e577f677da4fed654db8e604791fa2582f342e2001aa217e27f6985eb3e0f67e5a7fc916000806112ae936044604051809481936324de8d6360e11b83528a60048401528760248401525af180156112cc575b6112b3575b506040805191825233602083015290918291820190565b0390a2005b806112c06112c692610efe565b8061059e565b38611297565b6112d461336f565b611292565b503461000e57602036600319011261000e5760206106f26004356147bc565b503461000e57600036600319011261000e57600a546040516001600160a01b039091168152602090f35b503461000e57602036600319011261000e5760206106f260043561558d565b503461000e57600036600319011261000e576020604051633b9aca008152f35b503461000e57600036600319011261000e576020600c54604051908152f35b6020908160408183019282815285518094520193019160005b8281106113a7575050505090565b835185529381019392810192600101611399565b503461000e57604036600319011261000e576004356001600160401b03811161000e576114046113f26104dd923690600401610977565b602435916113ff83610704565b61538c565b60405191829182611380565b503461000e57602036600319011261000e576104dd60043561143181610704565b600954604051633de222bb60e21b81523060048201526001600160a01b0392831660248201529160209183916044918391165afa9081156114a4575b600091611486575b506040519081529081906020820190565b61149e915060203d8111610d7e57610d6f8183610f70565b38611475565b6114ac61336f565b61146d565b503461000e576000806003193601126106d0576114cc616bda565b600780546001600160a01b0319811690915581906001600160a01b03167f8be0079c531659141344cd1fd0a4f28419497f9722a3daafe3b4186f6b6457e08280a380f35b81601f8201121561000e5780359161152783610fde565b926115356040519485610f70565b808452602092838086019260051b82010192831161000e578301905b82821061155f575050505090565b81358152908301908301611551565b503461000e57604036600319011261000e576001600160401b0360043581811161000e576115a0903690600401611510565b9060243590811161000e576020916115bf6115c5923690600401610b59565b50613769565b604051908152f35b503461000e57604036600319011261000e5760206004356115ed81610704565b60018060a01b03809116600052600f82526040600020602435600052825260406000205416604051908152f35b503461000e57600036600319011261000e576007546040516001600160a01b039091168152602090f35b503461000e5761165336610b68565b506020604051633b9aca008152f35b503461000e57602036600319011261000e57600435600052601160205260206115c56040600020616ca1565b503461000e576000806003193601126106d057604051908060018054916116b483613a0a565b808652928281169081156106a657506001146116da576104dd8561065281870382610f70565b92508083527fb10e2d527612073b26eecdfd717e6a320cf44b4afac2b0732d9fcbe2b7fa0cf65b82841061171c575050508101602001610652826104dd610642565b80546020858701810191909152909301928101611701565b503461000e57600036600319011261000e576009546040516001600160a01b039091168152602090f35b503461000e57600036600319011261000e5760405161177c81610f54565b611000809136903760405160126000825b608082106117ce575050506117a181610f54565b60405190600090825b608083106117b757505050f35b6001908251815260208091019201920191906117aa565b600160208192855481520193019101909161178d565b90602060031983011261000e576004356001600160401b039283821161000e578060238301121561000e57816004013593841161000e576024848301011161000e576024019190565b503461000e5761183c366117e4565b611844616bda565b600954600091906001600160a01b0316803b156118e4578260405180926331315e5960e11b825281838161187c888b60048401615143565b03925af180156118d7575b6118c4575b50611897919261516b565b7f7bc9110d5de090dd59e07912d2b93a5a27ac70a60c8d8e324db4f9ee8b8b5c136020604051338152a280f35b916118d161189793610efe565b9161188c565b6118df61336f565b611887565b8280fd5b8015150361000e57565b3590610720826118e8565b503461000e57604036600319011261000e5760043561191b81610704565b602435611927816118e8565b6001600160a01b0382169133831461199b573360009081526004602090815260408083206001600160a01b039094168352929052209015159060ff1981541660ff83161790556040519081527f17307eab39ab6107e8899845ad3d59bd9653f200f220920489ca2b5937696c3160203392a3005b6040516306f8139d60e11b8152600490fd5b503461000e576119c46119bf36610b68565b61349d565b6040929192805193849384526119e660209160608387015260608601906105cc565b90848203838601528080855193848152019401926000905b838210611a0b5786860387f35b845180516001600160a01b03168752830151868401528796509485019493820193600191909101906119fe565b503461000e57604036600319011261000e57610778602435600435615180565b6024359061072082610704565b6020906001600160401b038111611a82575b601f01601f19160190565b611a8a610ee7565b611a77565b929192611a9b82611a65565b91611aa96040519384610f70565b82948184528183011161000e578281602093846000960137010152565b9080601f8301121561000e5781602061060293359101611a8f565b6084359061072082610704565b359069ffffffffffffffffffff8216820361000e57565b359065ffffffffffff8216820361000e57565b359064ffffffffff8216820361000e57565b61ffff81160361000e57565b359061072082611b2a565b359060ff8216820361000e57565b919091608090818185031261000e576040805192611b6c84610f1e565b839583356001600160401b03811161000e57840181601f8201121561000e57803590611b9782610fde565b92611ba486519485610f70565b82845260209485850191866101c08096028501019381851161000e578701925b848410611bf75750505092875250505080830135908401528082013590830152606090611bf2908201610715565b910152565b858483031261000e57878691611c0b610f91565b611c1487611aee565b8152611c21838801611b05565b83820152611c308c8801611b18565b8c8201526060611c41818901611b36565b90820152611c50868801611b36565b8682015260a0611c61818901610715565b9082015260c0611c72818901611b41565b9082015260e0611c83818901610715565b908201526101008088013590820152610120611ca0818901611b41565b90820152610140611cb28189016118f2565b90820152610160611cc48189016118f2565b90820152610180611cd68189016118f2565b908201526101a0611ce88189016118f2565b90820152815201930192611bc4565b610124359061072082610704565b60809061014319011261000e5760405190611d1f82610f1e565b8161014435611d2d816118e8565b815261016435611d3c816118e8565b602082015261018435611d4e816118e8565b604082015260606101a43591611d63836118e8565b0152565b9080601f8301121561000e57813590611d7f82610fde565b92611d8d6040519485610f70565b828452602092838086019160051b8301019280841161000e57848301915b848310611dbb5750505050505090565b82356001600160401b03811161000e578691611ddc84848094890101611ac6565b815201920191611dab565b503461000e576101e036600319011261000e57611e02611a58565b6044356001600160401b039182821161000e57611e2460049236908401611ac6565b60643584811161000e57611e3b9036908501611ac6565b611e43611ae1565b60a43586811161000e57611e5a9036908701611ac6565b611e62610842565b9060e43588811161000e57611e7a9036908901611ac6565b926101043589811161000e57611e939036908a01611b4f565b94611e9c611cf7565b96611ea636611d05565b986101c4359b8c1161000e57611ec26107789c36908d01611d67565b9a35613f03565b503461000e57604036600319011261000e57610778600435611eea81610704565b60243590336145b5565b503461000e57608036600319011261000e57600435611f1281610704565b602435611f1e81610704565b606435916001600160401b03831161000e573660238401121561000e57611f52610778933690602481600401359101611a8f565b91604435916155f8565b503461000e57600036600319011261000e576006546040516001600160a01b039091168152602090f35b503461000e5760208060031936011261000e57600435906001600160401b03821161000e573660238301121561000e57816004013591611fc583610fde565b91604093611fd585519485610f70565b80845260248285019160061b8401019236841161000e57602401905b838210612001576107788561454c565b858236031261000e57828691825161201881610f39565b843561202381610704565b81528285013583820152815201910190611ff1565b503461000e57602036600319011261000e5760095461205f906001600160a01b0316610bfe565b60405163b67cb04760e01b8152306004808301919091523560248201526101c0918290829060449082905afa918215612a41575b600092612a14575b50506120a5613901565b6120ad613982565b6120b682613247565b526120c081613247565b506120c9613a44565b604051683d913730b6b2911d1160b91b602082015292908361215261211d6120f460298401856139bb565b7f222c226465736372697074696f6e223a225465616d2077697468204944222c008152601f0190565b7f22696d616765223a22646174613a696d6167652f7376672b786d6c3b626173658152620d8d0b60ea1b602082015260230190565b0393612166601f1995868101835282610f70565b61216f84613261565b5261217983613261565b506023815110600014612a00576121ac6121a76121946139ec565b935b516000526094602052604060002090565b613aeb565b8051600381101561296557506121c0613c81565b6121c8614305565b926121d1614396565b9460405195869560208701612256906059907f3c7376672077696474683d2235303022206865696768743d223530302220766981527f6577426f783d22302030203130302520313030252220786d6c6e733d2268747460208201527f703a2f2f7777772e77332e6f72672f323030302f737667223e0000000000000060408201520190565b7f3c7374796c653e40666f6e742d666163657b666f6e742d66616d696c793a224381527f617073756c65732d333030223b7372633a75726c28646174613a666f6e742f7460208201527f727565747970653b636861727365743d7574662d383b6261736536342c0000006040820152605d016122d1916139bb565b75293b666f726d617428226f70656e7479706522293b7d60501b81526016017f40666f6e742d666163657b666f6e742d66616d696c793a2243617073756c657381527f2d373030223b7372633a75726c28646174613a666f6e742f74727565747970656020820152750ed8da185c9cd95d0f5d5d198b4e0ed8985cd94d8d0b60521b6040820152605601612364916139bb565b75293b666f726d617428226f70656e7479706522293b7d60501b81526016017f746578747b66696c6c3a236330623366313b77686974652d73706163653a707281527f652d777261703b2077696474683a313030253b207d3c2f7374796c653e0000006020820152603d017f3c726563742077696474683d22313030767722206865696768743d22313030768152723411103334b6361e9111989c189a191a11179f60691b60208201526033017f3c7465787420783d2231302220793d22323022207374796c653d22666f6e742d81527f73697a653a313670783b20666f6e742d66616d696c793a2043617073756c657360208201527f2d3330303b20666f6e742d7765696768743a3330303b2066696c6c3a202362656040820152731b1cb09b9d911f2222a324a3209e17ba32bc3a1f60611b60608201526074017f3c7465787420783d2231302220793d22343022207374796c653d22666f6e742d81526439b4bd329d60d91b60208201526025016124dd916139bb565b7f70783b20666f6e742d66616d696c793a2043617073756c65732d3330303b206681527037b73a16bbb2b4b3b43a1d1998181d911f60791b6020820152603101612526916139bb565b661e17ba32bc3a1f60c91b81526007017f3c7465787420783d2231302220793d22363022207374796c653d22666f6e742d81527f73697a653a313670783b20666f6e742d66616d696c793a2043617073756c657360208201527f2d3330303b20666f6e742d7765696768743a3330303b2066696c6c3a2023333960408201527f333035393b223e47414d452049443a203132333c2f746578743e0000000000006060820152607a017f3c7465787420783d2231302220793d2234343022207374796c653d22666f6e7481527f2d73697a653a313670783b20666f6e742d66616d696c793a2043617073756c6560208201527f732d3330303b20666f6e742d7765696768743a3330303b2066696c6c3a20233360408201527f39333035393b223e544f4b454e2049443a20313030303030333c2f746578743e60608201526080017f3c7465787420783d2231302220793d2234363022207374796c653d22666f6e7481527f2d73697a653a313670783b20666f6e742d66616d696c793a2043617073756c6560208201527f732d3330303b20666f6e742d7765696768743a3330303b2066696c6c3a20233360408201527f39333035393b223e56414c55453a2033204554483c2f746578743e00000000006060820152607b017f3c7465787420783d2231302220793d2234383022207374796c653d22666f6e7481527f2d73697a653a313670783b20666f6e742d66616d696c793a2043617073756c6560208201527f732d3330303b20666f6e742d7765696768743a3330303b2066696c6c3a20233360408201527f39333035393b223e5241524954593a20312f31303c2f746578743e00000000006060820152607b017f3c7465787420746578744c656e6774683d2235303022206c656e67746841646a81527f7573743d2273706163696e672220783d223530252220793d223530252220737460208201526e3cb6329e913337b73a16b9b4bd329d60891b6040820152604f01612803916139bb565b7f70783b20666f6e742d66616d696c793a2043617073756c65732d3730303b206681527f6f6e742d7765696768743a3730303b20746578742d616e63686f723a6d69646460208201527f6c653b20646f6d696e616e742d626173656c696e653a6d6964646c653b20223e604082015260600161287e916139bb565b661e17ba32bc3a1f60c91b8152600701651e17b9bb339f60d11b81526006010383810182526128ad9082610f70565b6128b690614463565b6128bf82613272565b526128c981613272565b506128d2613ca0565b6128db82613283565b526128e581613283565b506128ef81613247565b51916128fa82613261565b5161290483613272565b519261290f90613283565b5160405193849260208401612923916139bb565b61292c916139bb565b612935916139bb565b0390810182526129459082610f70565b61294e90614463565b61295791613cbe565b6040516104dd8192826105f1565b600581101561297c5750612977613c62565b6121c0565b600881101561298e5750612977613c43565b600a8110156129a05750612977613c25565b600c8110156129b25750612977613c07565b60108110156129c45750612977613be9565b60178110156129d65750612977613bcb565b601e8110156129e85750612977613bad565b602311156129f8576129776139ce565b612977613b8f565b6121ac6121a7612a0e6139ce565b93612196565b612a339250803d10612a3a575b612a2b8183610f70565b810190613387565b388061209b565b503d612a21565b612a4961336f565b612093565b503461000e57604036600319011261000e57600435612a6c81610704565b60018060a01b03166000526010602052604060002060243560005260205260206115c56040600020616ca1565b503461000e57612aa8366117e4565b612ab0616bda565b600954600091906001600160a01b0316803b156118e45782604051809263d67b78fd60e01b8252818381612ae8888b60048401615143565b03925af18015612b43575b612b30575b50612b03919261516b565b7fd36dc0c1a06103fdcaf15f3f6fb797d1a97997514c78de073640c8b5005454b86020604051338152a280f35b91612b3d612b0393610efe565b91612af8565b612b4b61336f565b612af3565b503461000e576101c036600319011261000e57612b6b611a58565b6044356001600160401b039182821161000e57612b8d60049236908401611ac6565b60643584811161000e57612ba49036908501611ac6565b612bac611ae1565b60a43586811161000e57612bc39036908701611ac6565b612bcb610842565b9160e43588811161000e57612be39036908901611ac6565b936101043598891161000e57612bff6107789936908a01611b4f565b95612c08611cf7565b97612c1236611d05565b9935614a21565b503461000e57604036600319011261000e57600435600052601160205260206115c56024356040600020616ce5565b503461000e57600036600319011261000e57600b546040516001600160a01b039091168152602090f35b503461000e57606036600319011261000e57600435612c9081610704565b60018060a01b03166000526010602052604060002060243560005260205260206115c56044356040600020616ce5565b91908252612cda60209160608385015260608401906105cc565b90604092838184039101528080855193848152019401926000905b838210612d0457505050505090565b845180516001600160a01b03168752830151868401529485019493820193600190910190612cf5565b503461000e576020600319818136011261000e57600435906001600160401b03821161000e576101a090823603011261000e57612d7b612d7461016483018360040161315b565b3691611a8f565b60405190612d8882610f39565b6001825260005b848110612dd35750906104dd91610124946000612daa610fb1565b30815291820152612dba83613247565b52612dc482613247565b50604051948594013584612cc0565b8490612ddd6131db565b82828601015201612d8f565b5060031960203682011261000e57600435906001600160401b03821161000e5761020090823603011261000e57600554341590811591612e5d575b8115612e4e575b50612e3c57610778906004016166c0565b6040516331c57b1b60e21b8152600490fd5b90506024820135141538612e2b565b600654909150612e75906001600160a01b0316610bfe565b604051636e49181f60e01b81526004810183905233602482015290602090829060449082905afa908115612ed2575b600091612eb4575b501590612e24565b612ecc915060203d8111610ed357610ec58183610f70565b38612eac565b612eda61336f565b612ea4565b503461000e57602036600319011261000e57600435612efd81610704565b612f05616bda565b6009546001600160a01b0390811691823b1561000e576000916024839260405194859384926317161f7d60e01b845216968760048401525af18015612f90575b612f7d575b506040513381527fab0014d4c7a642a02a31b303a318908c22b0fb2001f107278fc6076b4c671b659080602081016112ae565b806112c0612f8a92610efe565b38612f4a565b612f9861336f565b612f45565b503461000e576000806003193601126106d057600954604051630155619b60e71b815230600482015291908190839060249082906001600160a01b03165afa908115613053575b8091612ff9575b604051806104dd84826105f1565b90503d8082843e61300a8184610f70565b82019160208184031261304f578051906001600160401b0382116118e457019082601f830112156106d057506104dd9181602061304993519101614279565b38612feb565b5080fd5b61305b61336f565b612fe4565b503461000e57604036600319011261000e57602060ff6130bd60043561308581610704565b6024359061309282610704565b60018060a01b03166000526004845260406000209060018060a01b0316600052602052604060002090565b54166040519015158152f35b503461000e57602036600319011261000e576004356130e781610704565b6130ef616bda565b6001600160a01b038116156131075761077890616c32565b60405162461bcd60e51b815260206004820152602660248201527f4f776e61626c653a206e6577206f776e657220697320746865207a65726f206160448201526564647265737360d01b6064820152608490fd5b903590601e198136030182121561000e57018035906001600160401b03821161000e5760200191813603831361000e57565b9060241161000e5760200190600490565b9060441161000e5760400190600490565b6001600160e01b031990358181169392600481106131cc57505050565b60040360031b82901b16169150565b604051906131e882610f39565b60006020838281520152565b6040519061320182610f39565b600182528160005b6020908181101561322b5760209161321f6131db565b90828501015201613209565b505050565b50634e487b7160e01b600052603260045260246000fd5b602090805115613255570190565b61325d613230565b0190565b604090805160011015613255570190565b606090805160021015613255570190565b608090805160031015613255570190565b60209181518110156132a9575b60051b010190565b6132b1613230565b6132a1565b9160608383031261000e5782359260208101356132d28161047c565b9260408201356001600160401b03811161000e576106029201611510565b519061072082610704565b908161012091031261000e5761330f610fbe565b90805182526020810151602083015260408101516040830152606081015160608301526080810151608083015260a081015160a083015260c081015160c083015261335c60e082016132f0565b60e0830152610100809101519082015290565b506040513d6000823e3d90fd5b5190610720826118e8565b90816101c091031261000e5761339b610f91565b90805182526020810151602083015260408101516040830152606081015160608301526080810151608083015260a081015160a083015260c081015160c08301526133e860e082016132f0565b60e083015261010080820151908301526101206134068183016132f0565b908301526101408082015190830152610160808201519083015261018061342e81830161337c565b908301526134406101a080920161337c565b9082015290565b50634e487b7160e01b600052601160045260246000fd5b906002820180921161346c57565b610720613447565b906020820180921161346c57565b906001820180921161346c57565b9190820180921161346c57565b90600090600060808401356136ec576101c0928385019360246134c0868861315b565b90501080156136ba575b610ddb576134d66131f4565b9461350b610bdd6134e5610fb1565b3081529260209387858201526134fa8a613247565b5261350489613247565b508961315b565b600a549096925061352591506001600160a01b0316610bfe565b92604089815180966321d1336160e11b825261012097889181806135558860049801358883019190602083019252565b03915afa9687156136ad575b859761368e575b50506001809651146135b45750505050505050612d746135a46135b09261359e61359860925460c08a0135613490565b91613769565b9061701b565b946101a081019061315b565b9190565b9599969392919084519483976135d4610bfe60095460018060a01b031690565b915b878a106135f95750505050505050505050612d74816101a06135b093019061315b565b9091929394959697899d8861363c88613613859e87613294565b51895163b67cb04760e01b81523089820190815260208101929092529283918291604090910190565b03818a5afa908115613681575b8a91613664575b500151019d019897969594939291906135d6565b61367b9150893d8b11612a3a57612a2b8183610f70565b38613650565b61368961336f565b613649565b6136a5929750803d10610dc757610db88183610f70565b943880613568565b6136b561336f565b613561565b506136c8610dfb868861315b565b63b3bcbb7960e01b916001600160e01b0319916136e4916131af565b1614156134ca565b6040516309f82f1b60e31b8152600490fd5b9081602091031261000e575190565b60001981019190821161346c57565b9190820391821161346c57565b608081101561373c575b60120190600090565b613744613230565b613733565b8115613753570490565b634e487b7160e01b600052601260045260246000fd5b80516009546000939284929183919061378a906001600160a01b0316610bfe565b905b8385106137b257505050505081156137a057565b604051637691472960e01b8152600490fd5b90919293956138986001916138926137ca8a86613294565b51604080516342f9914b60e01b81526004808201939093526020919082816024818d5afa9283156138f4575b8b936138d5575b505051633a39e4d160e11b815230928101928352602083018290526101c09283908290819060400103818c5afa9283156138c8575b8a936138a3575b50508061388561387461386361385961385461388c9661370d565b613729565b90549060031b1c90565b94606060808201519101519061371c565b916000526093602052604060002090565b5490613490565b90613749565b90613490565b96019392919061378c565b61388c92935090816138c092903d10612a3a57612a2b8183610f70565b919038613839565b6138d061336f565b613832565b6138ec929350803d10610d7e57610d6f8183610f70565b9038806137fd565b6138fc61336f565b6137f6565b6040519060a082018281106001600160401b03821117613944575b604052600482528160005b60808110613933575050565b806060602080938501015201613927565b61394c610ee7565b61391c565b60405190602082018281106001600160401b03821117613975575b60405260008252565b61397d610ee7565b61396c565b6040519061398f82610f39565b601d82527f646174613a6170706c69636174696f6e2f6a736f6e3b6261736536342c0000006020830152565b9061325d602092828151948592016105a9565b604051906139db82610f39565b6002825261032360f41b6020830152565b604051906139f982610f39565b60028252610c8d60f21b6020830152565b90600182811c92168015613a3a575b6020831014613a2457565b634e487b7160e01b600052602260045260246000fd5b91607f1691613a19565b60405190600082815491613a5783613a0a565b80835292600190818116908115613ac95750600114613a7e575b5061072092500383610f70565b6000808052915060008051602061714d8339815191525b848310613aae5750610720935050810160200138613a71565b81935090816020925483858a01015201910190918592613a95565b90506020925061072094915060ff191682840152151560051b82010138613a71565b9060405191826000825492613aff84613a0a565b908184526001948581169081600014613b6c5750600114613b29575b505061072092500383610f70565b9093915060005260209081600020936000915b818310613b5457505061072093508201013880613b1b565b85548884018501529485019487945091830191613b3c565b91505061072094506020925060ff191682840152151560051b8201013880613b1b565b60405190613b9c82610f39565b6002825261189b60f11b6020830152565b60405190613bba82610f39565b6002825261033360f41b6020830152565b60405190613bd882610f39565b6002825261034360f41b6020830152565b60405190613bf682610f39565b6002825261036360f41b6020830152565b60405190613c1482610f39565b6002825261038360f41b6020830152565b60405190613c3282610f39565b6002825261039360f41b6020830152565b60405190613c5082610f39565b600382526203134360ec1b6020830152565b60405190613c6f82610f39565b600382526203230360ec1b6020830152565b60405190613c8e82610f39565b600382526203234360ec1b6020830152565b60405190613cad82610f39565b6002825261227d60f01b6020830152565b6020610720919392936040519481613cdf87935180928680870191016105a9565b8201613cf3825180938680850191016105a9565b01038085520183610f70565b60125b60928110613d0d5750565b60008155600101613d02565b818110613d24575050565b60008155600101613d19565b90601f8211613d3d575050565b610720916000805260008051602061714d833981519152906020601f840160051c83019310613d74575b601f0160051c0190613d19565b9091508190613d67565b90601f8211613d8b575050565b6107209160016000527fb10e2d527612073b26eecdfd717e6a320cf44b4afac2b0732d9fcbe2b7fa0cf6906020601f840160051c83019310613d7457601f0160051c0190613d19565b9190601f8111613de357505050565b610720926000526020600020906020601f840160051c83019310613d7457601f0160051c0190613d19565b9081516001600160401b038111613ef6575b600190613e3681613e318454613a0a565b613d7e565b602080601f8311600114613e71575081929394600092613e66575b5050600019600383901b1c191690821b179055565b015190503880613e51565b90601f19831695613ea460016000527fb10e2d527612073b26eecdfd717e6a320cf44b4afac2b0732d9fcbe2b7fa0cf690565b926000905b888210613edf5750508385969710613ec6575b505050811b019055565b015160001960f88460031b161c19169055388080613ebc565b808785968294968601518155019501930190613ea9565b613efe610ee7565b613e20565b90613f169a999897969594939291614a21565b80519060005b828110613f2857505050565b613f328183613294565b51600180830180931161402d575b82600052602091609483526040600020928151916001600160401b038311614020575b613f7783613f718754613a0a565b87613dd4565b81601f8411600114613fb35750928293918392600094613fa8575b50501b916000199060031b1c1916179055613f1c565b015192503880613f92565b919083601f198116613fca88600052602060002090565b946000905b888383106140065750505010613fed575b505050811b019055613f1c565b015160001960f88460031b161c19169055388080613fe0565b858701518855909601959485019487935090810190613fcf565b614028610ee7565b613f63565b614035613447565b613f40565b61408a90614046616bda565b600a5461405b906001600160a01b0316610bfe565b90600554604092835180916321d1336160e11b8252610120928391818060049a8b988983019190602083019252565b03915afa918215614213575b6000926141f6575b505051106141e8576140ae613cff565b6009546140c3906001600160a01b0316610bfe565b825163f1bea54f60e01b81523085820190815290916020918291849182908190850103915afa9182156141db575b6000926141bc575b50909160009181519183945b83861061412d5750505050633b9aca00915011614120575050565b51636ff44e9760e01b8152fd5b909192938161413c8785613294565b5151116141ac576141a060019161418c866141578a88613294565b51015161417161385461416a8c8a613294565b515161370d565b90919082549060031b600019811b9283911b16911916179055565b856141978987613294565b51015190613490565b95019493929190614105565b865163148e14dd60e21b81528890fd5b816141d49293503d8411610d7e57610d6f8183610f70565b90386140f9565b6141e361336f565b6140f1565b50516303e08a3560e61b8152fd5b61420c9250803d10610dc757610db88183610f70565b388061409e565b61421b61336f565b614096565b600281901b91906001600160fe1b0381160361346c57565b9081602091031261000e5751610602816118e8565b3561060281610704565b6040519061426482610f39565b60068252651b9bdc9b585b60d21b6020830152565b9092919261428681611a65565b916142946040519384610f70565b82948284528282011161000e5760206107209301906105a9565b60208183031261000e578051906001600160401b03821161000e57019080601f8301121561000e57815161060292602001614279565b606060206106029381845280518285015201519160408082015201906105cc565b614342600060405161431681610f39565b61012c8152614323614257565b60208201526040518093819263bf6519ad60e01b8352600483016142e4565b038173a77b7d93e79f1e6b4f77fab29d9ef85733a3d44a5afa908115614389575b60009161436e575090565b610602913d8091833e6143818183610f70565b8101906142ae565b61439161336f565b614363565b61434260006040516143a781610f39565b6102bc8152614323614257565b60405190606082018281106001600160401b03821117614424575b604052604082527f6768696a6b6c6d6e6f707172737475767778797a303132333435363738392b2f6040837f4142434445464748494a4b4c4d4e4f505152535455565758595a61626364656660208201520152565b61442c610ee7565b6143cf565b9061443b82611a65565b6144486040519182610f70565b8281528092614459601f1991611a65565b0190602036910137565b805115614543576144726143b4565b61448e614489614482845161345e565b6003900490565b614220565b916144a061449b84613474565b614431565b92835280815182019060208501935b8282106144f1575050506003905106806001146144e0576002146144d1575090565b603d60f81b6000199091015290565b50613d3d60f01b6001199091015290565b9091936004906003809401938451600190603f9082828260121c16880101518553828282600c1c16880101518386015382828260061c16880101516002860153168501015190820153019391906144af565b50610602613951565b8051906145576131db565b5060005b82811061456757505050565b6145718183613294565b5180519091906001600160a01b03908116156145a35782602061459d92600195511691015190336145b5565b0161455b565b6040516314f4c13d60e21b8152600490fd5b6001600160a01b039081166000818152600f602090815260408083208784528252822080548686166001600160a01b031982161790915561072096929592949293908316929091908190808616858560008051602061716d8339815191528b80a460095416926064604051809581936305c9a1d560e31b835230600484015260248301528960448301525afa958615614675575b95614656575b5050614682565b61466d929550803d10610d7e57610d6f8183610f70565b92388061464f565b61467d61336f565b614649565b91926001600160a01b0380831693919291908116808514801561479f575b6147975785918161472a575b505050826146bb575b50505050565b6001600160a01b031660009081526010602052604090207fed0c1e94c302bdbbd8bbd6a4fb7c3ed335c2292407cd816eadd075d019d0ce049161470991856000526020526040600020616f06565b6040805192835260208301919091523390820152606090a3388080806146b5565b6001600160a01b03166000908152601060205260409020826000526020527fed0c1e94c302bdbbd8bbd6a4fb7c3ed335c2292407cd816eadd075d019d0ce04614777856040600020616dc3565b6040805192835260208301919091523390820152606090a38338806146ac565b505050505050565b5083156146a0565b9081602091031261000e575161060281610704565b6009546040516308ed6c0160e41b8152306004820152602481018390526001600160a01b0392916020908290604490829087165afa908115614857575b600091614829575b50828116614823575061481e906000526002602052604060002090565b541690565b91505090565b61484a915060203d8111614850575b6148428183610f70565b8101906147a7565b38614801565b503d614838565b61485f61336f565b6147f9565b919082604091031261000e576020825161487d81610704565b92015190565b81601f8201121561000e5780519161489a83610fde565b926148a86040519485610f70565b808452602092838086019260051b82010192831161000e578301905b8282106148d2575050505090565b815181529083019083016148c4565b9060208282031261000e5781516001600160401b03811161000e576106029201614883565b60208082019080835283518092528060408094019401926000905b83821061493057505050505090565b9091929394836101c0600192614a14895161495783825169ffffffffffffffffffff169052565b8085015165ffffffffffff16838601528087015164ffffffffff168388015260608181015161ffff169084015260808181015161ffff169084015260a0818101516001600160a01b03169084015260c08181015160ff169084015260e0818101516001600160a01b03169084015261010081810151908401526101208082015160ff16908401526101408181015115159084015261016081810151151590840152610180818101511515908401526101a090810151151590830152565b0196019493920190614921565b9092999896939197959499614a40610bfe60085460018060a01b031690565b301461000e576009546001600160a01b0399908a90614a60908216610bfe565b1661000e57614a9494614a729361644d565b60018060a01b03166bffffffffffffffffffffffff60a01b600a541617600a55565b600980546001600160a01b0319166001600160a01b038616179055614abc6020840151600c55565b604096614acb88850151600d55565b6060840151600b80546001600160a01b0319166001600160a01b039092169190911790558051614d0a575b508051614cab575b50838116614c4a575b50518051614be7575b50825115158015614bda575b8015614bce575b8015614bc1575b614b3c575b5050505061072033616c32565b1691823b1561000e57516365c13f1960e11b815281511515600482015260208201511515602482015260408201511515604482015260609091015115156064820152906000908290608490829084905af18015614bb4575b614ba1575b808080614b2f565b806112c0614bae92610efe565b38614b99565b614bbc61336f565b614b94565b5060608301511515614b2a565b50828401511515614b23565b5060208301511515614b1c565b6000614c069186518093819263229dad5f60e11b835260048301614906565b0381838787165af18015614c3d575b15614b1057614c36903d806000833e614c2e8183610f70565b8101906148e1565b5038614b10565b614c4561336f565b614c15565b838316803b1561000e57865163036129cb60e61b81526001600160a01b039290921660048301526000908290602490829084905af18015614c9e575b15614b0757806112c0614c9892610efe565b38614b07565b614ca661336f565b614c86565b848416803b1561000e57875163d67b78fd60e01b8152916000918391829084908290614cda90600483016105f1565b03925af18015614cfd575b15614afe57806112c0614cf792610efe565b38614afe565b614d0561336f565b614ce5565b858516803b1561000e5788516331315e5960e11b8152916000918391829084908290614d3990600483016105f1565b03925af18015614d5c575b15614af657806112c0614d5692610efe565b38614af6565b614d6461336f565b614d44565b919092614d74616bda565b80614e60575b505081614d85575050565b600954614d9a906001600160a01b0316610bfe565b9160409060008251809563229dad5f60e11b8252818381614dbf878a600484016150c3565b03925af1938415614e53575b600094614e38575b5060005b818110614de5575050505050565b80614df260019287613294565b517f8aa4a03deb8db10032373886aa0376c918ccf36bcdb59ca4da2a807ac7ff1a04614e2f614e2284878a615101565b875191829133908361511f565b0390a201614dd7565b614e4c91943d8091833e614c2e8183610f70565b9238614dd3565b614e5b61336f565b614dcb565b600954614e75906001600160a01b0316610bfe565b90813b1561000e576040916000835180926320512ba160e01b8252818381614ea1888b60048401614f25565b03925af18015614f18575b614f05575b5060005b818110614ec3575050614d7a565b80614ed16001928487614f4e565b84513381529035907f832d89d991be5351d793c20faf4b7dd44f8aa9ce39e3cb160c6317de6fbba72990602090a201614eb5565b806112c0614f1292610efe565b38614eb1565b614f2061336f565b614eac565b602080825281018390526001600160fb1b03831161000e5760409260051b809284830137010190565b9190811015614f5e5760051b0190565b610fff613230565b9061072091614f8882614f7883611aee565b69ffffffffffffffffffff169052565b614fa6614f9760208301611b05565b65ffffffffffff166020840152565b614fc3614fb560408301611b18565b64ffffffffff166040840152565b614fdd614fd260608301611b36565b61ffff166060840152565b614ff7614fec60808301611b36565b61ffff166080840152565b61501661500660a08301610715565b6001600160a01b031660a0840152565b61502f61502560c08301611b41565b60ff1660c0840152565b61504e61503e60e08301610715565b6001600160a01b031660e0840152565b610100808201359083015261507361012061506a818401611b41565b60ff1690840152565b61508c6101406150848184016118f2565b151590840152565b61509d6101606150848184016118f2565b6150ae6101806150848184016118f2565b6150bc6101a08092016118f2565b1515910152565b602080825281018390526040019160005b8181106150e15750505090565b909192806150f160019286614f66565b6101c090810194019291016150d4565b916101c09181101561511257020190565b61511a613230565b020190565b9092916101c090615135836101e0810196614f66565b6001600160a01b0316910152565b90918060409360208452816020850152848401376000828201840152601f01601f1916010190565b81604051928392833781016000815203902090565b600a54615195906001600160a01b0316610bfe565b906151f360ff6101006151cc60055495604096875180926321d1336160e11b82528180610120968795600483019190602083019252565b03915afa91821561537f575b600092615362575b5050015160f41c1660018091811c161490565b6153515760095461520c906001600160a01b0316610bfe565b8251635d53f40760e11b8152600481018390526024810185905292906000908490604490829084905af1928315615344575b600093615329575b5060095461525c906001600160a01b0316610bfe565b81516304db994760e21b8152306004820152602481018490529390602090859060449082905afa93841561531c575b6000946152fc575b5060005b8581106152a657505050505050565b806152b360019284613294565b516152be81886156af565b845133815260a084901b84900388169187917f031e1988c95a91ec4d655ff63a8f87a80bc9daf28d95ae10ee08c0022cfb5c8b90602090a401615297565b61531591945060203d8111614850576148428183610f70565b9238615293565b61532461336f565b61528b565b61533d91933d8091833e614c2e8183610f70565b9138615246565b61534c61336f565b61523e565b8151631d2c125760e31b8152600490fd5b6153789250803d10610dc757610db88183610f70565b38806151e0565b61538761336f565b6151d8565b91615395616bda565b6009546153aa906001600160a01b0316610bfe565b9260409060008251809663eaa19ab360e01b82528183816153cf8a88600484016154c7565b03925af1948515615490575b60009561546c575b5060005b8481106153f657505050505090565b8061540360019288613294565b5161540e81876156af565b61ffff61542461541f848a88614f4e565b615522565b86516000815233602082015260a086901b86900389169391909216917f598baf7bf150ca2f42be9e9f8f55e81d45f5715c3ff22bf46d697fabec7f31d690604090a4016153e7565b61548891953d8091833e6154808183610f70565b81019061549d565b5093386153e3565b61549861336f565b6153db565b919060408382031261000e5782516001600160401b03811161000e5760209161487d918501614883565b929160608401906000198552806020926060848801525260808501929160005b8281106154fc57505050506040600191930152565b90919293828060019261ffff883561551381611b2a565b168152019501939291016154e7565b3561060281611b2a565b6009546001600160a01b0316803b1561000e576040516386bc2be360e01b81529160009183918290849082906155659060048301611380565b03925af18015615580575b6155775750565b61072090610efe565b61558861336f565b615570565b6000908152600260205260409020546001600160a01b031680156155ae5790565b60405163b49aa3b560e01b8152600490fd5b6000818152600260205260409020546001600160a01b0316156155ae576000908152600360205260409020546001600160a01b031690565b9291906156058233615637565b1561077a5783615619838361561e97615ffe565b616391565b1561562557565b6040516336f57c1b60e11b8152600490fd5b6001600160a01b03806156498461558d565b16928183169284841494851561567f575b50508315615669575b50505090565b615675919293506155c0565b1614388080615663565b60009081526004602090815260408083206001600160a01b03949094168352929052205460ff169350388061565a565b6001600160a01b0381169291908315615846576000828152600260205260409020546001600160a01b031661583457600082815260026020526040812080546001600160a01b0319166001600160a01b0384161790559361577692908190867fddf252ad1be2c89b69c2b068fc378daa952ba7f163c4a11628f55a4df523b3ef8180a4600954615747906001600160a01b0316610bfe565b60405163b67cb04760e01b815230600482015260248101929092526101c0939091908490829081906044820190565b0381855afa938415615827575b8694615808575b50508251813b15615804576040516330b157e560e21b81526004810191909152600060248201526001600160a01b0383166044820152939461072094918290606490829084905af180156157f7575b6157e4575b50615a5d565b806112c06157f192610efe565b386157de565b6157ff61336f565b6157d9565b8580fd5b61581f929450803d10612a3a57612a2b8183610f70565b91388061578a565b61582f61336f565b615783565b604051632eb5f0c360e21b8152600490fd5b604051633904578f60e11b8152600490fd5b60095461589f9190615872906001600160a01b0316610bfe565b60405163b67cb04760e01b81523060048201526024810194909452926101c0928390829081906044820190565b0381875afa92831561594c575b60009361592d575b50508151833b1561000e576040516330b157e560e21b815260048101919091526001600160a01b0382166024820152600060448201819052610720948290606490829084905af18015615920575b61590d575b50615b63565b806112c061591a92610efe565b38615907565b61592861336f565b615902565b615944929350803d10612a3a57612a2b8183610f70565b9038806158b4565b61595461336f565b6158ac565b6009546159a1929190615974906001600160a01b0316610bfe565b60405163b67cb04760e01b81523060048201526024810195909552936101c0938490829081906044820190565b0381885afa938415615a50575b600094615a31575b50508251843b1561000e576040516330b157e560e21b815260048101919091526001600160a01b03828116602483015283166044820152610720946000908290606490829084905af18015615a24575b615a11575b50615c86565b806112c0615a1e92610efe565b38615a0b565b615a2c61336f565b615a06565b615a48929450803d10612a3a57612a2b8183610f70565b9138806159b6565b615a5861336f565b6159ae565b9060a081018051615a6d57505050565b6107209260018060a01b038082169360008581526020600f815260409283832081518452825284848420541615615b17575b5195519686835260118252615ab688858520616f06565b505015615afd575b818052600f81528282208683528152615aef8484842054169560018060a01b0316600052600f602052604060002090565b908683525220541690614682565b85825260118152615b1087848420616dc3565b5050615abe565b6001600160a01b0386166000818152600f6020526040902082518552835284842080546001600160a01b031916909117905587838160008051602061716d8339815191528280a4615a9f565b60a082018051615b7257505050565b6000808052600f6020908152845182527ff4803e074bd026baaf6ed2e288c9515f68c72fb7216eebdd7cae1718a53ec37581526040808320546107209692936001600160a01b03939091849190821615615c2b575b51955196168015615c11575b85825260118552615be687848420616dc3565b50508152600f8452818120858252845282828220541693615aef60008052600f602052604060002090565b85825260118552615c2487848420616f06565b5050615bd3565b60008052600f6020527ff4803e074bd026baaf6ed2e288c9515f68c72fb7216eebdd7cae1718a53ec37581518452865283832080546001600160a01b031916905582808060008051602061716d8339815191528180a4615bc7565b9060a08301908151615c985750505050565b6001600160a01b038181166000818152600f6020908152604080832089518452825280832054615d12999194918691821615615d4f575b5197519816908115615d35575b15615d1b575b8252600f81528282208683528152615aef8484842054169560018060a01b0316600052600f602052604060002090565b388080806146b5565b86835260118252615d2e88858520616dc3565b5050615ce2565b87845260118352615d4889868620616f06565b5050615cdc565b6001600160a01b0388166000818152600f6020526040902082518752855286862080546001600160a01b031916909117905582858160008051602061716d8339815191528280a4615ccf565b615da48161558d565b6001600160a01b0380821692919083615e0c575b5081600061072094615dc983616263565b82825260026020526040822080546001600160a01b03191690557fddf252ad1be2c89b69c2b068fc378daa952ba7f163c4a11628f55a4df523b3ef8280a4615858565b600954615e21906001600160a01b0316610bfe565b60405163b67cb04760e01b815230600482015260248101859052909190615e70906101a0906101c090818180604481015b0381895afa918215615ff1575b600092615fd4575b50500151151590565b615f51575b6040516308ed6c0160e41b815230600482015260248101859052602081604481865afa908115615f44575b600091615f26575b5016615db85792833b1561000e57604051638cec7d3960e01b8152600481018490526001600160a01b0383166024820152610720948492600092909183908290604490829084905af18015615f19575b615f06575b50945050615db8565b806112c0615f1392610efe565b38615efd565b615f2161336f565b615ef8565b615f3e915060203d8111614850576148428183610f70565b38615ea8565b615f4c61336f565b615ea0565b600a54615f9290615f6a906001600160a01b0316610bfe565b60055460405180926321d1336160e11b82528180610120968795600483019190602083019252565b03915afa8015615fc7575b615fa9575b5050615e75565b81615fbf92903d10610dc757610db88183610f70565b503880615fa2565b615fcf61336f565b615f9d565b615fea9250803d10612a3a57612a2b8183610f70565b3880615e67565b615ff961336f565b615e5f565b91906160098261558d565b6001600160a01b03808516949181168590036162515780831690811561623f5785616090575b5083906107209561603f83616263565b600083815260026020526040902080546001600160a01b0319166001600160a01b0387161790557fddf252ad1be2c89b69c2b068fc378daa952ba7f163c4a11628f55a4df523b3ef600080a4615959565b6009546160a5906001600160a01b0316610bfe565b60405163b67cb04760e01b8152306004820152602481018790529091906160da906101a0906101c09081818060448101615e52565b6161ba575b6040516308ed6c0160e41b815230600482015260248101879052602081604481865afa9081156161ad575b60009161618f575b501661602f5790813b1561000e57604051638cec7d3960e01b8152600481018690526001600160a01b03841660248201526107209686939091906000908290604490829084905af18015616182575b61616f575b5095509061602f565b806112c061617c92610efe565b38616166565b61618a61336f565b616161565b6161a7915060203d8111614850576148428183610f70565b38616112565b6161b561336f565b61610a565b6161fe60ff6101006161d9615f6a610bfe600a5460018060a01b031690565b03915afa918215616232575b600092616215575b5050015160f41c1660018091161490565b156160df576040516318cdaf9760e01b8152600490fd5b61622b9250803d10610dc757610db88183610f70565b38806161ed565b61623a61336f565b6161e5565b604051632c95542760e01b8152600490fd5b60405163a195bc5360e01b8152600490fd5b600081815260036020526040812080546001600160a01b03191690556001600160a01b036162908361558d565b167f8c5be1e5ebec7d5bd14f71427d1e84f3dd0314c0f7b2291e5b200ac8c7c3b9258280a4565b600082815260036020526040902080546001600160a01b0319166001600160a01b0383161790556001600160a01b03806162f08461558d565b169116907f8c5be1e5ebec7d5bd14f71427d1e84f3dd0314c0f7b2291e5b200ac8c7c3b925600080a4565b9081602091031261000e57516106028161047c565b6001600160a01b039182168152911660208201526040810191909152608060608201819052610602929101906105cc565b3d1561638c573d9061637282611a65565b916163806040519384610f70565b82523d6000602084013e565b606090565b92909190823b15616444576163c4926020926000604051809681958294630a85bd0160e11b9a8b85523360048601616330565b03926001600160a01b03165af160009181616414575b50616406576163e7616361565b80519081616401576040516336f57c1b60e11b8152600490fd5b602001fd5b6001600160e01b0319161490565b61643691925060203d811161643d575b61642e8183610f70565b81019061631b565b90386163da565b503d616424565b50505050600190565b9192909280516001600160401b03811161656b575b600091616478826164738554613a0a565b613d30565b60209081601f84116001146164eb575092826164b9936164be969361072099989684926164e0575b50508160011b916000199060031b1c1916179055613e0e565b600555565b60018060a01b03166bffffffffffffffffffffffff60a01b6006541617600655565b0151905038806164a0565b600080529190601f19841660008051602061714d8339815191529386905b828210616553575050936164be969361072099989693600193836164b9981061653a575b505050811b019055613e0e565b015160001960f88460031b161c1916905538808061652d565b80600186978294978701518155019601940190616509565b616573610ee7565b616462565b604d8111616587575b600a0a90565b61658f613447565b616581565b9160a08383031261000e57823592602091828201359360408301356165b88161047c565b9360608401356165c7816118e8565b936080810135906001600160401b03821161000e57019180601f8401121561000e5782356165f481610fde565b936166026040519586610f70565b818552838086019260051b82010192831161000e578301905b828210616629575050505090565b838091833561663781611b2a565b81520191019061661b565b9081608091031261000e57606060405191608083018381106001600160401b038211176166b3575b6040528051616678816118e8565b83526020810151616688816118e8565b6020840152604081015161669b816118e8565b604084015201516166ab816118e8565b606082015290565b6166bb610ee7565b61666a565b600060c082013590600c548083146000146169c95750505060808101355b61018082019161670a6166f08461424d565b6001600160a01b03166000908152600e6020526040902090565b5492829360009361671a8461424d565b95616727610bfe8561424d565b6001600160a01b03978816036169be57508101925b6000906101e08101906044616751838361315b565b90501180616987575b616898575b5050831561682c571561681a576167c5936166f0930180958282116000146167c8577f2fb2733fb01b76e3290fa8b695d18e026ddd19c0a265ab90e95152e57da303366167ab8561424d565b60405133815292169383039180602081015b0390a461424d565b55565b8183116167d8575b50505061424d565b7fe0e7c81cf67a96dd0e39bcf11521b1f4c0098cc1dbe8c30750a11d9ebfc3ed4d826168038661424d565b6040513381529316940391602090a43884816167d0565b604051631b57826960e21b8152600490fd5b50915082829493940361683f5750505050565b61688e9284616851816166f09561371c565b7fe0e7c81cf67a96dd0e39bcf11521b1f4c0098cc1dbe8c30750a11d9ebfc3ed4d61687b8561424d565b60405133815294169380602081016167bd565b55388080806146b5565b6168af9250906168a79161315b565b810190616594565b925092505081806168f2575b6168e9575b80516168cd575b8061675f565b936168e291946168dc8561424d565b91616acb565b92386168c7565b600091506168c0565b506009546169479060609061690f906001600160a01b0316610bfe565b604051634228826f60e11b815230600482015290608090829060249082905afa90811561697a575b60009161694c575b500151151590565b6168bb565b61696d915060803d8111616973575b6169658183610f70565b810190616642565b3861693f565b503d61695b565b61698261336f565b616937565b5061699b616995838361315b565b9061319e565b63b3bcbb7960e01b916001600160e01b0319916169b7916131af565b161461675a565b93945050809361673c565b600b546001600160a01b0316928315616a74576020616a2591616a42956169f1600d54616578565b94604051809581948293635268657960e11b845260a08d013591600485016040919493926060820195825260208201520152565b03915afa928315616a67575b92616a47575b5060808401356170a7565b6166de565b616a6091925060203d8111610d7e57610d6f8183610f70565b9038616a37565b616a6f61336f565b616a31565b5050505050565b929190606084019084526020906060828601528251809152816080860193019160005b828110616ab357505050506040600091930152565b835161ffff1685529381019392810192600101616a9e565b600954929392616ae3906001600160a01b0316610bfe565b6040805163eaa19ab360e01b815295600094919285908890818381616b0c888b60048401616a7b565b03925af18015616bcd575b85978691616bad575b50968051955b868110616b365750505050505050565b80616b4360019284613294565b51616b4e81866156af565b61ffff616b66616b5e8489613294565b5161ffff1690565b88518a815233602082015260a086901b86900388169391909216917f598baf7bf150ca2f42be9e9f8f55e81d45f5715c3ff22bf46d697fabec7f31d690604090a401616b26565b9050616bc49197503d8087833e6154808183610f70565b96909638616b20565b616bd561336f565b616b17565b6007546001600160a01b03163303616bee57565b606460405162461bcd60e51b815260206004820152602060248201527f4f776e61626c653a2063616c6c6572206973206e6f7420746865206f776e65726044820152fd5b600780546001600160a01b039283166001600160a01b0319821681179092559091167f8be0079c531659141344cd1fd0a4f28419497f9722a3daafe3b4186f6b6457e0600080a3565b8054821015616c94575b60005260206000200190600090565b616c9c613230565b616c85565b805480616cb957505060005b6001600160e01b031690565b616cce916000198201918211616cd857616c7b565b505460201c616cad565b616ce0613447565b616c7b565b9043811015616d7f578154906000905b828210616d2e57505080616d0b57506000919050565b616d2991616d1b616d219261370d565b90616c7b565b505460201c90565b616cad565b9091616d3a8184616f95565b9082616d60616d57616d4c8589616c7b565b505463ffffffff1690565b63ffffffff1690565b1115616d6f5750915b90616cf5565b9250616d7a90613482565b616d69565b606460405162461bcd60e51b815260206004820152602060248201527f436865636b706f696e74733a20626c6f636b206e6f7420796574206d696e65646044820152fd5b919091616dcf81616ca1565b928303928311616ef9575b805490616de681616ca1565b9180151580616ec6575b15616e2657616e0e6135b092616d1b616e0888616fb2565b9361370d565b509063ffffffff82549181199060201b169116179055565b5063ffffffff804311616e72576135b091616e6d616e4387616fb2565b616e5d616e4e610fb1565b944316859063ffffffff169052565b6001600160e01b03166020840152565b616f28565b60405162461bcd60e51b815260206004820152602660248201527f53616665436173743a2076616c756520646f65736e27742066697420696e203360448201526532206269747360d01b6064820152608490fd5b5063ffffffff616ee26000198301838111616eec575b84616c7b565b5054164314616df0565b616ef4613447565b616edc565b616f01613447565b616dda565b919091616f1281616ca1565b928301809311616ef957805490616de681616ca1565b8054616f4b9168010000000000000000821015616f88575b600182018155616c7b565b616f7257815160209283015190921b63ffffffff191663ffffffff92909216919091179055565b634e487b7160e01b600052600060045260246000fd5b616f90610ee7565b616f40565b90808216911860011c8101809111616faa5790565b610602613447565b6001600160e01b0390818111616fc6571690565b60405162461bcd60e51b815260206004820152602760248201527f53616665436173743a2076616c756520646f65736e27742066697420696e20326044820152663234206269747360c81b6064820152608490fd5b91906000198184098184029182808310920391808303921461709a57633b9aca00908183101561707c577f88f2cfb83100cb4e69e7c79c58b316e597157d372fb9787e8e47ce423a2e9c6d94950990828211900360f71b910360091c170290565b6044838360405191631dcf306360e21b835260048301526024820152fd5b5050633b9aca0090049150565b9091600019838309928083029283808610950394808603951461713f578285101561711f57908291096001821901821680920460028082600302188083028203028083028203028083028203028083028203028083028203028092029003029360018380600003040190848311900302920304170290565b604051631dcf306360e21b81526004810186905260248101849052604490fd5b505090610602925061374956fe290decd9548b62a8d60345a988386fc84ba6bc95484008f6362f93160ef3e5633134e8a2e6d97e929a7e54011ea5485d7d196dd5f0ba4d4ef95803e8e3fc257fa2646970667358221220e2c2d21b03fd1fbedbee7e8085532ee3f8da629012dee37573d61c5a92c9e56064736f6c63430008110033",
    "linkReferences": {}
  },
  "methodIdentifiers": {
    "TOTAL_REDEMPTION_WEIGHT()": "640abacd",
    "adjustTiers((uint80,uint48,uint40,uint16,uint16,address,uint8,address,bytes32,uint8,bool,bool,bool,bool)[],uint256[])": "25eb91ee",
    "approve(address,uint256)": "095ea7b3",
    "balanceOf(address)": "70a08231",
    "codeOrigin()": "1d153ca4",
    "contractURI()": "e8a3d485",
    "creditsOf(address)": "245a45b5",
    "didPay((address,uint256,uint256,(address,uint256,uint256,uint256),(address,uint256,uint256,uint256),uint256,address,bool,string,bytes))": "da9ee8b7",
    "didRedeem((address,uint256,uint256,uint256,(address,uint256,uint256,uint256),(address,uint256,uint256,uint256),address,string,bytes))": "2b13c58f",
    "directory()": "c41c2f24",
    "firstOwnerOf(uint256)": "54c6d1f5",
    "fundingCycleStore()": "557e7155",
    "getApproved(uint256)": "081812fc",
    "getPastTierTotalVotes(uint256,uint256)": "d31cc52c",
    "getPastTierVotes(address,uint256,uint256)": "d40e7146",
    "getTierDelegate(address,uint256)": "82732b6d",
    "getTierTotalVotes(uint256)": "94c5c5ca",
    "getTierVotes(address,uint256)": "ca323efe",
    "initialize(uint256,address,string,string,address,string,address,string,((uint80,uint48,uint40,uint16,uint16,address,uint8,address,bytes32,uint8,bool,bool,bool,bool)[],uint256,uint256,address),address,(bool,bool,bool,bool))": "d1704baf",
    "initialize(uint256,address,string,string,address,string,address,string,((uint80,uint48,uint40,uint16,uint16,address,uint8,address,bytes32,uint8,bool,bool,bool,bool)[],uint256,uint256,address),address,(bool,bool,bool,bool),string[])": "aae83226",
    "isApprovedForAll(address,address)": "e985e9c5",
    "mintFor((uint16[],address)[])": "36c1a93b",
    "mintFor(uint16[],address)": "6ac6d941",
    "mintReservesFor((uint256,uint256)[])": "2a596e53",
    "mintReservesFor(uint256,uint256)": "aa4fb15b",
    "name()": "06fdde03",
    "owner()": "8da5cb5b",
    "ownerOf(uint256)": "6352211e",
    "payParams((address,address,(address,uint256,uint256,uint256),uint256,uint256,address,uint256,uint256,string,bytes))": "d46cf171",
    "prices()": "d3419bf3",
    "pricingCurrency()": "64640c1e",
    "pricingDecimals()": "4ecba625",
    "projectId()": "3fafa127",
    "redeemParams((address,address,uint256,uint256,uint256,uint256,uint256,(address,uint256,uint256,uint256),bool,uint256,string,bytes))": "a51cfd18",
    "redemptionWeightOf(uint256[],(address,address,uint256,uint256,uint256,uint256,uint256,(address,uint256,uint256,uint256),bool,uint256,string,bytes))": "7ba62bf9",
    "renounceOwnership()": "715018a6",
    "royaltyInfo(uint256,uint256)": "2a55205a",
    "safeTransferFrom(address,address,uint256)": "42842e0e",
    "safeTransferFrom(address,address,uint256,bytes)": "b88d4fde",
    "setApprovalForAll(address,bool)": "a22cb465",
    "setBaseUri(string)": "a0bcfc7f",
    "setContractUri(string)": "ccb4807b",
    "setDefaultReservedTokenBeneficiary(address)": "df487e26",
    "setEncodedIPFSUriOf(uint256,bytes32)": "525350ba",
    "setTierDelegate(address,uint256)": "ab951e39",
    "setTierDelegates((address,uint256)[])": "c74b13d9",
    "setTierRedemptionWeights((uint256,uint256)[])": "2f441500",
    "setTokenUriResolver(address)": "2407497e",
    "store()": "975057e7",
    "supportsInterface(bytes4)": "01ffc9a7",
    "symbol()": "95d89b41",
    "tierRedemptionWeights()": "9df45468",
    "tokenURI(uint256)": "c87b56dd",
    "totalRedemptionWeight((address,address,uint256,uint256,uint256,uint256,uint256,(address,uint256,uint256,uint256),bool,uint256,string,bytes))": "9494bf72",
    "transferFrom(address,address,uint256)": "23b872dd",
    "transferOwnership(address)": "f2fde38b"
  },
  "id": 0
}