{
  "abi": [
    {
      "inputs": [],
      "name": "ALEADY_MINTED",
      "type": "error"
    },
    {
      "inputs": [],
      "name": "APPROVAL_TO_CURRENT_OWNER",
      "type": "error"
    },
    {
      "inputs": [],
      "name": "APPROVE_TO_CALLER",
      "type": "error"
    },
    {
      "inputs": [],
      "name": "BLOCK_NOT_YET_MINED",
      "type": "error"
    },
    {
      "inputs": [],
      "name": "CALLER_NOT_OWNER_OR_APPROVED",
      "type": "error"
    },
    {
      "inputs": [],
      "name": "DELEGATE_ADDRESS_ZERO",
      "type": "error"
    },
    {
      "inputs": [],
      "name": "GAME_ISNT_OVER_YET",
      "type": "error"
    },
    {
      "inputs": [],
      "name": "INCORRECT_OWNER",
      "type": "error"
    },
    {
      "inputs": [],
      "name": "INVALID_PAYMENT_EVENT",
      "type": "error"
    },
    {
      "inputs": [],
      "name": "INVALID_REDEMPTION_EVENT",
      "type": "error"
    },
    {
      "inputs": [],
      "name": "INVALID_REDEMPTION_METADATA",
      "type": "error"
    },
    {
      "inputs": [],
      "name": "INVALID_REDEMPTION_WEIGHTS",
      "type": "error"
    },
    {
      "inputs": [],
      "name": "INVALID_TIER_ID",
      "type": "error"
    },
    {
      "inputs": [],
      "name": "INVALID_TOKEN_ID",
      "type": "error"
    },
    {
      "inputs": [],
      "name": "MINT_TO_ZERO",
      "type": "error"
    },
    {
      "inputs": [],
      "name": "NOTHING_TO_CLAIM",
      "type": "error"
    },
    {
      "inputs": [],
      "name": "NOT_AVAILABLE",
      "type": "error"
    },
    {
      "inputs": [],
      "name": "OVERSPENDING",
      "type": "error"
    },
    {
      "inputs": [
        {
          "internalType": "uint256",
          "name": "prod1",
          "type": "uint256"
        },
        {
          "internalType": "uint256",
          "name": "denominator",
          "type": "uint256"
        }
      ],
      "name": "PRBMath__MulDivOverflow",
      "type": "error"
    },
    {
      "inputs": [],
      "name": "PRICING_RESOLVER_CHANGES_PAUSED",
      "type": "error"
    },
    {
      "inputs": [],
      "name": "RESERVED_TOKEN_MINTING_PAUSED",
      "type": "error"
    },
    {
      "inputs": [],
      "name": "TRANSFERS_PAUSED",
      "type": "error"
    },
    {
      "inputs": [],
      "name": "TRANSFER_TO_NON_IMPLEMENTER",
      "type": "error"
    },
    {
      "inputs": [],
      "name": "TRANSFER_TO_ZERO_ADDRESS",
      "type": "error"
    },
    {
      "inputs": [],
      "name": "UNAUTHORIZED",
      "type": "error"
    },
    {
      "inputs": [],
      "name": "UNEXPECTED_TOKEN_REDEEMED",
      "type": "error"
    },
    {
      "anonymous": false,
      "inputs": [
        {
          "indexed": true,
          "internalType": "uint256",
          "name": "changeAmount",
          "type": "uint256"
        },
        {
          "indexed": true,
          "internalType": "uint256",
          "name": "newTotalCredits",
          "type": "uint256"
        },
        {
          "indexed": true,
          "internalType": "address",
          "name": "account",
          "type": "address"
        },
        {
          "indexed": false,
          "internalType": "address",
          "name": "caller",
          "type": "address"
        }
      ],
      "name": "AddCredits",
      "type": "event"
    },
    {
      "anonymous": false,
      "inputs": [
        {
          "indexed": true,
          "internalType": "uint256",
          "name": "tierId",
          "type": "uint256"
        },
        {
          "components": [
            {
              "internalType": "uint80",
              "name": "contributionFloor",
              "type": "uint80"
            },
            {
              "internalType": "uint48",
              "name": "lockedUntil",
              "type": "uint48"
            },
            {
              "internalType": "uint40",
              "name": "initialQuantity",
              "type": "uint40"
            },
            {
              "internalType": "uint16",
              "name": "votingUnits",
              "type": "uint16"
            },
            {
              "internalType": "uint16",
              "name": "reservedRate",
              "type": "uint16"
            },
            {
              "internalType": "address",
              "name": "reservedTokenBeneficiary",
              "type": "address"
            },
            {
              "internalType": "uint8",
              "name": "royaltyRate",
              "type": "uint8"
            },
            {
              "internalType": "address",
              "name": "royaltyBeneficiary",
              "type": "address"
            },
            {
              "internalType": "bytes32",
              "name": "encodedIPFSUri",
              "type": "bytes32"
            },
            {
              "internalType": "uint8",
              "name": "category",
              "type": "uint8"
            },
            {
              "internalType": "bool",
              "name": "allowManualMint",
              "type": "bool"
            },
            {
              "internalType": "bool",
              "name": "shouldUseReservedTokenBeneficiaryAsDefault",
              "type": "bool"
            },
            {
              "internalType": "bool",
              "name": "shouldUseRoyaltyBeneficiaryAsDefault",
              "type": "bool"
            },
            {
              "internalType": "bool",
              "name": "transfersPausable",
              "type": "bool"
            }
          ],
          "indexed": false,
          "internalType": "struct JB721TierParams",
          "name": "data",
          "type": "tuple"
        },
        {
          "indexed": false,
          "internalType": "address",
          "name": "caller",
          "type": "address"
        }
      ],
      "name": "AddTier",
      "type": "event"
    },
    {
      "anonymous": false,
      "inputs": [
        {
          "indexed": true,
          "internalType": "address",
          "name": "owner",
          "type": "address"
        },
        {
          "indexed": true,
          "internalType": "address",
          "name": "approved",
          "type": "address"
        },
        {
          "indexed": true,
          "internalType": "uint256",
          "name": "tokenId",
          "type": "uint256"
        }
      ],
      "name": "Approval",
      "type": "event"
    },
    {
      "anonymous": false,
      "inputs": [
        {
          "indexed": true,
          "internalType": "address",
          "name": "owner",
          "type": "address"
        },
        {
          "indexed": true,
          "internalType": "address",
          "name": "operator",
          "type": "address"
        },
        {
          "indexed": false,
          "internalType": "bool",
          "name": "approved",
          "type": "bool"
        }
      ],
      "name": "ApprovalForAll",
      "type": "event"
    },
    {
      "anonymous": false,
      "inputs": [
        {
          "indexed": true,
          "internalType": "address",
          "name": "delegator",
          "type": "address"
        },
        {
          "indexed": true,
          "internalType": "address",
          "name": "fromDelegate",
          "type": "address"
        },
        {
          "indexed": true,
          "internalType": "address",
          "name": "toDelegate",
          "type": "address"
        }
      ],
      "name": "DelegateChanged",
      "type": "event"
    },
    {
      "anonymous": false,
      "inputs": [
        {
          "indexed": true,
          "internalType": "uint256",
          "name": "tokenId",
          "type": "uint256"
        },
        {
          "indexed": true,
          "internalType": "uint256",
          "name": "tierId",
          "type": "uint256"
        },
        {
          "indexed": true,
          "internalType": "address",
          "name": "beneficiary",
          "type": "address"
        },
        {
          "indexed": false,
          "internalType": "uint256",
          "name": "totalAmountContributed",
          "type": "uint256"
        },
        {
          "indexed": false,
          "internalType": "address",
          "name": "caller",
          "type": "address"
        }
      ],
      "name": "Mint",
      "type": "event"
    },
    {
      "anonymous": false,
      "inputs": [
        {
          "indexed": true,
          "internalType": "uint256",
          "name": "tokenId",
          "type": "uint256"
        },
        {
          "indexed": true,
          "internalType": "uint256",
          "name": "tierId",
          "type": "uint256"
        },
        {
          "indexed": true,
          "internalType": "address",
          "name": "beneficiary",
          "type": "address"
        },
        {
          "indexed": false,
          "internalType": "address",
          "name": "caller",
          "type": "address"
        }
      ],
      "name": "MintReservedToken",
      "type": "event"
    },
    {
      "anonymous": false,
      "inputs": [
        {
          "indexed": true,
          "internalType": "address",
          "name": "previousOwner",
          "type": "address"
        },
        {
          "indexed": true,
          "internalType": "address",
          "name": "newOwner",
          "type": "address"
        }
      ],
      "name": "OwnershipTransferred",
      "type": "event"
    },
    {
      "anonymous": false,
      "inputs": [
        {
          "indexed": true,
          "internalType": "uint256",
          "name": "tierId",
          "type": "uint256"
        },
        {
          "indexed": false,
          "internalType": "address",
          "name": "caller",
          "type": "address"
        }
      ],
      "name": "RemoveTier",
      "type": "event"
    },
    {
      "anonymous": false,
      "inputs": [
        {
          "indexed": true,
          "internalType": "string",
          "name": "baseUri",
          "type": "string"
        },
        {
          "indexed": false,
          "internalType": "address",
          "name": "caller",
          "type": "address"
        }
      ],
      "name": "SetBaseUri",
      "type": "event"
    },
    {
      "anonymous": false,
      "inputs": [
        {
          "indexed": true,
          "internalType": "string",
          "name": "contractUri",
          "type": "string"
        },
        {
          "indexed": false,
          "internalType": "address",
          "name": "caller",
          "type": "address"
        }
      ],
      "name": "SetContractUri",
      "type": "event"
    },
    {
      "anonymous": false,
      "inputs": [
        {
          "indexed": true,
          "internalType": "address",
          "name": "beneficiary",
          "type": "address"
        },
        {
          "indexed": false,
          "internalType": "address",
          "name": "caller",
          "type": "address"
        }
      ],
      "name": "SetDefaultReservedTokenBeneficiary",
      "type": "event"
    },
    {
      "anonymous": false,
      "inputs": [
        {
          "indexed": true,
          "internalType": "uint256",
          "name": "tierId",
          "type": "uint256"
        },
        {
          "indexed": false,
          "internalType": "bytes32",
          "name": "encodedIPFSUri",
          "type": "bytes32"
        },
        {
          "indexed": false,
          "internalType": "address",
          "name": "caller",
          "type": "address"
        }
      ],
      "name": "SetEncodedIPFSUri",
      "type": "event"
    },
    {
      "anonymous": false,
      "inputs": [
        {
          "indexed": true,
          "internalType": "contract IJBTokenUriResolver",
          "name": "newResolver",
          "type": "address"
        },
        {
          "indexed": false,
          "internalType": "address",
          "name": "caller",
          "type": "address"
        }
      ],
      "name": "SetTokenUriResolver",
      "type": "event"
    },
    {
      "anonymous": false,
      "inputs": [
        {
          "indexed": true,
          "internalType": "address",
          "name": "delegator",
          "type": "address"
        },
        {
          "indexed": true,
          "internalType": "address",
          "name": "fromDelegate",
          "type": "address"
        },
        {
          "indexed": true,
          "internalType": "address",
          "name": "toDelegate",
          "type": "address"
        },
        {
          "indexed": false,
          "internalType": "uint256",
          "name": "tierId",
          "type": "uint256"
        },
        {
          "indexed": false,
          "internalType": "address",
          "name": "caller",
          "type": "address"
        }
      ],
      "name": "TierDelegateChanged",
      "type": "event"
    },
    {
      "anonymous": false,
      "inputs": [
        {
          "indexed": true,
          "internalType": "address",
          "name": "delegate",
          "type": "address"
        },
        {
          "indexed": true,
          "internalType": "uint256",
          "name": "tierId",
          "type": "uint256"
        },
        {
          "indexed": false,
          "internalType": "uint256",
          "name": "previousBalance",
          "type": "uint256"
        },
        {
          "indexed": false,
          "internalType": "uint256",
          "name": "newBalance",
          "type": "uint256"
        },
        {
          "indexed": false,
          "internalType": "address",
          "name": "caller",
          "type": "address"
        }
      ],
      "name": "TierDelegateVotesChanged",
      "type": "event"
    },
    {
      "anonymous": false,
      "inputs": [
        {
          "indexed": true,
          "internalType": "address",
          "name": "from",
          "type": "address"
        },
        {
          "indexed": true,
          "internalType": "address",
          "name": "to",
          "type": "address"
        },
        {
          "indexed": true,
          "internalType": "uint256",
          "name": "tokenId",
          "type": "uint256"
        }
      ],
      "name": "Transfer",
      "type": "event"
    },
    {
      "anonymous": false,
      "inputs": [
        {
          "indexed": true,
          "internalType": "uint256",
          "name": "changeAmount",
          "type": "uint256"
        },
        {
          "indexed": true,
          "internalType": "uint256",
          "name": "newTotalCredits",
          "type": "uint256"
        },
        {
          "indexed": true,
          "internalType": "address",
          "name": "account",
          "type": "address"
        },
        {
          "indexed": false,
          "internalType": "address",
          "name": "caller",
          "type": "address"
        }
      ],
      "name": "UseCredits",
      "type": "event"
    },
    {
      "inputs": [],
      "name": "BUFFER_SIZE",
      "outputs": [
        {
          "internalType": "uint256",
          "name": "",
          "type": "uint256"
        }
      ],
      "stateMutability": "view",
      "type": "function"
    },
    {
      "inputs": [],
      "name": "TOTAL_REDEMPTION_WEIGHT",
      "outputs": [
        {
          "internalType": "uint256",
          "name": "",
          "type": "uint256"
        }
      ],
      "stateMutability": "view",
      "type": "function"
    },
    {
      "inputs": [
        {
          "components": [
            {
              "internalType": "uint80",
              "name": "contributionFloor",
              "type": "uint80"
            },
            {
              "internalType": "uint48",
              "name": "lockedUntil",
              "type": "uint48"
            },
            {
              "internalType": "uint40",
              "name": "initialQuantity",
              "type": "uint40"
            },
            {
              "internalType": "uint16",
              "name": "votingUnits",
              "type": "uint16"
            },
            {
              "internalType": "uint16",
              "name": "reservedRate",
              "type": "uint16"
            },
            {
              "internalType": "address",
              "name": "reservedTokenBeneficiary",
              "type": "address"
            },
            {
              "internalType": "uint8",
              "name": "royaltyRate",
              "type": "uint8"
            },
            {
              "internalType": "address",
              "name": "royaltyBeneficiary",
              "type": "address"
            },
            {
              "internalType": "bytes32",
              "name": "encodedIPFSUri",
              "type": "bytes32"
            },
            {
              "internalType": "uint8",
              "name": "category",
              "type": "uint8"
            },
            {
              "internalType": "bool",
              "name": "allowManualMint",
              "type": "bool"
            },
            {
              "internalType": "bool",
              "name": "shouldUseReservedTokenBeneficiaryAsDefault",
              "type": "bool"
            },
            {
              "internalType": "bool",
              "name": "shouldUseRoyaltyBeneficiaryAsDefault",
              "type": "bool"
            },
            {
              "internalType": "bool",
              "name": "transfersPausable",
              "type": "bool"
            }
          ],
          "internalType": "struct JB721TierParams[]",
          "name": "_tiersToAdd",
          "type": "tuple[]"
        },
        {
          "internalType": "uint256[]",
          "name": "_tierIdsToRemove",
          "type": "uint256[]"
        }
      ],
      "name": "adjustTiers",
      "outputs": [],
      "stateMutability": "nonpayable",
      "type": "function"
    },
    {
      "inputs": [
        {
          "internalType": "address",
          "name": "to",
          "type": "address"
        },
        {
          "internalType": "uint256",
          "name": "tokenId",
          "type": "uint256"
        }
      ],
      "name": "approve",
      "outputs": [],
      "stateMutability": "nonpayable",
      "type": "function"
    },
    {
      "inputs": [
        {
          "internalType": "address",
          "name": "_owner",
          "type": "address"
        }
      ],
      "name": "balanceOf",
      "outputs": [
        {
          "internalType": "uint256",
          "name": "balance",
          "type": "uint256"
        }
      ],
      "stateMutability": "view",
      "type": "function"
    },
    {
      "inputs": [],
      "name": "codeOrigin",
      "outputs": [
        {
          "internalType": "address",
          "name": "",
          "type": "address"
        }
      ],
      "stateMutability": "view",
      "type": "function"
    },
    {
      "inputs": [],
      "name": "contractURI",
      "outputs": [
        {
          "internalType": "string",
          "name": "",
          "type": "string"
        }
      ],
      "stateMutability": "view",
      "type": "function"
    },
    {
      "inputs": [
        {
          "internalType": "address",
          "name": "",
          "type": "address"
        }
      ],
      "name": "creditsOf",
      "outputs": [
        {
          "internalType": "uint256",
          "name": "",
          "type": "uint256"
        }
      ],
      "stateMutability": "view",
      "type": "function"
    },
    {
      "inputs": [
        {
          "components": [
            {
              "internalType": "address",
              "name": "payer",
              "type": "address"
            },
            {
              "internalType": "uint256",
              "name": "projectId",
              "type": "uint256"
            },
            {
              "internalType": "uint256",
              "name": "currentFundingCycleConfiguration",
              "type": "uint256"
            },
            {
              "components": [
                {
                  "internalType": "address",
                  "name": "token",
                  "type": "address"
                },
                {
                  "internalType": "uint256",
                  "name": "value",
                  "type": "uint256"
                },
                {
                  "internalType": "uint256",
                  "name": "decimals",
                  "type": "uint256"
                },
                {
                  "internalType": "uint256",
                  "name": "currency",
                  "type": "uint256"
                }
              ],
              "internalType": "struct JBTokenAmount",
              "name": "amount",
              "type": "tuple"
            },
            {
              "components": [
                {
                  "internalType": "address",
                  "name": "token",
                  "type": "address"
                },
                {
                  "internalType": "uint256",
                  "name": "value",
                  "type": "uint256"
                },
                {
                  "internalType": "uint256",
                  "name": "decimals",
                  "type": "uint256"
                },
                {
                  "internalType": "uint256",
                  "name": "currency",
                  "type": "uint256"
                }
              ],
              "internalType": "struct JBTokenAmount",
              "name": "forwardedAmount",
              "type": "tuple"
            },
            {
              "internalType": "uint256",
              "name": "projectTokenCount",
              "type": "uint256"
            },
            {
              "internalType": "address",
              "name": "beneficiary",
              "type": "address"
            },
            {
              "internalType": "bool",
              "name": "preferClaimedTokens",
              "type": "bool"
            },
            {
              "internalType": "string",
              "name": "memo",
              "type": "string"
            },
            {
              "internalType": "bytes",
              "name": "metadata",
              "type": "bytes"
            }
          ],
          "internalType": "struct JBDidPayData",
          "name": "_data",
          "type": "tuple"
        }
      ],
      "name": "didPay",
      "outputs": [],
      "stateMutability": "payable",
      "type": "function"
    },
    {
      "inputs": [
        {
          "components": [
            {
              "internalType": "address",
              "name": "holder",
              "type": "address"
            },
            {
              "internalType": "uint256",
              "name": "projectId",
              "type": "uint256"
            },
            {
              "internalType": "uint256",
              "name": "currentFundingCycleConfiguration",
              "type": "uint256"
            },
            {
              "internalType": "uint256",
              "name": "projectTokenCount",
              "type": "uint256"
            },
            {
              "components": [
                {
                  "internalType": "address",
                  "name": "token",
                  "type": "address"
                },
                {
                  "internalType": "uint256",
                  "name": "value",
                  "type": "uint256"
                },
                {
                  "internalType": "uint256",
                  "name": "decimals",
                  "type": "uint256"
                },
                {
                  "internalType": "uint256",
                  "name": "currency",
                  "type": "uint256"
                }
              ],
              "internalType": "struct JBTokenAmount",
              "name": "reclaimedAmount",
              "type": "tuple"
            },
            {
              "components": [
                {
                  "internalType": "address",
                  "name": "token",
                  "type": "address"
                },
                {
                  "internalType": "uint256",
                  "name": "value",
                  "type": "uint256"
                },
                {
                  "internalType": "uint256",
                  "name": "decimals",
                  "type": "uint256"
                },
                {
                  "internalType": "uint256",
                  "name": "currency",
                  "type": "uint256"
                }
              ],
              "internalType": "struct JBTokenAmount",
              "name": "forwardedAmount",
              "type": "tuple"
            },
            {
              "internalType": "address payable",
              "name": "beneficiary",
              "type": "address"
            },
            {
              "internalType": "string",
              "name": "memo",
              "type": "string"
            },
            {
              "internalType": "bytes",
              "name": "metadata",
              "type": "bytes"
            }
          ],
          "internalType": "struct JBDidRedeemData",
          "name": "_data",
          "type": "tuple"
        }
      ],
      "name": "didRedeem",
      "outputs": [],
      "stateMutability": "payable",
      "type": "function"
    },
    {
      "inputs": [],
      "name": "directory",
      "outputs": [
        {
          "internalType": "contract IJBDirectory",
          "name": "",
          "type": "address"
        }
      ],
      "stateMutability": "view",
      "type": "function"
    },
    {
      "inputs": [
        {
          "internalType": "uint256",
          "name": "_tokenId",
          "type": "uint256"
        }
      ],
      "name": "firstOwnerOf",
      "outputs": [
        {
          "internalType": "address",
          "name": "",
          "type": "address"
        }
      ],
      "stateMutability": "view",
      "type": "function"
    },
    {
      "inputs": [],
      "name": "fundingCycleStore",
      "outputs": [
        {
          "internalType": "contract IJBFundingCycleStore",
          "name": "",
          "type": "address"
        }
      ],
      "stateMutability": "view",
      "type": "function"
    },
    {
      "inputs": [
        {
          "internalType": "uint256",
          "name": "tokenId",
          "type": "uint256"
        }
      ],
      "name": "getApproved",
      "outputs": [
        {
          "internalType": "address",
          "name": "",
          "type": "address"
        }
      ],
      "stateMutability": "view",
      "type": "function"
    },
    {
      "inputs": [
        {
          "internalType": "uint256",
          "name": "_tier",
          "type": "uint256"
        },
        {
          "internalType": "uint256",
          "name": "_blockNumber",
          "type": "uint256"
        }
      ],
      "name": "getPastTierTotalVotes",
      "outputs": [
        {
          "internalType": "uint256",
          "name": "",
          "type": "uint256"
        }
      ],
      "stateMutability": "view",
      "type": "function"
    },
    {
      "inputs": [
        {
          "internalType": "address",
          "name": "_account",
          "type": "address"
        },
        {
          "internalType": "uint256",
          "name": "_tier",
          "type": "uint256"
        },
        {
          "internalType": "uint256",
          "name": "_blockNumber",
          "type": "uint256"
        }
      ],
      "name": "getPastTierVotes",
      "outputs": [
        {
          "internalType": "uint256",
          "name": "",
          "type": "uint256"
        }
      ],
      "stateMutability": "view",
      "type": "function"
    },
    {
      "inputs": [
        {
          "internalType": "address",
          "name": "_account",
          "type": "address"
        },
        {
          "internalType": "uint256",
          "name": "_tier",
          "type": "uint256"
        }
      ],
      "name": "getTierDelegate",
      "outputs": [
        {
          "internalType": "address",
          "name": "",
          "type": "address"
        }
      ],
      "stateMutability": "view",
      "type": "function"
    },
    {
      "inputs": [
        {
          "internalType": "uint256",
          "name": "_tier",
          "type": "uint256"
        }
      ],
      "name": "getTierTotalVotes",
      "outputs": [
        {
          "internalType": "uint256",
          "name": "",
          "type": "uint256"
        }
      ],
      "stateMutability": "view",
      "type": "function"
    },
    {
      "inputs": [
        {
          "internalType": "address",
          "name": "_account",
          "type": "address"
        },
        {
          "internalType": "uint256",
          "name": "_tier",
          "type": "uint256"
        }
      ],
      "name": "getTierVotes",
      "outputs": [
        {
          "internalType": "uint256",
          "name": "",
          "type": "uint256"
        }
      ],
      "stateMutability": "view",
      "type": "function"
    },
    {
      "inputs": [
        {
          "internalType": "uint256",
          "name": "_projectId",
          "type": "uint256"
        },
        {
          "internalType": "contract IJBDirectory",
          "name": "_directory",
          "type": "address"
        },
        {
          "internalType": "string",
          "name": "_name",
          "type": "string"
        },
        {
          "internalType": "string",
          "name": "_symbol",
          "type": "string"
        },
        {
          "internalType": "contract IJBFundingCycleStore",
          "name": "_fundingCycleStore",
          "type": "address"
        },
        {
          "internalType": "string",
          "name": "_baseUri",
          "type": "string"
        },
        {
          "internalType": "contract IJBTokenUriResolver",
          "name": "_tokenUriResolver",
          "type": "address"
        },
        {
          "internalType": "string",
          "name": "_contractUri",
          "type": "string"
        },
        {
          "components": [
            {
              "components": [
                {
                  "internalType": "uint80",
                  "name": "contributionFloor",
                  "type": "uint80"
                },
                {
                  "internalType": "uint48",
                  "name": "lockedUntil",
                  "type": "uint48"
                },
                {
                  "internalType": "uint40",
                  "name": "initialQuantity",
                  "type": "uint40"
                },
                {
                  "internalType": "uint16",
                  "name": "votingUnits",
                  "type": "uint16"
                },
                {
                  "internalType": "uint16",
                  "name": "reservedRate",
                  "type": "uint16"
                },
                {
                  "internalType": "address",
                  "name": "reservedTokenBeneficiary",
                  "type": "address"
                },
                {
                  "internalType": "uint8",
                  "name": "royaltyRate",
                  "type": "uint8"
                },
                {
                  "internalType": "address",
                  "name": "royaltyBeneficiary",
                  "type": "address"
                },
                {
                  "internalType": "bytes32",
                  "name": "encodedIPFSUri",
                  "type": "bytes32"
                },
                {
                  "internalType": "uint8",
                  "name": "category",
                  "type": "uint8"
                },
                {
                  "internalType": "bool",
                  "name": "allowManualMint",
                  "type": "bool"
                },
                {
                  "internalType": "bool",
                  "name": "shouldUseReservedTokenBeneficiaryAsDefault",
                  "type": "bool"
                },
                {
                  "internalType": "bool",
                  "name": "shouldUseRoyaltyBeneficiaryAsDefault",
                  "type": "bool"
                },
                {
                  "internalType": "bool",
                  "name": "transfersPausable",
                  "type": "bool"
                }
              ],
              "internalType": "struct JB721TierParams[]",
              "name": "tiers",
              "type": "tuple[]"
            },
            {
              "internalType": "uint256",
              "name": "currency",
              "type": "uint256"
            },
            {
              "internalType": "uint256",
              "name": "decimals",
              "type": "uint256"
            },
            {
              "internalType": "contract IJBPrices",
              "name": "prices",
              "type": "address"
            }
          ],
          "internalType": "struct JB721PricingParams",
          "name": "_pricing",
          "type": "tuple"
        },
        {
          "internalType": "contract IJBTiered721DelegateStore",
          "name": "_store",
          "type": "address"
        },
        {
          "components": [
            {
              "internalType": "bool",
              "name": "lockReservedTokenChanges",
              "type": "bool"
            },
            {
              "internalType": "bool",
              "name": "lockVotingUnitChanges",
              "type": "bool"
            },
            {
              "internalType": "bool",
              "name": "lockManualMintingChanges",
              "type": "bool"
            },
            {
              "internalType": "bool",
              "name": "preventOverspending",
              "type": "bool"
            }
          ],
          "internalType": "struct JBTiered721Flags",
          "name": "_flags",
          "type": "tuple"
        },
        {
          "internalType": "string[]",
          "name": "_tierNames",
          "type": "string[]"
        }
      ],
      "name": "initialize",
      "outputs": [],
      "stateMutability": "nonpayable",
      "type": "function"
    },
    {
      "inputs": [
        {
          "internalType": "uint256",
          "name": "_projectId",
          "type": "uint256"
        },
        {
          "internalType": "contract IJBDirectory",
          "name": "_directory",
          "type": "address"
        },
        {
          "internalType": "string",
          "name": "_name",
          "type": "string"
        },
        {
          "internalType": "string",
          "name": "_symbol",
          "type": "string"
        },
        {
          "internalType": "contract IJBFundingCycleStore",
          "name": "_fundingCycleStore",
          "type": "address"
        },
        {
          "internalType": "string",
          "name": "_baseUri",
          "type": "string"
        },
        {
          "internalType": "contract IJBTokenUriResolver",
          "name": "_tokenUriResolver",
          "type": "address"
        },
        {
          "internalType": "string",
          "name": "_contractUri",
          "type": "string"
        },
        {
          "components": [
            {
              "components": [
                {
                  "internalType": "uint80",
                  "name": "contributionFloor",
                  "type": "uint80"
                },
                {
                  "internalType": "uint48",
                  "name": "lockedUntil",
                  "type": "uint48"
                },
                {
                  "internalType": "uint40",
                  "name": "initialQuantity",
                  "type": "uint40"
                },
                {
                  "internalType": "uint16",
                  "name": "votingUnits",
                  "type": "uint16"
                },
                {
                  "internalType": "uint16",
                  "name": "reservedRate",
                  "type": "uint16"
                },
                {
                  "internalType": "address",
                  "name": "reservedTokenBeneficiary",
                  "type": "address"
                },
                {
                  "internalType": "uint8",
                  "name": "royaltyRate",
                  "type": "uint8"
                },
                {
                  "internalType": "address",
                  "name": "royaltyBeneficiary",
                  "type": "address"
                },
                {
                  "internalType": "bytes32",
                  "name": "encodedIPFSUri",
                  "type": "bytes32"
                },
                {
                  "internalType": "uint8",
                  "name": "category",
                  "type": "uint8"
                },
                {
                  "internalType": "bool",
                  "name": "allowManualMint",
                  "type": "bool"
                },
                {
                  "internalType": "bool",
                  "name": "shouldUseReservedTokenBeneficiaryAsDefault",
                  "type": "bool"
                },
                {
                  "internalType": "bool",
                  "name": "shouldUseRoyaltyBeneficiaryAsDefault",
                  "type": "bool"
                },
                {
                  "internalType": "bool",
                  "name": "transfersPausable",
                  "type": "bool"
                }
              ],
              "internalType": "struct JB721TierParams[]",
              "name": "tiers",
              "type": "tuple[]"
            },
            {
              "internalType": "uint256",
              "name": "currency",
              "type": "uint256"
            },
            {
              "internalType": "uint256",
              "name": "decimals",
              "type": "uint256"
            },
            {
              "internalType": "contract IJBPrices",
              "name": "prices",
              "type": "address"
            }
          ],
          "internalType": "struct JB721PricingParams",
          "name": "_pricing",
          "type": "tuple"
        },
        {
          "internalType": "contract IJBTiered721DelegateStore",
          "name": "_store",
          "type": "address"
        },
        {
          "components": [
            {
              "internalType": "bool",
              "name": "lockReservedTokenChanges",
              "type": "bool"
            },
            {
              "internalType": "bool",
              "name": "lockVotingUnitChanges",
              "type": "bool"
            },
            {
              "internalType": "bool",
              "name": "lockManualMintingChanges",
              "type": "bool"
            },
            {
              "internalType": "bool",
              "name": "preventOverspending",
              "type": "bool"
            }
          ],
          "internalType": "struct JBTiered721Flags",
          "name": "_flags",
          "type": "tuple"
        }
      ],
      "name": "initialize",
      "outputs": [],
      "stateMutability": "nonpayable",
      "type": "function"
    },
    {
      "inputs": [
        {
          "internalType": "address",
          "name": "owner",
          "type": "address"
        },
        {
          "internalType": "address",
          "name": "operator",
          "type": "address"
        }
      ],
      "name": "isApprovedForAll",
      "outputs": [
        {
          "internalType": "bool",
          "name": "",
          "type": "bool"
        }
      ],
      "stateMutability": "view",
      "type": "function"
    },
    {
      "inputs": [
        {
          "components": [
            {
              "internalType": "uint16[]",
              "name": "tierIds",
              "type": "uint16[]"
            },
            {
              "internalType": "address",
              "name": "beneficiary",
              "type": "address"
            }
          ],
          "internalType": "struct JBTiered721MintForTiersData[]",
          "name": "_mintForTiersData",
          "type": "tuple[]"
        }
      ],
      "name": "mintFor",
      "outputs": [],
      "stateMutability": "nonpayable",
      "type": "function"
    },
    {
      "inputs": [
        {
          "internalType": "uint16[]",
          "name": "_tierIds",
          "type": "uint16[]"
        },
        {
          "internalType": "address",
          "name": "_beneficiary",
          "type": "address"
        }
      ],
      "name": "mintFor",
      "outputs": [
        {
          "internalType": "uint256[]",
          "name": "tokenIds",
          "type": "uint256[]"
        }
      ],
      "stateMutability": "nonpayable",
      "type": "function"
    },
    {
      "inputs": [
        {
          "components": [
            {
              "internalType": "uint256",
              "name": "tierId",
              "type": "uint256"
            },
            {
              "internalType": "uint256",
              "name": "count",
              "type": "uint256"
            }
          ],
          "internalType": "struct JBTiered721MintReservesForTiersData[]",
          "name": "_mintReservesForTiersData",
          "type": "tuple[]"
        }
      ],
      "name": "mintReservesFor",
      "outputs": [],
      "stateMutability": "nonpayable",
      "type": "function"
    },
    {
      "inputs": [
        {
          "internalType": "uint256",
          "name": "_tierId",
          "type": "uint256"
        },
        {
          "internalType": "uint256",
          "name": "_count",
          "type": "uint256"
        }
      ],
      "name": "mintReservesFor",
      "outputs": [],
      "stateMutability": "nonpayable",
      "type": "function"
    },
    {
      "inputs": [],
      "name": "name",
      "outputs": [
        {
          "internalType": "string",
          "name": "",
          "type": "string"
        }
      ],
      "stateMutability": "view",
      "type": "function"
    },
    {
      "inputs": [],
      "name": "owner",
      "outputs": [
        {
          "internalType": "address",
          "name": "",
          "type": "address"
        }
      ],
      "stateMutability": "view",
      "type": "function"
    },
    {
      "inputs": [
        {
          "internalType": "uint256",
          "name": "tokenId",
          "type": "uint256"
        }
      ],
      "name": "ownerOf",
      "outputs": [
        {
          "internalType": "address",
          "name": "",
          "type": "address"
        }
      ],
      "stateMutability": "view",
      "type": "function"
    },
    {
      "inputs": [
        {
          "components": [
            {
              "internalType": "contract IJBPaymentTerminal",
              "name": "terminal",
              "type": "address"
            },
            {
              "internalType": "address",
              "name": "payer",
              "type": "address"
            },
            {
              "components": [
                {
                  "internalType": "address",
                  "name": "token",
                  "type": "address"
                },
                {
                  "internalType": "uint256",
                  "name": "value",
                  "type": "uint256"
                },
                {
                  "internalType": "uint256",
                  "name": "decimals",
                  "type": "uint256"
                },
                {
                  "internalType": "uint256",
                  "name": "currency",
                  "type": "uint256"
                }
              ],
              "internalType": "struct JBTokenAmount",
              "name": "amount",
              "type": "tuple"
            },
            {
              "internalType": "uint256",
              "name": "projectId",
              "type": "uint256"
            },
            {
              "internalType": "uint256",
              "name": "currentFundingCycleConfiguration",
              "type": "uint256"
            },
            {
              "internalType": "address",
              "name": "beneficiary",
              "type": "address"
            },
            {
              "internalType": "uint256",
              "name": "weight",
              "type": "uint256"
            },
            {
              "internalType": "uint256",
              "name": "reservedRate",
              "type": "uint256"
            },
            {
              "internalType": "string",
              "name": "memo",
              "type": "string"
            },
            {
              "internalType": "bytes",
              "name": "metadata",
              "type": "bytes"
            }
          ],
          "internalType": "struct JBPayParamsData",
          "name": "_data",
          "type": "tuple"
        }
      ],
      "name": "payParams",
      "outputs": [
        {
          "internalType": "uint256",
          "name": "weight",
          "type": "uint256"
        },
        {
          "internalType": "string",
          "name": "memo",
          "type": "string"
        },
        {
          "components": [
            {
              "internalType": "contract IJBPayDelegate",
              "name": "delegate",
              "type": "address"
            },
            {
              "internalType": "uint256",
              "name": "amount",
              "type": "uint256"
            }
          ],
          "internalType": "struct JBPayDelegateAllocation[]",
          "name": "delegateAllocations",
          "type": "tuple[]"
        }
      ],
      "stateMutability": "view",
      "type": "function"
    },
    {
      "inputs": [],
      "name": "prices",
      "outputs": [
        {
          "internalType": "contract IJBPrices",
          "name": "",
          "type": "address"
        }
      ],
      "stateMutability": "view",
      "type": "function"
    },
    {
      "inputs": [],
      "name": "pricingCurrency",
      "outputs": [
        {
          "internalType": "uint256",
          "name": "",
          "type": "uint256"
        }
      ],
      "stateMutability": "view",
      "type": "function"
    },
    {
      "inputs": [],
      "name": "pricingDecimals",
      "outputs": [
        {
          "internalType": "uint256",
          "name": "",
          "type": "uint256"
        }
      ],
      "stateMutability": "view",
      "type": "function"
    },
    {
      "inputs": [],
      "name": "projectId",
      "outputs": [
        {
          "internalType": "uint256",
          "name": "",
          "type": "uint256"
        }
      ],
      "stateMutability": "view",
      "type": "function"
    },
    {
      "inputs": [
        {
          "components": [
            {
              "internalType": "contract IJBPaymentTerminal",
              "name": "terminal",
              "type": "address"
            },
            {
              "internalType": "address",
              "name": "holder",
              "type": "address"
            },
            {
              "internalType": "uint256",
              "name": "projectId",
              "type": "uint256"
            },
            {
              "internalType": "uint256",
              "name": "currentFundingCycleConfiguration",
              "type": "uint256"
            },
            {
              "internalType": "uint256",
              "name": "tokenCount",
              "type": "uint256"
            },
            {
              "internalType": "uint256",
              "name": "totalSupply",
              "type": "uint256"
            },
            {
              "internalType": "uint256",
              "name": "overflow",
              "type": "uint256"
            },
            {
              "components": [
                {
                  "internalType": "address",
                  "name": "token",
                  "type": "address"
                },
                {
                  "internalType": "uint256",
                  "name": "value",
                  "type": "uint256"
                },
                {
                  "internalType": "uint256",
                  "name": "decimals",
                  "type": "uint256"
                },
                {
                  "internalType": "uint256",
                  "name": "currency",
                  "type": "uint256"
                }
              ],
              "internalType": "struct JBTokenAmount",
              "name": "reclaimAmount",
              "type": "tuple"
            },
            {
              "internalType": "bool",
              "name": "useTotalOverflow",
              "type": "bool"
            },
            {
              "internalType": "uint256",
              "name": "redemptionRate",
              "type": "uint256"
            },
            {
              "internalType": "string",
              "name": "memo",
              "type": "string"
            },
            {
              "internalType": "bytes",
              "name": "metadata",
              "type": "bytes"
            }
          ],
          "internalType": "struct JBRedeemParamsData",
          "name": "_data",
          "type": "tuple"
        }
      ],
      "name": "redeemParams",
      "outputs": [
        {
          "internalType": "uint256",
          "name": "reclaimAmount",
          "type": "uint256"
        },
        {
          "internalType": "string",
          "name": "memo",
          "type": "string"
        },
        {
          "components": [
            {
              "internalType": "contract IJBRedemptionDelegate",
              "name": "delegate",
              "type": "address"
            },
            {
              "internalType": "uint256",
              "name": "amount",
              "type": "uint256"
            }
          ],
          "internalType": "struct JBRedemptionDelegateAllocation[]",
          "name": "delegateAllocations",
          "type": "tuple[]"
        }
      ],
      "stateMutability": "view",
      "type": "function"
    },
    {
      "inputs": [
        {
          "internalType": "uint256[]",
          "name": "_tokenIds",
          "type": "uint256[]"
        },
        {
          "components": [
            {
              "internalType": "contract IJBPaymentTerminal",
              "name": "terminal",
              "type": "address"
            },
            {
              "internalType": "address",
              "name": "holder",
              "type": "address"
            },
            {
              "internalType": "uint256",
              "name": "projectId",
              "type": "uint256"
            },
            {
              "internalType": "uint256",
              "name": "currentFundingCycleConfiguration",
              "type": "uint256"
            },
            {
              "internalType": "uint256",
              "name": "tokenCount",
              "type": "uint256"
            },
            {
              "internalType": "uint256",
              "name": "totalSupply",
              "type": "uint256"
            },
            {
              "internalType": "uint256",
              "name": "overflow",
              "type": "uint256"
            },
            {
              "components": [
                {
                  "internalType": "address",
                  "name": "token",
                  "type": "address"
                },
                {
                  "internalType": "uint256",
                  "name": "value",
                  "type": "uint256"
                },
                {
                  "internalType": "uint256",
                  "name": "decimals",
                  "type": "uint256"
                },
                {
                  "internalType": "uint256",
                  "name": "currency",
                  "type": "uint256"
                }
              ],
              "internalType": "struct JBTokenAmount",
              "name": "reclaimAmount",
              "type": "tuple"
            },
            {
              "internalType": "bool",
              "name": "useTotalOverflow",
              "type": "bool"
            },
            {
              "internalType": "uint256",
              "name": "redemptionRate",
              "type": "uint256"
            },
            {
              "internalType": "string",
              "name": "memo",
              "type": "string"
            },
            {
              "internalType": "bytes",
              "name": "metadata",
              "type": "bytes"
            }
          ],
          "internalType": "struct JBRedeemParamsData",
          "name": "",
          "type": "tuple"
        }
      ],
      "name": "redemptionWeightOf",
      "outputs": [
        {
          "internalType": "uint256",
          "name": "cumulativeWeight",
          "type": "uint256"
        }
      ],
      "stateMutability": "view",
      "type": "function"
    },
    {
      "inputs": [],
      "name": "renounceOwnership",
      "outputs": [],
      "stateMutability": "nonpayable",
      "type": "function"
    },
    {
      "inputs": [
        {
          "internalType": "uint256",
          "name": "_tokenId",
          "type": "uint256"
        },
        {
          "internalType": "uint256",
          "name": "_salePrice",
          "type": "uint256"
        }
      ],
      "name": "royaltyInfo",
      "outputs": [
        {
          "internalType": "address",
          "name": "",
          "type": "address"
        },
        {
          "internalType": "uint256",
          "name": "",
          "type": "uint256"
        }
      ],
      "stateMutability": "view",
      "type": "function"
    },
    {
      "inputs": [
        {
          "internalType": "address",
          "name": "from",
          "type": "address"
        },
        {
          "internalType": "address",
          "name": "to",
          "type": "address"
        },
        {
          "internalType": "uint256",
          "name": "tokenId",
          "type": "uint256"
        }
      ],
      "name": "safeTransferFrom",
      "outputs": [],
      "stateMutability": "nonpayable",
      "type": "function"
    },
    {
      "inputs": [
        {
          "internalType": "address",
          "name": "from",
          "type": "address"
        },
        {
          "internalType": "address",
          "name": "to",
          "type": "address"
        },
        {
          "internalType": "uint256",
          "name": "tokenId",
          "type": "uint256"
        },
        {
          "internalType": "bytes",
          "name": "data",
          "type": "bytes"
        }
      ],
      "name": "safeTransferFrom",
      "outputs": [],
      "stateMutability": "nonpayable",
      "type": "function"
    },
    {
      "inputs": [
        {
          "internalType": "address",
          "name": "operator",
          "type": "address"
        },
        {
          "internalType": "bool",
          "name": "approved",
          "type": "bool"
        }
      ],
      "name": "setApprovalForAll",
      "outputs": [],
      "stateMutability": "nonpayable",
      "type": "function"
    },
    {
      "inputs": [
        {
          "internalType": "string",
          "name": "_baseUri",
          "type": "string"
        }
      ],
      "name": "setBaseUri",
      "outputs": [],
      "stateMutability": "nonpayable",
      "type": "function"
    },
    {
      "inputs": [
        {
          "internalType": "string",
          "name": "_contractUri",
          "type": "string"
        }
      ],
      "name": "setContractUri",
      "outputs": [],
      "stateMutability": "nonpayable",
      "type": "function"
    },
    {
      "inputs": [
        {
          "internalType": "address",
          "name": "_beneficiary",
          "type": "address"
        }
      ],
      "name": "setDefaultReservedTokenBeneficiary",
      "outputs": [],
      "stateMutability": "nonpayable",
      "type": "function"
    },
    {
      "inputs": [
        {
          "internalType": "uint256",
          "name": "_tierId",
          "type": "uint256"
        },
        {
          "internalType": "bytes32",
          "name": "_encodedIPFSUri",
          "type": "bytes32"
        }
      ],
      "name": "setEncodedIPFSUriOf",
      "outputs": [],
      "stateMutability": "nonpayable",
      "type": "function"
    },
    {
      "inputs": [
        {
          "internalType": "address",
          "name": "_delegatee",
          "type": "address"
        },
        {
          "internalType": "uint256",
          "name": "_tierId",
          "type": "uint256"
        }
      ],
      "name": "setTierDelegate",
      "outputs": [],
      "stateMutability": "nonpayable",
      "type": "function"
    },
    {
      "inputs": [
        {
          "components": [
            {
              "internalType": "address",
              "name": "delegatee",
              "type": "address"
            },
            {
              "internalType": "uint256",
              "name": "tierId",
              "type": "uint256"
            }
          ],
          "internalType": "struct JBTiered721SetTierDelegatesData[]",
          "name": "_setTierDelegatesData",
          "type": "tuple[]"
        }
      ],
      "name": "setTierDelegates",
      "outputs": [],
      "stateMutability": "nonpayable",
      "type": "function"
    },
    {
      "inputs": [
        {
          "components": [
            {
              "internalType": "uint256",
              "name": "id",
              "type": "uint256"
            },
            {
              "internalType": "uint256",
              "name": "redemptionWeight",
              "type": "uint256"
            }
          ],
          "internalType": "struct DefifaTierRedemptionWeight[]",
          "name": "_tierWeights",
          "type": "tuple[]"
        }
      ],
      "name": "setTierRedemptionWeights",
      "outputs": [],
      "stateMutability": "nonpayable",
      "type": "function"
    },
    {
      "inputs": [
        {
          "internalType": "contract IJBTokenUriResolver",
          "name": "_tokenUriResolver",
          "type": "address"
        }
      ],
      "name": "setTokenUriResolver",
      "outputs": [],
      "stateMutability": "nonpayable",
      "type": "function"
    },
    {
      "inputs": [],
      "name": "store",
      "outputs": [
        {
          "internalType": "contract IJBTiered721DelegateStore",
          "name": "",
          "type": "address"
        }
      ],
      "stateMutability": "view",
      "type": "function"
    },
    {
      "inputs": [
        {
          "internalType": "bytes4",
          "name": "_interfaceId",
          "type": "bytes4"
        }
      ],
      "name": "supportsInterface",
      "outputs": [
        {
          "internalType": "bool",
          "name": "",
          "type": "bool"
        }
      ],
      "stateMutability": "view",
      "type": "function"
    },
    {
      "inputs": [],
      "name": "symbol",
      "outputs": [
        {
          "internalType": "string",
          "name": "",
          "type": "string"
        }
      ],
      "stateMutability": "view",
      "type": "function"
    },
    {
      "inputs": [],
      "name": "tierRedemptionWeights",
      "outputs": [
        {
          "internalType": "uint256[128]",
          "name": "",
          "type": "uint256[128]"
        }
      ],
      "stateMutability": "view",
      "type": "function"
    },
    {
      "inputs": [
        {
          "internalType": "uint256",
          "name": "_tokenId",
          "type": "uint256"
        }
      ],
      "name": "tokenURI",
      "outputs": [
        {
          "internalType": "string",
          "name": "",
          "type": "string"
        }
      ],
      "stateMutability": "view",
      "type": "function"
    },
    {
      "inputs": [
        {
          "components": [
            {
              "internalType": "contract IJBPaymentTerminal",
              "name": "terminal",
              "type": "address"
            },
            {
              "internalType": "address",
              "name": "holder",
              "type": "address"
            },
            {
              "internalType": "uint256",
              "name": "projectId",
              "type": "uint256"
            },
            {
              "internalType": "uint256",
              "name": "currentFundingCycleConfiguration",
              "type": "uint256"
            },
            {
              "internalType": "uint256",
              "name": "tokenCount",
              "type": "uint256"
            },
            {
              "internalType": "uint256",
              "name": "totalSupply",
              "type": "uint256"
            },
            {
              "internalType": "uint256",
              "name": "overflow",
              "type": "uint256"
            },
            {
              "components": [
                {
                  "internalType": "address",
                  "name": "token",
                  "type": "address"
                },
                {
                  "internalType": "uint256",
                  "name": "value",
                  "type": "uint256"
                },
                {
                  "internalType": "uint256",
                  "name": "decimals",
                  "type": "uint256"
                },
                {
                  "internalType": "uint256",
                  "name": "currency",
                  "type": "uint256"
                }
              ],
              "internalType": "struct JBTokenAmount",
              "name": "reclaimAmount",
              "type": "tuple"
            },
            {
              "internalType": "bool",
              "name": "useTotalOverflow",
              "type": "bool"
            },
            {
              "internalType": "uint256",
              "name": "redemptionRate",
              "type": "uint256"
            },
            {
              "internalType": "string",
              "name": "memo",
              "type": "string"
            },
            {
              "internalType": "bytes",
              "name": "metadata",
              "type": "bytes"
            }
          ],
          "internalType": "struct JBRedeemParamsData",
          "name": "",
          "type": "tuple"
        }
      ],
      "name": "totalRedemptionWeight",
      "outputs": [
        {
          "internalType": "uint256",
          "name": "",
          "type": "uint256"
        }
      ],
      "stateMutability": "view",
      "type": "function"
    },
    {
      "inputs": [
        {
          "internalType": "address",
          "name": "from",
          "type": "address"
        },
        {
          "internalType": "address",
          "name": "to",
          "type": "address"
        },
        {
          "internalType": "uint256",
          "name": "tokenId",
          "type": "uint256"
        }
      ],
      "name": "transferFrom",
      "outputs": [],
      "stateMutability": "nonpayable",
      "type": "function"
    },
    {
      "inputs": [
        {
          "internalType": "address",
          "name": "newOwner",
          "type": "address"
        }
      ],
      "name": "transferOwnership",
      "outputs": [],
      "stateMutability": "nonpayable",
      "type": "function"
    }
  ],
  "bytecode": {
    "object": "0x608080604052346100665760078054336001600160a01b03198083168217909355906001600160a01b03167f8be0079c531659141344cd1fd0a4f28419497f9722a3daafe3b4186f6b6457e0600080a33090600854161760085561794c90816200006c8239f35b600080fdfe6080604052600436101561001257600080fd5b60003560e01c80624e394e146103a657806301ffc9a7146103a157806306fdde031461039c578063081812fc14610397578063095ea7b3146103925780631d153ca41461038d57806323b872dd146103885780632407497e14610383578063245a45b51461037e57806325eb91ee146103795780632a55205a146103745780632a596e531461036f5780632b13c58f1461036a5780632f4415001461036557806336c1a93b146103605780633fafa1271461035b57806342842e0e146103565780634ecba62514610351578063525350ba1461034c57806354c6d1f514610347578063557e7155146103425780636352211e1461033d578063640abacd1461033857806364640c1e146103335780636ac6d9411461032e57806370a0823114610329578063715018a6146103245780637ba62bf91461031f57806382732b6d1461031a5780638da5cb5b146103155780639494bf721461031057806394c5c5ca1461030b57806395d89b4114610306578063975057e7146103015780639df45468146102fc578063a0bcfc7f146102f7578063a22cb465146102f2578063a51cfd18146102ed578063aa4fb15b146102e8578063aae83226146102e3578063ab951e39146102de578063b88d4fde146102d9578063c41c2f24146102d4578063c74b13d9146102cf578063c87b56dd146102ca578063ca323efe146102c5578063ccb4807b146102c0578063d1704baf146102bb578063d31cc52c146102b6578063d3419bf3146102b1578063d40e7146146102ac578063d46cf171146102a7578063da9ee8b7146102a2578063df487e261461029d578063e8a3d48514610298578063e985e9c5146102935763f2fde38b1461028e57600080fd5b613964565b6138fc565b613848565b613799565b6136b2565b6135f7565b61353d565b613514565b6134e6565b61341e565b613376565b61332c565b611ecb565b611e1a565b611df1565b611d8a565b611d60565b611c7f565b6118e0565b611856565b6117a7565b6116e6565b611618565b6115ef565b61154a565b61151f565b611502565b6114d9565b61148d565b61142f565b611373565b6112e1565b61128d565b611234565b611215565b6111f7565b6111ce565b6111b0565b6110f1565b6110d3565b6110ab565b61108d565b610fe2565b610f50565b610ad4565b610a17565b61096c565b6108fa565b61088d565b6107ad565b610779565b610724565b610683565b610635565b610556565b6103eb565b6103bb565b60009103126103b657565b600080fd5b346103b65760003660031901126103b6576020604051620f42408152f35b6001600160e01b03198116036103b657565b346103b65760203660031901126103b65761043960043561040b816103d9565b63ffffffff60e01b166306decc2d60e21b811490811561043d575b5060405190151581529081906020820190565b0390f35b63b3bcbb7960e01b8114915081156104e9575b81156104d8575b81156104c7575b81156104b6575b8115610473575b5038610426565b6380ac58cd60e01b8114915081156104a5575b8115610494575b503861046c565b6301ffc9a760e01b1490503861048d565b635b5e139f60e01b81149150610486565b63152a902d60e11b81149150610465565b632b13c58f60e01b8114915061045e565b63da9ee8b760e01b81149150610457565b6371700c6960e01b81149150610450565b60005b83811061050d5750506000910152565b81810151838201526020016104fd565b90602091610536815180928185528580860191016104fa565b601f01601f1916010190565b90602061055392818152019061051d565b90565b346103b65760008060031936011261063257604051908080546105788161421d565b8085529160019180831690811561060857506001146105ae575b610439856105a281870382610ea3565b60405191829182610542565b80809450527f290decd9548b62a8d60345a988386fc84ba6bc95484008f6362f93160ef3e5635b8284106105f05750505081016020016105a282610439610592565b805460208587018101919091529093019281016105d5565b869550610439969350602092506105a294915060ff191682840152151560051b8201019293610592565b80fd5b346103b65760203660031901126103b6576020610653600435615e6c565b6040516001600160a01b039091168152f35b6001600160a01b038116036103b657565b359061068182610665565b565b346103b65760403660031901126103b6576004356106a081610665565b6024356001600160a01b03806106b583615e39565b168091841614610712578033141590816106ec575b506106da576106d891616ac1565b005b60405163e5fa0e3560e01b8152600490fd5b600090815260046020908152604080832033845290915290205460ff16159050386106ca565b60405163133f8be960e01b8152600490fd5b346103b65760003660031901126103b6576008546040516001600160a01b039091168152602090f35b60609060031901126103b65760043561076581610665565b9060243561077281610665565b9060443590565b346103b6576107873661074d565b906107928233615ee3565b156106da576106d89261681c565b60c4359061068182610665565b346103b65760006020366003190112610632576004356107cc81610665565b6107d4617391565b6009546001600160a01b03908116803b156108895760405163036129cb60e61b81526001600160a01b03841660048201529084908290602490829084905af1801561088457610851575b506040513381529116907fe7784d93cfbfa4408e19577e6cc0436f4dbb51214b70e100905dfce9def88c1690602090a280f35b9261087d7fe7784d93cfbfa4408e19577e6cc0436f4dbb51214b70e100905dfce9def88c169294610e1e565b929061081e565b613bdf565b8380fd5b346103b65760203660031901126103b6576004356108aa81610665565b60018060a01b0316600052600e6020526020604060002054604051908152f35b9181601f840112156103b6578235916001600160401b0383116103b6576020808501948460051b0101116103b657565b346103b65760403660031901126103b6576004356001600160401b038082116103b657366023830112156103b6578160040135918183116103b6573660246101c08502830101116103b6576024359182116103b6576106d89261096360249336906004016108ca565b93909201615691565b346103b6576040806003193601126103b65760648160018060a01b03600954168151928380926329c5eaf560e11b8252306004830152600435602483015260243560448301525afa9182156108845760009182936109e2575b50516001600160a01b039190911681526020810191909152604090f35b81610a0892945061043993503d8511610a10575b610a008183610ea3565b8101906151d2565b9290916109c5565b503d6109f6565b346103b6576020806003193601126103b657600435906001600160401b03908183116103b657366023840112156103b65782600401359182116103b657602490600693368385871b830101116103b65760005b848110610a7357005b600190610a95610a893687848b1b870101610f28565b85815191015190615a77565b01610a6a565b90816101e09103126103b65790565b60206003198201126103b657600435906001600160401b0382116103b65761055391600401610a9b565b610add36610aaa565b3415801590610d76575b8015610d66575b610d54576101c081016024610b0382846139f5565b9050108015610d1c575b610d0a57610b1e610b2691836139f5565b810190613b26565b8051600a54909350909150610b4b906001600160a01b03165b6001600160a01b031690565b60055492604091825180916321d1336160e11b82526101209283918180610b7b60049b8c83019190602083019252565b03915afa908115610884578692600092610cdd575b505051149360005b828110610bc8578686610baa87615de6565b610bb057005b610bc360a06106d8920135609254613d0c565b609255565b610bd28186613b12565b5190610bf8610beb836000526002602052604060002090565b546001600160a01b031690565b610c04610b3f8a614c98565b6001600160a01b0390911603610ccd5786610c1e836165f9565b610c2d575b6001915001610b98565b600954610c6990610c46906001600160a01b0316610b3f565b92865180946342f9914b60e01b8252818060209586958a83019190602083019252565b03915afa801561088457600193610c9492600092610ca0575b50506000526093602052604060002090565b80546001019055610c23565b610cbf9250803d10610cc6575b610cb78183610ea3565b810190613f62565b3880610c82565b503d610cad565b845163075fd2b160e01b81528390fd5b610cfc9250803d10610d03575b610cf48183610ea3565b810190613b6b565b3880610b90565b503d610cea565b604051632a84050f60e01b8152600490fd5b50610d30610d2a82846139f5565b90613a27565b63b3bcbb7960e01b916001600160e01b031991610d4c91613a49565b161415610b0d565b604051633efca5c360e11b8152600490fd5b5060055460208201351415610aee565b50600654610dc090602090610d93906001600160a01b0316610b3f565b600554604051636e49181f60e01b8152600481019190915233602482015292839190829081906044820190565b03915afa90811561088457600091610dda575b5015610ae7565b610dfb915060203d8111610e01575b610df38183610ea3565b810190614c83565b38610dd3565b503d610de9565b634e487b7160e01b600052604160045260246000fd5b6001600160401b038111610e3157604052565b610e08565b604081019081106001600160401b03821117610e3157604052565b608081019081106001600160401b03821117610e3157604052565b602081019081106001600160401b03821117610e3157604052565b61100081019081106001600160401b03821117610e3157604052565b90601f801991011681019081106001600160401b03821117610e3157604052565b604051906101c082018281106001600160401b03821117610e3157604052565b6040519061068182610e36565b6040519061012082018281106001600160401b03821117610e3157604052565b6001600160401b038111610e315760051b60200190565b91908260409103126103b657604051610f4081610e36565b6020808294803584520135910152565b346103b6576020806003193601126103b657600435906001600160401b0382116103b657366023830112156103b657816004013591610f8e83610f11565b91604093610f9e85519485610ea3565b80845260248285019160061b840101923684116103b657602401905b838210610fca576106d885614aa4565b828691610fd73685610f28565b815201910190610fba565b346103b6576020806003193601126103b6576001600160401b03906004358281116103b6576110159036906004016108ca565b919061101f617391565b60005b83811061102b57005b60059080821b830135603e19843603018112156103b65783018035601e19823603018112156103b6578101928335938885116103b65786859101911b360381136103b657600193611080876110869401614c98565b91615c54565b5001611022565b346103b65760003660031901126103b6576020600554604051908152f35b346103b6576106d86110bc3661074d565b90604051926110ca84610e6c565b60008452615ea4565b346103b65760003660031901126103b6576020600d54604051908152f35b346103b65760403660031901126103b657600435602435611110617391565b6009546001600160a01b031690813b156103b657600080926044604051809581936324de8d6360e11b83528860048401528660248401525af1908115610884577f677da4fed654db8e604791fa2582f342e2001aa217e27f6985eb3e0f67e5a7fc9261119292611197575b506040805191825233602083015290918291820190565b0390a2005b806111a46111aa92610e1e565b806103ab565b3861117b565b346103b65760203660031901126103b6576020610653600435615138565b346103b65760003660031901126103b657600a546040516001600160a01b039091168152602090f35b346103b65760203660031901126103b6576020610653600435615e39565b346103b65760003660031901126103b6576020604051633b9aca008152f35b346103b65760003660031901126103b6576020600c54604051908152f35b6020908160408183019282815285518094520193019160005b828110611279575050505090565b83518552938101939281019260010161126b565b346103b65760403660031901126103b6576004356001600160401b0381116103b6576112d56112c36104399236906004016108ca565b602435916112d083610665565b615c54565b60405191829182611252565b346103b65760203660031901126103b6576004356112fe81610665565b600954604051633de222bb60e21b81523060048201526001600160a01b0392831660248201529160209183916044918391165afa80156108845761043991600091611355575b506040519081529081906020820190565b61136d915060203d8111610cc657610cb78183610ea3565b38611344565b346103b6576000806003193601126106325761138d617391565b600780546001600160a01b0319811690915581906001600160a01b03167f8be0079c531659141344cd1fd0a4f28419497f9722a3daafe3b4186f6b6457e08280a380f35b81601f820112156103b6578035916113e883610f11565b926113f66040519485610ea3565b808452602092838086019260051b8201019283116103b6578301905b828210611420575050505090565b81358152908301908301611412565b346103b65760403660031901126103b6576001600160401b036004358181116103b6576114609036906004016113d1565b906024359081116103b65760209161147f611485923690600401610a9b565b50613fbf565b604051908152f35b346103b65760403660031901126103b65760206004356114ac81610665565b60018060a01b03809116600052600f82526040600020602435600052825260406000205416604051908152f35b346103b65760003660031901126103b6576007546040516001600160a01b039091168152602090f35b346103b65761151036610aaa565b506020604051633b9aca008152f35b346103b65760203660031901126103b65760043560005260116020526020611485604060002061744a565b346103b657600080600319360112610632576040519080600180549161156f8361421d565b80865292828116908115610608575060011461159557610439856105a281870382610ea3565b92508083527fb10e2d527612073b26eecdfd717e6a320cf44b4afac2b0732d9fcbe2b7fa0cf65b8284106115d75750505081016020016105a282610439610592565b805460208587018101919091529093019281016115bc565b346103b65760003660031901126103b6576009546040516001600160a01b039091168152602090f35b346103b65760003660031901126103b65760405161163581610e87565b611000809136903760405160126000825b608082106116875750505061165a81610e87565b60405190600090825b6080831061167057505050f35b600190825181526020809101920192019190611663565b6001602081928554815201930191019091611646565b9060206003198301126103b6576004356001600160401b03928382116103b657806023830112156103b65781600401359384116103b657602484830101116103b6576024019190565b346103b6576116f43661169d565b6116fc617391565b600954600091906001600160a01b0316803b1561178e578260405180926331315e5960e11b8252818381611734888b60048401615a3a565b03925af180156108845761177b575b5061174e9192615a62565b7f7bc9110d5de090dd59e07912d2b93a5a27ac70a60c8d8e324db4f9ee8b8b5c136020604051338152a280f35b9161178861174e93610e1e565b91611743565b8280fd5b801515036103b657565b359061068182611792565b346103b65760403660031901126103b6576004356117c481610665565b6024356117d081611792565b6001600160a01b03821691338314611844573360009081526004602090815260408083206001600160a01b039094168352929052209015159060ff1981541660ff83161790556040519081527f17307eab39ab6107e8899845ad3d59bd9653f200f220920489ca2b5937696c3160203392a3005b6040516306f8139d60e11b8152600490fd5b346103b65761186c61186736610aaa565b613d19565b60409291928051938493845261188e602091606083870152606086019061051d565b90848203838601528080855193848152019401926000905b8382106118b35786860387f35b845180516001600160a01b03168752830151868401528796509485019493820193600191909101906118a6565b346103b65760403660031901126103b6576106d8602435600435615a77565b6024359061068182610665565b6001600160401b038111610e3157601f01601f191660200190565b9291926119338261190c565b916119416040519384610ea3565b8294818452818301116103b6578281602093846000960137010152565b9080601f830112156103b65781602061055393359101611927565b6084359061068182610665565b359069ffffffffffffffffffff821682036103b657565b359065ffffffffffff821682036103b657565b359064ffffffffff821682036103b657565b61ffff8116036103b657565b3590610681826119c2565b359060ff821682036103b657565b91909160809081818503126103b6576040805192611a0484610e51565b839583356001600160401b0381116103b657840181601f820112156103b657803590611a2f82610f11565b92611a3c86519485610ea3565b82845260209485850191866101c0809602850101938185116103b6578701925b848410611a8f5750505092875250505080830135908401528082013590830152606090611a8a908201610676565b910152565b85848303126103b657878691611aa3610ec4565b611aac87611986565b8152611ab983880161199d565b83820152611ac88c88016119b0565b8c8201526060611ad98189016119ce565b90820152611ae88688016119ce565b8682015260a0611af9818901610676565b9082015260c0611b0a8189016119d9565b9082015260e0611b1b818901610676565b908201526101008088013590820152610120611b388189016119d9565b90820152610140611b4a81890161179c565b90820152610160611b5c81890161179c565b90820152610180611b6e81890161179c565b908201526101a0611b8081890161179c565b90820152815201930192611a5c565b610124359061068182610665565b6080906101431901126103b65760405190611bb782610e51565b8161014435611bc581611792565b815261016435611bd481611792565b602082015261018435611be681611792565b604082015260606101a43591611bfb83611792565b0152565b9080601f830112156103b657813590611c1782610f11565b92611c256040519485610ea3565b828452602092838086019160051b830101928084116103b657848301915b848310611c535750505050505090565b82356001600160401b0381116103b6578691611c748484809489010161195e565b815201920191611c43565b346103b6576101e03660031901126103b657611c996118ff565b6044356001600160401b03918282116103b657611cbb6004923690840161195e565b6064358481116103b657611cd2903690850161195e565b611cda611979565b60a4358681116103b657611cf1903690870161195e565b611cf96107a0565b9060e4358881116103b657611d11903690890161195e565b92610104358981116103b657611d2a9036908a016119e7565b94611d33611b8f565b96611d3d36611b9d565b986101c4359b8c116103b657611d596106d89c36908d01611bff565b9a35614968565b346103b65760403660031901126103b6576106d8600435611d8081610665565b6024359033614f41565b346103b65760803660031901126103b657600435611da781610665565b602435611db381610665565b606435916001600160401b0383116103b657366023840112156103b657611de76106d8933690602481600401359101611927565b9160443591615ea4565b346103b65760003660031901126103b6576006546040516001600160a01b039091168152602090f35b346103b6576020806003193601126103b657600435906001600160401b0382116103b657366023830112156103b657816004013591611e5883610f11565b91604093611e6885519485610ea3565b80845260248285019160061b840101923684116103b657602401905b838210611e94576106d885614ed8565b85823603126103b6578286918251611eab81610e36565b8435611eb681610665565b81528285013583820152815201910190611e84565b346103b6576020806003193601126103b657611ee561412f565b611eee81613ae0565b51611ef76141bc565b9052611f0f6060611f0783613ae0565b510160029052565b611f3782611f1c83613ae0565b510173fc7453da7bf4d0c739c1c53da57b3636dab0e11e9052565b611f4081613af2565b51611f496141eb565b9052611f616060611f5983613af2565b510160019052565b611f6e82611f1c83613af2565b600954611f83906001600160a01b0316610b3f565b6040805163b67cb04760e01b8152306004808301919091523560248201526101c09391928490829060449082905afa938415610884576000946132fd575b5050611fe0611fdb84516000526094602052604060002090565b614257565b612006612000611ff08651613f71565b6000526096602052604060002090565b546178b7565b9361200f6142fb565b9061205761200061204761204061203b61203161202c8751613f71565b613f8d565b90549060031b1c90565b6178b7565b9351613f71565b6000526095602052604060002090565b600a5461209790612070906001600160a01b0316610b3f565b600554885180926321d1336160e11b82528180610120968795600483019190602083019252565b03915afa908115610884576120b5926000926132e0575b505061460c565b6120bd614ca2565b9387519889968b88016120e690600f906e3632ba103a34b2b92730b6b2901e9160891b81520190565b6120ef91614319565b61223b60f01b81526002016b3632ba10383430b9b2901e9160a11b8152600c0161211891614319565b61223b60f01b81526002016f3632ba10383934bd32a837b7b6101e9160811b815260100161214591614319565b61223b60f01b8152600201733632ba103a34b6b2a932b6b0b4b734b733901e9160611b815260140161217691614319565b61223b60f01b8152600201713632ba103a37ba30b626b4b73a32b2101e9160711b81526012016121a591614319565b61223b60f01b8152600201713632ba10313ab9372a37a1b630b4b6901e9160711b81526012016121d491614319565b61223b60f01b81526002017f6c657420666f6e74203d2022646174613a666f6e742f74727565747970653b638152731a185c9cd95d0f5d5d198b4e0ed8985cd94d8d0b60621b602082015260340161222b91614319565b61223b60f01b81526002017f6c657420706167652c63616d4c6f632c627574744c6566742c6275747452696781527f68742c74696d65722c62746e2c70616765733d5b5d2c6e756d4f66506167657360208201527f3d332c6d6f76696e6752696768743d21312c6d6f76696e674c6566743d21312c60408201527f69735061757365643d21312c646566696661426c75653d5b31392c3232382c3260608201527f34305d2c747874313d5b5b225072697a6520506f6f6c3a20222c64656669666160808201527f426c75655d2c5b7072697a65506f6f6c2c646566696661426c75655d2c5b222260a08201527f2c646566696661426c75655d5d2c747874323d5b5b2250686173653a20222c6460c08201527f6566696661426c75655d2c5b70686173652c646566696661426c75655d2c5b2260e08201527f222c646566696661426c75655d5d2c747874333d5b5b2254696d652052656d616101008201527f696e696e673a20222c646566696661426c75655d2c5b74696d6552656d61696e6101208201527f696e672c646566696661426c75655d2c5b22222c646566696661426c75655d5d6101408201527f2c747874343d5b5b22546f74616c204d696e7465643a20222c646566696661426101608201527f6c75655d2c5b746f74616c4d696e7465642c646566696661426c75655d2c5b226101808201527f222c646566696661426c75655d5d2c747874353d5b5b224275726e20746f20436101a08201527f6c61696d3a20222c646566696661426c75655d2c5b6275726e546f436c61696d6101c08201527f2c646566696661426c75655d2c5b22222c646566696661426c75655d5d2c74786101e08201527f74363d5b5b225465616d3a20222c646566696661426c75655d2c5b746965724e6102008201527f616d652c646566696661426c75655d2c5b22222c646566696661426c75655d5d6102208201527f2c70616765496d673d5b5d3b66756e6374696f6e207072656c6f616428297b706102408201527f616765496d675b305d3d6c6f6164496d616765282268747470733a2f2f6761746102608201527f657761792e70696e6174612e636c6f75642f697066732f516d62346f62427a556102808201527f6f66655a746355786845575559436d686e655a4d7a43724251724e476e4a6e716102a08201527f4b4e79447122292c70616765496d675b315d3d6c6f6164496d616765282268746102c08201527f7470733a2f2f697066732e696f2f697066732f516d5453425348584a676e56676102e08201527f3136706a786e48334341716b4c34514474427772366153486b6276685a466d526103008201527f3322292c70616765496d675b325d3d6c6f6164496d616765282268747470733a6103208201527f2f2f697066732e696f2f697066732f516d5453425348584a676e56673136706a6103408201527f786e48334341716b4c34514474427772366153486b6276685a466d523322297d6103608201527f66756e6374696f6e20736574757028297b6d79466f6e743d6c6f6164466f6e746103808201527f28666f6e74292c63726561746543616e766173283430302c343030292c63616d6103a08201527f4c6f633d637265617465566563746f7228302c30293b666f72286c657420743d6103c08201527f303b743c6e756d4f6650616765733b742b2b29627574744c6566743d637265616103e08201527f7465427574746f6e2822417274776f726b22292c627574744c6566742e706f736104008201527f6974696f6e2831302c63616e7661732e6865696768742f322d3330292c6275746104208201527f7452696768743d637265617465427574746f6e282253636f72652043617264226104408201527f292c6275747452696768742e7374796c6528226261636b67726f756e642d636f6104608201527f6c6f72222c636f6c6f7228646566696661426c756529292c62757474526967686104808201527f742e706f736974696f6e2863616e7661732e77696474682f322d39302c63616e6104a08201527f7661732e6865696768742f322d3330292c70616765735b745d3d6e65772050616104c08201527f67652863616e7661732e77696474682f322a742c302c742c70616765496d675b6104e08201527f745d2c747874312c303d3d743f627574744c6566743a627574745269676874296105008201527f3b74696d65723d63616e7661732e77696474682f327d66756e6374696f6e20646105208201527f7261777465787428742c652c69297b666f722876617220613d742c6f3d303b6f6105408201527f3c692e6c656e6774683b2b2b6f297b76617220733d695b6f5d2c633d735b305d6105608201527f2c683d735b315d2c6c3d7465787457696474682863293b66696c6c2868292c746105808201527f65787428632c612c65292c612b3d6c7d7d66756e6374696f6e206472617728296105a08201527f7b6261636b67726f756e6428323230292c6275747452696768742e6d6f7573656105c08201527f5072657373656428676f5269676874292c627574744c6566742e6d6f757365506105e08201527f72657373656428676f4c656674292c736c69646528292c7075736828292c74726106008201527f616e736c6174652863616d4c6f632e782c63616d4c6f632e79293b666f72286c6106208201527f657420743d303b743c6e756d4f6650616765733b742b2b2970616765735b745d6106408201527f2e72756e28293b706f7028297d66756e6374696f6e20676f526967687428297b6106608201527f6d6f76696e674c6566747c7c69735061757365647c7c286d6f76696e675269676106808201527f68743d2130297d66756e6374696f6e20676f4c65667428297b6d6f76696e67526106a08201527f696768747c7c69735061757365647c7c286d6f76696e674c6566743d2130297d6106c08201527f66756e6374696f6e20736c69646528297b6d6f76696e6752696768742626216d6106e08201527f6f76696e674c656674262674696d65723e3d3026262863616d4c6f632e782d3d6107008201527f32302c74696d65722d3d3230292c6d6f76696e674c6566742626216d6f76696e6107208201527f675269676874262674696d65723e3d3026262863616d4c6f632e782b3d32302c6107408201527f74696d65722d3d3230292c303d3d74696d65722626286d6f76696e67526967686107608201527f743d21312c6d6f76696e674c6566743d21312c74696d65723d63616e7661732e6107808201527f77696474682f32292c2d63616d4c6f632e783c3026262863616d4c6f632e783d6107a08201527f30292c2d63616d4c6f632e783e70616765735b70616765732e6c656e6774682d6107c08201527f315d2e6c6f632e7826262874696d65723d63616e7661732e77696474682f322c6107e08201527f6d6f76696e6752696768743d21312c6d6f76696e674c6566743d21312c63616d6108008201527f4c6f632e783d2d70616765735b70616765732e6c656e6774682d315d2e6c6f636108208201527f2e78297d66756e6374696f6e206b65795072657373656428297b38373d3d3d6b6108408201527f6579436f64653f63616d4c6f632e792b3d32303a38333d3d3d6b6579436f64656108608201527f3f63616d4c6f632e792d3d32303a36353d3d3d6b6579436f64653f63616d4c6f6108808201527f632e782b3d32303a36383d3d3d6b6579436f646526262863616d4c6f632e782d6108a08201527f3d3230297d636c61737320506167657b636f6e7374727563746f7228742c652c6108c08201527f692c612c6f2c73297b746869732e6c6f633d637265617465566563746f7228746108e08201527f2c65292c746869732e773d63616e7661732e77696474682f322c746869732e686109008201527f3d63616e7661732e6865696768742f322c746869732e706167654e756d3d692b6109208201527f312c746869732e696d673d617d72756e28297b696d61676528746869732e696d6109408201527f672c746869732e6c6f632e782c746869732e6c6f632e792c3430302c343030296109608201527f2c7465787453697a65283230292c74657874416c69676e284c454654292c74656109808201527f7874466f6e74286d79466f6e74292c323d3d746869732e706167654e756d26266109a08201527f28647261777465787428746869732e6c6f632e782b3131322c746869732e6c6f6109c08201527f632e792b33302c74787436292c647261777465787428746869732e6c6f632e786109e08201527f2b3131322c746869732e6c6f632e792b37302c74787431292c64726177746578610a008201527f7428746869732e6c6f632e782b3131322c746869732e6c6f632e792b3131302c610a208201527f74787432292c647261777465787428746869732e6c6f632e782b3131322c7468610a408201527f69732e6c6f632e792b3135302c74787433292c64726177746578742874686973610a608201527f2e6c6f632e782b3131322c746869732e6c6f632e792b3139302c74787434292c610a808201527f647261777465787428746869732e6c6f632e782b3131322c746869732e6c6f63610aa08201527f2e792b3233302c7478743629292c746869732e706167654e756d2c6c696e6528610ac08201527f746869732e6c6f632e782c746869732e6c6f632e792c746869732e6c6f632e78610ae08201527f2b746869732e772c746869732e6c6f632e79292c6c696e6528746869732e6c6f610b008201527f632e782c746869732e6c6f632e792c746869732e6c6f632e782c746869732e6c610b208201527f6f632e792b746869732e68292c6c696e6528746869732e6c6f632e782c746869610b408201527f732e6c6f632e792b746869732e682c746869732e6c6f632e782b746869732e77610b608201527f2c746869732e6c6f632e792b746869732e68292c6c696e6528746869732e6c6f610b808201527f632e782b746869732e772c746869732e6c6f632e792c746869732e6c6f632e78610ba0820152702b746869732e772c746869732e68297d7d60781b610bc0820152610bd1010392601f199384810182526130b19082610ea3565b806130bb83613b02565b5160c00152516130ca90613ccc565b82516334c3c9d560e01b8152918291829182916130ea916004840161439b565b035a927316b727a2fc9322c724f4bc562910c99a5eda5084600094fa92831561088457610439946132a9613278613259613273613253986132b5976000916132bf575b5088517f7b226e616d65223a2270352e6a73204578616d706c65202d20475a4950202d208782019081527f426173653634222c20226465736372697074696f6e223a22417373656d626c6560208201527f7320475a495020636f6d707265737365642062617365363420656e636f64656460408201527f2070352e6a732073746f72656420696e2065746866732046696c6553746f726560608201527f20636f6e7472616374207769746820612064656d6f207363656e652e204d657460808201527f616461746120616e6420616e696d6174696f6e2055524c2061726520626f746860a08201527f2062617365363420656e636f6465642e222c22616e696d6174696f6e5f75726c60c082015262111d1160e91b60e0820152909384926132679260e3015b90614319565b61227d60f01b815260020190565b03868101835282610ea3565b614def565b85519687938401601d907f646174613a6170706c69636174696f6e2f6a736f6e3b6261736536342c00000081520190565b03908101845283610ea3565b5191829182610542565b6132da913d8091833e6132d28183610ea3565b810190614365565b3861312d565b6132f69250803d10610d0357610cf48183610ea3565b38806120ae565b61331d929450803d10613325575b6133158183610ea3565b810190613bf6565b913880611fc1565b503d61330b565b346103b65760403660031901126103b65760043561334981610665565b60018060a01b0316600052601060205260406000206024356000526020526020611485604060002061744a565b346103b6576133843661169d565b61338c617391565b600954600091906001600160a01b0316803b1561178e5782604051809263d67b78fd60e01b82528183816133c4888b60048401615a3a565b03925af180156108845761340b575b506133de9192615a62565b7fd36dc0c1a06103fdcaf15f3f6fb797d1a97997514c78de073640c8b5005454b86020604051338152a280f35b916134186133de93610e1e565b916133d3565b346103b6576101c03660031901126103b6576134386118ff565b6044356001600160401b03918282116103b65761345a6004923690840161195e565b6064358481116103b657613471903690850161195e565b613479611979565b60a4358681116103b657613490903690870161195e565b6134986107a0565b9160e4358881116103b6576134b0903690890161195e565b93610104359889116103b6576134cc6106d89936908a016119e7565b956134d5611b8f565b976134df36611b9d565b993561538f565b346103b65760403660031901126103b657600435600052601160205260206114856024356040600020617481565b346103b65760003660031901126103b657600b546040516001600160a01b039091168152602090f35b346103b65760603660031901126103b65760043561355a81610665565b60018060a01b03166000526010602052604060002060243560005260205260206114856044356040600020617481565b919082526135a4602091606083850152606084019061051d565b90604092838184039101528080855193848152019401926000905b8382106135ce57505050505090565b845180516001600160a01b031687528301518684015294850194938201936001909101906135bf565b346103b657602060031981813601126103b657600435906001600160401b0382116103b6576101a09082360301126103b65761364461363d6101648301836004016139f5565b3691611927565b6040519061365182610e36565b6001825260005b84811061369c57509061043991610124946000613673610ee4565b3081529182015261368383613ae0565b5261368d82613ae0565b5060405194859401358461358a565b84906136a6613a75565b82828601015201613658565b6003196020368201126103b657600435906001600160401b0382116103b6576102009082360301126103b657600554341590811591613725575b8115613716575b50613704576106d890600401616ea2565b6040516331c57b1b60e21b8152600490fd5b905060248201351415386136f3565b60065490915061373d906001600160a01b0316610b3f565b604051636e49181f60e01b81526004810183905233602482015290602090829060449082905afa9081156108845760009161377b575b5015906136ec565b613793915060203d8111610e0157610df38183610ea3565b38613773565b346103b65760203660031901126103b6576004356137b681610665565b6137be617391565b6009546001600160a01b0390811691823b156103b6576000916024839260405194859384926317161f7d60e01b845216968760048401525af1801561088457613835575b506040513381527fab0014d4c7a642a02a31b303a318908c22b0fb2001f107278fc6076b4c671b65908060208101611192565b806111a461384292610e1e565b38613802565b346103b65760008060031936011261063257600954604051630155619b60e71b815230600482015291908190839060249082906001600160a01b03165afa9081156108845780916138a2575b604051806104398482610542565b90503d8082843e6138b38184610ea3565b8201916020818403126138f8578051906001600160401b03821161178e57019082601f830112156106325750610439918160206138f293519101614330565b38613894565b5080fd5b346103b65760403660031901126103b657602060ff61395860043561392081610665565b6024359061392d82610665565b60018060a01b03166000526004845260406000209060018060a01b0316600052602052604060002090565b54166040519015158152f35b346103b65760203660031901126103b65760043561398181610665565b613989617391565b6001600160a01b038116156139a1576106d8906173e9565b60405162461bcd60e51b815260206004820152602660248201527f4f776e61626c653a206e6577206f776e657220697320746865207a65726f206160448201526564647265737360d01b6064820152608490fd5b903590601e19813603018212156103b657018035906001600160401b0382116103b6576020019181360383136103b657565b906024116103b65760200190600490565b906044116103b65760400190600490565b6001600160e01b03199035818116939260048110613a6657505050565b60040360031b82901b16169150565b60405190613a8282610e36565b60006020838281520152565b60405190613a9b82610e36565b600182528160005b60209081811015613ac557602091613ab9613a75565b90828501015201613aa3565b505050565b634e487b7160e01b600052603260045260246000fd5b805115613aed5760200190565b613aca565b805160011015613aed5760400190565b805160021015613aed5760600190565b8051821015613aed5760209160051b010190565b916060838303126103b6578235926020810135613b42816103d9565b9260408201356001600160401b0381116103b65761055392016113d1565b519061068182610665565b90816101209103126103b657613b7f610ef1565b90805182526020810151602083015260408101516040830152606081015160608301526080810151608083015260a081015160a083015260c081015160c0830152613bcc60e08201613b60565b60e0830152610100809101519082015290565b6040513d6000823e3d90fd5b519061068182611792565b90816101c09103126103b657613c0a610ec4565b90805182526020810151602083015260408101516040830152606081015160608301526080810151608083015260a081015160a083015260c081015160c0830152613c5760e08201613b60565b60e08301526101008082015190830152610120613c75818301613b60565b9083015261014080820151908301526101608082015190830152610180613c9d818301613beb565b90830152613caf6101a0809201613beb565b9082015290565b634e487b7160e01b600052601160045260246000fd5b90620f4240918201809211613cdd57565b613cb6565b9060018201809211613cdd57565b9060028201809211613cdd57565b9060208201809211613cdd57565b91908201809211613cdd57565b9060009060006080840135613f50576101c092838501936024613d3c86886139f5565b9050108015613f1e575b610d0a57613d52613a8e565b94613d87610b1e613d61610ee4565b308152926020938785820152613d768a613ae0565b52613d8089613ae0565b50896139f5565b600a5490969250613da191506001600160a01b0316610b3f565b92604089815180966321d1336160e11b82526101209788918180613dd18860049801358883019190602083019252565b03915afa968715610884578597613eff575b5050600180965114613e2f575050505050505061363d613e1f613e2b92613e19613e1360925460c08a0135613d0c565b91613fbf565b90617786565b946101a08101906139f5565b9190565b959996939291908451948397613e4f610b3f60095460018060a01b031690565b915b878a10613e74575050505050505050505061363d816101a0613e2b9301906139f5565b9091929394959697989c613eb790868f613e8e9085613b12565b51875163b67cb04760e01b81523087820190815260208101929092529384918291604090910190565b0381885afa918215610884578b928a918a91613ee2575b500151019d01989796959493929190613e51565b613ef99150893d8b11613325576133158183610ea3565b38613ece565b613f16929750803d10610d0357610cf48183610ea3565b943880613de3565b50613f2c610d2a86886139f5565b63b3bcbb7960e01b916001600160e01b031991613f4891613a49565b161415613d46565b6040516309f82f1b60e31b8152600490fd5b908160209103126103b6575190565b600019810191908211613cdd57565b91908203918211613cdd57565b6080811015613aed5760120190600090565b8115613fa9570490565b634e487b7160e01b600052601260045260246000fd5b805160095460009392849290918390613fe0906001600160a01b0316610b3f565b925b8285106140085750505050508115613ff657565b604051637691472960e01b8152600490fd5b90919293956140178783613b12565b51604080516342f9914b60e01b8152600480820193909352602093919084816024818c5afa948515610884578795614110575b505051633a39e4d160e11b81523092810192835260208301849052916101c09081908490819060400103818b5afa8015610884576001946140e0946140da9389936140eb575b5050806140cd6140bc6140ab61203161202c6140d496613f71565b946060608082015191015190613f80565b916000526093602052604060002090565b5490613d0c565b90613f9f565b90613d0c565b960193929190613fe2565b6140d4929350908161410892903d10613325576133158183610ea3565b919038614090565b614127929550803d10610cc657610cb78183610ea3565b92388061404a565b6040805161413c81610e51565b600381528091600093845b606090818110156141a057835160e08101928184106001600160401b03851117610e3157602093865280825283908982840152808784015289818401528060808401528060a084015260c0830152828701015201614147565b50509293505050565b604051906141b682610e6c565b60008252565b604051906141c982610e36565b6013825272381a96bb18971a97181736b4b71735399733bd60691b6020830152565b604051906141f882610e36565b601682527567756e7a6970536372697074732d302e302e312e6a7360501b6020830152565b90600182811c9216801561424d575b602083101461423757565b634e487b7160e01b600052602260045260246000fd5b91607f169161422c565b906040519182600082549261426b8461421d565b9081845260019485811690816000146142d85750600114614295575b505061068192500383610ea3565b9093915060005260209081600020936000915b8183106142c057505061068193508201013880614287565b855488840185015294850194879450918301916142a8565b91505061068194506020925060ff191682840152151560051b8201013880614287565b6040519061430882610e36565b60028252613f3f60f01b6020830152565b9061432c602092828151948592016104fa565b0190565b9092919261433d8161190c565b9161434b6040519384610ea3565b8294828452828201116103b65760206106819301906104fa565b6020818303126103b6578051906001600160401b0382116103b657019080601f830112156103b657815161055392602001614330565b929190604080850190808652825180925260609182870192808260051b890101936020809601936000925b878b8686106143dc575050505050505050930152565b6144736001939495969798998392605f199082030188528a5161446061444d61442f614410845160e080885287019061051d565b898060a01b038886015116888701528b8501518682038d88015261051d565b838a015160ff16858b0152608080850151908683039087015261051d565b60a080840151908583039086015261051d565b9160c0809201519181840391015261051d565b98019401940192949391906143c6565b906106816031604051809462ee80b160e81b6020830152600160fd1b60238301526144b88151809260206024860191016104fa565b81016c2073e1b487636fc9b4e1b4857360981b6024820152036011810185520183610ea3565b906106816034604051809462ee80b160e81b6020830152600160fd1b60238301526145138151809260206024860191016104fa565b81016f20e1b48dc9aac9b475e1b49be1b4877360801b6024820152036014810185520183610ea3565b90610681602c604051809462ee80b160e81b6020830152600160fd1b60238301526145718151809260206024860191016104fa565b81016720ca9c6f75ca807360c01b602482015203600c810185520183610ea3565b90610681602a6040518094600160fd1b80602084015262ee80b160e81b602184015260248301526145cd8151809260206025860191016104fa565b810164204461797360d81b602582015203600a810185520183610ea3565b6040519066139bdd081cd95d60ca1b60208301526007825261068182610e36565b6080606082015191015190811560001461462a5750506105536145eb565b61463e9161463791613d0c565b4290613f80565b6202a30081111561465f5761465a6201518061055392046178b7565b614592565b611c2081111561467e57614679610e1061055392046178b7565b61453c565b607881111561469b57614696603c61055392046178b7565b6144de565b6146a7610553916178b7565b614483565b60125b609281106146ba5750565b600081556001016146af565b8181106146d1575050565b600081556001016146c6565b90601f82116146ea575050565b61068191600080527f290decd9548b62a8d60345a988386fc84ba6bc95484008f6362f93160ef3e563906020601f840160051c83019310614733575b601f0160051c01906146c6565b9091508190614726565b90601f821161474a575050565b6106819160016000527fb10e2d527612073b26eecdfd717e6a320cf44b4afac2b0732d9fcbe2b7fa0cf6906020601f840160051c8301931061473357601f0160051c01906146c6565b9190601f81116147a257505050565b610681926000526020600020906020601f840160051c8301931061473357601f0160051c01906146c6565b9081516001600160401b038111610e31576001906147f4816147ef845461421d565b61473d565b602080601f831160011461482f575081929394600092614824575b5050600019600383901b1c191690821b179055565b01519050388061480f565b90601f1983169561486260016000527fb10e2d527612073b26eecdfd717e6a320cf44b4afac2b0732d9fcbe2b7fa0cf690565b926000905b88821061489d5750508385969710614884575b505050811b019055565b015160001960f88460031b161c1916905538808061487a565b808785968294968601518155019501930190614867565b91909182516001600160401b038111610e31576148db816148d5845461421d565b84614793565b602080601f831160011461491757508192939460009261490c575b50508160011b916000199060031b1c1916179055565b0151905038806148f6565b90601f1983169561492d85600052602060002090565b926000905b8882106149505750508360019596971061488457505050811b019055565b80600185968294968601518155019501930190614932565b99969398959261497c9895928a928c61538f565b825191604091825180916321d1336160e11b825261012092839181806149ab6004988983019190602083019252565b03916001600160a01b03165afa801561088457614a86575b5050600093845b8481106149d957505050505050565b614a086149e68284613b12565b51614a036149f384613ce2565b6000526094602052604060002090565b6148b4565b600954614a1d906001600160a01b0316610b3f565b84516339370aa960e21b81523085820190815260209392849183919082908190850103915afa908115610884576001938992614a69575b5050614a6261204783613ce2565b55016149ca565b614a7f9250803d10610cc657610cb78183610ea3565b3880614a54565b81614a9c92903d10610d0357610cf48183610ea3565b5038806149c3565b614aac617391565b600a54614ac1906001600160a01b0316610b3f565b60055491604091825180916321d1336160e11b82526101209283918180614af160049a8b83019190602083019252565b03915afa908115610884578592600092614c4e575b50505110614c4057614b166146ac565b600954614b2b906001600160a01b0316610b3f565b825163f1bea54f60e01b81523085820190815290916020918291849182908190850103915afa91821561088457600092614c21575b50909160009181519183945b838610614b945750505050633b9aca00915011614b87575050565b51636ff44e9760e01b8152fd5b9091929381614ba38785613b12565b515111614c1157614c05600191614bf186614bbe8a88613b12565b510151614bd861202c614bd18c8a613b12565b5151613f71565b90919082549060031b91821b91600019901b1916179055565b85614bfc8987613b12565b51015190613d0c565b95019493929190614b6c565b865163148e14dd60e21b81528890fd5b81614c399293503d8411610cc657610cb78183610ea3565b9038614b60565b50516303e08a3560e61b8152fd5b614c649250803d10610d0357610cf48183610ea3565b3880614b06565b600281901b91906001600160fe1b03811603613cdd57565b908160209103126103b6575161055381611792565b3561055381610665565b614d106000604051614cb381610e36565b61012c815260405190614cc582610e36565b60068252651b9bdc9b585b60d21b602083015260208101918252604051938492839263bf6519ad60e01b8452602060048501525160248401525160406044840152606483019061051d565b038173a77b7d93e79f1e6b4f77fab29d9ef85733a3d44a5afa90811561088457600091614d3b575090565b610553913d8091833e6132d28183610ea3565b60405190606082018281106001600160401b03821117610e3157604052604082527f6768696a6b6c6d6e6f707172737475767778797a303132333435363738392b2f6040837f4142434445464748494a4b4c4d4e4f505152535455565758595a61626364656660208201520152565b90614dc78261190c565b614dd46040519182610ea3565b8281528092614de5601f199161190c565b0190602036910137565b805115614ecf57614dfe614d4e565b614e1a614e15614e0e8451613cf0565b6003900490565b614c6b565b91614e2c614e2784613cfe565b614dbd565b92835280815182019060208501935b828210614e7d57505050600390510680600114614e6c57600214614e5d575090565b603d60f81b6000199091015290565b50613d3d60f01b6001199091015290565b9091936004906003809401938451600190603f9082828260121c16880101518553828282600c1c16880101518386015382828260061c1688010151600286015316850101519082015301939190614e3b565b506105536141a9565b805190614ee3613a75565b5060005b828110614ef357505050565b614efd8183613b12565b5180519091906001600160a01b0390811615614f2f57826020614f299260019551169101519033614f41565b01614ee7565b6040516314f4c13d60e21b8152600490fd5b6001600160a01b039081166000818152600f602090815260408083208784528252822080548686166001600160a01b03198216811790925592969195919491939282169291869184846000805160206178f78339815191528b80a460095416916064604051809481936305c9a1d560e31b835230600484015260248301528860448301525afa948515610884576106819695614fdf575b5050614ffe565b614ff6929550803d10610cc657610cb78183610ea3565b923880614fd8565b91926001600160a01b0380831693919291908116808514801561511b575b615113578591816150a6575b50505082615037575b50505050565b6001600160a01b031660009081526010602052604090207fed0c1e94c302bdbbd8bbd6a4fb7c3ed335c2292407cd816eadd075d019d0ce049161508591856000526020526040600020617687565b6040805192835260208301919091523390820152606090a338808080615031565b6001600160a01b03166000908152601060205260409020826000526020527fed0c1e94c302bdbbd8bbd6a4fb7c3ed335c2292407cd816eadd075d019d0ce046150f385604060002061755f565b6040805192835260208301919091523390820152606090a3833880615028565b505050505050565b50831561501c565b908160209103126103b6575161055381610665565b6009546040516308ed6c0160e41b8152306004820152602481018390526001600160a01b0392916020908290604490829087165afa908115610884576000916151a4575b5082811661519e5750615199906000526002602052604060002090565b541690565b91505090565b6151c5915060203d81116151cb575b6151bd8183610ea3565b810190615123565b3861517c565b503d6151b3565b91908260409103126103b657602082516151eb81610665565b92015190565b81601f820112156103b65780519161520883610f11565b926152166040519485610ea3565b808452602092838086019260051b8201019283116103b6578301905b828210615240575050505090565b81518152908301908301615232565b906020828203126103b65781516001600160401b0381116103b65761055392016151f1565b60208082019080835283518092528060408094019401926000905b83821061529e57505050505090565b9091929394836101c060019261538289516152c583825169ffffffffffffffffffff169052565b8085015165ffffffffffff16838601528087015164ffffffffff168388015260608181015161ffff169084015260808181015161ffff169084015260a0818101516001600160a01b03169084015260c08181015160ff169084015260e0818101516001600160a01b03169084015261010081810151908401526101208082015160ff16908401526101408181015115159084015261016081810151151590840152610180818101511515908401526101a090810151151590830152565b019601949392019061528f565b90929998969391979594996153ae610b3f60085460018060a01b031690565b30146103b6576009546001600160a01b0399908a906153ce908216610b3f565b166103b657615402946153e093616c57565b60018060a01b03166bffffffffffffffffffffffff60a01b600a541617600a55565b600980546001600160a01b0319166001600160a01b03861617905561542a6020840151600c55565b60409661543988850151600d55565b6060840151600b80546001600160a01b0319166001600160a01b039092169190911790558051615640575b5080516155ef575b5083811661559c575b50518051615547575b5082511515801561553a575b801561552e575b8015615521575b6154aa575b50505050610681336173e9565b1691823b156103b657516365c13f1960e11b815281511515600482015260208201511515602482015260408201511515604482015260609091015115156064820152906000908290608490829084905af180156108845761550e575b80808061549d565b806111a461551b92610e1e565b38615506565b5060608301511515615498565b50828401511515615491565b506020830151151561548a565b60006155669186518093819263229dad5f60e11b835260048301615274565b0381838787165af18015610884571561547e57615595903d806000833e61558d8183610ea3565b81019061524f565b503861547e565b838316803b156103b657865163036129cb60e61b81526001600160a01b039290921660048301526000908290602490829084905af18015610884571561547557806111a46155e992610e1e565b38615475565b848416803b156103b657875163d67b78fd60e01b815291600091839182908490829061561e9060048301610542565b03925af18015610884571561546c57806111a461563a92610e1e565b3861546c565b858516803b156103b65788516331315e5960e11b815291600091839182908490829061566f9060048301610542565b03925af18015610884571561546457806111a461568b92610e1e565b38615464565b91909261569c617391565b8061577a575b5050816156ad575050565b6009546156c2906001600160a01b0316610b3f565b9160409060008251809563229dad5f60e11b82528183816156e7878a600484016159c7565b03925af19384156108845760009461575f575b5060005b81811061570c575050505050565b8061571960019287613b12565b517f8aa4a03deb8db10032373886aa0376c918ccf36bcdb59ca4da2a807ac7ff1a0461575661574984878a615a05565b8751918291339083615a16565b0390a2016156fe565b61577391943d8091833e61558d8183610ea3565b92386156fa565b60095461578f906001600160a01b0316610b3f565b90813b156103b6576040916000835180926320512ba160e01b82528183816157bb888b60048401615831565b03925af180156108845761581e575b5060005b8181106157dc5750506156a2565b806157ea600192848761585a565b84513381529035907f832d89d991be5351d793c20faf4b7dd44f8aa9ce39e3cb160c6317de6fbba72990602090a2016157ce565b806111a461582b92610e1e565b386157ca565b602080825281018390526001600160fb1b0383116103b65760409260051b809284830137010190565b9190811015613aed5760051b0190565b906106819161588c8261587c83611986565b69ffffffffffffffffffff169052565b6158aa61589b6020830161199d565b65ffffffffffff166020840152565b6158c76158b9604083016119b0565b64ffffffffff166040840152565b6158e16158d6606083016119ce565b61ffff166060840152565b6158fb6158f0608083016119ce565b61ffff166080840152565b61591a61590a60a08301610676565b6001600160a01b031660a0840152565b61593361592960c083016119d9565b60ff1660c0840152565b61595261594260e08301610676565b6001600160a01b031660e0840152565b610100808201359083015261597761012061596e8184016119d9565b60ff1690840152565b61599061014061598881840161179c565b151590840152565b6159a161016061598881840161179c565b6159b261018061598881840161179c565b6159c06101a080920161179c565b1515910152565b602080825281018390526040019160005b8181106159e55750505090565b909192806159f56001928661586a565b6101c090810194019291016159d8565b9190811015613aed576101c0020190565b9092916101c090615a2c836101e081019661586a565b6001600160a01b0316910152565b90918060409360208452816020850152848401376000828201840152601f01601f1916010190565b81604051928392833781016000815203902090565b600a54615a8c906001600160a01b0316610b3f565b600554604080516321d1336160e11b81526004810192909252929161012091908290829060249082905afa91821561088457615ae49260ff9261010092600092615c37575b5050015160f41c1660018091811c161490565b615c2657600954615afd906001600160a01b0316610b3f565b8251635d53f40760e11b8152600481018390526024810185905292906000908490604490829084905af192831561088457600093615c0b575b50600954615b4c906001600160a01b0316610b3f565b81516304db994760e21b8152306004820152602481018490529390602090859060449082905afa93841561088457600094615beb575b5060005b858110615b9557505050505050565b80615ba260019284613b12565b51615bad8188615f5b565b845133815260a084901b84900388169187917f031e1988c95a91ec4d655ff63a8f87a80bc9daf28d95ae10ee08c0022cfb5c8b90602090a401615b86565b615c0491945060203d81116151cb576151bd8183610ea3565b9238615b82565b615c1f91933d8091833e61558d8183610ea3565b9138615b36565b8151631d2c125760e31b8152600490fd5b615c4d9250803d10610d0357610cf48183610ea3565b3880615ad1565b91615c5d617391565b600954615c72906001600160a01b0316610b3f565b9260409060008251809663eaa19ab360e01b8252818381615c978a8860048401615d81565b03925af194851561088457600095615d33575b5060005b848110615cbd57505050505090565b80615cca60019288613b12565b51615cd58187615f5b565b61ffff615ceb615ce6848a8861585a565b615ddc565b86516000815233602082015260a086901b86900389169391909216917f598baf7bf150ca2f42be9e9f8f55e81d45f5715c3ff22bf46d697fabec7f31d690604090a401615cae565b615d4f91953d8091833e615d478183610ea3565b810190615d57565b509338615caa565b91906040838203126103b65782516001600160401b0381116103b6576020916151eb9185016151f1565b929160608401906000198552806020926060848801525260808501929160005b828110615db657505050506040600191930152565b90919293828060019261ffff8835615dcd816119c2565b16815201950193929101615da1565b35610553816119c2565b6009546001600160a01b0316803b156103b6576040516386bc2be360e01b8152916000918391829084908290615e1f9060048301611252565b03925af1801561088457615e305750565b61068190610e1e565b6000908152600260205260409020546001600160a01b03168015615e5a5790565b60405163b49aa3b560e01b8152600490fd5b6000818152600260205260409020546001600160a01b031615615e5a576000908152600360205260409020546001600160a01b031690565b929190615eb18233615ee3565b156106da5783615ec58383615eca9761681c565b616b9b565b15615ed157565b6040516336f57c1b60e11b8152600490fd5b6001600160a01b0380615ef584615e39565b169281831692848414948515615f2b575b50508315615f15575b50505090565b615f2191929350615e6c565b1614388080615f0f565b60009081526004602090815260408083206001600160a01b03949094168352929052205460ff1693503880615f06565b6001600160a01b03811692919083156160d7576000828152600260205260409020546001600160a01b03166160c557600082815260026020526040812080546001600160a01b0319166001600160a01b0384161790559361602292908190867fddf252ad1be2c89b69c2b068fc378daa952ba7f163c4a11628f55a4df523b3ef8180a4600954615ff3906001600160a01b0316610b3f565b60405163b67cb04760e01b815230600482015260248101929092526101c0939091908490829081906044820190565b0381855afa9384156108845786946160a6575b50508251813b156160a2576040516330b157e560e21b81526004810191909152600060248201526001600160a01b03831660448201529394908490606490829084905af1928315610884576106819361608f575b506162bb565b806111a461609c92610e1e565b38616089565b8580fd5b6160bd929450803d10613325576133158183610ea3565b913880616035565b604051632eb5f0c360e21b8152600490fd5b604051633904578f60e11b8152600490fd5b6009546161309190616103906001600160a01b0316610b3f565b60405163b67cb04760e01b81523060048201526024810194909452926101c0928390829081906044820190565b0381875afa928315610884576000936161b2575b5050815192803b156103b6576040516330b157e560e21b815260048101949094526001600160a01b0382166024850152600060448501819052908490606490829084905af1928315610884576106819361619f575b506163c1565b806111a46161ac92610e1e565b38616199565b6161c9929350803d10613325576133158183610ea3565b903880616144565b6009546162199291906161ec906001600160a01b0316610b3f565b60405163b67cb04760e01b81523060048201526024810195909552936101c0938490829081906044820190565b0381885afa9384156108845760009461629c575b5050825193803b156103b6576040516330b157e560e21b815260048101959095526001600160a01b038281166024870152831660448601526000908590606490829084905af19384156108845761068194616289575b506164e4565b806111a461629692610e1e565b38616283565b6162b3929450803d10613325576133158183610ea3565b91388061622d565b9060a0810180516162cb57505050565b6106819260018060a01b038082169360008581526020600f815260409283832081518452825284848420541615616375575b519551968683526011825261631488858520617687565b50501561635b575b818052600f8152828220868352815261634d8484842054169560018060a01b0316600052600f602052604060002090565b908683525220541690614ffe565b8582526011815261636e8784842061755f565b505061631c565b6001600160a01b0386166000818152600f6020526040902082518552835284842080546001600160a01b03191690911790558783816000805160206178f78339815191528280a46162fd565b60a0820180516163d057505050565b6000808052600f6020908152845182527ff4803e074bd026baaf6ed2e288c9515f68c72fb7216eebdd7cae1718a53ec37581526040808320546106819692936001600160a01b03939091849190821615616489575b5195519616801561646f575b858252601185526164448784842061755f565b50508152600f845281812085825284528282822054169361634d60008052600f602052604060002090565b8582526011855261648287848420617687565b5050616431565b60008052600f6020527ff4803e074bd026baaf6ed2e288c9515f68c72fb7216eebdd7cae1718a53ec37581518452865283832080546001600160a01b03191690558280806000805160206178f78339815191528180a4616425565b9060a083019081516164f65750505050565b6001600160a01b038181166000818152600f60209081526040808320895184528252808320546165709991949186918216156165ad575b5197519816908115616593575b15616579575b8252600f8152828220868352815261634d8484842054169560018060a01b0316600052600f602052604060002090565b38808080615031565b8683526011825261658c8885852061755f565b5050616540565b878452601183526165a689868620617687565b505061653a565b6001600160a01b0388166000818152600f6020526040902082518752855286862080546001600160a01b03191690911790558285816000805160206178f78339815191528280a461652d565b61660281615e39565b6001600160a01b038082169291908361666a575b508160006106819461662783616a6d565b82825260026020526040822080546001600160a01b03191690557fddf252ad1be2c89b69c2b068fc378daa952ba7f163c4a11628f55a4df523b3ef8280a46160e9565b60095461667f906001600160a01b0316610b3f565b60405163b67cb04760e01b8152306004820152602481018590529091906101c08082604481875afa8015610884576166c6926101a0926000926167ff575b50500151151590565b61678a575b6040516308ed6c0160e41b815230600482015260248101859052602081604481865afa9081156108845760009161676c575b501661661657803b156103b657604051638cec7d3960e01b8152600481018490526001600160a01b0383166024820152906000908290604490829084905af1801561088457610681948492600092616759575b50945050616616565b806111a461676692610e1e565b38616750565b616784915060203d81116151cb576151bd8183610ea3565b386166fd565b600a546167cb906167a3906001600160a01b0316610b3f565b60055460405180926321d1336160e11b82528180610120968795600483019190602083019252565b03915afa8015610884576167e1575b50506166cb565b816167f792903d10610d0357610cf48183610ea3565b5038806167da565b6168159250803d10613325576133158183610ea3565b38806166bd565b919061682782615e39565b6001600160a01b039390848216908516819003616a5b57848316948515616a4957816168af575b5061068194849161685e83616a6d565b600083815260026020526040902080546001600160a01b0319166001600160a01b0387161790557fddf252ad1be2c89b69c2b068fc378daa952ba7f163c4a11628f55a4df523b3ef600080a46161d1565b6009546168c4906001600160a01b0316610b3f565b60405163b67cb04760e01b8152306004820152602481018790529091906101c08082604481875afa80156108845761690a926101a0926000926167ff5750500151151590565b6169cd575b6040516308ed6c0160e41b815230600482015260248101879052602081604481865afa908115610884576000916169af575b501661684e5794853b156103b657604051638cec7d3960e01b8152600481018690526001600160a01b0384166024820152956000908790604490829084905af19182156108845761068196869361699c575b5091509461684e565b806111a46169a992610e1e565b38616993565b6169c7915060203d81116151cb576151bd8183610ea3565b38616941565b600a546169e6906167a3906001600160a01b0316610b3f565b03915afa91821561088457616a159260ff9261010092600092616a2c575b5050015160f41c1660018091161490565b1561690f576040516318cdaf9760e01b8152600490fd5b616a429250803d10610d0357610cf48183610ea3565b3880616a04565b604051632c95542760e01b8152600490fd5b60405163a195bc5360e01b8152600490fd5b600081815260036020526040812080546001600160a01b03191690556001600160a01b03616a9a83615e39565b167f8c5be1e5ebec7d5bd14f71427d1e84f3dd0314c0f7b2291e5b200ac8c7c3b9258280a4565b600082815260036020526040902080546001600160a01b0319166001600160a01b0383161790556001600160a01b0380616afa84615e39565b169116907f8c5be1e5ebec7d5bd14f71427d1e84f3dd0314c0f7b2291e5b200ac8c7c3b925600080a4565b908160209103126103b65751610553816103d9565b6001600160a01b0391821681529116602082015260408101919091526080606082018190526105539291019061051d565b3d15616b96573d90616b7c8261190c565b91616b8a6040519384610ea3565b82523d6000602084013e565b606090565b92909190823b15616c4e57616bce926020926000604051809681958294630a85bd0160e11b9a8b85523360048601616b3a565b03926001600160a01b03165af160009181616c1e575b50616c1057616bf1616b6b565b80519081616c0b576040516336f57c1b60e11b8152600490fd5b602001fd5b6001600160e01b0319161490565b616c4091925060203d8111616c47575b616c388183610ea3565b810190616b25565b9038616be4565b503d616c2e565b50505050600190565b9192909280516001600160401b038111610e3157600091616c8182616c7c855461421d565b6146dd565b60209081601f8411600114616cf457509282616cc293616cc796936106819998968492616ce9575b50508160011b916000199060031b1c19161790556147cd565b600555565b60018060a01b03166bffffffffffffffffffffffff60a01b6006541617600655565b015190503880616ca9565b600080529190601f1984167f290decd9548b62a8d60345a988386fc84ba6bc95484008f6362f93160ef3e5639386905b828210616d6e57505093616cc796936106819998969360019383616cc29810616d55575b505050811b0190556147cd565b015160001960f88460031b161c19169055388080616d48565b80600186978294978701518155019601940190616d24565b604d8111613cdd57600a0a90565b9160a0838303126103b65782359260209182820135936040830135616db8816103d9565b936060840135616dc781611792565b936080810135906001600160401b0382116103b657019180601f840112156103b6578235616df481610f11565b93616e026040519586610ea3565b818552838086019260051b8201019283116103b6578301905b828210616e29575050505090565b8380918335616e37816119c2565b815201910190616e1b565b908160809103126103b657606060405191616e5c83610e51565b8051616e6781611792565b83526020810151616e7781611792565b60208401526040810151616e8a81611792565b60408401520151616e9a81611792565b606082015290565b600060c0820135600c5480821460001461719c5750505060808101355b610180820191616eeb616ed184614c98565b6001600160a01b03166000908152600e6020526040902090565b54928293600093616efb84614c98565b95616f08610b3f85614c98565b6001600160a01b039788160361719157508101925b6000906101e08101906044616f3283836139f5565b9050118061715a575b617079575b5050831561700d5715616ffb57616fa693616ed193018095828211600014616fa9577f2fb2733fb01b76e3290fa8b695d18e026ddd19c0a265ab90e95152e57da30336616f8c85614c98565b60405133815292169383039180602081015b0390a4614c98565b55565b818311616fb9575b505050614c98565b7fe0e7c81cf67a96dd0e39bcf11521b1f4c0098cc1dbe8c30750a11d9ebfc3ed4d82616fe486614c98565b6040513381529316940391602090a4388481616fb1565b604051631b57826960e21b8152600490fd5b5091508282949394036170205750505050565b61706f928461703281616ed195613f80565b7fe0e7c81cf67a96dd0e39bcf11521b1f4c0098cc1dbe8c30750a11d9ebfc3ed4d61705c85614c98565b6040513381529416938060208101616f9e565b5538808080615031565b617090925090617088916139f5565b810190616d94565b925092505081806170d3575b6170ca575b80516170ae575b80616f40565b936170c391946170bd85614c98565b91617290565b92386170a8565b600091506170a1565b506009546170e9906001600160a01b0316610b3f565b604051634228826f60e11b815230600482015290608090829060249082905afa908115610884576171279160609160009161712c575b500151151590565b61709c565b61714d915060803d8111617153575b6171458183610ea3565b810190616e42565b3861711f565b503d61713b565b5061716e61716883836139f5565b90613a38565b63b3bcbb7960e01b916001600160e01b03199161718a91613a49565b1614616f3b565b939450508093616f1d565b600b546001600160a01b03168015617239576171f4926020916171c0600d54616d86565b93604051809681948293635268657960e11b845260a08c013591600485016040919493926060820195825260208201520152565b03915afa918215610884576172149392617219575b506080840135617812565b616ebf565b61723291925060203d8111610cc657610cb78183610ea3565b9038617209565b5050505050565b929190606084019084526020906060828601528251809152816080860193019160005b82811061727857505050506040600091930152565b835161ffff1685529381019392810192600101617263565b6009549293926172a8906001600160a01b0316610b3f565b6040805163eaa19ab360e01b8152956000949192859088908183816172d1888b60048401617240565b03925af180156108845785978691617371575b50968051955b8681106172fa5750505050505050565b8061730760019284613b12565b516173128186615f5b565b61ffff61732a6173228489613b12565b5161ffff1690565b88518a815233602082015260a086901b86900388169391909216917f598baf7bf150ca2f42be9e9f8f55e81d45f5715c3ff22bf46d697fabec7f31d690604090a4016172ea565b90506173889197503d8087833e615d478183610ea3565b969096386172e4565b6007546001600160a01b031633036173a557565b606460405162461bcd60e51b815260206004820152602060248201527f4f776e61626c653a2063616c6c6572206973206e6f7420746865206f776e65726044820152fd5b600780546001600160a01b039283166001600160a01b0319821681179092559091167f8be0079c531659141344cd1fd0a4f28419497f9722a3daafe3b4186f6b6457e0600080a3565b8054821015613aed5760005260206000200190600090565b80548061746257505060005b6001600160e01b031690565b6000198101908111613cdd5761747791617432565b505460201c617456565b904381101561751b578154906000905b8282106174ca575050806174a757506000919050565b6174c5916174b76174bd92613f71565b90617432565b505460201c90565b617456565b90916174d68184617708565b90826174fc6174f36174e88589617432565b505463ffffffff1690565b63ffffffff1690565b111561750b5750915b90617491565b925061751690613ce2565b617505565b606460405162461bcd60e51b815260206004820152602060248201527f436865636b706f696e74733a20626c6f636b206e6f7420796574206d696e65646044820152fd5b91909161756b8161744a565b928303928311613cdd578054906175818161744a565b9180151580617661575b156175c1576175a9613e2b926174b76175a38861771d565b93613f71565b509063ffffffff82549181199060201b169116179055565b5063ffffffff80431161760d57613e2b916176086175de8761771d565b6175f86175e9610ee4565b944316859063ffffffff169052565b6001600160e01b03166020840152565b6176a9565b60405162461bcd60e51b815260206004820152602660248201527f53616665436173743a2076616c756520646f65736e27742066697420696e203360448201526532206269747360d01b6064820152608490fd5b506000198101818111613cdd5761767d63ffffffff9184617432565b505416431461758b565b9190916176938161744a565b928301809311613cdd578054906175818161744a565b805468010000000000000000811015610e31576176cb91600182018155617432565b6176f257815160209283015190921b63ffffffff191663ffffffff92909216919091179055565b634e487b7160e01b600052600060045260246000fd5b90808216911860011c8101809111613cdd5790565b6001600160e01b0390818111617731571690565b60405162461bcd60e51b815260206004820152602760248201527f53616665436173743a2076616c756520646f65736e27742066697420696e20326044820152663234206269747360c81b6064820152608490fd5b91906000198184098184029182808310920391808303921461780557633b9aca0090818310156177e7577f88f2cfb83100cb4e69e7c79c58b316e597157d372fb9787e8e47ce423a2e9c6d94950990828211900360f71b910360091c170290565b6044838360405191631dcf306360e21b835260048301526024820152fd5b5050633b9aca0090049150565b909160001983830992808302928380861095039480860395146178aa578285101561788a57908291096001821901821680920460028082600302188083028203028083028203028083028203028083028203028083028203028092029003029360018380600003040190848311900302920304170290565b604051631dcf306360e21b81526004810186905260248101849052604490fd5b5050906105539250613f9f565b90604051608081019260a0820160405260008452925b6000190192600a9060308282060185530492836178cd57809350608091030191601f190191825256fe3134e8a2e6d97e929a7e54011ea5485d7d196dd5f0ba4d4ef95803e8e3fc257fa264697066735822122056420688c019ce82510e7f0602130f1c7853a33fb97afaadc58704235db600f664736f6c63430008120033",
    "linkReferences": {}
  },
  "methodIdentifiers": {
    "BUFFER_SIZE()": "004e394e",
    "TOTAL_REDEMPTION_WEIGHT()": "640abacd",
    "adjustTiers((uint80,uint48,uint40,uint16,uint16,address,uint8,address,bytes32,uint8,bool,bool,bool,bool)[],uint256[])": "25eb91ee",
    "approve(address,uint256)": "095ea7b3",
    "balanceOf(address)": "70a08231",
    "codeOrigin()": "1d153ca4",
    "contractURI()": "e8a3d485",
    "creditsOf(address)": "245a45b5",
    "didPay((address,uint256,uint256,(address,uint256,uint256,uint256),(address,uint256,uint256,uint256),uint256,address,bool,string,bytes))": "da9ee8b7",
    "didRedeem((address,uint256,uint256,uint256,(address,uint256,uint256,uint256),(address,uint256,uint256,uint256),address,string,bytes))": "2b13c58f",
    "directory()": "c41c2f24",
    "firstOwnerOf(uint256)": "54c6d1f5",
    "fundingCycleStore()": "557e7155",
    "getApproved(uint256)": "081812fc",
    "getPastTierTotalVotes(uint256,uint256)": "d31cc52c",
    "getPastTierVotes(address,uint256,uint256)": "d40e7146",
    "getTierDelegate(address,uint256)": "82732b6d",
    "getTierTotalVotes(uint256)": "94c5c5ca",
    "getTierVotes(address,uint256)": "ca323efe",
    "initialize(uint256,address,string,string,address,string,address,string,((uint80,uint48,uint40,uint16,uint16,address,uint8,address,bytes32,uint8,bool,bool,bool,bool)[],uint256,uint256,address),address,(bool,bool,bool,bool))": "d1704baf",
    "initialize(uint256,address,string,string,address,string,address,string,((uint80,uint48,uint40,uint16,uint16,address,uint8,address,bytes32,uint8,bool,bool,bool,bool)[],uint256,uint256,address),address,(bool,bool,bool,bool),string[])": "aae83226",
    "isApprovedForAll(address,address)": "e985e9c5",
    "mintFor((uint16[],address)[])": "36c1a93b",
    "mintFor(uint16[],address)": "6ac6d941",
    "mintReservesFor((uint256,uint256)[])": "2a596e53",
    "mintReservesFor(uint256,uint256)": "aa4fb15b",
    "name()": "06fdde03",
    "owner()": "8da5cb5b",
    "ownerOf(uint256)": "6352211e",
    "payParams((address,address,(address,uint256,uint256,uint256),uint256,uint256,address,uint256,uint256,string,bytes))": "d46cf171",
    "prices()": "d3419bf3",
    "pricingCurrency()": "64640c1e",
    "pricingDecimals()": "4ecba625",
    "projectId()": "3fafa127",
    "redeemParams((address,address,uint256,uint256,uint256,uint256,uint256,(address,uint256,uint256,uint256),bool,uint256,string,bytes))": "a51cfd18",
    "redemptionWeightOf(uint256[],(address,address,uint256,uint256,uint256,uint256,uint256,(address,uint256,uint256,uint256),bool,uint256,string,bytes))": "7ba62bf9",
    "renounceOwnership()": "715018a6",
    "royaltyInfo(uint256,uint256)": "2a55205a",
    "safeTransferFrom(address,address,uint256)": "42842e0e",
    "safeTransferFrom(address,address,uint256,bytes)": "b88d4fde",
    "setApprovalForAll(address,bool)": "a22cb465",
    "setBaseUri(string)": "a0bcfc7f",
    "setContractUri(string)": "ccb4807b",
    "setDefaultReservedTokenBeneficiary(address)": "df487e26",
    "setEncodedIPFSUriOf(uint256,bytes32)": "525350ba",
    "setTierDelegate(address,uint256)": "ab951e39",
    "setTierDelegates((address,uint256)[])": "c74b13d9",
    "setTierRedemptionWeights((uint256,uint256)[])": "2f441500",
    "setTokenUriResolver(address)": "2407497e",
    "store()": "975057e7",
    "supportsInterface(bytes4)": "01ffc9a7",
    "symbol()": "95d89b41",
    "tierRedemptionWeights()": "9df45468",
    "tokenURI(uint256)": "c87b56dd",
    "totalRedemptionWeight((address,address,uint256,uint256,uint256,uint256,uint256,(address,uint256,uint256,uint256),bool,uint256,string,bytes))": "9494bf72",
    "transferFrom(address,address,uint256)": "23b872dd",
    "transferOwnership(address)": "f2fde38b"
  },
  "id": 0
}