{
  "abi": [
    {
      "inputs": [],
      "name": "ALEADY_MINTED",
      "type": "error"
    },
    {
      "inputs": [],
      "name": "APPROVAL_TO_CURRENT_OWNER",
      "type": "error"
    },
    {
      "inputs": [],
      "name": "APPROVE_TO_CALLER",
      "type": "error"
    },
    {
      "inputs": [],
      "name": "BLOCK_NOT_YET_MINED",
      "type": "error"
    },
    {
      "inputs": [],
      "name": "CALLER_NOT_OWNER_OR_APPROVED",
      "type": "error"
    },
    {
      "inputs": [],
      "name": "DELEGATE_ADDRESS_ZERO",
      "type": "error"
    },
    {
      "inputs": [],
      "name": "GAME_ISNT_OVER_YET",
      "type": "error"
    },
    {
      "inputs": [],
      "name": "INCORRECT_OWNER",
      "type": "error"
    },
    {
      "inputs": [],
      "name": "INVALID_PAYMENT_EVENT",
      "type": "error"
    },
    {
      "inputs": [],
      "name": "INVALID_REDEMPTION_EVENT",
      "type": "error"
    },
    {
      "inputs": [],
      "name": "INVALID_REDEMPTION_METADATA",
      "type": "error"
    },
    {
      "inputs": [],
      "name": "INVALID_REDEMPTION_WEIGHTS",
      "type": "error"
    },
    {
      "inputs": [],
      "name": "INVALID_TIER_ID",
      "type": "error"
    },
    {
      "inputs": [],
      "name": "INVALID_TOKEN_ID",
      "type": "error"
    },
    {
      "inputs": [],
      "name": "MINT_TO_ZERO",
      "type": "error"
    },
    {
      "inputs": [],
      "name": "NOTHING_TO_CLAIM",
      "type": "error"
    },
    {
      "inputs": [],
      "name": "NOT_AVAILABLE",
      "type": "error"
    },
    {
      "inputs": [],
      "name": "OVERSPENDING",
      "type": "error"
    },
    {
      "inputs": [
        {
          "internalType": "uint256",
          "name": "prod1",
          "type": "uint256"
        },
        {
          "internalType": "uint256",
          "name": "denominator",
          "type": "uint256"
        }
      ],
      "name": "PRBMath__MulDivOverflow",
      "type": "error"
    },
    {
      "inputs": [],
      "name": "PRICING_RESOLVER_CHANGES_PAUSED",
      "type": "error"
    },
    {
      "inputs": [],
      "name": "RESERVED_TOKEN_MINTING_PAUSED",
      "type": "error"
    },
    {
      "inputs": [],
      "name": "TRANSFERS_PAUSED",
      "type": "error"
    },
    {
      "inputs": [],
      "name": "TRANSFER_TO_NON_IMPLEMENTER",
      "type": "error"
    },
    {
      "inputs": [],
      "name": "TRANSFER_TO_ZERO_ADDRESS",
      "type": "error"
    },
    {
      "inputs": [],
      "name": "UNAUTHORIZED",
      "type": "error"
    },
    {
      "inputs": [],
      "name": "UNEXPECTED_TOKEN_REDEEMED",
      "type": "error"
    },
    {
      "anonymous": false,
      "inputs": [
        {
          "indexed": true,
          "internalType": "uint256",
          "name": "tierId",
          "type": "uint256"
        },
        {
          "components": [
            {
              "internalType": "uint80",
              "name": "contributionFloor",
              "type": "uint80"
            },
            {
              "internalType": "uint48",
              "name": "lockedUntil",
              "type": "uint48"
            },
            {
              "internalType": "uint40",
              "name": "initialQuantity",
              "type": "uint40"
            },
            {
              "internalType": "uint16",
              "name": "votingUnits",
              "type": "uint16"
            },
            {
              "internalType": "uint16",
              "name": "reservedRate",
              "type": "uint16"
            },
            {
              "internalType": "address",
              "name": "reservedTokenBeneficiary",
              "type": "address"
            },
            {
              "internalType": "uint8",
              "name": "royaltyRate",
              "type": "uint8"
            },
            {
              "internalType": "address",
              "name": "royaltyBeneficiary",
              "type": "address"
            },
            {
              "internalType": "bytes32",
              "name": "encodedIPFSUri",
              "type": "bytes32"
            },
            {
              "internalType": "uint8",
              "name": "category",
              "type": "uint8"
            },
            {
              "internalType": "bool",
              "name": "allowManualMint",
              "type": "bool"
            },
            {
              "internalType": "bool",
              "name": "shouldUseReservedTokenBeneficiaryAsDefault",
              "type": "bool"
            },
            {
              "internalType": "bool",
              "name": "shouldUseRoyaltyBeneficiaryAsDefault",
              "type": "bool"
            },
            {
              "internalType": "bool",
              "name": "transfersPausable",
              "type": "bool"
            }
          ],
          "indexed": false,
          "internalType": "struct JB721TierParams",
          "name": "data",
          "type": "tuple"
        },
        {
          "indexed": false,
          "internalType": "address",
          "name": "caller",
          "type": "address"
        }
      ],
      "name": "AddTier",
      "type": "event"
    },
    {
      "anonymous": false,
      "inputs": [
        {
          "indexed": true,
          "internalType": "address",
          "name": "owner",
          "type": "address"
        },
        {
          "indexed": true,
          "internalType": "address",
          "name": "approved",
          "type": "address"
        },
        {
          "indexed": true,
          "internalType": "uint256",
          "name": "tokenId",
          "type": "uint256"
        }
      ],
      "name": "Approval",
      "type": "event"
    },
    {
      "anonymous": false,
      "inputs": [
        {
          "indexed": true,
          "internalType": "address",
          "name": "owner",
          "type": "address"
        },
        {
          "indexed": true,
          "internalType": "address",
          "name": "operator",
          "type": "address"
        },
        {
          "indexed": false,
          "internalType": "bool",
          "name": "approved",
          "type": "bool"
        }
      ],
      "name": "ApprovalForAll",
      "type": "event"
    },
    {
      "anonymous": false,
      "inputs": [
        {
          "indexed": true,
          "internalType": "address",
          "name": "delegator",
          "type": "address"
        },
        {
          "indexed": true,
          "internalType": "address",
          "name": "fromDelegate",
          "type": "address"
        },
        {
          "indexed": true,
          "internalType": "address",
          "name": "toDelegate",
          "type": "address"
        }
      ],
      "name": "DelegateChanged",
      "type": "event"
    },
    {
      "anonymous": false,
      "inputs": [
        {
          "indexed": true,
          "internalType": "uint256",
          "name": "tokenId",
          "type": "uint256"
        },
        {
          "indexed": true,
          "internalType": "uint256",
          "name": "tierId",
          "type": "uint256"
        },
        {
          "indexed": true,
          "internalType": "address",
          "name": "beneficiary",
          "type": "address"
        },
        {
          "indexed": false,
          "internalType": "uint256",
          "name": "totalAmountContributed",
          "type": "uint256"
        },
        {
          "indexed": false,
          "internalType": "address",
          "name": "caller",
          "type": "address"
        }
      ],
      "name": "Mint",
      "type": "event"
    },
    {
      "anonymous": false,
      "inputs": [
        {
          "indexed": true,
          "internalType": "uint256",
          "name": "tokenId",
          "type": "uint256"
        },
        {
          "indexed": true,
          "internalType": "uint256",
          "name": "tierId",
          "type": "uint256"
        },
        {
          "indexed": true,
          "internalType": "address",
          "name": "beneficiary",
          "type": "address"
        },
        {
          "indexed": false,
          "internalType": "address",
          "name": "caller",
          "type": "address"
        }
      ],
      "name": "MintReservedToken",
      "type": "event"
    },
    {
      "anonymous": false,
      "inputs": [
        {
          "indexed": true,
          "internalType": "address",
          "name": "previousOwner",
          "type": "address"
        },
        {
          "indexed": true,
          "internalType": "address",
          "name": "newOwner",
          "type": "address"
        }
      ],
      "name": "OwnershipTransferred",
      "type": "event"
    },
    {
      "anonymous": false,
      "inputs": [
        {
          "indexed": true,
          "internalType": "uint256",
          "name": "tierId",
          "type": "uint256"
        },
        {
          "indexed": false,
          "internalType": "address",
          "name": "caller",
          "type": "address"
        }
      ],
      "name": "RemoveTier",
      "type": "event"
    },
    {
      "anonymous": false,
      "inputs": [
        {
          "indexed": true,
          "internalType": "string",
          "name": "baseUri",
          "type": "string"
        },
        {
          "indexed": false,
          "internalType": "address",
          "name": "caller",
          "type": "address"
        }
      ],
      "name": "SetBaseUri",
      "type": "event"
    },
    {
      "anonymous": false,
      "inputs": [
        {
          "indexed": true,
          "internalType": "string",
          "name": "contractUri",
          "type": "string"
        },
        {
          "indexed": false,
          "internalType": "address",
          "name": "caller",
          "type": "address"
        }
      ],
      "name": "SetContractUri",
      "type": "event"
    },
    {
      "anonymous": false,
      "inputs": [
        {
          "indexed": true,
          "internalType": "address",
          "name": "beneficiary",
          "type": "address"
        },
        {
          "indexed": false,
          "internalType": "address",
          "name": "caller",
          "type": "address"
        }
      ],
      "name": "SetDefaultReservedTokenBeneficiary",
      "type": "event"
    },
    {
      "anonymous": false,
      "inputs": [
        {
          "indexed": true,
          "internalType": "uint256",
          "name": "tierId",
          "type": "uint256"
        },
        {
          "indexed": false,
          "internalType": "bytes32",
          "name": "encodedIPFSUri",
          "type": "bytes32"
        },
        {
          "indexed": false,
          "internalType": "address",
          "name": "caller",
          "type": "address"
        }
      ],
      "name": "SetEncodedIPFSUri",
      "type": "event"
    },
    {
      "anonymous": false,
      "inputs": [
        {
          "indexed": true,
          "internalType": "contract IJBTokenUriResolver",
          "name": "newResolver",
          "type": "address"
        },
        {
          "indexed": false,
          "internalType": "address",
          "name": "caller",
          "type": "address"
        }
      ],
      "name": "SetTokenUriResolver",
      "type": "event"
    },
    {
      "anonymous": false,
      "inputs": [
        {
          "indexed": true,
          "internalType": "address",
          "name": "delegator",
          "type": "address"
        },
        {
          "indexed": true,
          "internalType": "address",
          "name": "fromDelegate",
          "type": "address"
        },
        {
          "indexed": true,
          "internalType": "address",
          "name": "toDelegate",
          "type": "address"
        },
        {
          "indexed": false,
          "internalType": "uint256",
          "name": "tierId",
          "type": "uint256"
        },
        {
          "indexed": false,
          "internalType": "address",
          "name": "caller",
          "type": "address"
        }
      ],
      "name": "TierDelegateChanged",
      "type": "event"
    },
    {
      "anonymous": false,
      "inputs": [
        {
          "indexed": true,
          "internalType": "address",
          "name": "delegate",
          "type": "address"
        },
        {
          "indexed": true,
          "internalType": "uint256",
          "name": "tierId",
          "type": "uint256"
        },
        {
          "indexed": false,
          "internalType": "uint256",
          "name": "previousBalance",
          "type": "uint256"
        },
        {
          "indexed": false,
          "internalType": "uint256",
          "name": "newBalance",
          "type": "uint256"
        },
        {
          "indexed": false,
          "internalType": "address",
          "name": "caller",
          "type": "address"
        }
      ],
      "name": "TierDelegateVotesChanged",
      "type": "event"
    },
    {
      "anonymous": false,
      "inputs": [
        {
          "indexed": true,
          "internalType": "address",
          "name": "from",
          "type": "address"
        },
        {
          "indexed": true,
          "internalType": "address",
          "name": "to",
          "type": "address"
        },
        {
          "indexed": true,
          "internalType": "uint256",
          "name": "tokenId",
          "type": "uint256"
        }
      ],
      "name": "Transfer",
      "type": "event"
    },
    {
      "inputs": [],
      "name": "MAX_ROYALTY_RATE",
      "outputs": [
        {
          "internalType": "uint256",
          "name": "",
          "type": "uint256"
        }
      ],
      "stateMutability": "view",
      "type": "function"
    },
    {
      "inputs": [],
      "name": "TOTAL_REDEMPTION_WEIGHT",
      "outputs": [
        {
          "internalType": "uint256",
          "name": "",
          "type": "uint256"
        }
      ],
      "stateMutability": "view",
      "type": "function"
    },
    {
      "inputs": [
        {
          "components": [
            {
              "internalType": "uint80",
              "name": "contributionFloor",
              "type": "uint80"
            },
            {
              "internalType": "uint48",
              "name": "lockedUntil",
              "type": "uint48"
            },
            {
              "internalType": "uint40",
              "name": "initialQuantity",
              "type": "uint40"
            },
            {
              "internalType": "uint16",
              "name": "votingUnits",
              "type": "uint16"
            },
            {
              "internalType": "uint16",
              "name": "reservedRate",
              "type": "uint16"
            },
            {
              "internalType": "address",
              "name": "reservedTokenBeneficiary",
              "type": "address"
            },
            {
              "internalType": "uint8",
              "name": "royaltyRate",
              "type": "uint8"
            },
            {
              "internalType": "address",
              "name": "royaltyBeneficiary",
              "type": "address"
            },
            {
              "internalType": "bytes32",
              "name": "encodedIPFSUri",
              "type": "bytes32"
            },
            {
              "internalType": "uint8",
              "name": "category",
              "type": "uint8"
            },
            {
              "internalType": "bool",
              "name": "allowManualMint",
              "type": "bool"
            },
            {
              "internalType": "bool",
              "name": "shouldUseReservedTokenBeneficiaryAsDefault",
              "type": "bool"
            },
            {
              "internalType": "bool",
              "name": "shouldUseRoyaltyBeneficiaryAsDefault",
              "type": "bool"
            },
            {
              "internalType": "bool",
              "name": "transfersPausable",
              "type": "bool"
            }
          ],
          "internalType": "struct JB721TierParams[]",
          "name": "_tiersToAdd",
          "type": "tuple[]"
        },
        {
          "internalType": "uint256[]",
          "name": "_tierIdsToRemove",
          "type": "uint256[]"
        }
      ],
      "name": "adjustTiers",
      "outputs": [],
      "stateMutability": "nonpayable",
      "type": "function"
    },
    {
      "inputs": [
        {
          "internalType": "address",
          "name": "to",
          "type": "address"
        },
        {
          "internalType": "uint256",
          "name": "tokenId",
          "type": "uint256"
        }
      ],
      "name": "approve",
      "outputs": [],
      "stateMutability": "nonpayable",
      "type": "function"
    },
    {
      "inputs": [
        {
          "internalType": "address",
          "name": "_owner",
          "type": "address"
        }
      ],
      "name": "balanceOf",
      "outputs": [
        {
          "internalType": "uint256",
          "name": "balance",
          "type": "uint256"
        }
      ],
      "stateMutability": "view",
      "type": "function"
    },
    {
      "inputs": [],
      "name": "codeOrigin",
      "outputs": [
        {
          "internalType": "address",
          "name": "",
          "type": "address"
        }
      ],
      "stateMutability": "view",
      "type": "function"
    },
    {
      "inputs": [],
      "name": "contractURI",
      "outputs": [
        {
          "internalType": "string",
          "name": "",
          "type": "string"
        }
      ],
      "stateMutability": "view",
      "type": "function"
    },
    {
      "inputs": [
        {
          "internalType": "address",
          "name": "",
          "type": "address"
        }
      ],
      "name": "creditsOf",
      "outputs": [
        {
          "internalType": "uint256",
          "name": "",
          "type": "uint256"
        }
      ],
      "stateMutability": "view",
      "type": "function"
    },
    {
      "inputs": [
        {
          "components": [
            {
              "internalType": "address",
              "name": "payer",
              "type": "address"
            },
            {
              "internalType": "uint256",
              "name": "projectId",
              "type": "uint256"
            },
            {
              "internalType": "uint256",
              "name": "currentFundingCycleConfiguration",
              "type": "uint256"
            },
            {
              "components": [
                {
                  "internalType": "address",
                  "name": "token",
                  "type": "address"
                },
                {
                  "internalType": "uint256",
                  "name": "value",
                  "type": "uint256"
                },
                {
                  "internalType": "uint256",
                  "name": "decimals",
                  "type": "uint256"
                },
                {
                  "internalType": "uint256",
                  "name": "currency",
                  "type": "uint256"
                }
              ],
              "internalType": "struct JBTokenAmount",
              "name": "amount",
              "type": "tuple"
            },
            {
              "components": [
                {
                  "internalType": "address",
                  "name": "token",
                  "type": "address"
                },
                {
                  "internalType": "uint256",
                  "name": "value",
                  "type": "uint256"
                },
                {
                  "internalType": "uint256",
                  "name": "decimals",
                  "type": "uint256"
                },
                {
                  "internalType": "uint256",
                  "name": "currency",
                  "type": "uint256"
                }
              ],
              "internalType": "struct JBTokenAmount",
              "name": "forwardedAmount",
              "type": "tuple"
            },
            {
              "internalType": "uint256",
              "name": "projectTokenCount",
              "type": "uint256"
            },
            {
              "internalType": "address",
              "name": "beneficiary",
              "type": "address"
            },
            {
              "internalType": "bool",
              "name": "preferClaimedTokens",
              "type": "bool"
            },
            {
              "internalType": "string",
              "name": "memo",
              "type": "string"
            },
            {
              "internalType": "bytes",
              "name": "metadata",
              "type": "bytes"
            }
          ],
          "internalType": "struct JBDidPayData",
          "name": "_data",
          "type": "tuple"
        }
      ],
      "name": "didPay",
      "outputs": [],
      "stateMutability": "payable",
      "type": "function"
    },
    {
      "inputs": [
        {
          "components": [
            {
              "internalType": "address",
              "name": "holder",
              "type": "address"
            },
            {
              "internalType": "uint256",
              "name": "projectId",
              "type": "uint256"
            },
            {
              "internalType": "uint256",
              "name": "currentFundingCycleConfiguration",
              "type": "uint256"
            },
            {
              "internalType": "uint256",
              "name": "projectTokenCount",
              "type": "uint256"
            },
            {
              "components": [
                {
                  "internalType": "address",
                  "name": "token",
                  "type": "address"
                },
                {
                  "internalType": "uint256",
                  "name": "value",
                  "type": "uint256"
                },
                {
                  "internalType": "uint256",
                  "name": "decimals",
                  "type": "uint256"
                },
                {
                  "internalType": "uint256",
                  "name": "currency",
                  "type": "uint256"
                }
              ],
              "internalType": "struct JBTokenAmount",
              "name": "reclaimedAmount",
              "type": "tuple"
            },
            {
              "components": [
                {
                  "internalType": "address",
                  "name": "token",
                  "type": "address"
                },
                {
                  "internalType": "uint256",
                  "name": "value",
                  "type": "uint256"
                },
                {
                  "internalType": "uint256",
                  "name": "decimals",
                  "type": "uint256"
                },
                {
                  "internalType": "uint256",
                  "name": "currency",
                  "type": "uint256"
                }
              ],
              "internalType": "struct JBTokenAmount",
              "name": "forwardedAmount",
              "type": "tuple"
            },
            {
              "internalType": "address payable",
              "name": "beneficiary",
              "type": "address"
            },
            {
              "internalType": "string",
              "name": "memo",
              "type": "string"
            },
            {
              "internalType": "bytes",
              "name": "metadata",
              "type": "bytes"
            }
          ],
          "internalType": "struct JBDidRedeemData",
          "name": "_data",
          "type": "tuple"
        }
      ],
      "name": "didRedeem",
      "outputs": [],
      "stateMutability": "payable",
      "type": "function"
    },
    {
      "inputs": [],
      "name": "directory",
      "outputs": [
        {
          "internalType": "contract IJBDirectory",
          "name": "",
          "type": "address"
        }
      ],
      "stateMutability": "view",
      "type": "function"
    },
    {
      "inputs": [
        {
          "internalType": "uint256",
          "name": "_tokenId",
          "type": "uint256"
        }
      ],
      "name": "firstOwnerOf",
      "outputs": [
        {
          "internalType": "address",
          "name": "",
          "type": "address"
        }
      ],
      "stateMutability": "view",
      "type": "function"
    },
    {
      "inputs": [],
      "name": "fundingCycleStore",
      "outputs": [
        {
          "internalType": "contract IJBFundingCycleStore",
          "name": "",
          "type": "address"
        }
      ],
      "stateMutability": "view",
      "type": "function"
    },
    {
      "inputs": [
        {
          "internalType": "uint256",
          "name": "tokenId",
          "type": "uint256"
        }
      ],
      "name": "getApproved",
      "outputs": [
        {
          "internalType": "address",
          "name": "",
          "type": "address"
        }
      ],
      "stateMutability": "view",
      "type": "function"
    },
    {
      "inputs": [
        {
          "internalType": "uint256",
          "name": "_tier",
          "type": "uint256"
        },
        {
          "internalType": "uint256",
          "name": "_blockNumber",
          "type": "uint256"
        }
      ],
      "name": "getPastTierTotalVotes",
      "outputs": [
        {
          "internalType": "uint256",
          "name": "",
          "type": "uint256"
        }
      ],
      "stateMutability": "view",
      "type": "function"
    },
    {
      "inputs": [
        {
          "internalType": "address",
          "name": "_account",
          "type": "address"
        },
        {
          "internalType": "uint256",
          "name": "_tier",
          "type": "uint256"
        },
        {
          "internalType": "uint256",
          "name": "_blockNumber",
          "type": "uint256"
        }
      ],
      "name": "getPastTierVotes",
      "outputs": [
        {
          "internalType": "uint256",
          "name": "",
          "type": "uint256"
        }
      ],
      "stateMutability": "view",
      "type": "function"
    },
    {
      "inputs": [
        {
          "internalType": "address",
          "name": "_account",
          "type": "address"
        },
        {
          "internalType": "uint256",
          "name": "_tier",
          "type": "uint256"
        }
      ],
      "name": "getTierDelegate",
      "outputs": [
        {
          "internalType": "address",
          "name": "",
          "type": "address"
        }
      ],
      "stateMutability": "view",
      "type": "function"
    },
    {
      "inputs": [
        {
          "internalType": "uint256",
          "name": "_tier",
          "type": "uint256"
        }
      ],
      "name": "getTierTotalVotes",
      "outputs": [
        {
          "internalType": "uint256",
          "name": "",
          "type": "uint256"
        }
      ],
      "stateMutability": "view",
      "type": "function"
    },
    {
      "inputs": [
        {
          "internalType": "address",
          "name": "_account",
          "type": "address"
        },
        {
          "internalType": "uint256",
          "name": "_tier",
          "type": "uint256"
        }
      ],
      "name": "getTierVotes",
      "outputs": [
        {
          "internalType": "uint256",
          "name": "",
          "type": "uint256"
        }
      ],
      "stateMutability": "view",
      "type": "function"
    },
    {
      "inputs": [
        {
          "internalType": "uint256",
          "name": "_projectId",
          "type": "uint256"
        },
        {
          "internalType": "contract IJBDirectory",
          "name": "_directory",
          "type": "address"
        },
        {
          "internalType": "string",
          "name": "_name",
          "type": "string"
        },
        {
          "internalType": "string",
          "name": "_symbol",
          "type": "string"
        },
        {
          "internalType": "contract IJBFundingCycleStore",
          "name": "_fundingCycleStore",
          "type": "address"
        },
        {
          "internalType": "string",
          "name": "_baseUri",
          "type": "string"
        },
        {
          "internalType": "contract IJBTokenUriResolver",
          "name": "_tokenUriResolver",
          "type": "address"
        },
        {
          "internalType": "string",
          "name": "_contractUri",
          "type": "string"
        },
        {
          "components": [
            {
              "components": [
                {
                  "internalType": "uint80",
                  "name": "contributionFloor",
                  "type": "uint80"
                },
                {
                  "internalType": "uint48",
                  "name": "lockedUntil",
                  "type": "uint48"
                },
                {
                  "internalType": "uint40",
                  "name": "initialQuantity",
                  "type": "uint40"
                },
                {
                  "internalType": "uint16",
                  "name": "votingUnits",
                  "type": "uint16"
                },
                {
                  "internalType": "uint16",
                  "name": "reservedRate",
                  "type": "uint16"
                },
                {
                  "internalType": "address",
                  "name": "reservedTokenBeneficiary",
                  "type": "address"
                },
                {
                  "internalType": "uint8",
                  "name": "royaltyRate",
                  "type": "uint8"
                },
                {
                  "internalType": "address",
                  "name": "royaltyBeneficiary",
                  "type": "address"
                },
                {
                  "internalType": "bytes32",
                  "name": "encodedIPFSUri",
                  "type": "bytes32"
                },
                {
                  "internalType": "uint8",
                  "name": "category",
                  "type": "uint8"
                },
                {
                  "internalType": "bool",
                  "name": "allowManualMint",
                  "type": "bool"
                },
                {
                  "internalType": "bool",
                  "name": "shouldUseReservedTokenBeneficiaryAsDefault",
                  "type": "bool"
                },
                {
                  "internalType": "bool",
                  "name": "shouldUseRoyaltyBeneficiaryAsDefault",
                  "type": "bool"
                },
                {
                  "internalType": "bool",
                  "name": "transfersPausable",
                  "type": "bool"
                }
              ],
              "internalType": "struct JB721TierParams[]",
              "name": "tiers",
              "type": "tuple[]"
            },
            {
              "internalType": "uint256",
              "name": "currency",
              "type": "uint256"
            },
            {
              "internalType": "uint256",
              "name": "decimals",
              "type": "uint256"
            },
            {
              "internalType": "contract IJBPrices",
              "name": "prices",
              "type": "address"
            }
          ],
          "internalType": "struct JB721PricingParams",
          "name": "_pricing",
          "type": "tuple"
        },
        {
          "internalType": "contract IJBTiered721DelegateStore",
          "name": "_store",
          "type": "address"
        },
        {
          "components": [
            {
              "internalType": "bool",
              "name": "lockReservedTokenChanges",
              "type": "bool"
            },
            {
              "internalType": "bool",
              "name": "lockVotingUnitChanges",
              "type": "bool"
            },
            {
              "internalType": "bool",
              "name": "lockManualMintingChanges",
              "type": "bool"
            },
            {
              "internalType": "bool",
              "name": "preventOverspending",
              "type": "bool"
            }
          ],
          "internalType": "struct JBTiered721Flags",
          "name": "_flags",
          "type": "tuple"
        }
      ],
      "name": "initialize",
      "outputs": [],
      "stateMutability": "nonpayable",
      "type": "function"
    },
    {
      "inputs": [
        {
          "internalType": "uint256",
          "name": "_projectId",
          "type": "uint256"
        },
        {
          "internalType": "contract IJBDirectory",
          "name": "_directory",
          "type": "address"
        },
        {
          "internalType": "string",
          "name": "_name",
          "type": "string"
        },
        {
          "internalType": "string",
          "name": "_symbol",
          "type": "string"
        },
        {
          "internalType": "contract IJBFundingCycleStore",
          "name": "_fundingCycleStore",
          "type": "address"
        },
        {
          "internalType": "string",
          "name": "_baseUri",
          "type": "string"
        },
        {
          "internalType": "contract IJBTokenUriResolver",
          "name": "_tokenUriResolver",
          "type": "address"
        },
        {
          "internalType": "string",
          "name": "_contractUri",
          "type": "string"
        },
        {
          "components": [
            {
              "components": [
                {
                  "internalType": "uint80",
                  "name": "contributionFloor",
                  "type": "uint80"
                },
                {
                  "internalType": "uint48",
                  "name": "lockedUntil",
                  "type": "uint48"
                },
                {
                  "internalType": "uint40",
                  "name": "initialQuantity",
                  "type": "uint40"
                },
                {
                  "internalType": "uint16",
                  "name": "votingUnits",
                  "type": "uint16"
                },
                {
                  "internalType": "uint16",
                  "name": "reservedRate",
                  "type": "uint16"
                },
                {
                  "internalType": "address",
                  "name": "reservedTokenBeneficiary",
                  "type": "address"
                },
                {
                  "internalType": "uint8",
                  "name": "royaltyRate",
                  "type": "uint8"
                },
                {
                  "internalType": "address",
                  "name": "royaltyBeneficiary",
                  "type": "address"
                },
                {
                  "internalType": "bytes32",
                  "name": "encodedIPFSUri",
                  "type": "bytes32"
                },
                {
                  "internalType": "uint8",
                  "name": "category",
                  "type": "uint8"
                },
                {
                  "internalType": "bool",
                  "name": "allowManualMint",
                  "type": "bool"
                },
                {
                  "internalType": "bool",
                  "name": "shouldUseReservedTokenBeneficiaryAsDefault",
                  "type": "bool"
                },
                {
                  "internalType": "bool",
                  "name": "shouldUseRoyaltyBeneficiaryAsDefault",
                  "type": "bool"
                },
                {
                  "internalType": "bool",
                  "name": "transfersPausable",
                  "type": "bool"
                }
              ],
              "internalType": "struct JB721TierParams[]",
              "name": "tiers",
              "type": "tuple[]"
            },
            {
              "internalType": "uint256",
              "name": "currency",
              "type": "uint256"
            },
            {
              "internalType": "uint256",
              "name": "decimals",
              "type": "uint256"
            },
            {
              "internalType": "contract IJBPrices",
              "name": "prices",
              "type": "address"
            }
          ],
          "internalType": "struct JB721PricingParams",
          "name": "_pricing",
          "type": "tuple"
        },
        {
          "internalType": "contract IJBTiered721DelegateStore",
          "name": "_store",
          "type": "address"
        },
        {
          "components": [
            {
              "internalType": "bool",
              "name": "lockReservedTokenChanges",
              "type": "bool"
            },
            {
              "internalType": "bool",
              "name": "lockVotingUnitChanges",
              "type": "bool"
            },
            {
              "internalType": "bool",
              "name": "lockManualMintingChanges",
              "type": "bool"
            },
            {
              "internalType": "bool",
              "name": "preventOverspending",
              "type": "bool"
            }
          ],
          "internalType": "struct JBTiered721Flags",
          "name": "_flags",
          "type": "tuple"
        },
        {
          "internalType": "contract ITypeface",
          "name": "_typeface",
          "type": "address"
        }
      ],
      "name": "initialize",
      "outputs": [],
      "stateMutability": "nonpayable",
      "type": "function"
    },
    {
      "inputs": [
        {
          "internalType": "address",
          "name": "owner",
          "type": "address"
        },
        {
          "internalType": "address",
          "name": "operator",
          "type": "address"
        }
      ],
      "name": "isApprovedForAll",
      "outputs": [
        {
          "internalType": "bool",
          "name": "",
          "type": "bool"
        }
      ],
      "stateMutability": "view",
      "type": "function"
    },
    {
      "inputs": [
        {
          "components": [
            {
              "internalType": "uint16[]",
              "name": "tierIds",
              "type": "uint16[]"
            },
            {
              "internalType": "address",
              "name": "beneficiary",
              "type": "address"
            }
          ],
          "internalType": "struct JBTiered721MintForTiersData[]",
          "name": "_mintForTiersData",
          "type": "tuple[]"
        }
      ],
      "name": "mintFor",
      "outputs": [],
      "stateMutability": "nonpayable",
      "type": "function"
    },
    {
      "inputs": [
        {
          "internalType": "uint16[]",
          "name": "_tierIds",
          "type": "uint16[]"
        },
        {
          "internalType": "address",
          "name": "_beneficiary",
          "type": "address"
        }
      ],
      "name": "mintFor",
      "outputs": [
        {
          "internalType": "uint256[]",
          "name": "tokenIds",
          "type": "uint256[]"
        }
      ],
      "stateMutability": "nonpayable",
      "type": "function"
    },
    {
      "inputs": [
        {
          "components": [
            {
              "internalType": "uint256",
              "name": "tierId",
              "type": "uint256"
            },
            {
              "internalType": "uint256",
              "name": "count",
              "type": "uint256"
            }
          ],
          "internalType": "struct JBTiered721MintReservesForTiersData[]",
          "name": "_mintReservesForTiersData",
          "type": "tuple[]"
        }
      ],
      "name": "mintReservesFor",
      "outputs": [],
      "stateMutability": "nonpayable",
      "type": "function"
    },
    {
      "inputs": [
        {
          "internalType": "uint256",
          "name": "_tierId",
          "type": "uint256"
        },
        {
          "internalType": "uint256",
          "name": "_count",
          "type": "uint256"
        }
      ],
      "name": "mintReservesFor",
      "outputs": [],
      "stateMutability": "nonpayable",
      "type": "function"
    },
    {
      "inputs": [],
      "name": "name",
      "outputs": [
        {
          "internalType": "string",
          "name": "",
          "type": "string"
        }
      ],
      "stateMutability": "view",
      "type": "function"
    },
    {
      "inputs": [],
      "name": "owner",
      "outputs": [
        {
          "internalType": "address",
          "name": "",
          "type": "address"
        }
      ],
      "stateMutability": "view",
      "type": "function"
    },
    {
      "inputs": [
        {
          "internalType": "uint256",
          "name": "tokenId",
          "type": "uint256"
        }
      ],
      "name": "ownerOf",
      "outputs": [
        {
          "internalType": "address",
          "name": "",
          "type": "address"
        }
      ],
      "stateMutability": "view",
      "type": "function"
    },
    {
      "inputs": [
        {
          "components": [
            {
              "internalType": "contract IJBPaymentTerminal",
              "name": "terminal",
              "type": "address"
            },
            {
              "internalType": "address",
              "name": "payer",
              "type": "address"
            },
            {
              "components": [
                {
                  "internalType": "address",
                  "name": "token",
                  "type": "address"
                },
                {
                  "internalType": "uint256",
                  "name": "value",
                  "type": "uint256"
                },
                {
                  "internalType": "uint256",
                  "name": "decimals",
                  "type": "uint256"
                },
                {
                  "internalType": "uint256",
                  "name": "currency",
                  "type": "uint256"
                }
              ],
              "internalType": "struct JBTokenAmount",
              "name": "amount",
              "type": "tuple"
            },
            {
              "internalType": "uint256",
              "name": "projectId",
              "type": "uint256"
            },
            {
              "internalType": "uint256",
              "name": "currentFundingCycleConfiguration",
              "type": "uint256"
            },
            {
              "internalType": "address",
              "name": "beneficiary",
              "type": "address"
            },
            {
              "internalType": "uint256",
              "name": "weight",
              "type": "uint256"
            },
            {
              "internalType": "uint256",
              "name": "reservedRate",
              "type": "uint256"
            },
            {
              "internalType": "string",
              "name": "memo",
              "type": "string"
            },
            {
              "internalType": "bytes",
              "name": "metadata",
              "type": "bytes"
            }
          ],
          "internalType": "struct JBPayParamsData",
          "name": "_data",
          "type": "tuple"
        }
      ],
      "name": "payParams",
      "outputs": [
        {
          "internalType": "uint256",
          "name": "weight",
          "type": "uint256"
        },
        {
          "internalType": "string",
          "name": "memo",
          "type": "string"
        },
        {
          "components": [
            {
              "internalType": "contract IJBPayDelegate",
              "name": "delegate",
              "type": "address"
            },
            {
              "internalType": "uint256",
              "name": "amount",
              "type": "uint256"
            }
          ],
          "internalType": "struct JBPayDelegateAllocation[]",
          "name": "delegateAllocations",
          "type": "tuple[]"
        }
      ],
      "stateMutability": "view",
      "type": "function"
    },
    {
      "inputs": [],
      "name": "prices",
      "outputs": [
        {
          "internalType": "contract IJBPrices",
          "name": "",
          "type": "address"
        }
      ],
      "stateMutability": "view",
      "type": "function"
    },
    {
      "inputs": [],
      "name": "pricingCurrency",
      "outputs": [
        {
          "internalType": "uint256",
          "name": "",
          "type": "uint256"
        }
      ],
      "stateMutability": "view",
      "type": "function"
    },
    {
      "inputs": [],
      "name": "pricingDecimals",
      "outputs": [
        {
          "internalType": "uint256",
          "name": "",
          "type": "uint256"
        }
      ],
      "stateMutability": "view",
      "type": "function"
    },
    {
      "inputs": [],
      "name": "projectId",
      "outputs": [
        {
          "internalType": "uint256",
          "name": "",
          "type": "uint256"
        }
      ],
      "stateMutability": "view",
      "type": "function"
    },
    {
      "inputs": [
        {
          "components": [
            {
              "internalType": "contract IJBPaymentTerminal",
              "name": "terminal",
              "type": "address"
            },
            {
              "internalType": "address",
              "name": "holder",
              "type": "address"
            },
            {
              "internalType": "uint256",
              "name": "projectId",
              "type": "uint256"
            },
            {
              "internalType": "uint256",
              "name": "currentFundingCycleConfiguration",
              "type": "uint256"
            },
            {
              "internalType": "uint256",
              "name": "tokenCount",
              "type": "uint256"
            },
            {
              "internalType": "uint256",
              "name": "totalSupply",
              "type": "uint256"
            },
            {
              "internalType": "uint256",
              "name": "overflow",
              "type": "uint256"
            },
            {
              "components": [
                {
                  "internalType": "address",
                  "name": "token",
                  "type": "address"
                },
                {
                  "internalType": "uint256",
                  "name": "value",
                  "type": "uint256"
                },
                {
                  "internalType": "uint256",
                  "name": "decimals",
                  "type": "uint256"
                },
                {
                  "internalType": "uint256",
                  "name": "currency",
                  "type": "uint256"
                }
              ],
              "internalType": "struct JBTokenAmount",
              "name": "reclaimAmount",
              "type": "tuple"
            },
            {
              "internalType": "bool",
              "name": "useTotalOverflow",
              "type": "bool"
            },
            {
              "internalType": "uint256",
              "name": "redemptionRate",
              "type": "uint256"
            },
            {
              "internalType": "string",
              "name": "memo",
              "type": "string"
            },
            {
              "internalType": "bytes",
              "name": "metadata",
              "type": "bytes"
            }
          ],
          "internalType": "struct JBRedeemParamsData",
          "name": "_data",
          "type": "tuple"
        }
      ],
      "name": "redeemParams",
      "outputs": [
        {
          "internalType": "uint256",
          "name": "reclaimAmount",
          "type": "uint256"
        },
        {
          "internalType": "string",
          "name": "memo",
          "type": "string"
        },
        {
          "components": [
            {
              "internalType": "contract IJBRedemptionDelegate",
              "name": "delegate",
              "type": "address"
            },
            {
              "internalType": "uint256",
              "name": "amount",
              "type": "uint256"
            }
          ],
          "internalType": "struct JBRedemptionDelegateAllocation[]",
          "name": "delegateAllocations",
          "type": "tuple[]"
        }
      ],
      "stateMutability": "view",
      "type": "function"
    },
    {
      "inputs": [
        {
          "internalType": "uint256[]",
          "name": "_tokenIds",
          "type": "uint256[]"
        },
        {
          "components": [
            {
              "internalType": "contract IJBPaymentTerminal",
              "name": "terminal",
              "type": "address"
            },
            {
              "internalType": "address",
              "name": "holder",
              "type": "address"
            },
            {
              "internalType": "uint256",
              "name": "projectId",
              "type": "uint256"
            },
            {
              "internalType": "uint256",
              "name": "currentFundingCycleConfiguration",
              "type": "uint256"
            },
            {
              "internalType": "uint256",
              "name": "tokenCount",
              "type": "uint256"
            },
            {
              "internalType": "uint256",
              "name": "totalSupply",
              "type": "uint256"
            },
            {
              "internalType": "uint256",
              "name": "overflow",
              "type": "uint256"
            },
            {
              "components": [
                {
                  "internalType": "address",
                  "name": "token",
                  "type": "address"
                },
                {
                  "internalType": "uint256",
                  "name": "value",
                  "type": "uint256"
                },
                {
                  "internalType": "uint256",
                  "name": "decimals",
                  "type": "uint256"
                },
                {
                  "internalType": "uint256",
                  "name": "currency",
                  "type": "uint256"
                }
              ],
              "internalType": "struct JBTokenAmount",
              "name": "reclaimAmount",
              "type": "tuple"
            },
            {
              "internalType": "bool",
              "name": "useTotalOverflow",
              "type": "bool"
            },
            {
              "internalType": "uint256",
              "name": "redemptionRate",
              "type": "uint256"
            },
            {
              "internalType": "string",
              "name": "memo",
              "type": "string"
            },
            {
              "internalType": "bytes",
              "name": "metadata",
              "type": "bytes"
            }
          ],
          "internalType": "struct JBRedeemParamsData",
          "name": "",
          "type": "tuple"
        }
      ],
      "name": "redemptionWeightOf",
      "outputs": [
        {
          "internalType": "uint256",
          "name": "cumulativeWeight",
          "type": "uint256"
        }
      ],
      "stateMutability": "view",
      "type": "function"
    },
    {
      "inputs": [],
      "name": "renounceOwnership",
      "outputs": [],
      "stateMutability": "nonpayable",
      "type": "function"
    },
    {
      "inputs": [
        {
          "internalType": "uint256",
          "name": "_tokenId",
          "type": "uint256"
        },
        {
          "internalType": "uint256",
          "name": "_salePrice",
          "type": "uint256"
        }
      ],
      "name": "royaltyInfo",
      "outputs": [
        {
          "internalType": "address",
          "name": "receiver",
          "type": "address"
        },
        {
          "internalType": "uint256",
          "name": "royaltyAmount",
          "type": "uint256"
        }
      ],
      "stateMutability": "view",
      "type": "function"
    },
    {
      "inputs": [
        {
          "internalType": "address",
          "name": "from",
          "type": "address"
        },
        {
          "internalType": "address",
          "name": "to",
          "type": "address"
        },
        {
          "internalType": "uint256",
          "name": "tokenId",
          "type": "uint256"
        }
      ],
      "name": "safeTransferFrom",
      "outputs": [],
      "stateMutability": "nonpayable",
      "type": "function"
    },
    {
      "inputs": [
        {
          "internalType": "address",
          "name": "from",
          "type": "address"
        },
        {
          "internalType": "address",
          "name": "to",
          "type": "address"
        },
        {
          "internalType": "uint256",
          "name": "tokenId",
          "type": "uint256"
        },
        {
          "internalType": "bytes",
          "name": "data",
          "type": "bytes"
        }
      ],
      "name": "safeTransferFrom",
      "outputs": [],
      "stateMutability": "nonpayable",
      "type": "function"
    },
    {
      "inputs": [
        {
          "internalType": "address",
          "name": "operator",
          "type": "address"
        },
        {
          "internalType": "bool",
          "name": "approved",
          "type": "bool"
        }
      ],
      "name": "setApprovalForAll",
      "outputs": [],
      "stateMutability": "nonpayable",
      "type": "function"
    },
    {
      "inputs": [
        {
          "internalType": "string",
          "name": "_baseUri",
          "type": "string"
        }
      ],
      "name": "setBaseUri",
      "outputs": [],
      "stateMutability": "nonpayable",
      "type": "function"
    },
    {
      "inputs": [
        {
          "internalType": "string",
          "name": "_contractUri",
          "type": "string"
        }
      ],
      "name": "setContractUri",
      "outputs": [],
      "stateMutability": "nonpayable",
      "type": "function"
    },
    {
      "inputs": [
        {
          "internalType": "address",
          "name": "_beneficiary",
          "type": "address"
        }
      ],
      "name": "setDefaultReservedTokenBeneficiary",
      "outputs": [],
      "stateMutability": "nonpayable",
      "type": "function"
    },
    {
      "inputs": [
        {
          "internalType": "uint256",
          "name": "_tierId",
          "type": "uint256"
        },
        {
          "internalType": "bytes32",
          "name": "_encodedIPFSUri",
          "type": "bytes32"
        }
      ],
      "name": "setEncodedIPFSUriOf",
      "outputs": [],
      "stateMutability": "nonpayable",
      "type": "function"
    },
    {
      "inputs": [
        {
          "internalType": "address",
          "name": "_delegatee",
          "type": "address"
        },
        {
          "internalType": "uint256",
          "name": "_tierId",
          "type": "uint256"
        }
      ],
      "name": "setTierDelegate",
      "outputs": [],
      "stateMutability": "nonpayable",
      "type": "function"
    },
    {
      "inputs": [
        {
          "components": [
            {
              "internalType": "address",
              "name": "delegatee",
              "type": "address"
            },
            {
              "internalType": "uint256",
              "name": "tierId",
              "type": "uint256"
            }
          ],
          "internalType": "struct JBTiered721SetTierDelegatesData[]",
          "name": "_setTierDelegatesData",
          "type": "tuple[]"
        }
      ],
      "name": "setTierDelegates",
      "outputs": [],
      "stateMutability": "nonpayable",
      "type": "function"
    },
    {
      "inputs": [
        {
          "components": [
            {
              "internalType": "uint256",
              "name": "id",
              "type": "uint256"
            },
            {
              "internalType": "uint256",
              "name": "redemptionWeight",
              "type": "uint256"
            }
          ],
          "internalType": "struct DefifaTierRedemptionWeight[]",
          "name": "_tierWeights",
          "type": "tuple[]"
        }
      ],
      "name": "setTierRedemptionWeights",
      "outputs": [],
      "stateMutability": "nonpayable",
      "type": "function"
    },
    {
      "inputs": [
        {
          "internalType": "contract IJBTokenUriResolver",
          "name": "_tokenUriResolver",
          "type": "address"
        }
      ],
      "name": "setTokenUriResolver",
      "outputs": [],
      "stateMutability": "nonpayable",
      "type": "function"
    },
    {
      "inputs": [],
      "name": "store",
      "outputs": [
        {
          "internalType": "contract IJBTiered721DelegateStore",
          "name": "",
          "type": "address"
        }
      ],
      "stateMutability": "view",
      "type": "function"
    },
    {
      "inputs": [
        {
          "internalType": "bytes4",
          "name": "_interfaceId",
          "type": "bytes4"
        }
      ],
      "name": "supportsInterface",
      "outputs": [
        {
          "internalType": "bool",
          "name": "",
          "type": "bool"
        }
      ],
      "stateMutability": "view",
      "type": "function"
    },
    {
      "inputs": [],
      "name": "symbol",
      "outputs": [
        {
          "internalType": "string",
          "name": "",
          "type": "string"
        }
      ],
      "stateMutability": "view",
      "type": "function"
    },
    {
      "inputs": [],
      "name": "tierRedemptionWeights",
      "outputs": [
        {
          "internalType": "uint256[128]",
          "name": "",
          "type": "uint256[128]"
        }
      ],
      "stateMutability": "view",
      "type": "function"
    },
    {
      "inputs": [
        {
          "internalType": "uint256",
          "name": "_tokenId",
          "type": "uint256"
        }
      ],
      "name": "tokenURI",
      "outputs": [
        {
          "internalType": "string",
          "name": "",
          "type": "string"
        }
      ],
      "stateMutability": "view",
      "type": "function"
    },
    {
      "inputs": [
        {
          "components": [
            {
              "internalType": "contract IJBPaymentTerminal",
              "name": "terminal",
              "type": "address"
            },
            {
              "internalType": "address",
              "name": "holder",
              "type": "address"
            },
            {
              "internalType": "uint256",
              "name": "projectId",
              "type": "uint256"
            },
            {
              "internalType": "uint256",
              "name": "currentFundingCycleConfiguration",
              "type": "uint256"
            },
            {
              "internalType": "uint256",
              "name": "tokenCount",
              "type": "uint256"
            },
            {
              "internalType": "uint256",
              "name": "totalSupply",
              "type": "uint256"
            },
            {
              "internalType": "uint256",
              "name": "overflow",
              "type": "uint256"
            },
            {
              "components": [
                {
                  "internalType": "address",
                  "name": "token",
                  "type": "address"
                },
                {
                  "internalType": "uint256",
                  "name": "value",
                  "type": "uint256"
                },
                {
                  "internalType": "uint256",
                  "name": "decimals",
                  "type": "uint256"
                },
                {
                  "internalType": "uint256",
                  "name": "currency",
                  "type": "uint256"
                }
              ],
              "internalType": "struct JBTokenAmount",
              "name": "reclaimAmount",
              "type": "tuple"
            },
            {
              "internalType": "bool",
              "name": "useTotalOverflow",
              "type": "bool"
            },
            {
              "internalType": "uint256",
              "name": "redemptionRate",
              "type": "uint256"
            },
            {
              "internalType": "string",
              "name": "memo",
              "type": "string"
            },
            {
              "internalType": "bytes",
              "name": "metadata",
              "type": "bytes"
            }
          ],
          "internalType": "struct JBRedeemParamsData",
          "name": "",
          "type": "tuple"
        }
      ],
      "name": "totalRedemptionWeight",
      "outputs": [
        {
          "internalType": "uint256",
          "name": "",
          "type": "uint256"
        }
      ],
      "stateMutability": "view",
      "type": "function"
    },
    {
      "inputs": [
        {
          "internalType": "address",
          "name": "from",
          "type": "address"
        },
        {
          "internalType": "address",
          "name": "to",
          "type": "address"
        },
        {
          "internalType": "uint256",
          "name": "tokenId",
          "type": "uint256"
        }
      ],
      "name": "transferFrom",
      "outputs": [],
      "stateMutability": "nonpayable",
      "type": "function"
    },
    {
      "inputs": [
        {
          "internalType": "address",
          "name": "newOwner",
          "type": "address"
        }
      ],
      "name": "transferOwnership",
      "outputs": [],
      "stateMutability": "nonpayable",
      "type": "function"
    },
    {
      "inputs": [],
      "name": "typeface",
      "outputs": [
        {
          "internalType": "contract ITypeface",
          "name": "",
          "type": "address"
        }
      ],
      "stateMutability": "view",
      "type": "function"
    }
  ],
  "bytecode": {
    "object": "0x60806040523480156200001157600080fd5b506200001d3362000035565b600880546001600160a01b0319163017905562000087565b600780546001600160a01b038381166001600160a01b0319831681179093556040519116919082907f8be0079c531659141344cd1fd0a4f28419497f9722a3daafe3b4186f6b6457e090600090a35050565b616f5a80620000976000396000f3fe6080604052600436106103815760003560e01c806382732b6d116101d1578063c74b13d911610102578063d3419bf3116100a0578063df487e261161006f578063df487e2614610a82578063e8a3d48514610aa2578063e985e9c514610ab7578063f2fde38b14610b0057600080fd5b8063d3419bf314610a0f578063d40e714614610a2f578063d46cf17114610a4f578063da9ee8b714610a6f57600080fd5b8063ccb4807b116100dc578063ccb4807b1461098f578063d1704baf146109af578063d1c32934146109cf578063d31cc52c146109ef57600080fd5b8063c74b13d91461092f578063c87b56dd1461094f578063ca323efe1461096f57600080fd5b8063a0bcfc7f1161016f578063aa4fb15b11610149578063aa4fb15b146108af578063ab951e39146108cf578063b88d4fde146108ef578063c41c2f241461090f57600080fd5b8063a0bcfc7f14610840578063a22cb46514610860578063a51cfd181461088057600080fd5b806394c5c5ca116101ab57806394c5c5ca146107c957806395d89b41146107e9578063975057e7146107fe5780639df454681461081e57600080fd5b806382732b6d146107445780638da5cb5b146107875780639494bf72146107a557600080fd5b80633fafa127116102b65780636352211e1161025457806370a082311161022357806370a08231146106da578063715018a6146106fa57806379a753191461070f5780637ba62bf91461072457600080fd5b80636352211e1461065f578063640abacd1461067f57806364640c1e146106975780636ac6d941146106ad57600080fd5b80634ecba625116102905780634ecba625146105e9578063525350ba146105ff57806354c6d1f51461061f578063557e71551461063f57600080fd5b80633fafa1271461059357806342842e0e146105a95780634d5a1d11146105c957600080fd5b8063245a45b5116103235780632a596e53116102fd5780632a596e53146105205780632b13c58f146105405780632f4415001461055357806336c1a93b1461057357600080fd5b8063245a45b51461049757806325eb91ee146104d25780632a55205a146104f257600080fd5b8063095ea7b31161035f578063095ea7b3146104155780631d153ca41461043757806323b872dd146104575780632407497e1461047757600080fd5b806301ffc9a71461038657806306fdde03146103bb578063081812fc146103dd575b600080fd5b34801561039257600080fd5b506103a66103a1366004614637565b610b20565b60405190151581526020015b60405180910390f35b3480156103c757600080fd5b506103d0610b4b565b6040516103b291906146a4565b3480156103e957600080fd5b506103fd6103f83660046146b7565b610bdd565b6040516001600160a01b0390911681526020016103b2565b34801561042157600080fd5b506104356104303660046146f5565b610c04565b005b34801561044357600080fd5b506008546103fd906001600160a01b031681565b34801561046357600080fd5b50610435610472366004614721565b610c90565b34801561048357600080fd5b50610435610492366004614762565b610cc2565b3480156104a357600080fd5b506104c46104b2366004614762565b600e6020526000908152604090205481565b6040519081526020016103b2565b3480156104de57600080fd5b506104356104ed3660046147c3565b610d6b565b3480156104fe57600080fd5b5061051261050d36600461485d565b610f4e565b6040516103b292919061487f565b34801561052c57600080fd5b5061043561053b366004614898565b61107f565b61043561054e366004614925565b6110d8565b34801561055f57600080fd5b5061043561056e366004614a82565b6113ec565b34801561057f57600080fd5b5061043561058e366004614b22565b61160c565b34801561059f57600080fd5b506104c460055481565b3480156105b557600080fd5b506104356105c4366004614721565b61166e565b3480156105d557600080fd5b506094546103fd906001600160a01b031681565b3480156105f557600080fd5b506104c4600d5481565b34801561060b57600080fd5b5061043561061a36600461485d565b611689565b34801561062b57600080fd5b506103fd61063a3660046146b7565b611735565b34801561064b57600080fd5b50600a546103fd906001600160a01b031681565b34801561066b57600080fd5b506103fd61067a3660046146b7565b6117e1565b34801561068b57600080fd5b506104c4633b9aca0081565b3480156106a357600080fd5b506104c4600c5481565b3480156106b957600080fd5b506106cd6106c8366004614b63565b611817565b6040516103b29190614bb9565b3480156106e657600080fd5b506104c46106f5366004614762565b61195d565b34801561070657600080fd5b506104356119d2565b34801561071b57600080fd5b506104c460c881565b34801561073057600080fd5b506104c461073f366004614c63565b6119e6565b34801561075057600080fd5b506103fd61075f3660046146f5565b6001600160a01b039182166000908152600f6020908152604080832093835292905220541690565b34801561079357600080fd5b506007546001600160a01b03166103fd565b3480156107b157600080fd5b506104c46107c0366004614925565b50633b9aca0090565b3480156107d557600080fd5b506104c46107e43660046146b7565b611b9d565b3480156107f557600080fd5b506103d0611bb4565b34801561080a57600080fd5b506009546103fd906001600160a01b031681565b34801561082a57600080fd5b50610833611bc3565b6040516103b29190614cc6565b34801561084c57600080fd5b5061043561085b366004614cf8565b611bff565b34801561086c57600080fd5b5061043561087b366004614d70565b611cb2565b34801561088c57600080fd5b506108a061089b366004614925565b611cc1565b6040516103b293929190614da9565b3480156108bb57600080fd5b506104356108ca36600461485d565b612001565b3480156108db57600080fd5b506104356108ea3660046146f5565b61221e565b3480156108fb57600080fd5b5061043561090a366004614e7b565b612229565b34801561091b57600080fd5b506006546103fd906001600160a01b031681565b34801561093b57600080fd5b5061043561094a366004614efa565b61225c565b34801561095b57600080fd5b506103d061096a3660046146b7565b6122e0565b34801561097b57600080fd5b506104c461098a3660046146f5565b6125ed565b34801561099b57600080fd5b506104356109aa366004614cf8565b612620565b3480156109bb57600080fd5b506104356109ca36600461524d565b6126d3565b3480156109db57600080fd5b506104356109ea366004615386565b6129c5565b3480156109fb57600080fd5b506104c4610a0a36600461485d565b612a05565b348015610a1b57600080fd5b50600b546103fd906001600160a01b031681565b348015610a3b57600080fd5b506104c4610a4a3660046154e9565b612a1d565b348015610a5b57600080fd5b506108a0610a6a36600461551e565b612a52565b610435610a7d366004615559565b612b35565b348015610a8e57600080fd5b50610435610a9d366004614762565b612bec565b348015610aae57600080fd5b506103d0612c8e565b348015610ac357600080fd5b506103a6610ad2366004615594565b6001600160a01b03918216600090815260046020908152604080832093909416825291909152205460ff1690565b348015610b0c57600080fd5b50610435610b1b366004614762565b612d04565b60006001600160e01b031982166306decc2d60e21b1480610b455750610b4582612d82565b92915050565b606060008054610b5a906155c2565b80601f0160208091040260200160405190810160405280929190818152602001828054610b86906155c2565b8015610bd35780601f10610ba857610100808354040283529160200191610bd3565b820191906000526020600020905b815481529060010190602001808311610bb657829003601f168201915b5050505050905090565b6000610be882612e13565b506000908152600360205260409020546001600160a01b031690565b6000610c0f826117e1565b9050806001600160a01b0316836001600160a01b031603610c435760405163133f8be960e01b815260040160405180910390fd5b336001600160a01b03821614801590610c635750610c618133610ad2565b155b15610c815760405163e5fa0e3560e01b815260040160405180910390fd5b610c8b8383612e48565b505050565b610c9a3382612eb6565b610cb75760405163e5fa0e3560e01b815260040160405180910390fd5b610c8b838383612f34565b610cca61300d565b60095460405163036129cb60e61b81526001600160a01b0383811660048301529091169063d84a72c090602401600060405180830381600087803b158015610d1157600080fd5b505af1158015610d25573d6000803e3d6000fd5b50506040513381526001600160a01b03841692507fe7784d93cfbfa4408e19577e6cc0436f4dbb51214b70e100905dfce9def88c1691506020015b60405180910390a250565b610d7361300d565b82818015610e43576009546040516320512ba160e01b81526001600160a01b03909116906320512ba190610dad90879087906004016155f6565b600060405180830381600087803b158015610dc757600080fd5b505af1158015610ddb573d6000803e3d6000fd5b5050505060005b81811015610e4157848482818110610dfc57610dfc61562f565b60405133815260209182029390930135927f832d89d991be5351d793c20faf4b7dd44f8aa9ce39e3cb160c6317de6fbba72992500160405180910390a2600101610de2565b505b8115610f465760095460405163229dad5f60e11b81526000916001600160a01b03169063453b5abe90610e7c908a908a9060040161577b565b6000604051808303816000875af1158015610e9b573d6000803e3d6000fd5b505050506040513d6000823e601f3d908101601f19168201604052610ec39190810190615819565b905060005b83811015610f4357818181518110610ee257610ee261562f565b60200260200101517f8aa4a03deb8db10032373886aa0376c918ccf36bcdb59ca4da2a807ac7ff1a04898984818110610f1d57610f1d61562f565b90506101c0020133604051610f3392919061584d565b60405180910390a2600101610ec8565b50505b505050505050565b600954604051633a39e4d160e11b8152600091829182916001600160a01b031690637473c9a290610f85903090899060040161487f565b6101c060405180830381865afa158015610fa3573d6000803e3d6000fd5b505050506040513d601f19601f82011682018060405250810190610fc7919061588b565b600954815160405163792d5f6d60e11b81529293506000926001600160a01b039092169163f25abeda916110009130919060040161487f565b602060405180830381865afa15801561101d573d6000803e3d6000fd5b505050506040513d601f19601f820116820180604052508101906110419190615955565b90506001600160a01b03811661105f57600080935093505050611078565b806110718684610100015160c8613067565b9350935050505b9250929050565b8060005b818110156110d257600084848381811061109f5761109f61562f565b9050604002018036038101906110b59190615972565b90506110c981600001518260200151612001565b50600101611083565b50505050565b3415158061115a5750600654600554604051636e49181f60e01b815260048101919091523360248201526001600160a01b0390911690636e49181f90604401602060405180830381865afa158015611134573d6000803e3d6000fd5b505050506040513d601f19601f82011682018060405250810190611158919061598e565b155b8061116b5750600554816020013514155b1561118957604051633efca5c360e11b815260040160405180910390fd5b60246111996101c08301836159ab565b905010806111dd575063b3bcbb7960e01b6111b86101c08301836159ab565b6111c7916024916020916159f1565b6111d091615a1b565b6001600160e01b03191614155b156111fb57604051632a84050f60e01b815260040160405180910390fd5b600061120b6101c08301836159ab565b8101906112189190615a4b565b8051600a546005546040516321d1336160e11b815260048101919091529295509093506000925082916001600160a01b03909116906343a266c29060240161012060405180830381865afa158015611274573d6000803e3d6000fd5b505050506040513d601f19601f820116820180604052508101906112989190615aa3565b805190915060041460005b848110156113b6578581815181106112bd576112bd61562f565b602002602001015193508660000160208101906112da9190614762565b6000858152600260205260409020546001600160a01b039081169116146113145760405163075fd2b160e01b815260040160405180910390fd5b61131d84613134565b81156113ae576009546040516342f9914b60e01b8152600481018690526093916000916001600160a01b03909116906342f9914b90602401602060405180830381865afa158015611372573d6000803e3d6000fd5b505050506040513d601f19601f820116820180604052508101906113969190615b23565b81526020810191909152604001600020805460010190555b6001016112a3565b506113c0856131b5565b8015610f46578560800160200135609260008282546113df9190615b52565b9091555050505050505050565b6113f461300d565b600a546005546040516321d1336160e11b81526004926001600160a01b0316916343a266c29161142a9190850190815260200190565b61012060405180830381865afa158015611448573d6000803e3d6000fd5b505050506040513d601f19601f8201168201806040525081019061146c9190615aa3565b51101561148c576040516303e08a3560e61b815260040160405180910390fd5b611498601260006145de565b60095460405163f1bea54f60e01b81523060048201526000916001600160a01b03169063f1bea54f90602401602060405180830381865afa1580156114e1573d6000803e3d6000fd5b505050506040513d601f19601f820116820180604052508101906115059190615b23565b8251909150600090815b818110156115e6578385828151811061152a5761152a61562f565b60200260200101516000015111156115555760405163148e14dd60e21b815260040160405180910390fd5b8481815181106115675761156761562f565b602002602001015160200151601260018784815181106115895761158961562f565b60200260200101516000015161159f9190615b65565b608081106115af576115af61562f565b015584518590829081106115c5576115c561562f565b602002602001015160200151836115dc9190615b52565b925060010161150f565b50633b9aca008211156110d257604051636ff44e9760e01b815260040160405180910390fd5b61161461300d565b8060005b818110156110d257368484838181106116335761163361562f565b90506020028101906116459190615b78565b90506116646116548280615b98565b6106c86040850160208601614762565b5050600101611618565b610c8b83838360405180602001604052806000815250612229565b61169161300d565b6009546040516324de8d6360e11b815260048101849052602481018390526001600160a01b03909116906349bd1ac690604401600060405180830381600087803b1580156116de57600080fd5b505af11580156116f2573d6000803e3d6000fd5b5050604080518481523360208201528593507f677da4fed654db8e604791fa2582f342e2001aa217e27f6985eb3e0f67e5a7fc9250015b60405180910390a25050565b6009546040516308ed6c0160e41b815260009182916001600160a01b0390911690638ed6c0109061176c903090879060040161487f565b602060405180830381865afa158015611789573d6000803e3d6000fd5b505050506040513d601f19601f820116820180604052508101906117ad9190615955565b90506001600160a01b038116156117c45792915050565b50506000908152600260205260409020546001600160a01b031690565b6000818152600260205260408120546001600160a01b031680610b455760405163b49aa3b560e01b815260040160405180910390fd5b606061182161300d565b60095460405163eaa19ab360e01b81526001600160a01b039091169063eaa19ab39061185a906000199088908890600190600401615be1565b6000604051808303816000875af1158015611879573d6000803e3d6000fd5b505050506040513d6000823e601f3d908101601f191682016040526118a19190810190615c3e565b509050826000805b82811015611953578381815181106118c3576118c361562f565b602002602001015191506118d7858361321a565b846001600160a01b03168787838181106118f3576118f361562f565b90506020020160208101906119089190615c84565b604080516000815233602082015261ffff929092169185917f598baf7bf150ca2f42be9e9f8f55e81d45f5715c3ff22bf46d697fabec7f31d6910160405180910390a46001016118a9565b5050509392505050565b600954604051633de222bb60e21b81523060048201526001600160a01b038381166024830152600092169063f7888aec90604401602060405180830381865afa1580156119ae573d6000803e3d6000fd5b505050506040513d601f19601f82011682018060405250810190610b459190615b23565b6119da61300d565b6119e460006132e4565b565b8151600090815b81811015611b745760095485516000916001600160a01b0316906342f9914b90889085908110611a1f57611a1f61562f565b60200260200101516040518263ffffffff1660e01b8152600401611a4591815260200190565b602060405180830381865afa158015611a62573d6000803e3d6000fd5b505050506040513d601f19601f82011682018060405250810190611a869190615b23565b600954604051633a39e4d160e11b81529192506000916001600160a01b0390911690637473c9a290611abe903090869060040161487f565b6101c060405180830381865afa158015611adc573d6000803e3d6000fd5b505050506040513d601f19601f82011682018060405250810190611b00919061588b565b600083815260936020526040902054606082015160808301519293509091611b289190615b65565b611b329190615b52565b6012611b3f600185615b65565b60808110611b4f57611b4f61562f565b0154611b5b9190615cb5565b611b659086615b52565b945082600101925050506119ed565b5081600003611b9657604051637691472960e01b815260040160405180910390fd5b5092915050565b6000818152601160205260408120610b4590613336565b606060018054610b5a906155c2565b611bcb6145ed565b604080516110008101918290529060129060809082845b815481526020019060010190808311611be2575050505050905090565b611c0761300d565b6009546040516331315e5960e11b81526001600160a01b0390911690636262bcb290611c399085908590600401615cd7565b600060405180830381600087803b158015611c5357600080fd5b505af1158015611c67573d6000803e3d6000fd5b505050508181604051611c7b929190615d06565b604051908190038120338252907f7bc9110d5de090dd59e07912d2b93a5a27ac70a60c8d8e324db4f9ee8b8b5c1390602001611729565b611cbd338383613392565b5050565b6000606080608084013515611ce9576040516309f82f1b60e31b815260040160405180910390fd5b6024611cf96101c08601866159ab565b90501080611d3d575063b3bcbb7960e01b611d186101c08601866159ab565b611d27916024916020916159f1565b611d3091615a1b565b6001600160e01b03191614155b15611d5b57604051632a84050f60e01b815260040160405180910390fd5b60408051600180825281830190925290816020015b6040805180820190915260008082526020820152815260200190600190039081611d705790505090506040518060400160405280306001600160a01b03168152602001600081525081600081518110611dcb57611dcb61562f565b60209081029190910101526000611de66101c08601866159ab565b810190611df39190615a4b565b600a54604080516321d1336160e11b8152908a01356004820152919450600193506001600160a01b031691506343a266c29060240161012060405180830381865afa158015611e46573d6000803e3d6000fd5b505050506040513d601f19601f82011682018060405250810190611e6a9190615aa3565b5103611f7a57805160005b81811015611f205760095483516001600160a01b039091169063b67cb047903090869085908110611ea857611ea861562f565b60200260200101516040518363ffffffff1660e01b8152600401611ecd92919061487f565b6101c060405180830381865afa158015611eeb573d6000803e3d6000fd5b505050506040513d601f19601f82011682018060405250810190611f0f919061588b565b602001519590950194600101611e75565b5084611f306101a08801886159ab565b8582828080601f016020809104026020016040519081016040528093929190818152602001838380828437600092019190915250969b50919950919750611ffa9650505050505050565b611fa86092548660c00135611f8f9190615b52565b611f9983886119e6565b633b9aca00613067565b613067565b611fb66101a08701876159ab565b8482828080601f016020809104026020016040519081016040528093929190818152602001838380828437600092019190915250969a509198509196505050505050505b9193909250565b600a546005546040516321d1336160e11b815260048101919091526000916001600160a01b0316906343a266c29060240161012060405180830381865afa158015612050573d6000803e3d6000fd5b505050506040513d601f19601f820116820180604052508101906120749190615aa3565b61010081015190915060f51c6001908116036120a357604051631d2c125760e31b815260040160405180910390fd5b600954604051635d53f40760e11b815260048101859052602481018490526000916001600160a01b03169063baa7e80e906044016000604051808303816000875af11580156120f6573d6000803e3d6000fd5b505050506040513d6000823e601f3d908101601f1916820160405261211e9190810190615819565b6009546040516304db994760e21b81529192506000916001600160a01b039091169063136e651c90612156903090899060040161487f565b602060405180830381865afa158015612173573d6000803e3d6000fd5b505050506040513d601f19601f820116820180604052508101906121979190615955565b90506000805b85811015612215578381815181106121b7576121b761562f565b602002602001015191506121cb838361321a565b6040513381526001600160a01b03841690889084907f031e1988c95a91ec4d655ff63a8f87a80bc9daf28d95ae10ee08c0022cfb5c8b9060200160405180910390a460010161219d565b50505050505050565b611cbd338383613431565b6122333383612eb6565b6122505760405163e5fa0e3560e01b815260040160405180910390fd5b6110d2848484846134b0565b8051604080518082019091526000808252602082015260005b828110156110d25783818151811061228f5761228f61562f565b602090810291909101015180519092506001600160a01b03166122c5576040516314f4c13d60e21b815260040160405180910390fd5b6122d83383600001518460200151613431565b600101612275565b60408051600480825260a0820190925260609160009190816020015b60608152602001906001900390816122fc5790505090506040518060400160405280601d81526020017f646174613a6170706c69636174696f6e2f6a736f6e3b6261736536342c0000008152508160008151811061235c5761235c61562f565b60200260200101819052506040516020016123f490683d913730b6b2911d1160b91b81526564656669666160d01b600982015271111610113232b9b1b934b83a34b7b7111d1160711b600f8201526839b1b7b7b81036b29760b91b60218201527f22696d616765223a22646174613a696d6167652f7376672b786d6c3b62617365602a820152620d8d0b60ea1b604a820152604d0190565b604051602081830303815290604052816001815181106124165761241661562f565b6020908102919091018101919091526094546040805180820182526101f481528151808301835260068152651b9bdc9b585b60d21b81860152938101939093525163bf6519ad60e01b81526124ed926001600160a01b039092169163bf6519ad916124849190600401615d16565b600060405180830381865afa1580156124a1573d6000803e3d6000fd5b505050506040513d6000823e601f3d908101601f191682016040526124c99190810190615d6b565b6040516020016124d99190615db3565b6040516020818303038152906040526134e4565b816002815181106125005761250061562f565b602002602001018190525060405180604001604052806002815260200161227d60f01b815250816003815181106125395761253961562f565b6020026020010181905250806000815181106125575761255761562f565b60200260200101516125c5826001815181106125755761257561562f565b6020026020010151836002815181106125905761259061562f565b6020026020010151846003815181106125ab576125ab61562f565b60200260200101516040516020016124d99392919061693c565b6040516020016125d692919061697f565b604051602081830303815290604052915050919050565b6001600160a01b0382166000908152601060209081526040808320848452909152812061261990613336565b9392505050565b61262861300d565b60095460405163d67b78fd60e01b81526001600160a01b039091169063d67b78fd9061265a9085908590600401615cd7565b600060405180830381600087803b15801561267457600080fd5b505af1158015612688573d6000803e3d6000fd5b50505050818160405161269c929190615d06565b604051908190038120338252907fd36dc0c1a06103fdcaf15f3f6fb797d1a97997514c78de073640c8b5005454b890602001611729565b6008546001600160a01b031630036126ea57600080fd5b6009546001600160a01b03161561270057600080fd5b61270c8b8b8b8b613648565b600a80546001600160a01b03808a166001600160a01b031992831617909255600980548584169083161790556020850151600c556040850151600d556060850151600b80549190931691161790558551156127c0576040516331315e5960e11b81526001600160a01b03831690636262bcb29061278d9089906004016146a4565b600060405180830381600087803b1580156127a757600080fd5b505af11580156127bb573d6000803e3d6000fd5b505050505b8351156128265760405163d67b78fd60e01b81526001600160a01b0383169063d67b78fd906127f39087906004016146a4565b600060405180830381600087803b15801561280d57600080fd5b505af1158015612821573d6000803e3d6000fd5b505050505b6001600160a01b038516156128915760405163036129cb60e61b81526001600160a01b03868116600483015283169063d84a72c090602401600060405180830381600087803b15801561287857600080fd5b505af115801561288c573d6000803e3d6000fd5b505050505b8251511561290f57825160405163229dad5f60e11b81526001600160a01b0384169163453b5abe916128c691906004016169ae565b6000604051808303816000875af11580156128e5573d6000803e3d6000fd5b505050506040513d6000823e601f3d908101601f1916820160405261290d9190810190615819565b505b80518061291d575080602001515b80612929575080604001515b156129af57604080516365c13f1960e11b815282511515600482015260208301511515602482015290820151151560448201526060820151151560648201526001600160a01b0383169063cb827e3290608401600060405180830381600087803b15801561299657600080fd5b505af11580156129aa573d6000803e3d6000fd5b505050505b6129b8336132e4565b5050505050505050505050565b6129d88c8c8c8c8c8c8c8c8c8c8c6126d3565b609480546001600160a01b0319166001600160a01b03929092169190911790555050505050505050505050565b6000828152601160205260408120612619908361367b565b6001600160a01b03831660009081526010602090815260408083208584529091528120612a4a908361367b565b949350505050565b610120810135606080612a696101608501856159ab565b8080601f01602080910402602001604051908101604052809392919081815260200183838082843760009201919091525092945060019250612aa9915050565b604051908082528060200260200182016040528015612aee57816020015b6040805180820190915260008082526020820152815260200190600190039081612ac75790505b5090506040518060400160405280306001600160a01b03168152602001600081525081600081518110612b2357612b2361562f565b60200260200101819052509193909250565b60055434151580612bb65750600654604051636e49181f60e01b8152600481018390523360248201526001600160a01b0390911690636e49181f90604401602060405180830381865afa158015612b90573d6000803e3d6000fd5b505050506040513d601f19601f82011682018060405250810190612bb4919061598e565b155b80612bc5575080826020013514155b15612be3576040516331c57b1b60e21b815260040160405180910390fd5b611cbd8261378a565b612bf461300d565b6009546040516317161f7d60e01b81526001600160a01b038381166004830152909116906317161f7d90602401600060405180830381600087803b158015612c3b57600080fd5b505af1158015612c4f573d6000803e3d6000fd5b50506040513381526001600160a01b03841692507fab0014d4c7a642a02a31b303a318908c22b0fb2001f107278fc6076b4c671b659150602001610d60565b600954604051630155619b60e71b81523060048201526060916001600160a01b03169063aab0cd8090602401600060405180830381865afa158015612cd7573d6000803e3d6000fd5b505050506040513d6000823e601f3d908101601f19168201604052612cff9190810190615d6b565b905090565b612d0c61300d565b6001600160a01b038116612d765760405162461bcd60e51b815260206004820152602660248201527f4f776e61626c653a206e6577206f776e657220697320746865207a65726f206160448201526564647265737360d01b60648201526084015b60405180910390fd5b612d7f816132e4565b50565b60006001600160e01b0319821663b3bcbb7960e01b1480612db357506001600160e01b031982166371700c6960e01b145b80612dce57506001600160e01b0319821663da9ee8b760e01b145b80612de957506001600160e01b03198216632b13c58f60e01b145b80612e0457506001600160e01b0319821663152a902d60e11b145b80610b455750610b4582613a98565b6000818152600260205260409020546001600160a01b0316612d7f5760405163b49aa3b560e01b815260040160405180910390fd5b600081815260036020526040902080546001600160a01b0319166001600160a01b0384169081179091558190612e7d826117e1565b6001600160a01b03167f8c5be1e5ebec7d5bd14f71427d1e84f3dd0314c0f7b2291e5b200ac8c7c3b92560405160405180910390a45050565b600080612ec2836117e1565b9050806001600160a01b0316846001600160a01b03161480612f0957506001600160a01b0380821660009081526004602090815260408083209388168352929052205460ff165b80612a4a5750836001600160a01b0316612f2284610bdd565b6001600160a01b031614949350505050565b826001600160a01b0316612f47826117e1565b6001600160a01b031614612f6e5760405163a195bc5360e01b815260040160405180910390fd5b6001600160a01b038216612f9557604051632c95542760e01b815260040160405180910390fd5b612fa0838383613ae8565b612fab600082612e48565b60008181526002602052604080822080546001600160a01b0319166001600160a01b0386811691821790925591518493918716917fddf252ad1be2c89b69c2b068fc378daa952ba7f163c4a11628f55a4df523b3ef91a4610c8b838383613d15565b6007546001600160a01b031633146119e45760405162461bcd60e51b815260206004820181905260248201527f4f776e61626c653a2063616c6c6572206973206e6f7420746865206f776e65726044820152606401612d6d565b60008080600019858709858702925082811083820303915050806000036130a15783828161309757613097615c9f565b0492505050612619565b8381106130cb57604051631dcf306360e21b81526004810182905260248101859052604401612d6d565b60008486880960026001871981018816978890046003810283188082028403028082028403028082028403028082028403028082028403029081029092039091026000889003889004909101858311909403939093029303949094049190911702949350505050565b600061313f826117e1565b905061314d81600084613ae8565b613158600083612e48565b60008281526002602052604080822080546001600160a01b0319169055518391906001600160a01b038416907fddf252ad1be2c89b69c2b068fc378daa952ba7f163c4a11628f55a4df523b3ef908390a4611cbd81600084613d15565b6009546040516386bc2be360e01b81526001600160a01b03909116906386bc2be3906131e5908490600401614bb9565b600060405180830381600087803b1580156131ff57600080fd5b505af1158015613213573d6000803e3d6000fd5b5050505050565b6001600160a01b03821661324157604051633904578f60e11b815260040160405180910390fd5b6000818152600260205260409020546001600160a01b03161561327757604051632eb5f0c360e21b815260040160405180910390fd5b61328360008383613ae8565b60008181526002602052604080822080546001600160a01b0319166001600160a01b03861690811790915590518392907fddf252ad1be2c89b69c2b068fc378daa952ba7f163c4a11628f55a4df523b3ef908290a4611cbd60008383613d15565b600780546001600160a01b038381166001600160a01b0319831681179093556040519116919082907f8be0079c531659141344cd1fd0a4f28419497f9722a3daafe3b4186f6b6457e090600090a35050565b8054600090801561337f578261334d600183615b65565b8154811061335d5761335d61562f565b60009182526020909120015464010000000090046001600160e01b0316613382565b60005b6001600160e01b03169392505050565b816001600160a01b0316836001600160a01b0316036133c4576040516306f8139d60e11b815260040160405180910390fd5b6001600160a01b03838116600081815260046020908152604080832094871680845294825291829020805460ff191686151590811790915591519182527f17307eab39ab6107e8899845ad3d59bd9653f200f220920489ca2b5937696c31910160405180910390a3505050565b6001600160a01b038381166000818152600f6020908152604080832086845290915280822080548786166001600160a01b0319821681179092559151919094169392849290917f3134e8a2e6d97e929a7e54011ea5485d7d196dd5f0ba4d4ef95803e8e3fc257f9190a46110d28184846134ab8887613e0e565b613e8a565b6134bb848484612f34565b6134c784848484613fdf565b6110d2576040516336f57c1b60e11b815260040160405180910390fd5b6060815160000361350357505060408051602081019091526000815290565b6000604051806060016040528060408152602001616ee560409139905060006003845160026135329190615b52565b61353c9190615cb5565b613547906004616acb565b90506000613556826020615b52565b6001600160401b0381111561356d5761356d614959565b6040519080825280601f01601f191660200182016040528015613597576020820181803683370190505b509050818152600183018586518101602084015b81831015613603576003830192508251603f8160121c168501518253600182019150603f81600c1c168501518253600182019150603f8160061c168501518253600182019150603f81168501518253506001016135ab565b60038951066001811461361d576002811461362e5761363a565b613d3d60f01b60011983015261363a565b603d60f81b6000198301525b509398975050505050505050565b61365282826140e1565b5050600591909155600680546001600160a01b0319166001600160a01b03909216919091179055565b60004382106136cc5760405162461bcd60e51b815260206004820181905260248201527f436865636b706f696e74733a20626c6f636b206e6f7420796574206d696e65646044820152606401612d6d565b825460005b818110156137315760006136e582846140fa565b9050848660000182815481106136fd576136fd61562f565b60009182526020909120015463ffffffff16111561371d5780925061372b565b613728816001615b52565b91505b506136d1565b81156137755784613743600184615b65565b815481106137535761375361562f565b60009182526020909120015464010000000090046001600160e01b0316613778565b60005b6001600160e01b031695945050505050565b600c5460009060c0830135036137a557506080810135613856565b600b546001600160a01b031615611cbd57600d54613853906080840135906137ce90600a616bc6565b600b54600c54604051635268657960e11b815260c08801356004820152602481019190915260a087013560448201526001600160a01b039091169063a4d0caf290606401602060405180830381865afa15801561382f573d6000803e3d6000fd5b505050506040513d601f19601f82011682018060405250810190611fa39190615b23565b90505b6000600e8161386d6101a086016101808701614762565b6001600160a01b0316815260208101919091526040016000908120549150829061389f6101a086016101808701614762565b6001600160a01b03166138b56020870187614762565b6001600160a01b0316036138cc57908201906138cf565b50815b600060446138e16101e08801886159ab565b9050118015613925575063b3bcbb7960e01b6139016101e08801886159ab565b613910916044916040916159f1565b61391991615a1b565b6001600160e01b031916145b156139fc57606061393a6101e08801886159ab565b8101906139479190616bd2565b909550935084925050811590506139ca5750600954604051634228826f60e11b81523060048201526001600160a01b039091169063845104de90602401608060405180830381865afa1580156139a1573d6000803e3d6000fd5b505050506040513d601f19601f820116820180604052508101906139c59190616ca4565b606001515b156139d457600091505b8051156139fa576139f784826139f26101a08b016101808c01614762565b614115565b93505b505b8215613a585780613a2057604051631b57826960e21b815260040160405180910390fd5b828201600e6000613a396101a08a016101808b01614762565b6001600160a01b03168152602081019190915260400160002055610f46565b818414610f465781600e6000613a766101a08a016101808b01614762565b6001600160a01b03168152602081019190915260400160002055505050505050565b60006001600160e01b031982166380ac58cd60e01b1480613ac957506001600160e01b03198216635b5e139f60e01b145b80610b4557506301ffc9a760e01b6001600160e01b0319831614610b45565b6001600160a01b03831615610c8b5760095460405163b67cb04760e01b81526000916001600160a01b03169063b67cb04790613b2a903090869060040161487f565b6101c060405180830381865afa158015613b48573d6000803e3d6000fd5b505050506040513d601f19601f82011682018060405250810190613b6c919061588b565b9050806101a0015115613c3157600a546005546040516321d1336160e11b815260048101919091526000916001600160a01b0316906343a266c29060240161012060405180830381865afa158015613bc8573d6000803e3d6000fd5b505050506040513d601f19601f82011682018060405250810190613bec9190615aa3565b90506001600160a01b03841615801590613c11575061010081015160f41c6001908116145b15613c2f576040516318cdaf9760e01b815260040160405180910390fd5b505b6009546040516308ed6c0160e41b81526000916001600160a01b031690638ed6c01090613c64903090879060040161487f565b602060405180830381865afa158015613c81573d6000803e3d6000fd5b505050506040513d601f19601f82011682018060405250810190613ca59190615955565b6001600160a01b0316036110d257600954604051638cec7d3960e01b8152600481018490526001600160a01b03868116602483015290911690638cec7d3990604401600060405180830381600087803b158015613d0157600080fd5b505af1158015610f43573d6000803e3d6000fd5b60095460405163b67cb04760e01b81526000916001600160a01b03169063b67cb04790613d48903090869060040161487f565b6101c060405180830381865afa158015613d66573d6000803e3d6000fd5b505050506040513d601f19601f82011682018060405250810190613d8a919061588b565b60095481516040516330b157e560e21b815260048101919091526001600160a01b038781166024830152868116604483015292935091169063c2c55f9490606401600060405180830381600087803b158015613de557600080fd5b505af1158015613df9573d6000803e3d6000fd5b50505050613e0984848484614257565b6110d2565b6009546040516305c9a1d560e31b81523060048201526001600160a01b038481166024830152604482018490526000921690632e4d0ea890606401602060405180830381865afa158015613e66573d6000803e3d6000fd5b505050506040513d601f19601f820116820180604052508101906126199190615b23565b826001600160a01b0316846001600160a01b03161480613ea8575080155b6110d2576001600160a01b03841615613f43576001600160a01b038416600090815260106020908152604080832085845290915281208190613eed906142fe8561430a565b60408051838152602081018390523381830152905192945090925085916001600160a01b038916917fed0c1e94c302bdbbd8bbd6a4fb7c3ed335c2292407cd816eadd075d019d0ce04919081900360600190a350505b6001600160a01b038316156110d2576001600160a01b038316600090815260106020908152604080832085845290915281208190613f84906143388561430a565b60408051838152602081018390523381830152905192945090925085916001600160a01b038816917fed0c1e94c302bdbbd8bbd6a4fb7c3ed335c2292407cd816eadd075d019d0ce04919081900360600190a3505050505050565b60006001600160a01b0384163b156140d657604051630a85bd0160e11b81526001600160a01b0385169063150b7a0290614023903390899088908890600401616d28565b6020604051808303816000875af192505050801561405e575060408051601f3d908101601f1916820190925261405b91810190616d65565b60015b6140bc573d80801561408c576040519150601f19603f3d011682016040523d82523d6000602084013e614091565b606091505b5080516000036140b4576040516336f57c1b60e11b815260040160405180910390fd5b805181602001fd5b6001600160e01b031916630a85bd0160e11b149050612a4a565b506001949350505050565b60006140ed8382616dc8565b506001610c8b8282616dc8565b60006141096002848418615cb5565b61261990848416615b52565b60095460405163eaa19ab360e01b81526000916060916001600160a01b039091169063eaa19ab39061414f90889088908790600401616e87565b6000604051808303816000875af115801561416e573d6000803e3d6000fd5b505050506040513d6000823e601f3d908101601f191682016040526141969190810190615c3e565b81519093509091506000805b8281101561424c578381815181106141bc576141bc61562f565b602002602001015191506141d0868361321a565b856001600160a01b03168782815181106141ec576141ec61562f565b602002602001015161ffff16837f598baf7bf150ca2f42be9e9f8f55e81d45f5715c3ff22bf46d697fabec7f31d68b3360405161423c9291909182526001600160a01b0316602082015260400190565b60405180910390a46001016141a2565b505050509392505050565b60a0810151156110d2576001600160a01b038381166000908152600f6020908152604080832085518452909152902054166142ea576001600160a01b0383166000818152600f602090815260408083208551845290915280822080546001600160a01b031916841790555182907f3134e8a2e6d97e929a7e54011ea5485d7d196dd5f0ba4d4ef95803e8e3fc257f908390a45b6110d2848483600001518460a00151614344565b60006126198284615b65565b60008061432c8561432761431d88613336565b868863ffffffff16565b6143e6565b91509150935093915050565b60006126198284615b52565b6001600160a01b03841661437057600082815260116020526040902061436d906143388361430a565b50505b6001600160a01b03831661439c576000828152601160205260409020614399906142fe8361430a565b50505b6001600160a01b038085166000908152600f602081815260408084208785528252808420548886168552928252808420878552909152909120546110d29291821691168484613e8a565b81546000908190816143f786613336565b905060008211801561443557504386614411600185615b65565b815481106144215761442161562f565b60009182526020909120015463ffffffff16145b15614495576144438561450c565b8661444f600185615b65565b8154811061445f5761445f61562f565b9060005260206000200160000160046101000a8154816001600160e01b0302191690836001600160e01b03160217905550614503565b8560000160405180604001604052806144ad43614579565b63ffffffff1681526020016144c18861450c565b6001600160e01b0390811690915282546001810184556000938452602093849020835194909301519091166401000000000263ffffffff909316929092179101555b95939450505050565b60006001600160e01b038211156145755760405162461bcd60e51b815260206004820152602760248201527f53616665436173743a2076616c756520646f65736e27742066697420696e20326044820152663234206269747360c81b6064820152608401612d6d565b5090565b600063ffffffff8211156145755760405162461bcd60e51b815260206004820152602660248201527f53616665436173743a2076616c756520646f65736e27742066697420696e203360448201526532206269747360d01b6064820152608401612d6d565b50612d7f90608081019061460c565b6040518061100001604052806080906020820280368337509192915050565b5b80821115614575576000815560010161460d565b6001600160e01b031981168114612d7f57600080fd5b60006020828403121561464957600080fd5b813561261981614621565b60005b8381101561466f578181015183820152602001614657565b50506000910152565b60008151808452614690816020860160208601614654565b601f01601f19169290920160200192915050565b6020815260006126196020830184614678565b6000602082840312156146c957600080fd5b5035919050565b6001600160a01b0381168114612d7f57600080fd5b80356146f0816146d0565b919050565b6000806040838503121561470857600080fd5b8235614713816146d0565b946020939093013593505050565b60008060006060848603121561473657600080fd5b8335614741816146d0565b92506020840135614751816146d0565b929592945050506040919091013590565b60006020828403121561477457600080fd5b8135612619816146d0565b60008083601f84011261479157600080fd5b5081356001600160401b038111156147a857600080fd5b6020830191508360208260051b850101111561107857600080fd5b600080600080604085870312156147d957600080fd5b84356001600160401b03808211156147f057600080fd5b818701915087601f83011261480457600080fd5b81358181111561481357600080fd5b8860206101c08302850101111561482957600080fd5b60209283019650945090860135908082111561484457600080fd5b506148518782880161477f565b95989497509550505050565b6000806040838503121561487057600080fd5b50508035926020909101359150565b6001600160a01b03929092168252602082015260400190565b600080602083850312156148ab57600080fd5b82356001600160401b03808211156148c257600080fd5b818501915085601f8301126148d657600080fd5b8135818111156148e557600080fd5b8660208260061b85010111156148fa57600080fd5b60209290920196919550909350505050565b60006101e0828403121561491f57600080fd5b50919050565b60006020828403121561493757600080fd5b81356001600160401b0381111561494d57600080fd5b612a4a8482850161490c565b634e487b7160e01b600052604160045260246000fd5b604080519081016001600160401b038111828210171561499157614991614959565b60405290565b604051608081016001600160401b038111828210171561499157614991614959565b6040516101c081016001600160401b038111828210171561499157614991614959565b60405161012081016001600160401b038111828210171561499157614991614959565b604051601f8201601f191681016001600160401b0381118282101715614a2757614a27614959565b604052919050565b60006001600160401b03821115614a4857614a48614959565b5060051b60200190565b600060408284031215614a6457600080fd5b614a6c61496f565b9050813581526020820135602082015292915050565b60006020808385031215614a9557600080fd5b82356001600160401b03811115614aab57600080fd5b8301601f81018513614abc57600080fd5b8035614acf614aca82614a2f565b6149ff565b81815260069190911b82018301908381019087831115614aee57600080fd5b928401925b82841015614b1757614b058885614a52565b82528482019150604084019350614af3565b979650505050505050565b60008060208385031215614b3557600080fd5b82356001600160401b03811115614b4b57600080fd5b614b578582860161477f565b90969095509350505050565b600080600060408486031215614b7857600080fd5b83356001600160401b03811115614b8e57600080fd5b614b9a8682870161477f565b9094509250506020840135614bae816146d0565b809150509250925092565b6020808252825182820181905260009190848201906040850190845b81811015614bf157835183529284019291840191600101614bd5565b50909695505050505050565b600082601f830112614c0e57600080fd5b81356020614c1e614aca83614a2f565b82815260059290921b84018101918181019086841115614c3d57600080fd5b8286015b84811015614c585780358352918301918301614c41565b509695505050505050565b60008060408385031215614c7657600080fd5b82356001600160401b0380821115614c8d57600080fd5b614c9986838701614bfd565b93506020850135915080821115614caf57600080fd5b50614cbc8582860161490c565b9150509250929050565b6110008101818360005b6080811015614cef578151835260209283019290910190600101614cd0565b50505092915050565b60008060208385031215614d0b57600080fd5b82356001600160401b0380821115614d2257600080fd5b818501915085601f830112614d3657600080fd5b813581811115614d4557600080fd5b8660208285010111156148fa57600080fd5b8015158114612d7f57600080fd5b80356146f081614d57565b60008060408385031215614d8357600080fd5b8235614d8e816146d0565b91506020830135614d9e81614d57565b809150509250929050565b83815260006020606081840152614dc36060840186614678565b83810360408581019190915285518083528387019284019060005b81811015614e0c57845180516001600160a01b03168452860151868401529385019391830191600101614dde565b50909998505050505050505050565b60006001600160401b03821115614e3457614e34614959565b50601f01601f191660200190565b6000614e50614aca84614e1b565b9050828152838383011115614e6457600080fd5b828260208301376000602084830101529392505050565b60008060008060808587031215614e9157600080fd5b8435614e9c816146d0565b93506020850135614eac816146d0565b92506040850135915060608501356001600160401b03811115614ece57600080fd5b8501601f81018713614edf57600080fd5b614eee87823560208401614e42565b91505092959194509250565b60006020808385031215614f0d57600080fd5b82356001600160401b03811115614f2357600080fd5b8301601f81018513614f3457600080fd5b8035614f42614aca82614a2f565b81815260069190911b82018301908381019087831115614f6157600080fd5b928401925b82841015614b175760408489031215614f7f5760008081fd5b614f8761496f565b8435614f92816146d0565b81528486013586820152825260409093019290840190614f66565b600082601f830112614fbe57600080fd5b61261983833560208501614e42565b803569ffffffffffffffffffff811681146146f057600080fd5b803565ffffffffffff811681146146f057600080fd5b803564ffffffffff811681146146f057600080fd5b803561ffff811681146146f057600080fd5b803560ff811681146146f057600080fd5b6000608080838503121561504857600080fd5b615050614997565b915082356001600160401b0381111561506857600080fd5b8301601f8101851361507957600080fd5b80356020615089614aca83614a2f565b8281526101c092830284018201928282019190898511156150a957600080fd5b948301945b848610156151c05780868b0312156150c65760008081fd5b6150ce6149b9565b6150d787614fcd565b81526150e4858801614fe7565b8582015260406150f5818901614ffd565b908201526060615106888201615012565b90820152615115878901615012565b8882015260a06151268189016146e5565b9082015260c0615137888201615024565b9082015260e06151488882016146e5565b908201526101008781013590820152610120615165818901615024565b90820152610140615177888201614d65565b90820152610160615189888201614d65565b9082015261018061519b888201614d65565b908201526101a06151ad888201614d65565b90820152835294850194918301916150ae565b508652508581013590850152505050604080830135908201526151e5606083016146e5565b606082015292915050565b60006080828403121561520257600080fd5b61520a614997565b9050813561521781614d57565b8152602082013561522781614d57565b6020820152604082013561523a81614d57565b604082015260608201356151e581614d57565b60008060008060008060008060008060006101c08c8e03121561526f57600080fd5b8b359a5061527f60208d016146e5565b99506001600160401b038060408e0135111561529a57600080fd5b6152aa8e60408f01358f01614fad565b99508060608e013511156152bd57600080fd5b6152cd8e60608f01358f01614fad565b98506152db60808e016146e5565b97508060a08e013511156152ee57600080fd5b6152fe8e60a08f01358f01614fad565b965061530c60c08e016146e5565b95508060e08e0135111561531f57600080fd5b61532f8e60e08f01358f01614fad565b9450806101008e0135111561534357600080fd5b506153558d6101008e01358e01615035565b92506153646101208d016146e5565b91506153748d6101408e016151f0565b90509295989b509295989b9093969950565b6000806000806000806000806000806000806101e08d8f0312156153a957600080fd5b8c359b506153b960208e016146e5565b9a506001600160401b0360408e013511156153d357600080fd5b6153e38e60408f01358f01614fad565b99506001600160401b0360608e013511156153fd57600080fd5b61540d8e60608f01358f01614fad565b985061541b60808e016146e5565b97506001600160401b0360a08e0135111561543557600080fd5b6154458e60a08f01358f01614fad565b965061545360c08e016146e5565b95506001600160401b0360e08e0135111561546d57600080fd5b61547d8e60e08f01358f01614fad565b94506001600160401b036101008e0135111561549857600080fd5b6154a98e6101008f01358f01615035565b93506154b86101208e016146e5565b92506154c88e6101408f016151f0565b91506154d76101c08e016146e5565b90509295989b509295989b509295989b565b6000806000606084860312156154fe57600080fd5b8335615509816146d0565b95602085013595506040909401359392505050565b60006020828403121561553057600080fd5b81356001600160401b0381111561554657600080fd5b82016101a0818503121561261957600080fd5b60006020828403121561556b57600080fd5b81356001600160401b0381111561558157600080fd5b8201610200818503121561261957600080fd5b600080604083850312156155a757600080fd5b82356155b2816146d0565b91506020830135614d9e816146d0565b600181811c908216806155d657607f821691505b60208210810361491f57634e487b7160e01b600052602260045260246000fd5b6020808252810182905260006001600160fb1b0383111561561657600080fd5b8260051b80856040850137919091016040019392505050565b634e487b7160e01b600052603260045260246000fd5b6156628261565283614fcd565b69ffffffffffffffffffff169052565b61566e60208201614fe7565b65ffffffffffff16602083015261568760408201614ffd565b64ffffffffff16604083015261569f60608201615012565b61ffff1660608301526156b460808201615012565b61ffff1660808301526156c960a082016146e5565b6001600160a01b031660a08301526156e360c08201615024565b60ff1660c08301526156f760e082016146e5565b6001600160a01b031660e0830152610100818101359083015261012061571e818301615024565b60ff1690830152610140615733828201614d65565b151590830152610160615747828201614d65565b15159083015261018061575b828201614d65565b1515908301526101a061576f828201614d65565b801515848301526110d2565b6020808252810182905260008360408301825b858110156157b4576157a08284615645565b6101c092830192919091019060010161578e565b5095945050505050565b600082601f8301126157cf57600080fd5b815160206157df614aca83614a2f565b82815260059290921b840181019181810190868411156157fe57600080fd5b8286015b84811015614c585780518352918301918301615802565b60006020828403121561582b57600080fd5b81516001600160401b0381111561584157600080fd5b612a4a848285016157be565b6101e0810161585c8285615645565b6001600160a01b03929092166101c09190910152919050565b80516146f0816146d0565b80516146f081614d57565b60006101c0828403121561589e57600080fd5b6158a66149b9565b825181526020830151602082015260408301516040820152606083015160608201526080830151608082015260a083015160a082015260c083015160c08201526158f260e08401615875565b60e08201526101008381015190820152610120615910818501615875565b9082015261014083810151908201526101608084015190820152610180615938818501615880565b908201526101a061594a848201615880565b908201529392505050565b60006020828403121561596757600080fd5b8151612619816146d0565b60006040828403121561598457600080fd5b6126198383614a52565b6000602082840312156159a057600080fd5b815161261981614d57565b6000808335601e198436030181126159c257600080fd5b8301803591506001600160401b038211156159dc57600080fd5b60200191503681900382131561107857600080fd5b60008085851115615a0157600080fd5b83861115615a0e57600080fd5b5050820193919092039150565b6001600160e01b03198135818116916004851015615a435780818660040360031b1b83161692505b505092915050565b600080600060608486031215615a6057600080fd5b833592506020840135615a7281614621565b915060408401356001600160401b03811115615a8d57600080fd5b615a9986828701614bfd565b9150509250925092565b60006101208284031215615ab657600080fd5b615abe6149dc565b825181526020830151602082015260408301516040820152606083015160608201526080830151608082015260a083015160a082015260c083015160c0820152615b0a60e08401615875565b60e0820152610100928301519281019290925250919050565b600060208284031215615b3557600080fd5b5051919050565b634e487b7160e01b600052601160045260246000fd5b80820180821115610b4557610b45615b3c565b81810381811115610b4557610b45615b3c565b60008235603e19833603018112615b8e57600080fd5b9190910192915050565b6000808335601e19843603018112615baf57600080fd5b8301803591506001600160401b03821115615bc957600080fd5b6020019150600581901b360382131561107857600080fd5b84815260606020808301829052908201849052600090859060808401835b87811015615c265761ffff615c1385615012565b1682529282019290820190600101615bff565b50809350505050821515604083015295945050505050565b60008060408385031215615c5157600080fd5b82516001600160401b03811115615c6757600080fd5b615c73858286016157be565b925050602083015190509250929050565b600060208284031215615c9657600080fd5b61261982615012565b634e487b7160e01b600052601260045260246000fd5b600082615cd257634e487b7160e01b600052601260045260246000fd5b500490565b60208152816020820152818360408301376000818301604090810191909152601f909201601f19160101919050565b8183823760009101908152919050565b602081528151602082015260006020830151604080840152612a4a6060840182614678565b6000615d49614aca84614e1b565b9050828152838383011115615d5d57600080fd5b612619836020830184614654565b600060208284031215615d7d57600080fd5b81516001600160401b03811115615d9357600080fd5b8201601f81018413615da457600080fd5b612a4a84825160208401615d3b565b7f3c7376672077696474683d2232383922206865696768743d223430332220766981527f6577426f783d2230203020323839203430332220786d6c6e733d22687474703a60208201527f2f2f7777772e77332e6f72672f323030302f737667223e3c7374796c653e406660408201527f6f6e742d666163657b666f6e742d66616d696c793a2243617073756c65732d3560608201527f3030223b7372633a75726c28646174613a666f6e742f74727565747970653b636080820152731a185c9cd95d0f5d5d198b4e0ed8985cd94d8d0b60621b60a082015260008251615ea08160b4850160208701614654565b7f293b666f726d617428226f70656e7479706522293b7d612c613a76697369746560b4918401918201527f642c613a686f7665727b66696c6c3a696e68657269743b746578742d6465636f60d48201527f726174696f6e3a6e6f6e653b7d746578747b666f6e742d73697a653a3136707860f4820152651db334b6361d60d11b610114820152612a4a6168b56168a561687c61686c6161206161126160fb6160ac61609c615fe7615fd7615f6261011a8e01632337373760e01b815260040190565b7f3b666f6e742d66616d696c793a2243617073756c65732d353030222c6d6f6e6f81527f73706163653b666f6e742d7765696768743a3530303b77686974652d7370616360208201527f653a7072652d777261703b7d2368656164657220746578747b66696c6c3a00006040820152605e0190565b632331313160e01b815260040190565b7f3b7d3c2f7374796c653e3c6720636c69702d706174683d2275726c2823636c6981527f70305f3135305f353629223e3c7061746820643d224d3238392030483056343060208201527f334832383956305a222066696c6c3d2275726c28237061696e74305f6c696e6560408201527f61725f3135305f353629222f3e3c726563742077696474683d2232383922206860608201527032b4b3b43a1e91191911103334b6361e9160791b608082015260910190565b6308cd0d0d60e21b815260040190565b7f222f3e3c672069643d22686561646572223e3c6120687265663d22687474707381527f3a2f2f6a75696365626f782e6d6f6e65792f76322f702f000000000000000000602082015260370190565b6a3232b334b3309031393abb60a91b8152600b0190565b61111f60f11b815260020190565b7f3c2f746578743e3c2f673e3c2f673e3c646566733e3c66696c7465722069643d81527f2266696c746572305f645f3135305f35362220783d2231352e3832373522207960208201527f3d22302e303339393939222077696474683d223235362e31363422206865696760408201527f68743d2232312e3132222066696c746572556e6974733d22757365725370616360608201527f654f6e5573652220636f6c6f722d696e746572706f6c6174696f6e2d66696c7460808201527f6572733d2273524742223e3c6665466c6f6f6420666c6f6f642d6f706163697460a08201527f793d22302220726573756c743d224261636b67726f756e64496d61676546697860c08201527f222f3e3c6665436f6c6f724d617472697820696e3d22536f75726365416c706860e08201527f612220747970653d226d6174726978222076616c7565733d22302030203020306101008201527f20302030203020302030203020302030203020302030203020302030203132376101208201527f20302220726573756c743d2268617264416c706861222f3e3c66654f666673656101408201527f742f3e3c6665476175737369616e426c757220737464446576696174696f6e3d6101608201527f2232222f3e3c6665436f6d706f7369746520696e323d2268617264416c7068616101808201527f22206f70657261746f723d226f7574222f3e3c6665436f6c6f724d61747269786101a08201527f20747970653d226d6174726978222076616c7565733d223020302030203020316101c08201527f203020302030203020302e353732353439203020302030203020302e303734356101e08201527f30393820302030203020302e36382030222f3e3c6665426c656e64206d6f64656102008201527f3d226e6f726d616c2220696e323d224261636b67726f756e64496d61676546696102208201527f782220726573756c743d22656666656374315f64726f70536861646f775f31356102408201527f305f3536222f3e3c6665426c656e64206d6f64653d226e6f726d616c2220696e6102608201527f3d22536f75726365477261706869632220696e323d22656666656374315f64726102808201527f6f70536861646f775f3135305f35362220726573756c743d227368617065222f6102a08201527f3e3c2f66696c7465723e3c66696c7465722069643d2266696c746572315f645f6102c08201527f3135305f35362220783d222d332e33362220793d2232362e30342220776964746102e08201527f683d223239342e35333922206865696768743d223132362e3132222066696c746103008201527f6572556e6974733d227573657253706163654f6e5573652220636f6c6f722d696103208201527f6e746572706f6c6174696f6e2d66696c746572733d2273524742223e3c6665466103408201527f6c6f6f6420666c6f6f642d6f7061636974793d22302220726573756c743d22426103608201527f61636b67726f756e64496d616765466978222f3e3c6665436f6c6f724d6174726103808201527f697820696e3d22536f75726365416c7068612220747970653d226d61747269786103a08201527f222076616c7565733d22302030203020302030203020302030203020302030206103c08201527f302030203020302030203020302031323720302220726573756c743d226861726103e08201527f64416c706861222f3e3c66654f66667365742f3e3c6665476175737369616e426104008201527f6c757220737464446576696174696f6e3d2232222f3e3c6665436f6d706f73696104208201527f746520696e323d2268617264416c70686122206f70657261746f723d226f75746104408201527f222f3e203c6665436f6c6f724d617472697820747970653d226d6174726978226104608201527f2076616c7565733d22302030203020302031203020302030203020302e3537326104808201527f353439203020302030203020302e3037343530393820302030203020302e36386104a08201527f2030222f3e3c6665426c656e64206d6f64653d226e6f726d616c2220696e323d6104c08201527f224261636b67726f756e64496d6167654669782220726573756c743d226566666104e08201527f656374315f64726f70536861646f775f3135305f3536222f3e3c6665426c656e6105008201527f64206d6f64653d226e6f726d616c2220696e3d22536f757263654772617068696105208201527f632220696e323d22656666656374315f64726f70536861646f775f3135305f356105408201527f362220726573756c743d227368617065222f3e3c2f66696c7465723e3c6c696e6105608201527f6561724772616469656e742069643d227061696e74305f6c696e6561725f31356105808201527f305f3536222078313d2230222079313d22323032222078323d223238392220796105a08201527f323d2232303222206772616469656e74556e6974733d227573657253706163656105c08201527f4f6e557365223e3c73746f702073746f702d636f6c6f723d22000000000000006105e08201526105f90190565b631199191960e11b815260040190565b7f222f3e3c73746f70206f66667365743d2231222073746f702d636f6c6f723d22815260200190565b6308d9191960e21b815260040190565b7f222f3e3c2f6c696e6561724772616469656e743e3c636c69705061746820696481527f3d22636c6970305f3135305f3536223e3c726563742077696474683d2232383960208201527f22206865696768743d2234303322202f3e3c2f636c6970506174683e3c2f646560408201526833399f1e17b9bb339f60b91b606082015260690190565b6000845161694e818460208901614654565b845190830190616962818360208901614654565b8451910190616975818360208801614654565b0195945050505050565b60008351616991818460208801614654565b8351908301906169a5818360208801614654565b01949350505050565b602080825282518282018190526000919060409081850190868401855b82811015616abe578151805169ffffffffffffffffffff1685528681015165ffffffffffff16878601528581015164ffffffffff168686015260608082015161ffff908116918701919091526080808301519091169086015260a0808201516001600160a01b039081169187019190915260c08083015160ff9081169188019190915260e08084015190921691870191909152610100808301519087015261012080830151909116908601526101408082015115159086015261016080820151151590860152610180808201511515908601526101a0908101511515908501526101c090930192908501906001016169cb565b5091979650505050505050565b8082028115828204841417610b4557610b45615b3c565b600181815b80851115616b1d578160001904821115616b0357616b03615b3c565b80851615616b1057918102915b93841c9390800290616ae7565b509250929050565b600082616b3457506001610b45565b81616b4157506000610b45565b8160018114616b575760028114616b6157616b7d565b6001915050610b45565b60ff841115616b7257616b72615b3c565b50506001821b610b45565b5060208310610133831016604e8410600b8410161715616ba0575081810a610b45565b616baa8383616ae2565b8060001904821115616bbe57616bbe615b3c565b029392505050565b60006126198383616b25565b600080600080600060a08688031215616bea57600080fd5b8535945060208087013594506040870135616c0481614621565b93506060870135616c1481614d57565b925060808701356001600160401b03811115616c2f57600080fd5b8701601f81018913616c4057600080fd5b8035616c4e614aca82614a2f565b81815260059190911b8201830190838101908b831115616c6d57600080fd5b928401925b82841015616c9257616c8384615012565b82529284019290840190616c72565b80955050505050509295509295909350565b600060808284031215616cb657600080fd5b604051608081018181106001600160401b0382111715616cd857616cd8614959565b6040528251616ce681614d57565b81526020830151616cf681614d57565b60208201526040830151616d0981614d57565b60408201526060830151616d1c81614d57565b60608201529392505050565b6001600160a01b0385811682528416602082015260408101839052608060608201819052600090616d5b90830184614678565b9695505050505050565b600060208284031215616d7757600080fd5b815161261981614621565b601f821115610c8b57600081815260208120601f850160051c81016020861015616da95750805b601f850160051c820191505b81811015610f4657828155600101616db5565b81516001600160401b03811115616de157616de1614959565b616df581616def84546155c2565b84616d82565b602080601f831160018114616e2a5760008415616e125750858301515b600019600386901b1c1916600185901b178555610f46565b600085815260208120601f198616915b82811015616e5957888601518255948401946001909101908401616e3a565b5085821015616e775787850151600019600388901b60f8161c191681555b5050505050600190811b01905550565b6000606082018583526020606081850152818651808452608086019150828801935060005b81811015616ecc57845161ffff1683529383019391830191600101616eac565b5050809350505050821515604083015294935050505056fe4142434445464748494a4b4c4d4e4f505152535455565758595a6162636465666768696a6b6c6d6e6f707172737475767778797a303132333435363738392b2fa2646970667358221220d094c8c2ff9941d0a2aeb6d26a9c1a6e9ec4640bb29bcfca982d257d8334d09f64736f6c63430008110033",
    "linkReferences": {}
  },
  "methodIdentifiers": {
    "MAX_ROYALTY_RATE()": "79a75319",
    "TOTAL_REDEMPTION_WEIGHT()": "640abacd",
    "adjustTiers((uint80,uint48,uint40,uint16,uint16,address,uint8,address,bytes32,uint8,bool,bool,bool,bool)[],uint256[])": "25eb91ee",
    "approve(address,uint256)": "095ea7b3",
    "balanceOf(address)": "70a08231",
    "codeOrigin()": "1d153ca4",
    "contractURI()": "e8a3d485",
    "creditsOf(address)": "245a45b5",
    "didPay((address,uint256,uint256,(address,uint256,uint256,uint256),(address,uint256,uint256,uint256),uint256,address,bool,string,bytes))": "da9ee8b7",
    "didRedeem((address,uint256,uint256,uint256,(address,uint256,uint256,uint256),(address,uint256,uint256,uint256),address,string,bytes))": "2b13c58f",
    "directory()": "c41c2f24",
    "firstOwnerOf(uint256)": "54c6d1f5",
    "fundingCycleStore()": "557e7155",
    "getApproved(uint256)": "081812fc",
    "getPastTierTotalVotes(uint256,uint256)": "d31cc52c",
    "getPastTierVotes(address,uint256,uint256)": "d40e7146",
    "getTierDelegate(address,uint256)": "82732b6d",
    "getTierTotalVotes(uint256)": "94c5c5ca",
    "getTierVotes(address,uint256)": "ca323efe",
    "initialize(uint256,address,string,string,address,string,address,string,((uint80,uint48,uint40,uint16,uint16,address,uint8,address,bytes32,uint8,bool,bool,bool,bool)[],uint256,uint256,address),address,(bool,bool,bool,bool))": "d1704baf",
    "initialize(uint256,address,string,string,address,string,address,string,((uint80,uint48,uint40,uint16,uint16,address,uint8,address,bytes32,uint8,bool,bool,bool,bool)[],uint256,uint256,address),address,(bool,bool,bool,bool),address)": "d1c32934",
    "isApprovedForAll(address,address)": "e985e9c5",
    "mintFor((uint16[],address)[])": "36c1a93b",
    "mintFor(uint16[],address)": "6ac6d941",
    "mintReservesFor((uint256,uint256)[])": "2a596e53",
    "mintReservesFor(uint256,uint256)": "aa4fb15b",
    "name()": "06fdde03",
    "owner()": "8da5cb5b",
    "ownerOf(uint256)": "6352211e",
    "payParams((address,address,(address,uint256,uint256,uint256),uint256,uint256,address,uint256,uint256,string,bytes))": "d46cf171",
    "prices()": "d3419bf3",
    "pricingCurrency()": "64640c1e",
    "pricingDecimals()": "4ecba625",
    "projectId()": "3fafa127",
    "redeemParams((address,address,uint256,uint256,uint256,uint256,uint256,(address,uint256,uint256,uint256),bool,uint256,string,bytes))": "a51cfd18",
    "redemptionWeightOf(uint256[],(address,address,uint256,uint256,uint256,uint256,uint256,(address,uint256,uint256,uint256),bool,uint256,string,bytes))": "7ba62bf9",
    "renounceOwnership()": "715018a6",
    "royaltyInfo(uint256,uint256)": "2a55205a",
    "safeTransferFrom(address,address,uint256)": "42842e0e",
    "safeTransferFrom(address,address,uint256,bytes)": "b88d4fde",
    "setApprovalForAll(address,bool)": "a22cb465",
    "setBaseUri(string)": "a0bcfc7f",
    "setContractUri(string)": "ccb4807b",
    "setDefaultReservedTokenBeneficiary(address)": "df487e26",
    "setEncodedIPFSUriOf(uint256,bytes32)": "525350ba",
    "setTierDelegate(address,uint256)": "ab951e39",
    "setTierDelegates((address,uint256)[])": "c74b13d9",
    "setTierRedemptionWeights((uint256,uint256)[])": "2f441500",
    "setTokenUriResolver(address)": "2407497e",
    "store()": "975057e7",
    "supportsInterface(bytes4)": "01ffc9a7",
    "symbol()": "95d89b41",
    "tierRedemptionWeights()": "9df45468",
    "tokenURI(uint256)": "c87b56dd",
    "totalRedemptionWeight((address,address,uint256,uint256,uint256,uint256,uint256,(address,uint256,uint256,uint256),bool,uint256,string,bytes))": "9494bf72",
    "transferFrom(address,address,uint256)": "23b872dd",
    "transferOwnership(address)": "f2fde38b",
    "typeface()": "4d5a1d11"
  },
  "id": 0
}