{
  "abi": [
    {
      "inputs": [],
      "name": "ALEADY_MINTED",
      "type": "error"
    },
    {
      "inputs": [],
      "name": "APPROVAL_TO_CURRENT_OWNER",
      "type": "error"
    },
    {
      "inputs": [],
      "name": "APPROVE_TO_CALLER",
      "type": "error"
    },
    {
      "inputs": [],
      "name": "BLOCK_NOT_YET_MINED",
      "type": "error"
    },
    {
      "inputs": [],
      "name": "CALLER_NOT_OWNER_OR_APPROVED",
      "type": "error"
    },
    {
      "inputs": [],
      "name": "DELEGATE_ADDRESS_ZERO",
      "type": "error"
    },
    {
      "inputs": [],
      "name": "GAME_ISNT_OVER_YET",
      "type": "error"
    },
    {
      "inputs": [],
      "name": "INCORRECT_OWNER",
      "type": "error"
    },
    {
      "inputs": [],
      "name": "INVALID_PAYMENT_EVENT",
      "type": "error"
    },
    {
      "inputs": [],
      "name": "INVALID_REDEMPTION_EVENT",
      "type": "error"
    },
    {
      "inputs": [],
      "name": "INVALID_REDEMPTION_METADATA",
      "type": "error"
    },
    {
      "inputs": [],
      "name": "INVALID_REDEMPTION_WEIGHTS",
      "type": "error"
    },
    {
      "inputs": [],
      "name": "INVALID_TIER_ID",
      "type": "error"
    },
    {
      "inputs": [],
      "name": "INVALID_TOKEN_ID",
      "type": "error"
    },
    {
      "inputs": [],
      "name": "MINT_TO_ZERO",
      "type": "error"
    },
    {
      "inputs": [],
      "name": "NOTHING_TO_CLAIM",
      "type": "error"
    },
    {
      "inputs": [],
      "name": "NOT_AVAILABLE",
      "type": "error"
    },
    {
      "inputs": [],
      "name": "OVERSPENDING",
      "type": "error"
    },
    {
      "inputs": [
        {
          "internalType": "uint256",
          "name": "prod1",
          "type": "uint256"
        },
        {
          "internalType": "uint256",
          "name": "denominator",
          "type": "uint256"
        }
      ],
      "name": "PRBMath__MulDivOverflow",
      "type": "error"
    },
    {
      "inputs": [],
      "name": "PRICING_RESOLVER_CHANGES_PAUSED",
      "type": "error"
    },
    {
      "inputs": [],
      "name": "RESERVED_TOKEN_MINTING_PAUSED",
      "type": "error"
    },
    {
      "inputs": [],
      "name": "TRANSFERS_PAUSED",
      "type": "error"
    },
    {
      "inputs": [],
      "name": "TRANSFER_TO_NON_IMPLEMENTER",
      "type": "error"
    },
    {
      "inputs": [],
      "name": "TRANSFER_TO_ZERO_ADDRESS",
      "type": "error"
    },
    {
      "inputs": [],
      "name": "UNAUTHORIZED",
      "type": "error"
    },
    {
      "inputs": [],
      "name": "UNEXPECTED_TOKEN_REDEEMED",
      "type": "error"
    },
    {
      "anonymous": false,
      "inputs": [
        {
          "indexed": true,
          "internalType": "uint256",
          "name": "changeAmount",
          "type": "uint256"
        },
        {
          "indexed": true,
          "internalType": "uint256",
          "name": "newTotalCredits",
          "type": "uint256"
        },
        {
          "indexed": true,
          "internalType": "address",
          "name": "account",
          "type": "address"
        },
        {
          "indexed": false,
          "internalType": "address",
          "name": "caller",
          "type": "address"
        }
      ],
      "name": "AddCredits",
      "type": "event"
    },
    {
      "anonymous": false,
      "inputs": [
        {
          "indexed": true,
          "internalType": "uint256",
          "name": "tierId",
          "type": "uint256"
        },
        {
          "components": [
            {
              "internalType": "uint80",
              "name": "contributionFloor",
              "type": "uint80"
            },
            {
              "internalType": "uint48",
              "name": "lockedUntil",
              "type": "uint48"
            },
            {
              "internalType": "uint40",
              "name": "initialQuantity",
              "type": "uint40"
            },
            {
              "internalType": "uint16",
              "name": "votingUnits",
              "type": "uint16"
            },
            {
              "internalType": "uint16",
              "name": "reservedRate",
              "type": "uint16"
            },
            {
              "internalType": "address",
              "name": "reservedTokenBeneficiary",
              "type": "address"
            },
            {
              "internalType": "uint8",
              "name": "royaltyRate",
              "type": "uint8"
            },
            {
              "internalType": "address",
              "name": "royaltyBeneficiary",
              "type": "address"
            },
            {
              "internalType": "bytes32",
              "name": "encodedIPFSUri",
              "type": "bytes32"
            },
            {
              "internalType": "uint8",
              "name": "category",
              "type": "uint8"
            },
            {
              "internalType": "bool",
              "name": "allowManualMint",
              "type": "bool"
            },
            {
              "internalType": "bool",
              "name": "shouldUseReservedTokenBeneficiaryAsDefault",
              "type": "bool"
            },
            {
              "internalType": "bool",
              "name": "shouldUseRoyaltyBeneficiaryAsDefault",
              "type": "bool"
            },
            {
              "internalType": "bool",
              "name": "transfersPausable",
              "type": "bool"
            }
          ],
          "indexed": false,
          "internalType": "struct JB721TierParams",
          "name": "data",
          "type": "tuple"
        },
        {
          "indexed": false,
          "internalType": "address",
          "name": "caller",
          "type": "address"
        }
      ],
      "name": "AddTier",
      "type": "event"
    },
    {
      "anonymous": false,
      "inputs": [
        {
          "indexed": true,
          "internalType": "address",
          "name": "owner",
          "type": "address"
        },
        {
          "indexed": true,
          "internalType": "address",
          "name": "approved",
          "type": "address"
        },
        {
          "indexed": true,
          "internalType": "uint256",
          "name": "tokenId",
          "type": "uint256"
        }
      ],
      "name": "Approval",
      "type": "event"
    },
    {
      "anonymous": false,
      "inputs": [
        {
          "indexed": true,
          "internalType": "address",
          "name": "owner",
          "type": "address"
        },
        {
          "indexed": true,
          "internalType": "address",
          "name": "operator",
          "type": "address"
        },
        {
          "indexed": false,
          "internalType": "bool",
          "name": "approved",
          "type": "bool"
        }
      ],
      "name": "ApprovalForAll",
      "type": "event"
    },
    {
      "anonymous": false,
      "inputs": [
        {
          "indexed": true,
          "internalType": "address",
          "name": "delegator",
          "type": "address"
        },
        {
          "indexed": true,
          "internalType": "address",
          "name": "fromDelegate",
          "type": "address"
        },
        {
          "indexed": true,
          "internalType": "address",
          "name": "toDelegate",
          "type": "address"
        }
      ],
      "name": "DelegateChanged",
      "type": "event"
    },
    {
      "anonymous": false,
      "inputs": [
        {
          "indexed": true,
          "internalType": "uint256",
          "name": "tokenId",
          "type": "uint256"
        },
        {
          "indexed": true,
          "internalType": "uint256",
          "name": "tierId",
          "type": "uint256"
        },
        {
          "indexed": true,
          "internalType": "address",
          "name": "beneficiary",
          "type": "address"
        },
        {
          "indexed": false,
          "internalType": "uint256",
          "name": "totalAmountContributed",
          "type": "uint256"
        },
        {
          "indexed": false,
          "internalType": "address",
          "name": "caller",
          "type": "address"
        }
      ],
      "name": "Mint",
      "type": "event"
    },
    {
      "anonymous": false,
      "inputs": [
        {
          "indexed": true,
          "internalType": "uint256",
          "name": "tokenId",
          "type": "uint256"
        },
        {
          "indexed": true,
          "internalType": "uint256",
          "name": "tierId",
          "type": "uint256"
        },
        {
          "indexed": true,
          "internalType": "address",
          "name": "beneficiary",
          "type": "address"
        },
        {
          "indexed": false,
          "internalType": "address",
          "name": "caller",
          "type": "address"
        }
      ],
      "name": "MintReservedToken",
      "type": "event"
    },
    {
      "anonymous": false,
      "inputs": [
        {
          "indexed": true,
          "internalType": "address",
          "name": "previousOwner",
          "type": "address"
        },
        {
          "indexed": true,
          "internalType": "address",
          "name": "newOwner",
          "type": "address"
        }
      ],
      "name": "OwnershipTransferred",
      "type": "event"
    },
    {
      "anonymous": false,
      "inputs": [
        {
          "indexed": true,
          "internalType": "uint256",
          "name": "tierId",
          "type": "uint256"
        },
        {
          "indexed": false,
          "internalType": "address",
          "name": "caller",
          "type": "address"
        }
      ],
      "name": "RemoveTier",
      "type": "event"
    },
    {
      "anonymous": false,
      "inputs": [
        {
          "indexed": true,
          "internalType": "string",
          "name": "baseUri",
          "type": "string"
        },
        {
          "indexed": false,
          "internalType": "address",
          "name": "caller",
          "type": "address"
        }
      ],
      "name": "SetBaseUri",
      "type": "event"
    },
    {
      "anonymous": false,
      "inputs": [
        {
          "indexed": true,
          "internalType": "string",
          "name": "contractUri",
          "type": "string"
        },
        {
          "indexed": false,
          "internalType": "address",
          "name": "caller",
          "type": "address"
        }
      ],
      "name": "SetContractUri",
      "type": "event"
    },
    {
      "anonymous": false,
      "inputs": [
        {
          "indexed": true,
          "internalType": "address",
          "name": "beneficiary",
          "type": "address"
        },
        {
          "indexed": false,
          "internalType": "address",
          "name": "caller",
          "type": "address"
        }
      ],
      "name": "SetDefaultReservedTokenBeneficiary",
      "type": "event"
    },
    {
      "anonymous": false,
      "inputs": [
        {
          "indexed": true,
          "internalType": "uint256",
          "name": "tierId",
          "type": "uint256"
        },
        {
          "indexed": false,
          "internalType": "bytes32",
          "name": "encodedIPFSUri",
          "type": "bytes32"
        },
        {
          "indexed": false,
          "internalType": "address",
          "name": "caller",
          "type": "address"
        }
      ],
      "name": "SetEncodedIPFSUri",
      "type": "event"
    },
    {
      "anonymous": false,
      "inputs": [
        {
          "indexed": true,
          "internalType": "contract IJBTokenUriResolver",
          "name": "newResolver",
          "type": "address"
        },
        {
          "indexed": false,
          "internalType": "address",
          "name": "caller",
          "type": "address"
        }
      ],
      "name": "SetTokenUriResolver",
      "type": "event"
    },
    {
      "anonymous": false,
      "inputs": [
        {
          "indexed": true,
          "internalType": "address",
          "name": "delegator",
          "type": "address"
        },
        {
          "indexed": true,
          "internalType": "address",
          "name": "fromDelegate",
          "type": "address"
        },
        {
          "indexed": true,
          "internalType": "address",
          "name": "toDelegate",
          "type": "address"
        },
        {
          "indexed": false,
          "internalType": "uint256",
          "name": "tierId",
          "type": "uint256"
        },
        {
          "indexed": false,
          "internalType": "address",
          "name": "caller",
          "type": "address"
        }
      ],
      "name": "TierDelegateChanged",
      "type": "event"
    },
    {
      "anonymous": false,
      "inputs": [
        {
          "indexed": true,
          "internalType": "address",
          "name": "delegate",
          "type": "address"
        },
        {
          "indexed": true,
          "internalType": "uint256",
          "name": "tierId",
          "type": "uint256"
        },
        {
          "indexed": false,
          "internalType": "uint256",
          "name": "previousBalance",
          "type": "uint256"
        },
        {
          "indexed": false,
          "internalType": "uint256",
          "name": "newBalance",
          "type": "uint256"
        },
        {
          "indexed": false,
          "internalType": "address",
          "name": "caller",
          "type": "address"
        }
      ],
      "name": "TierDelegateVotesChanged",
      "type": "event"
    },
    {
      "anonymous": false,
      "inputs": [
        {
          "indexed": true,
          "internalType": "address",
          "name": "from",
          "type": "address"
        },
        {
          "indexed": true,
          "internalType": "address",
          "name": "to",
          "type": "address"
        },
        {
          "indexed": true,
          "internalType": "uint256",
          "name": "tokenId",
          "type": "uint256"
        }
      ],
      "name": "Transfer",
      "type": "event"
    },
    {
      "anonymous": false,
      "inputs": [
        {
          "indexed": true,
          "internalType": "uint256",
          "name": "changeAmount",
          "type": "uint256"
        },
        {
          "indexed": true,
          "internalType": "uint256",
          "name": "newTotalCredits",
          "type": "uint256"
        },
        {
          "indexed": true,
          "internalType": "address",
          "name": "account",
          "type": "address"
        },
        {
          "indexed": false,
          "internalType": "address",
          "name": "caller",
          "type": "address"
        }
      ],
      "name": "UseCredits",
      "type": "event"
    },
    {
      "inputs": [],
      "name": "TOTAL_REDEMPTION_WEIGHT",
      "outputs": [
        {
          "internalType": "uint256",
          "name": "",
          "type": "uint256"
        }
      ],
      "stateMutability": "view",
      "type": "function"
    },
    {
      "inputs": [
        {
          "components": [
            {
              "internalType": "uint80",
              "name": "contributionFloor",
              "type": "uint80"
            },
            {
              "internalType": "uint48",
              "name": "lockedUntil",
              "type": "uint48"
            },
            {
              "internalType": "uint40",
              "name": "initialQuantity",
              "type": "uint40"
            },
            {
              "internalType": "uint16",
              "name": "votingUnits",
              "type": "uint16"
            },
            {
              "internalType": "uint16",
              "name": "reservedRate",
              "type": "uint16"
            },
            {
              "internalType": "address",
              "name": "reservedTokenBeneficiary",
              "type": "address"
            },
            {
              "internalType": "uint8",
              "name": "royaltyRate",
              "type": "uint8"
            },
            {
              "internalType": "address",
              "name": "royaltyBeneficiary",
              "type": "address"
            },
            {
              "internalType": "bytes32",
              "name": "encodedIPFSUri",
              "type": "bytes32"
            },
            {
              "internalType": "uint8",
              "name": "category",
              "type": "uint8"
            },
            {
              "internalType": "bool",
              "name": "allowManualMint",
              "type": "bool"
            },
            {
              "internalType": "bool",
              "name": "shouldUseReservedTokenBeneficiaryAsDefault",
              "type": "bool"
            },
            {
              "internalType": "bool",
              "name": "shouldUseRoyaltyBeneficiaryAsDefault",
              "type": "bool"
            },
            {
              "internalType": "bool",
              "name": "transfersPausable",
              "type": "bool"
            }
          ],
          "internalType": "struct JB721TierParams[]",
          "name": "_tiersToAdd",
          "type": "tuple[]"
        },
        {
          "internalType": "uint256[]",
          "name": "_tierIdsToRemove",
          "type": "uint256[]"
        }
      ],
      "name": "adjustTiers",
      "outputs": [],
      "stateMutability": "nonpayable",
      "type": "function"
    },
    {
      "inputs": [
        {
          "internalType": "address",
          "name": "to",
          "type": "address"
        },
        {
          "internalType": "uint256",
          "name": "tokenId",
          "type": "uint256"
        }
      ],
      "name": "approve",
      "outputs": [],
      "stateMutability": "nonpayable",
      "type": "function"
    },
    {
      "inputs": [
        {
          "internalType": "address",
          "name": "_owner",
          "type": "address"
        }
      ],
      "name": "balanceOf",
      "outputs": [
        {
          "internalType": "uint256",
          "name": "balance",
          "type": "uint256"
        }
      ],
      "stateMutability": "view",
      "type": "function"
    },
    {
      "inputs": [],
      "name": "codeOrigin",
      "outputs": [
        {
          "internalType": "address",
          "name": "",
          "type": "address"
        }
      ],
      "stateMutability": "view",
      "type": "function"
    },
    {
      "inputs": [],
      "name": "contractURI",
      "outputs": [
        {
          "internalType": "string",
          "name": "",
          "type": "string"
        }
      ],
      "stateMutability": "view",
      "type": "function"
    },
    {
      "inputs": [
        {
          "internalType": "address",
          "name": "",
          "type": "address"
        }
      ],
      "name": "creditsOf",
      "outputs": [
        {
          "internalType": "uint256",
          "name": "",
          "type": "uint256"
        }
      ],
      "stateMutability": "view",
      "type": "function"
    },
    {
      "inputs": [
        {
          "components": [
            {
              "internalType": "address",
              "name": "payer",
              "type": "address"
            },
            {
              "internalType": "uint256",
              "name": "projectId",
              "type": "uint256"
            },
            {
              "internalType": "uint256",
              "name": "currentFundingCycleConfiguration",
              "type": "uint256"
            },
            {
              "components": [
                {
                  "internalType": "address",
                  "name": "token",
                  "type": "address"
                },
                {
                  "internalType": "uint256",
                  "name": "value",
                  "type": "uint256"
                },
                {
                  "internalType": "uint256",
                  "name": "decimals",
                  "type": "uint256"
                },
                {
                  "internalType": "uint256",
                  "name": "currency",
                  "type": "uint256"
                }
              ],
              "internalType": "struct JBTokenAmount",
              "name": "amount",
              "type": "tuple"
            },
            {
              "components": [
                {
                  "internalType": "address",
                  "name": "token",
                  "type": "address"
                },
                {
                  "internalType": "uint256",
                  "name": "value",
                  "type": "uint256"
                },
                {
                  "internalType": "uint256",
                  "name": "decimals",
                  "type": "uint256"
                },
                {
                  "internalType": "uint256",
                  "name": "currency",
                  "type": "uint256"
                }
              ],
              "internalType": "struct JBTokenAmount",
              "name": "forwardedAmount",
              "type": "tuple"
            },
            {
              "internalType": "uint256",
              "name": "projectTokenCount",
              "type": "uint256"
            },
            {
              "internalType": "address",
              "name": "beneficiary",
              "type": "address"
            },
            {
              "internalType": "bool",
              "name": "preferClaimedTokens",
              "type": "bool"
            },
            {
              "internalType": "string",
              "name": "memo",
              "type": "string"
            },
            {
              "internalType": "bytes",
              "name": "metadata",
              "type": "bytes"
            }
          ],
          "internalType": "struct JBDidPayData",
          "name": "_data",
          "type": "tuple"
        }
      ],
      "name": "didPay",
      "outputs": [],
      "stateMutability": "payable",
      "type": "function"
    },
    {
      "inputs": [
        {
          "components": [
            {
              "internalType": "address",
              "name": "holder",
              "type": "address"
            },
            {
              "internalType": "uint256",
              "name": "projectId",
              "type": "uint256"
            },
            {
              "internalType": "uint256",
              "name": "currentFundingCycleConfiguration",
              "type": "uint256"
            },
            {
              "internalType": "uint256",
              "name": "projectTokenCount",
              "type": "uint256"
            },
            {
              "components": [
                {
                  "internalType": "address",
                  "name": "token",
                  "type": "address"
                },
                {
                  "internalType": "uint256",
                  "name": "value",
                  "type": "uint256"
                },
                {
                  "internalType": "uint256",
                  "name": "decimals",
                  "type": "uint256"
                },
                {
                  "internalType": "uint256",
                  "name": "currency",
                  "type": "uint256"
                }
              ],
              "internalType": "struct JBTokenAmount",
              "name": "reclaimedAmount",
              "type": "tuple"
            },
            {
              "components": [
                {
                  "internalType": "address",
                  "name": "token",
                  "type": "address"
                },
                {
                  "internalType": "uint256",
                  "name": "value",
                  "type": "uint256"
                },
                {
                  "internalType": "uint256",
                  "name": "decimals",
                  "type": "uint256"
                },
                {
                  "internalType": "uint256",
                  "name": "currency",
                  "type": "uint256"
                }
              ],
              "internalType": "struct JBTokenAmount",
              "name": "forwardedAmount",
              "type": "tuple"
            },
            {
              "internalType": "address payable",
              "name": "beneficiary",
              "type": "address"
            },
            {
              "internalType": "string",
              "name": "memo",
              "type": "string"
            },
            {
              "internalType": "bytes",
              "name": "metadata",
              "type": "bytes"
            }
          ],
          "internalType": "struct JBDidRedeemData",
          "name": "_data",
          "type": "tuple"
        }
      ],
      "name": "didRedeem",
      "outputs": [],
      "stateMutability": "payable",
      "type": "function"
    },
    {
      "inputs": [],
      "name": "directory",
      "outputs": [
        {
          "internalType": "contract IJBDirectory",
          "name": "",
          "type": "address"
        }
      ],
      "stateMutability": "view",
      "type": "function"
    },
    {
      "inputs": [
        {
          "internalType": "uint256",
          "name": "_tokenId",
          "type": "uint256"
        }
      ],
      "name": "firstOwnerOf",
      "outputs": [
        {
          "internalType": "address",
          "name": "",
          "type": "address"
        }
      ],
      "stateMutability": "view",
      "type": "function"
    },
    {
      "inputs": [],
      "name": "fundingCycleStore",
      "outputs": [
        {
          "internalType": "contract IJBFundingCycleStore",
          "name": "",
          "type": "address"
        }
      ],
      "stateMutability": "view",
      "type": "function"
    },
    {
      "inputs": [
        {
          "internalType": "uint256",
          "name": "tokenId",
          "type": "uint256"
        }
      ],
      "name": "getApproved",
      "outputs": [
        {
          "internalType": "address",
          "name": "",
          "type": "address"
        }
      ],
      "stateMutability": "view",
      "type": "function"
    },
    {
      "inputs": [
        {
          "internalType": "uint256",
          "name": "_tier",
          "type": "uint256"
        },
        {
          "internalType": "uint256",
          "name": "_blockNumber",
          "type": "uint256"
        }
      ],
      "name": "getPastTierTotalVotes",
      "outputs": [
        {
          "internalType": "uint256",
          "name": "",
          "type": "uint256"
        }
      ],
      "stateMutability": "view",
      "type": "function"
    },
    {
      "inputs": [
        {
          "internalType": "address",
          "name": "_account",
          "type": "address"
        },
        {
          "internalType": "uint256",
          "name": "_tier",
          "type": "uint256"
        },
        {
          "internalType": "uint256",
          "name": "_blockNumber",
          "type": "uint256"
        }
      ],
      "name": "getPastTierVotes",
      "outputs": [
        {
          "internalType": "uint256",
          "name": "",
          "type": "uint256"
        }
      ],
      "stateMutability": "view",
      "type": "function"
    },
    {
      "inputs": [
        {
          "internalType": "address",
          "name": "_account",
          "type": "address"
        },
        {
          "internalType": "uint256",
          "name": "_tier",
          "type": "uint256"
        }
      ],
      "name": "getTierDelegate",
      "outputs": [
        {
          "internalType": "address",
          "name": "",
          "type": "address"
        }
      ],
      "stateMutability": "view",
      "type": "function"
    },
    {
      "inputs": [
        {
          "internalType": "uint256",
          "name": "_tier",
          "type": "uint256"
        }
      ],
      "name": "getTierTotalVotes",
      "outputs": [
        {
          "internalType": "uint256",
          "name": "",
          "type": "uint256"
        }
      ],
      "stateMutability": "view",
      "type": "function"
    },
    {
      "inputs": [
        {
          "internalType": "address",
          "name": "_account",
          "type": "address"
        },
        {
          "internalType": "uint256",
          "name": "_tier",
          "type": "uint256"
        }
      ],
      "name": "getTierVotes",
      "outputs": [
        {
          "internalType": "uint256",
          "name": "",
          "type": "uint256"
        }
      ],
      "stateMutability": "view",
      "type": "function"
    },
    {
      "inputs": [
        {
          "internalType": "uint256",
          "name": "_projectId",
          "type": "uint256"
        },
        {
          "internalType": "contract IJBDirectory",
          "name": "_directory",
          "type": "address"
        },
        {
          "internalType": "string",
          "name": "_name",
          "type": "string"
        },
        {
          "internalType": "string",
          "name": "_symbol",
          "type": "string"
        },
        {
          "internalType": "contract IJBFundingCycleStore",
          "name": "_fundingCycleStore",
          "type": "address"
        },
        {
          "internalType": "string",
          "name": "_baseUri",
          "type": "string"
        },
        {
          "internalType": "contract IJBTokenUriResolver",
          "name": "_tokenUriResolver",
          "type": "address"
        },
        {
          "internalType": "string",
          "name": "_contractUri",
          "type": "string"
        },
        {
          "components": [
            {
              "components": [
                {
                  "internalType": "uint80",
                  "name": "contributionFloor",
                  "type": "uint80"
                },
                {
                  "internalType": "uint48",
                  "name": "lockedUntil",
                  "type": "uint48"
                },
                {
                  "internalType": "uint40",
                  "name": "initialQuantity",
                  "type": "uint40"
                },
                {
                  "internalType": "uint16",
                  "name": "votingUnits",
                  "type": "uint16"
                },
                {
                  "internalType": "uint16",
                  "name": "reservedRate",
                  "type": "uint16"
                },
                {
                  "internalType": "address",
                  "name": "reservedTokenBeneficiary",
                  "type": "address"
                },
                {
                  "internalType": "uint8",
                  "name": "royaltyRate",
                  "type": "uint8"
                },
                {
                  "internalType": "address",
                  "name": "royaltyBeneficiary",
                  "type": "address"
                },
                {
                  "internalType": "bytes32",
                  "name": "encodedIPFSUri",
                  "type": "bytes32"
                },
                {
                  "internalType": "uint8",
                  "name": "category",
                  "type": "uint8"
                },
                {
                  "internalType": "bool",
                  "name": "allowManualMint",
                  "type": "bool"
                },
                {
                  "internalType": "bool",
                  "name": "shouldUseReservedTokenBeneficiaryAsDefault",
                  "type": "bool"
                },
                {
                  "internalType": "bool",
                  "name": "shouldUseRoyaltyBeneficiaryAsDefault",
                  "type": "bool"
                },
                {
                  "internalType": "bool",
                  "name": "transfersPausable",
                  "type": "bool"
                }
              ],
              "internalType": "struct JB721TierParams[]",
              "name": "tiers",
              "type": "tuple[]"
            },
            {
              "internalType": "uint256",
              "name": "currency",
              "type": "uint256"
            },
            {
              "internalType": "uint256",
              "name": "decimals",
              "type": "uint256"
            },
            {
              "internalType": "contract IJBPrices",
              "name": "prices",
              "type": "address"
            }
          ],
          "internalType": "struct JB721PricingParams",
          "name": "_pricing",
          "type": "tuple"
        },
        {
          "internalType": "contract IJBTiered721DelegateStore",
          "name": "_store",
          "type": "address"
        },
        {
          "components": [
            {
              "internalType": "bool",
              "name": "lockReservedTokenChanges",
              "type": "bool"
            },
            {
              "internalType": "bool",
              "name": "lockVotingUnitChanges",
              "type": "bool"
            },
            {
              "internalType": "bool",
              "name": "lockManualMintingChanges",
              "type": "bool"
            },
            {
              "internalType": "bool",
              "name": "preventOverspending",
              "type": "bool"
            }
          ],
          "internalType": "struct JBTiered721Flags",
          "name": "_flags",
          "type": "tuple"
        },
        {
          "internalType": "contract ITypeface",
          "name": "_typeface",
          "type": "address"
        },
        {
          "internalType": "string[]",
          "name": "_tierNames",
          "type": "string[]"
        }
      ],
      "name": "initialize",
      "outputs": [],
      "stateMutability": "nonpayable",
      "type": "function"
    },
    {
      "inputs": [
        {
          "internalType": "uint256",
          "name": "_projectId",
          "type": "uint256"
        },
        {
          "internalType": "contract IJBDirectory",
          "name": "_directory",
          "type": "address"
        },
        {
          "internalType": "string",
          "name": "_name",
          "type": "string"
        },
        {
          "internalType": "string",
          "name": "_symbol",
          "type": "string"
        },
        {
          "internalType": "contract IJBFundingCycleStore",
          "name": "_fundingCycleStore",
          "type": "address"
        },
        {
          "internalType": "string",
          "name": "_baseUri",
          "type": "string"
        },
        {
          "internalType": "contract IJBTokenUriResolver",
          "name": "_tokenUriResolver",
          "type": "address"
        },
        {
          "internalType": "string",
          "name": "_contractUri",
          "type": "string"
        },
        {
          "components": [
            {
              "components": [
                {
                  "internalType": "uint80",
                  "name": "contributionFloor",
                  "type": "uint80"
                },
                {
                  "internalType": "uint48",
                  "name": "lockedUntil",
                  "type": "uint48"
                },
                {
                  "internalType": "uint40",
                  "name": "initialQuantity",
                  "type": "uint40"
                },
                {
                  "internalType": "uint16",
                  "name": "votingUnits",
                  "type": "uint16"
                },
                {
                  "internalType": "uint16",
                  "name": "reservedRate",
                  "type": "uint16"
                },
                {
                  "internalType": "address",
                  "name": "reservedTokenBeneficiary",
                  "type": "address"
                },
                {
                  "internalType": "uint8",
                  "name": "royaltyRate",
                  "type": "uint8"
                },
                {
                  "internalType": "address",
                  "name": "royaltyBeneficiary",
                  "type": "address"
                },
                {
                  "internalType": "bytes32",
                  "name": "encodedIPFSUri",
                  "type": "bytes32"
                },
                {
                  "internalType": "uint8",
                  "name": "category",
                  "type": "uint8"
                },
                {
                  "internalType": "bool",
                  "name": "allowManualMint",
                  "type": "bool"
                },
                {
                  "internalType": "bool",
                  "name": "shouldUseReservedTokenBeneficiaryAsDefault",
                  "type": "bool"
                },
                {
                  "internalType": "bool",
                  "name": "shouldUseRoyaltyBeneficiaryAsDefault",
                  "type": "bool"
                },
                {
                  "internalType": "bool",
                  "name": "transfersPausable",
                  "type": "bool"
                }
              ],
              "internalType": "struct JB721TierParams[]",
              "name": "tiers",
              "type": "tuple[]"
            },
            {
              "internalType": "uint256",
              "name": "currency",
              "type": "uint256"
            },
            {
              "internalType": "uint256",
              "name": "decimals",
              "type": "uint256"
            },
            {
              "internalType": "contract IJBPrices",
              "name": "prices",
              "type": "address"
            }
          ],
          "internalType": "struct JB721PricingParams",
          "name": "_pricing",
          "type": "tuple"
        },
        {
          "internalType": "contract IJBTiered721DelegateStore",
          "name": "_store",
          "type": "address"
        },
        {
          "components": [
            {
              "internalType": "bool",
              "name": "lockReservedTokenChanges",
              "type": "bool"
            },
            {
              "internalType": "bool",
              "name": "lockVotingUnitChanges",
              "type": "bool"
            },
            {
              "internalType": "bool",
              "name": "lockManualMintingChanges",
              "type": "bool"
            },
            {
              "internalType": "bool",
              "name": "preventOverspending",
              "type": "bool"
            }
          ],
          "internalType": "struct JBTiered721Flags",
          "name": "_flags",
          "type": "tuple"
        }
      ],
      "name": "initialize",
      "outputs": [],
      "stateMutability": "nonpayable",
      "type": "function"
    },
    {
      "inputs": [
        {
          "internalType": "address",
          "name": "owner",
          "type": "address"
        },
        {
          "internalType": "address",
          "name": "operator",
          "type": "address"
        }
      ],
      "name": "isApprovedForAll",
      "outputs": [
        {
          "internalType": "bool",
          "name": "",
          "type": "bool"
        }
      ],
      "stateMutability": "view",
      "type": "function"
    },
    {
      "inputs": [
        {
          "components": [
            {
              "internalType": "uint16[]",
              "name": "tierIds",
              "type": "uint16[]"
            },
            {
              "internalType": "address",
              "name": "beneficiary",
              "type": "address"
            }
          ],
          "internalType": "struct JBTiered721MintForTiersData[]",
          "name": "_mintForTiersData",
          "type": "tuple[]"
        }
      ],
      "name": "mintFor",
      "outputs": [],
      "stateMutability": "nonpayable",
      "type": "function"
    },
    {
      "inputs": [
        {
          "internalType": "uint16[]",
          "name": "_tierIds",
          "type": "uint16[]"
        },
        {
          "internalType": "address",
          "name": "_beneficiary",
          "type": "address"
        }
      ],
      "name": "mintFor",
      "outputs": [
        {
          "internalType": "uint256[]",
          "name": "tokenIds",
          "type": "uint256[]"
        }
      ],
      "stateMutability": "nonpayable",
      "type": "function"
    },
    {
      "inputs": [
        {
          "components": [
            {
              "internalType": "uint256",
              "name": "tierId",
              "type": "uint256"
            },
            {
              "internalType": "uint256",
              "name": "count",
              "type": "uint256"
            }
          ],
          "internalType": "struct JBTiered721MintReservesForTiersData[]",
          "name": "_mintReservesForTiersData",
          "type": "tuple[]"
        }
      ],
      "name": "mintReservesFor",
      "outputs": [],
      "stateMutability": "nonpayable",
      "type": "function"
    },
    {
      "inputs": [
        {
          "internalType": "uint256",
          "name": "_tierId",
          "type": "uint256"
        },
        {
          "internalType": "uint256",
          "name": "_count",
          "type": "uint256"
        }
      ],
      "name": "mintReservesFor",
      "outputs": [],
      "stateMutability": "nonpayable",
      "type": "function"
    },
    {
      "inputs": [],
      "name": "name",
      "outputs": [
        {
          "internalType": "string",
          "name": "",
          "type": "string"
        }
      ],
      "stateMutability": "view",
      "type": "function"
    },
    {
      "inputs": [],
      "name": "owner",
      "outputs": [
        {
          "internalType": "address",
          "name": "",
          "type": "address"
        }
      ],
      "stateMutability": "view",
      "type": "function"
    },
    {
      "inputs": [
        {
          "internalType": "uint256",
          "name": "tokenId",
          "type": "uint256"
        }
      ],
      "name": "ownerOf",
      "outputs": [
        {
          "internalType": "address",
          "name": "",
          "type": "address"
        }
      ],
      "stateMutability": "view",
      "type": "function"
    },
    {
      "inputs": [
        {
          "components": [
            {
              "internalType": "contract IJBPaymentTerminal",
              "name": "terminal",
              "type": "address"
            },
            {
              "internalType": "address",
              "name": "payer",
              "type": "address"
            },
            {
              "components": [
                {
                  "internalType": "address",
                  "name": "token",
                  "type": "address"
                },
                {
                  "internalType": "uint256",
                  "name": "value",
                  "type": "uint256"
                },
                {
                  "internalType": "uint256",
                  "name": "decimals",
                  "type": "uint256"
                },
                {
                  "internalType": "uint256",
                  "name": "currency",
                  "type": "uint256"
                }
              ],
              "internalType": "struct JBTokenAmount",
              "name": "amount",
              "type": "tuple"
            },
            {
              "internalType": "uint256",
              "name": "projectId",
              "type": "uint256"
            },
            {
              "internalType": "uint256",
              "name": "currentFundingCycleConfiguration",
              "type": "uint256"
            },
            {
              "internalType": "address",
              "name": "beneficiary",
              "type": "address"
            },
            {
              "internalType": "uint256",
              "name": "weight",
              "type": "uint256"
            },
            {
              "internalType": "uint256",
              "name": "reservedRate",
              "type": "uint256"
            },
            {
              "internalType": "string",
              "name": "memo",
              "type": "string"
            },
            {
              "internalType": "bytes",
              "name": "metadata",
              "type": "bytes"
            }
          ],
          "internalType": "struct JBPayParamsData",
          "name": "_data",
          "type": "tuple"
        }
      ],
      "name": "payParams",
      "outputs": [
        {
          "internalType": "uint256",
          "name": "weight",
          "type": "uint256"
        },
        {
          "internalType": "string",
          "name": "memo",
          "type": "string"
        },
        {
          "components": [
            {
              "internalType": "contract IJBPayDelegate",
              "name": "delegate",
              "type": "address"
            },
            {
              "internalType": "uint256",
              "name": "amount",
              "type": "uint256"
            }
          ],
          "internalType": "struct JBPayDelegateAllocation[]",
          "name": "delegateAllocations",
          "type": "tuple[]"
        }
      ],
      "stateMutability": "view",
      "type": "function"
    },
    {
      "inputs": [],
      "name": "prices",
      "outputs": [
        {
          "internalType": "contract IJBPrices",
          "name": "",
          "type": "address"
        }
      ],
      "stateMutability": "view",
      "type": "function"
    },
    {
      "inputs": [],
      "name": "pricingCurrency",
      "outputs": [
        {
          "internalType": "uint256",
          "name": "",
          "type": "uint256"
        }
      ],
      "stateMutability": "view",
      "type": "function"
    },
    {
      "inputs": [],
      "name": "pricingDecimals",
      "outputs": [
        {
          "internalType": "uint256",
          "name": "",
          "type": "uint256"
        }
      ],
      "stateMutability": "view",
      "type": "function"
    },
    {
      "inputs": [],
      "name": "projectId",
      "outputs": [
        {
          "internalType": "uint256",
          "name": "",
          "type": "uint256"
        }
      ],
      "stateMutability": "view",
      "type": "function"
    },
    {
      "inputs": [
        {
          "components": [
            {
              "internalType": "contract IJBPaymentTerminal",
              "name": "terminal",
              "type": "address"
            },
            {
              "internalType": "address",
              "name": "holder",
              "type": "address"
            },
            {
              "internalType": "uint256",
              "name": "projectId",
              "type": "uint256"
            },
            {
              "internalType": "uint256",
              "name": "currentFundingCycleConfiguration",
              "type": "uint256"
            },
            {
              "internalType": "uint256",
              "name": "tokenCount",
              "type": "uint256"
            },
            {
              "internalType": "uint256",
              "name": "totalSupply",
              "type": "uint256"
            },
            {
              "internalType": "uint256",
              "name": "overflow",
              "type": "uint256"
            },
            {
              "components": [
                {
                  "internalType": "address",
                  "name": "token",
                  "type": "address"
                },
                {
                  "internalType": "uint256",
                  "name": "value",
                  "type": "uint256"
                },
                {
                  "internalType": "uint256",
                  "name": "decimals",
                  "type": "uint256"
                },
                {
                  "internalType": "uint256",
                  "name": "currency",
                  "type": "uint256"
                }
              ],
              "internalType": "struct JBTokenAmount",
              "name": "reclaimAmount",
              "type": "tuple"
            },
            {
              "internalType": "bool",
              "name": "useTotalOverflow",
              "type": "bool"
            },
            {
              "internalType": "uint256",
              "name": "redemptionRate",
              "type": "uint256"
            },
            {
              "internalType": "string",
              "name": "memo",
              "type": "string"
            },
            {
              "internalType": "bytes",
              "name": "metadata",
              "type": "bytes"
            }
          ],
          "internalType": "struct JBRedeemParamsData",
          "name": "_data",
          "type": "tuple"
        }
      ],
      "name": "redeemParams",
      "outputs": [
        {
          "internalType": "uint256",
          "name": "reclaimAmount",
          "type": "uint256"
        },
        {
          "internalType": "string",
          "name": "memo",
          "type": "string"
        },
        {
          "components": [
            {
              "internalType": "contract IJBRedemptionDelegate",
              "name": "delegate",
              "type": "address"
            },
            {
              "internalType": "uint256",
              "name": "amount",
              "type": "uint256"
            }
          ],
          "internalType": "struct JBRedemptionDelegateAllocation[]",
          "name": "delegateAllocations",
          "type": "tuple[]"
        }
      ],
      "stateMutability": "view",
      "type": "function"
    },
    {
      "inputs": [
        {
          "internalType": "uint256[]",
          "name": "_tokenIds",
          "type": "uint256[]"
        },
        {
          "components": [
            {
              "internalType": "contract IJBPaymentTerminal",
              "name": "terminal",
              "type": "address"
            },
            {
              "internalType": "address",
              "name": "holder",
              "type": "address"
            },
            {
              "internalType": "uint256",
              "name": "projectId",
              "type": "uint256"
            },
            {
              "internalType": "uint256",
              "name": "currentFundingCycleConfiguration",
              "type": "uint256"
            },
            {
              "internalType": "uint256",
              "name": "tokenCount",
              "type": "uint256"
            },
            {
              "internalType": "uint256",
              "name": "totalSupply",
              "type": "uint256"
            },
            {
              "internalType": "uint256",
              "name": "overflow",
              "type": "uint256"
            },
            {
              "components": [
                {
                  "internalType": "address",
                  "name": "token",
                  "type": "address"
                },
                {
                  "internalType": "uint256",
                  "name": "value",
                  "type": "uint256"
                },
                {
                  "internalType": "uint256",
                  "name": "decimals",
                  "type": "uint256"
                },
                {
                  "internalType": "uint256",
                  "name": "currency",
                  "type": "uint256"
                }
              ],
              "internalType": "struct JBTokenAmount",
              "name": "reclaimAmount",
              "type": "tuple"
            },
            {
              "internalType": "bool",
              "name": "useTotalOverflow",
              "type": "bool"
            },
            {
              "internalType": "uint256",
              "name": "redemptionRate",
              "type": "uint256"
            },
            {
              "internalType": "string",
              "name": "memo",
              "type": "string"
            },
            {
              "internalType": "bytes",
              "name": "metadata",
              "type": "bytes"
            }
          ],
          "internalType": "struct JBRedeemParamsData",
          "name": "",
          "type": "tuple"
        }
      ],
      "name": "redemptionWeightOf",
      "outputs": [
        {
          "internalType": "uint256",
          "name": "cumulativeWeight",
          "type": "uint256"
        }
      ],
      "stateMutability": "view",
      "type": "function"
    },
    {
      "inputs": [],
      "name": "renounceOwnership",
      "outputs": [],
      "stateMutability": "nonpayable",
      "type": "function"
    },
    {
      "inputs": [
        {
          "internalType": "uint256",
          "name": "_tokenId",
          "type": "uint256"
        },
        {
          "internalType": "uint256",
          "name": "_salePrice",
          "type": "uint256"
        }
      ],
      "name": "royaltyInfo",
      "outputs": [
        {
          "internalType": "address",
          "name": "",
          "type": "address"
        },
        {
          "internalType": "uint256",
          "name": "",
          "type": "uint256"
        }
      ],
      "stateMutability": "view",
      "type": "function"
    },
    {
      "inputs": [
        {
          "internalType": "address",
          "name": "from",
          "type": "address"
        },
        {
          "internalType": "address",
          "name": "to",
          "type": "address"
        },
        {
          "internalType": "uint256",
          "name": "tokenId",
          "type": "uint256"
        }
      ],
      "name": "safeTransferFrom",
      "outputs": [],
      "stateMutability": "nonpayable",
      "type": "function"
    },
    {
      "inputs": [
        {
          "internalType": "address",
          "name": "from",
          "type": "address"
        },
        {
          "internalType": "address",
          "name": "to",
          "type": "address"
        },
        {
          "internalType": "uint256",
          "name": "tokenId",
          "type": "uint256"
        },
        {
          "internalType": "bytes",
          "name": "data",
          "type": "bytes"
        }
      ],
      "name": "safeTransferFrom",
      "outputs": [],
      "stateMutability": "nonpayable",
      "type": "function"
    },
    {
      "inputs": [
        {
          "internalType": "address",
          "name": "operator",
          "type": "address"
        },
        {
          "internalType": "bool",
          "name": "approved",
          "type": "bool"
        }
      ],
      "name": "setApprovalForAll",
      "outputs": [],
      "stateMutability": "nonpayable",
      "type": "function"
    },
    {
      "inputs": [
        {
          "internalType": "string",
          "name": "_baseUri",
          "type": "string"
        }
      ],
      "name": "setBaseUri",
      "outputs": [],
      "stateMutability": "nonpayable",
      "type": "function"
    },
    {
      "inputs": [
        {
          "internalType": "string",
          "name": "_contractUri",
          "type": "string"
        }
      ],
      "name": "setContractUri",
      "outputs": [],
      "stateMutability": "nonpayable",
      "type": "function"
    },
    {
      "inputs": [
        {
          "internalType": "address",
          "name": "_beneficiary",
          "type": "address"
        }
      ],
      "name": "setDefaultReservedTokenBeneficiary",
      "outputs": [],
      "stateMutability": "nonpayable",
      "type": "function"
    },
    {
      "inputs": [
        {
          "internalType": "uint256",
          "name": "_tierId",
          "type": "uint256"
        },
        {
          "internalType": "bytes32",
          "name": "_encodedIPFSUri",
          "type": "bytes32"
        }
      ],
      "name": "setEncodedIPFSUriOf",
      "outputs": [],
      "stateMutability": "nonpayable",
      "type": "function"
    },
    {
      "inputs": [
        {
          "internalType": "address",
          "name": "_delegatee",
          "type": "address"
        },
        {
          "internalType": "uint256",
          "name": "_tierId",
          "type": "uint256"
        }
      ],
      "name": "setTierDelegate",
      "outputs": [],
      "stateMutability": "nonpayable",
      "type": "function"
    },
    {
      "inputs": [
        {
          "components": [
            {
              "internalType": "address",
              "name": "delegatee",
              "type": "address"
            },
            {
              "internalType": "uint256",
              "name": "tierId",
              "type": "uint256"
            }
          ],
          "internalType": "struct JBTiered721SetTierDelegatesData[]",
          "name": "_setTierDelegatesData",
          "type": "tuple[]"
        }
      ],
      "name": "setTierDelegates",
      "outputs": [],
      "stateMutability": "nonpayable",
      "type": "function"
    },
    {
      "inputs": [
        {
          "components": [
            {
              "internalType": "uint256",
              "name": "id",
              "type": "uint256"
            },
            {
              "internalType": "uint256",
              "name": "redemptionWeight",
              "type": "uint256"
            }
          ],
          "internalType": "struct DefifaTierRedemptionWeight[]",
          "name": "_tierWeights",
          "type": "tuple[]"
        }
      ],
      "name": "setTierRedemptionWeights",
      "outputs": [],
      "stateMutability": "nonpayable",
      "type": "function"
    },
    {
      "inputs": [
        {
          "internalType": "contract IJBTokenUriResolver",
          "name": "_tokenUriResolver",
          "type": "address"
        }
      ],
      "name": "setTokenUriResolver",
      "outputs": [],
      "stateMutability": "nonpayable",
      "type": "function"
    },
    {
      "inputs": [],
      "name": "store",
      "outputs": [
        {
          "internalType": "contract IJBTiered721DelegateStore",
          "name": "",
          "type": "address"
        }
      ],
      "stateMutability": "view",
      "type": "function"
    },
    {
      "inputs": [
        {
          "internalType": "bytes4",
          "name": "_interfaceId",
          "type": "bytes4"
        }
      ],
      "name": "supportsInterface",
      "outputs": [
        {
          "internalType": "bool",
          "name": "",
          "type": "bool"
        }
      ],
      "stateMutability": "view",
      "type": "function"
    },
    {
      "inputs": [],
      "name": "symbol",
      "outputs": [
        {
          "internalType": "string",
          "name": "",
          "type": "string"
        }
      ],
      "stateMutability": "view",
      "type": "function"
    },
    {
      "inputs": [],
      "name": "tierRedemptionWeights",
      "outputs": [
        {
          "internalType": "uint256[128]",
          "name": "",
          "type": "uint256[128]"
        }
      ],
      "stateMutability": "view",
      "type": "function"
    },
    {
      "inputs": [
        {
          "internalType": "uint256",
          "name": "_tokenId",
          "type": "uint256"
        }
      ],
      "name": "tokenURI",
      "outputs": [
        {
          "internalType": "string",
          "name": "",
          "type": "string"
        }
      ],
      "stateMutability": "view",
      "type": "function"
    },
    {
      "inputs": [
        {
          "components": [
            {
              "internalType": "contract IJBPaymentTerminal",
              "name": "terminal",
              "type": "address"
            },
            {
              "internalType": "address",
              "name": "holder",
              "type": "address"
            },
            {
              "internalType": "uint256",
              "name": "projectId",
              "type": "uint256"
            },
            {
              "internalType": "uint256",
              "name": "currentFundingCycleConfiguration",
              "type": "uint256"
            },
            {
              "internalType": "uint256",
              "name": "tokenCount",
              "type": "uint256"
            },
            {
              "internalType": "uint256",
              "name": "totalSupply",
              "type": "uint256"
            },
            {
              "internalType": "uint256",
              "name": "overflow",
              "type": "uint256"
            },
            {
              "components": [
                {
                  "internalType": "address",
                  "name": "token",
                  "type": "address"
                },
                {
                  "internalType": "uint256",
                  "name": "value",
                  "type": "uint256"
                },
                {
                  "internalType": "uint256",
                  "name": "decimals",
                  "type": "uint256"
                },
                {
                  "internalType": "uint256",
                  "name": "currency",
                  "type": "uint256"
                }
              ],
              "internalType": "struct JBTokenAmount",
              "name": "reclaimAmount",
              "type": "tuple"
            },
            {
              "internalType": "bool",
              "name": "useTotalOverflow",
              "type": "bool"
            },
            {
              "internalType": "uint256",
              "name": "redemptionRate",
              "type": "uint256"
            },
            {
              "internalType": "string",
              "name": "memo",
              "type": "string"
            },
            {
              "internalType": "bytes",
              "name": "metadata",
              "type": "bytes"
            }
          ],
          "internalType": "struct JBRedeemParamsData",
          "name": "",
          "type": "tuple"
        }
      ],
      "name": "totalRedemptionWeight",
      "outputs": [
        {
          "internalType": "uint256",
          "name": "",
          "type": "uint256"
        }
      ],
      "stateMutability": "view",
      "type": "function"
    },
    {
      "inputs": [
        {
          "internalType": "address",
          "name": "from",
          "type": "address"
        },
        {
          "internalType": "address",
          "name": "to",
          "type": "address"
        },
        {
          "internalType": "uint256",
          "name": "tokenId",
          "type": "uint256"
        }
      ],
      "name": "transferFrom",
      "outputs": [],
      "stateMutability": "nonpayable",
      "type": "function"
    },
    {
      "inputs": [
        {
          "internalType": "address",
          "name": "newOwner",
          "type": "address"
        }
      ],
      "name": "transferOwnership",
      "outputs": [],
      "stateMutability": "nonpayable",
      "type": "function"
    },
    {
      "inputs": [],
      "name": "typeface",
      "outputs": [
        {
          "internalType": "contract ITypeface",
          "name": "",
          "type": "address"
        }
      ],
      "stateMutability": "view",
      "type": "function"
    }
  ],
  "bytecode": {
    "object": "0x608080604052346100665760078054336001600160a01b03198083168217909355906001600160a01b03167f8be0079c531659141344cd1fd0a4f28419497f9722a3daafe3b4186f6b6457e0600080a3309060085416176008556171ad90816200006c8239f35b600080fdfe60806040526004361015610013575b600080fd5b60003560e01c806301ffc9a71461048757806306fdde031461047e578063081812fc14610475578063095ea7b31461046c5780631d153ca41461046357806323b872dd1461045a5780632407497e14610451578063245a45b51461044857806325eb91ee1461043f5780632a55205a146104365780632a596e531461042d5780632b13c58f146104245780632f4415001461041b57806336c1a93b146104125780633fafa1271461040957806342842e0e1461040057806348c2b65b146103f75780634d5a1d11146103ee5780634ecba625146103e5578063525350ba146103dc57806354c6d1f5146103d3578063557e7155146103ca5780636352211e146103c1578063640abacd146103b857806364640c1e146103af5780636ac6d941146103a657806370a082311461039d578063715018a6146103945780637ba62bf91461038b57806382732b6d146103825780638da5cb5b146103795780639494bf721461037057806394c5c5ca1461036757806395d89b411461035e578063975057e7146103555780639df454681461034c578063a0bcfc7f14610343578063a22cb4651461033a578063a51cfd1814610331578063aa4fb15b14610328578063ab951e391461031f578063b88d4fde14610316578063c41c2f241461030d578063c74b13d914610304578063c87b56dd146102fb578063ca323efe146102f2578063ccb4807b146102e9578063d1704baf146102e0578063d31cc52c146102d7578063d3419bf3146102ce578063d40e7146146102c5578063d46cf171146102bc578063da9ee8b7146102b3578063df487e26146102aa578063e8a3d485146102a1578063e985e9c5146102985763f2fde38b1461029057600080fd5b61000e613093565b5061000e61302a565b5061000e612f67565b5061000e612ea9565b5061000e612db3565b5061000e612cf7565b5061000e612c3c565b5061000e612c12565b5061000e612be3565b5061000e612b1a565b5061000e612a63565b5061000e612a18565b5061000e61208c565b5061000e611fda565b5061000e611fb0565b5061000e611f48565b5061000e611f1d565b5061000e611efd565b5061000e611e72565b5061000e611dc2565b5061000e611d07565b5061000e611c38565b5061000e611c0e565b5061000e611b68565b5061000e611b3c565b5061000e611b1e565b5061000e611af4565b5061000e611aa7565b5061000e611a48565b5061000e61198b565b5061000e6118ea565b5061000e611895565b5061000e61183b565b5061000e61181b565b5061000e6117fc565b5061000e6117d2565b5061000e6117b3565b5061000e6116e8565b5061000e6116c9565b5061000e61169f565b5061000e6115b5565b5061000e6111bc565b5061000e61119d565b5061000e6110f1565b5061000e61105e565b5061000e610ba6565b5061000e610ae8565b5061000e610a2e565b5061000e6109bb565b5061000e61094d565b5061000e610863565b5061000e61082e565b5061000e6107d8565b5061000e610736565b5061000e6106e7565b5061000e610619565b5061000e6104a2565b6001600160e01b031981160361000e57565b503461000e57602036600319011261000e576104f16004356104c381610490565b63ffffffff60e01b166306decc2d60e21b81149081156104f5575b5060405190151581529081906020820190565b0390f35b63b3bcbb7960e01b8114915081156105a1575b8115610590575b811561057f575b811561056e575b811561052b575b50386104de565b6380ac58cd60e01b81149150811561055d575b811561054c575b5038610524565b6301ffc9a760e01b14905038610545565b635b5e139f60e01b8114915061053e565b63152a902d60e11b8114915061051d565b632b13c58f60e01b81149150610516565b63da9ee8b760e01b8114915061050f565b6371700c6960e01b81149150610508565b600091031261000e57565b60005b8381106105d05750506000910152565b81810151838201526020016105c0565b906020916105f9815180928185528580860191016105bd565b601f01601f1916010190565b9060206106169281815201906105e0565b90565b503461000e576000806003193601126106e4576040519080805461063c816139d1565b808552916001918083169081156106ba5750600114610672575b6104f18561066681870382610f84565b60405191829182610605565b80809450526000805160206171388339815191525b8284106106a2575050508101602001610666826104f1610656565b80546020858701810191909152909301928101610687565b8695506104f19693506020925061066694915060ff191682840152151560051b8201019293610656565b80fd5b503461000e57602036600319011261000e5760206107066004356155b0565b6040516001600160a01b039091168152f35b6001600160a01b0381160361000e57565b359061073482610718565b565b503461000e57604036600319011261000e5760043561075481610718565b6024356001600160a01b03806107698361557d565b1680918416146107c6578033141590816107a0575b5061078e5761078c916162a7565b005b60405163e5fa0e3560e01b8152600490fd5b600090815260046020908152604080832033845290915290205460ff161590503861077e565b60405163133f8be960e01b8152600490fd5b503461000e57600036600319011261000e576008546040516001600160a01b039091168152602090f35b606090600319011261000e5760043561081a81610718565b9060243561082781610718565b9060443590565b503461000e5761083d36610802565b906108488233615627565b1561078e5761078c92615fee565b60c4359061073482610718565b503461000e57600060203660031901126106e45760043561088381610718565b61088b616bc5565b6009546001600160a01b03908116803b156109495760405163036129cb60e61b81526001600160a01b03841660048201529084908290602490829084905af1801561093c575b610909575b506040513381529116907fe7784d93cfbfa4408e19577e6cc0436f4dbb51214b70e100905dfce9def88c1690602090a280f35b926109357fe7784d93cfbfa4408e19577e6cc0436f4dbb51214b70e100905dfce9def88c169294610f12565b92906108d6565b610944613339565b6108d1565b8380fd5b503461000e57602036600319011261000e5760043561096b81610718565b60018060a01b0316600052600e6020526020604060002054604051908152f35b9181601f8401121561000e578235916001600160401b03831161000e576020808501948460051b01011161000e57565b503461000e57604036600319011261000e576004356001600160401b0380821161000e573660238301121561000e5781600401359181831161000e573660246101c085028301011161000e5760243591821161000e5761078c92610a25602493369060040161098b565b93909201614d59565b503461000e5760408060031936011261000e5760648160018060a01b03600954168151928380926329c5eaf560e11b8252306004830152600435602483015260243560448301525afa918215610adb575b6000918293610aa6575b50516001600160a01b039190911681526020810191909152604090f35b81610acc9294506104f193503d8511610ad4575b610ac48183610f84565b810190614859565b929091610a89565b503d610aba565b610ae3613339565b610a7f565b503461000e5760208060031936011261000e57600435906001600160401b039081831161000e573660238401121561000e57826004013591821161000e57602490600693368385871b8301011161000e5760005b848110610b4557005b600190610b67610b5b3687848b1b870101611018565b85815191015190615170565b01610b3c565b90816101e091031261000e5790565b602060031982011261000e57600435906001600160401b03821161000e5761061691600401610b6d565b50610bb036610b7c565b3415801590610e5b575b8015610e4b575b610e39576101c081016024610bd68284613125565b9050108015610e01575b610def57610bf1610bf99183613125565b810190613280565b8051600a54909350909150610c1e906001600160a01b03165b6001600160a01b031690565b600554604080516321d1336160e11b81526004808201939093529094928291610120918290829060249082905afa918215610de2575b600092610db5575b505051149360005b838110610c94578686610c768761551c565b610c7c57005b610c8f60a061078c92013560925461345a565b609255565b610c9e818661325e565b51610cc3610cb6826000526002602052604060002090565b546001600160a01b031690565b610ccf610c128a614242565b6001600160a01b0390911603610da657908187610ced600194615d8b565b610cf9575b5001610c64565b600954610d5f91610d3991610d16906001600160a01b0316610c12565b90865180926342f9914b60e01b8252818060209687958d83019190602083019252565b03915afa918215610d99575b600092610d6c575b50506000526093602052604060002090565b8054600101905538610cf2565b610d8b9250803d10610d92575b610d838183610f84565b8101906136d8565b3880610d4d565b503d610d79565b610da1613339565b610d45565b50505163075fd2b160e01b8152fd5b610dd49250803d10610ddb575b610dcc8183610f84565b8101906132c5565b3880610c5c565b503d610dc2565b610dea613339565b610c54565b604051632a84050f60e01b8152600490fd5b50610e15610e0f8284613125565b90613157565b63b3bcbb7960e01b916001600160e01b031991610e3191613179565b161415610be0565b604051633efca5c360e11b8152600490fd5b5060055460208201351415610bc1565b50600654610ea590602090610e78906001600160a01b0316610c12565b600554604051636e49181f60e01b8152600481019190915233602482015292839190829081906044820190565b03915afa908115610eee575b600091610ec0575b5015610bba565b610ee1915060203d8111610ee7575b610ed98183610f84565b81019061422d565b38610eb9565b503d610ecf565b610ef6613339565b610eb1565b50634e487b7160e01b600052604160045260246000fd5b6001600160401b038111610f2557604052565b610f2d610efb565b604052565b608081019081106001600160401b03821117610f2557604052565b604081019081106001600160401b03821117610f2557604052565b61100081019081106001600160401b03821117610f2557604052565b90601f801991011681019081106001600160401b03821117610f2557604052565b604051906101c082018281106001600160401b03821117610f2557604052565b6040519061073482610f4d565b6040519061012082018281106001600160401b03821117610f2557604052565b6020906001600160401b03811161100b575b60051b0190565b611013610efb565b611004565b919082604091031261000e57604051604081018181106001600160401b03821117611051575b6040526020808294803584520135910152565b611059610efb565b61103e565b503461000e5760208060031936011261000e57600435906001600160401b03821161000e573660238301121561000e5781600401359161109d83610ff2565b916040936110ad85519485610f84565b80845260248285019160061b8401019236841161000e57602401905b8382106110d95761078c8561402f565b8286916110e63685611018565b8152019101906110c9565b503461000e5760208060031936011261000e576001600160401b039060043582811161000e5761112590369060040161098b565b919061112f616bc5565b60005b83811061113b57005b60059080821b830135603e198436030181121561000e5783018035601e198236030181121561000e5781019283359388851161000e5786859101911b3603811361000e57600193611190876111969401614242565b9161537c565b5001611132565b503461000e57600036600319011261000e576020600554604051908152f35b503461000e5761078c6111ce36610802565b9060405192602084018481106001600160401b038211176111f6575b604052600084526155e8565b6111fe610efb565b6111ea565b6024359061073482610718565b6020906001600160401b03811161122d575b601f01601f19160190565b611235610efb565b611222565b92919261124682611210565b916112546040519384610f84565b82948184528183011161000e578281602093846000960137010152565b9080601f8301121561000e578160206106169335910161123a565b6084359061073482610718565b359069ffffffffffffffffffff8216820361000e57565b359065ffffffffffff8216820361000e57565b359064ffffffffff8216820361000e57565b61ffff81160361000e57565b3590610734826112d5565b359060ff8216820361000e57565b8015150361000e57565b3590610734826112fa565b919091608090818185031261000e57604080519261132c84610f32565b839583356001600160401b03811161000e57840181601f8201121561000e5780359061135782610ff2565b9261136486519485610f84565b82845260209485850191866101c08096028501019381851161000e578701925b8484106113b757505050928752505050808301359084015280820135908301526060906113b2908201610729565b910152565b858483031261000e578786916113cb610fa5565b6113d487611299565b81526113e18388016112b0565b838201526113f08c88016112c3565b8c82015260606114018189016112e1565b908201526114108688016112e1565b8682015260a0611421818901610729565b9082015260c06114328189016112ec565b9082015260e0611443818901610729565b9082015261010080880135908201526101206114608189016112ec565b90820152610140611472818901611304565b90820152610160611484818901611304565b90820152610180611496818901611304565b908201526101a06114a8818901611304565b90820152815201930192611384565b610124359061073482610718565b60809061014319011261000e57604051906114df82610f32565b81610144356114ed816112fa565b8152610164356114fc816112fa565b60208201526101843561150e816112fa565b604082015260606101a43591611523836112fa565b0152565b6101c4359061073482610718565b9080601f8301121561000e5781359061154d82610ff2565b9261155b6040519485610f84565b828452602092838086019160051b8301019280841161000e57848301915b8483106115895750505050505090565b82356001600160401b03811161000e5786916115aa84848094890101611271565b815201920191611579565b503461000e5761020036600319011261000e576115d0611203565b6044356001600160401b039182821161000e576115f260049236908401611271565b60643584811161000e576116099036908501611271565b61161161128c565b60a43586811161000e576116289036908701611271565b611630610856565b60e43588811161000e576116479036908901611271565b916101043589811161000e576116609036908a0161130f565b936116696114b7565b95611673366114c5565b9761167c611527565b996101e4359c8d1161000e576116988c61078c9e369101611535565b9b35613edd565b503461000e57600036600319011261000e576095546040516001600160a01b039091168152602090f35b503461000e57600036600319011261000e576020600d54604051908152f35b503461000e57604036600319011261000e57600435602435611708616bc5565b6009546001600160a01b0316803b1561000e577f677da4fed654db8e604791fa2582f342e2001aa217e27f6985eb3e0f67e5a7fc91600080611788936044604051809481936324de8d6360e11b83528a60048401528760248401525af180156117a6575b61178d575b506040805191825233602083015290918291820190565b0390a2005b8061179a6117a092610f12565b806105b2565b38611771565b6117ae613339565b61176c565b503461000e57602036600319011261000e5760206107066004356147b1565b503461000e57600036600319011261000e57600a546040516001600160a01b039091168152602090f35b503461000e57602036600319011261000e57602061070660043561557d565b503461000e57600036600319011261000e576020604051633b9aca008152f35b503461000e57600036600319011261000e576020600c54604051908152f35b6020908160408183019282815285518094520193019160005b828110611881575050505090565b835185529381019392810192600101611873565b503461000e57604036600319011261000e576004356001600160401b03811161000e576118de6118cc6104f192369060040161098b565b602435916118d983610718565b61537c565b6040519182918261185a565b503461000e57602036600319011261000e576104f160043561190b81610718565b600954604051633de222bb60e21b81523060048201526001600160a01b0392831660248201529160209183916044918391165afa90811561197e575b600091611960575b506040519081529081906020820190565b611978915060203d8111610d9257610d838183610f84565b3861194f565b611986613339565b611947565b503461000e576000806003193601126106e4576119a6616bc5565b600780546001600160a01b0319811690915581906001600160a01b03167f8be0079c531659141344cd1fd0a4f28419497f9722a3daafe3b4186f6b6457e08280a380f35b81601f8201121561000e57803591611a0183610ff2565b92611a0f6040519485610f84565b808452602092838086019260051b82010192831161000e578301905b828210611a39575050505090565b81358152908301908301611a2b565b503461000e57604036600319011261000e576001600160401b0360043581811161000e57611a7a9036906004016119ea565b9060243590811161000e57602091611a99611a9f923690600401610b6d565b50613743565b604051908152f35b503461000e57604036600319011261000e576020600435611ac781610718565b60018060a01b03809116600052600f82526040600020602435600052825260406000205416604051908152f35b503461000e57600036600319011261000e576007546040516001600160a01b039091168152602090f35b503461000e57611b2d36610b7c565b506020604051633b9aca008152f35b503461000e57602036600319011261000e5760043560005260116020526020611a9f6040600020616c8c565b503461000e576000806003193601126106e45760405190806001805491611b8e836139d1565b808652928281169081156106ba5750600114611bb4576104f18561066681870382610f84565b92508083527fb10e2d527612073b26eecdfd717e6a320cf44b4afac2b0732d9fcbe2b7fa0cf65b828410611bf6575050508101602001610666826104f1610656565b80546020858701810191909152909301928101611bdb565b503461000e57600036600319011261000e576009546040516001600160a01b039091168152602090f35b503461000e57600036600319011261000e57604051611c5681610f68565b611000809136903760405160126000825b60808210611ca857505050611c7b81610f68565b60405190600090825b60808310611c9157505050f35b600190825181526020809101920192019190611c84565b6001602081928554815201930191019091611c67565b90602060031983011261000e576004356001600160401b039283821161000e578060238301121561000e57816004013593841161000e576024848301011161000e576024019190565b503461000e57611d1636611cbe565b611d1e616bc5565b600954600091906001600160a01b0316803b15611dbe578260405180926331315e5960e11b8252818381611d56888b60048401615133565b03925af18015611db1575b611d9e575b50611d71919261515b565b7f7bc9110d5de090dd59e07912d2b93a5a27ac70a60c8d8e324db4f9ee8b8b5c136020604051338152a280f35b91611dab611d7193610f12565b91611d66565b611db9613339565b611d61565b8280fd5b503461000e57604036600319011261000e57600435611de081610718565b602435611dec816112fa565b6001600160a01b03821691338314611e60573360009081526004602090815260408083206001600160a01b039094168352929052209015159060ff1981541660ff83161790556040519081527f17307eab39ab6107e8899845ad3d59bd9653f200f220920489ca2b5937696c3160203392a3005b6040516306f8139d60e11b8152600490fd5b503461000e57611e89611e8436610b7c565b613467565b604092919280519384938452611eab60209160608387015260608601906105e0565b90848203838601528080855193848152019401926000905b838210611ed05786860387f35b845180516001600160a01b0316875283015186840152879650948501949382019360019190910190611ec3565b503461000e57604036600319011261000e5761078c602435600435615170565b503461000e57604036600319011261000e5761078c600435611f3e81610718565b60243590336145aa565b503461000e57608036600319011261000e57600435611f6681610718565b602435611f7281610718565b606435916001600160401b03831161000e573660238401121561000e57611fa661078c93369060248160040135910161123a565b91604435916155e8565b503461000e57600036600319011261000e576006546040516001600160a01b039091168152602090f35b503461000e5760208060031936011261000e57600435906001600160401b03821161000e573660238301121561000e5781600401359161201983610ff2565b9160409361202985519485610f84565b80845260248285019160061b8401019236841161000e57602401905b8382106120555761078c85614541565b858236031261000e57828691825161206c81610f4d565b843561207781610718565b81528285013583820152815201910190612045565b503461000e57602036600319011261000e576120a66138db565b6120ae61395c565b6120b782613211565b526120c181613211565b506040516d1ec89b985b59488e88961656888b60921b60208201527f226465736372697074696f6e223a224465736372697074696f6e205465787422602e820152600b60fa1b604e8201527f22696d616765223a22646174613a696d6167652f7376672b786d6c3b62617365604f820152620d8d0b60ea1b606f82015260528152601f199190612152607282610f84565b61215b8261322b565b526121658161322b565b5061216e613a0b565b6023815110600014612a0a576121826139b3565b905b6000805260946020526121b67f71879ed144ce54ba860b4b7bdfef017f991f00a558107ae54d9b7241247abb0c613ab2565b8051600381101561296f57506121ca613c48565b6121d26142fa565b926121db61438b565b9460405195869560208701612260906059907f3c7376672077696474683d2235303022206865696768743d223530302220766981527f6577426f783d22302030203130302520313030252220786d6c6e733d2268747460208201527f703a2f2f7777772e77332e6f72672f323030302f737667223e0000000000000060408201520190565b7f3c7374796c653e40666f6e742d666163657b666f6e742d66616d696c793a224381527f617073756c65732d333030223b7372633a75726c28646174613a666f6e742f7460208201527f727565747970653b636861727365743d7574662d383b6261736536342c0000006040820152605d016122db91613c67565b75293b666f726d617428226f70656e7479706522293b7d60501b81526016017f40666f6e742d666163657b666f6e742d66616d696c793a2243617073756c657381527f2d373030223b7372633a75726c28646174613a666f6e742f74727565747970656020820152750ed8da185c9cd95d0f5d5d198b4e0ed8985cd94d8d0b60521b604082015260560161236e91613c67565b75293b666f726d617428226f70656e7479706522293b7d60501b81526016017f746578747b66696c6c3a236330623366313b77686974652d73706163653a707281527f652d777261703b2077696474683a313030253b207d3c2f7374796c653e0000006020820152603d017f3c726563742077696474683d22313030767722206865696768743d22313030768152723411103334b6361e9111989c189a191a11179f60691b60208201526033017f3c7465787420783d2231302220793d22323022207374796c653d22666f6e742d81527f73697a653a313670783b20666f6e742d66616d696c793a2043617073756c657360208201527f2d3330303b20666f6e742d7765696768743a3330303b2066696c6c3a202362656040820152731b1cb09b9d911f2222a324a3209e17ba32bc3a1f60611b60608201526074017f3c7465787420783d2231302220793d22343022207374796c653d22666f6e742d81526439b4bd329d60d91b60208201526025016124e791613c67565b7f70783b20666f6e742d66616d696c793a2043617073756c65732d3330303b206681527037b73a16bbb2b4b3b43a1d1998181d911f60791b602082015260310161253091613c67565b661e17ba32bc3a1f60c91b81526007017f3c7465787420783d2231302220793d22363022207374796c653d22666f6e742d81527f73697a653a313670783b20666f6e742d66616d696c793a2043617073756c657360208201527f2d3330303b20666f6e742d7765696768743a3330303b2066696c6c3a2023333960408201527f333035393b223e47414d452049443a203132333c2f746578743e0000000000006060820152607a017f3c7465787420783d2231302220793d2234343022207374796c653d22666f6e7481527f2d73697a653a313670783b20666f6e742d66616d696c793a2043617073756c6560208201527f732d3330303b20666f6e742d7765696768743a3330303b2066696c6c3a20233360408201527f39333035393b223e544f4b454e2049443a20313030303030333c2f746578743e60608201526080017f3c7465787420783d2231302220793d2234363022207374796c653d22666f6e7481527f2d73697a653a313670783b20666f6e742d66616d696c793a2043617073756c6560208201527f732d3330303b20666f6e742d7765696768743a3330303b2066696c6c3a20233360408201527f39333035393b223e56414c55453a2033204554483c2f746578743e00000000006060820152607b017f3c7465787420783d2231302220793d2234383022207374796c653d22666f6e7481527f2d73697a653a313670783b20666f6e742d66616d696c793a2043617073756c6560208201527f732d3330303b20666f6e742d7765696768743a3330303b2066696c6c3a20233360408201527f39333035393b223e5241524954593a20312f31303c2f746578743e00000000006060820152607b017f3c7465787420746578744c656e6774683d2235303022206c656e67746841646a81527f7573743d2273706163696e672220783d223530252220793d223530252220737460208201526e3cb6329e913337b73a16b9b4bd329d60891b6040820152604f0161280d91613c67565b7f70783b20666f6e742d66616d696c793a2043617073756c65732d3730303b206681527f6f6e742d7765696768743a3730303b20746578742d616e63686f723a6d69646460208201527f6c653b20646f6d696e616e742d626173656c696e653a6d6964646c653b20223e604082015260600161288891613c67565b661e17ba32bc3a1f60c91b8152600701651e17b9bb339f60d11b81526006010383810182526128b79082610f84565b6128c090614458565b6128c98261323c565b526128d38161323c565b506128dc613c7a565b6128e58261324d565b526128ef8161324d565b506128f981613211565b51916129048261322b565b5161290e8361323c565b51926129199061324d565b516040519384926020840161292d91613c67565b61293691613c67565b61293f91613c67565b03908101825261294f9082610f84565b61295890614458565b61296191613c98565b6040516104f1819282610605565b60058110156129865750612981613c29565b6121ca565b60088110156129985750612981613c0a565b600a8110156129aa5750612981613bec565b600c8110156129bc5750612981613bce565b60108110156129ce5750612981613bb0565b60178110156129e05750612981613b92565b601e8110156129f25750612981613b74565b60231115612a0257612981613995565b612981613b56565b612a12613995565b90612184565b503461000e57604036600319011261000e57600435612a3681610718565b60018060a01b0316600052601060205260406000206024356000526020526020611a9f6040600020616c8c565b503461000e57612a7236611cbe565b612a7a616bc5565b600954600091906001600160a01b0316803b15611dbe5782604051809263d67b78fd60e01b8252818381612ab2888b60048401615133565b03925af18015612b0d575b612afa575b50612acd919261515b565b7fd36dc0c1a06103fdcaf15f3f6fb797d1a97997514c78de073640c8b5005454b86020604051338152a280f35b91612b07612acd93610f12565b91612ac2565b612b15613339565b612abd565b503461000e576101c036600319011261000e57612b35611203565b6044356001600160401b039182821161000e57612b5760049236908401611271565b60643584811161000e57612b6e9036908501611271565b612b7661128c565b60a43586811161000e57612b8d9036908701611271565b612b95610856565b9160e43588811161000e57612bad9036908901611271565b936101043598891161000e57612bc961078c9936908a0161130f565b95612bd26114b7565b97612bdc366114c5565b9935614a16565b503461000e57604036600319011261000e5760043560005260116020526020611a9f6024356040600020616cd0565b503461000e57600036600319011261000e57600b546040516001600160a01b039091168152602090f35b503461000e57606036600319011261000e57600435612c5a81610718565b60018060a01b0316600052601060205260406000206024356000526020526020611a9f6044356040600020616cd0565b91908252612ca460209160608385015260608401906105e0565b90604092838184039101528080855193848152019401926000905b838210612cce57505050505090565b845180516001600160a01b03168752830151868401529485019493820193600190910190612cbf565b503461000e576020600319818136011261000e57600435906001600160401b03821161000e576101a090823603011261000e57612d45612d3e610164830183600401613125565b369161123a565b60405190612d5282610f4d565b6001825260005b848110612d9d5750906104f191610124946000612d74610fc5565b30815291820152612d8483613211565b52612d8e82613211565b50604051948594013584612c8a565b8490612da76131a5565b82828601015201612d59565b5060031960203682011261000e57600435906001600160401b03821161000e5761020090823603011261000e57600554341590811591612e27575b8115612e18575b50612e065761078c906004016166ab565b6040516331c57b1b60e21b8152600490fd5b90506024820135141538612df5565b600654909150612e3f906001600160a01b0316610c12565b604051636e49181f60e01b81526004810183905233602482015290602090829060449082905afa908115612e9c575b600091612e7e575b501590612dee565b612e96915060203d8111610ee757610ed98183610f84565b38612e76565b612ea4613339565b612e6e565b503461000e57602036600319011261000e57600435612ec781610718565b612ecf616bc5565b6009546001600160a01b0390811691823b1561000e576000916024839260405194859384926317161f7d60e01b845216968760048401525af18015612f5a575b612f47575b506040513381527fab0014d4c7a642a02a31b303a318908c22b0fb2001f107278fc6076b4c671b65908060208101611788565b8061179a612f5492610f12565b38612f14565b612f62613339565b612f0f565b503461000e576000806003193601126106e457600954604051630155619b60e71b815230600482015291908190839060249082906001600160a01b03165afa90811561301d575b8091612fc3575b604051806104f18482610605565b90503d8082843e612fd48184610f84565b820191602081840312613019578051906001600160401b038211611dbe57019082601f830112156106e457506104f1918160206130139351910161426e565b38612fb5565b5080fd5b613025613339565b612fae565b503461000e57604036600319011261000e57602060ff61308760043561304f81610718565b6024359061305c82610718565b60018060a01b03166000526004845260406000209060018060a01b0316600052602052604060002090565b54166040519015158152f35b503461000e57602036600319011261000e576004356130b181610718565b6130b9616bc5565b6001600160a01b038116156130d15761078c90616c1d565b60405162461bcd60e51b815260206004820152602660248201527f4f776e61626c653a206e6577206f776e657220697320746865207a65726f206160448201526564647265737360d01b6064820152608490fd5b903590601e198136030182121561000e57018035906001600160401b03821161000e5760200191813603831361000e57565b9060241161000e5760200190600490565b9060441161000e5760400190600490565b6001600160e01b0319903581811693926004811061319657505050565b60040360031b82901b16169150565b604051906131b282610f4d565b60006020838281520152565b604051906131cb82610f4d565b600182528160005b602090818110156131f5576020916131e96131a5565b908285010152016131d3565b505050565b50634e487b7160e01b600052603260045260246000fd5b60209080511561321f570190565b6132276131fa565b0190565b60409080516001101561321f570190565b60609080516002101561321f570190565b60809080516003101561321f570190565b6020918151811015613273575b60051b010190565b61327b6131fa565b61326b565b9160608383031261000e57823592602081013561329c81610490565b9260408201356001600160401b03811161000e5761061692016119ea565b519061073482610718565b908161012091031261000e576132d9610fd2565b90805182526020810151602083015260408101516040830152606081015160608301526080810151608083015260a081015160a083015260c081015160c083015261332660e082016132ba565b60e0830152610100809101519082015290565b506040513d6000823e3d90fd5b5190610734826112fa565b90816101c091031261000e57613365610fa5565b90805182526020810151602083015260408101516040830152606081015160608301526080810151608083015260a081015160a083015260c081015160c08301526133b260e082016132ba565b60e083015261010080820151908301526101206133d08183016132ba565b90830152610140808201519083015261016080820151908301526101806133f8818301613346565b9083015261340a6101a0809201613346565b9082015290565b50634e487b7160e01b600052601160045260246000fd5b906002820180921161343657565b610734613411565b906020820180921161343657565b906001820180921161343657565b9190820180921161343657565b90600090600060808401356136c6576101c09283850193602461348a8688613125565b9050108015613694575b610def576134a06131be565b946134d5610bf16134af610fc5565b3081529260209387858201526134c48a613211565b526134ce89613211565b5089613125565b600a54909692506134ef91506001600160a01b0316610c12565b92604089815180966321d1336160e11b8252610120978891818061351f8860049801358883019190602083019252565b03915afa968715613687575b8597613668575b505060018096511461357e5750505050505050612d3e61356e61357a9261356861356260925460c08a013561345a565b91613743565b90617006565b946101a0810190613125565b9190565b95999693929190845194839761359e610c1260095460018060a01b031690565b915b878a106135c35750505050505050505050612d3e816101a061357a930190613125565b9091929394959697899d88613606886135dd859e8761325e565b51895163b67cb04760e01b81523089820190815260208101929092529283918291604090910190565b03818a5afa90811561365b575b8a9161362e575b500151019d019897969594939291906135a0565b61364e9150893d8b11613654575b6136468183610f84565b810190613351565b3861361a565b503d61363c565b613663613339565b613613565b61367f929750803d10610ddb57610dcc8183610f84565b943880613532565b61368f613339565b61352b565b506136a2610e0f8688613125565b63b3bcbb7960e01b916001600160e01b0319916136be91613179565b161415613494565b6040516309f82f1b60e31b8152600490fd5b9081602091031261000e575190565b60001981019190821161343657565b9190820391821161343657565b6080811015613716575b60120190600090565b61371e6131fa565b61370d565b811561372d570490565b634e487b7160e01b600052601260045260246000fd5b805160095460009392849291839190613764906001600160a01b0316610c12565b905b83851061378c575050505050811561377a57565b604051637691472960e01b8152600490fd5b909192939561387260019161386c6137a48a8661325e565b51604080516342f9914b60e01b81526004808201939093526020919082816024818d5afa9283156138ce575b8b936138af575b505051633a39e4d160e11b815230928101928352602083018290526101c09283908290819060400103818c5afa9283156138a2575b8a9361387d575b50508061385f61384e61383d61383361382e613866966136e7565b613703565b90549060031b1c90565b9460606080820151910151906136f6565b916000526093602052604060002090565b549061345a565b90613723565b9061345a565b960193929190613766565b613866929350908161389a92903d10613654576136468183610f84565b919038613813565b6138aa613339565b61380c565b6138c6929350803d10610d9257610d838183610f84565b9038806137d7565b6138d6613339565b6137d0565b6040519060a082018281106001600160401b0382111761391e575b604052600482528160005b6080811061390d575050565b806060602080938501015201613901565b613926610efb565b6138f6565b60405190602082018281106001600160401b0382111761394f575b60405260008252565b613957610efb565b613946565b6040519061396982610f4d565b601d82527f646174613a6170706c69636174696f6e2f6a736f6e3b6261736536342c0000006020830152565b604051906139a282610f4d565b6002825261032360f41b6020830152565b604051906139c082610f4d565b60028252610c8d60f21b6020830152565b90600182811c92168015613a01575b60208310146139eb57565b634e487b7160e01b600052602260045260246000fd5b91607f16916139e0565b60405190600082815491613a1e836139d1565b80835292600190818116908115613a905750600114613a45575b5061073492500383610f84565b600080805291506000805160206171388339815191525b848310613a755750610734935050810160200138613a38565b81935090816020925483858a01015201910190918592613a5c565b90506020925061073494915060ff191682840152151560051b82010138613a38565b9060405191826000825492613ac6846139d1565b908184526001948581169081600014613b335750600114613af0575b505061073492500383610f84565b9093915060005260209081600020936000915b818310613b1b57505061073493508201013880613ae2565b85548884018501529485019487945091830191613b03565b91505061073494506020925060ff191682840152151560051b8201013880613ae2565b60405190613b6382610f4d565b6002825261189b60f11b6020830152565b60405190613b8182610f4d565b6002825261033360f41b6020830152565b60405190613b9f82610f4d565b6002825261034360f41b6020830152565b60405190613bbd82610f4d565b6002825261036360f41b6020830152565b60405190613bdb82610f4d565b6002825261038360f41b6020830152565b60405190613bf982610f4d565b6002825261039360f41b6020830152565b60405190613c1782610f4d565b600382526203134360ec1b6020830152565b60405190613c3682610f4d565b600382526203230360ec1b6020830152565b60405190613c5582610f4d565b600382526203234360ec1b6020830152565b90613227602092828151948592016105bd565b60405190613c8782610f4d565b6002825261227d60f01b6020830152565b6020610734919392936040519481613cb987935180928680870191016105bd565b8201613ccd825180938680850191016105bd565b01038085520183610f84565b60125b60928110613ce75750565b60008155600101613cdc565b818110613cfe575050565b60008155600101613cf3565b90601f8211613d17575050565b6107349160008052600080516020617138833981519152906020601f840160051c83019310613d4e575b601f0160051c0190613cf3565b9091508190613d41565b90601f8211613d65575050565b6107349160016000527fb10e2d527612073b26eecdfd717e6a320cf44b4afac2b0732d9fcbe2b7fa0cf6906020601f840160051c83019310613d4e57601f0160051c0190613cf3565b9190601f8111613dbd57505050565b610734926000526020600020906020601f840160051c83019310613d4e57601f0160051c0190613cf3565b9081516001600160401b038111613ed0575b600190613e1081613e0b84546139d1565b613d58565b602080601f8311600114613e4b575081929394600092613e40575b5050600019600383901b1c191690821b179055565b015190503880613e2b565b90601f19831695613e7e60016000527fb10e2d527612073b26eecdfd717e6a320cf44b4afac2b0732d9fcbe2b7fa0cf690565b926000905b888210613eb95750508385969710613ea0575b505050811b019055565b015160001960f88460031b161c19169055388080613e96565b808785968294968601518155019501930190613e83565b613ed8610efb565b613dfa565b90613ef09a999897969594939291614a16565b60018060a01b03166001600160601b0360a01b609554161760955580519060005b828110613f1d57505050565b613f27818361325e565b516001808301809311614022575b82600052602091609483526040600020928151916001600160401b038311614015575b613f6c83613f6687546139d1565b87613dae565b81601f8411600114613fa85750928293918392600094613f9d575b50501b916000199060031b1c1916179055613f11565b015192503880613f87565b919083601f198116613fbf88600052602060002090565b946000905b88838310613ffb5750505010613fe2575b505050811b019055613f11565b015160001960f88460031b161c19169055388080613fd5565b858701518855909601959485019487935090810190613fc4565b61401d610efb565b613f58565b61402a613411565b613f35565b61407f9061403b616bc5565b600a54614050906001600160a01b0316610c12565b90600554604092835180916321d1336160e11b8252610120928391818060049a8b988983019190602083019252565b03915afa918215614208575b6000926141eb575b505051106141dd576140a3613cd9565b6009546140b8906001600160a01b0316610c12565b825163f1bea54f60e01b81523085820190815290916020918291849182908190850103915afa9182156141d0575b6000926141b1575b50909160009181519183945b8386106141225750505050633b9aca00915011614115575050565b51636ff44e9760e01b8152fd5b9091929381614131878561325e565b5151116141a1576141956001916141818661414c8a8861325e565b51015161416661382e61415f8c8a61325e565b51516136e7565b90919082549060031b600019811b9283911b16911916179055565b8561418c898761325e565b5101519061345a565b950194939291906140fa565b865163148e14dd60e21b81528890fd5b816141c99293503d8411610d9257610d838183610f84565b90386140ee565b6141d8613339565b6140e6565b50516303e08a3560e61b8152fd5b6142019250803d10610ddb57610dcc8183610f84565b3880614093565b614210613339565b61408b565b600281901b91906001600160fe1b0381160361343657565b9081602091031261000e5751610616816112fa565b3561061681610718565b6040519061425982610f4d565b60068252651b9bdc9b585b60d21b6020830152565b9092919261427b81611210565b916142896040519384610f84565b82948284528282011161000e5760206107349301906105bd565b60208183031261000e578051906001600160401b03821161000e57019080601f8301121561000e5781516106169260200161426e565b606060206106169381845280518285015201519160408082015201906105e0565b614337600060405161430b81610f4d565b61012c815261431861424c565b60208201526040518093819263bf6519ad60e01b8352600483016142d9565b038173a77b7d93e79f1e6b4f77fab29d9ef85733a3d44a5afa90811561437e575b600091614363575090565b610616913d8091833e6143768183610f84565b8101906142a3565b614386613339565b614358565b614337600060405161439c81610f4d565b6102bc815261431861424c565b60405190606082018281106001600160401b03821117614419575b604052604082527f6768696a6b6c6d6e6f707172737475767778797a303132333435363738392b2f6040837f4142434445464748494a4b4c4d4e4f505152535455565758595a61626364656660208201520152565b614421610efb565b6143c4565b9061443082611210565b61443d6040519182610f84565b828152809261444e601f1991611210565b0190602036910137565b805115614538576144676143a9565b61448361447e6144778451613428565b6003900490565b614215565b916144956144908461343e565b614426565b92835280815182019060208501935b8282106144e6575050506003905106806001146144d5576002146144c6575090565b603d60f81b6000199091015290565b50613d3d60f01b6001199091015290565b9091936004906003809401938451600190603f9082828260121c16880101518553828282600c1c16880101518386015382828260061c16880101516002860153168501015190820153019391906144a4565b5061061661392b565b80519061454c6131a5565b5060005b82811061455c57505050565b614566818361325e565b5180519091906001600160a01b03908116156145985782602061459292600195511691015190336145aa565b01614550565b6040516314f4c13d60e21b8152600490fd5b6001600160a01b039081166000818152600f602090815260408083208784528252822080548686166001600160a01b03198216179091556107349692959294929390831692909190819080861685856000805160206171588339815191528b80a460095416926064604051809581936305c9a1d560e31b835230600484015260248301528960448301525afa95861561466a575b9561464b575b5050614677565b614662929550803d10610d9257610d838183610f84565b923880614644565b614672613339565b61463e565b91926001600160a01b03808316939192919081168085148015614794575b61478c5785918161471f575b505050826146b0575b50505050565b6001600160a01b031660009081526010602052604090207fed0c1e94c302bdbbd8bbd6a4fb7c3ed335c2292407cd816eadd075d019d0ce04916146fe91856000526020526040600020616ef1565b6040805192835260208301919091523390820152606090a3388080806146aa565b6001600160a01b03166000908152601060205260409020826000526020527fed0c1e94c302bdbbd8bbd6a4fb7c3ed335c2292407cd816eadd075d019d0ce0461476c856040600020616dae565b6040805192835260208301919091523390820152606090a38338806146a1565b505050505050565b508315614695565b9081602091031261000e575161061681610718565b6009546040516308ed6c0160e41b8152306004820152602481018390526001600160a01b0392916020908290604490829087165afa90811561484c575b60009161481e575b508281166148185750614813906000526002602052604060002090565b541690565b91505090565b61483f915060203d8111614845575b6148378183610f84565b81019061479c565b386147f6565b503d61482d565b614854613339565b6147ee565b919082604091031261000e576020825161487281610718565b92015190565b81601f8201121561000e5780519161488f83610ff2565b9261489d6040519485610f84565b808452602092838086019260051b82010192831161000e578301905b8282106148c7575050505090565b815181529083019083016148b9565b9060208282031261000e5781516001600160401b03811161000e576106169201614878565b60208082019080835283518092528060408094019401926000905b83821061492557505050505090565b9091929394836101c0600192614a09895161494c83825169ffffffffffffffffffff169052565b8085015165ffffffffffff16838601528087015164ffffffffff168388015260608181015161ffff169084015260808181015161ffff169084015260a0818101516001600160a01b03169084015260c08181015160ff169084015260e0818101516001600160a01b03169084015261010081810151908401526101208082015160ff16908401526101408181015115159084015261016081810151151590840152610180818101511515908401526101a090810151151590830152565b0196019493920190614916565b9092999896939197959499614a35610c1260085460018060a01b031690565b301461000e576009546001600160a01b0399908a90614a55908216610c12565b1661000e57614a8494614a679361643d565b60018060a01b03166001600160601b0360a01b600a541617600a55565b600980546001600160a01b0319166001600160a01b038616179055614aac6020840151600c55565b604096614abb88850151600d55565b6060840151600b80546001600160a01b0319166001600160a01b039092169190911790558051614cfa575b508051614c9b575b50838116614c3a575b50518051614bd7575b50825115158015614bca575b8015614bbe575b8015614bb1575b614b2c575b5050505061073433616c1d565b1691823b1561000e57516365c13f1960e11b815281511515600482015260208201511515602482015260408201511515604482015260609091015115156064820152906000908290608490829084905af18015614ba4575b614b91575b808080614b1f565b8061179a614b9e92610f12565b38614b89565b614bac613339565b614b84565b5060608301511515614b1a565b50828401511515614b13565b5060208301511515614b0c565b6000614bf69186518093819263229dad5f60e11b8352600483016148fb565b0381838787165af18015614c2d575b15614b0057614c26903d806000833e614c1e8183610f84565b8101906148d6565b5038614b00565b614c35613339565b614c05565b838316803b1561000e57865163036129cb60e61b81526001600160a01b039290921660048301526000908290602490829084905af18015614c8e575b15614af7578061179a614c8892610f12565b38614af7565b614c96613339565b614c76565b848416803b1561000e57875163d67b78fd60e01b8152916000918391829084908290614cca9060048301610605565b03925af18015614ced575b15614aee578061179a614ce792610f12565b38614aee565b614cf5613339565b614cd5565b858516803b1561000e5788516331315e5960e11b8152916000918391829084908290614d299060048301610605565b03925af18015614d4c575b15614ae6578061179a614d4692610f12565b38614ae6565b614d54613339565b614d34565b919092614d64616bc5565b80614e50575b505081614d75575050565b600954614d8a906001600160a01b0316610c12565b9160409060008251809563229dad5f60e11b8252818381614daf878a600484016150b3565b03925af1938415614e43575b600094614e28575b5060005b818110614dd5575050505050565b80614de26001928761325e565b517f8aa4a03deb8db10032373886aa0376c918ccf36bcdb59ca4da2a807ac7ff1a04614e1f614e1284878a6150f1565b875191829133908361510f565b0390a201614dc7565b614e3c91943d8091833e614c1e8183610f84565b9238614dc3565b614e4b613339565b614dbb565b600954614e65906001600160a01b0316610c12565b90813b1561000e576040916000835180926320512ba160e01b8252818381614e91888b60048401614f15565b03925af18015614f08575b614ef5575b5060005b818110614eb3575050614d6a565b80614ec16001928487614f3e565b84513381529035907f832d89d991be5351d793c20faf4b7dd44f8aa9ce39e3cb160c6317de6fbba72990602090a201614ea5565b8061179a614f0292610f12565b38614ea1565b614f10613339565b614e9c565b602080825281018390526001600160fb1b03831161000e5760409260051b809284830137010190565b9190811015614f4e5760051b0190565b6110136131fa565b9061073491614f7882614f6883611299565b69ffffffffffffffffffff169052565b614f96614f87602083016112b0565b65ffffffffffff166020840152565b614fb3614fa5604083016112c3565b64ffffffffff166040840152565b614fcd614fc2606083016112e1565b61ffff166060840152565b614fe7614fdc608083016112e1565b61ffff166080840152565b615006614ff660a08301610729565b6001600160a01b031660a0840152565b61501f61501560c083016112ec565b60ff1660c0840152565b61503e61502e60e08301610729565b6001600160a01b031660e0840152565b610100808201359083015261506361012061505a8184016112ec565b60ff1690840152565b61507c610140615074818401611304565b151590840152565b61508d610160615074818401611304565b61509e610180615074818401611304565b6150ac6101a0809201611304565b1515910152565b602080825281018390526040019160005b8181106150d15750505090565b909192806150e160019286614f56565b6101c090810194019291016150c4565b916101c09181101561510257020190565b61510a6131fa565b020190565b9092916101c090615125836101e0810196614f56565b6001600160a01b0316910152565b90918060409360208452816020850152848401376000828201840152601f01601f1916010190565b81604051928392833781016000815203902090565b600a54615185906001600160a01b0316610c12565b906151e360ff6101006151bc60055495604096875180926321d1336160e11b82528180610120968795600483019190602083019252565b03915afa91821561536f575b600092615352575b5050015160f41c1660018091811c161490565b615341576009546151fc906001600160a01b0316610c12565b8251635d53f40760e11b8152600481018390526024810185905292906000908490604490829084905af1928315615334575b600093615319575b5060095461524c906001600160a01b0316610c12565b81516304db994760e21b8152306004820152602481018490529390602090859060449082905afa93841561530c575b6000946152ec575b5060005b85811061529657505050505050565b806152a36001928461325e565b516152ae818861569f565b845133815260a084901b84900388169187917f031e1988c95a91ec4d655ff63a8f87a80bc9daf28d95ae10ee08c0022cfb5c8b90602090a401615287565b61530591945060203d8111614845576148378183610f84565b9238615283565b615314613339565b61527b565b61532d91933d8091833e614c1e8183610f84565b9138615236565b61533c613339565b61522e565b8151631d2c125760e31b8152600490fd5b6153689250803d10610ddb57610dcc8183610f84565b38806151d0565b615377613339565b6151c8565b91615385616bc5565b60095461539a906001600160a01b0316610c12565b9260409060008251809663eaa19ab360e01b82528183816153bf8a88600484016154b7565b03925af1948515615480575b60009561545c575b5060005b8481106153e657505050505090565b806153f36001928861325e565b516153fe818761569f565b61ffff61541461540f848a88614f3e565b615512565b86516000815233602082015260a086901b86900389169391909216917f598baf7bf150ca2f42be9e9f8f55e81d45f5715c3ff22bf46d697fabec7f31d690604090a4016153d7565b61547891953d8091833e6154708183610f84565b81019061548d565b5093386153d3565b615488613339565b6153cb565b919060408382031261000e5782516001600160401b03811161000e57602091614872918501614878565b929160608401906000198552806020926060848801525260808501929160005b8281106154ec57505050506040600191930152565b90919293828060019261ffff8835615503816112d5565b168152019501939291016154d7565b35610616816112d5565b6009546001600160a01b0316803b1561000e576040516386bc2be360e01b8152916000918391829084908290615555906004830161185a565b03925af18015615570575b6155675750565b61073490610f12565b615578613339565b615560565b6000908152600260205260409020546001600160a01b0316801561559e5790565b60405163b49aa3b560e01b8152600490fd5b6000818152600260205260409020546001600160a01b03161561559e576000908152600360205260409020546001600160a01b031690565b9291906155f58233615627565b1561078e5783615609838361560e97615fee565b616381565b1561561557565b6040516336f57c1b60e11b8152600490fd5b6001600160a01b03806156398461557d565b16928183169284841494851561566f575b50508315615659575b50505090565b615665919293506155b0565b1614388080615653565b60009081526004602090815260408083206001600160a01b03949094168352929052205460ff169350388061564a565b6001600160a01b0381169291908315615836576000828152600260205260409020546001600160a01b031661582457600082815260026020526040812080546001600160a01b0319166001600160a01b0384161790559361576692908190867fddf252ad1be2c89b69c2b068fc378daa952ba7f163c4a11628f55a4df523b3ef8180a4600954615737906001600160a01b0316610c12565b60405163b67cb04760e01b815230600482015260248101929092526101c0939091908490829081906044820190565b0381855afa938415615817575b86946157f8575b50508251813b156157f4576040516330b157e560e21b81526004810191909152600060248201526001600160a01b0383166044820152939461073494918290606490829084905af180156157e7575b6157d4575b50615a4d565b8061179a6157e192610f12565b386157ce565b6157ef613339565b6157c9565b8580fd5b61580f929450803d10613654576136468183610f84565b91388061577a565b61581f613339565b615773565b604051632eb5f0c360e21b8152600490fd5b604051633904578f60e11b8152600490fd5b60095461588f9190615862906001600160a01b0316610c12565b60405163b67cb04760e01b81523060048201526024810194909452926101c0928390829081906044820190565b0381875afa92831561593c575b60009361591d575b50508151833b1561000e576040516330b157e560e21b815260048101919091526001600160a01b0382166024820152600060448201819052610734948290606490829084905af18015615910575b6158fd575b50615b53565b8061179a61590a92610f12565b386158f7565b615918613339565b6158f2565b615934929350803d10613654576136468183610f84565b9038806158a4565b615944613339565b61589c565b600954615991929190615964906001600160a01b0316610c12565b60405163b67cb04760e01b81523060048201526024810195909552936101c0938490829081906044820190565b0381885afa938415615a40575b600094615a21575b50508251843b1561000e576040516330b157e560e21b815260048101919091526001600160a01b03828116602483015283166044820152610734946000908290606490829084905af18015615a14575b615a01575b50615c76565b8061179a615a0e92610f12565b386159fb565b615a1c613339565b6159f6565b615a38929450803d10613654576136468183610f84565b9138806159a6565b615a48613339565b61599e565b9060a081018051615a5d57505050565b6107349260018060a01b038082169360008581526020600f815260409283832081518452825284848420541615615b07575b5195519686835260118252615aa688858520616ef1565b505015615aed575b818052600f81528282208683528152615adf8484842054169560018060a01b0316600052600f602052604060002090565b908683525220541690614677565b85825260118152615b0087848420616dae565b5050615aae565b6001600160a01b0386166000818152600f6020526040902082518552835284842080546001600160a01b03191690911790558783816000805160206171588339815191528280a4615a8f565b60a082018051615b6257505050565b6000808052600f6020908152845182527ff4803e074bd026baaf6ed2e288c9515f68c72fb7216eebdd7cae1718a53ec37581526040808320546107349692936001600160a01b03939091849190821615615c1b575b51955196168015615c01575b85825260118552615bd687848420616dae565b50508152600f8452818120858252845282828220541693615adf60008052600f602052604060002090565b85825260118552615c1487848420616ef1565b5050615bc3565b60008052600f6020527ff4803e074bd026baaf6ed2e288c9515f68c72fb7216eebdd7cae1718a53ec37581518452865283832080546001600160a01b03191690558280806000805160206171588339815191528180a4615bb7565b9060a08301908151615c885750505050565b6001600160a01b038181166000818152600f6020908152604080832089518452825280832054615d02999194918691821615615d3f575b5197519816908115615d25575b15615d0b575b8252600f81528282208683528152615adf8484842054169560018060a01b0316600052600f602052604060002090565b388080806146aa565b86835260118252615d1e88858520616dae565b5050615cd2565b87845260118352615d3889868620616ef1565b5050615ccc565b6001600160a01b0388166000818152600f6020526040902082518752855286862080546001600160a01b03191690911790558285816000805160206171588339815191528280a4615cbf565b615d948161557d565b6001600160a01b0380821692919083615dfc575b5081600061073494615db983616253565b82825260026020526040822080546001600160a01b03191690557fddf252ad1be2c89b69c2b068fc378daa952ba7f163c4a11628f55a4df523b3ef8280a4615848565b600954615e11906001600160a01b0316610c12565b60405163b67cb04760e01b815230600482015260248101859052909190615e60906101a0906101c090818180604481015b0381895afa918215615fe1575b600092615fc4575b50500151151590565b615f41575b6040516308ed6c0160e41b815230600482015260248101859052602081604481865afa908115615f34575b600091615f16575b5016615da85792833b1561000e57604051638cec7d3960e01b8152600481018490526001600160a01b0383166024820152610734948492600092909183908290604490829084905af18015615f09575b615ef6575b50945050615da8565b8061179a615f0392610f12565b38615eed565b615f11613339565b615ee8565b615f2e915060203d8111614845576148378183610f84565b38615e98565b615f3c613339565b615e90565b600a54615f8290615f5a906001600160a01b0316610c12565b60055460405180926321d1336160e11b82528180610120968795600483019190602083019252565b03915afa8015615fb7575b615f99575b5050615e65565b81615faf92903d10610ddb57610dcc8183610f84565b503880615f92565b615fbf613339565b615f8d565b615fda9250803d10613654576136468183610f84565b3880615e57565b615fe9613339565b615e4f565b9190615ff98261557d565b6001600160a01b03808516949181168590036162415780831690811561622f5785616080575b5083906107349561602f83616253565b600083815260026020526040902080546001600160a01b0319166001600160a01b0387161790557fddf252ad1be2c89b69c2b068fc378daa952ba7f163c4a11628f55a4df523b3ef600080a4615949565b600954616095906001600160a01b0316610c12565b60405163b67cb04760e01b8152306004820152602481018790529091906160ca906101a0906101c09081818060448101615e42565b6161aa575b6040516308ed6c0160e41b815230600482015260248101879052602081604481865afa90811561619d575b60009161617f575b501661601f5790813b1561000e57604051638cec7d3960e01b8152600481018690526001600160a01b03841660248201526107349686939091906000908290604490829084905af18015616172575b61615f575b5095509061601f565b8061179a61616c92610f12565b38616156565b61617a613339565b616151565b616197915060203d8111614845576148378183610f84565b38616102565b6161a5613339565b6160fa565b6161ee60ff6101006161c9615f5a610c12600a5460018060a01b031690565b03915afa918215616222575b600092616205575b5050015160f41c1660018091161490565b156160cf576040516318cdaf9760e01b8152600490fd5b61621b9250803d10610ddb57610dcc8183610f84565b38806161dd565b61622a613339565b6161d5565b604051632c95542760e01b8152600490fd5b60405163a195bc5360e01b8152600490fd5b600081815260036020526040812080546001600160a01b03191690556001600160a01b036162808361557d565b167f8c5be1e5ebec7d5bd14f71427d1e84f3dd0314c0f7b2291e5b200ac8c7c3b9258280a4565b600082815260036020526040902080546001600160a01b0319166001600160a01b0383161790556001600160a01b03806162e08461557d565b169116907f8c5be1e5ebec7d5bd14f71427d1e84f3dd0314c0f7b2291e5b200ac8c7c3b925600080a4565b9081602091031261000e575161061681610490565b6001600160a01b039182168152911660208201526040810191909152608060608201819052610616929101906105e0565b3d1561637c573d9061636282611210565b916163706040519384610f84565b82523d6000602084013e565b606090565b92909190823b15616434576163b4926020926000604051809681958294630a85bd0160e11b9a8b85523360048601616320565b03926001600160a01b03165af160009181616404575b506163f6576163d7616351565b805190816163f1576040516336f57c1b60e11b8152600490fd5b602001fd5b6001600160e01b0319161490565b61642691925060203d811161642d575b61641e8183610f84565b81019061630b565b90386163ca565b503d616414565b50505050600190565b9192909280516001600160401b038111616556575b6000916164688261646385546139d1565b613d0a565b60209081601f84116001146164d6575092826164a9936164ae969361073499989684926164cb575b50508160011b916000199060031b1c1916179055613de8565b600555565b60018060a01b03166001600160601b0360a01b6006541617600655565b015190503880616490565b600080529190601f1984166000805160206171388339815191529386905b82821061653e575050936164ae969361073499989693600193836164a99810616525575b505050811b019055613de8565b015160001960f88460031b161c19169055388080616518565b806001869782949787015181550196019401906164f4565b61655e610efb565b616452565b604d8111616572575b600a0a90565b61657a613411565b61656c565b9160a08383031261000e57823592602091828201359360408301356165a381610490565b9360608401356165b2816112fa565b936080810135906001600160401b03821161000e57019180601f8401121561000e5782356165df81610ff2565b936165ed6040519586610f84565b818552838086019260051b82010192831161000e578301905b828210616614575050505090565b8380918335616622816112d5565b815201910190616606565b9081608091031261000e57606060405191608083018381106001600160401b0382111761669e575b6040528051616663816112fa565b83526020810151616673816112fa565b60208401526040810151616686816112fa565b60408401520151616696816112fa565b606082015290565b6166a6610efb565b616655565b600060c082013590600c548083146000146169b45750505060808101355b6101808201916166f56166db84614242565b6001600160a01b03166000908152600e6020526040902090565b5492829360009361670584614242565b95616712610c1285614242565b6001600160a01b03978816036169a957508101925b6000906101e0810190604461673c8383613125565b90501180616972575b616883575b505083156168175715616805576167b0936166db930180958282116000146167b3577f2fb2733fb01b76e3290fa8b695d18e026ddd19c0a265ab90e95152e57da3033661679685614242565b60405133815292169383039180602081015b0390a4614242565b55565b8183116167c3575b505050614242565b7fe0e7c81cf67a96dd0e39bcf11521b1f4c0098cc1dbe8c30750a11d9ebfc3ed4d826167ee86614242565b6040513381529316940391602090a43884816167bb565b604051631b57826960e21b8152600490fd5b50915082829493940361682a5750505050565b616879928461683c816166db956136f6565b7fe0e7c81cf67a96dd0e39bcf11521b1f4c0098cc1dbe8c30750a11d9ebfc3ed4d61686685614242565b60405133815294169380602081016167a8565b55388080806146aa565b61689a92509061689291613125565b81019061657f565b925092505081806168dd575b6168d4575b80516168b8575b8061674a565b936168cd91946168c785614242565b91616ab6565b92386168b2565b600091506168ab565b50600954616932906060906168fa906001600160a01b0316610c12565b604051634228826f60e11b815230600482015290608090829060249082905afa908115616965575b600091616937575b500151151590565b6168a6565b616958915060803d811161695e575b6169508183610f84565b81019061662d565b3861692a565b503d616946565b61696d613339565b616922565b506169866169808383613125565b90613168565b63b3bcbb7960e01b916001600160e01b0319916169a291613179565b1614616745565b939450508093616727565b600b546001600160a01b0316928315616a5f576020616a1091616a2d956169dc600d54616563565b94604051809581948293635268657960e11b845260a08d013591600485016040919493926060820195825260208201520152565b03915afa928315616a52575b92616a32575b506080840135617092565b6166c9565b616a4b91925060203d8111610d9257610d838183610f84565b9038616a22565b616a5a613339565b616a1c565b5050505050565b929190606084019084526020906060828601528251809152816080860193019160005b828110616a9e57505050506040600091930152565b835161ffff1685529381019392810192600101616a89565b600954929392616ace906001600160a01b0316610c12565b6040805163eaa19ab360e01b815295600094919285908890818381616af7888b60048401616a66565b03925af18015616bb8575b85978691616b98575b50968051955b868110616b215750505050505050565b80616b2e6001928461325e565b51616b39818661569f565b61ffff616b51616b49848961325e565b5161ffff1690565b88518a815233602082015260a086901b86900388169391909216917f598baf7bf150ca2f42be9e9f8f55e81d45f5715c3ff22bf46d697fabec7f31d690604090a401616b11565b9050616baf9197503d8087833e6154708183610f84565b96909638616b0b565b616bc0613339565b616b02565b6007546001600160a01b03163303616bd957565b606460405162461bcd60e51b815260206004820152602060248201527f4f776e61626c653a2063616c6c6572206973206e6f7420746865206f776e65726044820152fd5b600780546001600160a01b039283166001600160a01b0319821681179092559091167f8be0079c531659141344cd1fd0a4f28419497f9722a3daafe3b4186f6b6457e0600080a3565b8054821015616c7f575b60005260206000200190600090565b616c876131fa565b616c70565b805480616ca457505060005b6001600160e01b031690565b616cb9916000198201918211616cc357616c66565b505460201c616c98565b616ccb613411565b616c66565b9043811015616d6a578154906000905b828210616d1957505080616cf657506000919050565b616d1491616d06616d0c926136e7565b90616c66565b505460201c90565b616c98565b9091616d258184616f80565b9082616d4b616d42616d378589616c66565b505463ffffffff1690565b63ffffffff1690565b1115616d5a5750915b90616ce0565b9250616d659061344c565b616d54565b606460405162461bcd60e51b815260206004820152602060248201527f436865636b706f696e74733a20626c6f636b206e6f7420796574206d696e65646044820152fd5b919091616dba81616c8c565b928303928311616ee4575b805490616dd181616c8c565b9180151580616eb1575b15616e1157616df961357a92616d06616df388616f9d565b936136e7565b509063ffffffff82549181199060201b169116179055565b5063ffffffff804311616e5d5761357a91616e58616e2e87616f9d565b616e48616e39610fc5565b944316859063ffffffff169052565b6001600160e01b03166020840152565b616f13565b60405162461bcd60e51b815260206004820152602660248201527f53616665436173743a2076616c756520646f65736e27742066697420696e203360448201526532206269747360d01b6064820152608490fd5b5063ffffffff616ecd6000198301838111616ed7575b84616c66565b5054164314616ddb565b616edf613411565b616ec7565b616eec613411565b616dc5565b919091616efd81616c8c565b928301809311616ee457805490616dd181616c8c565b8054616f369168010000000000000000821015616f73575b600182018155616c66565b616f5d57815160209283015190921b63ffffffff191663ffffffff92909216919091179055565b634e487b7160e01b600052600060045260246000fd5b616f7b610efb565b616f2b565b90808216911860011c8101809111616f955790565b610616613411565b6001600160e01b0390818111616fb1571690565b60405162461bcd60e51b815260206004820152602760248201527f53616665436173743a2076616c756520646f65736e27742066697420696e20326044820152663234206269747360c81b6064820152608490fd5b91906000198184098184029182808310920391808303921461708557633b9aca009081831015617067577f88f2cfb83100cb4e69e7c79c58b316e597157d372fb9787e8e47ce423a2e9c6d94950990828211900360f71b910360091c170290565b6044838360405191631dcf306360e21b835260048301526024820152fd5b5050633b9aca0090049150565b9091600019838309928083029283808610950394808603951461712a578285101561710a57908291096001821901821680920460028082600302188083028203028083028203028083028203028083028203028083028203028092029003029360018380600003040190848311900302920304170290565b604051631dcf306360e21b81526004810186905260248101849052604490fd5b505090610616925061372356fe290decd9548b62a8d60345a988386fc84ba6bc95484008f6362f93160ef3e5633134e8a2e6d97e929a7e54011ea5485d7d196dd5f0ba4d4ef95803e8e3fc257fa2646970667358221220e106de475694010a2ccba7ac675c241c4032edf5c8c3ca64adfee79c4433429a64736f6c63430008110033",
    "linkReferences": {}
  },
  "methodIdentifiers": {
    "TOTAL_REDEMPTION_WEIGHT()": "640abacd",
    "adjustTiers((uint80,uint48,uint40,uint16,uint16,address,uint8,address,bytes32,uint8,bool,bool,bool,bool)[],uint256[])": "25eb91ee",
    "approve(address,uint256)": "095ea7b3",
    "balanceOf(address)": "70a08231",
    "codeOrigin()": "1d153ca4",
    "contractURI()": "e8a3d485",
    "creditsOf(address)": "245a45b5",
    "didPay((address,uint256,uint256,(address,uint256,uint256,uint256),(address,uint256,uint256,uint256),uint256,address,bool,string,bytes))": "da9ee8b7",
    "didRedeem((address,uint256,uint256,uint256,(address,uint256,uint256,uint256),(address,uint256,uint256,uint256),address,string,bytes))": "2b13c58f",
    "directory()": "c41c2f24",
    "firstOwnerOf(uint256)": "54c6d1f5",
    "fundingCycleStore()": "557e7155",
    "getApproved(uint256)": "081812fc",
    "getPastTierTotalVotes(uint256,uint256)": "d31cc52c",
    "getPastTierVotes(address,uint256,uint256)": "d40e7146",
    "getTierDelegate(address,uint256)": "82732b6d",
    "getTierTotalVotes(uint256)": "94c5c5ca",
    "getTierVotes(address,uint256)": "ca323efe",
    "initialize(uint256,address,string,string,address,string,address,string,((uint80,uint48,uint40,uint16,uint16,address,uint8,address,bytes32,uint8,bool,bool,bool,bool)[],uint256,uint256,address),address,(bool,bool,bool,bool))": "d1704baf",
    "initialize(uint256,address,string,string,address,string,address,string,((uint80,uint48,uint40,uint16,uint16,address,uint8,address,bytes32,uint8,bool,bool,bool,bool)[],uint256,uint256,address),address,(bool,bool,bool,bool),address,string[])": "48c2b65b",
    "isApprovedForAll(address,address)": "e985e9c5",
    "mintFor((uint16[],address)[])": "36c1a93b",
    "mintFor(uint16[],address)": "6ac6d941",
    "mintReservesFor((uint256,uint256)[])": "2a596e53",
    "mintReservesFor(uint256,uint256)": "aa4fb15b",
    "name()": "06fdde03",
    "owner()": "8da5cb5b",
    "ownerOf(uint256)": "6352211e",
    "payParams((address,address,(address,uint256,uint256,uint256),uint256,uint256,address,uint256,uint256,string,bytes))": "d46cf171",
    "prices()": "d3419bf3",
    "pricingCurrency()": "64640c1e",
    "pricingDecimals()": "4ecba625",
    "projectId()": "3fafa127",
    "redeemParams((address,address,uint256,uint256,uint256,uint256,uint256,(address,uint256,uint256,uint256),bool,uint256,string,bytes))": "a51cfd18",
    "redemptionWeightOf(uint256[],(address,address,uint256,uint256,uint256,uint256,uint256,(address,uint256,uint256,uint256),bool,uint256,string,bytes))": "7ba62bf9",
    "renounceOwnership()": "715018a6",
    "royaltyInfo(uint256,uint256)": "2a55205a",
    "safeTransferFrom(address,address,uint256)": "42842e0e",
    "safeTransferFrom(address,address,uint256,bytes)": "b88d4fde",
    "setApprovalForAll(address,bool)": "a22cb465",
    "setBaseUri(string)": "a0bcfc7f",
    "setContractUri(string)": "ccb4807b",
    "setDefaultReservedTokenBeneficiary(address)": "df487e26",
    "setEncodedIPFSUriOf(uint256,bytes32)": "525350ba",
    "setTierDelegate(address,uint256)": "ab951e39",
    "setTierDelegates((address,uint256)[])": "c74b13d9",
    "setTierRedemptionWeights((uint256,uint256)[])": "2f441500",
    "setTokenUriResolver(address)": "2407497e",
    "store()": "975057e7",
    "supportsInterface(bytes4)": "01ffc9a7",
    "symbol()": "95d89b41",
    "tierRedemptionWeights()": "9df45468",
    "tokenURI(uint256)": "c87b56dd",
    "totalRedemptionWeight((address,address,uint256,uint256,uint256,uint256,uint256,(address,uint256,uint256,uint256),bool,uint256,string,bytes))": "9494bf72",
    "transferFrom(address,address,uint256)": "23b872dd",
    "transferOwnership(address)": "f2fde38b",
    "typeface()": "4d5a1d11"
  },
  "id": 0
}