{
  "abi": [
    {
      "inputs": [],
      "name": "ALEADY_MINTED",
      "type": "error"
    },
    {
      "inputs": [],
      "name": "APPROVAL_TO_CURRENT_OWNER",
      "type": "error"
    },
    {
      "inputs": [],
      "name": "APPROVE_TO_CALLER",
      "type": "error"
    },
    {
      "inputs": [],
      "name": "BLOCK_NOT_YET_MINED",
      "type": "error"
    },
    {
      "inputs": [],
      "name": "CALLER_NOT_OWNER_OR_APPROVED",
      "type": "error"
    },
    {
      "inputs": [],
      "name": "DELEGATE_ADDRESS_ZERO",
      "type": "error"
    },
    {
      "inputs": [],
      "name": "GAME_ISNT_OVER_YET",
      "type": "error"
    },
    {
      "inputs": [],
      "name": "INCORRECT_OWNER",
      "type": "error"
    },
    {
      "inputs": [],
      "name": "INVALID_PAYMENT_EVENT",
      "type": "error"
    },
    {
      "inputs": [],
      "name": "INVALID_REDEMPTION_EVENT",
      "type": "error"
    },
    {
      "inputs": [],
      "name": "INVALID_REDEMPTION_METADATA",
      "type": "error"
    },
    {
      "inputs": [],
      "name": "INVALID_REDEMPTION_WEIGHTS",
      "type": "error"
    },
    {
      "inputs": [],
      "name": "INVALID_TIER_ID",
      "type": "error"
    },
    {
      "inputs": [],
      "name": "INVALID_TOKEN_ID",
      "type": "error"
    },
    {
      "inputs": [],
      "name": "MINT_TO_ZERO",
      "type": "error"
    },
    {
      "inputs": [],
      "name": "NOTHING_TO_CLAIM",
      "type": "error"
    },
    {
      "inputs": [],
      "name": "NOT_AVAILABLE",
      "type": "error"
    },
    {
      "inputs": [],
      "name": "OVERSPENDING",
      "type": "error"
    },
    {
      "inputs": [
        {
          "internalType": "uint256",
          "name": "prod1",
          "type": "uint256"
        },
        {
          "internalType": "uint256",
          "name": "denominator",
          "type": "uint256"
        }
      ],
      "name": "PRBMath__MulDivOverflow",
      "type": "error"
    },
    {
      "inputs": [],
      "name": "PRICING_RESOLVER_CHANGES_PAUSED",
      "type": "error"
    },
    {
      "inputs": [],
      "name": "RESERVED_TOKEN_MINTING_PAUSED",
      "type": "error"
    },
    {
      "inputs": [],
      "name": "TRANSFERS_PAUSED",
      "type": "error"
    },
    {
      "inputs": [],
      "name": "TRANSFER_TO_NON_IMPLEMENTER",
      "type": "error"
    },
    {
      "inputs": [],
      "name": "TRANSFER_TO_ZERO_ADDRESS",
      "type": "error"
    },
    {
      "inputs": [],
      "name": "UNAUTHORIZED",
      "type": "error"
    },
    {
      "inputs": [],
      "name": "UNEXPECTED_TOKEN_REDEEMED",
      "type": "error"
    },
    {
      "anonymous": false,
      "inputs": [
        {
          "indexed": true,
          "internalType": "uint256",
          "name": "tierId",
          "type": "uint256"
        },
        {
          "components": [
            {
              "internalType": "uint80",
              "name": "contributionFloor",
              "type": "uint80"
            },
            {
              "internalType": "uint48",
              "name": "lockedUntil",
              "type": "uint48"
            },
            {
              "internalType": "uint40",
              "name": "initialQuantity",
              "type": "uint40"
            },
            {
              "internalType": "uint16",
              "name": "votingUnits",
              "type": "uint16"
            },
            {
              "internalType": "uint16",
              "name": "reservedRate",
              "type": "uint16"
            },
            {
              "internalType": "address",
              "name": "reservedTokenBeneficiary",
              "type": "address"
            },
            {
              "internalType": "bytes32",
              "name": "encodedIPFSUri",
              "type": "bytes32"
            },
            {
              "internalType": "bool",
              "name": "allowManualMint",
              "type": "bool"
            },
            {
              "internalType": "bool",
              "name": "shouldUseBeneficiaryAsDefault",
              "type": "bool"
            },
            {
              "internalType": "bool",
              "name": "transfersPausable",
              "type": "bool"
            }
          ],
          "indexed": false,
          "internalType": "struct JB721TierParams",
          "name": "data",
          "type": "tuple"
        },
        {
          "indexed": false,
          "internalType": "address",
          "name": "caller",
          "type": "address"
        }
      ],
      "name": "AddTier",
      "type": "event"
    },
    {
      "anonymous": false,
      "inputs": [
        {
          "indexed": true,
          "internalType": "address",
          "name": "owner",
          "type": "address"
        },
        {
          "indexed": true,
          "internalType": "address",
          "name": "approved",
          "type": "address"
        },
        {
          "indexed": true,
          "internalType": "uint256",
          "name": "tokenId",
          "type": "uint256"
        }
      ],
      "name": "Approval",
      "type": "event"
    },
    {
      "anonymous": false,
      "inputs": [
        {
          "indexed": true,
          "internalType": "address",
          "name": "owner",
          "type": "address"
        },
        {
          "indexed": true,
          "internalType": "address",
          "name": "operator",
          "type": "address"
        },
        {
          "indexed": false,
          "internalType": "bool",
          "name": "approved",
          "type": "bool"
        }
      ],
      "name": "ApprovalForAll",
      "type": "event"
    },
    {
      "anonymous": false,
      "inputs": [
        {
          "indexed": true,
          "internalType": "address",
          "name": "delegator",
          "type": "address"
        },
        {
          "indexed": true,
          "internalType": "address",
          "name": "fromDelegate",
          "type": "address"
        },
        {
          "indexed": true,
          "internalType": "address",
          "name": "toDelegate",
          "type": "address"
        }
      ],
      "name": "DelegateChanged",
      "type": "event"
    },
    {
      "anonymous": false,
      "inputs": [
        {
          "indexed": true,
          "internalType": "uint256",
          "name": "tokenId",
          "type": "uint256"
        },
        {
          "indexed": true,
          "internalType": "uint256",
          "name": "tierId",
          "type": "uint256"
        },
        {
          "indexed": true,
          "internalType": "address",
          "name": "beneficiary",
          "type": "address"
        },
        {
          "indexed": false,
          "internalType": "uint256",
          "name": "totalAmountContributed",
          "type": "uint256"
        },
        {
          "indexed": false,
          "internalType": "address",
          "name": "caller",
          "type": "address"
        }
      ],
      "name": "Mint",
      "type": "event"
    },
    {
      "anonymous": false,
      "inputs": [
        {
          "indexed": true,
          "internalType": "uint256",
          "name": "tokenId",
          "type": "uint256"
        },
        {
          "indexed": true,
          "internalType": "uint256",
          "name": "tierId",
          "type": "uint256"
        },
        {
          "indexed": true,
          "internalType": "address",
          "name": "beneficiary",
          "type": "address"
        },
        {
          "indexed": false,
          "internalType": "address",
          "name": "caller",
          "type": "address"
        }
      ],
      "name": "MintReservedToken",
      "type": "event"
    },
    {
      "anonymous": false,
      "inputs": [
        {
          "indexed": true,
          "internalType": "address",
          "name": "previousOwner",
          "type": "address"
        },
        {
          "indexed": true,
          "internalType": "address",
          "name": "newOwner",
          "type": "address"
        }
      ],
      "name": "OwnershipTransferred",
      "type": "event"
    },
    {
      "anonymous": false,
      "inputs": [
        {
          "indexed": true,
          "internalType": "uint256",
          "name": "tierId",
          "type": "uint256"
        },
        {
          "indexed": false,
          "internalType": "address",
          "name": "caller",
          "type": "address"
        }
      ],
      "name": "RemoveTier",
      "type": "event"
    },
    {
      "anonymous": false,
      "inputs": [
        {
          "indexed": true,
          "internalType": "string",
          "name": "baseUri",
          "type": "string"
        },
        {
          "indexed": false,
          "internalType": "address",
          "name": "caller",
          "type": "address"
        }
      ],
      "name": "SetBaseUri",
      "type": "event"
    },
    {
      "anonymous": false,
      "inputs": [
        {
          "indexed": true,
          "internalType": "string",
          "name": "contractUri",
          "type": "string"
        },
        {
          "indexed": false,
          "internalType": "address",
          "name": "caller",
          "type": "address"
        }
      ],
      "name": "SetContractUri",
      "type": "event"
    },
    {
      "anonymous": false,
      "inputs": [
        {
          "indexed": true,
          "internalType": "address",
          "name": "beneficiary",
          "type": "address"
        },
        {
          "indexed": false,
          "internalType": "address",
          "name": "caller",
          "type": "address"
        }
      ],
      "name": "SetDefaultReservedTokenBeneficiary",
      "type": "event"
    },
    {
      "anonymous": false,
      "inputs": [
        {
          "indexed": true,
          "internalType": "contract IJBTokenUriResolver",
          "name": "newResolver",
          "type": "address"
        },
        {
          "indexed": false,
          "internalType": "address",
          "name": "caller",
          "type": "address"
        }
      ],
      "name": "SetTokenUriResolver",
      "type": "event"
    },
    {
      "anonymous": false,
      "inputs": [
        {
          "indexed": true,
          "internalType": "address",
          "name": "delegator",
          "type": "address"
        },
        {
          "indexed": true,
          "internalType": "address",
          "name": "fromDelegate",
          "type": "address"
        },
        {
          "indexed": true,
          "internalType": "address",
          "name": "toDelegate",
          "type": "address"
        },
        {
          "indexed": false,
          "internalType": "uint256",
          "name": "tierId",
          "type": "uint256"
        },
        {
          "indexed": false,
          "internalType": "address",
          "name": "caller",
          "type": "address"
        }
      ],
      "name": "TierDelegateChanged",
      "type": "event"
    },
    {
      "anonymous": false,
      "inputs": [
        {
          "indexed": true,
          "internalType": "address",
          "name": "delegate",
          "type": "address"
        },
        {
          "indexed": true,
          "internalType": "uint256",
          "name": "tierId",
          "type": "uint256"
        },
        {
          "indexed": false,
          "internalType": "uint256",
          "name": "previousBalance",
          "type": "uint256"
        },
        {
          "indexed": false,
          "internalType": "uint256",
          "name": "newBalance",
          "type": "uint256"
        },
        {
          "indexed": false,
          "internalType": "address",
          "name": "caller",
          "type": "address"
        }
      ],
      "name": "TierDelegateVotesChanged",
      "type": "event"
    },
    {
      "anonymous": false,
      "inputs": [
        {
          "indexed": true,
          "internalType": "address",
          "name": "from",
          "type": "address"
        },
        {
          "indexed": true,
          "internalType": "address",
          "name": "to",
          "type": "address"
        },
        {
          "indexed": true,
          "internalType": "uint256",
          "name": "tokenId",
          "type": "uint256"
        }
      ],
      "name": "Transfer",
      "type": "event"
    },
    {
      "inputs": [],
      "name": "TOTAL_REDEMPTION_WEIGHT",
      "outputs": [
        {
          "internalType": "uint256",
          "name": "",
          "type": "uint256"
        }
      ],
      "stateMutability": "view",
      "type": "function"
    },
    {
      "inputs": [
        {
          "components": [
            {
              "internalType": "uint80",
              "name": "contributionFloor",
              "type": "uint80"
            },
            {
              "internalType": "uint48",
              "name": "lockedUntil",
              "type": "uint48"
            },
            {
              "internalType": "uint40",
              "name": "initialQuantity",
              "type": "uint40"
            },
            {
              "internalType": "uint16",
              "name": "votingUnits",
              "type": "uint16"
            },
            {
              "internalType": "uint16",
              "name": "reservedRate",
              "type": "uint16"
            },
            {
              "internalType": "address",
              "name": "reservedTokenBeneficiary",
              "type": "address"
            },
            {
              "internalType": "bytes32",
              "name": "encodedIPFSUri",
              "type": "bytes32"
            },
            {
              "internalType": "bool",
              "name": "allowManualMint",
              "type": "bool"
            },
            {
              "internalType": "bool",
              "name": "shouldUseBeneficiaryAsDefault",
              "type": "bool"
            },
            {
              "internalType": "bool",
              "name": "transfersPausable",
              "type": "bool"
            }
          ],
          "internalType": "struct JB721TierParams[]",
          "name": "_tiersToAdd",
          "type": "tuple[]"
        },
        {
          "internalType": "uint256[]",
          "name": "_tierIdsToRemove",
          "type": "uint256[]"
        }
      ],
      "name": "adjustTiers",
      "outputs": [],
      "stateMutability": "nonpayable",
      "type": "function"
    },
    {
      "inputs": [
        {
          "internalType": "address",
          "name": "to",
          "type": "address"
        },
        {
          "internalType": "uint256",
          "name": "tokenId",
          "type": "uint256"
        }
      ],
      "name": "approve",
      "outputs": [],
      "stateMutability": "nonpayable",
      "type": "function"
    },
    {
      "inputs": [
        {
          "internalType": "address",
          "name": "_owner",
          "type": "address"
        }
      ],
      "name": "balanceOf",
      "outputs": [
        {
          "internalType": "uint256",
          "name": "balance",
          "type": "uint256"
        }
      ],
      "stateMutability": "view",
      "type": "function"
    },
    {
      "inputs": [],
      "name": "codeOrigin",
      "outputs": [
        {
          "internalType": "address",
          "name": "",
          "type": "address"
        }
      ],
      "stateMutability": "view",
      "type": "function"
    },
    {
      "inputs": [],
      "name": "contractURI",
      "outputs": [
        {
          "internalType": "string",
          "name": "",
          "type": "string"
        }
      ],
      "stateMutability": "view",
      "type": "function"
    },
    {
      "inputs": [
        {
          "internalType": "address",
          "name": "",
          "type": "address"
        }
      ],
      "name": "creditsOf",
      "outputs": [
        {
          "internalType": "uint256",
          "name": "",
          "type": "uint256"
        }
      ],
      "stateMutability": "view",
      "type": "function"
    },
    {
      "inputs": [
        {
          "components": [
            {
              "internalType": "address",
              "name": "payer",
              "type": "address"
            },
            {
              "internalType": "uint256",
              "name": "projectId",
              "type": "uint256"
            },
            {
              "internalType": "uint256",
              "name": "currentFundingCycleConfiguration",
              "type": "uint256"
            },
            {
              "components": [
                {
                  "internalType": "address",
                  "name": "token",
                  "type": "address"
                },
                {
                  "internalType": "uint256",
                  "name": "value",
                  "type": "uint256"
                },
                {
                  "internalType": "uint256",
                  "name": "decimals",
                  "type": "uint256"
                },
                {
                  "internalType": "uint256",
                  "name": "currency",
                  "type": "uint256"
                }
              ],
              "internalType": "struct JBTokenAmount",
              "name": "amount",
              "type": "tuple"
            },
            {
              "components": [
                {
                  "internalType": "address",
                  "name": "token",
                  "type": "address"
                },
                {
                  "internalType": "uint256",
                  "name": "value",
                  "type": "uint256"
                },
                {
                  "internalType": "uint256",
                  "name": "decimals",
                  "type": "uint256"
                },
                {
                  "internalType": "uint256",
                  "name": "currency",
                  "type": "uint256"
                }
              ],
              "internalType": "struct JBTokenAmount",
              "name": "forwardedAmount",
              "type": "tuple"
            },
            {
              "internalType": "uint256",
              "name": "projectTokenCount",
              "type": "uint256"
            },
            {
              "internalType": "address",
              "name": "beneficiary",
              "type": "address"
            },
            {
              "internalType": "bool",
              "name": "preferClaimedTokens",
              "type": "bool"
            },
            {
              "internalType": "string",
              "name": "memo",
              "type": "string"
            },
            {
              "internalType": "bytes",
              "name": "metadata",
              "type": "bytes"
            }
          ],
          "internalType": "struct JBDidPayData",
          "name": "_data",
          "type": "tuple"
        }
      ],
      "name": "didPay",
      "outputs": [],
      "stateMutability": "payable",
      "type": "function"
    },
    {
      "inputs": [
        {
          "components": [
            {
              "internalType": "address",
              "name": "holder",
              "type": "address"
            },
            {
              "internalType": "uint256",
              "name": "projectId",
              "type": "uint256"
            },
            {
              "internalType": "uint256",
              "name": "currentFundingCycleConfiguration",
              "type": "uint256"
            },
            {
              "internalType": "uint256",
              "name": "projectTokenCount",
              "type": "uint256"
            },
            {
              "components": [
                {
                  "internalType": "address",
                  "name": "token",
                  "type": "address"
                },
                {
                  "internalType": "uint256",
                  "name": "value",
                  "type": "uint256"
                },
                {
                  "internalType": "uint256",
                  "name": "decimals",
                  "type": "uint256"
                },
                {
                  "internalType": "uint256",
                  "name": "currency",
                  "type": "uint256"
                }
              ],
              "internalType": "struct JBTokenAmount",
              "name": "reclaimedAmount",
              "type": "tuple"
            },
            {
              "components": [
                {
                  "internalType": "address",
                  "name": "token",
                  "type": "address"
                },
                {
                  "internalType": "uint256",
                  "name": "value",
                  "type": "uint256"
                },
                {
                  "internalType": "uint256",
                  "name": "decimals",
                  "type": "uint256"
                },
                {
                  "internalType": "uint256",
                  "name": "currency",
                  "type": "uint256"
                }
              ],
              "internalType": "struct JBTokenAmount",
              "name": "forwardedAmount",
              "type": "tuple"
            },
            {
              "internalType": "address payable",
              "name": "beneficiary",
              "type": "address"
            },
            {
              "internalType": "string",
              "name": "memo",
              "type": "string"
            },
            {
              "internalType": "bytes",
              "name": "metadata",
              "type": "bytes"
            }
          ],
          "internalType": "struct JBDidRedeemData",
          "name": "_data",
          "type": "tuple"
        }
      ],
      "name": "didRedeem",
      "outputs": [],
      "stateMutability": "payable",
      "type": "function"
    },
    {
      "inputs": [],
      "name": "directory",
      "outputs": [
        {
          "internalType": "contract IJBDirectory",
          "name": "",
          "type": "address"
        }
      ],
      "stateMutability": "view",
      "type": "function"
    },
    {
      "inputs": [
        {
          "internalType": "uint256",
          "name": "_tokenId",
          "type": "uint256"
        }
      ],
      "name": "firstOwnerOf",
      "outputs": [
        {
          "internalType": "address",
          "name": "",
          "type": "address"
        }
      ],
      "stateMutability": "view",
      "type": "function"
    },
    {
      "inputs": [],
      "name": "fundingCycleStore",
      "outputs": [
        {
          "internalType": "contract IJBFundingCycleStore",
          "name": "",
          "type": "address"
        }
      ],
      "stateMutability": "view",
      "type": "function"
    },
    {
      "inputs": [
        {
          "internalType": "uint256",
          "name": "tokenId",
          "type": "uint256"
        }
      ],
      "name": "getApproved",
      "outputs": [
        {
          "internalType": "address",
          "name": "",
          "type": "address"
        }
      ],
      "stateMutability": "view",
      "type": "function"
    },
    {
      "inputs": [
        {
          "internalType": "uint256",
          "name": "_tier",
          "type": "uint256"
        },
        {
          "internalType": "uint256",
          "name": "_blockNumber",
          "type": "uint256"
        }
      ],
      "name": "getPastTierTotalVotes",
      "outputs": [
        {
          "internalType": "uint256",
          "name": "",
          "type": "uint256"
        }
      ],
      "stateMutability": "view",
      "type": "function"
    },
    {
      "inputs": [
        {
          "internalType": "address",
          "name": "_account",
          "type": "address"
        },
        {
          "internalType": "uint256",
          "name": "_tier",
          "type": "uint256"
        },
        {
          "internalType": "uint256",
          "name": "_blockNumber",
          "type": "uint256"
        }
      ],
      "name": "getPastTierVotes",
      "outputs": [
        {
          "internalType": "uint256",
          "name": "",
          "type": "uint256"
        }
      ],
      "stateMutability": "view",
      "type": "function"
    },
    {
      "inputs": [
        {
          "internalType": "address",
          "name": "_account",
          "type": "address"
        },
        {
          "internalType": "uint256",
          "name": "_tier",
          "type": "uint256"
        }
      ],
      "name": "getTierDelegate",
      "outputs": [
        {
          "internalType": "address",
          "name": "",
          "type": "address"
        }
      ],
      "stateMutability": "view",
      "type": "function"
    },
    {
      "inputs": [
        {
          "internalType": "uint256",
          "name": "_tier",
          "type": "uint256"
        }
      ],
      "name": "getTierTotalVotes",
      "outputs": [
        {
          "internalType": "uint256",
          "name": "",
          "type": "uint256"
        }
      ],
      "stateMutability": "view",
      "type": "function"
    },
    {
      "inputs": [
        {
          "internalType": "address",
          "name": "_account",
          "type": "address"
        },
        {
          "internalType": "uint256",
          "name": "_tier",
          "type": "uint256"
        }
      ],
      "name": "getTierVotes",
      "outputs": [
        {
          "internalType": "uint256",
          "name": "",
          "type": "uint256"
        }
      ],
      "stateMutability": "view",
      "type": "function"
    },
    {
      "inputs": [
        {
          "internalType": "uint256",
          "name": "_projectId",
          "type": "uint256"
        },
        {
          "internalType": "contract IJBDirectory",
          "name": "_directory",
          "type": "address"
        },
        {
          "internalType": "string",
          "name": "_name",
          "type": "string"
        },
        {
          "internalType": "string",
          "name": "_symbol",
          "type": "string"
        },
        {
          "internalType": "contract IJBFundingCycleStore",
          "name": "_fundingCycleStore",
          "type": "address"
        },
        {
          "internalType": "string",
          "name": "_baseUri",
          "type": "string"
        },
        {
          "internalType": "contract IJBTokenUriResolver",
          "name": "_tokenUriResolver",
          "type": "address"
        },
        {
          "internalType": "string",
          "name": "_contractUri",
          "type": "string"
        },
        {
          "components": [
            {
              "components": [
                {
                  "internalType": "uint80",
                  "name": "contributionFloor",
                  "type": "uint80"
                },
                {
                  "internalType": "uint48",
                  "name": "lockedUntil",
                  "type": "uint48"
                },
                {
                  "internalType": "uint40",
                  "name": "initialQuantity",
                  "type": "uint40"
                },
                {
                  "internalType": "uint16",
                  "name": "votingUnits",
                  "type": "uint16"
                },
                {
                  "internalType": "uint16",
                  "name": "reservedRate",
                  "type": "uint16"
                },
                {
                  "internalType": "address",
                  "name": "reservedTokenBeneficiary",
                  "type": "address"
                },
                {
                  "internalType": "bytes32",
                  "name": "encodedIPFSUri",
                  "type": "bytes32"
                },
                {
                  "internalType": "bool",
                  "name": "allowManualMint",
                  "type": "bool"
                },
                {
                  "internalType": "bool",
                  "name": "shouldUseBeneficiaryAsDefault",
                  "type": "bool"
                },
                {
                  "internalType": "bool",
                  "name": "transfersPausable",
                  "type": "bool"
                }
              ],
              "internalType": "struct JB721TierParams[]",
              "name": "tiers",
              "type": "tuple[]"
            },
            {
              "internalType": "uint256",
              "name": "currency",
              "type": "uint256"
            },
            {
              "internalType": "uint256",
              "name": "decimals",
              "type": "uint256"
            },
            {
              "internalType": "contract IJBPrices",
              "name": "prices",
              "type": "address"
            }
          ],
          "internalType": "struct JB721PricingParams",
          "name": "_pricing",
          "type": "tuple"
        },
        {
          "internalType": "contract IJBTiered721DelegateStore",
          "name": "_store",
          "type": "address"
        },
        {
          "components": [
            {
              "internalType": "bool",
              "name": "lockReservedTokenChanges",
              "type": "bool"
            },
            {
              "internalType": "bool",
              "name": "lockVotingUnitChanges",
              "type": "bool"
            },
            {
              "internalType": "bool",
              "name": "lockManualMintingChanges",
              "type": "bool"
            },
            {
              "internalType": "bool",
              "name": "preventOverspending",
              "type": "bool"
            }
          ],
          "internalType": "struct JBTiered721Flags",
          "name": "_flags",
          "type": "tuple"
        }
      ],
      "name": "initialize",
      "outputs": [],
      "stateMutability": "nonpayable",
      "type": "function"
    },
    {
      "inputs": [
        {
          "internalType": "address",
          "name": "owner",
          "type": "address"
        },
        {
          "internalType": "address",
          "name": "operator",
          "type": "address"
        }
      ],
      "name": "isApprovedForAll",
      "outputs": [
        {
          "internalType": "bool",
          "name": "",
          "type": "bool"
        }
      ],
      "stateMutability": "view",
      "type": "function"
    },
    {
      "inputs": [
        {
          "components": [
            {
              "internalType": "uint16[]",
              "name": "tierIds",
              "type": "uint16[]"
            },
            {
              "internalType": "address",
              "name": "beneficiary",
              "type": "address"
            }
          ],
          "internalType": "struct JBTiered721MintForTiersData[]",
          "name": "_mintForTiersData",
          "type": "tuple[]"
        }
      ],
      "name": "mintFor",
      "outputs": [],
      "stateMutability": "nonpayable",
      "type": "function"
    },
    {
      "inputs": [
        {
          "internalType": "uint16[]",
          "name": "_tierIds",
          "type": "uint16[]"
        },
        {
          "internalType": "address",
          "name": "_beneficiary",
          "type": "address"
        }
      ],
      "name": "mintFor",
      "outputs": [
        {
          "internalType": "uint256[]",
          "name": "tokenIds",
          "type": "uint256[]"
        }
      ],
      "stateMutability": "nonpayable",
      "type": "function"
    },
    {
      "inputs": [
        {
          "components": [
            {
              "internalType": "uint256",
              "name": "tierId",
              "type": "uint256"
            },
            {
              "internalType": "uint256",
              "name": "count",
              "type": "uint256"
            }
          ],
          "internalType": "struct JBTiered721MintReservesForTiersData[]",
          "name": "_mintReservesForTiersData",
          "type": "tuple[]"
        }
      ],
      "name": "mintReservesFor",
      "outputs": [],
      "stateMutability": "nonpayable",
      "type": "function"
    },
    {
      "inputs": [
        {
          "internalType": "uint256",
          "name": "_tierId",
          "type": "uint256"
        },
        {
          "internalType": "uint256",
          "name": "_count",
          "type": "uint256"
        }
      ],
      "name": "mintReservesFor",
      "outputs": [],
      "stateMutability": "nonpayable",
      "type": "function"
    },
    {
      "inputs": [],
      "name": "name",
      "outputs": [
        {
          "internalType": "string",
          "name": "",
          "type": "string"
        }
      ],
      "stateMutability": "view",
      "type": "function"
    },
    {
      "inputs": [],
      "name": "owner",
      "outputs": [
        {
          "internalType": "address",
          "name": "",
          "type": "address"
        }
      ],
      "stateMutability": "view",
      "type": "function"
    },
    {
      "inputs": [
        {
          "internalType": "uint256",
          "name": "tokenId",
          "type": "uint256"
        }
      ],
      "name": "ownerOf",
      "outputs": [
        {
          "internalType": "address",
          "name": "",
          "type": "address"
        }
      ],
      "stateMutability": "view",
      "type": "function"
    },
    {
      "inputs": [
        {
          "components": [
            {
              "internalType": "contract IJBPaymentTerminal",
              "name": "terminal",
              "type": "address"
            },
            {
              "internalType": "address",
              "name": "payer",
              "type": "address"
            },
            {
              "components": [
                {
                  "internalType": "address",
                  "name": "token",
                  "type": "address"
                },
                {
                  "internalType": "uint256",
                  "name": "value",
                  "type": "uint256"
                },
                {
                  "internalType": "uint256",
                  "name": "decimals",
                  "type": "uint256"
                },
                {
                  "internalType": "uint256",
                  "name": "currency",
                  "type": "uint256"
                }
              ],
              "internalType": "struct JBTokenAmount",
              "name": "amount",
              "type": "tuple"
            },
            {
              "internalType": "uint256",
              "name": "projectId",
              "type": "uint256"
            },
            {
              "internalType": "uint256",
              "name": "currentFundingCycleConfiguration",
              "type": "uint256"
            },
            {
              "internalType": "address",
              "name": "beneficiary",
              "type": "address"
            },
            {
              "internalType": "uint256",
              "name": "weight",
              "type": "uint256"
            },
            {
              "internalType": "uint256",
              "name": "reservedRate",
              "type": "uint256"
            },
            {
              "internalType": "string",
              "name": "memo",
              "type": "string"
            },
            {
              "internalType": "bytes",
              "name": "metadata",
              "type": "bytes"
            }
          ],
          "internalType": "struct JBPayParamsData",
          "name": "_data",
          "type": "tuple"
        }
      ],
      "name": "payParams",
      "outputs": [
        {
          "internalType": "uint256",
          "name": "weight",
          "type": "uint256"
        },
        {
          "internalType": "string",
          "name": "memo",
          "type": "string"
        },
        {
          "components": [
            {
              "internalType": "contract IJBPayDelegate",
              "name": "delegate",
              "type": "address"
            },
            {
              "internalType": "uint256",
              "name": "amount",
              "type": "uint256"
            }
          ],
          "internalType": "struct JBPayDelegateAllocation[]",
          "name": "delegateAllocations",
          "type": "tuple[]"
        }
      ],
      "stateMutability": "view",
      "type": "function"
    },
    {
      "inputs": [],
      "name": "prices",
      "outputs": [
        {
          "internalType": "contract IJBPrices",
          "name": "",
          "type": "address"
        }
      ],
      "stateMutability": "view",
      "type": "function"
    },
    {
      "inputs": [],
      "name": "pricingCurrency",
      "outputs": [
        {
          "internalType": "uint256",
          "name": "",
          "type": "uint256"
        }
      ],
      "stateMutability": "view",
      "type": "function"
    },
    {
      "inputs": [],
      "name": "pricingDecimals",
      "outputs": [
        {
          "internalType": "uint256",
          "name": "",
          "type": "uint256"
        }
      ],
      "stateMutability": "view",
      "type": "function"
    },
    {
      "inputs": [],
      "name": "projectId",
      "outputs": [
        {
          "internalType": "uint256",
          "name": "",
          "type": "uint256"
        }
      ],
      "stateMutability": "view",
      "type": "function"
    },
    {
      "inputs": [
        {
          "components": [
            {
              "internalType": "contract IJBPaymentTerminal",
              "name": "terminal",
              "type": "address"
            },
            {
              "internalType": "address",
              "name": "holder",
              "type": "address"
            },
            {
              "internalType": "uint256",
              "name": "projectId",
              "type": "uint256"
            },
            {
              "internalType": "uint256",
              "name": "currentFundingCycleConfiguration",
              "type": "uint256"
            },
            {
              "internalType": "uint256",
              "name": "tokenCount",
              "type": "uint256"
            },
            {
              "internalType": "uint256",
              "name": "totalSupply",
              "type": "uint256"
            },
            {
              "internalType": "uint256",
              "name": "overflow",
              "type": "uint256"
            },
            {
              "components": [
                {
                  "internalType": "address",
                  "name": "token",
                  "type": "address"
                },
                {
                  "internalType": "uint256",
                  "name": "value",
                  "type": "uint256"
                },
                {
                  "internalType": "uint256",
                  "name": "decimals",
                  "type": "uint256"
                },
                {
                  "internalType": "uint256",
                  "name": "currency",
                  "type": "uint256"
                }
              ],
              "internalType": "struct JBTokenAmount",
              "name": "reclaimAmount",
              "type": "tuple"
            },
            {
              "internalType": "bool",
              "name": "useTotalOverflow",
              "type": "bool"
            },
            {
              "internalType": "uint256",
              "name": "redemptionRate",
              "type": "uint256"
            },
            {
              "internalType": "string",
              "name": "memo",
              "type": "string"
            },
            {
              "internalType": "bytes",
              "name": "metadata",
              "type": "bytes"
            }
          ],
          "internalType": "struct JBRedeemParamsData",
          "name": "_data",
          "type": "tuple"
        }
      ],
      "name": "redeemParams",
      "outputs": [
        {
          "internalType": "uint256",
          "name": "reclaimAmount",
          "type": "uint256"
        },
        {
          "internalType": "string",
          "name": "memo",
          "type": "string"
        },
        {
          "components": [
            {
              "internalType": "contract IJBRedemptionDelegate",
              "name": "delegate",
              "type": "address"
            },
            {
              "internalType": "uint256",
              "name": "amount",
              "type": "uint256"
            }
          ],
          "internalType": "struct JBRedemptionDelegateAllocation[]",
          "name": "delegateAllocations",
          "type": "tuple[]"
        }
      ],
      "stateMutability": "view",
      "type": "function"
    },
    {
      "inputs": [
        {
          "internalType": "uint256[]",
          "name": "_tokenIds",
          "type": "uint256[]"
        },
        {
          "components": [
            {
              "internalType": "contract IJBPaymentTerminal",
              "name": "terminal",
              "type": "address"
            },
            {
              "internalType": "address",
              "name": "holder",
              "type": "address"
            },
            {
              "internalType": "uint256",
              "name": "projectId",
              "type": "uint256"
            },
            {
              "internalType": "uint256",
              "name": "currentFundingCycleConfiguration",
              "type": "uint256"
            },
            {
              "internalType": "uint256",
              "name": "tokenCount",
              "type": "uint256"
            },
            {
              "internalType": "uint256",
              "name": "totalSupply",
              "type": "uint256"
            },
            {
              "internalType": "uint256",
              "name": "overflow",
              "type": "uint256"
            },
            {
              "components": [
                {
                  "internalType": "address",
                  "name": "token",
                  "type": "address"
                },
                {
                  "internalType": "uint256",
                  "name": "value",
                  "type": "uint256"
                },
                {
                  "internalType": "uint256",
                  "name": "decimals",
                  "type": "uint256"
                },
                {
                  "internalType": "uint256",
                  "name": "currency",
                  "type": "uint256"
                }
              ],
              "internalType": "struct JBTokenAmount",
              "name": "reclaimAmount",
              "type": "tuple"
            },
            {
              "internalType": "bool",
              "name": "useTotalOverflow",
              "type": "bool"
            },
            {
              "internalType": "uint256",
              "name": "redemptionRate",
              "type": "uint256"
            },
            {
              "internalType": "string",
              "name": "memo",
              "type": "string"
            },
            {
              "internalType": "bytes",
              "name": "metadata",
              "type": "bytes"
            }
          ],
          "internalType": "struct JBRedeemParamsData",
          "name": "",
          "type": "tuple"
        }
      ],
      "name": "redemptionWeightOf",
      "outputs": [
        {
          "internalType": "uint256",
          "name": "cumulativeWeight",
          "type": "uint256"
        }
      ],
      "stateMutability": "view",
      "type": "function"
    },
    {
      "inputs": [],
      "name": "renounceOwnership",
      "outputs": [],
      "stateMutability": "nonpayable",
      "type": "function"
    },
    {
      "inputs": [
        {
          "internalType": "address",
          "name": "from",
          "type": "address"
        },
        {
          "internalType": "address",
          "name": "to",
          "type": "address"
        },
        {
          "internalType": "uint256",
          "name": "tokenId",
          "type": "uint256"
        }
      ],
      "name": "safeTransferFrom",
      "outputs": [],
      "stateMutability": "nonpayable",
      "type": "function"
    },
    {
      "inputs": [
        {
          "internalType": "address",
          "name": "from",
          "type": "address"
        },
        {
          "internalType": "address",
          "name": "to",
          "type": "address"
        },
        {
          "internalType": "uint256",
          "name": "tokenId",
          "type": "uint256"
        },
        {
          "internalType": "bytes",
          "name": "data",
          "type": "bytes"
        }
      ],
      "name": "safeTransferFrom",
      "outputs": [],
      "stateMutability": "nonpayable",
      "type": "function"
    },
    {
      "inputs": [
        {
          "internalType": "address",
          "name": "operator",
          "type": "address"
        },
        {
          "internalType": "bool",
          "name": "approved",
          "type": "bool"
        }
      ],
      "name": "setApprovalForAll",
      "outputs": [],
      "stateMutability": "nonpayable",
      "type": "function"
    },
    {
      "inputs": [
        {
          "internalType": "string",
          "name": "_baseUri",
          "type": "string"
        }
      ],
      "name": "setBaseUri",
      "outputs": [],
      "stateMutability": "nonpayable",
      "type": "function"
    },
    {
      "inputs": [
        {
          "internalType": "string",
          "name": "_contractUri",
          "type": "string"
        }
      ],
      "name": "setContractUri",
      "outputs": [],
      "stateMutability": "nonpayable",
      "type": "function"
    },
    {
      "inputs": [
        {
          "internalType": "address",
          "name": "_beneficiary",
          "type": "address"
        }
      ],
      "name": "setDefaultReservedTokenBeneficiary",
      "outputs": [],
      "stateMutability": "nonpayable",
      "type": "function"
    },
    {
      "inputs": [
        {
          "internalType": "address",
          "name": "_delegatee",
          "type": "address"
        },
        {
          "internalType": "uint256",
          "name": "_tierId",
          "type": "uint256"
        }
      ],
      "name": "setTierDelegate",
      "outputs": [],
      "stateMutability": "nonpayable",
      "type": "function"
    },
    {
      "inputs": [
        {
          "components": [
            {
              "internalType": "address",
              "name": "delegatee",
              "type": "address"
            },
            {
              "internalType": "uint256",
              "name": "tierId",
              "type": "uint256"
            }
          ],
          "internalType": "struct JBTiered721SetTierDelegatesData[]",
          "name": "_setTierDelegatesData",
          "type": "tuple[]"
        }
      ],
      "name": "setTierDelegates",
      "outputs": [],
      "stateMutability": "nonpayable",
      "type": "function"
    },
    {
      "inputs": [
        {
          "components": [
            {
              "internalType": "uint256",
              "name": "id",
              "type": "uint256"
            },
            {
              "internalType": "uint256",
              "name": "redemptionWeight",
              "type": "uint256"
            }
          ],
          "internalType": "struct DefifaTierRedemptionWeight[]",
          "name": "_tierWeights",
          "type": "tuple[]"
        }
      ],
      "name": "setTierRedemptionWeights",
      "outputs": [],
      "stateMutability": "nonpayable",
      "type": "function"
    },
    {
      "inputs": [
        {
          "internalType": "contract IJBTokenUriResolver",
          "name": "_tokenUriResolver",
          "type": "address"
        }
      ],
      "name": "setTokenUriResolver",
      "outputs": [],
      "stateMutability": "nonpayable",
      "type": "function"
    },
    {
      "inputs": [],
      "name": "store",
      "outputs": [
        {
          "internalType": "contract IJBTiered721DelegateStore",
          "name": "",
          "type": "address"
        }
      ],
      "stateMutability": "view",
      "type": "function"
    },
    {
      "inputs": [
        {
          "internalType": "bytes4",
          "name": "_interfaceId",
          "type": "bytes4"
        }
      ],
      "name": "supportsInterface",
      "outputs": [
        {
          "internalType": "bool",
          "name": "",
          "type": "bool"
        }
      ],
      "stateMutability": "view",
      "type": "function"
    },
    {
      "inputs": [],
      "name": "symbol",
      "outputs": [
        {
          "internalType": "string",
          "name": "",
          "type": "string"
        }
      ],
      "stateMutability": "view",
      "type": "function"
    },
    {
      "inputs": [],
      "name": "tierRedemptionWeights",
      "outputs": [
        {
          "internalType": "uint256[128]",
          "name": "",
          "type": "uint256[128]"
        }
      ],
      "stateMutability": "view",
      "type": "function"
    },
    {
      "inputs": [
        {
          "internalType": "uint256",
          "name": "_tokenId",
          "type": "uint256"
        }
      ],
      "name": "tokenURI",
      "outputs": [
        {
          "internalType": "string",
          "name": "",
          "type": "string"
        }
      ],
      "stateMutability": "view",
      "type": "function"
    },
    {
      "inputs": [
        {
          "components": [
            {
              "internalType": "contract IJBPaymentTerminal",
              "name": "terminal",
              "type": "address"
            },
            {
              "internalType": "address",
              "name": "holder",
              "type": "address"
            },
            {
              "internalType": "uint256",
              "name": "projectId",
              "type": "uint256"
            },
            {
              "internalType": "uint256",
              "name": "currentFundingCycleConfiguration",
              "type": "uint256"
            },
            {
              "internalType": "uint256",
              "name": "tokenCount",
              "type": "uint256"
            },
            {
              "internalType": "uint256",
              "name": "totalSupply",
              "type": "uint256"
            },
            {
              "internalType": "uint256",
              "name": "overflow",
              "type": "uint256"
            },
            {
              "components": [
                {
                  "internalType": "address",
                  "name": "token",
                  "type": "address"
                },
                {
                  "internalType": "uint256",
                  "name": "value",
                  "type": "uint256"
                },
                {
                  "internalType": "uint256",
                  "name": "decimals",
                  "type": "uint256"
                },
                {
                  "internalType": "uint256",
                  "name": "currency",
                  "type": "uint256"
                }
              ],
              "internalType": "struct JBTokenAmount",
              "name": "reclaimAmount",
              "type": "tuple"
            },
            {
              "internalType": "bool",
              "name": "useTotalOverflow",
              "type": "bool"
            },
            {
              "internalType": "uint256",
              "name": "redemptionRate",
              "type": "uint256"
            },
            {
              "internalType": "string",
              "name": "memo",
              "type": "string"
            },
            {
              "internalType": "bytes",
              "name": "metadata",
              "type": "bytes"
            }
          ],
          "internalType": "struct JBRedeemParamsData",
          "name": "",
          "type": "tuple"
        }
      ],
      "name": "totalRedemptionWeight",
      "outputs": [
        {
          "internalType": "uint256",
          "name": "",
          "type": "uint256"
        }
      ],
      "stateMutability": "view",
      "type": "function"
    },
    {
      "inputs": [
        {
          "internalType": "address",
          "name": "from",
          "type": "address"
        },
        {
          "internalType": "address",
          "name": "to",
          "type": "address"
        },
        {
          "internalType": "uint256",
          "name": "tokenId",
          "type": "uint256"
        }
      ],
      "name": "transferFrom",
      "outputs": [],
      "stateMutability": "nonpayable",
      "type": "function"
    },
    {
      "inputs": [
        {
          "internalType": "address",
          "name": "newOwner",
          "type": "address"
        }
      ],
      "name": "transferOwnership",
      "outputs": [],
      "stateMutability": "nonpayable",
      "type": "function"
    }
  ],
  "bytecode": {
    "object": "0x60806040523480156200001157600080fd5b506200001d3362000035565b600880546001600160a01b0319163017905562000087565b600780546001600160a01b038381166001600160a01b0319831681179093556040519116919082907f8be0079c531659141344cd1fd0a4f28419497f9722a3daafe3b4186f6b6457e090600090a35050565b615f3b80620000976000396000f3fe60806040526004361061031a5760003560e01c80639494bf72116101ab578063c87b56dd116100f7578063d46cf17111610095578063e8a3d4851161006f578063e8a3d48514610978578063e985e9c51461098d578063f2fde38b146109d6578063f5a38e63146109f657600080fd5b8063d46cf17114610925578063da9ee8b714610945578063df487e261461095857600080fd5b8063ccb4807b116100d1578063ccb4807b146108a5578063d31cc52c146108c5578063d3419bf3146108e5578063d40e71461461090557600080fd5b8063c87b56dd14610845578063ca323efe14610865578063cac486a81461088557600080fd5b8063a22cb46511610164578063ab951e391161013e578063ab951e39146107c5578063b88d4fde146107e5578063c41c2f2414610805578063c74b13d91461082557600080fd5b8063a22cb46514610756578063a51cfd1814610776578063aa4fb15b146107a557600080fd5b80639494bf721461069b57806394c5c5ca146106bf57806395d89b41146106df578063975057e7146106f45780639df4546814610714578063a0bcfc7f1461073657600080fd5b806342842e0e1161026a57806364640c1e11610223578063715018a6116101fd578063715018a6146106055780637ba62bf91461061a57806382732b6d1461063a5780638da5cb5b1461067d57600080fd5b806364640c1e146105a25780636ac6d941146105b857806370a08231146105e557600080fd5b806342842e0e146104f45780634ecba6251461051457806354c6d1f51461052a578063557e71551461054a5780636352211e1461056a578063640abacd1461058a57600080fd5b80632407497e116102d75780632b13c58f116102b15780632b13c58f1461048b5780632f4415001461049e57806336c1a93b146104be5780633fafa127146104de57600080fd5b80632407497e14610410578063245a45b5146104305780632a596e531461046b57600080fd5b806301ffc9a71461031f57806306fdde0314610354578063081812fc14610376578063095ea7b3146103ae5780631d153ca4146103d057806323b872dd146103f0575b600080fd5b34801561032b57600080fd5b5061033f61033a3660046144a2565b610a16565b60405190151581526020015b60405180910390f35b34801561036057600080fd5b50610369610a41565b60405161034b919061450f565b34801561038257600080fd5b50610396610391366004614522565b610ad3565b6040516001600160a01b03909116815260200161034b565b3480156103ba57600080fd5b506103ce6103c9366004614560565b610afa565b005b3480156103dc57600080fd5b50600854610396906001600160a01b031681565b3480156103fc57600080fd5b506103ce61040b36600461458c565b610b86565b34801561041c57600080fd5b506103ce61042b3660046145cd565b610bb8565b34801561043c57600080fd5b5061045d61044b3660046145cd565b600e6020526000908152604090205481565b60405190815260200161034b565b34801561047757600080fd5b506103ce6104863660046145ea565b610c61565b6103ce610499366004614677565b610cba565b3480156104aa57600080fd5b506103ce6104b93660046147f7565b610fcf565b3480156104ca57600080fd5b506103ce6104d93660046148db565b6111ef565b3480156104ea57600080fd5b5061045d60055481565b34801561050057600080fd5b506103ce61050f36600461458c565b611251565b34801561052057600080fd5b5061045d600d5481565b34801561053657600080fd5b50610396610545366004614522565b61126c565b34801561055657600080fd5b50600a54610396906001600160a01b031681565b34801561057657600080fd5b50610396610585366004614522565b611318565b34801561059657600080fd5b5061045d633b9aca0081565b3480156105ae57600080fd5b5061045d600c5481565b3480156105c457600080fd5b506105d86105d336600461491c565b61134e565b60405161034b9190614972565b3480156105f157600080fd5b5061045d6106003660046145cd565b611494565b34801561061157600080fd5b506103ce611509565b34801561062657600080fd5b5061045d610635366004614a1c565b61151d565b34801561064657600080fd5b50610396610655366004614560565b6001600160a01b039182166000908152600f6020908152604080832093835292905220541690565b34801561068957600080fd5b506007546001600160a01b0316610396565b3480156106a757600080fd5b5061045d6106b6366004614677565b50633b9aca0090565b3480156106cb57600080fd5b5061045d6106da366004614522565b6116d4565b3480156106eb57600080fd5b506103696116eb565b34801561070057600080fd5b50600954610396906001600160a01b031681565b34801561072057600080fd5b506107296116fa565b60405161034b9190614a7f565b34801561074257600080fd5b506103ce610751366004614ab1565b611736565b34801561076257600080fd5b506103ce610771366004614b29565b6117f1565b34801561078257600080fd5b50610796610791366004614677565b611800565b60405161034b93929190614b62565b3480156107b157600080fd5b506103ce6107c0366004614bd4565b611b54565b3480156107d157600080fd5b506103ce6107e0366004614560565b611d71565b3480156107f157600080fd5b506103ce610800366004614c56565b611d7c565b34801561081157600080fd5b50600654610396906001600160a01b031681565b34801561083157600080fd5b506103ce610840366004614cd5565b611daf565b34801561085157600080fd5b50610369610860366004614522565b611e33565b34801561087157600080fd5b5061045d610880366004614560565b612014565b34801561089157600080fd5b506103ce6108a0366004614fcf565b612040565b3480156108b157600080fd5b506103ce6108c0366004614ab1565b612332565b3480156108d157600080fd5b5061045d6108e0366004614bd4565b6123e5565b3480156108f157600080fd5b50600b54610396906001600160a01b031681565b34801561091157600080fd5b5061045d610920366004615108565b6123fd565b34801561093157600080fd5b5061079661094036600461513d565b612432565b6103ce610953366004615178565b612515565b34801561096457600080fd5b506103ce6109733660046145cd565b6125cc565b34801561098457600080fd5b5061036961266e565b34801561099957600080fd5b5061033f6109a83660046151b3565b6001600160a01b03918216600090815260046020908152604080832093909416825291909152205460ff1690565b3480156109e257600080fd5b506103ce6109f13660046145cd565b6126e4565b348015610a0257600080fd5b506103ce610a113660046151e1565b612762565b60006001600160e01b031982166320b52ca160e21b1480610a3b5750610a3b82612944565b92915050565b606060008054610a509061527b565b80601f0160208091040260200160405190810160405280929190818152602001828054610a7c9061527b565b8015610ac95780601f10610a9e57610100808354040283529160200191610ac9565b820191906000526020600020905b815481529060010190602001808311610aac57829003601f168201915b5050505050905090565b6000610ade826129ba565b506000908152600360205260409020546001600160a01b031690565b6000610b0582611318565b9050806001600160a01b0316836001600160a01b031603610b395760405163133f8be960e01b815260040160405180910390fd5b336001600160a01b03821614801590610b595750610b5781336109a8565b155b15610b775760405163e5fa0e3560e01b815260040160405180910390fd5b610b8183836129ef565b505050565b610b903382612a5d565b610bad5760405163e5fa0e3560e01b815260040160405180910390fd5b610b81838383612adb565b610bc0612bb4565b60095460405163036129cb60e61b81526001600160a01b0383811660048301529091169063d84a72c090602401600060405180830381600087803b158015610c0757600080fd5b505af1158015610c1b573d6000803e3d6000fd5b50506040513381526001600160a01b03841692507fe7784d93cfbfa4408e19577e6cc0436f4dbb51214b70e100905dfce9def88c1691506020015b60405180910390a250565b8060005b81811015610cb4576000848483818110610c8157610c816152af565b905060400201803603810190610c9791906152c5565b9050610cab81600001518260200151611b54565b50600101610c65565b50505050565b34151580610d3c5750600654600554604051636e49181f60e01b815260048101919091523360248201526001600160a01b0390911690636e49181f90604401602060405180830381865afa158015610d16573d6000803e3d6000fd5b505050506040513d601f19601f82011682018060405250810190610d3a91906152ec565b155b80610d4d5750600554816020013514155b15610d6b57604051633efca5c360e11b815260040160405180910390fd5b6024610d7b6101c0830183615309565b90501080610dbf575063b3bcbb7960e01b610d9a6101c0830183615309565b610da99160249160209161534f565b610db291615379565b6001600160e01b03191614155b15610ddd57604051632a84050f60e01b815260040160405180910390fd5b6000610ded6101c0830183615309565b810190610dfa91906153a9565b8051600a546005546040516321d1336160e11b815260048101919091529295509093506000925082916001600160a01b03909116906343a266c29060240161012060405180830381865afa158015610e56573d6000803e3d6000fd5b505050506040513d601f19601f82011682018060405250810190610e7a919061540c565b805190915060041460005b84811015610f9857858181518110610e9f57610e9f6152af565b60200260200101519350866000016020810190610ebc91906145cd565b6000858152600260205260409020546001600160a01b03908116911614610ef65760405163075fd2b160e01b815260040160405180910390fd5b610eff84612c0e565b8115610f90576009546040516342f9914b60e01b8152600481018690526093916000916001600160a01b03909116906342f9914b90602401602060405180830381865afa158015610f54573d6000803e3d6000fd5b505050506040513d601f19601f82011682018060405250810190610f78919061548c565b81526020810191909152604001600020805460010190555b600101610e85565b50610fa285612c8f565b8015610fc757856080016020013560926000828254610fc191906154bb565b90915550505b505050505050565b610fd7612bb4565b600a546005546040516321d1336160e11b81526004926001600160a01b0316916343a266c29161100d9190850190815260200190565b61012060405180830381865afa15801561102b573d6000803e3d6000fd5b505050506040513d601f19601f8201168201806040525081019061104f919061540c565b51101561106f576040516303e08a3560e61b815260040160405180910390fd5b61107b60126000614449565b60095460405163f1bea54f60e01b81523060048201526000916001600160a01b03169063f1bea54f90602401602060405180830381865afa1580156110c4573d6000803e3d6000fd5b505050506040513d601f19601f820116820180604052508101906110e8919061548c565b8251909150600090815b818110156111c9578385828151811061110d5761110d6152af565b60200260200101516000015111156111385760405163148e14dd60e21b815260040160405180910390fd5b84818151811061114a5761114a6152af565b6020026020010151602001516012600187848151811061116c5761116c6152af565b60200260200101516000015161118291906154ce565b60808110611192576111926152af565b015584518590829081106111a8576111a86152af565b602002602001015160200151836111bf91906154bb565b92506001016110f2565b50633b9aca00821115610cb457604051636ff44e9760e01b815260040160405180910390fd5b6111f7612bb4565b8060005b81811015610cb45736848483818110611216576112166152af565b905060200281019061122891906154e1565b90506112476112378280615501565b6105d360408501602086016145cd565b50506001016111fb565b610b8183838360405180602001604052806000815250611d7c565b6009546040516308ed6c0160e41b81523060048201526024810183905260009182916001600160a01b0390911690638ed6c01090604401602060405180830381865afa1580156112c0573d6000803e3d6000fd5b505050506040513d601f19601f820116820180604052508101906112e4919061554a565b90506001600160a01b038116156112fb5792915050565b50506000908152600260205260409020546001600160a01b031690565b6000818152600260205260408120546001600160a01b031680610a3b5760405163b49aa3b560e01b815260040160405180910390fd5b6060611358612bb4565b60095460405163eaa19ab360e01b81526001600160a01b039091169063eaa19ab390611391906000199088908890600190600401615567565b6000604051808303816000875af11580156113b0573d6000803e3d6000fd5b505050506040513d6000823e601f3d908101601f191682016040526113d8919081019061561f565b509050826000805b8281101561148a578381815181106113fa576113fa6152af565b6020026020010151915061140e8583612cf4565b846001600160a01b031687878381811061142a5761142a6152af565b905060200201602081019061143f9190615665565b604080516000815233602082015261ffff929092169185917f598baf7bf150ca2f42be9e9f8f55e81d45f5715c3ff22bf46d697fabec7f31d6910160405180910390a46001016113e0565b5050509392505050565b600954604051633de222bb60e21b81523060048201526001600160a01b038381166024830152600092169063f7888aec90604401602060405180830381865afa1580156114e5573d6000803e3d6000fd5b505050506040513d601f19601f82011682018060405250810190610a3b919061548c565b611511612bb4565b61151b6000612dbe565b565b8151600090815b818110156116ab5760095485516000916001600160a01b0316906342f9914b90889085908110611556576115566152af565b60200260200101516040518263ffffffff1660e01b815260040161157c91815260200190565b602060405180830381865afa158015611599573d6000803e3d6000fd5b505050506040513d601f19601f820116820180604052508101906115bd919061548c565b600954604051633a39e4d160e11b8152306004820152602481018390529192506000916001600160a01b0390911690637473c9a29060440161016060405180830381865afa158015611613573d6000803e3d6000fd5b505050506040513d601f19601f820116820180604052508101906116379190615680565b60008381526093602052604090205460608201516080830151929350909161165f91906154ce565b61166991906154bb565b60126116766001856154ce565b60808110611686576116866152af565b01546116929190615738565b61169c90866154bb565b94508260010192505050611524565b50816000036116cd57604051637691472960e01b815260040160405180910390fd5b5092915050565b6000818152601160205260408120610a3b90612e10565b606060018054610a509061527b565b611702614458565b604080516110008101918290529060129060809082845b815481526020019060010190808311611719575050505050905090565b61173e612bb4565b6009546040516331315e5960e11b81526001600160a01b0390911690636262bcb290611770908590859060040161574c565b600060405180830381600087803b15801561178a57600080fd5b505af115801561179e573d6000803e3d6000fd5b5050505081816040516117b292919061577b565b604051908190038120338252907f7bc9110d5de090dd59e07912d2b93a5a27ac70a60c8d8e324db4f9ee8b8b5c13906020015b60405180910390a25050565b6117fc338383612e6c565b5050565b6000606080608084013515611828576040516309f82f1b60e31b815260040160405180910390fd5b60246118386101c0860186615309565b9050108061187c575063b3bcbb7960e01b6118576101c0860186615309565b6118669160249160209161534f565b61186f91615379565b6001600160e01b03191614155b1561189a57604051632a84050f60e01b815260040160405180910390fd5b60408051600180825281830190925290816020015b60408051808201909152600080825260208201528152602001906001900390816118af5790505090506040518060400160405280306001600160a01b0316815260200160008152508160008151811061190a5761190a6152af565b602090810291909101015260006119256101c0860186615309565b81019061193291906153a9565b600a54604080516321d1336160e11b8152908a01356004820152919450600193506001600160a01b031691506343a266c29060240161012060405180830381865afa158015611985573d6000803e3d6000fd5b505050506040513d601f19601f820116820180604052508101906119a9919061540c565b5103611acd57805160005b81811015611a735760095483516001600160a01b039091169063b67cb0479030908690859081106119e7576119e76152af565b60200260200101516040518363ffffffff1660e01b8152600401611a209291906001600160a01b03929092168252602082015260400190565b61016060405180830381865afa158015611a3e573d6000803e3d6000fd5b505050506040513d601f19601f82011682018060405250810190611a629190615680565b6020015195909501946001016119b4565b5084611a836101a0880188615309565b8582828080601f016020809104026020016040519081016040528093929190818152602001838380828437600092019190915250969b50919950919750611b4d9650505050505050565b611afb6092548660c00135611ae291906154bb565b611aec838861151d565b633b9aca00612f0b565b612f0b565b611b096101a0870187615309565b8482828080601f016020809104026020016040519081016040528093929190818152602001838380828437600092019190915250969a509198509196505050505050505b9193909250565b600a546005546040516321d1336160e11b815260048101919091526000916001600160a01b0316906343a266c29060240161012060405180830381865afa158015611ba3573d6000803e3d6000fd5b505050506040513d601f19601f82011682018060405250810190611bc7919061540c565b61010081015190915060f51c600190811603611bf657604051631d2c125760e31b815260040160405180910390fd5b600954604051635d53f40760e11b815260048101859052602481018490526000916001600160a01b03169063baa7e80e906044016000604051808303816000875af1158015611c49573d6000803e3d6000fd5b505050506040513d6000823e601f3d908101601f19168201604052611c71919081019061578b565b6009546040516304db994760e21b8152306004820152602481018790529192506000916001600160a01b039091169063136e651c90604401602060405180830381865afa158015611cc6573d6000803e3d6000fd5b505050506040513d601f19601f82011682018060405250810190611cea919061554a565b90506000805b85811015611d6857838181518110611d0a57611d0a6152af565b60200260200101519150611d1e8383612cf4565b6040513381526001600160a01b03841690889084907f031e1988c95a91ec4d655ff63a8f87a80bc9daf28d95ae10ee08c0022cfb5c8b9060200160405180910390a4600101611cf0565b50505050505050565b6117fc338383612fd8565b611d863383612a5d565b611da35760405163e5fa0e3560e01b815260040160405180910390fd5b610cb484848484613057565b8051604080518082019091526000808252602082015260005b82811015610cb457838181518110611de257611de26152af565b602090810291909101015180519092506001600160a01b0316611e18576040516314f4c13d60e21b815260040160405180910390fd5b611e2b3383600001518460200151612fd8565b600101611dc8565b600954604051630fab094760e01b81523060048201526060916000916001600160a01b0390911690630fab094790602401602060405180830381865afa158015611e81573d6000803e3d6000fd5b505050506040513d601f19601f82011682018060405250810190611ea5919061554a565b90506001600160a01b03811615611f2a57604051636d02a25560e11b8152600481018490526001600160a01b0382169063da0544aa90602401600060405180830381865afa158015611efb573d6000803e3d6000fd5b505050506040513d6000823e601f3d908101601f19168201604052611f2391908101906157bf565b9392505050565b60095460405163f682eeaf60e01b8152306004820152611f23916001600160a01b03169063f682eeaf90602401600060405180830381865afa158015611f74573d6000803e3d6000fd5b505050506040513d6000823e601f3d908101601f19168201604052611f9c91908101906157bf565b600954604051630c8df17160e41b8152306004820152602481018790526001600160a01b039091169063c8df171090604401602060405180830381865afa158015611feb573d6000803e3d6000fd5b505050506040513d601f19601f8201168201806040525081019061200f919061548c565b61308b565b6001600160a01b03821660009081526010602090815260408083208484529091528120611f2390612e10565b6008546001600160a01b0316300361205757600080fd5b6009546001600160a01b03161561206d57600080fd5b6120798b8b8b8b6130f2565b600a80546001600160a01b03808a166001600160a01b031992831617909255600980548584169083161790556020850151600c556040850151600d556060850151600b805491909316911617905585511561212d576040516331315e5960e11b81526001600160a01b03831690636262bcb2906120fa90899060040161450f565b600060405180830381600087803b15801561211457600080fd5b505af1158015612128573d6000803e3d6000fd5b505050505b8351156121935760405163d67b78fd60e01b81526001600160a01b0383169063d67b78fd9061216090879060040161450f565b600060405180830381600087803b15801561217a57600080fd5b505af115801561218e573d6000803e3d6000fd5b505050505b6001600160a01b038516156121fe5760405163036129cb60e61b81526001600160a01b03868116600483015283169063d84a72c090602401600060405180830381600087803b1580156121e557600080fd5b505af11580156121f9573d6000803e3d6000fd5b505050505b8251511561227c57825160405163eadd8b3760e01b81526001600160a01b0384169163eadd8b3791612233919060040161582c565b6000604051808303816000875af1158015612252573d6000803e3d6000fd5b505050506040513d6000823e601f3d908101601f1916820160405261227a919081019061578b565b505b80518061228a575080602001515b80612296575080604001515b1561231c57604080516365c13f1960e11b815282511515600482015260208301511515602482015290820151151560448201526060820151151560648201526001600160a01b0383169063cb827e3290608401600060405180830381600087803b15801561230357600080fd5b505af1158015612317573d6000803e3d6000fd5b505050505b61232533612dbe565b5050505050505050505050565b61233a612bb4565b60095460405163d67b78fd60e01b81526001600160a01b039091169063d67b78fd9061236c908590859060040161574c565b600060405180830381600087803b15801561238657600080fd5b505af115801561239a573d6000803e3d6000fd5b5050505081816040516123ae92919061577b565b604051908190038120338252907fd36dc0c1a06103fdcaf15f3f6fb797d1a97997514c78de073640c8b5005454b8906020016117e5565b6000828152601160205260408120611f239083613125565b6001600160a01b0383166000908152601060209081526040808320858452909152812061242a9083613125565b949350505050565b610120810135606080612449610160850185615309565b8080601f01602080910402602001604051908101604052809392919081815260200183838082843760009201919091525092945060019250612489915050565b6040519080825280602002602001820160405280156124ce57816020015b60408051808201909152600080825260208201528152602001906001900390816124a75790505b5090506040518060400160405280306001600160a01b03168152602001600081525081600081518110612503576125036152af565b60200260200101819052509193909250565b600554341515806125965750600654604051636e49181f60e01b8152600481018390523360248201526001600160a01b0390911690636e49181f90604401602060405180830381865afa158015612570573d6000803e3d6000fd5b505050506040513d601f19601f8201168201806040525081019061259491906152ec565b155b806125a5575080826020013514155b156125c3576040516331c57b1b60e21b815260040160405180910390fd5b6117fc82613234565b6125d4612bb4565b6009546040516317161f7d60e01b81526001600160a01b038381166004830152909116906317161f7d90602401600060405180830381600087803b15801561261b57600080fd5b505af115801561262f573d6000803e3d6000fd5b50506040513381526001600160a01b03841692507fab0014d4c7a642a02a31b303a318908c22b0fb2001f107278fc6076b4c671b659150602001610c56565b600954604051630155619b60e71b81523060048201526060916001600160a01b03169063aab0cd8090602401600060405180830381865afa1580156126b7573d6000803e3d6000fd5b505050506040513d6000823e601f3d908101601f191682016040526126df91908101906157bf565b905090565b6126ec612bb4565b6001600160a01b0381166127565760405162461bcd60e51b815260206004820152602660248201527f4f776e61626c653a206e6577206f776e657220697320746865207a65726f206160448201526564647265737360d01b60648201526084015b60405180910390fd5b61275f81612dbe565b50565b61276a612bb4565b8281801561283a576009546040516320512ba160e01b81526001600160a01b03909116906320512ba1906127a49087908790600401615905565b600060405180830381600087803b1580156127be57600080fd5b505af11580156127d2573d6000803e3d6000fd5b5050505060005b81811015612838578484828181106127f3576127f36152af565b60405133815260209182029390930135927f832d89d991be5351d793c20faf4b7dd44f8aa9ce39e3cb160c6317de6fbba72992500160405180910390a26001016127d9565b505b8115610fc75760095460405163eadd8b3760e01b81526000916001600160a01b03169063eadd8b3790612873908a908a90600401615a1b565b6000604051808303816000875af1158015612892573d6000803e3d6000fd5b505050506040513d6000823e601f3d908101601f191682016040526128ba919081019061578b565b905060005b8381101561293a578181815181106128d9576128d96152af565b60200260200101517f85b5b4c4e44e342c8dac3c3a5364494d455043decb9f4bb8e7e0a3020d22fed4898984818110612914576129146152af565b905061014002013360405161292a929190615a5e565b60405180910390a26001016128bf565b5050505050505050565b60006001600160e01b0319821663b3bcbb7960e01b148061297557506001600160e01b031982166371700c6960e01b145b8061299057506001600160e01b0319821663da9ee8b760e01b145b806129ab57506001600160e01b03198216632b13c58f60e01b145b80610a3b5750610a3b82613542565b6000818152600260205260409020546001600160a01b031661275f5760405163b49aa3b560e01b815260040160405180910390fd5b600081815260036020526040902080546001600160a01b0319166001600160a01b0384169081179091558190612a2482611318565b6001600160a01b03167f8c5be1e5ebec7d5bd14f71427d1e84f3dd0314c0f7b2291e5b200ac8c7c3b92560405160405180910390a45050565b600080612a6983611318565b9050806001600160a01b0316846001600160a01b03161480612ab057506001600160a01b0380821660009081526004602090815260408083209388168352929052205460ff165b8061242a5750836001600160a01b0316612ac984610ad3565b6001600160a01b031614949350505050565b826001600160a01b0316612aee82611318565b6001600160a01b031614612b155760405163a195bc5360e01b815260040160405180910390fd5b6001600160a01b038216612b3c57604051632c95542760e01b815260040160405180910390fd5b612b47838383613592565b612b526000826129ef565b60008181526002602052604080822080546001600160a01b0319166001600160a01b0386811691821790925591518493918716917fddf252ad1be2c89b69c2b068fc378daa952ba7f163c4a11628f55a4df523b3ef91a4610b818383836137bf565b6007546001600160a01b0316331461151b5760405162461bcd60e51b815260206004820181905260248201527f4f776e61626c653a2063616c6c6572206973206e6f7420746865206f776e6572604482015260640161274d565b6000612c1982611318565b9050612c2781600084613592565b612c326000836129ef565b60008281526002602052604080822080546001600160a01b0319169055518391906001600160a01b038416907fddf252ad1be2c89b69c2b068fc378daa952ba7f163c4a11628f55a4df523b3ef908390a46117fc816000846137bf565b6009546040516386bc2be360e01b81526001600160a01b03909116906386bc2be390612cbf908490600401614972565b600060405180830381600087803b158015612cd957600080fd5b505af1158015612ced573d6000803e3d6000fd5b5050505050565b6001600160a01b038216612d1b57604051633904578f60e11b815260040160405180910390fd5b6000818152600260205260409020546001600160a01b031615612d5157604051632eb5f0c360e21b815260040160405180910390fd5b612d5d60008383613592565b60008181526002602052604080822080546001600160a01b0319166001600160a01b03861690811790915590518392907fddf252ad1be2c89b69c2b068fc378daa952ba7f163c4a11628f55a4df523b3ef908290a46117fc600083836137bf565b600780546001600160a01b038381166001600160a01b0319831681179093556040519116919082907f8be0079c531659141344cd1fd0a4f28419497f9722a3daafe3b4186f6b6457e090600090a35050565b80546000908015612e595782612e276001836154ce565b81548110612e3757612e376152af565b60009182526020909120015464010000000090046001600160e01b0316612e5c565b60005b6001600160e01b03169392505050565b816001600160a01b0316836001600160a01b031603612e9e576040516306f8139d60e11b815260040160405180910390fd5b6001600160a01b03838116600081815260046020908152604080832094871680845294825291829020805460ff191686151590811790915591519182527f17307eab39ab6107e8899845ad3d59bd9653f200f220920489ca2b5937696c31910160405180910390a3505050565b6000808060001985870985870292508281108382030391505080600003612f4557838281612f3b57612f3b615722565b0492505050611f23565b838110612f6f57604051631dcf306360e21b8152600481018290526024810185905260440161274d565b60008486880960026001871981018816978890046003810283188082028403028082028403028082028403028082028403028082028403029081029092039091026000889003889004909101858311909403939093029303949094049190911702949350505050565b6001600160a01b038381166000818152600f6020908152604080832086845290915280822080548786166001600160a01b0319821681179092559151919094169392849290917f3134e8a2e6d97e929a7e54011ea5485d7d196dd5f0ba4d4ef95803e8e3fc257f9190a4610cb481848461305288876138b8565b613934565b613062848484612adb565b61306e84848484613a89565b610cb4576040516336f57c1b60e11b815260040160405180910390fd5b604051609160f51b602082015260228101829052606090600090604201604051602081830303815290604052905060006130c482613b8b565b905084816040516020016130d9929190615a86565b6040516020818303038152906040529250505092915050565b6130fc8282613d25565b5050600591909155600680546001600160a01b0319166001600160a01b03909216919091179055565b60004382106131765760405162461bcd60e51b815260206004820181905260248201527f436865636b706f696e74733a20626c6f636b206e6f7420796574206d696e6564604482015260640161274d565b825460005b818110156131db57600061318f8284613d3e565b9050848660000182815481106131a7576131a76152af565b60009182526020909120015463ffffffff1611156131c7578092506131d5565b6131d28160016154bb565b91505b5061317b565b811561321f57846131ed6001846154ce565b815481106131fd576131fd6152af565b60009182526020909120015464010000000090046001600160e01b0316613222565b60005b6001600160e01b031695945050505050565b600c5460009060c08301350361324f57506080810135613300565b600b546001600160a01b0316156117fc57600d546132fd9060808401359061327890600a615b99565b600b54600c54604051635268657960e11b815260c08801356004820152602481019190915260a087013560448201526001600160a01b039091169063a4d0caf290606401602060405180830381865afa1580156132d9573d6000803e3d6000fd5b505050506040513d601f19601f82011682018060405250810190611af6919061548c565b90505b6000600e816133176101a0860161018087016145cd565b6001600160a01b031681526020810191909152604001600090812054915082906133496101a0860161018087016145cd565b6001600160a01b031661335f60208701876145cd565b6001600160a01b0316036133765790820190613379565b50815b6000604461338b6101e0880188615309565b90501180156133cf575063b3bcbb7960e01b6133ab6101e0880188615309565b6133ba9160449160409161534f565b6133c391615379565b6001600160e01b031916145b156134a65760606133e46101e0880188615309565b8101906133f19190615ba5565b909550935084925050811590506134745750600954604051634228826f60e11b81523060048201526001600160a01b039091169063845104de90602401608060405180830381865afa15801561344b573d6000803e3d6000fd5b505050506040513d601f19601f8201168201806040525081019061346f9190615c77565b606001515b1561347e57600091505b8051156134a4576134a1848261349c6101a08b016101808c016145cd565b613d59565b93505b505b821561350257806134ca57604051631b57826960e21b815260040160405180910390fd5b828201600e60006134e36101a08a016101808b016145cd565b6001600160a01b03168152602081019190915260400160002055610fc7565b818414610fc75781600e60006135206101a08a016101808b016145cd565b6001600160a01b03168152602081019190915260400160002055505050505050565b60006001600160e01b031982166380ac58cd60e01b148061357357506001600160e01b03198216635b5e139f60e01b145b80610a3b57506301ffc9a760e01b6001600160e01b0319831614610a3b565b6001600160a01b03831615610b815760095460405163b67cb04760e01b8152306004820152602481018390526000916001600160a01b03169063b67cb0479060440161016060405180830381865afa1580156135f2573d6000803e3d6000fd5b505050506040513d601f19601f820116820180604052508101906136169190615680565b9050806101400151156136db57600a546005546040516321d1336160e11b815260048101919091526000916001600160a01b0316906343a266c29060240161012060405180830381865afa158015613672573d6000803e3d6000fd5b505050506040513d601f19601f82011682018060405250810190613696919061540c565b90506001600160a01b038416158015906136bb575061010081015160f41c6001908116145b156136d9576040516318cdaf9760e01b815260040160405180910390fd5b505b6009546040516308ed6c0160e41b8152306004820152602481018490526000916001600160a01b031690638ed6c01090604401602060405180830381865afa15801561372b573d6000803e3d6000fd5b505050506040513d601f19601f8201168201806040525081019061374f919061554a565b6001600160a01b031603610cb457600954604051638cec7d3960e01b8152600481018490526001600160a01b03868116602483015290911690638cec7d3990604401600060405180830381600087803b1580156137ab57600080fd5b505af115801561293a573d6000803e3d6000fd5b60095460405163b67cb04760e01b8152306004820152602481018390526000916001600160a01b03169063b67cb0479060440161016060405180830381865afa158015613810573d6000803e3d6000fd5b505050506040513d601f19601f820116820180604052508101906138349190615680565b60095481516040516330b157e560e21b815260048101919091526001600160a01b038781166024830152868116604483015292935091169063c2c55f9490606401600060405180830381600087803b15801561388f57600080fd5b505af11580156138a3573d6000803e3d6000fd5b505050506138b384848484613e9b565b610cb4565b6009546040516305c9a1d560e31b81523060048201526001600160a01b038481166024830152604482018490526000921690632e4d0ea890606401602060405180830381865afa158015613910573d6000803e3d6000fd5b505050506040513d601f19601f82011682018060405250810190611f23919061548c565b826001600160a01b0316846001600160a01b03161480613952575080155b610cb4576001600160a01b038416156139ed576001600160a01b03841660009081526010602090815260408083208584529091528120819061399790613f4285613f4e565b60408051838152602081018390523381830152905192945090925085916001600160a01b038916917fed0c1e94c302bdbbd8bbd6a4fb7c3ed335c2292407cd816eadd075d019d0ce04919081900360600190a350505b6001600160a01b03831615610cb4576001600160a01b038316600090815260106020908152604080832085845290915281208190613a2e90613f7c85613f4e565b60408051838152602081018390523381830152905192945090925085916001600160a01b038816917fed0c1e94c302bdbbd8bbd6a4fb7c3ed335c2292407cd816eadd075d019d0ce04919081900360600190a3505050505050565b60006001600160a01b0384163b15613b8057604051630a85bd0160e11b81526001600160a01b0385169063150b7a0290613acd903390899088908890600401615cfb565b6020604051808303816000875af1925050508015613b08575060408051601f3d908101601f19168201909252613b0591810190615d38565b60015b613b66573d808015613b36576040519150601f19603f3d011682016040523d82523d6000602084013e613b3b565b606091505b508051600003613b5e576040516336f57c1b60e11b815260040160405180910390fd5b805181602001fd5b6001600160e01b031916630a85bd0160e11b14905061242a565b506001949350505050565b60608151600003613bac5760408051600080825260208201909252906116cd565b60408051602e8082526105e08201909252600091602082016105c080368337019050509050600081600081518110613be657613be66152af565b60ff90921660209283029190910190910152825160019060005b81811015613d01576000868281518110613c1c57613c1c6152af565b016020015160f81c905060005b8460ff16811015613ca6576008868281518110613c4857613c486152af565b602002602001015160ff16901b82613c6091906154bb565b9150613c6d603a83615d55565b868281518110613c7f57613c7f6152af565b60ff90921660209283029190910190910152613c9c603a83615738565b9150600101613c29565b505b8015613cf857613cb9603a82615d55565b858560ff1681518110613cce57613cce6152af565b60ff90921660209283029190910190910152600190930192613cf1603a82615738565b9050613ca8565b50600101613c00565b50613d1c613d17613d128585613f88565b61402f565b6140d1565b95945050505050565b6000613d318382615daf565b506001610b818282615daf565b6000613d4d6002848418615738565b611f23908484166154bb565b60095460405163eaa19ab360e01b81526000916060916001600160a01b039091169063eaa19ab390613d9390889088908790600401615e6e565b6000604051808303816000875af1158015613db2573d6000803e3d6000fd5b505050506040513d6000823e601f3d908101601f19168201604052613dda919081019061561f565b81519093509091506000805b82811015613e9057838181518110613e0057613e006152af565b60200260200101519150613e148683612cf4565b856001600160a01b0316878281518110613e3057613e306152af565b602002602001015161ffff16837f598baf7bf150ca2f42be9e9f8f55e81d45f5715c3ff22bf46d697fabec7f31d68b33604051613e809291909182526001600160a01b0316602082015260400190565b60405180910390a4600101613de6565b505050509392505050565b60a081015115610cb4576001600160a01b038381166000908152600f602090815260408083208551845290915290205416613f2e576001600160a01b0383166000818152600f602090815260408083208551845290915280822080546001600160a01b031916841790555182907f3134e8a2e6d97e929a7e54011ea5485d7d196dd5f0ba4d4ef95803e8e3fc257f908390a45b610cb4848483600001518460a001516141aa565b6000611f2382846154ce565b600080613f7085613f6b613f6188612e10565b868863ffffffff16565b61424c565b91509150935093915050565b6000611f2382846154bb565b606060008260ff166001600160401b03811115613fa757613fa76146ab565b604051908082528060200260200182016040528015613fd0578160200160208202803683370190505b50905060005b8360ff1681101561402757848181518110613ff357613ff36152af565b602002602001015182828151811061400d5761400d6152af565b60ff90921660209283029190910190910152600101613fd6565b509392505050565b80516060906000816001600160401b0381111561404e5761404e6146ab565b604051908082528060200260200182016040528015614077578160200160208202803683370190505b50905060005b828110156140275784816001875103038151811061409d5761409d6152af565b60200260200101518282815181106140b7576140b76152af565b60ff9092166020928302919091019091015260010161407d565b80516060906000816001600160401b038111156140f0576140f06146ab565b6040519080825280601f01601f19166020018201604052801561411a576020820181803683370190505b50905060005b82811015614027576040518060600160405280603a8152602001615ecc603a9139858281518110614153576141536152af565b602002602001015160ff168151811061416e5761416e6152af565b602001015160f81c60f81b82828151811061418b5761418b6152af565b60200101906001600160f81b031916908160001a905350600101614120565b6001600160a01b0384166141d65760008281526011602052604090206141d390613f7c83613f4e565b50505b6001600160a01b0383166142025760008281526011602052604090206141ff90613f4283613f4e565b50505b6001600160a01b038085166000908152600f60208181526040808420878552825280842054888616855292825280842087855290915290912054610cb49291821691168484613934565b815460009081908161425d86612e10565b905060008211801561429b575043866142776001856154ce565b81548110614287576142876152af565b60009182526020909120015463ffffffff16145b156142fb576142a985614377565b866142b56001856154ce565b815481106142c5576142c56152af565b9060005260206000200160000160046101000a8154816001600160e01b0302191690836001600160e01b03160217905550614369565b856000016040518060400160405280614313436143e4565b63ffffffff16815260200161432788614377565b6001600160e01b0390811690915282546001810184556000938452602093849020835194909301519091166401000000000263ffffffff909316929092179101555b9250839150505b9250929050565b60006001600160e01b038211156143e05760405162461bcd60e51b815260206004820152602760248201527f53616665436173743a2076616c756520646f65736e27742066697420696e20326044820152663234206269747360c81b606482015260840161274d565b5090565b600063ffffffff8211156143e05760405162461bcd60e51b815260206004820152602660248201527f53616665436173743a2076616c756520646f65736e27742066697420696e203360448201526532206269747360d01b606482015260840161274d565b5061275f906080810190614477565b6040518061100001604052806080906020820280368337509192915050565b5b808211156143e05760008155600101614478565b6001600160e01b03198116811461275f57600080fd5b6000602082840312156144b457600080fd5b8135611f238161448c565b60005b838110156144da5781810151838201526020016144c2565b50506000910152565b600081518084526144fb8160208601602086016144bf565b601f01601f19169290920160200192915050565b602081526000611f2360208301846144e3565b60006020828403121561453457600080fd5b5035919050565b6001600160a01b038116811461275f57600080fd5b803561455b8161453b565b919050565b6000806040838503121561457357600080fd5b823561457e8161453b565b946020939093013593505050565b6000806000606084860312156145a157600080fd5b83356145ac8161453b565b925060208401356145bc8161453b565b929592945050506040919091013590565b6000602082840312156145df57600080fd5b8135611f238161453b565b600080602083850312156145fd57600080fd5b82356001600160401b038082111561461457600080fd5b818501915085601f83011261462857600080fd5b81358181111561463757600080fd5b8660208260061b850101111561464c57600080fd5b60209290920196919550909350505050565b60006101e0828403121561467157600080fd5b50919050565b60006020828403121561468957600080fd5b81356001600160401b0381111561469f57600080fd5b61242a8482850161465e565b634e487b7160e01b600052604160045260246000fd5b604080519081016001600160401b03811182821017156146e3576146e36146ab565b60405290565b604051608081016001600160401b03811182821017156146e3576146e36146ab565b60405161014081016001600160401b03811182821017156146e3576146e36146ab565b60405161012081016001600160401b03811182821017156146e3576146e36146ab565b60405161016081016001600160401b03811182821017156146e3576146e36146ab565b604051601f8201601f191681016001600160401b038111828210171561479c5761479c6146ab565b604052919050565b60006001600160401b038211156147bd576147bd6146ab565b5060051b60200190565b6000604082840312156147d957600080fd5b6147e16146c1565b9050813581526020820135602082015292915050565b6000602080838503121561480a57600080fd5b82356001600160401b0381111561482057600080fd5b8301601f8101851361483157600080fd5b803561484461483f826147a4565b614774565b81815260069190911b8201830190838101908783111561486357600080fd5b928401925b8284101561488c5761487a88856147c7565b82528482019150604084019350614868565b979650505050505050565b60008083601f8401126148a957600080fd5b5081356001600160401b038111156148c057600080fd5b6020830191508360208260051b850101111561437057600080fd5b600080602083850312156148ee57600080fd5b82356001600160401b0381111561490457600080fd5b61491085828601614897565b90969095509350505050565b60008060006040848603121561493157600080fd5b83356001600160401b0381111561494757600080fd5b61495386828701614897565b90945092505060208401356149678161453b565b809150509250925092565b6020808252825182820181905260009190848201906040850190845b818110156149aa5783518352928401929184019160010161498e565b50909695505050505050565b600082601f8301126149c757600080fd5b813560206149d761483f836147a4565b82815260059290921b840181019181810190868411156149f657600080fd5b8286015b84811015614a1157803583529183019183016149fa565b509695505050505050565b60008060408385031215614a2f57600080fd5b82356001600160401b0380821115614a4657600080fd5b614a52868387016149b6565b93506020850135915080821115614a6857600080fd5b50614a758582860161465e565b9150509250929050565b6110008101818360005b6080811015614aa8578151835260209283019290910190600101614a89565b50505092915050565b60008060208385031215614ac457600080fd5b82356001600160401b0380821115614adb57600080fd5b818501915085601f830112614aef57600080fd5b813581811115614afe57600080fd5b86602082850101111561464c57600080fd5b801515811461275f57600080fd5b803561455b81614b10565b60008060408385031215614b3c57600080fd5b8235614b478161453b565b91506020830135614b5781614b10565b809150509250929050565b83815260006020606081840152614b7c60608401866144e3565b83810360408581019190915285518083528387019284019060005b81811015614bc557845180516001600160a01b03168452860151868401529385019391830191600101614b97565b50909998505050505050505050565b60008060408385031215614be757600080fd5b50508035926020909101359150565b60006001600160401b03821115614c0f57614c0f6146ab565b50601f01601f191660200190565b6000614c2b61483f84614bf6565b9050828152838383011115614c3f57600080fd5b828260208301376000602084830101529392505050565b60008060008060808587031215614c6c57600080fd5b8435614c778161453b565b93506020850135614c878161453b565b92506040850135915060608501356001600160401b03811115614ca957600080fd5b8501601f81018713614cba57600080fd5b614cc987823560208401614c1d565b91505092959194509250565b60006020808385031215614ce857600080fd5b82356001600160401b03811115614cfe57600080fd5b8301601f81018513614d0f57600080fd5b8035614d1d61483f826147a4565b81815260069190911b82018301908381019087831115614d3c57600080fd5b928401925b8284101561488c5760408489031215614d5a5760008081fd5b614d626146c1565b8435614d6d8161453b565b81528486013586820152825260409093019290840190614d41565b600082601f830112614d9957600080fd5b611f2383833560208501614c1d565b803569ffffffffffffffffffff8116811461455b57600080fd5b803565ffffffffffff8116811461455b57600080fd5b803564ffffffffff8116811461455b57600080fd5b803561ffff8116811461455b57600080fd5b60006080808385031215614e1257600080fd5b614e1a6146e9565b915082356001600160401b03811115614e3257600080fd5b8301601f81018513614e4357600080fd5b80356020614e5361483f836147a4565b8281526101409283028401820192828201919089851115614e7357600080fd5b948301945b84861015614f425780868b031215614e905760008081fd5b614e9861470b565b614ea187614da8565b8152614eae858801614dc2565b858201526040614ebf818901614dd8565b908201526060614ed0888201614ded565b90820152614edf878901614ded565b8882015260a0614ef0818901614550565b9082015260c0878101359082015260e0614f0b818901614b1e565b90820152610100614f1d888201614b1e565b90820152610120614f2f888201614b1e565b9082015283529485019491830191614e78565b50865250858101359085015250505060408083013590820152614f6760608301614550565b606082015292915050565b600060808284031215614f8457600080fd5b614f8c6146e9565b90508135614f9981614b10565b81526020820135614fa981614b10565b60208201526040820135614fbc81614b10565b60408201526060820135614f6781614b10565b60008060008060008060008060008060006101c08c8e031215614ff157600080fd5b8b359a5061500160208d01614550565b99506001600160401b038060408e0135111561501c57600080fd5b61502c8e60408f01358f01614d88565b99508060608e0135111561503f57600080fd5b61504f8e60608f01358f01614d88565b985061505d60808e01614550565b97508060a08e0135111561507057600080fd5b6150808e60a08f01358f01614d88565b965061508e60c08e01614550565b95508060e08e013511156150a157600080fd5b6150b18e60e08f01358f01614d88565b9450806101008e013511156150c557600080fd5b506150d78d6101008e01358e01614dff565b92506150e66101208d01614550565b91506150f68d6101408e01614f72565b90509295989b509295989b9093969950565b60008060006060848603121561511d57600080fd5b83356151288161453b565b95602085013595506040909401359392505050565b60006020828403121561514f57600080fd5b81356001600160401b0381111561516557600080fd5b82016101a08185031215611f2357600080fd5b60006020828403121561518a57600080fd5b81356001600160401b038111156151a057600080fd5b82016102008185031215611f2357600080fd5b600080604083850312156151c657600080fd5b82356151d18161453b565b91506020830135614b578161453b565b600080600080604085870312156151f757600080fd5b84356001600160401b038082111561520e57600080fd5b818701915087601f83011261522257600080fd5b81358181111561523157600080fd5b8860206101408302850101111561524757600080fd5b60209283019650945090860135908082111561526257600080fd5b5061526f87828801614897565b95989497509550505050565b600181811c9082168061528f57607f821691505b60208210810361467157634e487b7160e01b600052602260045260246000fd5b634e487b7160e01b600052603260045260246000fd5b6000604082840312156152d757600080fd5b611f2383836147c7565b805161455b81614b10565b6000602082840312156152fe57600080fd5b8151611f2381614b10565b6000808335601e1984360301811261532057600080fd5b8301803591506001600160401b0382111561533a57600080fd5b60200191503681900382131561437057600080fd5b6000808585111561535f57600080fd5b8386111561536c57600080fd5b5050820193919092039150565b6001600160e01b031981358181169160048510156153a15780818660040360031b1b83161692505b505092915050565b6000806000606084860312156153be57600080fd5b8335925060208401356153d08161448c565b915060408401356001600160401b038111156153eb57600080fd5b6153f7868287016149b6565b9150509250925092565b805161455b8161453b565b6000610120828403121561541f57600080fd5b61542761472e565b825181526020830151602082015260408301516040820152606083015160608201526080830151608082015260a083015160a082015260c083015160c082015261547360e08401615401565b60e0820152610100928301519281019290925250919050565b60006020828403121561549e57600080fd5b5051919050565b634e487b7160e01b600052601160045260246000fd5b80820180821115610a3b57610a3b6154a5565b81810381811115610a3b57610a3b6154a5565b60008235603e198336030181126154f757600080fd5b9190910192915050565b6000808335601e1984360301811261551857600080fd5b8301803591506001600160401b0382111561553257600080fd5b6020019150600581901b360382131561437057600080fd5b60006020828403121561555c57600080fd5b8151611f238161453b565b84815260606020808301829052908201849052600090859060808401835b878110156155ac5761ffff61559985614ded565b1682529282019290820190600101615585565b50809350505050821515604083015295945050505050565b600082601f8301126155d557600080fd5b815160206155e561483f836147a4565b82815260059290921b8401810191818101908684111561560457600080fd5b8286015b84811015614a115780518352918301918301615608565b6000806040838503121561563257600080fd5b82516001600160401b0381111561564857600080fd5b615654858286016155c4565b925050602083015190509250929050565b60006020828403121561567757600080fd5b611f2382614ded565b6000610160828403121561569357600080fd5b61569b614751565b825181526020830151602082015260408301516040820152606083015160608201526080830151608082015260a083015160a082015260c083015160c08201526156e760e08401615401565b60e082015261010083810151908201526101206157058185016152e1565b908201526101406157178482016152e1565b908201529392505050565b634e487b7160e01b600052601260045260246000fd5b60008261574757615747615722565b500490565b60208152816020820152818360408301376000818301604090810191909152601f909201601f19160101919050565b8183823760009101908152919050565b60006020828403121561579d57600080fd5b81516001600160401b038111156157b357600080fd5b61242a848285016155c4565b6000602082840312156157d157600080fd5b81516001600160401b038111156157e757600080fd5b8201601f810184136157f857600080fd5b805161580661483f82614bf6565b81815285602083850101111561581b57600080fd5b613d1c8260208301602086016144bf565b602080825282518282018190526000919060409081850190868401855b828110156158f8578151805169ffffffffffffffffffff1685528681015165ffffffffffff16878601528581015164ffffffffff168686015260608082015161ffff908116918701919091526080808301519091169086015260a0808201516001600160a01b03169086015260c0808201519086015260e08082015115159086015261010080820151151590860152610120908101511515908501526101409093019290850190600101615849565b5091979650505050505050565b6020808252810182905260006001600160fb1b0383111561592557600080fd5b8260051b80856040850137919091016040019392505050565b61595b8261594b83614da8565b69ffffffffffffffffffff169052565b61596760208201614dc2565b65ffffffffffff16602083015261598060408201614dd8565b64ffffffffff16604083015261599860608201614ded565b61ffff1660608301526159ad60808201614ded565b61ffff1660808301526159c260a08201614550565b6001600160a01b031660a083015260c081810135908301526159e660e08201614b1e565b151560e08301526101006159fb828201614b1e565b151590830152610120615a0f828201614b1e565b80151584830152610cb4565b6020808252810182905260008360408301825b85811015615a5457615a40828461593e565b610140928301929190910190600101615a2e565b5095945050505050565b6101608101615a6d828561593e565b6001600160a01b03929092166101409190910152919050565b60008351615a988184602088016144bf565b835190830190615aac8183602088016144bf565b01949350505050565b600181815b80851115615af0578160001904821115615ad657615ad66154a5565b80851615615ae357918102915b93841c9390800290615aba565b509250929050565b600082615b0757506001610a3b565b81615b1457506000610a3b565b8160018114615b2a5760028114615b3457615b50565b6001915050610a3b565b60ff841115615b4557615b456154a5565b50506001821b610a3b565b5060208310610133831016604e8410600b8410161715615b73575081810a610a3b565b615b7d8383615ab5565b8060001904821115615b9157615b916154a5565b029392505050565b6000611f238383615af8565b600080600080600060a08688031215615bbd57600080fd5b8535945060208087013594506040870135615bd78161448c565b93506060870135615be781614b10565b925060808701356001600160401b03811115615c0257600080fd5b8701601f81018913615c1357600080fd5b8035615c2161483f826147a4565b81815260059190911b8201830190838101908b831115615c4057600080fd5b928401925b82841015615c6557615c5684614ded565b82529284019290840190615c45565b80955050505050509295509295909350565b600060808284031215615c8957600080fd5b604051608081018181106001600160401b0382111715615cab57615cab6146ab565b6040528251615cb981614b10565b81526020830151615cc981614b10565b60208201526040830151615cdc81614b10565b60408201526060830151615cef81614b10565b60608201529392505050565b6001600160a01b0385811682528416602082015260408101839052608060608201819052600090615d2e908301846144e3565b9695505050505050565b600060208284031215615d4a57600080fd5b8151611f238161448c565b600082615d6457615d64615722565b500690565b601f821115610b8157600081815260208120601f850160051c81016020861015615d905750805b601f850160051c820191505b81811015610fc757828155600101615d9c565b81516001600160401b03811115615dc857615dc86146ab565b615ddc81615dd6845461527b565b84615d69565b602080601f831160018114615e115760008415615df95750858301515b600019600386901b1c1916600185901b178555610fc7565b600085815260208120601f198616915b82811015615e4057888601518255948401946001909101908401615e21565b5085821015615e5e5787850151600019600388901b60f8161c191681555b5050505050600190811b01905550565b6000606082018583526020606081850152818651808452608086019150828801935060005b81811015615eb357845161ffff1683529383019391830191600101615e93565b5050809350505050821515604083015294935050505056fe31323334353637383941424344454647484a4b4c4d4e505152535455565758595a6162636465666768696a6b6d6e6f707172737475767778797aa26469706673582212209a4cace7a9ec7db4ae88d1b10ae509c711755324a680dcdc397f194a4013156764736f6c63430008100033",
    "linkReferences": {}
  },
  "methodIdentifiers": {
    "TOTAL_REDEMPTION_WEIGHT()": "640abacd",
    "adjustTiers((uint80,uint48,uint40,uint16,uint16,address,bytes32,bool,bool,bool)[],uint256[])": "f5a38e63",
    "approve(address,uint256)": "095ea7b3",
    "balanceOf(address)": "70a08231",
    "codeOrigin()": "1d153ca4",
    "contractURI()": "e8a3d485",
    "creditsOf(address)": "245a45b5",
    "didPay((address,uint256,uint256,(address,uint256,uint256,uint256),(address,uint256,uint256,uint256),uint256,address,bool,string,bytes))": "da9ee8b7",
    "didRedeem((address,uint256,uint256,uint256,(address,uint256,uint256,uint256),(address,uint256,uint256,uint256),address,string,bytes))": "2b13c58f",
    "directory()": "c41c2f24",
    "firstOwnerOf(uint256)": "54c6d1f5",
    "fundingCycleStore()": "557e7155",
    "getApproved(uint256)": "081812fc",
    "getPastTierTotalVotes(uint256,uint256)": "d31cc52c",
    "getPastTierVotes(address,uint256,uint256)": "d40e7146",
    "getTierDelegate(address,uint256)": "82732b6d",
    "getTierTotalVotes(uint256)": "94c5c5ca",
    "getTierVotes(address,uint256)": "ca323efe",
    "initialize(uint256,address,string,string,address,string,address,string,((uint80,uint48,uint40,uint16,uint16,address,bytes32,bool,bool,bool)[],uint256,uint256,address),address,(bool,bool,bool,bool))": "cac486a8",
    "isApprovedForAll(address,address)": "e985e9c5",
    "mintFor((uint16[],address)[])": "36c1a93b",
    "mintFor(uint16[],address)": "6ac6d941",
    "mintReservesFor((uint256,uint256)[])": "2a596e53",
    "mintReservesFor(uint256,uint256)": "aa4fb15b",
    "name()": "06fdde03",
    "owner()": "8da5cb5b",
    "ownerOf(uint256)": "6352211e",
    "payParams((address,address,(address,uint256,uint256,uint256),uint256,uint256,address,uint256,uint256,string,bytes))": "d46cf171",
    "prices()": "d3419bf3",
    "pricingCurrency()": "64640c1e",
    "pricingDecimals()": "4ecba625",
    "projectId()": "3fafa127",
    "redeemParams((address,address,uint256,uint256,uint256,uint256,uint256,(address,uint256,uint256,uint256),bool,uint256,string,bytes))": "a51cfd18",
    "redemptionWeightOf(uint256[],(address,address,uint256,uint256,uint256,uint256,uint256,(address,uint256,uint256,uint256),bool,uint256,string,bytes))": "7ba62bf9",
    "renounceOwnership()": "715018a6",
    "safeTransferFrom(address,address,uint256)": "42842e0e",
    "safeTransferFrom(address,address,uint256,bytes)": "b88d4fde",
    "setApprovalForAll(address,bool)": "a22cb465",
    "setBaseUri(string)": "a0bcfc7f",
    "setContractUri(string)": "ccb4807b",
    "setDefaultReservedTokenBeneficiary(address)": "df487e26",
    "setTierDelegate(address,uint256)": "ab951e39",
    "setTierDelegates((address,uint256)[])": "c74b13d9",
    "setTierRedemptionWeights((uint256,uint256)[])": "2f441500",
    "setTokenUriResolver(address)": "2407497e",
    "store()": "975057e7",
    "supportsInterface(bytes4)": "01ffc9a7",
    "symbol()": "95d89b41",
    "tierRedemptionWeights()": "9df45468",
    "tokenURI(uint256)": "c87b56dd",
    "totalRedemptionWeight((address,address,uint256,uint256,uint256,uint256,uint256,(address,uint256,uint256,uint256),bool,uint256,string,bytes))": "9494bf72",
    "transferFrom(address,address,uint256)": "23b872dd",
    "transferOwnership(address)": "f2fde38b"
  },
  "id": 0
}