{
  "abi": [
    {
      "inputs": [],
      "name": "ALEADY_MINTED",
      "type": "error"
    },
    {
      "inputs": [],
      "name": "APPROVAL_TO_CURRENT_OWNER",
      "type": "error"
    },
    {
      "inputs": [],
      "name": "APPROVE_TO_CALLER",
      "type": "error"
    },
    {
      "inputs": [],
      "name": "BLOCK_NOT_YET_MINED",
      "type": "error"
    },
    {
      "inputs": [],
      "name": "CALLER_NOT_OWNER_OR_APPROVED",
      "type": "error"
    },
    {
      "inputs": [],
      "name": "DELEGATE_ADDRESS_ZERO",
      "type": "error"
    },
    {
      "inputs": [],
      "name": "GAME_ISNT_OVER_YET",
      "type": "error"
    },
    {
      "inputs": [],
      "name": "INCORRECT_OWNER",
      "type": "error"
    },
    {
      "inputs": [],
      "name": "INVALID_PAYMENT_EVENT",
      "type": "error"
    },
    {
      "inputs": [],
      "name": "INVALID_REDEMPTION_EVENT",
      "type": "error"
    },
    {
      "inputs": [],
      "name": "INVALID_REDEMPTION_METADATA",
      "type": "error"
    },
    {
      "inputs": [],
      "name": "INVALID_REDEMPTION_WEIGHTS",
      "type": "error"
    },
    {
      "inputs": [],
      "name": "INVALID_TIER_ID",
      "type": "error"
    },
    {
      "inputs": [],
      "name": "INVALID_TOKEN_ID",
      "type": "error"
    },
    {
      "inputs": [],
      "name": "MINT_TO_ZERO",
      "type": "error"
    },
    {
      "inputs": [],
      "name": "NOTHING_TO_CLAIM",
      "type": "error"
    },
    {
      "inputs": [],
      "name": "NOT_AVAILABLE",
      "type": "error"
    },
    {
      "inputs": [],
      "name": "OVERSPENDING",
      "type": "error"
    },
    {
      "inputs": [
        {
          "internalType": "uint256",
          "name": "prod1",
          "type": "uint256"
        },
        {
          "internalType": "uint256",
          "name": "denominator",
          "type": "uint256"
        }
      ],
      "name": "PRBMath__MulDivOverflow",
      "type": "error"
    },
    {
      "inputs": [],
      "name": "PRICING_RESOLVER_CHANGES_PAUSED",
      "type": "error"
    },
    {
      "inputs": [],
      "name": "RESERVED_TOKEN_MINTING_PAUSED",
      "type": "error"
    },
    {
      "inputs": [],
      "name": "TRANSFERS_PAUSED",
      "type": "error"
    },
    {
      "inputs": [],
      "name": "TRANSFER_TO_NON_IMPLEMENTER",
      "type": "error"
    },
    {
      "inputs": [],
      "name": "TRANSFER_TO_ZERO_ADDRESS",
      "type": "error"
    },
    {
      "inputs": [],
      "name": "UNAUTHORIZED",
      "type": "error"
    },
    {
      "inputs": [],
      "name": "UNEXPECTED_TOKEN_REDEEMED",
      "type": "error"
    },
    {
      "anonymous": false,
      "inputs": [
        {
          "indexed": true,
          "internalType": "uint256",
          "name": "changeAmount",
          "type": "uint256"
        },
        {
          "indexed": true,
          "internalType": "uint256",
          "name": "newTotalCredits",
          "type": "uint256"
        },
        {
          "indexed": true,
          "internalType": "address",
          "name": "account",
          "type": "address"
        },
        {
          "indexed": false,
          "internalType": "address",
          "name": "caller",
          "type": "address"
        }
      ],
      "name": "AddCredits",
      "type": "event"
    },
    {
      "anonymous": false,
      "inputs": [
        {
          "indexed": true,
          "internalType": "uint256",
          "name": "tierId",
          "type": "uint256"
        },
        {
          "components": [
            {
              "internalType": "uint80",
              "name": "contributionFloor",
              "type": "uint80"
            },
            {
              "internalType": "uint48",
              "name": "lockedUntil",
              "type": "uint48"
            },
            {
              "internalType": "uint40",
              "name": "initialQuantity",
              "type": "uint40"
            },
            {
              "internalType": "uint16",
              "name": "votingUnits",
              "type": "uint16"
            },
            {
              "internalType": "uint16",
              "name": "reservedRate",
              "type": "uint16"
            },
            {
              "internalType": "address",
              "name": "reservedTokenBeneficiary",
              "type": "address"
            },
            {
              "internalType": "uint8",
              "name": "royaltyRate",
              "type": "uint8"
            },
            {
              "internalType": "address",
              "name": "royaltyBeneficiary",
              "type": "address"
            },
            {
              "internalType": "bytes32",
              "name": "encodedIPFSUri",
              "type": "bytes32"
            },
            {
              "internalType": "uint8",
              "name": "category",
              "type": "uint8"
            },
            {
              "internalType": "bool",
              "name": "allowManualMint",
              "type": "bool"
            },
            {
              "internalType": "bool",
              "name": "shouldUseReservedTokenBeneficiaryAsDefault",
              "type": "bool"
            },
            {
              "internalType": "bool",
              "name": "shouldUseRoyaltyBeneficiaryAsDefault",
              "type": "bool"
            },
            {
              "internalType": "bool",
              "name": "transfersPausable",
              "type": "bool"
            }
          ],
          "indexed": false,
          "internalType": "struct JB721TierParams",
          "name": "data",
          "type": "tuple"
        },
        {
          "indexed": false,
          "internalType": "address",
          "name": "caller",
          "type": "address"
        }
      ],
      "name": "AddTier",
      "type": "event"
    },
    {
      "anonymous": false,
      "inputs": [
        {
          "indexed": true,
          "internalType": "address",
          "name": "owner",
          "type": "address"
        },
        {
          "indexed": true,
          "internalType": "address",
          "name": "approved",
          "type": "address"
        },
        {
          "indexed": true,
          "internalType": "uint256",
          "name": "tokenId",
          "type": "uint256"
        }
      ],
      "name": "Approval",
      "type": "event"
    },
    {
      "anonymous": false,
      "inputs": [
        {
          "indexed": true,
          "internalType": "address",
          "name": "owner",
          "type": "address"
        },
        {
          "indexed": true,
          "internalType": "address",
          "name": "operator",
          "type": "address"
        },
        {
          "indexed": false,
          "internalType": "bool",
          "name": "approved",
          "type": "bool"
        }
      ],
      "name": "ApprovalForAll",
      "type": "event"
    },
    {
      "anonymous": false,
      "inputs": [
        {
          "indexed": true,
          "internalType": "address",
          "name": "delegator",
          "type": "address"
        },
        {
          "indexed": true,
          "internalType": "address",
          "name": "fromDelegate",
          "type": "address"
        },
        {
          "indexed": true,
          "internalType": "address",
          "name": "toDelegate",
          "type": "address"
        }
      ],
      "name": "DelegateChanged",
      "type": "event"
    },
    {
      "anonymous": false,
      "inputs": [
        {
          "indexed": true,
          "internalType": "uint256",
          "name": "tokenId",
          "type": "uint256"
        },
        {
          "indexed": true,
          "internalType": "uint256",
          "name": "tierId",
          "type": "uint256"
        },
        {
          "indexed": true,
          "internalType": "address",
          "name": "beneficiary",
          "type": "address"
        },
        {
          "indexed": false,
          "internalType": "uint256",
          "name": "totalAmountContributed",
          "type": "uint256"
        },
        {
          "indexed": false,
          "internalType": "address",
          "name": "caller",
          "type": "address"
        }
      ],
      "name": "Mint",
      "type": "event"
    },
    {
      "anonymous": false,
      "inputs": [
        {
          "indexed": true,
          "internalType": "uint256",
          "name": "tokenId",
          "type": "uint256"
        },
        {
          "indexed": true,
          "internalType": "uint256",
          "name": "tierId",
          "type": "uint256"
        },
        {
          "indexed": true,
          "internalType": "address",
          "name": "beneficiary",
          "type": "address"
        },
        {
          "indexed": false,
          "internalType": "address",
          "name": "caller",
          "type": "address"
        }
      ],
      "name": "MintReservedToken",
      "type": "event"
    },
    {
      "anonymous": false,
      "inputs": [
        {
          "indexed": true,
          "internalType": "address",
          "name": "previousOwner",
          "type": "address"
        },
        {
          "indexed": true,
          "internalType": "address",
          "name": "newOwner",
          "type": "address"
        }
      ],
      "name": "OwnershipTransferred",
      "type": "event"
    },
    {
      "anonymous": false,
      "inputs": [
        {
          "indexed": true,
          "internalType": "uint256",
          "name": "tierId",
          "type": "uint256"
        },
        {
          "indexed": false,
          "internalType": "address",
          "name": "caller",
          "type": "address"
        }
      ],
      "name": "RemoveTier",
      "type": "event"
    },
    {
      "anonymous": false,
      "inputs": [
        {
          "indexed": true,
          "internalType": "string",
          "name": "baseUri",
          "type": "string"
        },
        {
          "indexed": false,
          "internalType": "address",
          "name": "caller",
          "type": "address"
        }
      ],
      "name": "SetBaseUri",
      "type": "event"
    },
    {
      "anonymous": false,
      "inputs": [
        {
          "indexed": true,
          "internalType": "string",
          "name": "contractUri",
          "type": "string"
        },
        {
          "indexed": false,
          "internalType": "address",
          "name": "caller",
          "type": "address"
        }
      ],
      "name": "SetContractUri",
      "type": "event"
    },
    {
      "anonymous": false,
      "inputs": [
        {
          "indexed": true,
          "internalType": "address",
          "name": "beneficiary",
          "type": "address"
        },
        {
          "indexed": false,
          "internalType": "address",
          "name": "caller",
          "type": "address"
        }
      ],
      "name": "SetDefaultReservedTokenBeneficiary",
      "type": "event"
    },
    {
      "anonymous": false,
      "inputs": [
        {
          "indexed": true,
          "internalType": "uint256",
          "name": "tierId",
          "type": "uint256"
        },
        {
          "indexed": false,
          "internalType": "bytes32",
          "name": "encodedIPFSUri",
          "type": "bytes32"
        },
        {
          "indexed": false,
          "internalType": "address",
          "name": "caller",
          "type": "address"
        }
      ],
      "name": "SetEncodedIPFSUri",
      "type": "event"
    },
    {
      "anonymous": false,
      "inputs": [
        {
          "indexed": true,
          "internalType": "contract IJBTokenUriResolver",
          "name": "newResolver",
          "type": "address"
        },
        {
          "indexed": false,
          "internalType": "address",
          "name": "caller",
          "type": "address"
        }
      ],
      "name": "SetTokenUriResolver",
      "type": "event"
    },
    {
      "anonymous": false,
      "inputs": [
        {
          "indexed": true,
          "internalType": "address",
          "name": "delegator",
          "type": "address"
        },
        {
          "indexed": true,
          "internalType": "address",
          "name": "fromDelegate",
          "type": "address"
        },
        {
          "indexed": true,
          "internalType": "address",
          "name": "toDelegate",
          "type": "address"
        },
        {
          "indexed": false,
          "internalType": "uint256",
          "name": "tierId",
          "type": "uint256"
        },
        {
          "indexed": false,
          "internalType": "address",
          "name": "caller",
          "type": "address"
        }
      ],
      "name": "TierDelegateChanged",
      "type": "event"
    },
    {
      "anonymous": false,
      "inputs": [
        {
          "indexed": true,
          "internalType": "address",
          "name": "delegate",
          "type": "address"
        },
        {
          "indexed": true,
          "internalType": "uint256",
          "name": "tierId",
          "type": "uint256"
        },
        {
          "indexed": false,
          "internalType": "uint256",
          "name": "previousBalance",
          "type": "uint256"
        },
        {
          "indexed": false,
          "internalType": "uint256",
          "name": "newBalance",
          "type": "uint256"
        },
        {
          "indexed": false,
          "internalType": "address",
          "name": "caller",
          "type": "address"
        }
      ],
      "name": "TierDelegateVotesChanged",
      "type": "event"
    },
    {
      "anonymous": false,
      "inputs": [
        {
          "indexed": true,
          "internalType": "address",
          "name": "from",
          "type": "address"
        },
        {
          "indexed": true,
          "internalType": "address",
          "name": "to",
          "type": "address"
        },
        {
          "indexed": true,
          "internalType": "uint256",
          "name": "tokenId",
          "type": "uint256"
        }
      ],
      "name": "Transfer",
      "type": "event"
    },
    {
      "anonymous": false,
      "inputs": [
        {
          "indexed": true,
          "internalType": "uint256",
          "name": "changeAmount",
          "type": "uint256"
        },
        {
          "indexed": true,
          "internalType": "uint256",
          "name": "newTotalCredits",
          "type": "uint256"
        },
        {
          "indexed": true,
          "internalType": "address",
          "name": "account",
          "type": "address"
        },
        {
          "indexed": false,
          "internalType": "address",
          "name": "caller",
          "type": "address"
        }
      ],
      "name": "UseCredits",
      "type": "event"
    },
    {
      "inputs": [],
      "name": "TOTAL_REDEMPTION_WEIGHT",
      "outputs": [
        {
          "internalType": "uint256",
          "name": "",
          "type": "uint256"
        }
      ],
      "stateMutability": "view",
      "type": "function"
    },
    {
      "inputs": [
        {
          "components": [
            {
              "internalType": "uint80",
              "name": "contributionFloor",
              "type": "uint80"
            },
            {
              "internalType": "uint48",
              "name": "lockedUntil",
              "type": "uint48"
            },
            {
              "internalType": "uint40",
              "name": "initialQuantity",
              "type": "uint40"
            },
            {
              "internalType": "uint16",
              "name": "votingUnits",
              "type": "uint16"
            },
            {
              "internalType": "uint16",
              "name": "reservedRate",
              "type": "uint16"
            },
            {
              "internalType": "address",
              "name": "reservedTokenBeneficiary",
              "type": "address"
            },
            {
              "internalType": "uint8",
              "name": "royaltyRate",
              "type": "uint8"
            },
            {
              "internalType": "address",
              "name": "royaltyBeneficiary",
              "type": "address"
            },
            {
              "internalType": "bytes32",
              "name": "encodedIPFSUri",
              "type": "bytes32"
            },
            {
              "internalType": "uint8",
              "name": "category",
              "type": "uint8"
            },
            {
              "internalType": "bool",
              "name": "allowManualMint",
              "type": "bool"
            },
            {
              "internalType": "bool",
              "name": "shouldUseReservedTokenBeneficiaryAsDefault",
              "type": "bool"
            },
            {
              "internalType": "bool",
              "name": "shouldUseRoyaltyBeneficiaryAsDefault",
              "type": "bool"
            },
            {
              "internalType": "bool",
              "name": "transfersPausable",
              "type": "bool"
            }
          ],
          "internalType": "struct JB721TierParams[]",
          "name": "_tiersToAdd",
          "type": "tuple[]"
        },
        {
          "internalType": "uint256[]",
          "name": "_tierIdsToRemove",
          "type": "uint256[]"
        }
      ],
      "name": "adjustTiers",
      "outputs": [],
      "stateMutability": "nonpayable",
      "type": "function"
    },
    {
      "inputs": [
        {
          "internalType": "address",
          "name": "to",
          "type": "address"
        },
        {
          "internalType": "uint256",
          "name": "tokenId",
          "type": "uint256"
        }
      ],
      "name": "approve",
      "outputs": [],
      "stateMutability": "nonpayable",
      "type": "function"
    },
    {
      "inputs": [
        {
          "internalType": "address",
          "name": "_owner",
          "type": "address"
        }
      ],
      "name": "balanceOf",
      "outputs": [
        {
          "internalType": "uint256",
          "name": "balance",
          "type": "uint256"
        }
      ],
      "stateMutability": "view",
      "type": "function"
    },
    {
      "inputs": [],
      "name": "codeOrigin",
      "outputs": [
        {
          "internalType": "address",
          "name": "",
          "type": "address"
        }
      ],
      "stateMutability": "view",
      "type": "function"
    },
    {
      "inputs": [],
      "name": "contractURI",
      "outputs": [
        {
          "internalType": "string",
          "name": "",
          "type": "string"
        }
      ],
      "stateMutability": "view",
      "type": "function"
    },
    {
      "inputs": [
        {
          "internalType": "address",
          "name": "",
          "type": "address"
        }
      ],
      "name": "creditsOf",
      "outputs": [
        {
          "internalType": "uint256",
          "name": "",
          "type": "uint256"
        }
      ],
      "stateMutability": "view",
      "type": "function"
    },
    {
      "inputs": [
        {
          "components": [
            {
              "internalType": "address",
              "name": "payer",
              "type": "address"
            },
            {
              "internalType": "uint256",
              "name": "projectId",
              "type": "uint256"
            },
            {
              "internalType": "uint256",
              "name": "currentFundingCycleConfiguration",
              "type": "uint256"
            },
            {
              "components": [
                {
                  "internalType": "address",
                  "name": "token",
                  "type": "address"
                },
                {
                  "internalType": "uint256",
                  "name": "value",
                  "type": "uint256"
                },
                {
                  "internalType": "uint256",
                  "name": "decimals",
                  "type": "uint256"
                },
                {
                  "internalType": "uint256",
                  "name": "currency",
                  "type": "uint256"
                }
              ],
              "internalType": "struct JBTokenAmount",
              "name": "amount",
              "type": "tuple"
            },
            {
              "components": [
                {
                  "internalType": "address",
                  "name": "token",
                  "type": "address"
                },
                {
                  "internalType": "uint256",
                  "name": "value",
                  "type": "uint256"
                },
                {
                  "internalType": "uint256",
                  "name": "decimals",
                  "type": "uint256"
                },
                {
                  "internalType": "uint256",
                  "name": "currency",
                  "type": "uint256"
                }
              ],
              "internalType": "struct JBTokenAmount",
              "name": "forwardedAmount",
              "type": "tuple"
            },
            {
              "internalType": "uint256",
              "name": "projectTokenCount",
              "type": "uint256"
            },
            {
              "internalType": "address",
              "name": "beneficiary",
              "type": "address"
            },
            {
              "internalType": "bool",
              "name": "preferClaimedTokens",
              "type": "bool"
            },
            {
              "internalType": "string",
              "name": "memo",
              "type": "string"
            },
            {
              "internalType": "bytes",
              "name": "metadata",
              "type": "bytes"
            }
          ],
          "internalType": "struct JBDidPayData",
          "name": "_data",
          "type": "tuple"
        }
      ],
      "name": "didPay",
      "outputs": [],
      "stateMutability": "payable",
      "type": "function"
    },
    {
      "inputs": [
        {
          "components": [
            {
              "internalType": "address",
              "name": "holder",
              "type": "address"
            },
            {
              "internalType": "uint256",
              "name": "projectId",
              "type": "uint256"
            },
            {
              "internalType": "uint256",
              "name": "currentFundingCycleConfiguration",
              "type": "uint256"
            },
            {
              "internalType": "uint256",
              "name": "projectTokenCount",
              "type": "uint256"
            },
            {
              "components": [
                {
                  "internalType": "address",
                  "name": "token",
                  "type": "address"
                },
                {
                  "internalType": "uint256",
                  "name": "value",
                  "type": "uint256"
                },
                {
                  "internalType": "uint256",
                  "name": "decimals",
                  "type": "uint256"
                },
                {
                  "internalType": "uint256",
                  "name": "currency",
                  "type": "uint256"
                }
              ],
              "internalType": "struct JBTokenAmount",
              "name": "reclaimedAmount",
              "type": "tuple"
            },
            {
              "components": [
                {
                  "internalType": "address",
                  "name": "token",
                  "type": "address"
                },
                {
                  "internalType": "uint256",
                  "name": "value",
                  "type": "uint256"
                },
                {
                  "internalType": "uint256",
                  "name": "decimals",
                  "type": "uint256"
                },
                {
                  "internalType": "uint256",
                  "name": "currency",
                  "type": "uint256"
                }
              ],
              "internalType": "struct JBTokenAmount",
              "name": "forwardedAmount",
              "type": "tuple"
            },
            {
              "internalType": "address payable",
              "name": "beneficiary",
              "type": "address"
            },
            {
              "internalType": "string",
              "name": "memo",
              "type": "string"
            },
            {
              "internalType": "bytes",
              "name": "metadata",
              "type": "bytes"
            }
          ],
          "internalType": "struct JBDidRedeemData",
          "name": "_data",
          "type": "tuple"
        }
      ],
      "name": "didRedeem",
      "outputs": [],
      "stateMutability": "payable",
      "type": "function"
    },
    {
      "inputs": [],
      "name": "directory",
      "outputs": [
        {
          "internalType": "contract IJBDirectory",
          "name": "",
          "type": "address"
        }
      ],
      "stateMutability": "view",
      "type": "function"
    },
    {
      "inputs": [
        {
          "internalType": "uint256",
          "name": "_tokenId",
          "type": "uint256"
        }
      ],
      "name": "firstOwnerOf",
      "outputs": [
        {
          "internalType": "address",
          "name": "",
          "type": "address"
        }
      ],
      "stateMutability": "view",
      "type": "function"
    },
    {
      "inputs": [],
      "name": "fundingCycleStore",
      "outputs": [
        {
          "internalType": "contract IJBFundingCycleStore",
          "name": "",
          "type": "address"
        }
      ],
      "stateMutability": "view",
      "type": "function"
    },
    {
      "inputs": [
        {
          "internalType": "uint256",
          "name": "tokenId",
          "type": "uint256"
        }
      ],
      "name": "getApproved",
      "outputs": [
        {
          "internalType": "address",
          "name": "",
          "type": "address"
        }
      ],
      "stateMutability": "view",
      "type": "function"
    },
    {
      "inputs": [
        {
          "internalType": "uint256",
          "name": "_tier",
          "type": "uint256"
        },
        {
          "internalType": "uint256",
          "name": "_blockNumber",
          "type": "uint256"
        }
      ],
      "name": "getPastTierTotalVotes",
      "outputs": [
        {
          "internalType": "uint256",
          "name": "",
          "type": "uint256"
        }
      ],
      "stateMutability": "view",
      "type": "function"
    },
    {
      "inputs": [
        {
          "internalType": "address",
          "name": "_account",
          "type": "address"
        },
        {
          "internalType": "uint256",
          "name": "_tier",
          "type": "uint256"
        },
        {
          "internalType": "uint256",
          "name": "_blockNumber",
          "type": "uint256"
        }
      ],
      "name": "getPastTierVotes",
      "outputs": [
        {
          "internalType": "uint256",
          "name": "",
          "type": "uint256"
        }
      ],
      "stateMutability": "view",
      "type": "function"
    },
    {
      "inputs": [
        {
          "internalType": "address",
          "name": "_account",
          "type": "address"
        },
        {
          "internalType": "uint256",
          "name": "_tier",
          "type": "uint256"
        }
      ],
      "name": "getTierDelegate",
      "outputs": [
        {
          "internalType": "address",
          "name": "",
          "type": "address"
        }
      ],
      "stateMutability": "view",
      "type": "function"
    },
    {
      "inputs": [
        {
          "internalType": "uint256",
          "name": "_tier",
          "type": "uint256"
        }
      ],
      "name": "getTierTotalVotes",
      "outputs": [
        {
          "internalType": "uint256",
          "name": "",
          "type": "uint256"
        }
      ],
      "stateMutability": "view",
      "type": "function"
    },
    {
      "inputs": [
        {
          "internalType": "address",
          "name": "_account",
          "type": "address"
        },
        {
          "internalType": "uint256",
          "name": "_tier",
          "type": "uint256"
        }
      ],
      "name": "getTierVotes",
      "outputs": [
        {
          "internalType": "uint256",
          "name": "",
          "type": "uint256"
        }
      ],
      "stateMutability": "view",
      "type": "function"
    },
    {
      "inputs": [
        {
          "internalType": "uint256",
          "name": "_projectId",
          "type": "uint256"
        },
        {
          "internalType": "contract IJBDirectory",
          "name": "_directory",
          "type": "address"
        },
        {
          "internalType": "string",
          "name": "_name",
          "type": "string"
        },
        {
          "internalType": "string",
          "name": "_symbol",
          "type": "string"
        },
        {
          "internalType": "contract IJBFundingCycleStore",
          "name": "_fundingCycleStore",
          "type": "address"
        },
        {
          "internalType": "string",
          "name": "_baseUri",
          "type": "string"
        },
        {
          "internalType": "contract IJBTokenUriResolver",
          "name": "_tokenUriResolver",
          "type": "address"
        },
        {
          "internalType": "string",
          "name": "_contractUri",
          "type": "string"
        },
        {
          "components": [
            {
              "components": [
                {
                  "internalType": "uint80",
                  "name": "contributionFloor",
                  "type": "uint80"
                },
                {
                  "internalType": "uint48",
                  "name": "lockedUntil",
                  "type": "uint48"
                },
                {
                  "internalType": "uint40",
                  "name": "initialQuantity",
                  "type": "uint40"
                },
                {
                  "internalType": "uint16",
                  "name": "votingUnits",
                  "type": "uint16"
                },
                {
                  "internalType": "uint16",
                  "name": "reservedRate",
                  "type": "uint16"
                },
                {
                  "internalType": "address",
                  "name": "reservedTokenBeneficiary",
                  "type": "address"
                },
                {
                  "internalType": "uint8",
                  "name": "royaltyRate",
                  "type": "uint8"
                },
                {
                  "internalType": "address",
                  "name": "royaltyBeneficiary",
                  "type": "address"
                },
                {
                  "internalType": "bytes32",
                  "name": "encodedIPFSUri",
                  "type": "bytes32"
                },
                {
                  "internalType": "uint8",
                  "name": "category",
                  "type": "uint8"
                },
                {
                  "internalType": "bool",
                  "name": "allowManualMint",
                  "type": "bool"
                },
                {
                  "internalType": "bool",
                  "name": "shouldUseReservedTokenBeneficiaryAsDefault",
                  "type": "bool"
                },
                {
                  "internalType": "bool",
                  "name": "shouldUseRoyaltyBeneficiaryAsDefault",
                  "type": "bool"
                },
                {
                  "internalType": "bool",
                  "name": "transfersPausable",
                  "type": "bool"
                }
              ],
              "internalType": "struct JB721TierParams[]",
              "name": "tiers",
              "type": "tuple[]"
            },
            {
              "internalType": "uint256",
              "name": "currency",
              "type": "uint256"
            },
            {
              "internalType": "uint256",
              "name": "decimals",
              "type": "uint256"
            },
            {
              "internalType": "contract IJBPrices",
              "name": "prices",
              "type": "address"
            }
          ],
          "internalType": "struct JB721PricingParams",
          "name": "_pricing",
          "type": "tuple"
        },
        {
          "internalType": "contract IJBTiered721DelegateStore",
          "name": "_store",
          "type": "address"
        },
        {
          "components": [
            {
              "internalType": "bool",
              "name": "lockReservedTokenChanges",
              "type": "bool"
            },
            {
              "internalType": "bool",
              "name": "lockVotingUnitChanges",
              "type": "bool"
            },
            {
              "internalType": "bool",
              "name": "lockManualMintingChanges",
              "type": "bool"
            },
            {
              "internalType": "bool",
              "name": "preventOverspending",
              "type": "bool"
            }
          ],
          "internalType": "struct JBTiered721Flags",
          "name": "_flags",
          "type": "tuple"
        }
      ],
      "name": "initialize",
      "outputs": [],
      "stateMutability": "nonpayable",
      "type": "function"
    },
    {
      "inputs": [
        {
          "internalType": "uint256",
          "name": "_projectId",
          "type": "uint256"
        },
        {
          "internalType": "contract IJBDirectory",
          "name": "_directory",
          "type": "address"
        },
        {
          "internalType": "string",
          "name": "_name",
          "type": "string"
        },
        {
          "internalType": "string",
          "name": "_symbol",
          "type": "string"
        },
        {
          "internalType": "contract IJBFundingCycleStore",
          "name": "_fundingCycleStore",
          "type": "address"
        },
        {
          "internalType": "string",
          "name": "_baseUri",
          "type": "string"
        },
        {
          "internalType": "contract IJBTokenUriResolver",
          "name": "_tokenUriResolver",
          "type": "address"
        },
        {
          "internalType": "string",
          "name": "_contractUri",
          "type": "string"
        },
        {
          "components": [
            {
              "components": [
                {
                  "internalType": "uint80",
                  "name": "contributionFloor",
                  "type": "uint80"
                },
                {
                  "internalType": "uint48",
                  "name": "lockedUntil",
                  "type": "uint48"
                },
                {
                  "internalType": "uint40",
                  "name": "initialQuantity",
                  "type": "uint40"
                },
                {
                  "internalType": "uint16",
                  "name": "votingUnits",
                  "type": "uint16"
                },
                {
                  "internalType": "uint16",
                  "name": "reservedRate",
                  "type": "uint16"
                },
                {
                  "internalType": "address",
                  "name": "reservedTokenBeneficiary",
                  "type": "address"
                },
                {
                  "internalType": "uint8",
                  "name": "royaltyRate",
                  "type": "uint8"
                },
                {
                  "internalType": "address",
                  "name": "royaltyBeneficiary",
                  "type": "address"
                },
                {
                  "internalType": "bytes32",
                  "name": "encodedIPFSUri",
                  "type": "bytes32"
                },
                {
                  "internalType": "uint8",
                  "name": "category",
                  "type": "uint8"
                },
                {
                  "internalType": "bool",
                  "name": "allowManualMint",
                  "type": "bool"
                },
                {
                  "internalType": "bool",
                  "name": "shouldUseReservedTokenBeneficiaryAsDefault",
                  "type": "bool"
                },
                {
                  "internalType": "bool",
                  "name": "shouldUseRoyaltyBeneficiaryAsDefault",
                  "type": "bool"
                },
                {
                  "internalType": "bool",
                  "name": "transfersPausable",
                  "type": "bool"
                }
              ],
              "internalType": "struct JB721TierParams[]",
              "name": "tiers",
              "type": "tuple[]"
            },
            {
              "internalType": "uint256",
              "name": "currency",
              "type": "uint256"
            },
            {
              "internalType": "uint256",
              "name": "decimals",
              "type": "uint256"
            },
            {
              "internalType": "contract IJBPrices",
              "name": "prices",
              "type": "address"
            }
          ],
          "internalType": "struct JB721PricingParams",
          "name": "_pricing",
          "type": "tuple"
        },
        {
          "internalType": "contract IJBTiered721DelegateStore",
          "name": "_store",
          "type": "address"
        },
        {
          "components": [
            {
              "internalType": "bool",
              "name": "lockReservedTokenChanges",
              "type": "bool"
            },
            {
              "internalType": "bool",
              "name": "lockVotingUnitChanges",
              "type": "bool"
            },
            {
              "internalType": "bool",
              "name": "lockManualMintingChanges",
              "type": "bool"
            },
            {
              "internalType": "bool",
              "name": "preventOverspending",
              "type": "bool"
            }
          ],
          "internalType": "struct JBTiered721Flags",
          "name": "_flags",
          "type": "tuple"
        },
        {
          "internalType": "contract ITypeface",
          "name": "_typeface",
          "type": "address"
        }
      ],
      "name": "initialize",
      "outputs": [],
      "stateMutability": "nonpayable",
      "type": "function"
    },
    {
      "inputs": [
        {
          "internalType": "address",
          "name": "owner",
          "type": "address"
        },
        {
          "internalType": "address",
          "name": "operator",
          "type": "address"
        }
      ],
      "name": "isApprovedForAll",
      "outputs": [
        {
          "internalType": "bool",
          "name": "",
          "type": "bool"
        }
      ],
      "stateMutability": "view",
      "type": "function"
    },
    {
      "inputs": [
        {
          "components": [
            {
              "internalType": "uint16[]",
              "name": "tierIds",
              "type": "uint16[]"
            },
            {
              "internalType": "address",
              "name": "beneficiary",
              "type": "address"
            }
          ],
          "internalType": "struct JBTiered721MintForTiersData[]",
          "name": "_mintForTiersData",
          "type": "tuple[]"
        }
      ],
      "name": "mintFor",
      "outputs": [],
      "stateMutability": "nonpayable",
      "type": "function"
    },
    {
      "inputs": [
        {
          "internalType": "uint16[]",
          "name": "_tierIds",
          "type": "uint16[]"
        },
        {
          "internalType": "address",
          "name": "_beneficiary",
          "type": "address"
        }
      ],
      "name": "mintFor",
      "outputs": [
        {
          "internalType": "uint256[]",
          "name": "tokenIds",
          "type": "uint256[]"
        }
      ],
      "stateMutability": "nonpayable",
      "type": "function"
    },
    {
      "inputs": [
        {
          "components": [
            {
              "internalType": "uint256",
              "name": "tierId",
              "type": "uint256"
            },
            {
              "internalType": "uint256",
              "name": "count",
              "type": "uint256"
            }
          ],
          "internalType": "struct JBTiered721MintReservesForTiersData[]",
          "name": "_mintReservesForTiersData",
          "type": "tuple[]"
        }
      ],
      "name": "mintReservesFor",
      "outputs": [],
      "stateMutability": "nonpayable",
      "type": "function"
    },
    {
      "inputs": [
        {
          "internalType": "uint256",
          "name": "_tierId",
          "type": "uint256"
        },
        {
          "internalType": "uint256",
          "name": "_count",
          "type": "uint256"
        }
      ],
      "name": "mintReservesFor",
      "outputs": [],
      "stateMutability": "nonpayable",
      "type": "function"
    },
    {
      "inputs": [],
      "name": "name",
      "outputs": [
        {
          "internalType": "string",
          "name": "",
          "type": "string"
        }
      ],
      "stateMutability": "view",
      "type": "function"
    },
    {
      "inputs": [],
      "name": "owner",
      "outputs": [
        {
          "internalType": "address",
          "name": "",
          "type": "address"
        }
      ],
      "stateMutability": "view",
      "type": "function"
    },
    {
      "inputs": [
        {
          "internalType": "uint256",
          "name": "tokenId",
          "type": "uint256"
        }
      ],
      "name": "ownerOf",
      "outputs": [
        {
          "internalType": "address",
          "name": "",
          "type": "address"
        }
      ],
      "stateMutability": "view",
      "type": "function"
    },
    {
      "inputs": [
        {
          "components": [
            {
              "internalType": "contract IJBPaymentTerminal",
              "name": "terminal",
              "type": "address"
            },
            {
              "internalType": "address",
              "name": "payer",
              "type": "address"
            },
            {
              "components": [
                {
                  "internalType": "address",
                  "name": "token",
                  "type": "address"
                },
                {
                  "internalType": "uint256",
                  "name": "value",
                  "type": "uint256"
                },
                {
                  "internalType": "uint256",
                  "name": "decimals",
                  "type": "uint256"
                },
                {
                  "internalType": "uint256",
                  "name": "currency",
                  "type": "uint256"
                }
              ],
              "internalType": "struct JBTokenAmount",
              "name": "amount",
              "type": "tuple"
            },
            {
              "internalType": "uint256",
              "name": "projectId",
              "type": "uint256"
            },
            {
              "internalType": "uint256",
              "name": "currentFundingCycleConfiguration",
              "type": "uint256"
            },
            {
              "internalType": "address",
              "name": "beneficiary",
              "type": "address"
            },
            {
              "internalType": "uint256",
              "name": "weight",
              "type": "uint256"
            },
            {
              "internalType": "uint256",
              "name": "reservedRate",
              "type": "uint256"
            },
            {
              "internalType": "string",
              "name": "memo",
              "type": "string"
            },
            {
              "internalType": "bytes",
              "name": "metadata",
              "type": "bytes"
            }
          ],
          "internalType": "struct JBPayParamsData",
          "name": "_data",
          "type": "tuple"
        }
      ],
      "name": "payParams",
      "outputs": [
        {
          "internalType": "uint256",
          "name": "weight",
          "type": "uint256"
        },
        {
          "internalType": "string",
          "name": "memo",
          "type": "string"
        },
        {
          "components": [
            {
              "internalType": "contract IJBPayDelegate",
              "name": "delegate",
              "type": "address"
            },
            {
              "internalType": "uint256",
              "name": "amount",
              "type": "uint256"
            }
          ],
          "internalType": "struct JBPayDelegateAllocation[]",
          "name": "delegateAllocations",
          "type": "tuple[]"
        }
      ],
      "stateMutability": "view",
      "type": "function"
    },
    {
      "inputs": [],
      "name": "prices",
      "outputs": [
        {
          "internalType": "contract IJBPrices",
          "name": "",
          "type": "address"
        }
      ],
      "stateMutability": "view",
      "type": "function"
    },
    {
      "inputs": [],
      "name": "pricingCurrency",
      "outputs": [
        {
          "internalType": "uint256",
          "name": "",
          "type": "uint256"
        }
      ],
      "stateMutability": "view",
      "type": "function"
    },
    {
      "inputs": [],
      "name": "pricingDecimals",
      "outputs": [
        {
          "internalType": "uint256",
          "name": "",
          "type": "uint256"
        }
      ],
      "stateMutability": "view",
      "type": "function"
    },
    {
      "inputs": [],
      "name": "projectId",
      "outputs": [
        {
          "internalType": "uint256",
          "name": "",
          "type": "uint256"
        }
      ],
      "stateMutability": "view",
      "type": "function"
    },
    {
      "inputs": [
        {
          "components": [
            {
              "internalType": "contract IJBPaymentTerminal",
              "name": "terminal",
              "type": "address"
            },
            {
              "internalType": "address",
              "name": "holder",
              "type": "address"
            },
            {
              "internalType": "uint256",
              "name": "projectId",
              "type": "uint256"
            },
            {
              "internalType": "uint256",
              "name": "currentFundingCycleConfiguration",
              "type": "uint256"
            },
            {
              "internalType": "uint256",
              "name": "tokenCount",
              "type": "uint256"
            },
            {
              "internalType": "uint256",
              "name": "totalSupply",
              "type": "uint256"
            },
            {
              "internalType": "uint256",
              "name": "overflow",
              "type": "uint256"
            },
            {
              "components": [
                {
                  "internalType": "address",
                  "name": "token",
                  "type": "address"
                },
                {
                  "internalType": "uint256",
                  "name": "value",
                  "type": "uint256"
                },
                {
                  "internalType": "uint256",
                  "name": "decimals",
                  "type": "uint256"
                },
                {
                  "internalType": "uint256",
                  "name": "currency",
                  "type": "uint256"
                }
              ],
              "internalType": "struct JBTokenAmount",
              "name": "reclaimAmount",
              "type": "tuple"
            },
            {
              "internalType": "bool",
              "name": "useTotalOverflow",
              "type": "bool"
            },
            {
              "internalType": "uint256",
              "name": "redemptionRate",
              "type": "uint256"
            },
            {
              "internalType": "string",
              "name": "memo",
              "type": "string"
            },
            {
              "internalType": "bytes",
              "name": "metadata",
              "type": "bytes"
            }
          ],
          "internalType": "struct JBRedeemParamsData",
          "name": "_data",
          "type": "tuple"
        }
      ],
      "name": "redeemParams",
      "outputs": [
        {
          "internalType": "uint256",
          "name": "reclaimAmount",
          "type": "uint256"
        },
        {
          "internalType": "string",
          "name": "memo",
          "type": "string"
        },
        {
          "components": [
            {
              "internalType": "contract IJBRedemptionDelegate",
              "name": "delegate",
              "type": "address"
            },
            {
              "internalType": "uint256",
              "name": "amount",
              "type": "uint256"
            }
          ],
          "internalType": "struct JBRedemptionDelegateAllocation[]",
          "name": "delegateAllocations",
          "type": "tuple[]"
        }
      ],
      "stateMutability": "view",
      "type": "function"
    },
    {
      "inputs": [
        {
          "internalType": "uint256[]",
          "name": "_tokenIds",
          "type": "uint256[]"
        },
        {
          "components": [
            {
              "internalType": "contract IJBPaymentTerminal",
              "name": "terminal",
              "type": "address"
            },
            {
              "internalType": "address",
              "name": "holder",
              "type": "address"
            },
            {
              "internalType": "uint256",
              "name": "projectId",
              "type": "uint256"
            },
            {
              "internalType": "uint256",
              "name": "currentFundingCycleConfiguration",
              "type": "uint256"
            },
            {
              "internalType": "uint256",
              "name": "tokenCount",
              "type": "uint256"
            },
            {
              "internalType": "uint256",
              "name": "totalSupply",
              "type": "uint256"
            },
            {
              "internalType": "uint256",
              "name": "overflow",
              "type": "uint256"
            },
            {
              "components": [
                {
                  "internalType": "address",
                  "name": "token",
                  "type": "address"
                },
                {
                  "internalType": "uint256",
                  "name": "value",
                  "type": "uint256"
                },
                {
                  "internalType": "uint256",
                  "name": "decimals",
                  "type": "uint256"
                },
                {
                  "internalType": "uint256",
                  "name": "currency",
                  "type": "uint256"
                }
              ],
              "internalType": "struct JBTokenAmount",
              "name": "reclaimAmount",
              "type": "tuple"
            },
            {
              "internalType": "bool",
              "name": "useTotalOverflow",
              "type": "bool"
            },
            {
              "internalType": "uint256",
              "name": "redemptionRate",
              "type": "uint256"
            },
            {
              "internalType": "string",
              "name": "memo",
              "type": "string"
            },
            {
              "internalType": "bytes",
              "name": "metadata",
              "type": "bytes"
            }
          ],
          "internalType": "struct JBRedeemParamsData",
          "name": "",
          "type": "tuple"
        }
      ],
      "name": "redemptionWeightOf",
      "outputs": [
        {
          "internalType": "uint256",
          "name": "cumulativeWeight",
          "type": "uint256"
        }
      ],
      "stateMutability": "view",
      "type": "function"
    },
    {
      "inputs": [],
      "name": "renounceOwnership",
      "outputs": [],
      "stateMutability": "nonpayable",
      "type": "function"
    },
    {
      "inputs": [
        {
          "internalType": "uint256",
          "name": "_tokenId",
          "type": "uint256"
        },
        {
          "internalType": "uint256",
          "name": "_salePrice",
          "type": "uint256"
        }
      ],
      "name": "royaltyInfo",
      "outputs": [
        {
          "internalType": "address",
          "name": "",
          "type": "address"
        },
        {
          "internalType": "uint256",
          "name": "",
          "type": "uint256"
        }
      ],
      "stateMutability": "view",
      "type": "function"
    },
    {
      "inputs": [
        {
          "internalType": "address",
          "name": "from",
          "type": "address"
        },
        {
          "internalType": "address",
          "name": "to",
          "type": "address"
        },
        {
          "internalType": "uint256",
          "name": "tokenId",
          "type": "uint256"
        }
      ],
      "name": "safeTransferFrom",
      "outputs": [],
      "stateMutability": "nonpayable",
      "type": "function"
    },
    {
      "inputs": [
        {
          "internalType": "address",
          "name": "from",
          "type": "address"
        },
        {
          "internalType": "address",
          "name": "to",
          "type": "address"
        },
        {
          "internalType": "uint256",
          "name": "tokenId",
          "type": "uint256"
        },
        {
          "internalType": "bytes",
          "name": "data",
          "type": "bytes"
        }
      ],
      "name": "safeTransferFrom",
      "outputs": [],
      "stateMutability": "nonpayable",
      "type": "function"
    },
    {
      "inputs": [
        {
          "internalType": "address",
          "name": "operator",
          "type": "address"
        },
        {
          "internalType": "bool",
          "name": "approved",
          "type": "bool"
        }
      ],
      "name": "setApprovalForAll",
      "outputs": [],
      "stateMutability": "nonpayable",
      "type": "function"
    },
    {
      "inputs": [
        {
          "internalType": "string",
          "name": "_baseUri",
          "type": "string"
        }
      ],
      "name": "setBaseUri",
      "outputs": [],
      "stateMutability": "nonpayable",
      "type": "function"
    },
    {
      "inputs": [
        {
          "internalType": "string",
          "name": "_contractUri",
          "type": "string"
        }
      ],
      "name": "setContractUri",
      "outputs": [],
      "stateMutability": "nonpayable",
      "type": "function"
    },
    {
      "inputs": [
        {
          "internalType": "address",
          "name": "_beneficiary",
          "type": "address"
        }
      ],
      "name": "setDefaultReservedTokenBeneficiary",
      "outputs": [],
      "stateMutability": "nonpayable",
      "type": "function"
    },
    {
      "inputs": [
        {
          "internalType": "uint256",
          "name": "_tierId",
          "type": "uint256"
        },
        {
          "internalType": "bytes32",
          "name": "_encodedIPFSUri",
          "type": "bytes32"
        }
      ],
      "name": "setEncodedIPFSUriOf",
      "outputs": [],
      "stateMutability": "nonpayable",
      "type": "function"
    },
    {
      "inputs": [
        {
          "internalType": "address",
          "name": "_delegatee",
          "type": "address"
        },
        {
          "internalType": "uint256",
          "name": "_tierId",
          "type": "uint256"
        }
      ],
      "name": "setTierDelegate",
      "outputs": [],
      "stateMutability": "nonpayable",
      "type": "function"
    },
    {
      "inputs": [
        {
          "components": [
            {
              "internalType": "address",
              "name": "delegatee",
              "type": "address"
            },
            {
              "internalType": "uint256",
              "name": "tierId",
              "type": "uint256"
            }
          ],
          "internalType": "struct JBTiered721SetTierDelegatesData[]",
          "name": "_setTierDelegatesData",
          "type": "tuple[]"
        }
      ],
      "name": "setTierDelegates",
      "outputs": [],
      "stateMutability": "nonpayable",
      "type": "function"
    },
    {
      "inputs": [
        {
          "components": [
            {
              "internalType": "uint256",
              "name": "id",
              "type": "uint256"
            },
            {
              "internalType": "uint256",
              "name": "redemptionWeight",
              "type": "uint256"
            }
          ],
          "internalType": "struct DefifaTierRedemptionWeight[]",
          "name": "_tierWeights",
          "type": "tuple[]"
        }
      ],
      "name": "setTierRedemptionWeights",
      "outputs": [],
      "stateMutability": "nonpayable",
      "type": "function"
    },
    {
      "inputs": [
        {
          "internalType": "contract IJBTokenUriResolver",
          "name": "_tokenUriResolver",
          "type": "address"
        }
      ],
      "name": "setTokenUriResolver",
      "outputs": [],
      "stateMutability": "nonpayable",
      "type": "function"
    },
    {
      "inputs": [],
      "name": "store",
      "outputs": [
        {
          "internalType": "contract IJBTiered721DelegateStore",
          "name": "",
          "type": "address"
        }
      ],
      "stateMutability": "view",
      "type": "function"
    },
    {
      "inputs": [
        {
          "internalType": "bytes4",
          "name": "_interfaceId",
          "type": "bytes4"
        }
      ],
      "name": "supportsInterface",
      "outputs": [
        {
          "internalType": "bool",
          "name": "",
          "type": "bool"
        }
      ],
      "stateMutability": "view",
      "type": "function"
    },
    {
      "inputs": [],
      "name": "symbol",
      "outputs": [
        {
          "internalType": "string",
          "name": "",
          "type": "string"
        }
      ],
      "stateMutability": "view",
      "type": "function"
    },
    {
      "inputs": [],
      "name": "tierRedemptionWeights",
      "outputs": [
        {
          "internalType": "uint256[128]",
          "name": "",
          "type": "uint256[128]"
        }
      ],
      "stateMutability": "view",
      "type": "function"
    },
    {
      "inputs": [
        {
          "internalType": "uint256",
          "name": "_tokenId",
          "type": "uint256"
        }
      ],
      "name": "tokenURI",
      "outputs": [
        {
          "internalType": "string",
          "name": "",
          "type": "string"
        }
      ],
      "stateMutability": "view",
      "type": "function"
    },
    {
      "inputs": [
        {
          "components": [
            {
              "internalType": "contract IJBPaymentTerminal",
              "name": "terminal",
              "type": "address"
            },
            {
              "internalType": "address",
              "name": "holder",
              "type": "address"
            },
            {
              "internalType": "uint256",
              "name": "projectId",
              "type": "uint256"
            },
            {
              "internalType": "uint256",
              "name": "currentFundingCycleConfiguration",
              "type": "uint256"
            },
            {
              "internalType": "uint256",
              "name": "tokenCount",
              "type": "uint256"
            },
            {
              "internalType": "uint256",
              "name": "totalSupply",
              "type": "uint256"
            },
            {
              "internalType": "uint256",
              "name": "overflow",
              "type": "uint256"
            },
            {
              "components": [
                {
                  "internalType": "address",
                  "name": "token",
                  "type": "address"
                },
                {
                  "internalType": "uint256",
                  "name": "value",
                  "type": "uint256"
                },
                {
                  "internalType": "uint256",
                  "name": "decimals",
                  "type": "uint256"
                },
                {
                  "internalType": "uint256",
                  "name": "currency",
                  "type": "uint256"
                }
              ],
              "internalType": "struct JBTokenAmount",
              "name": "reclaimAmount",
              "type": "tuple"
            },
            {
              "internalType": "bool",
              "name": "useTotalOverflow",
              "type": "bool"
            },
            {
              "internalType": "uint256",
              "name": "redemptionRate",
              "type": "uint256"
            },
            {
              "internalType": "string",
              "name": "memo",
              "type": "string"
            },
            {
              "internalType": "bytes",
              "name": "metadata",
              "type": "bytes"
            }
          ],
          "internalType": "struct JBRedeemParamsData",
          "name": "",
          "type": "tuple"
        }
      ],
      "name": "totalRedemptionWeight",
      "outputs": [
        {
          "internalType": "uint256",
          "name": "",
          "type": "uint256"
        }
      ],
      "stateMutability": "view",
      "type": "function"
    },
    {
      "inputs": [
        {
          "internalType": "address",
          "name": "from",
          "type": "address"
        },
        {
          "internalType": "address",
          "name": "to",
          "type": "address"
        },
        {
          "internalType": "uint256",
          "name": "tokenId",
          "type": "uint256"
        }
      ],
      "name": "transferFrom",
      "outputs": [],
      "stateMutability": "nonpayable",
      "type": "function"
    },
    {
      "inputs": [
        {
          "internalType": "address",
          "name": "newOwner",
          "type": "address"
        }
      ],
      "name": "transferOwnership",
      "outputs": [],
      "stateMutability": "nonpayable",
      "type": "function"
    },
    {
      "inputs": [],
      "name": "typeface",
      "outputs": [
        {
          "internalType": "contract ITypeface",
          "name": "",
          "type": "address"
        }
      ],
      "stateMutability": "view",
      "type": "function"
    }
  ],
  "bytecode": {
    "object": "0x608080604052346100665760078054336001600160a01b03198083168217909355906001600160a01b03167f8be0079c531659141344cd1fd0a4f28419497f9722a3daafe3b4186f6b6457e0600080a330906008541617600855616eb890816200006c8239f35b600080fdfe60806040526004361015610013575b600080fd5b60003560e01c806301ffc9a71461048757806306fdde031461047e578063081812fc14610475578063095ea7b31461046c5780631d153ca41461046357806323b872dd1461045a5780632407497e14610451578063245a45b51461044857806325eb91ee1461043f5780632a55205a146104365780632a596e531461042d5780632b13c58f146104245780632f4415001461041b57806336c1a93b146104125780633fafa1271461040957806342842e0e146104005780634d5a1d11146103f75780634ecba625146103ee578063525350ba146103e557806354c6d1f5146103dc578063557e7155146103d35780636352211e146103ca578063640abacd146103c157806364640c1e146103b85780636ac6d941146103af57806370a08231146103a6578063715018a61461039d5780637ba62bf91461039457806382732b6d1461038b5780638da5cb5b146103825780639494bf721461037957806394c5c5ca1461037057806395d89b4114610367578063975057e71461035e5780639df4546814610355578063a0bcfc7f1461034c578063a22cb46514610343578063a51cfd181461033a578063aa4fb15b14610331578063ab951e3914610328578063b88d4fde1461031f578063c41c2f2414610316578063c74b13d91461030d578063c87b56dd14610304578063ca323efe146102fb578063ccb4807b146102f2578063d1704baf146102e9578063d1c32934146102e0578063d31cc52c146102d7578063d3419bf3146102ce578063d40e7146146102c5578063d46cf171146102bc578063da9ee8b7146102b3578063df487e26146102aa578063e8a3d485146102a1578063e985e9c5146102985763f2fde38b1461029057600080fd5b61000e612fe3565b5061000e612f7a565b5061000e612eb7565b5061000e612df9565b5061000e612d03565b5061000e612c47565b5061000e612b8c565b5061000e612b62565b5061000e612b33565b5061000e612a61565b5061000e61298a565b5061000e612625565b5061000e6125da565b5061000e611c78565b5061000e611bc6565b5061000e611b9c565b5061000e611b34565b5061000e611aa8565b5061000e611a88565b5061000e6119fd565b5061000e61194d565b5061000e61187d565b5061000e6117ae565b5061000e611784565b5061000e6116de565b5061000e6116b2565b5061000e611694565b5061000e61166a565b5061000e61161d565b5061000e6115be565b5061000e611501565b5061000e611460565b5061000e61140b565b5061000e6113b1565b5061000e611391565b5061000e611372565b5061000e611348565b5061000e611329565b5061000e61125e565b5061000e61123f565b5061000e611215565b5061000e6111ce565b5061000e6111af565b5061000e611103565b5061000e611070565b5061000e610bb8565b5061000e610afa565b5061000e610a40565b5061000e6109cd565b5061000e61095f565b5061000e610875565b5061000e610840565b5061000e6107ea565b5061000e610748565b5061000e6106f9565b5061000e610619565b5061000e6104a2565b6001600160e01b031981160361000e57565b503461000e57602036600319011261000e576104f16004356104c381610490565b63ffffffff60e01b166306decc2d60e21b81149081156104f5575b5060405190151581529081906020820190565b0390f35b63b3bcbb7960e01b8114915081156105a1575b8115610590575b811561057f575b811561056e575b811561052b575b50386104de565b6380ac58cd60e01b81149150811561055d575b811561054c575b5038610524565b6301ffc9a760e01b14905038610545565b635b5e139f60e01b8114915061053e565b63152a902d60e11b8114915061051d565b632b13c58f60e01b81149150610516565b63da9ee8b760e01b8114915061050f565b6371700c6960e01b81149150610508565b600091031261000e57565b60005b8381106105d05750506000910152565b81810151838201526020016105c0565b906020916105f9815180928185528580860191016105bd565b601f01601f1916010190565b9060206106169281815201906105e0565b90565b503461000e576000806003193601126106f6576040519080805461063c816150e4565b808552916001918083169081156106cc5750600114610672575b6104f18561066681870382610f96565b60405191829182610605565b80809450527f290decd9548b62a8d60345a988386fc84ba6bc95484008f6362f93160ef3e5635b8284106106b4575050508101602001610666826104f1610656565b80546020858701810191909152909301928101610699565b8695506104f19693506020925061066694915060ff191682840152151560051b8201019293610656565b80fd5b503461000e57602036600319011261000e57602061071860043561511e565b6040516001600160a01b039091168152f35b6001600160a01b0381160361000e57565b35906107468261072a565b565b503461000e57604036600319011261000e576004356107668161072a565b6024356001600160a01b038061077b836150b1565b1680918416146107d8578033141590816107b2575b506107a05761079e91615e15565b005b60405163e5fa0e3560e01b8152600490fd5b600090815260046020908152604080832033845290915290205460ff1615905038610790565b60405163133f8be960e01b8152600490fd5b503461000e57600036600319011261000e576008546040516001600160a01b039091168152602090f35b606090600319011261000e5760043561082c8161072a565b906024356108398161072a565b9060443590565b503461000e5761084f36610814565b9061085a8233615195565b156107a05761079e92615b5c565b60c435906107468261072a565b503461000e57600060203660031901126106f6576004356108958161072a565b61089d6168f0565b6009546001600160a01b03908116803b1561095b5760405163036129cb60e61b81526001600160a01b03841660048201529084908290602490829084905af1801561094e575b61091b575b506040513381529116907fe7784d93cfbfa4408e19577e6cc0436f4dbb51214b70e100905dfce9def88c1690602090a280f35b926109477fe7784d93cfbfa4408e19577e6cc0436f4dbb51214b70e100905dfce9def88c169294610f24565b92906108e8565b610956613289565b6108e3565b8380fd5b503461000e57602036600319011261000e5760043561097d8161072a565b60018060a01b0316600052600e6020526020604060002054604051908152f35b9181601f8401121561000e578235916001600160401b03831161000e576020808501948460051b01011161000e57565b503461000e57604036600319011261000e576004356001600160401b0380821161000e573660238301121561000e5781600401359181831161000e573660246101c085028301011161000e5760243591821161000e5761079e92610a37602493369060040161099d565b9390920161488d565b503461000e5760408060031936011261000e5760648160018060a01b03600954168151928380926329c5eaf560e11b8252306004830152600435602483015260243560448301525afa918215610aed575b6000918293610ab8575b50516001600160a01b039190911681526020810191909152604090f35b81610ade9294506104f193503d8511610ae6575b610ad68183610f96565b81019061438d565b929091610a9b565b503d610acc565b610af5613289565b610a91565b503461000e5760208060031936011261000e57600435906001600160401b039081831161000e573660238401121561000e57826004013591821161000e57602490600693368385871b8301011161000e5760005b848110610b5757005b600190610b79610b6d3687848b1b87010161102a565b85815191015190614ca4565b01610b4e565b90816101e091031261000e5790565b602060031982011261000e57600435906001600160401b03821161000e5761061691600401610b7f565b50610bc236610b8e565b3415801590610e6d575b8015610e5d575b610e4b576101c081016024610be88284613075565b9050108015610e13575b610e0157610c03610c0b9183613075565b8101906131d0565b8051600a54909350909150610c30906001600160a01b03165b6001600160a01b031690565b600554604080516321d1336160e11b81526004808201939093529094928291610120918290829060249082905afa918215610df4575b600092610dc7575b505051149360005b838110610ca6578686610c8887615050565b610c8e57005b610ca160a061079e9201356092546133aa565b609255565b610cb081866131ae565b51610cd5610cc8826000526002602052604060002090565b546001600160a01b031690565b610ce1610c248a613d76565b6001600160a01b0390911603610db857908187610cff6001946158f9565b610d0b575b5001610c76565b600954610d7191610d4b91610d28906001600160a01b0316610c24565b90865180926342f9914b60e01b8252818060209687958d83019190602083019252565b03915afa918215610dab575b600092610d7e575b50506000526093602052604060002090565b8054600101905538610d04565b610d9d9250803d10610da4575b610d958183610f96565b810190613628565b3880610d5f565b503d610d8b565b610db3613289565b610d57565b50505163075fd2b160e01b8152fd5b610de69250803d10610ded575b610dde8183610f96565b810190613215565b3880610c6e565b503d610dd4565b610dfc613289565b610c66565b604051632a84050f60e01b8152600490fd5b50610e27610e218284613075565b906130a7565b63b3bcbb7960e01b916001600160e01b031991610e43916130c9565b161415610bf2565b604051633efca5c360e11b8152600490fd5b5060055460208201351415610bd3565b50600654610eb790602090610e8a906001600160a01b0316610c24565b600554604051636e49181f60e01b8152600481019190915233602482015292839190829081906044820190565b03915afa908115610f00575b600091610ed2575b5015610bcc565b610ef3915060203d8111610ef9575b610eeb8183610f96565b810190613d61565b38610ecb565b503d610ee1565b610f08613289565b610ec3565b50634e487b7160e01b600052604160045260246000fd5b6001600160401b038111610f3757604052565b610f3f610f0d565b604052565b604081019081106001600160401b03821117610f3757604052565b608081019081106001600160401b03821117610f3757604052565b61100081019081106001600160401b03821117610f3757604052565b90601f801991011681019081106001600160401b03821117610f3757604052565b604051906101c082018281106001600160401b03821117610f3757604052565b6040519061074682610f44565b6040519061012082018281106001600160401b03821117610f3757604052565b6020906001600160401b03811161101d575b60051b0190565b611025610f0d565b611016565b919082604091031261000e57604051604081018181106001600160401b03821117611063575b6040526020808294803584520135910152565b61106b610f0d565b611050565b503461000e5760208060031936011261000e57600435906001600160401b03821161000e573660238301121561000e578160040135916110af83611004565b916040936110bf85519485610f96565b80845260248285019160061b8401019236841161000e57602401905b8382106110eb5761079e85613b32565b8286916110f8368561102a565b8152019101906110db565b503461000e5760208060031936011261000e576001600160401b039060043582811161000e5761113790369060040161099d565b91906111416168f0565b60005b83811061114d57005b60059080821b830135603e198436030181121561000e5783018035601e198236030181121561000e5781019283359388851161000e5786859101911b3603811361000e576001936111a2876111a89401613d76565b91614eb0565b5001611144565b503461000e57600036600319011261000e576020600554604051908152f35b503461000e5761079e6111e036610814565b9060405192602084018481106001600160401b03821117611208575b60405260008452615156565b611210610f0d565b6111fc565b503461000e57600036600319011261000e576094546040516001600160a01b039091168152602090f35b503461000e57600036600319011261000e576020600d54604051908152f35b503461000e57604036600319011261000e5760043560243561127e6168f0565b6009546001600160a01b0316803b1561000e577f677da4fed654db8e604791fa2582f342e2001aa217e27f6985eb3e0f67e5a7fc916000806112fe936044604051809481936324de8d6360e11b83528a60048401528760248401525af1801561131c575b611303575b506040805191825233602083015290918291820190565b0390a2005b8061131061131692610f24565b806105b2565b386112e7565b611324613289565b6112e2565b503461000e57602036600319011261000e5760206107186004356142e5565b503461000e57600036600319011261000e57600a546040516001600160a01b039091168152602090f35b503461000e57602036600319011261000e5760206107186004356150b1565b503461000e57600036600319011261000e576020604051633b9aca008152f35b503461000e57600036600319011261000e576020600c54604051908152f35b6020908160408183019282815285518094520193019160005b8281106113f7575050505090565b8351855293810193928101926001016113e9565b503461000e57604036600319011261000e576004356001600160401b03811161000e576114546114426104f192369060040161099d565b6024359161144f8361072a565b614eb0565b604051918291826113d0565b503461000e57602036600319011261000e576104f16004356114818161072a565b600954604051633de222bb60e21b81523060048201526001600160a01b0392831660248201529160209183916044918391165afa9081156114f4575b6000916114d6575b506040519081529081906020820190565b6114ee915060203d8111610da457610d958183610f96565b386114c5565b6114fc613289565b6114bd565b503461000e576000806003193601126106f65761151c6168f0565b600780546001600160a01b0319811690915581906001600160a01b03167f8be0079c531659141344cd1fd0a4f28419497f9722a3daafe3b4186f6b6457e08280a380f35b81601f8201121561000e5780359161157783611004565b926115856040519485610f96565b808452602092838086019260051b82010192831161000e578301905b8282106115af575050505090565b813581529083019083016115a1565b503461000e57604036600319011261000e576001600160401b0360043581811161000e576115f0903690600401611560565b9060243590811161000e5760209161160f611615923690600401610b7f565b50613693565b604051908152f35b503461000e57604036600319011261000e57602060043561163d8161072a565b60018060a01b03809116600052600f82526040600020602435600052825260406000205416604051908152f35b503461000e57600036600319011261000e576007546040516001600160a01b039091168152602090f35b503461000e576116a336610b8e565b506020604051633b9aca008152f35b503461000e57602036600319011261000e576004356000526011602052602061161560406000206169b7565b503461000e576000806003193601126106f65760405190806001805491611704836150e4565b808652928281169081156106cc575060011461172a576104f18561066681870382610f96565b92508083527fb10e2d527612073b26eecdfd717e6a320cf44b4afac2b0732d9fcbe2b7fa0cf65b82841061176c575050508101602001610666826104f1610656565b80546020858701810191909152909301928101611751565b503461000e57600036600319011261000e576009546040516001600160a01b039091168152602090f35b503461000e57600036600319011261000e576040516117cc81610f7a565b611000809136903760405160126000825b6080821061181e575050506117f181610f7a565b60405190600090825b6080831061180757505050f35b6001908251815260208091019201920191906117fa565b60016020819285548152019301910190916117dd565b90602060031983011261000e576004356001600160401b039283821161000e578060238301121561000e57816004013593841161000e576024848301011161000e576024019190565b503461000e5761188c36611834565b6118946168f0565b600954600091906001600160a01b0316803b15611934578260405180926331315e5960e11b82528183816118cc888b60048401614c67565b03925af18015611927575b611914575b506118e79192614c8f565b7f7bc9110d5de090dd59e07912d2b93a5a27ac70a60c8d8e324db4f9ee8b8b5c136020604051338152a280f35b916119216118e793610f24565b916118dc565b61192f613289565b6118d7565b8280fd5b8015150361000e57565b359061074682611938565b503461000e57604036600319011261000e5760043561196b8161072a565b60243561197781611938565b6001600160a01b038216913383146119eb573360009081526004602090815260408083206001600160a01b039094168352929052209015159060ff1981541660ff83161790556040519081527f17307eab39ab6107e8899845ad3d59bd9653f200f220920489ca2b5937696c3160203392a3005b6040516306f8139d60e11b8152600490fd5b503461000e57611a14611a0f36610b8e565b6133b7565b604092919280519384938452611a3660209160608387015260608601906105e0565b90848203838601528080855193848152019401926000905b838210611a5b5786860387f35b845180516001600160a01b0316875283015186840152879650948501949382019360019190910190611a4e565b503461000e57604036600319011261000e5761079e602435600435614ca4565b503461000e57604036600319011261000e5761079e600435611ac98161072a565b60243590336140de565b6020906001600160401b038111611af0575b601f01601f19160190565b611af8610f0d565b611ae5565b929192611b0982611ad3565b91611b176040519384610f96565b82948184528183011161000e578281602093846000960137010152565b503461000e57608036600319011261000e57600435611b528161072a565b602435611b5e8161072a565b606435916001600160401b03831161000e573660238401121561000e57611b9261079e933690602481600401359101611afd565b9160443591615156565b503461000e57600036600319011261000e576006546040516001600160a01b039091168152602090f35b503461000e5760208060031936011261000e57600435906001600160401b03821161000e573660238301121561000e57816004013591611c0583611004565b91604093611c1585519485610f96565b80845260248285019160061b8401019236841161000e57602401905b838210611c415761079e85614075565b858236031261000e578286918251611c5881610f44565b8435611c638161072a565b81528285013583820152815201910190611c31565b503461000e57602036600319011261000e57611c9261382b565b611c9a6138ac565b611ca382613161565b52611cad81613161565b506040516d1ec89b985b59488e88961656888b60921b60208201527f226465736372697074696f6e223a224465736372697074696f6e205465787422602e820152600b60fa1b604e8201527f22696d616765223a22646174613a696d6167652f7376672b786d6c3b62617365604f820152620d8d0b60ea1b606f82015260528152601f199190611d3e607282610f96565b611d478261317b565b52611d518161317b565b50611d5a6138e5565b60238151106000146125cc57611d6e61393c565b905b611d7861395a565b805160038110156125315750611d8c613a71565b611d94613e2e565b92611d9d613ebf565b9460405195869560208701611e22906059907f3c7376672077696474683d2235303022206865696768743d223530302220766981527f6577426f783d22302030203130302520313030252220786d6c6e733d2268747460208201527f703a2f2f7777772e77332e6f72672f323030302f737667223e0000000000000060408201520190565b7f3c7374796c653e40666f6e742d666163657b666f6e742d66616d696c793a224381527f617073756c65732d333030223b7372633a75726c28646174613a666f6e742f7460208201527f727565747970653b636861727365743d7574662d383b6261736536342c0000006040820152605d01611e9d91613a90565b75293b666f726d617428226f70656e7479706522293b7d60501b81526016017f40666f6e742d666163657b666f6e742d66616d696c793a2243617073756c657381527f2d373030223b7372633a75726c28646174613a666f6e742f74727565747970656020820152750ed8da185c9cd95d0f5d5d198b4e0ed8985cd94d8d0b60521b6040820152605601611f3091613a90565b75293b666f726d617428226f70656e7479706522293b7d60501b81526016017f746578747b66696c6c3a236330623366313b77686974652d73706163653a707281527f652d777261703b2077696474683a313030253b207d3c2f7374796c653e0000006020820152603d017f3c726563742077696474683d22313030767722206865696768743d22313030768152723411103334b6361e9111989c189a191a11179f60691b60208201526033017f3c7465787420783d2231302220793d22323022207374796c653d22666f6e742d81527f73697a653a313670783b20666f6e742d66616d696c793a2043617073756c657360208201527f2d3330303b20666f6e742d7765696768743a3330303b2066696c6c3a202362656040820152731b1cb09b9d911f2222a324a3209e17ba32bc3a1f60611b60608201526074017f3c7465787420783d2231302220793d22343022207374796c653d22666f6e742d81526439b4bd329d60d91b60208201526025016120a991613a90565b7f70783b20666f6e742d66616d696c793a2043617073756c65732d3330303b206681527037b73a16bbb2b4b3b43a1d1998181d911f60791b60208201526031016120f291613a90565b661e17ba32bc3a1f60c91b81526007017f3c7465787420783d2231302220793d22363022207374796c653d22666f6e742d81527f73697a653a313670783b20666f6e742d66616d696c793a2043617073756c657360208201527f2d3330303b20666f6e742d7765696768743a3330303b2066696c6c3a2023333960408201527f333035393b223e47414d452049443a203132333c2f746578743e0000000000006060820152607a017f3c7465787420783d2231302220793d2234343022207374796c653d22666f6e7481527f2d73697a653a313670783b20666f6e742d66616d696c793a2043617073756c6560208201527f732d3330303b20666f6e742d7765696768743a3330303b2066696c6c3a20233360408201527f39333035393b223e544f4b454e2049443a20313030303030333c2f746578743e60608201526080017f3c7465787420783d2231302220793d2234363022207374796c653d22666f6e7481527f2d73697a653a313670783b20666f6e742d66616d696c793a2043617073756c6560208201527f732d3330303b20666f6e742d7765696768743a3330303b2066696c6c3a20233360408201527f39333035393b223e56414c55453a2033204554483c2f746578743e00000000006060820152607b017f3c7465787420783d2231302220793d2234383022207374796c653d22666f6e7481527f2d73697a653a313670783b20666f6e742d66616d696c793a2043617073756c6560208201527f732d3330303b20666f6e742d7765696768743a3330303b2066696c6c3a20233360408201527f39333035393b223e5241524954593a20312f31303c2f746578743e00000000006060820152607b017f3c7465787420746578744c656e6774683d2235303022206c656e67746841646a81527f7573743d2273706163696e672220783d223530252220793d223530252220737460208201526e3cb6329e913337b73a16b9b4bd329d60891b6040820152604f016123cf91613a90565b7f70783b20666f6e742d66616d696c793a2043617073756c65732d3730303b206681527f6f6e742d7765696768743a3730303b20746578742d616e63686f723a6d69646460208201527f6c653b20646f6d696e616e742d626173656c696e653a6d6964646c653b20223e604082015260600161244a91613a90565b661e17ba32bc3a1f60c91b8152600701651e17b9bb339f60d11b81526006010383810182526124799082610f96565b61248290613f8c565b61248b8261318c565b526124958161318c565b5061249e613aa3565b6124a78261319d565b526124b18161319d565b506124bb81613161565b51916124c68261317b565b516124d08361318c565b51926124db9061319d565b51604051938492602084016124ef91613a90565b6124f891613a90565b61250191613a90565b0390810182526125119082610f96565b61251a90613f8c565b61252391613ac1565b6040516104f1819282610605565b60058110156125485750612543613a52565b611d8c565b600881101561255a5750612543613a33565b600a81101561256c5750612543613a15565b600c81101561257e57506125436139f7565b601081101561259057506125436139d9565b60178110156125a257506125436139bb565b601e8110156125b4575061254361399d565b602311156125c45761254361391e565b61254361397f565b6125d461391e565b90611d70565b503461000e57604036600319011261000e576004356125f88161072a565b60018060a01b031660005260106020526040600020602435600052602052602061161560406000206169b7565b503461000e5761263436611834565b61263c6168f0565b600954600091906001600160a01b0316803b156119345782604051809263d67b78fd60e01b8252818381612674888b60048401614c67565b03925af180156126cf575b6126bc575b5061268f9192614c8f565b7fd36dc0c1a06103fdcaf15f3f6fb797d1a97997514c78de073640c8b5005454b86020604051338152a280f35b916126c961268f93610f24565b91612684565b6126d7613289565b61267f565b602435906107468261072a565b9080601f8301121561000e5781602061061693359101611afd565b608435906107468261072a565b359069ffffffffffffffffffff8216820361000e57565b359065ffffffffffff8216820361000e57565b359064ffffffffff8216820361000e57565b61ffff81160361000e57565b35906107468261274d565b359060ff8216820361000e57565b919091608090818185031261000e57604080519261278f84610f5f565b839583356001600160401b03811161000e57840181601f8201121561000e578035906127ba82611004565b926127c786519485610f96565b82845260209485850191866101c08096028501019381851161000e578701925b84841061281a575050509287525050508083013590840152808201359083015260609061281590820161073b565b910152565b858483031261000e5787869161282e610fb7565b61283787612711565b8152612844838801612728565b838201526128538c880161273b565b8c8201526060612864818901612759565b90820152612873868801612759565b8682015260a061288481890161073b565b9082015260c0612895818901612764565b9082015260e06128a681890161073b565b9082015261010080880135908201526101206128c3818901612764565b908201526101406128d5818901611942565b908201526101606128e7818901611942565b908201526101806128f9818901611942565b908201526101a061290b818901611942565b908201528152019301926127e7565b61012435906107468261072a565b60809061014319011261000e576040519061294282610f5f565b816101443561295081611938565b81526101643561295f81611938565b60208201526101843561297181611938565b604082015260606101a4359161298683611938565b0152565b503461000e576101c036600319011261000e576129a56126dc565b6044356001600160401b039182821161000e576129c7600492369084016126e9565b60643584811161000e576129de90369085016126e9565b6129e6612704565b60a43586811161000e576129fd90369087016126e9565b612a05610868565b9160e43588811161000e57612a1d90369089016126e9565b936101043598891161000e57612a3961079e9936908a01612772565b95612a4261291a565b97612a4c36612928565b993561454a565b6101c435906107468261072a565b503461000e576101e036600319011261000e57612a7c6126dc565b6044356001600160401b039182821161000e57612a9e600492369084016126e9565b60643584811161000e57612ab590369085016126e9565b612abd612704565b60a43586811161000e57612ad490369087016126e9565b612adc610868565b9060e43588811161000e57612af490369089016126e9565b926101043598891161000e57612b1061079e9936908a01612772565b94612b1961291a565b96612b2336612928565b98612b2c612a53565b9a35613b02565b503461000e57604036600319011261000e576004356000526011602052602061161560243560406000206169fb565b503461000e57600036600319011261000e57600b546040516001600160a01b039091168152602090f35b503461000e57606036600319011261000e57600435612baa8161072a565b60018060a01b031660005260106020526040600020602435600052602052602061161560443560406000206169fb565b91908252612bf460209160608385015260608401906105e0565b90604092838184039101528080855193848152019401926000905b838210612c1e57505050505090565b845180516001600160a01b03168752830151868401529485019493820193600190910190612c0f565b503461000e576020600319818136011261000e57600435906001600160401b03821161000e576101a090823603011261000e57612c95612c8e610164830183600401613075565b3691611afd565b60405190612ca282610f44565b6001825260005b848110612ced5750906104f191610124946000612cc4610fd7565b30815291820152612cd483613161565b52612cde82613161565b50604051948594013584612bda565b8490612cf76130f5565b82828601015201612ca9565b5060031960203682011261000e57600435906001600160401b03821161000e5761020090823603011261000e57600554341590811591612d77575b8115612d68575b50612d565761079e906004016163d6565b6040516331c57b1b60e21b8152600490fd5b90506024820135141538612d45565b600654909150612d8f906001600160a01b0316610c24565b604051636e49181f60e01b81526004810183905233602482015290602090829060449082905afa908115612dec575b600091612dce575b501590612d3e565b612de6915060203d8111610ef957610eeb8183610f96565b38612dc6565b612df4613289565b612dbe565b503461000e57602036600319011261000e57600435612e178161072a565b612e1f6168f0565b6009546001600160a01b0390811691823b1561000e576000916024839260405194859384926317161f7d60e01b845216968760048401525af18015612eaa575b612e97575b506040513381527fab0014d4c7a642a02a31b303a318908c22b0fb2001f107278fc6076b4c671b659080602081016112fe565b80611310612ea492610f24565b38612e64565b612eb2613289565b612e5f565b503461000e576000806003193601126106f657600954604051630155619b60e71b815230600482015291908190839060249082906001600160a01b03165afa908115612f6d575b8091612f13575b604051806104f18482610605565b90503d8082843e612f248184610f96565b820191602081840312612f69578051906001600160401b03821161193457019082601f830112156106f657506104f191816020612f6393519101613da2565b38612f05565b5080fd5b612f75613289565b612efe565b503461000e57604036600319011261000e57602060ff612fd7600435612f9f8161072a565b60243590612fac8261072a565b60018060a01b03166000526004845260406000209060018060a01b0316600052602052604060002090565b54166040519015158152f35b503461000e57602036600319011261000e576004356130018161072a565b6130096168f0565b6001600160a01b038116156130215761079e90616948565b60405162461bcd60e51b815260206004820152602660248201527f4f776e61626c653a206e6577206f776e657220697320746865207a65726f206160448201526564647265737360d01b6064820152608490fd5b903590601e198136030182121561000e57018035906001600160401b03821161000e5760200191813603831361000e57565b9060241161000e5760200190600490565b9060441161000e5760400190600490565b6001600160e01b031990358181169392600481106130e657505050565b60040360031b82901b16169150565b6040519061310282610f44565b60006020838281520152565b6040519061311b82610f44565b600182528160005b60209081811015613145576020916131396130f5565b90828501015201613123565b505050565b50634e487b7160e01b600052603260045260246000fd5b60209080511561316f570190565b61317761314a565b0190565b60409080516001101561316f570190565b60609080516002101561316f570190565b60809080516003101561316f570190565b60209181518110156131c3575b60051b010190565b6131cb61314a565b6131bb565b9160608383031261000e5782359260208101356131ec81610490565b9260408201356001600160401b03811161000e576106169201611560565b51906107468261072a565b908161012091031261000e57613229610fe4565b90805182526020810151602083015260408101516040830152606081015160608301526080810151608083015260a081015160a083015260c081015160c083015261327660e0820161320a565b60e0830152610100809101519082015290565b506040513d6000823e3d90fd5b519061074682611938565b90816101c091031261000e576132b5610fb7565b90805182526020810151602083015260408101516040830152606081015160608301526080810151608083015260a081015160a083015260c081015160c083015261330260e0820161320a565b60e0830152610100808201519083015261012061332081830161320a565b9083015261014080820151908301526101608082015190830152610180613348818301613296565b9083015261335a6101a0809201613296565b9082015290565b50634e487b7160e01b600052601160045260246000fd5b906002820180921161338657565b610746613361565b906020820180921161338657565b906001820180921161338657565b9190820180921161338657565b9060009060006080840135613616576101c0928385019360246133da8688613075565b90501080156135e4575b610e01576133f061310e565b94613425610c036133ff610fd7565b3081529260209387858201526134148a613161565b5261341e89613161565b5089613075565b600a549096925061343f91506001600160a01b0316610c24565b92604089815180966321d1336160e11b8252610120978891818061346f8860049801358883019190602083019252565b03915afa9687156135d7575b85976135b8575b50506001809651146134ce5750505050505050612c8e6134be6134ca926134b86134b260925460c08a01356133aa565b91613693565b90616d31565b946101a0810190613075565b9190565b9599969392919084519483976134ee610c2460095460018060a01b031690565b915b878a106135135750505050505050505050612c8e816101a06134ca930190613075565b9091929394959697899d886135568861352d859e876131ae565b51895163b67cb04760e01b81523089820190815260208101929092529283918291604090910190565b03818a5afa9081156135ab575b8a9161357e575b500151019d019897969594939291906134f0565b61359e9150893d8b116135a4575b6135968183610f96565b8101906132a1565b3861356a565b503d61358c565b6135b3613289565b613563565b6135cf929750803d10610ded57610dde8183610f96565b943880613482565b6135df613289565b61347b565b506135f2610e218688613075565b63b3bcbb7960e01b916001600160e01b03199161360e916130c9565b1614156133e4565b6040516309f82f1b60e31b8152600490fd5b9081602091031261000e575190565b60001981019190821161338657565b9190820391821161338657565b6080811015613666575b60120190600090565b61366e61314a565b61365d565b811561367d570490565b634e487b7160e01b600052601260045260246000fd5b8051600954600093928492918391906136b4906001600160a01b0316610c24565b905b8385106136dc57505050505081156136ca57565b604051637691472960e01b8152600490fd5b90919293956137c26001916137bc6136f48a866131ae565b51604080516342f9914b60e01b81526004808201939093526020919082816024818d5afa92831561381e575b8b936137ff575b505051633a39e4d160e11b815230928101928352602083018290526101c09283908290819060400103818c5afa9283156137f2575b8a936137cd575b5050806137af61379e61378d61378361377e6137b696613637565b613653565b90549060031b1c90565b946060608082015191015190613646565b916000526093602052604060002090565b54906133aa565b90613673565b906133aa565b9601939291906136b6565b6137b692935090816137ea92903d106135a4576135968183610f96565b919038613763565b6137fa613289565b61375c565b613816929350803d10610da457610d958183610f96565b903880613727565b613826613289565b613720565b6040519060a082018281106001600160401b0382111761386e575b604052600482528160005b6080811061385d575050565b806060602080938501015201613851565b613876610f0d565b613846565b60405190602082018281106001600160401b0382111761389f575b60405260008252565b6138a7610f0d565b613896565b604051906138b982610f44565b601d82527f646174613a6170706c69636174696f6e2f6a736f6e3b6261736536342c0000006020830152565b604051906138f282610f44565b601882527f5052454d494552204c454147554520323032332d3230323400000000000000006020830152565b6040519061392b82610f44565b6002825261032360f41b6020830152565b6040519061394982610f44565b60028252610c8d60f21b6020830152565b6040519061396782610f44565b600982526813125591549413d3d360ba1b6020830152565b6040519061398c82610f44565b6002825261189b60f11b6020830152565b604051906139aa82610f44565b6002825261033360f41b6020830152565b604051906139c882610f44565b6002825261034360f41b6020830152565b604051906139e682610f44565b6002825261036360f41b6020830152565b60405190613a0482610f44565b6002825261038360f41b6020830152565b60405190613a2282610f44565b6002825261039360f41b6020830152565b60405190613a4082610f44565b600382526203134360ec1b6020830152565b60405190613a5f82610f44565b600382526203230360ec1b6020830152565b60405190613a7e82610f44565b600382526203234360ec1b6020830152565b90613177602092828151948592016105bd565b60405190613ab082610f44565b6002825261227d60f01b6020830152565b6020610746919392936040519481613ae287935180928680870191016105bd565b8201613af6825180938680850191016105bd565b01038085520183610f96565b90613b159a99989796959493929161454a565b60018060a01b03166001600160601b0360a01b6094541617609455565b613b8290613b3e6168f0565b600a54613b53906001600160a01b0316610c24565b90600554604092835180916321d1336160e11b8252610120928391818060049a8b988983019190602083019252565b03915afa918215613d0b575b600092613cee575b50505110613ce057613ba6613d18565b600954613bbb906001600160a01b0316610c24565b825163f1bea54f60e01b81523085820190815290916020918291849182908190850103915afa918215613cd3575b600092613cb4575b50909160009181519183945b838610613c255750505050633b9aca00915011613c18575050565b51636ff44e9760e01b8152fd5b9091929381613c3487856131ae565b515111613ca457613c98600191613c8486613c4f8a886131ae565b510151613c6961377e613c628c8a6131ae565b5151613637565b90919082549060031b600019811b9283911b16911916179055565b85613c8f89876131ae565b510151906133aa565b95019493929190613bfd565b865163148e14dd60e21b81528890fd5b81613ccc9293503d8411610da457610d958183610f96565b9038613bf1565b613cdb613289565b613be9565b50516303e08a3560e61b8152fd5b613d049250803d10610ded57610dde8183610f96565b3880613b96565b613d13613289565b613b8e565b60125b60928110613d265750565b60008155600101613d1b565b818110613d3d575050565b60008155600101613d32565b600281901b91906001600160fe1b0381160361338657565b9081602091031261000e575161061681611938565b356106168161072a565b60405190613d8d82610f44565b60068252651b9bdc9b585b60d21b6020830152565b90929192613daf81611ad3565b91613dbd6040519384610f96565b82948284528282011161000e5760206107469301906105bd565b60208183031261000e578051906001600160401b03821161000e57019080601f8301121561000e57815161061692602001613da2565b606060206106169381845280518285015201519160408082015201906105e0565b613e6b6000604051613e3f81610f44565b61012c8152613e4c613d80565b60208201526040518093819263bf6519ad60e01b835260048301613e0d565b038173a77b7d93e79f1e6b4f77fab29d9ef85733a3d44a5afa908115613eb2575b600091613e97575090565b610616913d8091833e613eaa8183610f96565b810190613dd7565b613eba613289565b613e8c565b613e6b6000604051613ed081610f44565b6102bc8152613e4c613d80565b60405190606082018281106001600160401b03821117613f4d575b604052604082527f6768696a6b6c6d6e6f707172737475767778797a303132333435363738392b2f6040837f4142434445464748494a4b4c4d4e4f505152535455565758595a61626364656660208201520152565b613f55610f0d565b613ef8565b90613f6482611ad3565b613f716040519182610f96565b8281528092613f82601f1991611ad3565b0190602036910137565b80511561406c57613f9b613edd565b613fb7613fb2613fab8451613378565b6003900490565b613d49565b91613fc9613fc48461338e565b613f5a565b92835280815182019060208501935b82821061401a5750505060039051068060011461400957600214613ffa575090565b603d60f81b6000199091015290565b50613d3d60f01b6001199091015290565b9091936004906003809401938451600190603f9082828260121c16880101518553828282600c1c16880101518386015382828260061c1688010151600286015316850101519082015301939190613fd8565b5061061661387b565b8051906140806130f5565b5060005b82811061409057505050565b61409a81836131ae565b5180519091906001600160a01b03908116156140cc578260206140c692600195511691015190336140de565b01614084565b6040516314f4c13d60e21b8152600490fd5b6001600160a01b039081166000818152600f602090815260408083208784528252822080548686166001600160a01b0319821617909155610746969295929492939083169290919081908086168585600080516020616e638339815191528b80a460095416926064604051809581936305c9a1d560e31b835230600484015260248301528960448301525afa95861561419e575b9561417f575b50506141ab565b614196929550803d10610da457610d958183610f96565b923880614178565b6141a6613289565b614172565b91926001600160a01b038083169391929190811680851480156142c8575b6142c057859181614253575b505050826141e4575b50505050565b6001600160a01b031660009081526010602052604090207fed0c1e94c302bdbbd8bbd6a4fb7c3ed335c2292407cd816eadd075d019d0ce049161423291856000526020526040600020616c1c565b6040805192835260208301919091523390820152606090a3388080806141de565b6001600160a01b03166000908152601060205260409020826000526020527fed0c1e94c302bdbbd8bbd6a4fb7c3ed335c2292407cd816eadd075d019d0ce046142a0856040600020616ad9565b6040805192835260208301919091523390820152606090a38338806141d5565b505050505050565b5083156141c9565b9081602091031261000e57516106168161072a565b6009546040516308ed6c0160e41b8152306004820152602481018390526001600160a01b0392916020908290604490829087165afa908115614380575b600091614352575b5082811661434c5750614347906000526002602052604060002090565b541690565b91505090565b614373915060203d8111614379575b61436b8183610f96565b8101906142d0565b3861432a565b503d614361565b614388613289565b614322565b919082604091031261000e57602082516143a68161072a565b92015190565b81601f8201121561000e578051916143c383611004565b926143d16040519485610f96565b808452602092838086019260051b82010192831161000e578301905b8282106143fb575050505090565b815181529083019083016143ed565b9060208282031261000e5781516001600160401b03811161000e5761061692016143ac565b60208082019080835283518092528060408094019401926000905b83821061445957505050505090565b9091929394836101c060019261453d895161448083825169ffffffffffffffffffff169052565b8085015165ffffffffffff16838601528087015164ffffffffff168388015260608181015161ffff169084015260808181015161ffff169084015260a0818101516001600160a01b03169084015260c08181015160ff169084015260e0818101516001600160a01b03169084015261010081810151908401526101208082015160ff16908401526101408181015115159084015261016081810151151590840152610180818101511515908401526101a090810151151590830152565b019601949392019061444a565b9092999896939197959499614569610c2460085460018060a01b031690565b301461000e576009546001600160a01b0399908a90614589908216610c24565b1661000e576145b89461459b93615fab565b60018060a01b03166001600160601b0360a01b600a541617600a55565b600980546001600160a01b0319166001600160a01b0386161790556145e06020840151600c55565b6040966145ef88850151600d55565b6060840151600b80546001600160a01b0319166001600160a01b03909216919091179055805161482e575b5080516147cf575b5083811661476e575b5051805161470b575b508251151580156146fe575b80156146f2575b80156146e5575b614660575b5050505061074633616948565b1691823b1561000e57516365c13f1960e11b815281511515600482015260208201511515602482015260408201511515604482015260609091015115156064820152906000908290608490829084905af180156146d8575b6146c5575b808080614653565b806113106146d292610f24565b386146bd565b6146e0613289565b6146b8565b506060830151151561464e565b50828401511515614647565b5060208301511515614640565b600061472a9186518093819263229dad5f60e11b83526004830161442f565b0381838787165af18015614761575b156146345761475a903d806000833e6147528183610f96565b81019061440a565b5038614634565b614769613289565b614739565b838316803b1561000e57865163036129cb60e61b81526001600160a01b039290921660048301526000908290602490829084905af180156147c2575b1561462b57806113106147bc92610f24565b3861462b565b6147ca613289565b6147aa565b848416803b1561000e57875163d67b78fd60e01b81529160009183918290849082906147fe9060048301610605565b03925af18015614821575b15614622578061131061481b92610f24565b38614622565b614829613289565b614809565b858516803b1561000e5788516331315e5960e11b815291600091839182908490829061485d9060048301610605565b03925af18015614880575b1561461a578061131061487a92610f24565b3861461a565b614888613289565b614868565b9190926148986168f0565b80614984575b5050816148a9575050565b6009546148be906001600160a01b0316610c24565b9160409060008251809563229dad5f60e11b82528183816148e3878a60048401614be7565b03925af1938415614977575b60009461495c575b5060005b818110614909575050505050565b80614916600192876131ae565b517f8aa4a03deb8db10032373886aa0376c918ccf36bcdb59ca4da2a807ac7ff1a0461495361494684878a614c25565b8751918291339083614c43565b0390a2016148fb565b61497091943d8091833e6147528183610f96565b92386148f7565b61497f613289565b6148ef565b600954614999906001600160a01b0316610c24565b90813b1561000e576040916000835180926320512ba160e01b82528183816149c5888b60048401614a49565b03925af18015614a3c575b614a29575b5060005b8181106149e757505061489e565b806149f56001928487614a72565b84513381529035907f832d89d991be5351d793c20faf4b7dd44f8aa9ce39e3cb160c6317de6fbba72990602090a2016149d9565b80611310614a3692610f24565b386149d5565b614a44613289565b6149d0565b602080825281018390526001600160fb1b03831161000e5760409260051b809284830137010190565b9190811015614a825760051b0190565b61102561314a565b9061074691614aac82614a9c83612711565b69ffffffffffffffffffff169052565b614aca614abb60208301612728565b65ffffffffffff166020840152565b614ae7614ad96040830161273b565b64ffffffffff166040840152565b614b01614af660608301612759565b61ffff166060840152565b614b1b614b1060808301612759565b61ffff166080840152565b614b3a614b2a60a0830161073b565b6001600160a01b031660a0840152565b614b53614b4960c08301612764565b60ff1660c0840152565b614b72614b6260e0830161073b565b6001600160a01b031660e0840152565b6101008082013590830152614b97610120614b8e818401612764565b60ff1690840152565b614bb0610140614ba8818401611942565b151590840152565b614bc1610160614ba8818401611942565b614bd2610180614ba8818401611942565b614be06101a0809201611942565b1515910152565b602080825281018390526040019160005b818110614c055750505090565b90919280614c1560019286614a8a565b6101c09081019401929101614bf8565b916101c091811015614c3657020190565b614c3e61314a565b020190565b9092916101c090614c59836101e0810196614a8a565b6001600160a01b0316910152565b90918060409360208452816020850152848401376000828201840152601f01601f1916010190565b81604051928392833781016000815203902090565b600a54614cb9906001600160a01b0316610c24565b90614d1760ff610100614cf060055495604096875180926321d1336160e11b82528180610120968795600483019190602083019252565b03915afa918215614ea3575b600092614e86575b5050015160f41c1660018091811c161490565b614e7557600954614d30906001600160a01b0316610c24565b8251635d53f40760e11b8152600481018390526024810185905292906000908490604490829084905af1928315614e68575b600093614e4d575b50600954614d80906001600160a01b0316610c24565b81516304db994760e21b8152306004820152602481018490529390602090859060449082905afa938415614e40575b600094614e20575b5060005b858110614dca57505050505050565b80614dd7600192846131ae565b51614de2818861520d565b845133815260a084901b84900388169187917f031e1988c95a91ec4d655ff63a8f87a80bc9daf28d95ae10ee08c0022cfb5c8b90602090a401614dbb565b614e3991945060203d81116143795761436b8183610f96565b9238614db7565b614e48613289565b614daf565b614e6191933d8091833e6147528183610f96565b9138614d6a565b614e70613289565b614d62565b8151631d2c125760e31b8152600490fd5b614e9c9250803d10610ded57610dde8183610f96565b3880614d04565b614eab613289565b614cfc565b91614eb96168f0565b600954614ece906001600160a01b0316610c24565b9260409060008251809663eaa19ab360e01b8252818381614ef38a8860048401614feb565b03925af1948515614fb4575b600095614f90575b5060005b848110614f1a57505050505090565b80614f27600192886131ae565b51614f32818761520d565b61ffff614f48614f43848a88614a72565b615046565b86516000815233602082015260a086901b86900389169391909216917f598baf7bf150ca2f42be9e9f8f55e81d45f5715c3ff22bf46d697fabec7f31d690604090a401614f0b565b614fac91953d8091833e614fa48183610f96565b810190614fc1565b509338614f07565b614fbc613289565b614eff565b919060408382031261000e5782516001600160401b03811161000e576020916143a69185016143ac565b929160608401906000198552806020926060848801525260808501929160005b82811061502057505050506040600191930152565b90919293828060019261ffff88356150378161274d565b1681520195019392910161500b565b356106168161274d565b6009546001600160a01b0316803b1561000e576040516386bc2be360e01b815291600091839182908490829061508990600483016113d0565b03925af180156150a4575b61509b5750565b61074690610f24565b6150ac613289565b615094565b6000908152600260205260409020546001600160a01b031680156150d25790565b60405163b49aa3b560e01b8152600490fd5b90600182811c92168015615114575b60208310146150fe57565b634e487b7160e01b600052602260045260246000fd5b91607f16916150f3565b6000818152600260205260409020546001600160a01b0316156150d2576000908152600360205260409020546001600160a01b031690565b9291906151638233615195565b156107a05783615177838361517c97615b5c565b615eef565b1561518357565b6040516336f57c1b60e11b8152600490fd5b6001600160a01b03806151a7846150b1565b1692818316928484149485156151dd575b505083156151c7575b50505090565b6151d39192935061511e565b16143880806151c1565b60009081526004602090815260408083206001600160a01b03949094168352929052205460ff16935038806151b8565b6001600160a01b03811692919083156153a4576000828152600260205260409020546001600160a01b031661539257600082815260026020526040812080546001600160a01b0319166001600160a01b038416179055936152d492908190867fddf252ad1be2c89b69c2b068fc378daa952ba7f163c4a11628f55a4df523b3ef8180a46009546152a5906001600160a01b0316610c24565b60405163b67cb04760e01b815230600482015260248101929092526101c0939091908490829081906044820190565b0381855afa938415615385575b8694615366575b50508251813b15615362576040516330b157e560e21b81526004810191909152600060248201526001600160a01b0383166044820152939461074694918290606490829084905af18015615355575b615342575b506155bb565b8061131061534f92610f24565b3861533c565b61535d613289565b615337565b8580fd5b61537d929450803d106135a4576135968183610f96565b9138806152e8565b61538d613289565b6152e1565b604051632eb5f0c360e21b8152600490fd5b604051633904578f60e11b8152600490fd5b6009546153fd91906153d0906001600160a01b0316610c24565b60405163b67cb04760e01b81523060048201526024810194909452926101c0928390829081906044820190565b0381875afa9283156154aa575b60009361548b575b50508151833b1561000e576040516330b157e560e21b815260048101919091526001600160a01b0382166024820152600060448201819052610746948290606490829084905af1801561547e575b61546b575b506156c1565b8061131061547892610f24565b38615465565b615486613289565b615460565b6154a2929350803d106135a4576135968183610f96565b903880615412565b6154b2613289565b61540a565b6009546154ff9291906154d2906001600160a01b0316610c24565b60405163b67cb04760e01b81523060048201526024810195909552936101c0938490829081906044820190565b0381885afa9384156155ae575b60009461558f575b50508251843b1561000e576040516330b157e560e21b815260048101919091526001600160a01b03828116602483015283166044820152610746946000908290606490829084905af18015615582575b61556f575b506157e4565b8061131061557c92610f24565b38615569565b61558a613289565b615564565b6155a6929450803d106135a4576135968183610f96565b913880615514565b6155b6613289565b61550c565b9060a0810180516155cb57505050565b6107469260018060a01b038082169360008581526020600f815260409283832081518452825284848420541615615675575b519551968683526011825261561488858520616c1c565b50501561565b575b818052600f8152828220868352815261564d8484842054169560018060a01b0316600052600f602052604060002090565b9086835252205416906141ab565b8582526011815261566e87848420616ad9565b505061561c565b6001600160a01b0386166000818152600f6020526040902082518552835284842080546001600160a01b0319169091179055878381600080516020616e638339815191528280a46155fd565b60a0820180516156d057505050565b6000808052600f6020908152845182527ff4803e074bd026baaf6ed2e288c9515f68c72fb7216eebdd7cae1718a53ec37581526040808320546107469692936001600160a01b03939091849190821615615789575b5195519616801561576f575b8582526011855261574487848420616ad9565b50508152600f845281812085825284528282822054169361564d60008052600f602052604060002090565b8582526011855261578287848420616c1c565b5050615731565b60008052600f6020527ff4803e074bd026baaf6ed2e288c9515f68c72fb7216eebdd7cae1718a53ec37581518452865283832080546001600160a01b0319169055828080600080516020616e638339815191528180a4615725565b9060a083019081516157f65750505050565b6001600160a01b038181166000818152600f60209081526040808320895184528252808320546158709991949186918216156158ad575b5197519816908115615893575b15615879575b8252600f8152828220868352815261564d8484842054169560018060a01b0316600052600f602052604060002090565b388080806141de565b8683526011825261588c88858520616ad9565b5050615840565b878452601183526158a689868620616c1c565b505061583a565b6001600160a01b0388166000818152600f6020526040902082518752855286862080546001600160a01b0319169091179055828581600080516020616e638339815191528280a461582d565b615902816150b1565b6001600160a01b038082169291908361596a575b508160006107469461592783615dc1565b82825260026020526040822080546001600160a01b03191690557fddf252ad1be2c89b69c2b068fc378daa952ba7f163c4a11628f55a4df523b3ef8280a46153b6565b60095461597f906001600160a01b0316610c24565b60405163b67cb04760e01b8152306004820152602481018590529091906159ce906101a0906101c090818180604481015b0381895afa918215615b4f575b600092615b32575b50500151151590565b615aaf575b6040516308ed6c0160e41b815230600482015260248101859052602081604481865afa908115615aa2575b600091615a84575b50166159165792833b1561000e57604051638cec7d3960e01b8152600481018490526001600160a01b0383166024820152610746948492600092909183908290604490829084905af18015615a77575b615a64575b50945050615916565b80611310615a7192610f24565b38615a5b565b615a7f613289565b615a56565b615a9c915060203d81116143795761436b8183610f96565b38615a06565b615aaa613289565b6159fe565b600a54615af090615ac8906001600160a01b0316610c24565b60055460405180926321d1336160e11b82528180610120968795600483019190602083019252565b03915afa8015615b25575b615b07575b50506159d3565b81615b1d92903d10610ded57610dde8183610f96565b503880615b00565b615b2d613289565b615afb565b615b489250803d106135a4576135968183610f96565b38806159c5565b615b57613289565b6159bd565b9190615b67826150b1565b6001600160a01b0380851694918116859003615daf57808316908115615d9d5785615bee575b50839061074695615b9d83615dc1565b600083815260026020526040902080546001600160a01b0319166001600160a01b0387161790557fddf252ad1be2c89b69c2b068fc378daa952ba7f163c4a11628f55a4df523b3ef600080a46154b7565b600954615c03906001600160a01b0316610c24565b60405163b67cb04760e01b815230600482015260248101879052909190615c38906101a0906101c090818180604481016159b0565b615d18575b6040516308ed6c0160e41b815230600482015260248101879052602081604481865afa908115615d0b575b600091615ced575b5016615b8d5790813b1561000e57604051638cec7d3960e01b8152600481018690526001600160a01b03841660248201526107469686939091906000908290604490829084905af18015615ce0575b615ccd575b50955090615b8d565b80611310615cda92610f24565b38615cc4565b615ce8613289565b615cbf565b615d05915060203d81116143795761436b8183610f96565b38615c70565b615d13613289565b615c68565b615d5c60ff610100615d37615ac8610c24600a5460018060a01b031690565b03915afa918215615d90575b600092615d73575b5050015160f41c1660018091161490565b15615c3d576040516318cdaf9760e01b8152600490fd5b615d899250803d10610ded57610dde8183610f96565b3880615d4b565b615d98613289565b615d43565b604051632c95542760e01b8152600490fd5b60405163a195bc5360e01b8152600490fd5b600081815260036020526040812080546001600160a01b03191690556001600160a01b03615dee836150b1565b167f8c5be1e5ebec7d5bd14f71427d1e84f3dd0314c0f7b2291e5b200ac8c7c3b9258280a4565b600082815260036020526040902080546001600160a01b0319166001600160a01b0383161790556001600160a01b0380615e4e846150b1565b169116907f8c5be1e5ebec7d5bd14f71427d1e84f3dd0314c0f7b2291e5b200ac8c7c3b925600080a4565b9081602091031261000e575161061681610490565b6001600160a01b039182168152911660208201526040810191909152608060608201819052610616929101906105e0565b3d15615eea573d90615ed082611ad3565b91615ede6040519384610f96565b82523d6000602084013e565b606090565b92909190823b15615fa257615f22926020926000604051809681958294630a85bd0160e11b9a8b85523360048601615e8e565b03926001600160a01b03165af160009181615f72575b50615f6457615f45615ebf565b80519081615f5f576040516336f57c1b60e11b8152600490fd5b602001fd5b6001600160e01b0319161490565b615f9491925060203d8111615f9b575b615f8c8183610f96565b810190615e79565b9038615f38565b503d615f82565b50505050600190565b9192909280516001600160401b0381116160d6575b600091615fd682615fd185546150e4565b6160e3565b60209081601f8411600114616044575092826160179361601c96936107469998968492616039575b50508160011b916000199060031b1c1916179055616199565b600555565b60018060a01b03166001600160601b0360a01b6006541617600655565b015190503880615ffe565b600080529190601f1984167f290decd9548b62a8d60345a988386fc84ba6bc95484008f6362f93160ef3e5639386905b8282106160be5750509361601c9693610746999896936001938361601798106160a5575b505050811b019055616199565b015160001960f88460031b161c19169055388080616098565b80600186978294978701518155019601940190616074565b6160de610f0d565b615fc0565b90601f82116160f0575050565b61074691600080527f290decd9548b62a8d60345a988386fc84ba6bc95484008f6362f93160ef3e563906020601f840160051c83019310616139575b601f0160051c0190613d32565b909150819061612c565b90601f8211616150575050565b6107469160016000527fb10e2d527612073b26eecdfd717e6a320cf44b4afac2b0732d9fcbe2b7fa0cf6906020601f840160051c8301931061613957601f0160051c0190613d32565b9081516001600160401b038111616281575b6001906161c1816161bc84546150e4565b616143565b602080601f83116001146161fc5750819293946000926161f1575b5050600019600383901b1c191690821b179055565b0151905038806161dc565b90601f1983169561622f60016000527fb10e2d527612073b26eecdfd717e6a320cf44b4afac2b0732d9fcbe2b7fa0cf690565b926000905b88821061626a5750508385969710616251575b505050811b019055565b015160001960f88460031b161c19169055388080616247565b808785968294968601518155019501930190616234565b616289610f0d565b6161ab565b604d811161629d575b600a0a90565b6162a5613361565b616297565b9160a08383031261000e57823592602091828201359360408301356162ce81610490565b9360608401356162dd81611938565b936080810135906001600160401b03821161000e57019180601f8401121561000e57823561630a81611004565b936163186040519586610f96565b818552838086019260051b82010192831161000e578301905b82821061633f575050505090565b838091833561634d8161274d565b815201910190616331565b9081608091031261000e57606060405191608083018381106001600160401b038211176163c9575b604052805161638e81611938565b8352602081015161639e81611938565b602084015260408101516163b181611938565b604084015201516163c181611938565b606082015290565b6163d1610f0d565b616380565b600060c082013590600c548083146000146166df5750505060808101355b61018082019161642061640684613d76565b6001600160a01b03166000908152600e6020526040902090565b5492829360009361643084613d76565b9561643d610c2485613d76565b6001600160a01b03978816036166d457508101925b6000906101e081019060446164678383613075565b9050118061669d575b6165ae575b505083156165425715616530576164db93616406930180958282116000146164de577f2fb2733fb01b76e3290fa8b695d18e026ddd19c0a265ab90e95152e57da303366164c185613d76565b60405133815292169383039180602081015b0390a4613d76565b55565b8183116164ee575b505050613d76565b7fe0e7c81cf67a96dd0e39bcf11521b1f4c0098cc1dbe8c30750a11d9ebfc3ed4d8261651986613d76565b6040513381529316940391602090a43884816164e6565b604051631b57826960e21b8152600490fd5b5091508282949394036165555750505050565b6165a492846165678161640695613646565b7fe0e7c81cf67a96dd0e39bcf11521b1f4c0098cc1dbe8c30750a11d9ebfc3ed4d61659185613d76565b60405133815294169380602081016164d3565b55388080806141de565b6165c59250906165bd91613075565b8101906162aa565b92509250508180616608575b6165ff575b80516165e3575b80616475565b936165f891946165f285613d76565b916167e1565b92386165dd565b600091506165d6565b5060095461665d90606090616625906001600160a01b0316610c24565b604051634228826f60e11b815230600482015290608090829060249082905afa908115616690575b600091616662575b500151151590565b6165d1565b616683915060803d8111616689575b61667b8183610f96565b810190616358565b38616655565b503d616671565b616698613289565b61664d565b506166b16166ab8383613075565b906130b8565b63b3bcbb7960e01b916001600160e01b0319916166cd916130c9565b1614616470565b939450508093616452565b600b546001600160a01b031692831561678a57602061673b9161675895616707600d5461628e565b94604051809581948293635268657960e11b845260a08d013591600485016040919493926060820195825260208201520152565b03915afa92831561677d575b9261675d575b506080840135616dbd565b6163f4565b61677691925060203d8111610da457610d958183610f96565b903861674d565b616785613289565b616747565b5050505050565b929190606084019084526020906060828601528251809152816080860193019160005b8281106167c957505050506040600091930152565b835161ffff16855293810193928101926001016167b4565b6009549293926167f9906001600160a01b0316610c24565b6040805163eaa19ab360e01b815295600094919285908890818381616822888b60048401616791565b03925af180156168e3575b859786916168c3575b50968051955b86811061684c5750505050505050565b80616859600192846131ae565b51616864818661520d565b61ffff61687c61687484896131ae565b5161ffff1690565b88518a815233602082015260a086901b86900388169391909216917f598baf7bf150ca2f42be9e9f8f55e81d45f5715c3ff22bf46d697fabec7f31d690604090a40161683c565b90506168da9197503d8087833e614fa48183610f96565b96909638616836565b6168eb613289565b61682d565b6007546001600160a01b0316330361690457565b606460405162461bcd60e51b815260206004820152602060248201527f4f776e61626c653a2063616c6c6572206973206e6f7420746865206f776e65726044820152fd5b600780546001600160a01b039283166001600160a01b0319821681179092559091167f8be0079c531659141344cd1fd0a4f28419497f9722a3daafe3b4186f6b6457e0600080a3565b80548210156169aa575b60005260206000200190600090565b6169b261314a565b61699b565b8054806169cf57505060005b6001600160e01b031690565b6169e49160001982019182116169ee57616991565b505460201c6169c3565b6169f6613361565b616991565b9043811015616a95578154906000905b828210616a4457505080616a2157506000919050565b616a3f91616a31616a3792613637565b90616991565b505460201c90565b6169c3565b9091616a508184616cab565b9082616a76616a6d616a628589616991565b505463ffffffff1690565b63ffffffff1690565b1115616a855750915b90616a0b565b9250616a909061339c565b616a7f565b606460405162461bcd60e51b815260206004820152602060248201527f436865636b706f696e74733a20626c6f636b206e6f7420796574206d696e65646044820152fd5b919091616ae5816169b7565b928303928311616c0f575b805490616afc816169b7565b9180151580616bdc575b15616b3c57616b246134ca92616a31616b1e88616cc8565b93613637565b509063ffffffff82549181199060201b169116179055565b5063ffffffff804311616b88576134ca91616b83616b5987616cc8565b616b73616b64610fd7565b944316859063ffffffff169052565b6001600160e01b03166020840152565b616c3e565b60405162461bcd60e51b815260206004820152602660248201527f53616665436173743a2076616c756520646f65736e27742066697420696e203360448201526532206269747360d01b6064820152608490fd5b5063ffffffff616bf86000198301838111616c02575b84616991565b5054164314616b06565b616c0a613361565b616bf2565b616c17613361565b616af0565b919091616c28816169b7565b928301809311616c0f57805490616afc816169b7565b8054616c619168010000000000000000821015616c9e575b600182018155616991565b616c8857815160209283015190921b63ffffffff191663ffffffff92909216919091179055565b634e487b7160e01b600052600060045260246000fd5b616ca6610f0d565b616c56565b90808216911860011c8101809111616cc05790565b610616613361565b6001600160e01b0390818111616cdc571690565b60405162461bcd60e51b815260206004820152602760248201527f53616665436173743a2076616c756520646f65736e27742066697420696e20326044820152663234206269747360c81b6064820152608490fd5b919060001981840981840291828083109203918083039214616db057633b9aca009081831015616d92577f88f2cfb83100cb4e69e7c79c58b316e597157d372fb9787e8e47ce423a2e9c6d94950990828211900360f71b910360091c170290565b6044838360405191631dcf306360e21b835260048301526024820152fd5b5050633b9aca0090049150565b90916000198383099280830292838086109503948086039514616e555782851015616e3557908291096001821901821680920460028082600302188083028203028083028203028083028203028083028203028083028203028092029003029360018380600003040190848311900302920304170290565b604051631dcf306360e21b81526004810186905260248101849052604490fd5b505090610616925061367356fe3134e8a2e6d97e929a7e54011ea5485d7d196dd5f0ba4d4ef95803e8e3fc257fa2646970667358221220967cf985a31cdb49dfac3fda80ff73f9dd798552bcd23ecbe90e348d4fd5d3fb64736f6c63430008110033",
    "linkReferences": {}
  },
  "methodIdentifiers": {
    "TOTAL_REDEMPTION_WEIGHT()": "640abacd",
    "adjustTiers((uint80,uint48,uint40,uint16,uint16,address,uint8,address,bytes32,uint8,bool,bool,bool,bool)[],uint256[])": "25eb91ee",
    "approve(address,uint256)": "095ea7b3",
    "balanceOf(address)": "70a08231",
    "codeOrigin()": "1d153ca4",
    "contractURI()": "e8a3d485",
    "creditsOf(address)": "245a45b5",
    "didPay((address,uint256,uint256,(address,uint256,uint256,uint256),(address,uint256,uint256,uint256),uint256,address,bool,string,bytes))": "da9ee8b7",
    "didRedeem((address,uint256,uint256,uint256,(address,uint256,uint256,uint256),(address,uint256,uint256,uint256),address,string,bytes))": "2b13c58f",
    "directory()": "c41c2f24",
    "firstOwnerOf(uint256)": "54c6d1f5",
    "fundingCycleStore()": "557e7155",
    "getApproved(uint256)": "081812fc",
    "getPastTierTotalVotes(uint256,uint256)": "d31cc52c",
    "getPastTierVotes(address,uint256,uint256)": "d40e7146",
    "getTierDelegate(address,uint256)": "82732b6d",
    "getTierTotalVotes(uint256)": "94c5c5ca",
    "getTierVotes(address,uint256)": "ca323efe",
    "initialize(uint256,address,string,string,address,string,address,string,((uint80,uint48,uint40,uint16,uint16,address,uint8,address,bytes32,uint8,bool,bool,bool,bool)[],uint256,uint256,address),address,(bool,bool,bool,bool))": "d1704baf",
    "initialize(uint256,address,string,string,address,string,address,string,((uint80,uint48,uint40,uint16,uint16,address,uint8,address,bytes32,uint8,bool,bool,bool,bool)[],uint256,uint256,address),address,(bool,bool,bool,bool),address)": "d1c32934",
    "isApprovedForAll(address,address)": "e985e9c5",
    "mintFor((uint16[],address)[])": "36c1a93b",
    "mintFor(uint16[],address)": "6ac6d941",
    "mintReservesFor((uint256,uint256)[])": "2a596e53",
    "mintReservesFor(uint256,uint256)": "aa4fb15b",
    "name()": "06fdde03",
    "owner()": "8da5cb5b",
    "ownerOf(uint256)": "6352211e",
    "payParams((address,address,(address,uint256,uint256,uint256),uint256,uint256,address,uint256,uint256,string,bytes))": "d46cf171",
    "prices()": "d3419bf3",
    "pricingCurrency()": "64640c1e",
    "pricingDecimals()": "4ecba625",
    "projectId()": "3fafa127",
    "redeemParams((address,address,uint256,uint256,uint256,uint256,uint256,(address,uint256,uint256,uint256),bool,uint256,string,bytes))": "a51cfd18",
    "redemptionWeightOf(uint256[],(address,address,uint256,uint256,uint256,uint256,uint256,(address,uint256,uint256,uint256),bool,uint256,string,bytes))": "7ba62bf9",
    "renounceOwnership()": "715018a6",
    "royaltyInfo(uint256,uint256)": "2a55205a",
    "safeTransferFrom(address,address,uint256)": "42842e0e",
    "safeTransferFrom(address,address,uint256,bytes)": "b88d4fde",
    "setApprovalForAll(address,bool)": "a22cb465",
    "setBaseUri(string)": "a0bcfc7f",
    "setContractUri(string)": "ccb4807b",
    "setDefaultReservedTokenBeneficiary(address)": "df487e26",
    "setEncodedIPFSUriOf(uint256,bytes32)": "525350ba",
    "setTierDelegate(address,uint256)": "ab951e39",
    "setTierDelegates((address,uint256)[])": "c74b13d9",
    "setTierRedemptionWeights((uint256,uint256)[])": "2f441500",
    "setTokenUriResolver(address)": "2407497e",
    "store()": "975057e7",
    "supportsInterface(bytes4)": "01ffc9a7",
    "symbol()": "95d89b41",
    "tierRedemptionWeights()": "9df45468",
    "tokenURI(uint256)": "c87b56dd",
    "totalRedemptionWeight((address,address,uint256,uint256,uint256,uint256,uint256,(address,uint256,uint256,uint256),bool,uint256,string,bytes))": "9494bf72",
    "transferFrom(address,address,uint256)": "23b872dd",
    "transferOwnership(address)": "f2fde38b",
    "typeface()": "4d5a1d11"
  },
  "id": 0
}