{
  "abi": [
    {
      "inputs": [
        {
          "internalType": "contract IDefifaDelegate",
          "name": "_defifaDelegate",
          "type": "address"
        },
        {
          "internalType": "uint256",
          "name": "_votingStartTime",
          "type": "uint256"
        }
      ],
      "stateMutability": "nonpayable",
      "type": "constructor"
    },
    {
      "inputs": [],
      "name": "DISABLED",
      "type": "error"
    },
    {
      "inputs": [],
      "name": "Empty",
      "type": "error"
    },
    {
      "inputs": [],
      "name": "INCORRECT_TIER_ORDER",
      "type": "error"
    },
    {
      "inputs": [
        {
          "internalType": "uint256",
          "name": "prod1",
          "type": "uint256"
        },
        {
          "internalType": "uint256",
          "name": "denominator",
          "type": "uint256"
        }
      ],
      "name": "PRBMath__MulDivOverflow",
      "type": "error"
    },
    {
      "anonymous": false,
      "inputs": [
        {
          "indexed": false,
          "internalType": "uint256",
          "name": "proposalId",
          "type": "uint256"
        }
      ],
      "name": "ProposalCanceled",
      "type": "event"
    },
    {
      "anonymous": false,
      "inputs": [
        {
          "indexed": false,
          "internalType": "uint256",
          "name": "proposalId",
          "type": "uint256"
        },
        {
          "indexed": false,
          "internalType": "address",
          "name": "proposer",
          "type": "address"
        },
        {
          "indexed": false,
          "internalType": "address[]",
          "name": "targets",
          "type": "address[]"
        },
        {
          "indexed": false,
          "internalType": "uint256[]",
          "name": "values",
          "type": "uint256[]"
        },
        {
          "indexed": false,
          "internalType": "string[]",
          "name": "signatures",
          "type": "string[]"
        },
        {
          "indexed": false,
          "internalType": "bytes[]",
          "name": "calldatas",
          "type": "bytes[]"
        },
        {
          "indexed": false,
          "internalType": "uint256",
          "name": "startBlock",
          "type": "uint256"
        },
        {
          "indexed": false,
          "internalType": "uint256",
          "name": "endBlock",
          "type": "uint256"
        },
        {
          "indexed": false,
          "internalType": "string",
          "name": "description",
          "type": "string"
        }
      ],
      "name": "ProposalCreated",
      "type": "event"
    },
    {
      "anonymous": false,
      "inputs": [
        {
          "indexed": false,
          "internalType": "uint256",
          "name": "proposalId",
          "type": "uint256"
        }
      ],
      "name": "ProposalExecuted",
      "type": "event"
    },
    {
      "anonymous": false,
      "inputs": [
        {
          "indexed": true,
          "internalType": "address",
          "name": "voter",
          "type": "address"
        },
        {
          "indexed": false,
          "internalType": "uint256",
          "name": "proposalId",
          "type": "uint256"
        },
        {
          "indexed": false,
          "internalType": "uint8",
          "name": "support",
          "type": "uint8"
        },
        {
          "indexed": false,
          "internalType": "uint256",
          "name": "weight",
          "type": "uint256"
        },
        {
          "indexed": false,
          "internalType": "string",
          "name": "reason",
          "type": "string"
        }
      ],
      "name": "VoteCast",
      "type": "event"
    },
    {
      "anonymous": false,
      "inputs": [
        {
          "indexed": true,
          "internalType": "address",
          "name": "voter",
          "type": "address"
        },
        {
          "indexed": false,
          "internalType": "uint256",
          "name": "proposalId",
          "type": "uint256"
        },
        {
          "indexed": false,
          "internalType": "uint8",
          "name": "support",
          "type": "uint8"
        },
        {
          "indexed": false,
          "internalType": "uint256",
          "name": "weight",
          "type": "uint256"
        },
        {
          "indexed": false,
          "internalType": "string",
          "name": "reason",
          "type": "string"
        },
        {
          "indexed": false,
          "internalType": "bytes",
          "name": "params",
          "type": "bytes"
        }
      ],
      "name": "VoteCastWithParams",
      "type": "event"
    },
    {
      "inputs": [],
      "name": "BALLOT_TYPEHASH",
      "outputs": [
        {
          "internalType": "bytes32",
          "name": "",
          "type": "bytes32"
        }
      ],
      "stateMutability": "view",
      "type": "function"
    },
    {
      "inputs": [],
      "name": "COUNTING_MODE",
      "outputs": [
        {
          "internalType": "string",
          "name": "",
          "type": "string"
        }
      ],
      "stateMutability": "pure",
      "type": "function"
    },
    {
      "inputs": [],
      "name": "EXTENDED_BALLOT_TYPEHASH",
      "outputs": [
        {
          "internalType": "bytes32",
          "name": "",
          "type": "bytes32"
        }
      ],
      "stateMutability": "view",
      "type": "function"
    },
    {
      "inputs": [],
      "name": "MAX_VOTING_POWER_TIER",
      "outputs": [
        {
          "internalType": "uint256",
          "name": "",
          "type": "uint256"
        }
      ],
      "stateMutability": "view",
      "type": "function"
    },
    {
      "inputs": [
        {
          "internalType": "uint256",
          "name": "_scorecardId",
          "type": "uint256"
        }
      ],
      "name": "attestToScorecard",
      "outputs": [],
      "stateMutability": "nonpayable",
      "type": "function"
    },
    {
      "inputs": [
        {
          "internalType": "uint256",
          "name": "_scorecardId",
          "type": "uint256"
        },
        {
          "internalType": "bytes",
          "name": "params",
          "type": "bytes"
        }
      ],
      "name": "attestToScorecardWithReasonAndParams",
      "outputs": [],
      "stateMutability": "nonpayable",
      "type": "function"
    },
    {
      "inputs": [
        {
          "internalType": "uint256",
          "name": "proposalId",
          "type": "uint256"
        },
        {
          "internalType": "uint8",
          "name": "support",
          "type": "uint8"
        }
      ],
      "name": "castVote",
      "outputs": [
        {
          "internalType": "uint256",
          "name": "",
          "type": "uint256"
        }
      ],
      "stateMutability": "nonpayable",
      "type": "function"
    },
    {
      "inputs": [
        {
          "internalType": "uint256",
          "name": "proposalId",
          "type": "uint256"
        },
        {
          "internalType": "uint8",
          "name": "support",
          "type": "uint8"
        },
        {
          "internalType": "uint8",
          "name": "v",
          "type": "uint8"
        },
        {
          "internalType": "bytes32",
          "name": "r",
          "type": "bytes32"
        },
        {
          "internalType": "bytes32",
          "name": "s",
          "type": "bytes32"
        }
      ],
      "name": "castVoteBySig",
      "outputs": [
        {
          "internalType": "uint256",
          "name": "",
          "type": "uint256"
        }
      ],
      "stateMutability": "nonpayable",
      "type": "function"
    },
    {
      "inputs": [
        {
          "internalType": "uint256",
          "name": "proposalId",
          "type": "uint256"
        },
        {
          "internalType": "uint8",
          "name": "support",
          "type": "uint8"
        },
        {
          "internalType": "string",
          "name": "reason",
          "type": "string"
        }
      ],
      "name": "castVoteWithReason",
      "outputs": [
        {
          "internalType": "uint256",
          "name": "",
          "type": "uint256"
        }
      ],
      "stateMutability": "nonpayable",
      "type": "function"
    },
    {
      "inputs": [
        {
          "internalType": "uint256",
          "name": "proposalId",
          "type": "uint256"
        },
        {
          "internalType": "uint8",
          "name": "support",
          "type": "uint8"
        },
        {
          "internalType": "string",
          "name": "reason",
          "type": "string"
        },
        {
          "internalType": "bytes",
          "name": "params",
          "type": "bytes"
        }
      ],
      "name": "castVoteWithReasonAndParams",
      "outputs": [
        {
          "internalType": "uint256",
          "name": "",
          "type": "uint256"
        }
      ],
      "stateMutability": "nonpayable",
      "type": "function"
    },
    {
      "inputs": [
        {
          "internalType": "uint256",
          "name": "proposalId",
          "type": "uint256"
        },
        {
          "internalType": "uint8",
          "name": "support",
          "type": "uint8"
        },
        {
          "internalType": "string",
          "name": "reason",
          "type": "string"
        },
        {
          "internalType": "bytes",
          "name": "params",
          "type": "bytes"
        },
        {
          "internalType": "uint8",
          "name": "v",
          "type": "uint8"
        },
        {
          "internalType": "bytes32",
          "name": "r",
          "type": "bytes32"
        },
        {
          "internalType": "bytes32",
          "name": "s",
          "type": "bytes32"
        }
      ],
      "name": "castVoteWithReasonAndParamsBySig",
      "outputs": [
        {
          "internalType": "uint256",
          "name": "",
          "type": "uint256"
        }
      ],
      "stateMutability": "nonpayable",
      "type": "function"
    },
    {
      "inputs": [],
      "name": "defifaDelegate",
      "outputs": [
        {
          "internalType": "contract IDefifaDelegate",
          "name": "",
          "type": "address"
        }
      ],
      "stateMutability": "view",
      "type": "function"
    },
    {
      "inputs": [
        {
          "internalType": "address[]",
          "name": "targets",
          "type": "address[]"
        },
        {
          "internalType": "uint256[]",
          "name": "values",
          "type": "uint256[]"
        },
        {
          "internalType": "bytes[]",
          "name": "calldatas",
          "type": "bytes[]"
        },
        {
          "internalType": "bytes32",
          "name": "descriptionHash",
          "type": "bytes32"
        }
      ],
      "name": "execute",
      "outputs": [
        {
          "internalType": "uint256",
          "name": "",
          "type": "uint256"
        }
      ],
      "stateMutability": "payable",
      "type": "function"
    },
    {
      "inputs": [
        {
          "internalType": "address",
          "name": "account",
          "type": "address"
        },
        {
          "internalType": "uint256",
          "name": "blockNumber",
          "type": "uint256"
        }
      ],
      "name": "getVotes",
      "outputs": [
        {
          "internalType": "uint256",
          "name": "",
          "type": "uint256"
        }
      ],
      "stateMutability": "view",
      "type": "function"
    },
    {
      "inputs": [
        {
          "internalType": "address",
          "name": "account",
          "type": "address"
        },
        {
          "internalType": "uint256",
          "name": "blockNumber",
          "type": "uint256"
        },
        {
          "internalType": "bytes",
          "name": "params",
          "type": "bytes"
        }
      ],
      "name": "getVotesWithParams",
      "outputs": [
        {
          "internalType": "uint256",
          "name": "",
          "type": "uint256"
        }
      ],
      "stateMutability": "view",
      "type": "function"
    },
    {
      "inputs": [
        {
          "internalType": "uint256",
          "name": "proposalId",
          "type": "uint256"
        },
        {
          "internalType": "address",
          "name": "account",
          "type": "address"
        }
      ],
      "name": "hasVoted",
      "outputs": [
        {
          "internalType": "bool",
          "name": "",
          "type": "bool"
        }
      ],
      "stateMutability": "view",
      "type": "function"
    },
    {
      "inputs": [
        {
          "internalType": "address[]",
          "name": "targets",
          "type": "address[]"
        },
        {
          "internalType": "uint256[]",
          "name": "values",
          "type": "uint256[]"
        },
        {
          "internalType": "bytes[]",
          "name": "calldatas",
          "type": "bytes[]"
        },
        {
          "internalType": "bytes32",
          "name": "descriptionHash",
          "type": "bytes32"
        }
      ],
      "name": "hashProposal",
      "outputs": [
        {
          "internalType": "uint256",
          "name": "",
          "type": "uint256"
        }
      ],
      "stateMutability": "pure",
      "type": "function"
    },
    {
      "inputs": [],
      "name": "name",
      "outputs": [
        {
          "internalType": "string",
          "name": "",
          "type": "string"
        }
      ],
      "stateMutability": "view",
      "type": "function"
    },
    {
      "inputs": [
        {
          "internalType": "address",
          "name": "",
          "type": "address"
        },
        {
          "internalType": "address",
          "name": "",
          "type": "address"
        },
        {
          "internalType": "uint256[]",
          "name": "",
          "type": "uint256[]"
        },
        {
          "internalType": "uint256[]",
          "name": "",
          "type": "uint256[]"
        },
        {
          "internalType": "bytes",
          "name": "",
          "type": "bytes"
        }
      ],
      "name": "onERC1155BatchReceived",
      "outputs": [
        {
          "internalType": "bytes4",
          "name": "",
          "type": "bytes4"
        }
      ],
      "stateMutability": "nonpayable",
      "type": "function"
    },
    {
      "inputs": [
        {
          "internalType": "address",
          "name": "",
          "type": "address"
        },
        {
          "internalType": "address",
          "name": "",
          "type": "address"
        },
        {
          "internalType": "uint256",
          "name": "",
          "type": "uint256"
        },
        {
          "internalType": "uint256",
          "name": "",
          "type": "uint256"
        },
        {
          "internalType": "bytes",
          "name": "",
          "type": "bytes"
        }
      ],
      "name": "onERC1155Received",
      "outputs": [
        {
          "internalType": "bytes4",
          "name": "",
          "type": "bytes4"
        }
      ],
      "stateMutability": "nonpayable",
      "type": "function"
    },
    {
      "inputs": [
        {
          "internalType": "address",
          "name": "",
          "type": "address"
        },
        {
          "internalType": "address",
          "name": "",
          "type": "address"
        },
        {
          "internalType": "uint256",
          "name": "",
          "type": "uint256"
        },
        {
          "internalType": "bytes",
          "name": "",
          "type": "bytes"
        }
      ],
      "name": "onERC721Received",
      "outputs": [
        {
          "internalType": "bytes4",
          "name": "",
          "type": "bytes4"
        }
      ],
      "stateMutability": "nonpayable",
      "type": "function"
    },
    {
      "inputs": [
        {
          "internalType": "uint256",
          "name": "proposalId",
          "type": "uint256"
        }
      ],
      "name": "proposalDeadline",
      "outputs": [
        {
          "internalType": "uint256",
          "name": "",
          "type": "uint256"
        }
      ],
      "stateMutability": "view",
      "type": "function"
    },
    {
      "inputs": [
        {
          "internalType": "uint256",
          "name": "proposalId",
          "type": "uint256"
        }
      ],
      "name": "proposalSnapshot",
      "outputs": [
        {
          "internalType": "uint256",
          "name": "",
          "type": "uint256"
        }
      ],
      "stateMutability": "view",
      "type": "function"
    },
    {
      "inputs": [],
      "name": "proposalThreshold",
      "outputs": [
        {
          "internalType": "uint256",
          "name": "",
          "type": "uint256"
        }
      ],
      "stateMutability": "pure",
      "type": "function"
    },
    {
      "inputs": [
        {
          "internalType": "uint256",
          "name": "proposalId",
          "type": "uint256"
        }
      ],
      "name": "proposalVotes",
      "outputs": [
        {
          "internalType": "uint256",
          "name": "againstVotes",
          "type": "uint256"
        },
        {
          "internalType": "uint256",
          "name": "forVotes",
          "type": "uint256"
        },
        {
          "internalType": "uint256",
          "name": "abstainVotes",
          "type": "uint256"
        }
      ],
      "stateMutability": "view",
      "type": "function"
    },
    {
      "inputs": [
        {
          "internalType": "address[]",
          "name": "targets",
          "type": "address[]"
        },
        {
          "internalType": "uint256[]",
          "name": "values",
          "type": "uint256[]"
        },
        {
          "internalType": "bytes[]",
          "name": "calldatas",
          "type": "bytes[]"
        },
        {
          "internalType": "string",
          "name": "description",
          "type": "string"
        }
      ],
      "name": "propose",
      "outputs": [
        {
          "internalType": "uint256",
          "name": "",
          "type": "uint256"
        }
      ],
      "stateMutability": "nonpayable",
      "type": "function"
    },
    {
      "inputs": [
        {
          "internalType": "uint256",
          "name": "",
          "type": "uint256"
        }
      ],
      "name": "quorum",
      "outputs": [
        {
          "internalType": "uint256",
          "name": "",
          "type": "uint256"
        }
      ],
      "stateMutability": "view",
      "type": "function"
    },
    {
      "inputs": [
        {
          "components": [
            {
              "internalType": "uint256",
              "name": "id",
              "type": "uint256"
            },
            {
              "internalType": "uint256",
              "name": "redemptionWeight",
              "type": "uint256"
            }
          ],
          "internalType": "struct DefifaTierRedemptionWeight[]",
          "name": "_tierWeights",
          "type": "tuple[]"
        }
      ],
      "name": "ratifyScorecard",
      "outputs": [
        {
          "internalType": "uint256",
          "name": "",
          "type": "uint256"
        }
      ],
      "stateMutability": "nonpayable",
      "type": "function"
    },
    {
      "inputs": [
        {
          "internalType": "address",
          "name": "target",
          "type": "address"
        },
        {
          "internalType": "uint256",
          "name": "value",
          "type": "uint256"
        },
        {
          "internalType": "bytes",
          "name": "data",
          "type": "bytes"
        }
      ],
      "name": "relay",
      "outputs": [],
      "stateMutability": "nonpayable",
      "type": "function"
    },
    {
      "inputs": [
        {
          "internalType": "uint256",
          "name": "proposalId",
          "type": "uint256"
        }
      ],
      "name": "state",
      "outputs": [
        {
          "internalType": "enum IGovernor.ProposalState",
          "name": "",
          "type": "uint8"
        }
      ],
      "stateMutability": "view",
      "type": "function"
    },
    {
      "inputs": [
        {
          "components": [
            {
              "internalType": "uint256",
              "name": "id",
              "type": "uint256"
            },
            {
              "internalType": "uint256",
              "name": "redemptionWeight",
              "type": "uint256"
            }
          ],
          "internalType": "struct DefifaTierRedemptionWeight[]",
          "name": "_tierWeights",
          "type": "tuple[]"
        }
      ],
      "name": "submitScorecards",
      "outputs": [
        {
          "internalType": "uint256",
          "name": "",
          "type": "uint256"
        }
      ],
      "stateMutability": "nonpayable",
      "type": "function"
    },
    {
      "inputs": [
        {
          "internalType": "bytes4",
          "name": "interfaceId",
          "type": "bytes4"
        }
      ],
      "name": "supportsInterface",
      "outputs": [
        {
          "internalType": "bool",
          "name": "",
          "type": "bool"
        }
      ],
      "stateMutability": "view",
      "type": "function"
    },
    {
      "inputs": [],
      "name": "version",
      "outputs": [
        {
          "internalType": "string",
          "name": "",
          "type": "string"
        }
      ],
      "stateMutability": "view",
      "type": "function"
    },
    {
      "inputs": [],
      "name": "votingDelay",
      "outputs": [
        {
          "internalType": "uint256",
          "name": "",
          "type": "uint256"
        }
      ],
      "stateMutability": "view",
      "type": "function"
    },
    {
      "inputs": [],
      "name": "votingPeriod",
      "outputs": [
        {
          "internalType": "uint256",
          "name": "",
          "type": "uint256"
        }
      ],
      "stateMutability": "pure",
      "type": "function"
    },
    {
      "inputs": [],
      "name": "votingStartTime",
      "outputs": [
        {
          "internalType": "uint256",
          "name": "",
          "type": "uint256"
        }
      ],
      "stateMutability": "view",
      "type": "function"
    },
    {
      "stateMutability": "payable",
      "type": "receive"
    }
  ],
  "bytecode": {
    "object": "0x6101806040523480156200001257600080fd5b50604051620038f7380380620038f7833981016040819052620000359162000132565b60408051808201909152600e81526d2232b334b330a3b7bb32b93737b960911b6020820152806200007a6040805180820190915260018152603160f81b602082015290565b815160209283012081519183019190912060e08290526101008190524660a0818152604080517f8b73c3c69bb8fe3d512ecc4cf759cc79239f7b179b0ffacaa9a75d522b39400f818801819052818301969096526060810194909452608080850193909352308483018190528151808603909301835260c09485019091528151919095012090529190915261012052600062000117828262000213565b50506001600160a01b039091166101405261016052620002df565b600080604083850312156200014657600080fd5b82516001600160a01b03811681146200015e57600080fd5b6020939093015192949293505050565b634e487b7160e01b600052604160045260246000fd5b600181811c908216806200019957607f821691505b602082108103620001ba57634e487b7160e01b600052602260045260246000fd5b50919050565b601f8211156200020e57600081815260208120601f850160051c81016020861015620001e95750805b601f850160051c820191505b818110156200020a57828155600101620001f5565b5050505b505050565b81516001600160401b038111156200022f576200022f6200016e565b620002478162000240845462000184565b84620001c0565b602080601f8311600181146200027f5760008415620002665750858301515b600019600386901b1c1916600185901b1785556200020a565b600085815260208120601f198616915b82811015620002b0578886015182559484019460019091019084016200028f565b5085821015620002cf5787850151600019600388901b60f8161c191681555b5050505050600190811b01905550565b60805160a05160c05160e05161010051610120516101405161016051613573620003846000396000818161032e01528181610afc0152610b2e01526000818161052c01528181610f0d01528181610fa40152818161126f015281816113060152818161160b01528181611a7d0152611b2301526000611ce401526000611d3301526000611d0e01526000611c6701526000611c9101526000611cbb01526135736000f3fe6080604052600436106102135760003560e01c806358d5ac0a11610118578063bc197c81116100a0578063dd4e2ba51161006f578063dd4e2ba5146106e6578063deaaa7cc1461072c578063eb9019d414610760578063f23a6e6114610780578063f8ce560a146107ac57600080fd5b8063bc197c811461065a578063c01f9e3714610686578063c28bc2fa146106a6578063c59057e4146106c657600080fd5b80637b3c71d3116100e75780637b3c71d3146105c65780637c8bd0ed146105e65780637d5e81e2146106065780639a802a6d14610626578063b58131b01461064657600080fd5b806358d5ac0a1461051a57806359f397bd146105665780635f398a141461058657806364d87a61146105a657600080fd5b80632fe3e2611161019b578063438596321161016a57806343859632146104195780634b501fbd14610463578063544ffc9c1461047b57806354fd4d50146104d057806356781388146104fa57600080fd5b80632fe3e261146103835780633932abb1146103b75780633bccf4fd146103cc5780633e4f49e6146103ec57600080fd5b8063150b7a02116101e2578063150b7a02146102b857806319f82536146102fc5780632019a6081461031c5780632656227d146103505780632d63f6931461036357600080fd5b806301ffc9a71461022157806302a251a314610256578063034201811461027657806306fdde031461029657600080fd5b3661021c57005b005b600080fd5b34801561022d57600080fd5b5061024161023c3660046125a7565b6107d1565b60405190151581526020015b60405180910390f35b34801561026257600080fd5b506201881d5b60405190815260200161024d565b34801561028257600080fd5b506102686102913660046126ec565b6107e2565b3480156102a257600080fd5b506102ab6108da565b60405161024d91906127e2565b3480156102c457600080fd5b506102e36102d336600461280a565b630a85bd0160e11b949350505050565b6040516001600160e01b0319909116815260200161024d565b34801561030857600080fd5b5061021a610317366004612875565b61096c565b34801561032857600080fd5b506102687f000000000000000000000000000000000000000000000000000000000000000081565b61026861035e3660046129ff565b610994565b34801561036f57600080fd5b5061026861037e366004612875565b610ac0565b34801561038f57600080fd5b506102687fb3b3f3b703cd84ce352197dcff232b1b5d3cfb2025ce47cf04742d0651f1af8881565b3480156103c357600080fd5b50610268610af7565b3480156103d857600080fd5b506102686103e7366004612a8e565b610b5c565b3480156103f857600080fd5b5061040c610407366004612875565b610bd2565b60405161024d9190612af2565b34801561042557600080fd5b50610241610434366004612b1a565b60008281526004602090815260408083206001600160a01b038516845260030190915290205460ff1692915050565b34801561046f57600080fd5b50610268633b9aca0081565b34801561048757600080fd5b506104b5610496366004612875565b6000908152600460205260409020805460018201546002909201549092565b6040805193845260208401929092529082015260600161024d565b3480156104dc57600080fd5b506040805180820190915260018152603160f81b60208201526102ab565b34801561050657600080fd5b50610268610515366004612b4a565b610bdd565b34801561052657600080fd5b5061054e7f000000000000000000000000000000000000000000000000000000000000000081565b6040516001600160a01b03909116815260200161024d565b34801561057257600080fd5b50610268610581366004612b76565b610c06565b34801561059257600080fd5b506102686105a1366004612bea565b610c92565b3480156105b257600080fd5b506102686105c1366004612b76565b610cdc565b3480156105d257600080fd5b506102686105e1366004612c6d565b610d1e565b3480156105f257600080fd5b5061021a610601366004612cc6565b610d66565b34801561061257600080fd5b50610268610621366004612d0c565b610d88565b34801561063257600080fd5b50610268610641366004612dc0565b610dbf565b34801561065257600080fd5b506000610268565b34801561066657600080fd5b506102e3610675366004612e18565b63bc197c8160e01b95945050505050565b34801561069257600080fd5b506102686106a1366004612875565b610dd6565b3480156106b257600080fd5b5061021a6106c1366004612eab565b610e05565b3480156106d257600080fd5b506102686106e13660046129ff565b610eb4565b3480156106f257600080fd5b506040805180820190915260208082527f737570706f72743d627261766f2671756f72756d3d666f722c6162737461696e908201526102ab565b34801561073857600080fd5b506102687f150214d74d59b7d1e90c73fc22ef3d991dd0a76b046543d4d80ab92d2a50328f81565b34801561076c57600080fd5b5061026861077b366004612eee565b610eee565b34801561078c57600080fd5b506102e361079b366004612f1a565b63f23a6e6160e01b95945050505050565b3480156107b857600080fd5b506102686107c7366004612875565b610f02565b905090565b60006107dc8261102d565b92915050565b60008061088661087e7fb3b3f3b703cd84ce352197dcff232b1b5d3cfb2025ce47cf04742d0651f1af888c8c8c8c60405161081e929190612f82565b60405180910390208b80519060200120604051602001610863959493929190948552602085019390935260ff9190911660408401526060830152608082015260a00190565b60405160208183030381529060405280519060200120611098565b8686866110e6565b90506108cc8a828b8b8b8080601f0160208091040260200160405190810160405280939291908181526020018383808284376000920191909152508d9250611104915050565b9a9950505050505050505050565b6060600080546108e990612f92565b80601f016020809104026020016040519081016040528092919081815260200182805461091590612f92565b80156109625780601f1061093757610100808354040283529160200191610962565b820191906000526020600020905b81548152906001019060200180831161094557829003601f168201915b5050505050905090565b610990813360016040518060200160405280600081525061098b611269565b611104565b5050565b6000806109a386868686610eb4565b905060006109b082610bd2565b905060048160078111156109c6576109c6612adc565b14806109e3575060058160078111156109e1576109e1612adc565b145b610a3e5760405162461bcd60e51b815260206004820152602160248201527f476f7665726e6f723a2070726f706f73616c206e6f74207375636365737366756044820152601b60fa1b60648201526084015b60405180910390fd5b600082815260016020818152604092839020600201805460ff191690921790915590518381527f712ae1383f79ac853f8d882153778e0260ef8f03b504e2866e0593e04d2b291f910160405180910390a1610a9c8288888888611426565b610aa982888888886114b2565b610ab68288888888611426565b5095945050505050565b60008181526001602090815260408083208151928301909152546001600160401b0316908190525b6001600160401b031692915050565b6000427f000000000000000000000000000000000000000000000000000000000000000011610b265750600090565b600c610b52427f0000000000000000000000000000000000000000000000000000000000000000612fe2565b6107cc919061300b565b604080517f150214d74d59b7d1e90c73fc22ef3d991dd0a76b046543d4d80ab92d2a50328f602082015290810186905260ff851660608201526000908190610baa9061087e90608001610863565b9050610bc7878288604051806020016040528060008152506114bf565b979650505050505050565b60006107dc826114d0565b600080339050610bfe848285604051806020016040528060008152506114bf565b949350505050565b600080600080610c1686866115df565b604051633eaf40f160e11b815292955090935091503090637d5e81e290610c45908690869086906004016130f6565b6020604051808303816000875af1158015610c64573d6000803e3d6000fd5b505050506040513d601f19601f82011682018060405250810190610c88919061314b565b9695505050505050565b600080339050610bc787828888888080601f0160208091040260200160405190810160405280939291908181526020018383808284376000920191909152508a9250611104915050565b600080600080610cec86866115df565b925092509250610c888383837fc5d2460186f7233c927e7db2dcc703c0e500b653ca82273b7bfad8045d85a470610994565b600080339050610c8886828787878080601f0160208091040260200160405190810160405280939291908181526020018383808284376000920191909152506114bf92505050565b610d83823360016040518060200160405280600081525085611104565b505050565b6000333014610daa57604051631596f13360e31b815260040160405180910390fd5b610db685858585611726565b95945050505050565b6000610dcc8484846119e3565b90505b9392505050565b60008181526001602081815260408084208151928301909152909101546001600160401b031690819052610ae8565b333014610e545760405162461bcd60e51b815260206004820152601860248201527f476f7665726e6f723a206f6e6c79476f7665726e616e636500000000000000006044820152606401610a35565b610e6b565b80610e646002611bb5565b03610e5957505b610ead8483838080601f016020809104026020016040519081016040528093929190818152602001838380828437600092019190915250889250611c34915050565b5050505050565b600084848484604051602001610ecd9493929190613164565b60408051601f19818403018152919052805160209091012095945050505050565b6000610dcf8383610efd611269565b6119e3565b6000633b9aca0060027f00000000000000000000000000000000000000000000000000000000000000006001600160a01b031663975057e76040518163ffffffff1660e01b8152600401602060405180830381865afa158015610f69573d6000803e3d6000fd5b505050506040513d601f19601f82011682018060405250810190610f8d91906131af565b60405163f1bea54f60e01b81526001600160a01b037f000000000000000000000000000000000000000000000000000000000000000081166004830152919091169063f1bea54f90602401602060405180830381865afa158015610ff5573d6000803e3d6000fd5b505050506040513d601f19601f82011682018060405250810190611019919061314b565b611023919061300b565b6107dc91906131cc565b60006001600160e01b0319821663bf26d89760e01b148061105e57506001600160e01b031982166379dd796f60e01b145b8061107957506001600160e01b03198216630271189760e51b145b806107dc57506301ffc9a760e01b6001600160e01b03198316146107dc565b60006107dc6110a5611c5a565b8360405161190160f01b6020820152602281018390526042810182905260009060620160405160208183030381529060405280519060200120905092915050565b60008060006110f787878787611d81565b91509150610ab681611e6e565b600085815260016020819052604082209061111e88610bd2565b600781111561112f5761112f612adc565b146111885760405162461bcd60e51b815260206004820152602360248201527f476f7665726e6f723a20766f7465206e6f742063757272656e746c792061637460448201526269766560e81b6064820152608401610a35565b604080516020810190915281546001600160401b0316908190526000906111b1908890866119e3565b90506111c08888888488612027565b835160000361121557866001600160a01b03167fb8e138887d0aa13bab447e82de9d5c1777041ecd21ca36ba824ff1e6c07ddda48988848960405161120894939291906131eb565b60405180910390a2610bc7565b866001600160a01b03167fe2babfbac5889a709b63bb7f598b324e08bc5a4fb9ec647fb3cbc9ec07eb87128988848989604051611256959493929190613213565b60405180910390a2979650505050505050565b606060007f00000000000000000000000000000000000000000000000000000000000000006001600160a01b031663975057e76040518163ffffffff1660e01b8152600401602060405180830381865afa1580156112cb573d6000803e3d6000fd5b505050506040513d601f19601f820116820180604052508101906112ef91906131af565b60405163f1bea54f60e01b81526001600160a01b037f000000000000000000000000000000000000000000000000000000000000000081166004830152919091169063f1bea54f90602401602060405180830381865afa158015611357573d6000803e3d6000fd5b505050506040513d601f19601f8201168201806040525081019061137b919061314b565b90506000816001600160401b038111156113975761139761262f565b6040519080825280602002602001820160405280156113c0578160200160208202803683370190505b50905060005b828110156113fe576113d9816001613259565b8282815181106113eb576113eb61326c565b60209081029190910101526001016113c6565b50806040516020016114109190613282565b6040516020818303038152906040529250505090565b610ead565b84518110156114aa57306001600160a01b03168582815181106114505761145061326c565b60200260200101516001600160a01b03160361149a5761149a83828151811061147b5761147b61326c565b60200260200101518051906020012060026121a190919063ffffffff16565b6114a381613295565b905061142b565b505050505050565b610ead85858585856121dd565b6000610db68585858561098b611269565b6000818152600160205260408120600281015460ff16156114f45750600792915050565b6002810154610100900460ff161561150f5750600292915050565b600061151a84610ac0565b90508060000361156c5760405162461bcd60e51b815260206004820152601d60248201527f476f7665726e6f723a20756e6b6e6f776e2070726f706f73616c2069640000006044820152606401610a35565b43811061157d575060009392505050565b600061158885610dd6565b905043811061159c57506001949350505050565b6115a5856122dc565b80156115c4575060008581526004602052604090208054600190910154115b156115d457506004949350505050565b506003949350505050565b6040805160018082528183019092526060918291829160009190602080830190803683370190505090507f00000000000000000000000000000000000000000000000000000000000000008160008151811061163d5761163d61326c565b6001600160a01b0392909216602092830291909101909101526040805160018082528183019092526000918160200160208202803683370190505090506000632f44150060e01b88886040516024016116979291906132ae565b60408051601f19818403018152918152602080830180516001600160e01b03166001600160e01b031995909516949094179093528051600180825281830190925291935060009282015b60608152602001906001900390816116e1579050509050818160008151811061170c5761170c61326c565b602090810291909101015292989197509195509350505050565b6000806117383361077b600143612fe2565b10156117a05760405162461bcd60e51b815260206004820152603160248201527f476f7665726e6f723a2070726f706f73657220766f7465732062656c6f7720706044820152701c9bdc1bdcd85b081d1a1c995cda1bdb19607a1b6064820152608401610a35565b60006117b58686868680519060200120610eb4565b905084518651146117d85760405162461bcd60e51b8152600401610a35906132f5565b83518651146117f95760405162461bcd60e51b8152600401610a35906132f5565b600086511161184a5760405162461bcd60e51b815260206004820152601860248201527f476f7665726e6f723a20656d7074792070726f706f73616c00000000000000006044820152606401610a35565b600081815260016020908152604091829020825191820190925281546001600160401b031690819052156118ca5760405162461bcd60e51b815260206004820152602160248201527f476f7665726e6f723a2070726f706f73616c20616c72656164792065786973746044820152607360f81b6064820152608401610a35565b60006118dc6118d7610af7565b612313565b6118e543612313565b6118ef9190613336565b905060006118ff6201881d612313565b6119099083613336565b835467ffffffffffffffff19166001600160401b038416178455905060018301805467ffffffffffffffff19166001600160401b0383161790557f7d84a6263ae0d98d3329bd7b46bb4e8d6f98cd35a7adb45c274c8b7fd5ebd5e084338b8b8d516001600160401b038111156119815761198161262f565b6040519080825280602002602001820160405280156119b457816020015b606081526020019060019003908161199f5790505b508c88888e6040516119ce9998979695949392919061335d565b60405180910390a15091979650505050505050565b600080828060200190518101906119fa919061344c565b8051909150600080805b83811015611ba957848181518110611a1e57611a1e61326c565b60200260200101519150828211611a48576040516305ede6cb60e11b815260040160405180910390fd5b604051636a0738a360e11b81526001600160a01b038a8116600483015260248201849052604482018a905292935083926000917f00000000000000000000000000000000000000000000000000000000000000009091169063d40e714690606401602060405180830381865afa158015611ac6573d6000803e3d6000fd5b505050506040513d601f19601f82011682018060405250810190611aea919061314b565b90508015611b98576040516334c7314b60e21b815260048101849052602481018a9052611b9390633b9aca009083906001600160a01b037f0000000000000000000000000000000000000000000000000000000000000000169063d31cc52c90604401602060405180830381865afa158015611b6a573d6000803e3d6000fd5b505050506040513d601f19601f82011682018060405250810190611b8e919061314b565b61237f565b870196505b611ba182613295565b915050611a04565b50505050509392505050565b6000611bd08254600f81810b600160801b909204900b131590565b15611bee57604051631ed9509560e11b815260040160405180910390fd5b508054600f0b6000818152600180840160205260408220805492905583546fffffffffffffffffffffffffffffffff191692016001600160801b03169190911790915590565b6060610dcc8484846040518060600160405280602981526020016135156029913961244c565b6000306001600160a01b037f000000000000000000000000000000000000000000000000000000000000000016148015611cb357507f000000000000000000000000000000000000000000000000000000000000000046145b15611cdd57507f000000000000000000000000000000000000000000000000000000000000000090565b50604080517f00000000000000000000000000000000000000000000000000000000000000006020808301919091527f0000000000000000000000000000000000000000000000000000000000000000828401527f000000000000000000000000000000000000000000000000000000000000000060608301524660808301523060a0808401919091528351808403909101815260c0909201909252805191012090565b6000807f7fffffffffffffffffffffffffffffff5d576e7357a4501ddfe92f46681b20a0831115611db85750600090506003611e65565b8460ff16601b14158015611dd057508460ff16601c14155b15611de15750600090506004611e65565b6040805160008082526020820180845289905260ff881692820192909252606081018690526080810185905260019060a0016020604051602081039080840390855afa158015611e35573d6000803e3d6000fd5b5050604051601f1901519150506001600160a01b038116611e5e57600060019250925050611e65565b9150600090505b94509492505050565b6000816004811115611e8257611e82612adc565b03611e8a5750565b6001816004811115611e9e57611e9e612adc565b03611eeb5760405162461bcd60e51b815260206004820152601860248201527f45434453413a20696e76616c6964207369676e617475726500000000000000006044820152606401610a35565b6002816004811115611eff57611eff612adc565b03611f4c5760405162461bcd60e51b815260206004820152601f60248201527f45434453413a20696e76616c6964207369676e6174757265206c656e677468006044820152606401610a35565b6003816004811115611f6057611f60612adc565b03611fb85760405162461bcd60e51b815260206004820152602260248201527f45434453413a20696e76616c6964207369676e6174757265202773272076616c604482015261756560f01b6064820152608401610a35565b6004816004811115611fcc57611fcc612adc565b036120245760405162461bcd60e51b815260206004820152602260248201527f45434453413a20696e76616c6964207369676e6174757265202776272076616c604482015261756560f01b6064820152608401610a35565b50565b60008581526004602090815260408083206001600160a01b0388168452600381019092529091205460ff16156120af5760405162461bcd60e51b815260206004820152602760248201527f476f7665726e6f72566f74696e6753696d706c653a20766f746520616c726561604482015266191e4818d85cdd60ca1b6064820152608401610a35565b6001600160a01b03851660009081526003820160205260409020805460ff1916600117905560ff84166120fb57828160000160008282546120f09190613259565b909155506114aa9050565b60001960ff85160161211b57828160010160008282546120f09190613259565b60011960ff85160161213b57828160020160008282546120f09190613259565b60405162461bcd60e51b815260206004820152603560248201527f476f7665726e6f72566f74696e6753696d706c653a20696e76616c69642076616044820152746c756520666f7220656e756d20566f74655479706560581b6064820152608401610a35565b8154600160801b90819004600f0b6000818152600180860160205260409091209390935583546001600160801b03908116939091011602179055565b60006040518060600160405280602781526020016134ee60279139905060005b85518110156122d35760008087838151811061221b5761221b61326c565b60200260200101516001600160a01b031687848151811061223e5761223e61326c565b60200260200101518785815181106122585761225861326c565b602002602001015160405161226d91906134d1565b60006040518083038185875af1925050503d80600081146122aa576040519150601f19603f3d011682016040523d82523d6000602084013e6122af565b606091505b50915091506122bf82828661256e565b505050806122cc90613295565b90506121fd565b50505050505050565b6000818152600460205260408120600281015460018201546122fe9190613259565b61230a6107c785610ac0565b11159392505050565b60006001600160401b0382111561237b5760405162461bcd60e51b815260206004820152602660248201527f53616665436173743a2076616c756520646f65736e27742066697420696e203660448201526534206269747360d01b6064820152608401610a35565b5090565b60008080600019858709858702925082811083820303915050806000036123b9578382816123af576123af612ff5565b0492505050610dcf565b8381106123e357604051631dcf306360e21b81526004810182905260248101859052604401610a35565b60008486880960026001871981018816978890046003810283188082028403028082028403028082028403028082028403028082028403029081029092039091026000889003889004909101858311909403939093029303949094049190911702949350505050565b6060824710156124ad5760405162461bcd60e51b815260206004820152602660248201527f416464726573733a20696e73756666696369656e742062616c616e636520666f6044820152651c8818d85b1b60d21b6064820152608401610a35565b6001600160a01b0385163b6125045760405162461bcd60e51b815260206004820152601d60248201527f416464726573733a2063616c6c20746f206e6f6e2d636f6e74726163740000006044820152606401610a35565b600080866001600160a01b0316858760405161252091906134d1565b60006040518083038185875af1925050503d806000811461255d576040519150601f19603f3d011682016040523d82523d6000602084013e612562565b606091505b5091509150610bc78282865b6060831561257d575081610dcf565b82511561258d5782518084602001fd5b8160405162461bcd60e51b8152600401610a3591906127e2565b6000602082840312156125b957600080fd5b81356001600160e01b031981168114610dcf57600080fd5b803560ff811681146125e257600080fd5b919050565b60008083601f8401126125f957600080fd5b5081356001600160401b0381111561261057600080fd5b60208301915083602082850101111561262857600080fd5b9250929050565b634e487b7160e01b600052604160045260246000fd5b604051601f8201601f191681016001600160401b038111828210171561266d5761266d61262f565b604052919050565b60006001600160401b0383111561268e5761268e61262f565b6126a1601f8401601f1916602001612645565b90508281528383830111156126b557600080fd5b828260208301376000602084830101529392505050565b600082601f8301126126dd57600080fd5b610dcf83833560208501612675565b60008060008060008060008060e0898b03121561270857600080fd5b8835975061271860208a016125d1565b965060408901356001600160401b038082111561273457600080fd5b6127408c838d016125e7565b909850965060608b013591508082111561275957600080fd5b506127668b828c016126cc565b94505061277560808a016125d1565b925060a0890135915060c089013590509295985092959890939650565b60005b838110156127ad578181015183820152602001612795565b50506000910152565b600081518084526127ce816020860160208601612792565b601f01601f19169290920160200192915050565b602081526000610dcf60208301846127b6565b6001600160a01b038116811461202457600080fd5b6000806000806080858703121561282057600080fd5b843561282b816127f5565b9350602085013561283b816127f5565b92506040850135915060608501356001600160401b0381111561285d57600080fd5b612869878288016126cc565b91505092959194509250565b60006020828403121561288757600080fd5b5035919050565b60006001600160401b038211156128a7576128a761262f565b5060051b60200190565b600082601f8301126128c257600080fd5b813560206128d76128d28361288e565b612645565b82815260059290921b840181019181810190868411156128f657600080fd5b8286015b8481101561291a57803561290d816127f5565b83529183019183016128fa565b509695505050505050565b600082601f83011261293657600080fd5b813560206129466128d28361288e565b82815260059290921b8401810191818101908684111561296557600080fd5b8286015b8481101561291a5780358352918301918301612969565b600082601f83011261299157600080fd5b813560206129a16128d28361288e565b82815260059290921b840181019181810190868411156129c057600080fd5b8286015b8481101561291a5780356001600160401b038111156129e35760008081fd5b6129f18986838b01016126cc565b8452509183019183016129c4565b60008060008060808587031215612a1557600080fd5b84356001600160401b0380821115612a2c57600080fd5b612a38888389016128b1565b95506020870135915080821115612a4e57600080fd5b612a5a88838901612925565b94506040870135915080821115612a7057600080fd5b50612a7d87828801612980565b949793965093946060013593505050565b600080600080600060a08688031215612aa657600080fd5b85359450612ab6602087016125d1565b9350612ac4604087016125d1565b94979396509394606081013594506080013592915050565b634e487b7160e01b600052602160045260246000fd5b6020810160088310612b1457634e487b7160e01b600052602160045260246000fd5b91905290565b60008060408385031215612b2d57600080fd5b823591506020830135612b3f816127f5565b809150509250929050565b60008060408385031215612b5d57600080fd5b82359150612b6d602084016125d1565b90509250929050565b60008060208385031215612b8957600080fd5b82356001600160401b0380821115612ba057600080fd5b818501915085601f830112612bb457600080fd5b813581811115612bc357600080fd5b8660208260061b8501011115612bd857600080fd5b60209290920196919550909350505050565b600080600080600060808688031215612c0257600080fd5b85359450612c12602087016125d1565b935060408601356001600160401b0380821115612c2e57600080fd5b612c3a89838a016125e7565b90955093506060880135915080821115612c5357600080fd5b50612c60888289016126cc565b9150509295509295909350565b60008060008060608587031215612c8357600080fd5b84359350612c93602086016125d1565b925060408501356001600160401b03811115612cae57600080fd5b612cba878288016125e7565b95989497509550505050565b60008060408385031215612cd957600080fd5b8235915060208301356001600160401b03811115612cf657600080fd5b612d02858286016126cc565b9150509250929050565b60008060008060808587031215612d2257600080fd5b84356001600160401b0380821115612d3957600080fd5b612d45888389016128b1565b95506020870135915080821115612d5b57600080fd5b612d6788838901612925565b94506040870135915080821115612d7d57600080fd5b612d8988838901612980565b93506060870135915080821115612d9f57600080fd5b508501601f81018713612db157600080fd5b61286987823560208401612675565b600080600060608486031215612dd557600080fd5b8335612de0816127f5565b92506020840135915060408401356001600160401b03811115612e0257600080fd5b612e0e868287016126cc565b9150509250925092565b600080600080600060a08688031215612e3057600080fd5b8535612e3b816127f5565b94506020860135612e4b816127f5565b935060408601356001600160401b0380821115612e6757600080fd5b612e7389838a01612925565b94506060880135915080821115612e8957600080fd5b612e9589838a01612925565b93506080880135915080821115612c5357600080fd5b60008060008060608587031215612ec157600080fd5b8435612ecc816127f5565b93506020850135925060408501356001600160401b03811115612cae57600080fd5b60008060408385031215612f0157600080fd5b8235612f0c816127f5565b946020939093013593505050565b600080600080600060a08688031215612f3257600080fd5b8535612f3d816127f5565b94506020860135612f4d816127f5565b9350604086013592506060860135915060808601356001600160401b03811115612f7657600080fd5b612c60888289016126cc565b8183823760009101908152919050565b600181811c90821680612fa657607f821691505b602082108103612fc657634e487b7160e01b600052602260045260246000fd5b50919050565b634e487b7160e01b600052601160045260246000fd5b818103818111156107dc576107dc612fcc565b634e487b7160e01b600052601260045260246000fd5b60008261302857634e487b7160e01b600052601260045260246000fd5b500490565b600081518084526020808501945080840160005b838110156130665781516001600160a01b031687529582019590820190600101613041565b509495945050505050565b600081518084526020808501945080840160005b8381101561306657815187529582019590820190600101613085565b600081518084526020808501808196508360051b8101915082860160005b858110156130e95782840389526130d78483516127b6565b988501989350908401906001016130bf565b5091979650505050505050565b608081526000613109608083018661302d565b828103602084015261311b8186613071565b9050828103604084015261312f81856130a1565b8381036060909401939093525050600081526020019392505050565b60006020828403121561315d57600080fd5b5051919050565b608081526000613177608083018761302d565b82810360208401526131898187613071565b9050828103604084015261319d81866130a1565b91505082606083015295945050505050565b6000602082840312156131c157600080fd5b8151610dcf816127f5565b60008160001904831182151516156131e6576131e6612fcc565b500290565b84815260ff84166020820152826040820152608060608201526000610c8860808301846127b6565b85815260ff8516602082015283604082015260a06060820152600061323b60a08301856127b6565b828103608084015261324d81856127b6565b98975050505050505050565b808201808211156107dc576107dc612fcc565b634e487b7160e01b600052603260045260246000fd5b602081526000610dcf6020830184613071565b6000600182016132a7576132a7612fcc565b5060010190565b6020808252818101839052600090604080840186845b878110156132e85781358352848201358584015291830191908301906001016132c4565b5090979650505050505050565b60208082526021908201527f476f7665726e6f723a20696e76616c69642070726f706f73616c206c656e67746040820152600d60fb1b606082015260800190565b6001600160401b0381811683821601908082111561335657613356612fcc565b5092915050565b60006101208b8352602060018060a01b038c16818501528160408501526133868285018c61302d565b9150838203606085015261339a828b613071565b915083820360808501528189518084528284019150828160051b850101838c0160005b838110156133eb57601f198784030185526133d98383516127b6565b948601949250908501906001016133bd565b505086810360a08801526133ff818c6130a1565b94505050505061341a60c08401876001600160401b03169052565b6001600160401b03851660e084015282810361010084015261343c81856127b6565b9c9b505050505050505050505050565b6000602080838503121561345f57600080fd5b82516001600160401b0381111561347557600080fd5b8301601f8101851361348657600080fd5b80516134946128d28261288e565b81815260059190911b820183019083810190878311156134b357600080fd5b928401925b82841015610bc7578351825292840192908401906134b8565b600082516134e3818460208701612792565b919091019291505056fe476f7665726e6f723a2063616c6c20726576657274656420776974686f7574206d657373616765416464726573733a206c6f772d6c6576656c2063616c6c20776974682076616c7565206661696c6564a2646970667358221220a5812456eb58e57ac311d9e525ac8840202ef2429752bb1c5294fe320ecd353d64736f6c63430008100033",
    "linkReferences": {}
  },
  "methodIdentifiers": {
    "BALLOT_TYPEHASH()": "deaaa7cc",
    "COUNTING_MODE()": "dd4e2ba5",
    "EXTENDED_BALLOT_TYPEHASH()": "2fe3e261",
    "MAX_VOTING_POWER_TIER()": "4b501fbd",
    "attestToScorecard(uint256)": "19f82536",
    "attestToScorecardWithReasonAndParams(uint256,bytes)": "7c8bd0ed",
    "castVote(uint256,uint8)": "56781388",
    "castVoteBySig(uint256,uint8,uint8,bytes32,bytes32)": "3bccf4fd",
    "castVoteWithReason(uint256,uint8,string)": "7b3c71d3",
    "castVoteWithReasonAndParams(uint256,uint8,string,bytes)": "5f398a14",
    "castVoteWithReasonAndParamsBySig(uint256,uint8,string,bytes,uint8,bytes32,bytes32)": "03420181",
    "defifaDelegate()": "58d5ac0a",
    "execute(address[],uint256[],bytes[],bytes32)": "2656227d",
    "getVotes(address,uint256)": "eb9019d4",
    "getVotesWithParams(address,uint256,bytes)": "9a802a6d",
    "hasVoted(uint256,address)": "43859632",
    "hashProposal(address[],uint256[],bytes[],bytes32)": "c59057e4",
    "name()": "06fdde03",
    "onERC1155BatchReceived(address,address,uint256[],uint256[],bytes)": "bc197c81",
    "onERC1155Received(address,address,uint256,uint256,bytes)": "f23a6e61",
    "onERC721Received(address,address,uint256,bytes)": "150b7a02",
    "proposalDeadline(uint256)": "c01f9e37",
    "proposalSnapshot(uint256)": "2d63f693",
    "proposalThreshold()": "b58131b0",
    "proposalVotes(uint256)": "544ffc9c",
    "propose(address[],uint256[],bytes[],string)": "7d5e81e2",
    "quorum(uint256)": "f8ce560a",
    "ratifyScorecard((uint256,uint256)[])": "64d87a61",
    "relay(address,uint256,bytes)": "c28bc2fa",
    "state(uint256)": "3e4f49e6",
    "submitScorecards((uint256,uint256)[])": "59f397bd",
    "supportsInterface(bytes4)": "01ffc9a7",
    "version()": "54fd4d50",
    "votingDelay()": "3932abb1",
    "votingPeriod()": "02a251a3",
    "votingStartTime()": "2019a608"
  },
  "id": 2
}