{
  "abi": [
    {
      "inputs": [],
      "name": "ALEADY_MINTED",
      "type": "error"
    },
    {
      "inputs": [],
      "name": "APPROVAL_TO_CURRENT_OWNER",
      "type": "error"
    },
    {
      "inputs": [],
      "name": "APPROVE_TO_CALLER",
      "type": "error"
    },
    {
      "inputs": [],
      "name": "BLOCK_NOT_YET_MINED",
      "type": "error"
    },
    {
      "inputs": [],
      "name": "CALLER_NOT_OWNER_OR_APPROVED",
      "type": "error"
    },
    {
      "inputs": [],
      "name": "DELEGATE_ADDRESS_ZERO",
      "type": "error"
    },
    {
      "inputs": [],
      "name": "INCORRECT_OWNER",
      "type": "error"
    },
    {
      "inputs": [],
      "name": "INVALID_PAYMENT_EVENT",
      "type": "error"
    },
    {
      "inputs": [],
      "name": "INVALID_REDEMPTION_EVENT",
      "type": "error"
    },
    {
      "inputs": [],
      "name": "INVALID_REDEMPTION_METADATA",
      "type": "error"
    },
    {
      "inputs": [],
      "name": "INVALID_TOKEN_ID",
      "type": "error"
    },
    {
      "inputs": [],
      "name": "MINT_TO_ZERO",
      "type": "error"
    },
    {
      "inputs": [],
      "name": "NOT_AVAILABLE",
      "type": "error"
    },
    {
      "inputs": [],
      "name": "OVERSPENDING",
      "type": "error"
    },
    {
      "inputs": [
        {
          "internalType": "uint256",
          "name": "prod1",
          "type": "uint256"
        },
        {
          "internalType": "uint256",
          "name": "denominator",
          "type": "uint256"
        }
      ],
      "name": "PRBMath__MulDivOverflow",
      "type": "error"
    },
    {
      "inputs": [],
      "name": "PRICING_RESOLVER_CHANGES_PAUSED",
      "type": "error"
    },
    {
      "inputs": [],
      "name": "RESERVED_TOKEN_MINTING_PAUSED",
      "type": "error"
    },
    {
      "inputs": [],
      "name": "TRANSFERS_PAUSED",
      "type": "error"
    },
    {
      "inputs": [],
      "name": "TRANSFER_TO_NON_IMPLEMENTER",
      "type": "error"
    },
    {
      "inputs": [],
      "name": "TRANSFER_TO_ZERO_ADDRESS",
      "type": "error"
    },
    {
      "inputs": [],
      "name": "UNAUTHORIZED",
      "type": "error"
    },
    {
      "inputs": [],
      "name": "UNEXPECTED_TOKEN_REDEEMED",
      "type": "error"
    },
    {
      "anonymous": false,
      "inputs": [
        {
          "indexed": true,
          "internalType": "uint256",
          "name": "tierId",
          "type": "uint256"
        },
        {
          "components": [
            {
              "internalType": "uint80",
              "name": "contributionFloor",
              "type": "uint80"
            },
            {
              "internalType": "uint48",
              "name": "lockedUntil",
              "type": "uint48"
            },
            {
              "internalType": "uint40",
              "name": "initialQuantity",
              "type": "uint40"
            },
            {
              "internalType": "uint16",
              "name": "votingUnits",
              "type": "uint16"
            },
            {
              "internalType": "uint16",
              "name": "reservedRate",
              "type": "uint16"
            },
            {
              "internalType": "address",
              "name": "reservedTokenBeneficiary",
              "type": "address"
            },
            {
              "internalType": "bytes32",
              "name": "encodedIPFSUri",
              "type": "bytes32"
            },
            {
              "internalType": "bool",
              "name": "allowManualMint",
              "type": "bool"
            },
            {
              "internalType": "bool",
              "name": "shouldUseBeneficiaryAsDefault",
              "type": "bool"
            },
            {
              "internalType": "bool",
              "name": "transfersPausable",
              "type": "bool"
            }
          ],
          "indexed": false,
          "internalType": "struct JB721TierParams",
          "name": "data",
          "type": "tuple"
        },
        {
          "indexed": false,
          "internalType": "address",
          "name": "caller",
          "type": "address"
        }
      ],
      "name": "AddTier",
      "type": "event"
    },
    {
      "anonymous": false,
      "inputs": [
        {
          "indexed": true,
          "internalType": "address",
          "name": "owner",
          "type": "address"
        },
        {
          "indexed": true,
          "internalType": "address",
          "name": "approved",
          "type": "address"
        },
        {
          "indexed": true,
          "internalType": "uint256",
          "name": "tokenId",
          "type": "uint256"
        }
      ],
      "name": "Approval",
      "type": "event"
    },
    {
      "anonymous": false,
      "inputs": [
        {
          "indexed": true,
          "internalType": "address",
          "name": "owner",
          "type": "address"
        },
        {
          "indexed": true,
          "internalType": "address",
          "name": "operator",
          "type": "address"
        },
        {
          "indexed": false,
          "internalType": "bool",
          "name": "approved",
          "type": "bool"
        }
      ],
      "name": "ApprovalForAll",
      "type": "event"
    },
    {
      "anonymous": false,
      "inputs": [
        {
          "indexed": true,
          "internalType": "address",
          "name": "delegator",
          "type": "address"
        },
        {
          "indexed": true,
          "internalType": "address",
          "name": "fromDelegate",
          "type": "address"
        },
        {
          "indexed": true,
          "internalType": "address",
          "name": "toDelegate",
          "type": "address"
        }
      ],
      "name": "DelegateChanged",
      "type": "event"
    },
    {
      "anonymous": false,
      "inputs": [
        {
          "indexed": true,
          "internalType": "uint256",
          "name": "tokenId",
          "type": "uint256"
        },
        {
          "indexed": true,
          "internalType": "uint256",
          "name": "tierId",
          "type": "uint256"
        },
        {
          "indexed": true,
          "internalType": "address",
          "name": "beneficiary",
          "type": "address"
        },
        {
          "indexed": false,
          "internalType": "uint256",
          "name": "totalAmountContributed",
          "type": "uint256"
        },
        {
          "indexed": false,
          "internalType": "address",
          "name": "caller",
          "type": "address"
        }
      ],
      "name": "Mint",
      "type": "event"
    },
    {
      "anonymous": false,
      "inputs": [
        {
          "indexed": true,
          "internalType": "uint256",
          "name": "tokenId",
          "type": "uint256"
        },
        {
          "indexed": true,
          "internalType": "uint256",
          "name": "tierId",
          "type": "uint256"
        },
        {
          "indexed": true,
          "internalType": "address",
          "name": "beneficiary",
          "type": "address"
        },
        {
          "indexed": false,
          "internalType": "address",
          "name": "caller",
          "type": "address"
        }
      ],
      "name": "MintReservedToken",
      "type": "event"
    },
    {
      "anonymous": false,
      "inputs": [
        {
          "indexed": true,
          "internalType": "address",
          "name": "previousOwner",
          "type": "address"
        },
        {
          "indexed": true,
          "internalType": "address",
          "name": "newOwner",
          "type": "address"
        }
      ],
      "name": "OwnershipTransferred",
      "type": "event"
    },
    {
      "anonymous": false,
      "inputs": [
        {
          "indexed": true,
          "internalType": "uint256",
          "name": "tierId",
          "type": "uint256"
        },
        {
          "indexed": false,
          "internalType": "address",
          "name": "caller",
          "type": "address"
        }
      ],
      "name": "RemoveTier",
      "type": "event"
    },
    {
      "anonymous": false,
      "inputs": [
        {
          "indexed": true,
          "internalType": "string",
          "name": "baseUri",
          "type": "string"
        },
        {
          "indexed": false,
          "internalType": "address",
          "name": "caller",
          "type": "address"
        }
      ],
      "name": "SetBaseUri",
      "type": "event"
    },
    {
      "anonymous": false,
      "inputs": [
        {
          "indexed": true,
          "internalType": "string",
          "name": "contractUri",
          "type": "string"
        },
        {
          "indexed": false,
          "internalType": "address",
          "name": "caller",
          "type": "address"
        }
      ],
      "name": "SetContractUri",
      "type": "event"
    },
    {
      "anonymous": false,
      "inputs": [
        {
          "indexed": true,
          "internalType": "address",
          "name": "beneficiary",
          "type": "address"
        },
        {
          "indexed": false,
          "internalType": "address",
          "name": "caller",
          "type": "address"
        }
      ],
      "name": "SetDefaultReservedTokenBeneficiary",
      "type": "event"
    },
    {
      "anonymous": false,
      "inputs": [
        {
          "indexed": true,
          "internalType": "contract IJBTokenUriResolver",
          "name": "newResolver",
          "type": "address"
        },
        {
          "indexed": false,
          "internalType": "address",
          "name": "caller",
          "type": "address"
        }
      ],
      "name": "SetTokenUriResolver",
      "type": "event"
    },
    {
      "anonymous": false,
      "inputs": [
        {
          "indexed": true,
          "internalType": "address",
          "name": "delegator",
          "type": "address"
        },
        {
          "indexed": true,
          "internalType": "address",
          "name": "fromDelegate",
          "type": "address"
        },
        {
          "indexed": true,
          "internalType": "address",
          "name": "toDelegate",
          "type": "address"
        },
        {
          "indexed": false,
          "internalType": "uint256",
          "name": "tierId",
          "type": "uint256"
        },
        {
          "indexed": false,
          "internalType": "address",
          "name": "caller",
          "type": "address"
        }
      ],
      "name": "TierDelegateChanged",
      "type": "event"
    },
    {
      "anonymous": false,
      "inputs": [
        {
          "indexed": true,
          "internalType": "address",
          "name": "delegate",
          "type": "address"
        },
        {
          "indexed": true,
          "internalType": "uint256",
          "name": "tierId",
          "type": "uint256"
        },
        {
          "indexed": false,
          "internalType": "uint256",
          "name": "previousBalance",
          "type": "uint256"
        },
        {
          "indexed": false,
          "internalType": "uint256",
          "name": "newBalance",
          "type": "uint256"
        },
        {
          "indexed": false,
          "internalType": "address",
          "name": "caller",
          "type": "address"
        }
      ],
      "name": "TierDelegateVotesChanged",
      "type": "event"
    },
    {
      "anonymous": false,
      "inputs": [
        {
          "indexed": true,
          "internalType": "address",
          "name": "from",
          "type": "address"
        },
        {
          "indexed": true,
          "internalType": "address",
          "name": "to",
          "type": "address"
        },
        {
          "indexed": true,
          "internalType": "uint256",
          "name": "tokenId",
          "type": "uint256"
        }
      ],
      "name": "Transfer",
      "type": "event"
    },
    {
      "inputs": [
        {
          "components": [
            {
              "internalType": "uint80",
              "name": "contributionFloor",
              "type": "uint80"
            },
            {
              "internalType": "uint48",
              "name": "lockedUntil",
              "type": "uint48"
            },
            {
              "internalType": "uint40",
              "name": "initialQuantity",
              "type": "uint40"
            },
            {
              "internalType": "uint16",
              "name": "votingUnits",
              "type": "uint16"
            },
            {
              "internalType": "uint16",
              "name": "reservedRate",
              "type": "uint16"
            },
            {
              "internalType": "address",
              "name": "reservedTokenBeneficiary",
              "type": "address"
            },
            {
              "internalType": "bytes32",
              "name": "encodedIPFSUri",
              "type": "bytes32"
            },
            {
              "internalType": "bool",
              "name": "allowManualMint",
              "type": "bool"
            },
            {
              "internalType": "bool",
              "name": "shouldUseBeneficiaryAsDefault",
              "type": "bool"
            },
            {
              "internalType": "bool",
              "name": "transfersPausable",
              "type": "bool"
            }
          ],
          "internalType": "struct JB721TierParams[]",
          "name": "_tiersToAdd",
          "type": "tuple[]"
        },
        {
          "internalType": "uint256[]",
          "name": "_tierIdsToRemove",
          "type": "uint256[]"
        }
      ],
      "name": "adjustTiers",
      "outputs": [],
      "stateMutability": "nonpayable",
      "type": "function"
    },
    {
      "inputs": [
        {
          "internalType": "address",
          "name": "to",
          "type": "address"
        },
        {
          "internalType": "uint256",
          "name": "tokenId",
          "type": "uint256"
        }
      ],
      "name": "approve",
      "outputs": [],
      "stateMutability": "nonpayable",
      "type": "function"
    },
    {
      "inputs": [
        {
          "internalType": "address",
          "name": "_owner",
          "type": "address"
        }
      ],
      "name": "balanceOf",
      "outputs": [
        {
          "internalType": "uint256",
          "name": "balance",
          "type": "uint256"
        }
      ],
      "stateMutability": "view",
      "type": "function"
    },
    {
      "inputs": [],
      "name": "codeOrigin",
      "outputs": [
        {
          "internalType": "address",
          "name": "",
          "type": "address"
        }
      ],
      "stateMutability": "view",
      "type": "function"
    },
    {
      "inputs": [],
      "name": "contractURI",
      "outputs": [
        {
          "internalType": "string",
          "name": "",
          "type": "string"
        }
      ],
      "stateMutability": "view",
      "type": "function"
    },
    {
      "inputs": [
        {
          "internalType": "address",
          "name": "",
          "type": "address"
        }
      ],
      "name": "creditsOf",
      "outputs": [
        {
          "internalType": "uint256",
          "name": "",
          "type": "uint256"
        }
      ],
      "stateMutability": "view",
      "type": "function"
    },
    {
      "inputs": [
        {
          "components": [
            {
              "internalType": "address",
              "name": "payer",
              "type": "address"
            },
            {
              "internalType": "uint256",
              "name": "projectId",
              "type": "uint256"
            },
            {
              "internalType": "uint256",
              "name": "currentFundingCycleConfiguration",
              "type": "uint256"
            },
            {
              "components": [
                {
                  "internalType": "address",
                  "name": "token",
                  "type": "address"
                },
                {
                  "internalType": "uint256",
                  "name": "value",
                  "type": "uint256"
                },
                {
                  "internalType": "uint256",
                  "name": "decimals",
                  "type": "uint256"
                },
                {
                  "internalType": "uint256",
                  "name": "currency",
                  "type": "uint256"
                }
              ],
              "internalType": "struct JBTokenAmount",
              "name": "amount",
              "type": "tuple"
            },
            {
              "components": [
                {
                  "internalType": "address",
                  "name": "token",
                  "type": "address"
                },
                {
                  "internalType": "uint256",
                  "name": "value",
                  "type": "uint256"
                },
                {
                  "internalType": "uint256",
                  "name": "decimals",
                  "type": "uint256"
                },
                {
                  "internalType": "uint256",
                  "name": "currency",
                  "type": "uint256"
                }
              ],
              "internalType": "struct JBTokenAmount",
              "name": "forwardedAmount",
              "type": "tuple"
            },
            {
              "internalType": "uint256",
              "name": "projectTokenCount",
              "type": "uint256"
            },
            {
              "internalType": "address",
              "name": "beneficiary",
              "type": "address"
            },
            {
              "internalType": "bool",
              "name": "preferClaimedTokens",
              "type": "bool"
            },
            {
              "internalType": "string",
              "name": "memo",
              "type": "string"
            },
            {
              "internalType": "bytes",
              "name": "metadata",
              "type": "bytes"
            }
          ],
          "internalType": "struct JBDidPayData",
          "name": "_data",
          "type": "tuple"
        }
      ],
      "name": "didPay",
      "outputs": [],
      "stateMutability": "payable",
      "type": "function"
    },
    {
      "inputs": [
        {
          "components": [
            {
              "internalType": "address",
              "name": "holder",
              "type": "address"
            },
            {
              "internalType": "uint256",
              "name": "projectId",
              "type": "uint256"
            },
            {
              "internalType": "uint256",
              "name": "currentFundingCycleConfiguration",
              "type": "uint256"
            },
            {
              "internalType": "uint256",
              "name": "projectTokenCount",
              "type": "uint256"
            },
            {
              "components": [
                {
                  "internalType": "address",
                  "name": "token",
                  "type": "address"
                },
                {
                  "internalType": "uint256",
                  "name": "value",
                  "type": "uint256"
                },
                {
                  "internalType": "uint256",
                  "name": "decimals",
                  "type": "uint256"
                },
                {
                  "internalType": "uint256",
                  "name": "currency",
                  "type": "uint256"
                }
              ],
              "internalType": "struct JBTokenAmount",
              "name": "reclaimedAmount",
              "type": "tuple"
            },
            {
              "components": [
                {
                  "internalType": "address",
                  "name": "token",
                  "type": "address"
                },
                {
                  "internalType": "uint256",
                  "name": "value",
                  "type": "uint256"
                },
                {
                  "internalType": "uint256",
                  "name": "decimals",
                  "type": "uint256"
                },
                {
                  "internalType": "uint256",
                  "name": "currency",
                  "type": "uint256"
                }
              ],
              "internalType": "struct JBTokenAmount",
              "name": "forwardedAmount",
              "type": "tuple"
            },
            {
              "internalType": "address payable",
              "name": "beneficiary",
              "type": "address"
            },
            {
              "internalType": "string",
              "name": "memo",
              "type": "string"
            },
            {
              "internalType": "bytes",
              "name": "metadata",
              "type": "bytes"
            }
          ],
          "internalType": "struct JBDidRedeemData",
          "name": "_data",
          "type": "tuple"
        }
      ],
      "name": "didRedeem",
      "outputs": [],
      "stateMutability": "payable",
      "type": "function"
    },
    {
      "inputs": [],
      "name": "directory",
      "outputs": [
        {
          "internalType": "contract IJBDirectory",
          "name": "",
          "type": "address"
        }
      ],
      "stateMutability": "view",
      "type": "function"
    },
    {
      "inputs": [
        {
          "internalType": "uint256",
          "name": "_tokenId",
          "type": "uint256"
        }
      ],
      "name": "firstOwnerOf",
      "outputs": [
        {
          "internalType": "address",
          "name": "",
          "type": "address"
        }
      ],
      "stateMutability": "view",
      "type": "function"
    },
    {
      "inputs": [],
      "name": "fundingCycleStore",
      "outputs": [
        {
          "internalType": "contract IJBFundingCycleStore",
          "name": "",
          "type": "address"
        }
      ],
      "stateMutability": "view",
      "type": "function"
    },
    {
      "inputs": [
        {
          "internalType": "uint256",
          "name": "tokenId",
          "type": "uint256"
        }
      ],
      "name": "getApproved",
      "outputs": [
        {
          "internalType": "address",
          "name": "",
          "type": "address"
        }
      ],
      "stateMutability": "view",
      "type": "function"
    },
    {
      "inputs": [
        {
          "internalType": "uint256",
          "name": "_tier",
          "type": "uint256"
        },
        {
          "internalType": "uint256",
          "name": "_blockNumber",
          "type": "uint256"
        }
      ],
      "name": "getPastTierTotalVotes",
      "outputs": [
        {
          "internalType": "uint256",
          "name": "",
          "type": "uint256"
        }
      ],
      "stateMutability": "view",
      "type": "function"
    },
    {
      "inputs": [
        {
          "internalType": "address",
          "name": "_account",
          "type": "address"
        },
        {
          "internalType": "uint256",
          "name": "_tier",
          "type": "uint256"
        },
        {
          "internalType": "uint256",
          "name": "_blockNumber",
          "type": "uint256"
        }
      ],
      "name": "getPastTierVotes",
      "outputs": [
        {
          "internalType": "uint256",
          "name": "",
          "type": "uint256"
        }
      ],
      "stateMutability": "view",
      "type": "function"
    },
    {
      "inputs": [
        {
          "internalType": "address",
          "name": "_account",
          "type": "address"
        },
        {
          "internalType": "uint256",
          "name": "_tier",
          "type": "uint256"
        }
      ],
      "name": "getTierDelegate",
      "outputs": [
        {
          "internalType": "address",
          "name": "",
          "type": "address"
        }
      ],
      "stateMutability": "view",
      "type": "function"
    },
    {
      "inputs": [
        {
          "internalType": "uint256",
          "name": "_tier",
          "type": "uint256"
        }
      ],
      "name": "getTierTotalVotes",
      "outputs": [
        {
          "internalType": "uint256",
          "name": "",
          "type": "uint256"
        }
      ],
      "stateMutability": "view",
      "type": "function"
    },
    {
      "inputs": [
        {
          "internalType": "address",
          "name": "_account",
          "type": "address"
        },
        {
          "internalType": "uint256",
          "name": "_tier",
          "type": "uint256"
        }
      ],
      "name": "getTierVotes",
      "outputs": [
        {
          "internalType": "uint256",
          "name": "",
          "type": "uint256"
        }
      ],
      "stateMutability": "view",
      "type": "function"
    },
    {
      "inputs": [
        {
          "internalType": "uint256",
          "name": "_projectId",
          "type": "uint256"
        },
        {
          "internalType": "contract IJBDirectory",
          "name": "_directory",
          "type": "address"
        },
        {
          "internalType": "string",
          "name": "_name",
          "type": "string"
        },
        {
          "internalType": "string",
          "name": "_symbol",
          "type": "string"
        },
        {
          "internalType": "contract IJBFundingCycleStore",
          "name": "_fundingCycleStore",
          "type": "address"
        },
        {
          "internalType": "string",
          "name": "_baseUri",
          "type": "string"
        },
        {
          "internalType": "contract IJBTokenUriResolver",
          "name": "_tokenUriResolver",
          "type": "address"
        },
        {
          "internalType": "string",
          "name": "_contractUri",
          "type": "string"
        },
        {
          "components": [
            {
              "components": [
                {
                  "internalType": "uint80",
                  "name": "contributionFloor",
                  "type": "uint80"
                },
                {
                  "internalType": "uint48",
                  "name": "lockedUntil",
                  "type": "uint48"
                },
                {
                  "internalType": "uint40",
                  "name": "initialQuantity",
                  "type": "uint40"
                },
                {
                  "internalType": "uint16",
                  "name": "votingUnits",
                  "type": "uint16"
                },
                {
                  "internalType": "uint16",
                  "name": "reservedRate",
                  "type": "uint16"
                },
                {
                  "internalType": "address",
                  "name": "reservedTokenBeneficiary",
                  "type": "address"
                },
                {
                  "internalType": "bytes32",
                  "name": "encodedIPFSUri",
                  "type": "bytes32"
                },
                {
                  "internalType": "bool",
                  "name": "allowManualMint",
                  "type": "bool"
                },
                {
                  "internalType": "bool",
                  "name": "shouldUseBeneficiaryAsDefault",
                  "type": "bool"
                },
                {
                  "internalType": "bool",
                  "name": "transfersPausable",
                  "type": "bool"
                }
              ],
              "internalType": "struct JB721TierParams[]",
              "name": "tiers",
              "type": "tuple[]"
            },
            {
              "internalType": "uint256",
              "name": "currency",
              "type": "uint256"
            },
            {
              "internalType": "uint256",
              "name": "decimals",
              "type": "uint256"
            },
            {
              "internalType": "contract IJBPrices",
              "name": "prices",
              "type": "address"
            }
          ],
          "internalType": "struct JB721PricingParams",
          "name": "_pricing",
          "type": "tuple"
        },
        {
          "internalType": "contract IJBTiered721DelegateStore",
          "name": "_store",
          "type": "address"
        },
        {
          "components": [
            {
              "internalType": "bool",
              "name": "lockReservedTokenChanges",
              "type": "bool"
            },
            {
              "internalType": "bool",
              "name": "lockVotingUnitChanges",
              "type": "bool"
            },
            {
              "internalType": "bool",
              "name": "lockManualMintingChanges",
              "type": "bool"
            },
            {
              "internalType": "bool",
              "name": "preventOverspending",
              "type": "bool"
            }
          ],
          "internalType": "struct JBTiered721Flags",
          "name": "_flags",
          "type": "tuple"
        }
      ],
      "name": "initialize",
      "outputs": [],
      "stateMutability": "nonpayable",
      "type": "function"
    },
    {
      "inputs": [
        {
          "internalType": "address",
          "name": "owner",
          "type": "address"
        },
        {
          "internalType": "address",
          "name": "operator",
          "type": "address"
        }
      ],
      "name": "isApprovedForAll",
      "outputs": [
        {
          "internalType": "bool",
          "name": "",
          "type": "bool"
        }
      ],
      "stateMutability": "view",
      "type": "function"
    },
    {
      "inputs": [
        {
          "components": [
            {
              "internalType": "uint16[]",
              "name": "tierIds",
              "type": "uint16[]"
            },
            {
              "internalType": "address",
              "name": "beneficiary",
              "type": "address"
            }
          ],
          "internalType": "struct JBTiered721MintForTiersData[]",
          "name": "_mintForTiersData",
          "type": "tuple[]"
        }
      ],
      "name": "mintFor",
      "outputs": [],
      "stateMutability": "nonpayable",
      "type": "function"
    },
    {
      "inputs": [
        {
          "internalType": "uint16[]",
          "name": "_tierIds",
          "type": "uint16[]"
        },
        {
          "internalType": "address",
          "name": "_beneficiary",
          "type": "address"
        }
      ],
      "name": "mintFor",
      "outputs": [
        {
          "internalType": "uint256[]",
          "name": "tokenIds",
          "type": "uint256[]"
        }
      ],
      "stateMutability": "nonpayable",
      "type": "function"
    },
    {
      "inputs": [
        {
          "components": [
            {
              "internalType": "uint256",
              "name": "tierId",
              "type": "uint256"
            },
            {
              "internalType": "uint256",
              "name": "count",
              "type": "uint256"
            }
          ],
          "internalType": "struct JBTiered721MintReservesForTiersData[]",
          "name": "_mintReservesForTiersData",
          "type": "tuple[]"
        }
      ],
      "name": "mintReservesFor",
      "outputs": [],
      "stateMutability": "nonpayable",
      "type": "function"
    },
    {
      "inputs": [
        {
          "internalType": "uint256",
          "name": "_tierId",
          "type": "uint256"
        },
        {
          "internalType": "uint256",
          "name": "_count",
          "type": "uint256"
        }
      ],
      "name": "mintReservesFor",
      "outputs": [],
      "stateMutability": "nonpayable",
      "type": "function"
    },
    {
      "inputs": [],
      "name": "name",
      "outputs": [
        {
          "internalType": "string",
          "name": "",
          "type": "string"
        }
      ],
      "stateMutability": "view",
      "type": "function"
    },
    {
      "inputs": [],
      "name": "owner",
      "outputs": [
        {
          "internalType": "address",
          "name": "",
          "type": "address"
        }
      ],
      "stateMutability": "view",
      "type": "function"
    },
    {
      "inputs": [
        {
          "internalType": "uint256",
          "name": "tokenId",
          "type": "uint256"
        }
      ],
      "name": "ownerOf",
      "outputs": [
        {
          "internalType": "address",
          "name": "",
          "type": "address"
        }
      ],
      "stateMutability": "view",
      "type": "function"
    },
    {
      "inputs": [
        {
          "components": [
            {
              "internalType": "contract IJBPaymentTerminal",
              "name": "terminal",
              "type": "address"
            },
            {
              "internalType": "address",
              "name": "payer",
              "type": "address"
            },
            {
              "components": [
                {
                  "internalType": "address",
                  "name": "token",
                  "type": "address"
                },
                {
                  "internalType": "uint256",
                  "name": "value",
                  "type": "uint256"
                },
                {
                  "internalType": "uint256",
                  "name": "decimals",
                  "type": "uint256"
                },
                {
                  "internalType": "uint256",
                  "name": "currency",
                  "type": "uint256"
                }
              ],
              "internalType": "struct JBTokenAmount",
              "name": "amount",
              "type": "tuple"
            },
            {
              "internalType": "uint256",
              "name": "projectId",
              "type": "uint256"
            },
            {
              "internalType": "uint256",
              "name": "currentFundingCycleConfiguration",
              "type": "uint256"
            },
            {
              "internalType": "address",
              "name": "beneficiary",
              "type": "address"
            },
            {
              "internalType": "uint256",
              "name": "weight",
              "type": "uint256"
            },
            {
              "internalType": "uint256",
              "name": "reservedRate",
              "type": "uint256"
            },
            {
              "internalType": "string",
              "name": "memo",
              "type": "string"
            },
            {
              "internalType": "bytes",
              "name": "metadata",
              "type": "bytes"
            }
          ],
          "internalType": "struct JBPayParamsData",
          "name": "_data",
          "type": "tuple"
        }
      ],
      "name": "payParams",
      "outputs": [
        {
          "internalType": "uint256",
          "name": "weight",
          "type": "uint256"
        },
        {
          "internalType": "string",
          "name": "memo",
          "type": "string"
        },
        {
          "components": [
            {
              "internalType": "contract IJBPayDelegate",
              "name": "delegate",
              "type": "address"
            },
            {
              "internalType": "uint256",
              "name": "amount",
              "type": "uint256"
            }
          ],
          "internalType": "struct JBPayDelegateAllocation[]",
          "name": "delegateAllocations",
          "type": "tuple[]"
        }
      ],
      "stateMutability": "view",
      "type": "function"
    },
    {
      "inputs": [],
      "name": "prices",
      "outputs": [
        {
          "internalType": "contract IJBPrices",
          "name": "",
          "type": "address"
        }
      ],
      "stateMutability": "view",
      "type": "function"
    },
    {
      "inputs": [],
      "name": "pricingCurrency",
      "outputs": [
        {
          "internalType": "uint256",
          "name": "",
          "type": "uint256"
        }
      ],
      "stateMutability": "view",
      "type": "function"
    },
    {
      "inputs": [],
      "name": "pricingDecimals",
      "outputs": [
        {
          "internalType": "uint256",
          "name": "",
          "type": "uint256"
        }
      ],
      "stateMutability": "view",
      "type": "function"
    },
    {
      "inputs": [],
      "name": "projectId",
      "outputs": [
        {
          "internalType": "uint256",
          "name": "",
          "type": "uint256"
        }
      ],
      "stateMutability": "view",
      "type": "function"
    },
    {
      "inputs": [
        {
          "components": [
            {
              "internalType": "contract IJBPaymentTerminal",
              "name": "terminal",
              "type": "address"
            },
            {
              "internalType": "address",
              "name": "holder",
              "type": "address"
            },
            {
              "internalType": "uint256",
              "name": "projectId",
              "type": "uint256"
            },
            {
              "internalType": "uint256",
              "name": "currentFundingCycleConfiguration",
              "type": "uint256"
            },
            {
              "internalType": "uint256",
              "name": "tokenCount",
              "type": "uint256"
            },
            {
              "internalType": "uint256",
              "name": "totalSupply",
              "type": "uint256"
            },
            {
              "internalType": "uint256",
              "name": "overflow",
              "type": "uint256"
            },
            {
              "components": [
                {
                  "internalType": "address",
                  "name": "token",
                  "type": "address"
                },
                {
                  "internalType": "uint256",
                  "name": "value",
                  "type": "uint256"
                },
                {
                  "internalType": "uint256",
                  "name": "decimals",
                  "type": "uint256"
                },
                {
                  "internalType": "uint256",
                  "name": "currency",
                  "type": "uint256"
                }
              ],
              "internalType": "struct JBTokenAmount",
              "name": "reclaimAmount",
              "type": "tuple"
            },
            {
              "internalType": "bool",
              "name": "useTotalOverflow",
              "type": "bool"
            },
            {
              "internalType": "uint256",
              "name": "redemptionRate",
              "type": "uint256"
            },
            {
              "internalType": "string",
              "name": "memo",
              "type": "string"
            },
            {
              "internalType": "bytes",
              "name": "metadata",
              "type": "bytes"
            }
          ],
          "internalType": "struct JBRedeemParamsData",
          "name": "_data",
          "type": "tuple"
        }
      ],
      "name": "redeemParams",
      "outputs": [
        {
          "internalType": "uint256",
          "name": "reclaimAmount",
          "type": "uint256"
        },
        {
          "internalType": "string",
          "name": "memo",
          "type": "string"
        },
        {
          "components": [
            {
              "internalType": "contract IJBRedemptionDelegate",
              "name": "delegate",
              "type": "address"
            },
            {
              "internalType": "uint256",
              "name": "amount",
              "type": "uint256"
            }
          ],
          "internalType": "struct JBRedemptionDelegateAllocation[]",
          "name": "delegateAllocations",
          "type": "tuple[]"
        }
      ],
      "stateMutability": "view",
      "type": "function"
    },
    {
      "inputs": [
        {
          "internalType": "uint256[]",
          "name": "_tokenIds",
          "type": "uint256[]"
        },
        {
          "components": [
            {
              "internalType": "contract IJBPaymentTerminal",
              "name": "terminal",
              "type": "address"
            },
            {
              "internalType": "address",
              "name": "holder",
              "type": "address"
            },
            {
              "internalType": "uint256",
              "name": "projectId",
              "type": "uint256"
            },
            {
              "internalType": "uint256",
              "name": "currentFundingCycleConfiguration",
              "type": "uint256"
            },
            {
              "internalType": "uint256",
              "name": "tokenCount",
              "type": "uint256"
            },
            {
              "internalType": "uint256",
              "name": "totalSupply",
              "type": "uint256"
            },
            {
              "internalType": "uint256",
              "name": "overflow",
              "type": "uint256"
            },
            {
              "components": [
                {
                  "internalType": "address",
                  "name": "token",
                  "type": "address"
                },
                {
                  "internalType": "uint256",
                  "name": "value",
                  "type": "uint256"
                },
                {
                  "internalType": "uint256",
                  "name": "decimals",
                  "type": "uint256"
                },
                {
                  "internalType": "uint256",
                  "name": "currency",
                  "type": "uint256"
                }
              ],
              "internalType": "struct JBTokenAmount",
              "name": "reclaimAmount",
              "type": "tuple"
            },
            {
              "internalType": "bool",
              "name": "useTotalOverflow",
              "type": "bool"
            },
            {
              "internalType": "uint256",
              "name": "redemptionRate",
              "type": "uint256"
            },
            {
              "internalType": "string",
              "name": "memo",
              "type": "string"
            },
            {
              "internalType": "bytes",
              "name": "metadata",
              "type": "bytes"
            }
          ],
          "internalType": "struct JBRedeemParamsData",
          "name": "",
          "type": "tuple"
        }
      ],
      "name": "redemptionWeightOf",
      "outputs": [
        {
          "internalType": "uint256",
          "name": "",
          "type": "uint256"
        }
      ],
      "stateMutability": "view",
      "type": "function"
    },
    {
      "inputs": [],
      "name": "renounceOwnership",
      "outputs": [],
      "stateMutability": "nonpayable",
      "type": "function"
    },
    {
      "inputs": [
        {
          "internalType": "address",
          "name": "from",
          "type": "address"
        },
        {
          "internalType": "address",
          "name": "to",
          "type": "address"
        },
        {
          "internalType": "uint256",
          "name": "tokenId",
          "type": "uint256"
        }
      ],
      "name": "safeTransferFrom",
      "outputs": [],
      "stateMutability": "nonpayable",
      "type": "function"
    },
    {
      "inputs": [
        {
          "internalType": "address",
          "name": "from",
          "type": "address"
        },
        {
          "internalType": "address",
          "name": "to",
          "type": "address"
        },
        {
          "internalType": "uint256",
          "name": "tokenId",
          "type": "uint256"
        },
        {
          "internalType": "bytes",
          "name": "data",
          "type": "bytes"
        }
      ],
      "name": "safeTransferFrom",
      "outputs": [],
      "stateMutability": "nonpayable",
      "type": "function"
    },
    {
      "inputs": [
        {
          "internalType": "address",
          "name": "operator",
          "type": "address"
        },
        {
          "internalType": "bool",
          "name": "approved",
          "type": "bool"
        }
      ],
      "name": "setApprovalForAll",
      "outputs": [],
      "stateMutability": "nonpayable",
      "type": "function"
    },
    {
      "inputs": [
        {
          "internalType": "string",
          "name": "_baseUri",
          "type": "string"
        }
      ],
      "name": "setBaseUri",
      "outputs": [],
      "stateMutability": "nonpayable",
      "type": "function"
    },
    {
      "inputs": [
        {
          "internalType": "string",
          "name": "_contractUri",
          "type": "string"
        }
      ],
      "name": "setContractUri",
      "outputs": [],
      "stateMutability": "nonpayable",
      "type": "function"
    },
    {
      "inputs": [
        {
          "internalType": "address",
          "name": "_beneficiary",
          "type": "address"
        }
      ],
      "name": "setDefaultReservedTokenBeneficiary",
      "outputs": [],
      "stateMutability": "nonpayable",
      "type": "function"
    },
    {
      "inputs": [
        {
          "internalType": "address",
          "name": "_delegatee",
          "type": "address"
        },
        {
          "internalType": "uint256",
          "name": "_tierId",
          "type": "uint256"
        }
      ],
      "name": "setTierDelegate",
      "outputs": [],
      "stateMutability": "nonpayable",
      "type": "function"
    },
    {
      "inputs": [
        {
          "components": [
            {
              "internalType": "address",
              "name": "delegatee",
              "type": "address"
            },
            {
              "internalType": "uint256",
              "name": "tierId",
              "type": "uint256"
            }
          ],
          "internalType": "struct JBTiered721SetTierDelegatesData[]",
          "name": "_setTierDelegatesData",
          "type": "tuple[]"
        }
      ],
      "name": "setTierDelegates",
      "outputs": [],
      "stateMutability": "nonpayable",
      "type": "function"
    },
    {
      "inputs": [
        {
          "internalType": "contract IJBTokenUriResolver",
          "name": "_tokenUriResolver",
          "type": "address"
        }
      ],
      "name": "setTokenUriResolver",
      "outputs": [],
      "stateMutability": "nonpayable",
      "type": "function"
    },
    {
      "inputs": [],
      "name": "store",
      "outputs": [
        {
          "internalType": "contract IJBTiered721DelegateStore",
          "name": "",
          "type": "address"
        }
      ],
      "stateMutability": "view",
      "type": "function"
    },
    {
      "inputs": [
        {
          "internalType": "bytes4",
          "name": "_interfaceId",
          "type": "bytes4"
        }
      ],
      "name": "supportsInterface",
      "outputs": [
        {
          "internalType": "bool",
          "name": "",
          "type": "bool"
        }
      ],
      "stateMutability": "view",
      "type": "function"
    },
    {
      "inputs": [],
      "name": "symbol",
      "outputs": [
        {
          "internalType": "string",
          "name": "",
          "type": "string"
        }
      ],
      "stateMutability": "view",
      "type": "function"
    },
    {
      "inputs": [
        {
          "internalType": "uint256",
          "name": "_tokenId",
          "type": "uint256"
        }
      ],
      "name": "tokenURI",
      "outputs": [
        {
          "internalType": "string",
          "name": "",
          "type": "string"
        }
      ],
      "stateMutability": "view",
      "type": "function"
    },
    {
      "inputs": [
        {
          "components": [
            {
              "internalType": "contract IJBPaymentTerminal",
              "name": "terminal",
              "type": "address"
            },
            {
              "internalType": "address",
              "name": "holder",
              "type": "address"
            },
            {
              "internalType": "uint256",
              "name": "projectId",
              "type": "uint256"
            },
            {
              "internalType": "uint256",
              "name": "currentFundingCycleConfiguration",
              "type": "uint256"
            },
            {
              "internalType": "uint256",
              "name": "tokenCount",
              "type": "uint256"
            },
            {
              "internalType": "uint256",
              "name": "totalSupply",
              "type": "uint256"
            },
            {
              "internalType": "uint256",
              "name": "overflow",
              "type": "uint256"
            },
            {
              "components": [
                {
                  "internalType": "address",
                  "name": "token",
                  "type": "address"
                },
                {
                  "internalType": "uint256",
                  "name": "value",
                  "type": "uint256"
                },
                {
                  "internalType": "uint256",
                  "name": "decimals",
                  "type": "uint256"
                },
                {
                  "internalType": "uint256",
                  "name": "currency",
                  "type": "uint256"
                }
              ],
              "internalType": "struct JBTokenAmount",
              "name": "reclaimAmount",
              "type": "tuple"
            },
            {
              "internalType": "bool",
              "name": "useTotalOverflow",
              "type": "bool"
            },
            {
              "internalType": "uint256",
              "name": "redemptionRate",
              "type": "uint256"
            },
            {
              "internalType": "string",
              "name": "memo",
              "type": "string"
            },
            {
              "internalType": "bytes",
              "name": "metadata",
              "type": "bytes"
            }
          ],
          "internalType": "struct JBRedeemParamsData",
          "name": "",
          "type": "tuple"
        }
      ],
      "name": "totalRedemptionWeight",
      "outputs": [
        {
          "internalType": "uint256",
          "name": "",
          "type": "uint256"
        }
      ],
      "stateMutability": "view",
      "type": "function"
    },
    {
      "inputs": [
        {
          "internalType": "address",
          "name": "from",
          "type": "address"
        },
        {
          "internalType": "address",
          "name": "to",
          "type": "address"
        },
        {
          "internalType": "uint256",
          "name": "tokenId",
          "type": "uint256"
        }
      ],
      "name": "transferFrom",
      "outputs": [],
      "stateMutability": "nonpayable",
      "type": "function"
    },
    {
      "inputs": [
        {
          "internalType": "address",
          "name": "newOwner",
          "type": "address"
        }
      ],
      "name": "transferOwnership",
      "outputs": [],
      "stateMutability": "nonpayable",
      "type": "function"
    }
  ],
  "bytecode": {
    "object": "0x60806040523480156200001157600080fd5b506200001d3362000035565b600880546001600160a01b0319163017905562000087565b600780546001600160a01b038381166001600160a01b0319831681179093556040519116919082907f8be0079c531659141344cd1fd0a4f28419497f9722a3daafe3b4186f6b6457e090600090a35050565b61575980620000976000396000f3fe6080604052600436106102c95760003560e01c806394c5c5ca11610175578063ca323efe116100dc578063d46cf17111610095578063e8a3d4851161006f578063e8a3d485146108c9578063e985e9c5146108de578063f2fde38b14610927578063f5a38e631461094757600080fd5b8063d46cf17114610876578063da9ee8b714610896578063df487e26146108a957600080fd5b8063ca323efe146107b6578063cac486a8146107d6578063ccb4807b146107f6578063d31cc52c14610816578063d3419bf314610836578063d40e71461461085657600080fd5b8063aa4fb15b1161012e578063aa4fb15b146106f6578063ab951e3914610716578063b88d4fde14610736578063c41c2f2414610756578063c74b13d914610776578063c87b56dd1461079657600080fd5b806394c5c5ca1461063257806395d89b4114610652578063975057e714610667578063a0bcfc7f14610687578063a22cb465146106a7578063a51cfd18146106c757600080fd5b806342842e0e116102345780636ac6d941116101ed5780637ba62bf9116101c75780637ba62bf91461059157806382732b6d146105b15780638da5cb5b146105f45780639494bf721461061257600080fd5b80636ac6d9411461052f57806370a082311461055c578063715018a61461057c57600080fd5b806342842e0e146104835780634ecba625146104a357806354c6d1f5146104b9578063557e7155146104d95780636352211e146104f957806364640c1e1461051957600080fd5b80632407497e116102865780632407497e146103bf578063245a45b5146103df5780632a596e531461041a5780632b13c58f1461043a57806336c1a93b1461044d5780633fafa1271461046d57600080fd5b806301ffc9a7146102ce57806306fdde0314610303578063081812fc14610325578063095ea7b31461035d5780631d153ca41461037f57806323b872dd1461039f575b600080fd5b3480156102da57600080fd5b506102ee6102e9366004613d52565b610967565b60405190151581526020015b60405180910390f35b34801561030f57600080fd5b50610318610992565b6040516102fa9190613dbf565b34801561033157600080fd5b50610345610340366004613dd2565b610a24565b6040516001600160a01b0390911681526020016102fa565b34801561036957600080fd5b5061037d610378366004613e10565b610a4b565b005b34801561038b57600080fd5b50600854610345906001600160a01b031681565b3480156103ab57600080fd5b5061037d6103ba366004613e3c565b610ad7565b3480156103cb57600080fd5b5061037d6103da366004613e7d565b610b09565b3480156103eb57600080fd5b5061040c6103fa366004613e7d565b600e6020526000908152604090205481565b6040519081526020016102fa565b34801561042657600080fd5b5061037d610435366004613e9a565b610bb2565b61037d610448366004613f27565b610c0b565b34801561045957600080fd5b5061037d610468366004613f9f565b610de5565b34801561047957600080fd5b5061040c60055481565b34801561048f57600080fd5b5061037d61049e366004613e3c565b610e47565b3480156104af57600080fd5b5061040c600d5481565b3480156104c557600080fd5b506103456104d4366004613dd2565b610e62565b3480156104e557600080fd5b50600a54610345906001600160a01b031681565b34801561050557600080fd5b50610345610514366004613dd2565b610f0e565b34801561052557600080fd5b5061040c600c5481565b34801561053b57600080fd5b5061054f61054a366004613fe0565b610f44565b6040516102fa9190614071565b34801561056857600080fd5b5061040c610577366004613e7d565b61108a565b34801561058857600080fd5b5061037d611100565b34801561059d57600080fd5b5061040c6105ac36600461420b565b611114565b3480156105bd57600080fd5b506103456105cc366004613e10565b6001600160a01b039182166000908152600f6020908152604080832093835292905220541690565b34801561060057600080fd5b506007546001600160a01b0316610345565b34801561061e57600080fd5b5061040c61062d366004613f27565b61118f565b34801561063e57600080fd5b5061040c61064d366004613dd2565b6111c0565b34801561065e57600080fd5b506103186111d7565b34801561067357600080fd5b50600954610345906001600160a01b031681565b34801561069357600080fd5b5061037d6106a236600461426e565b6111e6565b3480156106b357600080fd5b5061037d6106c23660046142e6565b6112a1565b3480156106d357600080fd5b506106e76106e2366004613f27565b6112b0565b6040516102fa9392919061431f565b34801561070257600080fd5b5061037d610711366004614391565b61150f565b34801561072257600080fd5b5061037d610731366004613e10565b61172c565b34801561074257600080fd5b5061037d610751366004614413565b611737565b34801561076257600080fd5b50600654610345906001600160a01b031681565b34801561078257600080fd5b5061037d610791366004614492565b61176a565b3480156107a257600080fd5b506103186107b1366004613dd2565b6117ee565b3480156107c257600080fd5b5061040c6107d1366004613e10565b6119c8565b3480156107e257600080fd5b5061037d6107f1366004614797565b6119f4565b34801561080257600080fd5b5061037d61081136600461426e565b611ce6565b34801561082257600080fd5b5061040c610831366004614391565b611d99565b34801561084257600080fd5b50600b54610345906001600160a01b031681565b34801561086257600080fd5b5061040c6108713660046148d0565b611db1565b34801561088257600080fd5b506106e7610891366004614905565b611de6565b61037d6108a4366004614940565b611ec9565b3480156108b557600080fd5b5061037d6108c4366004613e7d565b611f80565b3480156108d557600080fd5b50610318612022565b3480156108ea57600080fd5b506102ee6108f936600461497b565b6001600160a01b03918216600090815260046020908152604080832093909416825291909152205460ff1690565b34801561093357600080fd5b5061037d610942366004613e7d565b612098565b34801561095357600080fd5b5061037d6109623660046149a9565b612116565b60006001600160e01b031982166320b52ca160e21b148061098c575061098c826122f9565b92915050565b6060600080546109a190614a43565b80601f01602080910402602001604051908101604052809291908181526020018280546109cd90614a43565b8015610a1a5780601f106109ef57610100808354040283529160200191610a1a565b820191906000526020600020905b8154815290600101906020018083116109fd57829003601f168201915b5050505050905090565b6000610a2f8261236f565b506000908152600360205260409020546001600160a01b031690565b6000610a5682610f0e565b9050806001600160a01b0316836001600160a01b031603610a8a5760405163133f8be960e01b815260040160405180910390fd5b336001600160a01b03821614801590610aaa5750610aa881336108f9565b155b15610ac85760405163e5fa0e3560e01b815260040160405180910390fd5b610ad283836123a4565b505050565b610ae13382612412565b610afe5760405163e5fa0e3560e01b815260040160405180910390fd5b610ad2838383612490565b610b11612569565b60095460405163036129cb60e61b81526001600160a01b0383811660048301529091169063d84a72c090602401600060405180830381600087803b158015610b5857600080fd5b505af1158015610b6c573d6000803e3d6000fd5b50506040513381526001600160a01b03841692507fe7784d93cfbfa4408e19577e6cc0436f4dbb51214b70e100905dfce9def88c1691506020015b60405180910390a250565b8060005b81811015610c05576000848483818110610bd257610bd2614a77565b905060400201803603810190610be89190614a8d565b9050610bfc8160000151826020015161150f565b50600101610bb6565b50505050565b34151580610c8d5750600654600554604051636e49181f60e01b815260048101919091523360248201526001600160a01b0390911690636e49181f90604401602060405180830381865afa158015610c67573d6000803e3d6000fd5b505050506040513d601f19601f82011682018060405250810190610c8b9190614ae6565b155b80610c9e5750600554816020013514155b15610cbc57604051633efca5c360e11b815260040160405180910390fd5b6024610ccc6101c0830183614b03565b90501080610d10575063b3bcbb7960e01b610ceb6101c0830183614b03565b610cfa91602491602091614b49565b610d0391614b73565b6001600160e01b03191614155b15610d2e57604051632a84050f60e01b815260040160405180910390fd5b6000610d3e6101c0830183614b03565b810190610d4b9190614ba3565b925050506000815190506000805b82811015610ddb57838181518110610d7357610d73614a77565b60200260200101519150846000016020810190610d909190613e7d565b6000838152600260205260409020546001600160a01b03908116911614610dca5760405163075fd2b160e01b815260040160405180910390fd5b610dd3826125c3565b600101610d59565b50610c0583612644565b610ded612569565b8060005b81811015610c055736848483818110610e0c57610e0c614a77565b9050602002810190610e1e9190614bfb565b9050610e3d610e2d8280614c1b565b61054a6040850160208601613e7d565b5050600101610df1565b610ad283838360405180602001604052806000815250611737565b6009546040516308ed6c0160e41b81523060048201526024810183905260009182916001600160a01b0390911690638ed6c01090604401602060405180830381865afa158015610eb6573d6000803e3d6000fd5b505050506040513d601f19601f82011682018060405250810190610eda9190614c6f565b90506001600160a01b03811615610ef15792915050565b50506000908152600260205260409020546001600160a01b031690565b6000818152600260205260408120546001600160a01b03168061098c5760405163b49aa3b560e01b815260040160405180910390fd5b6060610f4e612569565b60095460405163eaa19ab360e01b81526001600160a01b039091169063eaa19ab390610f87906000199088908890600190600401614c8c565b6000604051808303816000875af1158015610fa6573d6000803e3d6000fd5b505050506040513d6000823e601f3d908101601f19168201604052610fce9190810190614d44565b509050826000805b8281101561108057838181518110610ff057610ff0614a77565b6020026020010151915061100485836126a9565b846001600160a01b031687878381811061102057611020614a77565b90506020020160208101906110359190614d8a565b604080516000815233602082015261ffff929092169185917f598baf7bf150ca2f42be9e9f8f55e81d45f5715c3ff22bf46d697fabec7f31d6910160405180910390a4600101610fd6565b5050509392505050565b600954604051633de222bb60e21b81523060048201526001600160a01b038381166024830152600092169063f7888aec906044015b602060405180830381865afa1580156110dc573d6000803e3d6000fd5b505050506040513d601f19601f8201168201806040525081019061098c9190614da5565b611108612569565b6111126000612773565b565b60095460405163051330b560e21b81526000916001600160a01b03169063144cc2d4906111479030908790600401614dbe565b602060405180830381865afa158015611164573d6000803e3d6000fd5b505050506040513d601f19601f820116820180604052508101906111889190614da5565b9392505050565b600954604051631572f24960e11b81523060048201526000916001600160a01b031690632ae5e492906024016110bf565b600081815260116020526040812061098c906127c5565b6060600180546109a190614a43565b6111ee612569565b6009546040516331315e5960e11b81526001600160a01b0390911690636262bcb2906112209085908590600401614de2565b600060405180830381600087803b15801561123a57600080fd5b505af115801561124e573d6000803e3d6000fd5b505050508181604051611262929190614e11565b604051908190038120338252907f7bc9110d5de090dd59e07912d2b93a5a27ac70a60c8d8e324db4f9ee8b8b5c13906020015b60405180910390a25050565b6112ac338383612821565b5050565b60006060806080840135156112d8576040516309f82f1b60e31b815260040160405180910390fd5b60246112e86101c0860186614b03565b9050108061132c575063b3bcbb7960e01b6113076101c0860186614b03565b61131691602491602091614b49565b61131f91614b73565b6001600160e01b03191614155b1561134a57604051632a84050f60e01b815260040160405180910390fd5b60408051600180825281830190925290816020015b604080518082019091526000808252602082015281526020019060019003908161135f5790505090506040518060400160405280306001600160a01b031681526020016000815250816000815181106113ba576113ba614a77565b602090810291909101015260006113d56101c0860186614b03565b8101906113e29190614ba3565b9250505060006113f28287611114565b905060006113ff8761118f565b905060006114128860c0013584846128c0565b90506127108861018001350361147d57806114316101a08a018a614b03565b8782828080601f016020809104026020016040519081016040528093929190818152602001838380828437600092019190915250969d50919b5091995061150898505050505050505050565b6114b38161149c856114966101808d0135612710614e37565b866128c0565b6114ab906101808c0135614e4a565b6127106128c0565b6114c16101a08a018a614b03565b8782828080601f016020809104026020016040519081016040528093929190818152602001838380828437600092019190915250969d50919b509199505050505050505050505b9193909250565b600a546005546040516321d1336160e11b815260048101919091526000916001600160a01b0316906343a266c29060240161012060405180830381865afa15801561155e573d6000803e3d6000fd5b505050506040513d601f19601f820116820180604052508101906115829190614e5d565b61010081015190915060f51c6001908116036115b157604051631d2c125760e31b815260040160405180910390fd5b600954604051635d53f40760e11b815260048101859052602481018490526000916001600160a01b03169063baa7e80e906044016000604051808303816000875af1158015611604573d6000803e3d6000fd5b505050506040513d6000823e601f3d908101601f1916820160405261162c9190810190614edd565b6009546040516304db994760e21b8152306004820152602481018790529192506000916001600160a01b039091169063136e651c90604401602060405180830381865afa158015611681573d6000803e3d6000fd5b505050506040513d601f19601f820116820180604052508101906116a59190614c6f565b90506000805b85811015611723578381815181106116c5576116c5614a77565b602002602001015191506116d983836126a9565b6040513381526001600160a01b03841690889084907f031e1988c95a91ec4d655ff63a8f87a80bc9daf28d95ae10ee08c0022cfb5c8b9060200160405180910390a46001016116ab565b50505050505050565b6112ac33838361298d565b6117413383612412565b61175e5760405163e5fa0e3560e01b815260040160405180910390fd5b610c0584848484612a0c565b8051604080518082019091526000808252602082015260005b82811015610c055783818151811061179d5761179d614a77565b602090810291909101015180519092506001600160a01b03166117d3576040516314f4c13d60e21b815260040160405180910390fd5b6117e6338360000151846020015161298d565b600101611783565b600954604051630fab094760e01b81523060048201526060916000916001600160a01b0390911690630fab094790602401602060405180830381865afa15801561183c573d6000803e3d6000fd5b505050506040513d601f19601f820116820180604052508101906118609190614c6f565b90506001600160a01b038116156118de57604051636d02a25560e11b8152600481018490526001600160a01b0382169063da0544aa90602401600060405180830381865afa1580156118b6573d6000803e3d6000fd5b505050506040513d6000823e601f3d908101601f191682016040526111889190810190614f11565b60095460405163f682eeaf60e01b8152306004820152611188916001600160a01b03169063f682eeaf90602401600060405180830381865afa158015611928573d6000803e3d6000fd5b505050506040513d6000823e601f3d908101601f191682016040526119509190810190614f11565b600954604051630c8df17160e41b8152306004820152602481018790526001600160a01b039091169063c8df171090604401602060405180830381865afa15801561199f573d6000803e3d6000fd5b505050506040513d601f19601f820116820180604052508101906119c39190614da5565b612a40565b6001600160a01b03821660009081526010602090815260408083208484529091528120611188906127c5565b6008546001600160a01b03163003611a0b57600080fd5b6009546001600160a01b031615611a2157600080fd5b611a2d8b8b8b8b612aa7565b600a80546001600160a01b03808a166001600160a01b031992831617909255600980548584169083161790556020850151600c556040850151600d556060850151600b8054919093169116179055855115611ae1576040516331315e5960e11b81526001600160a01b03831690636262bcb290611aae908990600401613dbf565b600060405180830381600087803b158015611ac857600080fd5b505af1158015611adc573d6000803e3d6000fd5b505050505b835115611b475760405163d67b78fd60e01b81526001600160a01b0383169063d67b78fd90611b14908790600401613dbf565b600060405180830381600087803b158015611b2e57600080fd5b505af1158015611b42573d6000803e3d6000fd5b505050505b6001600160a01b03851615611bb25760405163036129cb60e61b81526001600160a01b03868116600483015283169063d84a72c090602401600060405180830381600087803b158015611b9957600080fd5b505af1158015611bad573d6000803e3d6000fd5b505050505b82515115611c3057825160405163eadd8b3760e01b81526001600160a01b0384169163eadd8b3791611be79190600401614f7e565b6000604051808303816000875af1158015611c06573d6000803e3d6000fd5b505050506040513d6000823e601f3d908101601f19168201604052611c2e9190810190614edd565b505b805180611c3e575080602001515b80611c4a575080604001515b15611cd057604080516365c13f1960e11b815282511515600482015260208301511515602482015290820151151560448201526060820151151560648201526001600160a01b0383169063cb827e3290608401600060405180830381600087803b158015611cb757600080fd5b505af1158015611ccb573d6000803e3d6000fd5b505050505b611cd933612773565b5050505050505050505050565b611cee612569565b60095460405163d67b78fd60e01b81526001600160a01b039091169063d67b78fd90611d209085908590600401614de2565b600060405180830381600087803b158015611d3a57600080fd5b505af1158015611d4e573d6000803e3d6000fd5b505050508181604051611d62929190614e11565b604051908190038120338252907fd36dc0c1a06103fdcaf15f3f6fb797d1a97997514c78de073640c8b5005454b890602001611295565b60008281526011602052604081206111889083612ada565b6001600160a01b03831660009081526010602090815260408083208584529091528120611dde9083612ada565b949350505050565b610120810135606080611dfd610160850185614b03565b8080601f01602080910402602001604051908101604052809392919081815260200183838082843760009201919091525092945060019250611e3d915050565b604051908082528060200260200182016040528015611e8257816020015b6040805180820190915260008082526020820152815260200190600190039081611e5b5790505b5090506040518060400160405280306001600160a01b03168152602001600081525081600081518110611eb757611eb7614a77565b60200260200101819052509193909250565b60055434151580611f4a5750600654604051636e49181f60e01b8152600481018390523360248201526001600160a01b0390911690636e49181f90604401602060405180830381865afa158015611f24573d6000803e3d6000fd5b505050506040513d601f19601f82011682018060405250810190611f489190614ae6565b155b80611f59575080826020013514155b15611f77576040516331c57b1b60e21b815260040160405180910390fd5b6112ac82612be9565b611f88612569565b6009546040516317161f7d60e01b81526001600160a01b038381166004830152909116906317161f7d90602401600060405180830381600087803b158015611fcf57600080fd5b505af1158015611fe3573d6000803e3d6000fd5b50506040513381526001600160a01b03841692507fab0014d4c7a642a02a31b303a318908c22b0fb2001f107278fc6076b4c671b659150602001610ba7565b600954604051630155619b60e71b81523060048201526060916001600160a01b03169063aab0cd8090602401600060405180830381865afa15801561206b573d6000803e3d6000fd5b505050506040513d6000823e601f3d908101601f191682016040526120939190810190614f11565b905090565b6120a0612569565b6001600160a01b03811661210a5760405162461bcd60e51b815260206004820152602660248201527f4f776e61626c653a206e6577206f776e657220697320746865207a65726f206160448201526564647265737360d01b60648201526084015b60405180910390fd5b61211381612773565b50565b61211e612569565b828180156121ee576009546040516320512ba160e01b81526001600160a01b03909116906320512ba1906121589087908790600401615057565b600060405180830381600087803b15801561217257600080fd5b505af1158015612186573d6000803e3d6000fd5b5050505060005b818110156121ec578484828181106121a7576121a7614a77565b60405133815260209182029390930135927f832d89d991be5351d793c20faf4b7dd44f8aa9ce39e3cb160c6317de6fbba72992500160405180910390a260010161218d565b505b81156122f15760095460405163eadd8b3760e01b81526000916001600160a01b03169063eadd8b3790612227908a908a9060040161516d565b6000604051808303816000875af1158015612246573d6000803e3d6000fd5b505050506040513d6000823e601f3d908101601f1916820160405261226e9190810190614edd565b905060005b838110156122ee5781818151811061228d5761228d614a77565b60200260200101517f85b5b4c4e44e342c8dac3c3a5364494d455043decb9f4bb8e7e0a3020d22fed48989848181106122c8576122c8614a77565b90506101400201336040516122de9291906151b0565b60405180910390a2600101612273565b50505b505050505050565b60006001600160e01b0319821663b3bcbb7960e01b148061232a57506001600160e01b031982166371700c6960e01b145b8061234557506001600160e01b0319821663da9ee8b760e01b145b8061236057506001600160e01b03198216632b13c58f60e01b145b8061098c575061098c82612efc565b6000818152600260205260409020546001600160a01b03166121135760405163b49aa3b560e01b815260040160405180910390fd5b600081815260036020526040902080546001600160a01b0319166001600160a01b03841690811790915581906123d982610f0e565b6001600160a01b03167f8c5be1e5ebec7d5bd14f71427d1e84f3dd0314c0f7b2291e5b200ac8c7c3b92560405160405180910390a45050565b60008061241e83610f0e565b9050806001600160a01b0316846001600160a01b0316148061246557506001600160a01b0380821660009081526004602090815260408083209388168352929052205460ff165b80611dde5750836001600160a01b031661247e84610a24565b6001600160a01b031614949350505050565b826001600160a01b03166124a382610f0e565b6001600160a01b0316146124ca5760405163a195bc5360e01b815260040160405180910390fd5b6001600160a01b0382166124f157604051632c95542760e01b815260040160405180910390fd5b6124fc838383612f4c565b6125076000826123a4565b60008181526002602052604080822080546001600160a01b0319166001600160a01b0386811691821790925591518493918716917fddf252ad1be2c89b69c2b068fc378daa952ba7f163c4a11628f55a4df523b3ef91a4610ad2838383613179565b6007546001600160a01b031633146111125760405162461bcd60e51b815260206004820181905260248201527f4f776e61626c653a2063616c6c6572206973206e6f7420746865206f776e65726044820152606401612101565b60006125ce82610f0e565b90506125dc81600084612f4c565b6125e76000836123a4565b60008281526002602052604080822080546001600160a01b0319169055518391906001600160a01b038416907fddf252ad1be2c89b69c2b068fc378daa952ba7f163c4a11628f55a4df523b3ef908390a46112ac81600084613179565b6009546040516386bc2be360e01b81526001600160a01b03909116906386bc2be390612674908490600401614071565b600060405180830381600087803b15801561268e57600080fd5b505af11580156126a2573d6000803e3d6000fd5b5050505050565b6001600160a01b0382166126d057604051633904578f60e11b815260040160405180910390fd5b6000818152600260205260409020546001600160a01b03161561270657604051632eb5f0c360e21b815260040160405180910390fd5b61271260008383612f4c565b60008181526002602052604080822080546001600160a01b0319166001600160a01b03861690811790915590518392907fddf252ad1be2c89b69c2b068fc378daa952ba7f163c4a11628f55a4df523b3ef908290a46112ac60008383613179565b600780546001600160a01b038381166001600160a01b0319831681179093556040519116919082907f8be0079c531659141344cd1fd0a4f28419497f9722a3daafe3b4186f6b6457e090600090a35050565b8054600090801561280e57826127dc600183614e37565b815481106127ec576127ec614a77565b60009182526020909120015464010000000090046001600160e01b0316612811565b60005b6001600160e01b03169392505050565b816001600160a01b0316836001600160a01b031603612853576040516306f8139d60e11b815260040160405180910390fd5b6001600160a01b03838116600081815260046020908152604080832094871680845294825291829020805460ff191686151590811790915591519182527f17307eab39ab6107e8899845ad3d59bd9653f200f220920489ca2b5937696c31910160405180910390a3505050565b60008080600019858709858702925082811083820303915050806000036128fa578382816128f0576128f06151d8565b0492505050611188565b83811061292457604051631dcf306360e21b81526004810182905260248101859052604401612101565b60008486880960026001871981018816978890046003810283188082028403028082028403028082028403028082028403028082028403029081029092039091026000889003889004909101858311909403939093029303949094049190911702949350505050565b6001600160a01b038381166000818152600f6020908152604080832086845290915280822080548786166001600160a01b0319821681179092559151919094169392849290917f3134e8a2e6d97e929a7e54011ea5485d7d196dd5f0ba4d4ef95803e8e3fc257f9190a4610c05818484612a078887613272565b6132b2565b612a17848484612490565b612a2384848484613407565b610c05576040516336f57c1b60e11b815260040160405180910390fd5b604051609160f51b60208201526022810182905260609060009060420160405160208183030381529060405290506000612a7982613509565b90508481604051602001612a8e9291906151ee565b6040516020818303038152906040529250505092915050565b612ab182826136a1565b5050600591909155600680546001600160a01b0319166001600160a01b03909216919091179055565b6000438210612b2b5760405162461bcd60e51b815260206004820181905260248201527f436865636b706f696e74733a20626c6f636b206e6f7420796574206d696e65646044820152606401612101565b825460005b81811015612b90576000612b4482846136ba565b905084866000018281548110612b5c57612b5c614a77565b60009182526020909120015463ffffffff161115612b7c57809250612b8a565b612b87816001614e4a565b91505b50612b30565b8115612bd45784612ba2600184614e37565b81548110612bb257612bb2614a77565b60009182526020909120015464010000000090046001600160e01b0316612bd7565b60005b6001600160e01b031695945050505050565b600c5460009060c083013503612c0457506080810135612cba565b600b546001600160a01b0316156112ac57600d54612cb790608084013590612c2d90600a615301565b600b54600c54604051635268657960e11b815260c08801356004820152602481019190915260a087013560448201526001600160a01b039091169063a4d0caf290606401602060405180830381865afa158015612c8e573d6000803e3d6000fd5b505050506040513d601f19601f82011682018060405250810190612cb29190614da5565b6128c0565b90505b6000600e81612cd16101a086016101808701613e7d565b6001600160a01b03168152602081019190915260400160009081205491508290612d036101a086016101808701613e7d565b6001600160a01b0316612d196020870187613e7d565b6001600160a01b031603612d305790820190612d33565b50815b60006044612d456101e0880188614b03565b9050118015612d89575063b3bcbb7960e01b612d656101e0880188614b03565b612d7491604491604091614b49565b612d7d91614b73565b6001600160e01b031916145b15612e60576060612d9e6101e0880188614b03565b810190612dab919061530d565b90955093508492505081159050612e2e5750600954604051634228826f60e11b81523060048201526001600160a01b039091169063845104de90602401608060405180830381865afa158015612e05573d6000803e3d6000fd5b505050506040513d601f19601f82011682018060405250810190612e2991906153df565b606001515b15612e3857600091505b805115612e5e57612e5b8482612e566101a08b016101808c01613e7d565b6136d5565b93505b505b8215612ebc5780612e8457604051631b57826960e21b815260040160405180910390fd5b828201600e6000612e9d6101a08a016101808b01613e7d565b6001600160a01b031681526020810191909152604001600020556122f1565b8184146122f15781600e6000612eda6101a08a016101808b01613e7d565b6001600160a01b03168152602081019190915260400160002055505050505050565b60006001600160e01b031982166380ac58cd60e01b1480612f2d57506001600160e01b03198216635b5e139f60e01b145b8061098c57506301ffc9a760e01b6001600160e01b031983161461098c565b6001600160a01b03831615610ad25760095460405163b67cb04760e01b8152306004820152602481018390526000916001600160a01b03169063b67cb0479060440161016060405180830381865afa158015612fac573d6000803e3d6000fd5b505050506040513d601f19601f82011682018060405250810190612fd09190615463565b90508061014001511561309557600a546005546040516321d1336160e11b815260048101919091526000916001600160a01b0316906343a266c29060240161012060405180830381865afa15801561302c573d6000803e3d6000fd5b505050506040513d601f19601f820116820180604052508101906130509190614e5d565b90506001600160a01b03841615801590613075575061010081015160f41c6001908116145b15613093576040516318cdaf9760e01b815260040160405180910390fd5b505b6009546040516308ed6c0160e41b8152306004820152602481018490526000916001600160a01b031690638ed6c01090604401602060405180830381865afa1580156130e5573d6000803e3d6000fd5b505050506040513d601f19601f820116820180604052508101906131099190614c6f565b6001600160a01b031603610c0557600954604051638cec7d3960e01b8152600481018490526001600160a01b03868116602483015290911690638cec7d3990604401600060405180830381600087803b15801561316557600080fd5b505af11580156122ee573d6000803e3d6000fd5b60095460405163b67cb04760e01b8152306004820152602481018390526000916001600160a01b03169063b67cb0479060440161016060405180830381865afa1580156131ca573d6000803e3d6000fd5b505050506040513d601f19601f820116820180604052508101906131ee9190615463565b60095481516040516330b157e560e21b815260048101919091526001600160a01b038781166024830152868116604483015292935091169063c2c55f9490606401600060405180830381600087803b15801561324957600080fd5b505af115801561325d573d6000803e3d6000fd5b5050505061326d84848484613817565b610c05565b6009546040516305c9a1d560e31b81523060048201526001600160a01b038481166024830152604482018490526000921690632e4d0ea890606401611147565b826001600160a01b0316846001600160a01b031614806132d0575080155b610c05576001600160a01b0384161561336b576001600160a01b0384166000908152601060209081526040808320858452909152812081906133159061383585613841565b60408051838152602081018390523381830152905192945090925085916001600160a01b038916917fed0c1e94c302bdbbd8bbd6a4fb7c3ed335c2292407cd816eadd075d019d0ce04919081900360600190a350505b6001600160a01b03831615610c05576001600160a01b0383166000908152601060209081526040808320858452909152812081906133ac9061386f85613841565b60408051838152602081018390523381830152905192945090925085916001600160a01b038816917fed0c1e94c302bdbbd8bbd6a4fb7c3ed335c2292407cd816eadd075d019d0ce04919081900360600190a3505050505050565b60006001600160a01b0384163b156134fe57604051630a85bd0160e11b81526001600160a01b0385169063150b7a029061344b903390899088908890600401615505565b6020604051808303816000875af1925050508015613486575060408051601f3d908101601f1916820190925261348391810190615542565b60015b6134e4573d8080156134b4576040519150601f19603f3d011682016040523d82523d6000602084013e6134b9565b606091505b5080516000036134dc576040516336f57c1b60e11b815260040160405180910390fd5b805181602001fd5b6001600160e01b031916630a85bd0160e11b149050611dde565b506001949350505050565b6060815160000361352857505060408051600081526020810190915290565b60408051602e8082526105e08201909252600091602082016105c08036833701905050905060008160008151811061356257613562614a77565b60ff90921660209283029190910190910152825160019060005b8181101561367d57600086828151811061359857613598614a77565b016020015160f81c905060005b8460ff168110156136225760088682815181106135c4576135c4614a77565b602002602001015160ff16901b826135dc9190614e4a565b91506135e9603a8361555f565b8682815181106135fb576135fb614a77565b60ff90921660209283029190910190910152613618603a83615573565b91506001016135a5565b505b801561367457613635603a8261555f565b858560ff168151811061364a5761364a614a77565b60ff9092166020928302919091019091015260019093019261366d603a82615573565b9050613624565b5060010161357c565b5061369861369361368e858561387b565b613922565b6139c4565b95945050505050565b60006136ad83826155cd565b506001610ad282826155cd565b60006136c96002848418615573565b61118890848416614e4a565b60095460405163eaa19ab360e01b81526000916060916001600160a01b039091169063eaa19ab39061370f9088908890879060040161568c565b6000604051808303816000875af115801561372e573d6000803e3d6000fd5b505050506040513d6000823e601f3d908101601f191682016040526137569190810190614d44565b81519093509091506000805b8281101561380c5783818151811061377c5761377c614a77565b6020026020010151915061379086836126a9565b856001600160a01b03168782815181106137ac576137ac614a77565b602002602001015161ffff16837f598baf7bf150ca2f42be9e9f8f55e81d45f5715c3ff22bf46d697fabec7f31d68b336040516137fc9291909182526001600160a01b0316602082015260400190565b60405180910390a4600101613762565b505050509392505050565b60a081015115610c0557610c05848483600001518460a00151613a9d565b60006111888284614e37565b6000806138638561385e613854886127c5565b868863ffffffff16565b613b3f565b91509150935093915050565b60006111888284614e4a565b606060008260ff166001600160401b0381111561389a5761389a614084565b6040519080825280602002602001820160405280156138c3578160200160208202803683370190505b50905060005b8360ff1681101561391a578481815181106138e6576138e6614a77565b602002602001015182828151811061390057613900614a77565b60ff909216602092830291909101909101526001016138c9565b509392505050565b80516060906000816001600160401b0381111561394157613941614084565b60405190808252806020026020018201604052801561396a578160200160208202803683370190505b50905060005b8281101561391a5784816001875103038151811061399057613990614a77565b60200260200101518282815181106139aa576139aa614a77565b60ff90921660209283029190910190910152600101613970565b80516060906000816001600160401b038111156139e3576139e3614084565b6040519080825280601f01601f191660200182016040528015613a0d576020820181803683370190505b50905060005b8281101561391a576040518060600160405280603a81526020016156ea603a9139858281518110613a4657613a46614a77565b602002602001015160ff1681518110613a6157613a61614a77565b602001015160f81c60f81b828281518110613a7e57613a7e614a77565b60200101906001600160f81b031916908160001a905350600101613a13565b6001600160a01b038416613ac9576000828152601160205260409020613ac69061386f83613841565b50505b6001600160a01b038316613af5576000828152601160205260409020613af29061383583613841565b50505b6001600160a01b038085166000908152600f60208181526040808420878552825280842054888616855292825280842087855290915290912054610c0592918216911684846132b2565b8154600090819081613b50866127c5565b9050600082118015613b8e57504386613b6a600185614e37565b81548110613b7a57613b7a614a77565b60009182526020909120015463ffffffff16145b15613bee57613b9c85613c6a565b86613ba8600185614e37565b81548110613bb857613bb8614a77565b9060005260206000200160000160046101000a8154816001600160e01b0302191690836001600160e01b03160217905550613c5c565b856000016040518060400160405280613c0643613cd7565b63ffffffff168152602001613c1a88613c6a565b6001600160e01b0390811690915282546001810184556000938452602093849020835194909301519091166401000000000263ffffffff909316929092179101555b9250839150505b9250929050565b60006001600160e01b03821115613cd35760405162461bcd60e51b815260206004820152602760248201527f53616665436173743a2076616c756520646f65736e27742066697420696e20326044820152663234206269747360c81b6064820152608401612101565b5090565b600063ffffffff821115613cd35760405162461bcd60e51b815260206004820152602660248201527f53616665436173743a2076616c756520646f65736e27742066697420696e203360448201526532206269747360d01b6064820152608401612101565b6001600160e01b03198116811461211357600080fd5b600060208284031215613d6457600080fd5b813561118881613d3c565b60005b83811015613d8a578181015183820152602001613d72565b50506000910152565b60008151808452613dab816020860160208601613d6f565b601f01601f19169290920160200192915050565b6020815260006111886020830184613d93565b600060208284031215613de457600080fd5b5035919050565b6001600160a01b038116811461211357600080fd5b8035613e0b81613deb565b919050565b60008060408385031215613e2357600080fd5b8235613e2e81613deb565b946020939093013593505050565b600080600060608486031215613e5157600080fd5b8335613e5c81613deb565b92506020840135613e6c81613deb565b929592945050506040919091013590565b600060208284031215613e8f57600080fd5b813561118881613deb565b60008060208385031215613ead57600080fd5b82356001600160401b0380821115613ec457600080fd5b818501915085601f830112613ed857600080fd5b813581811115613ee757600080fd5b8660208260061b8501011115613efc57600080fd5b60209290920196919550909350505050565b60006101e08284031215613f2157600080fd5b50919050565b600060208284031215613f3957600080fd5b81356001600160401b03811115613f4f57600080fd5b611dde84828501613f0e565b60008083601f840112613f6d57600080fd5b5081356001600160401b03811115613f8457600080fd5b6020830191508360208260051b8501011115613c6357600080fd5b60008060208385031215613fb257600080fd5b82356001600160401b03811115613fc857600080fd5b613fd485828601613f5b565b90969095509350505050565b600080600060408486031215613ff557600080fd5b83356001600160401b0381111561400b57600080fd5b61401786828701613f5b565b909450925050602084013561402b81613deb565b809150509250925092565b600081518084526020808501945080840160005b838110156140665781518752958201959082019060010161404a565b509495945050505050565b6020815260006111886020830184614036565b634e487b7160e01b600052604160045260246000fd5b604080519081016001600160401b03811182821017156140bc576140bc614084565b60405290565b604051608081016001600160401b03811182821017156140bc576140bc614084565b60405161014081016001600160401b03811182821017156140bc576140bc614084565b60405161012081016001600160401b03811182821017156140bc576140bc614084565b60405161016081016001600160401b03811182821017156140bc576140bc614084565b604051601f8201601f191681016001600160401b038111828210171561417557614175614084565b604052919050565b60006001600160401b0382111561419657614196614084565b5060051b60200190565b600082601f8301126141b157600080fd5b813560206141c66141c18361417d565b61414d565b82815260059290921b840181019181810190868411156141e557600080fd5b8286015b8481101561420057803583529183019183016141e9565b509695505050505050565b6000806040838503121561421e57600080fd5b82356001600160401b038082111561423557600080fd5b614241868387016141a0565b9350602085013591508082111561425757600080fd5b5061426485828601613f0e565b9150509250929050565b6000806020838503121561428157600080fd5b82356001600160401b038082111561429857600080fd5b818501915085601f8301126142ac57600080fd5b8135818111156142bb57600080fd5b866020828501011115613efc57600080fd5b801515811461211357600080fd5b8035613e0b816142cd565b600080604083850312156142f957600080fd5b823561430481613deb565b91506020830135614314816142cd565b809150509250929050565b838152600060206060818401526143396060840186613d93565b83810360408581019190915285518083528387019284019060005b8181101561438257845180516001600160a01b03168452860151868401529385019391830191600101614354565b50909998505050505050505050565b600080604083850312156143a457600080fd5b50508035926020909101359150565b60006001600160401b038211156143cc576143cc614084565b50601f01601f191660200190565b60006143e86141c1846143b3565b90508281528383830111156143fc57600080fd5b828260208301376000602084830101529392505050565b6000806000806080858703121561442957600080fd5b843561443481613deb565b9350602085013561444481613deb565b92506040850135915060608501356001600160401b0381111561446657600080fd5b8501601f8101871361447757600080fd5b614486878235602084016143da565b91505092959194509250565b600060208083850312156144a557600080fd5b82356001600160401b038111156144bb57600080fd5b8301601f810185136144cc57600080fd5b80356144da6141c18261417d565b81815260069190911b820183019083810190878311156144f957600080fd5b928401925b8284101561454557604084890312156145175760008081fd5b61451f61409a565b843561452a81613deb565b815284860135868201528252604090930192908401906144fe565b979650505050505050565b600082601f83011261456157600080fd5b611188838335602085016143da565b803569ffffffffffffffffffff81168114613e0b57600080fd5b803565ffffffffffff81168114613e0b57600080fd5b803564ffffffffff81168114613e0b57600080fd5b803561ffff81168114613e0b57600080fd5b600060808083850312156145da57600080fd5b6145e26140c2565b915082356001600160401b038111156145fa57600080fd5b8301601f8101851361460b57600080fd5b8035602061461b6141c18361417d565b828152610140928302840182019282820191908985111561463b57600080fd5b948301945b8486101561470a5780868b0312156146585760008081fd5b6146606140e4565b61466987614570565b815261467685880161458a565b8582015260406146878189016145a0565b9082015260606146988882016145b5565b908201526146a78789016145b5565b8882015260a06146b8818901613e00565b9082015260c0878101359082015260e06146d38189016142db565b908201526101006146e58882016142db565b908201526101206146f78882016142db565b9082015283529485019491830191614640565b5086525085810135908501525050506040808301359082015261472f60608301613e00565b606082015292915050565b60006080828403121561474c57600080fd5b6147546140c2565b90508135614761816142cd565b81526020820135614771816142cd565b60208201526040820135614784816142cd565b6040820152606082013561472f816142cd565b60008060008060008060008060008060006101c08c8e0312156147b957600080fd5b8b359a506147c960208d01613e00565b99506001600160401b038060408e013511156147e457600080fd5b6147f48e60408f01358f01614550565b99508060608e0135111561480757600080fd5b6148178e60608f01358f01614550565b985061482560808e01613e00565b97508060a08e0135111561483857600080fd5b6148488e60a08f01358f01614550565b965061485660c08e01613e00565b95508060e08e0135111561486957600080fd5b6148798e60e08f01358f01614550565b9450806101008e0135111561488d57600080fd5b5061489f8d6101008e01358e016145c7565b92506148ae6101208d01613e00565b91506148be8d6101408e0161473a565b90509295989b509295989b9093969950565b6000806000606084860312156148e557600080fd5b83356148f081613deb565b95602085013595506040909401359392505050565b60006020828403121561491757600080fd5b81356001600160401b0381111561492d57600080fd5b82016101a0818503121561118857600080fd5b60006020828403121561495257600080fd5b81356001600160401b0381111561496857600080fd5b8201610200818503121561118857600080fd5b6000806040838503121561498e57600080fd5b823561499981613deb565b9150602083013561431481613deb565b600080600080604085870312156149bf57600080fd5b84356001600160401b03808211156149d657600080fd5b818701915087601f8301126149ea57600080fd5b8135818111156149f957600080fd5b88602061014083028501011115614a0f57600080fd5b602092830196509450908601359080821115614a2a57600080fd5b50614a3787828801613f5b565b95989497509550505050565b600181811c90821680614a5757607f821691505b602082108103613f2157634e487b7160e01b600052602260045260246000fd5b634e487b7160e01b600052603260045260246000fd5b600060408284031215614a9f57600080fd5b604051604081018181106001600160401b0382111715614ac157614ac1614084565b604052823581526020928301359281019290925250919050565b8051613e0b816142cd565b600060208284031215614af857600080fd5b8151611188816142cd565b6000808335601e19843603018112614b1a57600080fd5b8301803591506001600160401b03821115614b3457600080fd5b602001915036819003821315613c6357600080fd5b60008085851115614b5957600080fd5b83861115614b6657600080fd5b5050820193919092039150565b6001600160e01b03198135818116916004851015614b9b5780818660040360031b1b83161692505b505092915050565b600080600060608486031215614bb857600080fd5b833592506020840135614bca81613d3c565b915060408401356001600160401b03811115614be557600080fd5b614bf1868287016141a0565b9150509250925092565b60008235603e19833603018112614c1157600080fd5b9190910192915050565b6000808335601e19843603018112614c3257600080fd5b8301803591506001600160401b03821115614c4c57600080fd5b6020019150600581901b3603821315613c6357600080fd5b8051613e0b81613deb565b600060208284031215614c8157600080fd5b815161118881613deb565b84815260606020808301829052908201849052600090859060808401835b87811015614cd15761ffff614cbe856145b5565b1682529282019290820190600101614caa565b50809350505050821515604083015295945050505050565b600082601f830112614cfa57600080fd5b81516020614d0a6141c18361417d565b82815260059290921b84018101918181019086841115614d2957600080fd5b8286015b848110156142005780518352918301918301614d2d565b60008060408385031215614d5757600080fd5b82516001600160401b03811115614d6d57600080fd5b614d7985828601614ce9565b925050602083015190509250929050565b600060208284031215614d9c57600080fd5b611188826145b5565b600060208284031215614db757600080fd5b5051919050565b6001600160a01b0383168152604060208201819052600090611dde90830184614036565b60208152816020820152818360408301376000818301604090810191909152601f909201601f19160101919050565b8183823760009101908152919050565b634e487b7160e01b600052601160045260246000fd5b8181038181111561098c5761098c614e21565b8082018082111561098c5761098c614e21565b60006101208284031215614e7057600080fd5b614e78614107565b825181526020830151602082015260408301516040820152606083015160608201526080830151608082015260a083015160a082015260c083015160c0820152614ec460e08401614c64565b60e0820152610100928301519281019290925250919050565b600060208284031215614eef57600080fd5b81516001600160401b03811115614f0557600080fd5b611dde84828501614ce9565b600060208284031215614f2357600080fd5b81516001600160401b03811115614f3957600080fd5b8201601f81018413614f4a57600080fd5b8051614f586141c1826143b3565b818152856020838501011115614f6d57600080fd5b613698826020830160208601613d6f565b602080825282518282018190526000919060409081850190868401855b8281101561504a578151805169ffffffffffffffffffff1685528681015165ffffffffffff16878601528581015164ffffffffff168686015260608082015161ffff908116918701919091526080808301519091169086015260a0808201516001600160a01b03169086015260c0808201519086015260e08082015115159086015261010080820151151590860152610120908101511515908501526101409093019290850190600101614f9b565b5091979650505050505050565b6020808252810182905260006001600160fb1b0383111561507757600080fd5b8260051b80856040850137919091016040019392505050565b6150ad8261509d83614570565b69ffffffffffffffffffff169052565b6150b96020820161458a565b65ffffffffffff1660208301526150d2604082016145a0565b64ffffffffff1660408301526150ea606082016145b5565b61ffff1660608301526150ff608082016145b5565b61ffff16608083015261511460a08201613e00565b6001600160a01b031660a083015260c0818101359083015261513860e082016142db565b151560e083015261010061514d8282016142db565b1515908301526101206151618282016142db565b80151584830152610c05565b6020808252810182905260008360408301825b858110156151a6576151928284615090565b610140928301929190910190600101615180565b5095945050505050565b61016081016151bf8285615090565b6001600160a01b03929092166101409190910152919050565b634e487b7160e01b600052601260045260246000fd5b60008351615200818460208801613d6f565b835190830190615214818360208801613d6f565b01949350505050565b600181815b8085111561525857816000190482111561523e5761523e614e21565b8085161561524b57918102915b93841c9390800290615222565b509250929050565b60008261526f5750600161098c565b8161527c5750600061098c565b8160018114615292576002811461529c576152b8565b600191505061098c565b60ff8411156152ad576152ad614e21565b50506001821b61098c565b5060208310610133831016604e8410600b84101617156152db575081810a61098c565b6152e5838361521d565b80600019048211156152f9576152f9614e21565b029392505050565b60006111888383615260565b600080600080600060a0868803121561532557600080fd5b853594506020808701359450604087013561533f81613d3c565b9350606087013561534f816142cd565b925060808701356001600160401b0381111561536a57600080fd5b8701601f8101891361537b57600080fd5b80356153896141c18261417d565b81815260059190911b8201830190838101908b8311156153a857600080fd5b928401925b828410156153cd576153be846145b5565b825292840192908401906153ad565b80955050505050509295509295909350565b6000608082840312156153f157600080fd5b604051608081018181106001600160401b038211171561541357615413614084565b6040528251615421816142cd565b81526020830151615431816142cd565b60208201526040830151615444816142cd565b60408201526060830151615457816142cd565b60608201529392505050565b6000610160828403121561547657600080fd5b61547e61412a565b825181526020830151602082015260408301516040820152606083015160608201526080830151608082015260a083015160a082015260c083015160c08201526154ca60e08401614c64565b60e082015261010083810151908201526101206154e8818501614adb565b908201526101406154fa848201614adb565b908201529392505050565b6001600160a01b038581168252841660208201526040810183905260806060820181905260009061553890830184613d93565b9695505050505050565b60006020828403121561555457600080fd5b815161118881613d3c565b60008261556e5761556e6151d8565b500690565b600082615582576155826151d8565b500490565b601f821115610ad257600081815260208120601f850160051c810160208610156155ae5750805b601f850160051c820191505b818110156122f1578281556001016155ba565b81516001600160401b038111156155e6576155e6614084565b6155fa816155f48454614a43565b84615587565b602080601f83116001811461562f57600084156156175750858301515b600019600386901b1c1916600185901b1785556122f1565b600085815260208120601f198616915b8281101561565e5788860151825594840194600190910190840161563f565b508582101561567c5787850151600019600388901b60f8161c191681555b5050505050600190811b01905550565b6000606082018583526020606081850152818651808452608086019150828801935060005b818110156156d157845161ffff16835293830193918301916001016156b1565b5050809350505050821515604083015294935050505056fe31323334353637383941424344454647484a4b4c4d4e505152535455565758595a6162636465666768696a6b6d6e6f707172737475767778797aa2646970667358221220a6db4052c50b157f2d0db2e4952a3e4a48f7b2834514cd72dfbd92322bad71fa64736f6c63430008100033",
    "linkReferences": {}
  },
  "methodIdentifiers": {
    "adjustTiers((uint80,uint48,uint40,uint16,uint16,address,bytes32,bool,bool,bool)[],uint256[])": "f5a38e63",
    "approve(address,uint256)": "095ea7b3",
    "balanceOf(address)": "70a08231",
    "codeOrigin()": "1d153ca4",
    "contractURI()": "e8a3d485",
    "creditsOf(address)": "245a45b5",
    "didPay((address,uint256,uint256,(address,uint256,uint256,uint256),(address,uint256,uint256,uint256),uint256,address,bool,string,bytes))": "da9ee8b7",
    "didRedeem((address,uint256,uint256,uint256,(address,uint256,uint256,uint256),(address,uint256,uint256,uint256),address,string,bytes))": "2b13c58f",
    "directory()": "c41c2f24",
    "firstOwnerOf(uint256)": "54c6d1f5",
    "fundingCycleStore()": "557e7155",
    "getApproved(uint256)": "081812fc",
    "getPastTierTotalVotes(uint256,uint256)": "d31cc52c",
    "getPastTierVotes(address,uint256,uint256)": "d40e7146",
    "getTierDelegate(address,uint256)": "82732b6d",
    "getTierTotalVotes(uint256)": "94c5c5ca",
    "getTierVotes(address,uint256)": "ca323efe",
    "initialize(uint256,address,string,string,address,string,address,string,((uint80,uint48,uint40,uint16,uint16,address,bytes32,bool,bool,bool)[],uint256,uint256,address),address,(bool,bool,bool,bool))": "cac486a8",
    "isApprovedForAll(address,address)": "e985e9c5",
    "mintFor((uint16[],address)[])": "36c1a93b",
    "mintFor(uint16[],address)": "6ac6d941",
    "mintReservesFor((uint256,uint256)[])": "2a596e53",
    "mintReservesFor(uint256,uint256)": "aa4fb15b",
    "name()": "06fdde03",
    "owner()": "8da5cb5b",
    "ownerOf(uint256)": "6352211e",
    "payParams((address,address,(address,uint256,uint256,uint256),uint256,uint256,address,uint256,uint256,string,bytes))": "d46cf171",
    "prices()": "d3419bf3",
    "pricingCurrency()": "64640c1e",
    "pricingDecimals()": "4ecba625",
    "projectId()": "3fafa127",
    "redeemParams((address,address,uint256,uint256,uint256,uint256,uint256,(address,uint256,uint256,uint256),bool,uint256,string,bytes))": "a51cfd18",
    "redemptionWeightOf(uint256[],(address,address,uint256,uint256,uint256,uint256,uint256,(address,uint256,uint256,uint256),bool,uint256,string,bytes))": "7ba62bf9",
    "renounceOwnership()": "715018a6",
    "safeTransferFrom(address,address,uint256)": "42842e0e",
    "safeTransferFrom(address,address,uint256,bytes)": "b88d4fde",
    "setApprovalForAll(address,bool)": "a22cb465",
    "setBaseUri(string)": "a0bcfc7f",
    "setContractUri(string)": "ccb4807b",
    "setDefaultReservedTokenBeneficiary(address)": "df487e26",
    "setTierDelegate(address,uint256)": "ab951e39",
    "setTierDelegates((address,uint256)[])": "c74b13d9",
    "setTokenUriResolver(address)": "2407497e",
    "store()": "975057e7",
    "supportsInterface(bytes4)": "01ffc9a7",
    "symbol()": "95d89b41",
    "tokenURI(uint256)": "c87b56dd",
    "totalRedemptionWeight((address,address,uint256,uint256,uint256,uint256,uint256,(address,uint256,uint256,uint256),bool,uint256,string,bytes))": "9494bf72",
    "transferFrom(address,address,uint256)": "23b872dd",
    "transferOwnership(address)": "f2fde38b"
  },
  "id": 30
}