{
  "abi": [
    {
      "inputs": [],
      "name": "ALEADY_MINTED",
      "type": "error"
    },
    {
      "inputs": [],
      "name": "APPROVAL_TO_CURRENT_OWNER",
      "type": "error"
    },
    {
      "inputs": [],
      "name": "APPROVE_TO_CALLER",
      "type": "error"
    },
    {
      "inputs": [],
      "name": "BLOCK_NOT_YET_MINED",
      "type": "error"
    },
    {
      "inputs": [],
      "name": "CALLER_NOT_OWNER_OR_APPROVED",
      "type": "error"
    },
    {
      "inputs": [],
      "name": "DELEGATE_ADDRESS_ZERO",
      "type": "error"
    },
    {
      "inputs": [],
      "name": "INCORRECT_OWNER",
      "type": "error"
    },
    {
      "inputs": [],
      "name": "INVALID_PAYMENT_EVENT",
      "type": "error"
    },
    {
      "inputs": [],
      "name": "INVALID_REDEMPTION_EVENT",
      "type": "error"
    },
    {
      "inputs": [],
      "name": "INVALID_REDEMPTION_METADATA",
      "type": "error"
    },
    {
      "inputs": [],
      "name": "INVALID_TOKEN_ID",
      "type": "error"
    },
    {
      "inputs": [],
      "name": "MINT_TO_ZERO",
      "type": "error"
    },
    {
      "inputs": [],
      "name": "NOT_AVAILABLE",
      "type": "error"
    },
    {
      "inputs": [],
      "name": "OVERSPENDING",
      "type": "error"
    },
    {
      "inputs": [
        {
          "internalType": "uint256",
          "name": "prod1",
          "type": "uint256"
        },
        {
          "internalType": "uint256",
          "name": "denominator",
          "type": "uint256"
        }
      ],
      "name": "PRBMath__MulDivOverflow",
      "type": "error"
    },
    {
      "inputs": [],
      "name": "PRICING_RESOLVER_CHANGES_PAUSED",
      "type": "error"
    },
    {
      "inputs": [],
      "name": "RESERVED_TOKEN_MINTING_PAUSED",
      "type": "error"
    },
    {
      "inputs": [],
      "name": "TRANSFERS_PAUSED",
      "type": "error"
    },
    {
      "inputs": [],
      "name": "TRANSFER_TO_NON_IMPLEMENTER",
      "type": "error"
    },
    {
      "inputs": [],
      "name": "TRANSFER_TO_ZERO_ADDRESS",
      "type": "error"
    },
    {
      "inputs": [],
      "name": "UNAUTHORIZED",
      "type": "error"
    },
    {
      "inputs": [],
      "name": "UNEXPECTED_TOKEN_REDEEMED",
      "type": "error"
    },
    {
      "anonymous": false,
      "inputs": [
        {
          "indexed": true,
          "internalType": "uint256",
          "name": "changeAmount",
          "type": "uint256"
        },
        {
          "indexed": true,
          "internalType": "uint256",
          "name": "newTotalCredits",
          "type": "uint256"
        },
        {
          "indexed": true,
          "internalType": "address",
          "name": "account",
          "type": "address"
        },
        {
          "indexed": false,
          "internalType": "address",
          "name": "caller",
          "type": "address"
        }
      ],
      "name": "AddCredits",
      "type": "event"
    },
    {
      "anonymous": false,
      "inputs": [
        {
          "indexed": true,
          "internalType": "uint256",
          "name": "tierId",
          "type": "uint256"
        },
        {
          "components": [
            {
              "internalType": "uint80",
              "name": "contributionFloor",
              "type": "uint80"
            },
            {
              "internalType": "uint48",
              "name": "lockedUntil",
              "type": "uint48"
            },
            {
              "internalType": "uint40",
              "name": "initialQuantity",
              "type": "uint40"
            },
            {
              "internalType": "uint16",
              "name": "votingUnits",
              "type": "uint16"
            },
            {
              "internalType": "uint16",
              "name": "reservedRate",
              "type": "uint16"
            },
            {
              "internalType": "address",
              "name": "reservedTokenBeneficiary",
              "type": "address"
            },
            {
              "internalType": "uint8",
              "name": "royaltyRate",
              "type": "uint8"
            },
            {
              "internalType": "address",
              "name": "royaltyBeneficiary",
              "type": "address"
            },
            {
              "internalType": "bytes32",
              "name": "encodedIPFSUri",
              "type": "bytes32"
            },
            {
              "internalType": "uint8",
              "name": "category",
              "type": "uint8"
            },
            {
              "internalType": "bool",
              "name": "allowManualMint",
              "type": "bool"
            },
            {
              "internalType": "bool",
              "name": "shouldUseReservedTokenBeneficiaryAsDefault",
              "type": "bool"
            },
            {
              "internalType": "bool",
              "name": "shouldUseRoyaltyBeneficiaryAsDefault",
              "type": "bool"
            },
            {
              "internalType": "bool",
              "name": "transfersPausable",
              "type": "bool"
            }
          ],
          "indexed": false,
          "internalType": "struct JB721TierParams",
          "name": "data",
          "type": "tuple"
        },
        {
          "indexed": false,
          "internalType": "address",
          "name": "caller",
          "type": "address"
        }
      ],
      "name": "AddTier",
      "type": "event"
    },
    {
      "anonymous": false,
      "inputs": [
        {
          "indexed": true,
          "internalType": "address",
          "name": "owner",
          "type": "address"
        },
        {
          "indexed": true,
          "internalType": "address",
          "name": "approved",
          "type": "address"
        },
        {
          "indexed": true,
          "internalType": "uint256",
          "name": "tokenId",
          "type": "uint256"
        }
      ],
      "name": "Approval",
      "type": "event"
    },
    {
      "anonymous": false,
      "inputs": [
        {
          "indexed": true,
          "internalType": "address",
          "name": "owner",
          "type": "address"
        },
        {
          "indexed": true,
          "internalType": "address",
          "name": "operator",
          "type": "address"
        },
        {
          "indexed": false,
          "internalType": "bool",
          "name": "approved",
          "type": "bool"
        }
      ],
      "name": "ApprovalForAll",
      "type": "event"
    },
    {
      "anonymous": false,
      "inputs": [
        {
          "indexed": true,
          "internalType": "address",
          "name": "delegator",
          "type": "address"
        },
        {
          "indexed": true,
          "internalType": "address",
          "name": "fromDelegate",
          "type": "address"
        },
        {
          "indexed": true,
          "internalType": "address",
          "name": "toDelegate",
          "type": "address"
        }
      ],
      "name": "DelegateChanged",
      "type": "event"
    },
    {
      "anonymous": false,
      "inputs": [
        {
          "indexed": true,
          "internalType": "uint256",
          "name": "tokenId",
          "type": "uint256"
        },
        {
          "indexed": true,
          "internalType": "uint256",
          "name": "tierId",
          "type": "uint256"
        },
        {
          "indexed": true,
          "internalType": "address",
          "name": "beneficiary",
          "type": "address"
        },
        {
          "indexed": false,
          "internalType": "uint256",
          "name": "totalAmountContributed",
          "type": "uint256"
        },
        {
          "indexed": false,
          "internalType": "address",
          "name": "caller",
          "type": "address"
        }
      ],
      "name": "Mint",
      "type": "event"
    },
    {
      "anonymous": false,
      "inputs": [
        {
          "indexed": true,
          "internalType": "uint256",
          "name": "tokenId",
          "type": "uint256"
        },
        {
          "indexed": true,
          "internalType": "uint256",
          "name": "tierId",
          "type": "uint256"
        },
        {
          "indexed": true,
          "internalType": "address",
          "name": "beneficiary",
          "type": "address"
        },
        {
          "indexed": false,
          "internalType": "address",
          "name": "caller",
          "type": "address"
        }
      ],
      "name": "MintReservedToken",
      "type": "event"
    },
    {
      "anonymous": false,
      "inputs": [
        {
          "indexed": true,
          "internalType": "address",
          "name": "previousOwner",
          "type": "address"
        },
        {
          "indexed": true,
          "internalType": "address",
          "name": "newOwner",
          "type": "address"
        }
      ],
      "name": "OwnershipTransferred",
      "type": "event"
    },
    {
      "anonymous": false,
      "inputs": [
        {
          "indexed": true,
          "internalType": "uint256",
          "name": "tierId",
          "type": "uint256"
        },
        {
          "indexed": false,
          "internalType": "address",
          "name": "caller",
          "type": "address"
        }
      ],
      "name": "RemoveTier",
      "type": "event"
    },
    {
      "anonymous": false,
      "inputs": [
        {
          "indexed": true,
          "internalType": "string",
          "name": "baseUri",
          "type": "string"
        },
        {
          "indexed": false,
          "internalType": "address",
          "name": "caller",
          "type": "address"
        }
      ],
      "name": "SetBaseUri",
      "type": "event"
    },
    {
      "anonymous": false,
      "inputs": [
        {
          "indexed": true,
          "internalType": "string",
          "name": "contractUri",
          "type": "string"
        },
        {
          "indexed": false,
          "internalType": "address",
          "name": "caller",
          "type": "address"
        }
      ],
      "name": "SetContractUri",
      "type": "event"
    },
    {
      "anonymous": false,
      "inputs": [
        {
          "indexed": true,
          "internalType": "address",
          "name": "beneficiary",
          "type": "address"
        },
        {
          "indexed": false,
          "internalType": "address",
          "name": "caller",
          "type": "address"
        }
      ],
      "name": "SetDefaultReservedTokenBeneficiary",
      "type": "event"
    },
    {
      "anonymous": false,
      "inputs": [
        {
          "indexed": true,
          "internalType": "uint256",
          "name": "tierId",
          "type": "uint256"
        },
        {
          "indexed": false,
          "internalType": "bytes32",
          "name": "encodedIPFSUri",
          "type": "bytes32"
        },
        {
          "indexed": false,
          "internalType": "address",
          "name": "caller",
          "type": "address"
        }
      ],
      "name": "SetEncodedIPFSUri",
      "type": "event"
    },
    {
      "anonymous": false,
      "inputs": [
        {
          "indexed": true,
          "internalType": "contract IJBTokenUriResolver",
          "name": "newResolver",
          "type": "address"
        },
        {
          "indexed": false,
          "internalType": "address",
          "name": "caller",
          "type": "address"
        }
      ],
      "name": "SetTokenUriResolver",
      "type": "event"
    },
    {
      "anonymous": false,
      "inputs": [
        {
          "indexed": true,
          "internalType": "address",
          "name": "delegator",
          "type": "address"
        },
        {
          "indexed": true,
          "internalType": "address",
          "name": "fromDelegate",
          "type": "address"
        },
        {
          "indexed": true,
          "internalType": "address",
          "name": "toDelegate",
          "type": "address"
        },
        {
          "indexed": false,
          "internalType": "uint256",
          "name": "tierId",
          "type": "uint256"
        },
        {
          "indexed": false,
          "internalType": "address",
          "name": "caller",
          "type": "address"
        }
      ],
      "name": "TierDelegateChanged",
      "type": "event"
    },
    {
      "anonymous": false,
      "inputs": [
        {
          "indexed": true,
          "internalType": "address",
          "name": "delegate",
          "type": "address"
        },
        {
          "indexed": true,
          "internalType": "uint256",
          "name": "tierId",
          "type": "uint256"
        },
        {
          "indexed": false,
          "internalType": "uint256",
          "name": "previousBalance",
          "type": "uint256"
        },
        {
          "indexed": false,
          "internalType": "uint256",
          "name": "newBalance",
          "type": "uint256"
        },
        {
          "indexed": false,
          "internalType": "address",
          "name": "caller",
          "type": "address"
        }
      ],
      "name": "TierDelegateVotesChanged",
      "type": "event"
    },
    {
      "anonymous": false,
      "inputs": [
        {
          "indexed": true,
          "internalType": "address",
          "name": "from",
          "type": "address"
        },
        {
          "indexed": true,
          "internalType": "address",
          "name": "to",
          "type": "address"
        },
        {
          "indexed": true,
          "internalType": "uint256",
          "name": "tokenId",
          "type": "uint256"
        }
      ],
      "name": "Transfer",
      "type": "event"
    },
    {
      "anonymous": false,
      "inputs": [
        {
          "indexed": true,
          "internalType": "uint256",
          "name": "changeAmount",
          "type": "uint256"
        },
        {
          "indexed": true,
          "internalType": "uint256",
          "name": "newTotalCredits",
          "type": "uint256"
        },
        {
          "indexed": true,
          "internalType": "address",
          "name": "account",
          "type": "address"
        },
        {
          "indexed": false,
          "internalType": "address",
          "name": "caller",
          "type": "address"
        }
      ],
      "name": "UseCredits",
      "type": "event"
    },
    {
      "inputs": [
        {
          "components": [
            {
              "internalType": "uint80",
              "name": "contributionFloor",
              "type": "uint80"
            },
            {
              "internalType": "uint48",
              "name": "lockedUntil",
              "type": "uint48"
            },
            {
              "internalType": "uint40",
              "name": "initialQuantity",
              "type": "uint40"
            },
            {
              "internalType": "uint16",
              "name": "votingUnits",
              "type": "uint16"
            },
            {
              "internalType": "uint16",
              "name": "reservedRate",
              "type": "uint16"
            },
            {
              "internalType": "address",
              "name": "reservedTokenBeneficiary",
              "type": "address"
            },
            {
              "internalType": "uint8",
              "name": "royaltyRate",
              "type": "uint8"
            },
            {
              "internalType": "address",
              "name": "royaltyBeneficiary",
              "type": "address"
            },
            {
              "internalType": "bytes32",
              "name": "encodedIPFSUri",
              "type": "bytes32"
            },
            {
              "internalType": "uint8",
              "name": "category",
              "type": "uint8"
            },
            {
              "internalType": "bool",
              "name": "allowManualMint",
              "type": "bool"
            },
            {
              "internalType": "bool",
              "name": "shouldUseReservedTokenBeneficiaryAsDefault",
              "type": "bool"
            },
            {
              "internalType": "bool",
              "name": "shouldUseRoyaltyBeneficiaryAsDefault",
              "type": "bool"
            },
            {
              "internalType": "bool",
              "name": "transfersPausable",
              "type": "bool"
            }
          ],
          "internalType": "struct JB721TierParams[]",
          "name": "_tiersToAdd",
          "type": "tuple[]"
        },
        {
          "internalType": "uint256[]",
          "name": "_tierIdsToRemove",
          "type": "uint256[]"
        }
      ],
      "name": "adjustTiers",
      "outputs": [],
      "stateMutability": "nonpayable",
      "type": "function"
    },
    {
      "inputs": [
        {
          "internalType": "address",
          "name": "to",
          "type": "address"
        },
        {
          "internalType": "uint256",
          "name": "tokenId",
          "type": "uint256"
        }
      ],
      "name": "approve",
      "outputs": [],
      "stateMutability": "nonpayable",
      "type": "function"
    },
    {
      "inputs": [
        {
          "internalType": "address",
          "name": "_owner",
          "type": "address"
        }
      ],
      "name": "balanceOf",
      "outputs": [
        {
          "internalType": "uint256",
          "name": "balance",
          "type": "uint256"
        }
      ],
      "stateMutability": "view",
      "type": "function"
    },
    {
      "inputs": [],
      "name": "codeOrigin",
      "outputs": [
        {
          "internalType": "address",
          "name": "",
          "type": "address"
        }
      ],
      "stateMutability": "view",
      "type": "function"
    },
    {
      "inputs": [],
      "name": "contractURI",
      "outputs": [
        {
          "internalType": "string",
          "name": "",
          "type": "string"
        }
      ],
      "stateMutability": "view",
      "type": "function"
    },
    {
      "inputs": [
        {
          "internalType": "address",
          "name": "",
          "type": "address"
        }
      ],
      "name": "creditsOf",
      "outputs": [
        {
          "internalType": "uint256",
          "name": "",
          "type": "uint256"
        }
      ],
      "stateMutability": "view",
      "type": "function"
    },
    {
      "inputs": [
        {
          "components": [
            {
              "internalType": "address",
              "name": "payer",
              "type": "address"
            },
            {
              "internalType": "uint256",
              "name": "projectId",
              "type": "uint256"
            },
            {
              "internalType": "uint256",
              "name": "currentFundingCycleConfiguration",
              "type": "uint256"
            },
            {
              "components": [
                {
                  "internalType": "address",
                  "name": "token",
                  "type": "address"
                },
                {
                  "internalType": "uint256",
                  "name": "value",
                  "type": "uint256"
                },
                {
                  "internalType": "uint256",
                  "name": "decimals",
                  "type": "uint256"
                },
                {
                  "internalType": "uint256",
                  "name": "currency",
                  "type": "uint256"
                }
              ],
              "internalType": "struct JBTokenAmount",
              "name": "amount",
              "type": "tuple"
            },
            {
              "components": [
                {
                  "internalType": "address",
                  "name": "token",
                  "type": "address"
                },
                {
                  "internalType": "uint256",
                  "name": "value",
                  "type": "uint256"
                },
                {
                  "internalType": "uint256",
                  "name": "decimals",
                  "type": "uint256"
                },
                {
                  "internalType": "uint256",
                  "name": "currency",
                  "type": "uint256"
                }
              ],
              "internalType": "struct JBTokenAmount",
              "name": "forwardedAmount",
              "type": "tuple"
            },
            {
              "internalType": "uint256",
              "name": "projectTokenCount",
              "type": "uint256"
            },
            {
              "internalType": "address",
              "name": "beneficiary",
              "type": "address"
            },
            {
              "internalType": "bool",
              "name": "preferClaimedTokens",
              "type": "bool"
            },
            {
              "internalType": "string",
              "name": "memo",
              "type": "string"
            },
            {
              "internalType": "bytes",
              "name": "metadata",
              "type": "bytes"
            }
          ],
          "internalType": "struct JBDidPayData",
          "name": "_data",
          "type": "tuple"
        }
      ],
      "name": "didPay",
      "outputs": [],
      "stateMutability": "payable",
      "type": "function"
    },
    {
      "inputs": [
        {
          "components": [
            {
              "internalType": "address",
              "name": "holder",
              "type": "address"
            },
            {
              "internalType": "uint256",
              "name": "projectId",
              "type": "uint256"
            },
            {
              "internalType": "uint256",
              "name": "currentFundingCycleConfiguration",
              "type": "uint256"
            },
            {
              "internalType": "uint256",
              "name": "projectTokenCount",
              "type": "uint256"
            },
            {
              "components": [
                {
                  "internalType": "address",
                  "name": "token",
                  "type": "address"
                },
                {
                  "internalType": "uint256",
                  "name": "value",
                  "type": "uint256"
                },
                {
                  "internalType": "uint256",
                  "name": "decimals",
                  "type": "uint256"
                },
                {
                  "internalType": "uint256",
                  "name": "currency",
                  "type": "uint256"
                }
              ],
              "internalType": "struct JBTokenAmount",
              "name": "reclaimedAmount",
              "type": "tuple"
            },
            {
              "components": [
                {
                  "internalType": "address",
                  "name": "token",
                  "type": "address"
                },
                {
                  "internalType": "uint256",
                  "name": "value",
                  "type": "uint256"
                },
                {
                  "internalType": "uint256",
                  "name": "decimals",
                  "type": "uint256"
                },
                {
                  "internalType": "uint256",
                  "name": "currency",
                  "type": "uint256"
                }
              ],
              "internalType": "struct JBTokenAmount",
              "name": "forwardedAmount",
              "type": "tuple"
            },
            {
              "internalType": "address payable",
              "name": "beneficiary",
              "type": "address"
            },
            {
              "internalType": "string",
              "name": "memo",
              "type": "string"
            },
            {
              "internalType": "bytes",
              "name": "metadata",
              "type": "bytes"
            }
          ],
          "internalType": "struct JBDidRedeemData",
          "name": "_data",
          "type": "tuple"
        }
      ],
      "name": "didRedeem",
      "outputs": [],
      "stateMutability": "payable",
      "type": "function"
    },
    {
      "inputs": [],
      "name": "directory",
      "outputs": [
        {
          "internalType": "contract IJBDirectory",
          "name": "",
          "type": "address"
        }
      ],
      "stateMutability": "view",
      "type": "function"
    },
    {
      "inputs": [
        {
          "internalType": "uint256",
          "name": "_tokenId",
          "type": "uint256"
        }
      ],
      "name": "firstOwnerOf",
      "outputs": [
        {
          "internalType": "address",
          "name": "",
          "type": "address"
        }
      ],
      "stateMutability": "view",
      "type": "function"
    },
    {
      "inputs": [],
      "name": "fundingCycleStore",
      "outputs": [
        {
          "internalType": "contract IJBFundingCycleStore",
          "name": "",
          "type": "address"
        }
      ],
      "stateMutability": "view",
      "type": "function"
    },
    {
      "inputs": [
        {
          "internalType": "uint256",
          "name": "tokenId",
          "type": "uint256"
        }
      ],
      "name": "getApproved",
      "outputs": [
        {
          "internalType": "address",
          "name": "",
          "type": "address"
        }
      ],
      "stateMutability": "view",
      "type": "function"
    },
    {
      "inputs": [
        {
          "internalType": "uint256",
          "name": "_tier",
          "type": "uint256"
        },
        {
          "internalType": "uint256",
          "name": "_blockNumber",
          "type": "uint256"
        }
      ],
      "name": "getPastTierTotalVotes",
      "outputs": [
        {
          "internalType": "uint256",
          "name": "",
          "type": "uint256"
        }
      ],
      "stateMutability": "view",
      "type": "function"
    },
    {
      "inputs": [
        {
          "internalType": "address",
          "name": "_account",
          "type": "address"
        },
        {
          "internalType": "uint256",
          "name": "_tier",
          "type": "uint256"
        },
        {
          "internalType": "uint256",
          "name": "_blockNumber",
          "type": "uint256"
        }
      ],
      "name": "getPastTierVotes",
      "outputs": [
        {
          "internalType": "uint256",
          "name": "",
          "type": "uint256"
        }
      ],
      "stateMutability": "view",
      "type": "function"
    },
    {
      "inputs": [
        {
          "internalType": "address",
          "name": "_account",
          "type": "address"
        },
        {
          "internalType": "uint256",
          "name": "_tier",
          "type": "uint256"
        }
      ],
      "name": "getTierDelegate",
      "outputs": [
        {
          "internalType": "address",
          "name": "",
          "type": "address"
        }
      ],
      "stateMutability": "view",
      "type": "function"
    },
    {
      "inputs": [
        {
          "internalType": "uint256",
          "name": "_tier",
          "type": "uint256"
        }
      ],
      "name": "getTierTotalVotes",
      "outputs": [
        {
          "internalType": "uint256",
          "name": "",
          "type": "uint256"
        }
      ],
      "stateMutability": "view",
      "type": "function"
    },
    {
      "inputs": [
        {
          "internalType": "address",
          "name": "_account",
          "type": "address"
        },
        {
          "internalType": "uint256",
          "name": "_tier",
          "type": "uint256"
        }
      ],
      "name": "getTierVotes",
      "outputs": [
        {
          "internalType": "uint256",
          "name": "",
          "type": "uint256"
        }
      ],
      "stateMutability": "view",
      "type": "function"
    },
    {
      "inputs": [
        {
          "internalType": "uint256",
          "name": "_projectId",
          "type": "uint256"
        },
        {
          "internalType": "contract IJBDirectory",
          "name": "_directory",
          "type": "address"
        },
        {
          "internalType": "string",
          "name": "_name",
          "type": "string"
        },
        {
          "internalType": "string",
          "name": "_symbol",
          "type": "string"
        },
        {
          "internalType": "contract IJBFundingCycleStore",
          "name": "_fundingCycleStore",
          "type": "address"
        },
        {
          "internalType": "string",
          "name": "_baseUri",
          "type": "string"
        },
        {
          "internalType": "contract IJBTokenUriResolver",
          "name": "_tokenUriResolver",
          "type": "address"
        },
        {
          "internalType": "string",
          "name": "_contractUri",
          "type": "string"
        },
        {
          "components": [
            {
              "components": [
                {
                  "internalType": "uint80",
                  "name": "contributionFloor",
                  "type": "uint80"
                },
                {
                  "internalType": "uint48",
                  "name": "lockedUntil",
                  "type": "uint48"
                },
                {
                  "internalType": "uint40",
                  "name": "initialQuantity",
                  "type": "uint40"
                },
                {
                  "internalType": "uint16",
                  "name": "votingUnits",
                  "type": "uint16"
                },
                {
                  "internalType": "uint16",
                  "name": "reservedRate",
                  "type": "uint16"
                },
                {
                  "internalType": "address",
                  "name": "reservedTokenBeneficiary",
                  "type": "address"
                },
                {
                  "internalType": "uint8",
                  "name": "royaltyRate",
                  "type": "uint8"
                },
                {
                  "internalType": "address",
                  "name": "royaltyBeneficiary",
                  "type": "address"
                },
                {
                  "internalType": "bytes32",
                  "name": "encodedIPFSUri",
                  "type": "bytes32"
                },
                {
                  "internalType": "uint8",
                  "name": "category",
                  "type": "uint8"
                },
                {
                  "internalType": "bool",
                  "name": "allowManualMint",
                  "type": "bool"
                },
                {
                  "internalType": "bool",
                  "name": "shouldUseReservedTokenBeneficiaryAsDefault",
                  "type": "bool"
                },
                {
                  "internalType": "bool",
                  "name": "shouldUseRoyaltyBeneficiaryAsDefault",
                  "type": "bool"
                },
                {
                  "internalType": "bool",
                  "name": "transfersPausable",
                  "type": "bool"
                }
              ],
              "internalType": "struct JB721TierParams[]",
              "name": "tiers",
              "type": "tuple[]"
            },
            {
              "internalType": "uint256",
              "name": "currency",
              "type": "uint256"
            },
            {
              "internalType": "uint256",
              "name": "decimals",
              "type": "uint256"
            },
            {
              "internalType": "contract IJBPrices",
              "name": "prices",
              "type": "address"
            }
          ],
          "internalType": "struct JB721PricingParams",
          "name": "_pricing",
          "type": "tuple"
        },
        {
          "internalType": "contract IJBTiered721DelegateStore",
          "name": "_store",
          "type": "address"
        },
        {
          "components": [
            {
              "internalType": "bool",
              "name": "lockReservedTokenChanges",
              "type": "bool"
            },
            {
              "internalType": "bool",
              "name": "lockVotingUnitChanges",
              "type": "bool"
            },
            {
              "internalType": "bool",
              "name": "lockManualMintingChanges",
              "type": "bool"
            },
            {
              "internalType": "bool",
              "name": "preventOverspending",
              "type": "bool"
            }
          ],
          "internalType": "struct JBTiered721Flags",
          "name": "_flags",
          "type": "tuple"
        }
      ],
      "name": "initialize",
      "outputs": [],
      "stateMutability": "nonpayable",
      "type": "function"
    },
    {
      "inputs": [
        {
          "internalType": "address",
          "name": "owner",
          "type": "address"
        },
        {
          "internalType": "address",
          "name": "operator",
          "type": "address"
        }
      ],
      "name": "isApprovedForAll",
      "outputs": [
        {
          "internalType": "bool",
          "name": "",
          "type": "bool"
        }
      ],
      "stateMutability": "view",
      "type": "function"
    },
    {
      "inputs": [
        {
          "components": [
            {
              "internalType": "uint16[]",
              "name": "tierIds",
              "type": "uint16[]"
            },
            {
              "internalType": "address",
              "name": "beneficiary",
              "type": "address"
            }
          ],
          "internalType": "struct JBTiered721MintForTiersData[]",
          "name": "_mintForTiersData",
          "type": "tuple[]"
        }
      ],
      "name": "mintFor",
      "outputs": [],
      "stateMutability": "nonpayable",
      "type": "function"
    },
    {
      "inputs": [
        {
          "internalType": "uint16[]",
          "name": "_tierIds",
          "type": "uint16[]"
        },
        {
          "internalType": "address",
          "name": "_beneficiary",
          "type": "address"
        }
      ],
      "name": "mintFor",
      "outputs": [
        {
          "internalType": "uint256[]",
          "name": "tokenIds",
          "type": "uint256[]"
        }
      ],
      "stateMutability": "nonpayable",
      "type": "function"
    },
    {
      "inputs": [
        {
          "components": [
            {
              "internalType": "uint256",
              "name": "tierId",
              "type": "uint256"
            },
            {
              "internalType": "uint256",
              "name": "count",
              "type": "uint256"
            }
          ],
          "internalType": "struct JBTiered721MintReservesForTiersData[]",
          "name": "_mintReservesForTiersData",
          "type": "tuple[]"
        }
      ],
      "name": "mintReservesFor",
      "outputs": [],
      "stateMutability": "nonpayable",
      "type": "function"
    },
    {
      "inputs": [
        {
          "internalType": "uint256",
          "name": "_tierId",
          "type": "uint256"
        },
        {
          "internalType": "uint256",
          "name": "_count",
          "type": "uint256"
        }
      ],
      "name": "mintReservesFor",
      "outputs": [],
      "stateMutability": "nonpayable",
      "type": "function"
    },
    {
      "inputs": [],
      "name": "name",
      "outputs": [
        {
          "internalType": "string",
          "name": "",
          "type": "string"
        }
      ],
      "stateMutability": "view",
      "type": "function"
    },
    {
      "inputs": [],
      "name": "owner",
      "outputs": [
        {
          "internalType": "address",
          "name": "",
          "type": "address"
        }
      ],
      "stateMutability": "view",
      "type": "function"
    },
    {
      "inputs": [
        {
          "internalType": "uint256",
          "name": "tokenId",
          "type": "uint256"
        }
      ],
      "name": "ownerOf",
      "outputs": [
        {
          "internalType": "address",
          "name": "",
          "type": "address"
        }
      ],
      "stateMutability": "view",
      "type": "function"
    },
    {
      "inputs": [
        {
          "components": [
            {
              "internalType": "contract IJBPaymentTerminal",
              "name": "terminal",
              "type": "address"
            },
            {
              "internalType": "address",
              "name": "payer",
              "type": "address"
            },
            {
              "components": [
                {
                  "internalType": "address",
                  "name": "token",
                  "type": "address"
                },
                {
                  "internalType": "uint256",
                  "name": "value",
                  "type": "uint256"
                },
                {
                  "internalType": "uint256",
                  "name": "decimals",
                  "type": "uint256"
                },
                {
                  "internalType": "uint256",
                  "name": "currency",
                  "type": "uint256"
                }
              ],
              "internalType": "struct JBTokenAmount",
              "name": "amount",
              "type": "tuple"
            },
            {
              "internalType": "uint256",
              "name": "projectId",
              "type": "uint256"
            },
            {
              "internalType": "uint256",
              "name": "currentFundingCycleConfiguration",
              "type": "uint256"
            },
            {
              "internalType": "address",
              "name": "beneficiary",
              "type": "address"
            },
            {
              "internalType": "uint256",
              "name": "weight",
              "type": "uint256"
            },
            {
              "internalType": "uint256",
              "name": "reservedRate",
              "type": "uint256"
            },
            {
              "internalType": "string",
              "name": "memo",
              "type": "string"
            },
            {
              "internalType": "bytes",
              "name": "metadata",
              "type": "bytes"
            }
          ],
          "internalType": "struct JBPayParamsData",
          "name": "_data",
          "type": "tuple"
        }
      ],
      "name": "payParams",
      "outputs": [
        {
          "internalType": "uint256",
          "name": "weight",
          "type": "uint256"
        },
        {
          "internalType": "string",
          "name": "memo",
          "type": "string"
        },
        {
          "components": [
            {
              "internalType": "contract IJBPayDelegate",
              "name": "delegate",
              "type": "address"
            },
            {
              "internalType": "uint256",
              "name": "amount",
              "type": "uint256"
            }
          ],
          "internalType": "struct JBPayDelegateAllocation[]",
          "name": "delegateAllocations",
          "type": "tuple[]"
        }
      ],
      "stateMutability": "view",
      "type": "function"
    },
    {
      "inputs": [],
      "name": "prices",
      "outputs": [
        {
          "internalType": "contract IJBPrices",
          "name": "",
          "type": "address"
        }
      ],
      "stateMutability": "view",
      "type": "function"
    },
    {
      "inputs": [],
      "name": "pricingCurrency",
      "outputs": [
        {
          "internalType": "uint256",
          "name": "",
          "type": "uint256"
        }
      ],
      "stateMutability": "view",
      "type": "function"
    },
    {
      "inputs": [],
      "name": "pricingDecimals",
      "outputs": [
        {
          "internalType": "uint256",
          "name": "",
          "type": "uint256"
        }
      ],
      "stateMutability": "view",
      "type": "function"
    },
    {
      "inputs": [],
      "name": "projectId",
      "outputs": [
        {
          "internalType": "uint256",
          "name": "",
          "type": "uint256"
        }
      ],
      "stateMutability": "view",
      "type": "function"
    },
    {
      "inputs": [
        {
          "components": [
            {
              "internalType": "contract IJBPaymentTerminal",
              "name": "terminal",
              "type": "address"
            },
            {
              "internalType": "address",
              "name": "holder",
              "type": "address"
            },
            {
              "internalType": "uint256",
              "name": "projectId",
              "type": "uint256"
            },
            {
              "internalType": "uint256",
              "name": "currentFundingCycleConfiguration",
              "type": "uint256"
            },
            {
              "internalType": "uint256",
              "name": "tokenCount",
              "type": "uint256"
            },
            {
              "internalType": "uint256",
              "name": "totalSupply",
              "type": "uint256"
            },
            {
              "internalType": "uint256",
              "name": "overflow",
              "type": "uint256"
            },
            {
              "components": [
                {
                  "internalType": "address",
                  "name": "token",
                  "type": "address"
                },
                {
                  "internalType": "uint256",
                  "name": "value",
                  "type": "uint256"
                },
                {
                  "internalType": "uint256",
                  "name": "decimals",
                  "type": "uint256"
                },
                {
                  "internalType": "uint256",
                  "name": "currency",
                  "type": "uint256"
                }
              ],
              "internalType": "struct JBTokenAmount",
              "name": "reclaimAmount",
              "type": "tuple"
            },
            {
              "internalType": "bool",
              "name": "useTotalOverflow",
              "type": "bool"
            },
            {
              "internalType": "uint256",
              "name": "redemptionRate",
              "type": "uint256"
            },
            {
              "internalType": "string",
              "name": "memo",
              "type": "string"
            },
            {
              "internalType": "bytes",
              "name": "metadata",
              "type": "bytes"
            }
          ],
          "internalType": "struct JBRedeemParamsData",
          "name": "_data",
          "type": "tuple"
        }
      ],
      "name": "redeemParams",
      "outputs": [
        {
          "internalType": "uint256",
          "name": "reclaimAmount",
          "type": "uint256"
        },
        {
          "internalType": "string",
          "name": "memo",
          "type": "string"
        },
        {
          "components": [
            {
              "internalType": "contract IJBRedemptionDelegate",
              "name": "delegate",
              "type": "address"
            },
            {
              "internalType": "uint256",
              "name": "amount",
              "type": "uint256"
            }
          ],
          "internalType": "struct JBRedemptionDelegateAllocation[]",
          "name": "delegateAllocations",
          "type": "tuple[]"
        }
      ],
      "stateMutability": "view",
      "type": "function"
    },
    {
      "inputs": [
        {
          "internalType": "uint256[]",
          "name": "_tokenIds",
          "type": "uint256[]"
        },
        {
          "components": [
            {
              "internalType": "contract IJBPaymentTerminal",
              "name": "terminal",
              "type": "address"
            },
            {
              "internalType": "address",
              "name": "holder",
              "type": "address"
            },
            {
              "internalType": "uint256",
              "name": "projectId",
              "type": "uint256"
            },
            {
              "internalType": "uint256",
              "name": "currentFundingCycleConfiguration",
              "type": "uint256"
            },
            {
              "internalType": "uint256",
              "name": "tokenCount",
              "type": "uint256"
            },
            {
              "internalType": "uint256",
              "name": "totalSupply",
              "type": "uint256"
            },
            {
              "internalType": "uint256",
              "name": "overflow",
              "type": "uint256"
            },
            {
              "components": [
                {
                  "internalType": "address",
                  "name": "token",
                  "type": "address"
                },
                {
                  "internalType": "uint256",
                  "name": "value",
                  "type": "uint256"
                },
                {
                  "internalType": "uint256",
                  "name": "decimals",
                  "type": "uint256"
                },
                {
                  "internalType": "uint256",
                  "name": "currency",
                  "type": "uint256"
                }
              ],
              "internalType": "struct JBTokenAmount",
              "name": "reclaimAmount",
              "type": "tuple"
            },
            {
              "internalType": "bool",
              "name": "useTotalOverflow",
              "type": "bool"
            },
            {
              "internalType": "uint256",
              "name": "redemptionRate",
              "type": "uint256"
            },
            {
              "internalType": "string",
              "name": "memo",
              "type": "string"
            },
            {
              "internalType": "bytes",
              "name": "metadata",
              "type": "bytes"
            }
          ],
          "internalType": "struct JBRedeemParamsData",
          "name": "",
          "type": "tuple"
        }
      ],
      "name": "redemptionWeightOf",
      "outputs": [
        {
          "internalType": "uint256",
          "name": "",
          "type": "uint256"
        }
      ],
      "stateMutability": "view",
      "type": "function"
    },
    {
      "inputs": [],
      "name": "renounceOwnership",
      "outputs": [],
      "stateMutability": "nonpayable",
      "type": "function"
    },
    {
      "inputs": [
        {
          "internalType": "uint256",
          "name": "_tokenId",
          "type": "uint256"
        },
        {
          "internalType": "uint256",
          "name": "_salePrice",
          "type": "uint256"
        }
      ],
      "name": "royaltyInfo",
      "outputs": [
        {
          "internalType": "address",
          "name": "",
          "type": "address"
        },
        {
          "internalType": "uint256",
          "name": "",
          "type": "uint256"
        }
      ],
      "stateMutability": "view",
      "type": "function"
    },
    {
      "inputs": [
        {
          "internalType": "address",
          "name": "from",
          "type": "address"
        },
        {
          "internalType": "address",
          "name": "to",
          "type": "address"
        },
        {
          "internalType": "uint256",
          "name": "tokenId",
          "type": "uint256"
        }
      ],
      "name": "safeTransferFrom",
      "outputs": [],
      "stateMutability": "nonpayable",
      "type": "function"
    },
    {
      "inputs": [
        {
          "internalType": "address",
          "name": "from",
          "type": "address"
        },
        {
          "internalType": "address",
          "name": "to",
          "type": "address"
        },
        {
          "internalType": "uint256",
          "name": "tokenId",
          "type": "uint256"
        },
        {
          "internalType": "bytes",
          "name": "data",
          "type": "bytes"
        }
      ],
      "name": "safeTransferFrom",
      "outputs": [],
      "stateMutability": "nonpayable",
      "type": "function"
    },
    {
      "inputs": [
        {
          "internalType": "address",
          "name": "operator",
          "type": "address"
        },
        {
          "internalType": "bool",
          "name": "approved",
          "type": "bool"
        }
      ],
      "name": "setApprovalForAll",
      "outputs": [],
      "stateMutability": "nonpayable",
      "type": "function"
    },
    {
      "inputs": [
        {
          "internalType": "string",
          "name": "_baseUri",
          "type": "string"
        }
      ],
      "name": "setBaseUri",
      "outputs": [],
      "stateMutability": "nonpayable",
      "type": "function"
    },
    {
      "inputs": [
        {
          "internalType": "string",
          "name": "_contractUri",
          "type": "string"
        }
      ],
      "name": "setContractUri",
      "outputs": [],
      "stateMutability": "nonpayable",
      "type": "function"
    },
    {
      "inputs": [
        {
          "internalType": "address",
          "name": "_beneficiary",
          "type": "address"
        }
      ],
      "name": "setDefaultReservedTokenBeneficiary",
      "outputs": [],
      "stateMutability": "nonpayable",
      "type": "function"
    },
    {
      "inputs": [
        {
          "internalType": "uint256",
          "name": "_tierId",
          "type": "uint256"
        },
        {
          "internalType": "bytes32",
          "name": "_encodedIPFSUri",
          "type": "bytes32"
        }
      ],
      "name": "setEncodedIPFSUriOf",
      "outputs": [],
      "stateMutability": "nonpayable",
      "type": "function"
    },
    {
      "inputs": [
        {
          "internalType": "address",
          "name": "_delegatee",
          "type": "address"
        },
        {
          "internalType": "uint256",
          "name": "_tierId",
          "type": "uint256"
        }
      ],
      "name": "setTierDelegate",
      "outputs": [],
      "stateMutability": "nonpayable",
      "type": "function"
    },
    {
      "inputs": [
        {
          "components": [
            {
              "internalType": "address",
              "name": "delegatee",
              "type": "address"
            },
            {
              "internalType": "uint256",
              "name": "tierId",
              "type": "uint256"
            }
          ],
          "internalType": "struct JBTiered721SetTierDelegatesData[]",
          "name": "_setTierDelegatesData",
          "type": "tuple[]"
        }
      ],
      "name": "setTierDelegates",
      "outputs": [],
      "stateMutability": "nonpayable",
      "type": "function"
    },
    {
      "inputs": [
        {
          "internalType": "contract IJBTokenUriResolver",
          "name": "_tokenUriResolver",
          "type": "address"
        }
      ],
      "name": "setTokenUriResolver",
      "outputs": [],
      "stateMutability": "nonpayable",
      "type": "function"
    },
    {
      "inputs": [],
      "name": "store",
      "outputs": [
        {
          "internalType": "contract IJBTiered721DelegateStore",
          "name": "",
          "type": "address"
        }
      ],
      "stateMutability": "view",
      "type": "function"
    },
    {
      "inputs": [
        {
          "internalType": "bytes4",
          "name": "_interfaceId",
          "type": "bytes4"
        }
      ],
      "name": "supportsInterface",
      "outputs": [
        {
          "internalType": "bool",
          "name": "",
          "type": "bool"
        }
      ],
      "stateMutability": "view",
      "type": "function"
    },
    {
      "inputs": [],
      "name": "symbol",
      "outputs": [
        {
          "internalType": "string",
          "name": "",
          "type": "string"
        }
      ],
      "stateMutability": "view",
      "type": "function"
    },
    {
      "inputs": [
        {
          "internalType": "uint256",
          "name": "_tokenId",
          "type": "uint256"
        }
      ],
      "name": "tokenURI",
      "outputs": [
        {
          "internalType": "string",
          "name": "",
          "type": "string"
        }
      ],
      "stateMutability": "view",
      "type": "function"
    },
    {
      "inputs": [
        {
          "components": [
            {
              "internalType": "contract IJBPaymentTerminal",
              "name": "terminal",
              "type": "address"
            },
            {
              "internalType": "address",
              "name": "holder",
              "type": "address"
            },
            {
              "internalType": "uint256",
              "name": "projectId",
              "type": "uint256"
            },
            {
              "internalType": "uint256",
              "name": "currentFundingCycleConfiguration",
              "type": "uint256"
            },
            {
              "internalType": "uint256",
              "name": "tokenCount",
              "type": "uint256"
            },
            {
              "internalType": "uint256",
              "name": "totalSupply",
              "type": "uint256"
            },
            {
              "internalType": "uint256",
              "name": "overflow",
              "type": "uint256"
            },
            {
              "components": [
                {
                  "internalType": "address",
                  "name": "token",
                  "type": "address"
                },
                {
                  "internalType": "uint256",
                  "name": "value",
                  "type": "uint256"
                },
                {
                  "internalType": "uint256",
                  "name": "decimals",
                  "type": "uint256"
                },
                {
                  "internalType": "uint256",
                  "name": "currency",
                  "type": "uint256"
                }
              ],
              "internalType": "struct JBTokenAmount",
              "name": "reclaimAmount",
              "type": "tuple"
            },
            {
              "internalType": "bool",
              "name": "useTotalOverflow",
              "type": "bool"
            },
            {
              "internalType": "uint256",
              "name": "redemptionRate",
              "type": "uint256"
            },
            {
              "internalType": "string",
              "name": "memo",
              "type": "string"
            },
            {
              "internalType": "bytes",
              "name": "metadata",
              "type": "bytes"
            }
          ],
          "internalType": "struct JBRedeemParamsData",
          "name": "",
          "type": "tuple"
        }
      ],
      "name": "totalRedemptionWeight",
      "outputs": [
        {
          "internalType": "uint256",
          "name": "",
          "type": "uint256"
        }
      ],
      "stateMutability": "view",
      "type": "function"
    },
    {
      "inputs": [
        {
          "internalType": "address",
          "name": "from",
          "type": "address"
        },
        {
          "internalType": "address",
          "name": "to",
          "type": "address"
        },
        {
          "internalType": "uint256",
          "name": "tokenId",
          "type": "uint256"
        }
      ],
      "name": "transferFrom",
      "outputs": [],
      "stateMutability": "nonpayable",
      "type": "function"
    },
    {
      "inputs": [
        {
          "internalType": "address",
          "name": "newOwner",
          "type": "address"
        }
      ],
      "name": "transferOwnership",
      "outputs": [],
      "stateMutability": "nonpayable",
      "type": "function"
    }
  ],
  "bytecode": {
    "object": "0x608080604052346100655760078054336001600160a01b03198083168217909355906001600160a01b03167f8be0079c531659141344cd1fd0a4f28419497f9722a3daafe3b4186f6b6457e0600080a330906008541617600855615208908161006b8239f35b600080fdfe608080604052600436101561001357600080fd5b600090813560e01c90816301ffc9a71461285c5750806306fdde03146127ca578063081812fc146127ab578063095ea7b3146126de5780631d153ca4146126b557806323b872dd1461267b5780632407497e146125d7578063245a45b51461259e57806325eb91ee146123605780632a55205a146122a35780632a596e53146122055780632b13c58f14611c3057806336c1a93b14611b895780633fafa12714611b6b57806342842e0e14611b435780634ecba62514611b25578063525350ba14611a7857806354c6d1f514611a59578063557e715514611a305780636352211e146119ff57806364640c1e146119e15780636ac6d9411461198857806370a08231146118ea578063715018a61461188c5780637ba62bf91461183457806382732b6d146117ee5780638da5cb5b146117c55780639494bf72146117ab57806394c5c5ca1461178257806395d89b41146116c5578063975057e71461169c578063a0bcfc7f146115ea578063a22cb4651461154b578063a51cfd18146114cc578063aa4fb15b146114b4578063ab951e391461148d578063b88d4fde1461142d578063c41c2f2414611404578063c74b13d9146112eb578063c87b56dd146112b7578063ca323efe14611274578063ccb4807b146111c2578063d1704baf14610759578063d31cc52c14610734578063d3419bf31461070b578063d40e7146146106bc578063d46cf17114610594578063da9ee8b71461048d578063df487e26146103da578063e8a3d48514610344578063e985e9c5146102f05763f2fde38b1461025d57600080fd5b346102ed5760203660031901126102ed576102766129ba565b61027e614c8b565b6001600160a01b038116156102995761029690614ce3565b80f35b60405162461bcd60e51b815260206004820152602660248201527f4f776e61626c653a206e6577206f776e657220697320746865207a65726f206160448201526564647265737360d01b6064820152608490fd5b80fd5b50346102ed5760403660031901126102ed5761030a6129ba565b60406103146129d0565b9260018060a01b0380931681526004602052209116600052602052602060ff604060002054166040519015158152f35b50346102ed57806003193601126102ed57600954604051630155619b60e71b8152306004820152908290829060249082906001600160a01b03165afa9081156103cf57826103a893926103ac575b5050604051918291602083526020830190612995565b0390f35b6103c892503d8091833e6103c08183612b8c565b810190613065565b3880610392565b6040513d84823e3d90fd5b50346102ed5760203660031901126102ed576103f46129ba565b6103fc614c8b565b6009546001600160a01b0390811691839190833b156104895782916024839260405194859384926317161f7d60e01b845216978860048401525af180156103cf57610471575b50507fab0014d4c7a642a02a31b303a318908c22b0fb2001f107278fc6076b4c671b656020604051338152a280f35b61047a90612adb565b610485578138610442565b5080fd5b8280fd5b5060031960203682011261048557600435906001600160401b0382116104895761020090823603011261048557600554341590811591610501575b81156104f2575b506104e05761029690600401614477565b6040516331c57b1b60e21b8152600490fd5b905060248201351415386104cf565b600654604051636e49181f60e01b815260048101839052336024820152919250602090829060449082906001600160a01b03165afa90811561058957849161054c575b5015906104c8565b90506020813d8211610581575b8161056660209383612b8c565b8101031261057d5761057790613c7b565b38610544565b8380fd5b3d9150610559565b6040513d86823e3d90fd5b50346102ed576003196020368201811361048957600435916001600160401b03831161057d576101a090833603011261048957916105e36105dc610164840184600401614293565b3691612c93565b90604051936105f185612b04565b600192838652825b82811061069257506106489060405161061181612b04565b308152848482015261062288612d41565b5261062c87612d41565b5061012460405196013586526060838701526060860190612995565b9084820360408601528080875193848152019601925b82811061066b5785870386f35b835180516001600160a01b031688528201518288015260409096019592810192840161065e565b82906040979597516106a381612b04565b60008152600083820152828288010152019593956105f9565b50346102ed5760603660031901126102ed57602090610703906001600160a01b036106e56129ba565b16815260108352604081206024358252835260406044359120614d83565b604051908152f35b50346102ed57806003193601126102ed57600b546040516001600160a01b039091168152602090f35b50346102ed57610703602091604061074b36612a5f565b929081526011855220614d83565b50346102ed57600319906101c0368301126102ed576024356001600160a01b0381168103610485576044356001600160401b038111610489576107a0903690600401612cca565b926064356001600160401b03811161057d576107c0903690600401612cca565b91608435916001600160a01b0383168303610e035760a4356001600160401b038111610e80576107f4903690600401612cca565b60c435926001600160a01b03841684036110945760e4356001600160401b03811161109d57610827903690600401612cca565b926001600160401b03610104351161109d5760809061010435360301126111be576040519461085586612b1f565b61010435600401356001600160401b0381116110995736602382610104350101121561109957600481610104350101359061088f82612bad565b9161089d6040519384612b8c565b80835260208301913660246101c084028361010435010101116111ba57602481610104350101925b60246101c08402836101043501010184106110a15750505090875250610104356024810135602088015260448101356040880152606401356001600160a01b038116900361109d576101043560640135606087015261012435966001600160a01b03881688036110995760803661014319011261109957604051996109498b612b1f565b610144358015158103611094578b526101643515156101643503611094576101643560208c01526101843515156101843503611094576101843560408c01526101a43515156101a43503611094576101a43560608c01526008546001600160a01b03163014611090576009546001600160a01b0316611090578051906001600160401b03821161107c5781906109df8c54613979565b601f811161100a575b50602090601f8311600114610f96578c92610f8b575b50508160011b916000199060031b1c19161789555b8051906001600160401b038211610f77578190610a31600154613979565b601f8111610f05575b50602090601f8311600114610e8f578b92610e84575b50508160011b916000199060031b1c1916176001555b600435600555600680546001600160a01b03199081166001600160a01b0394851617909155600a80548216928416929092179091556009805482168884161790556020860151600c556040860151600d556060860151600b805490921692169190911790558051610e07575b508051610d8a575b506001600160a01b038116610d25575b5051928351610bcc575b829350805115801590610bbf575b8015610bb2575b8015610ba5575b610b1f575b8261029633614ce3565b6001600160a01b0382163b15610ba1576060608484928360405195869485936365c13f1960e11b855280511515600486015260208101511515602486015260408101511515604486015201511515606484015260018060a01b03165af180156103cf57610b8d575b80610b15565b610b9690612adb565b6102ed578038610b87565b5050fd5b5060608101511515610b10565b5060408101511515610b09565b5060208101511515610b02565b60405163229dad5f60e11b815260248101602060048301528551809152602060448301960190855b818110610c4457505050838180829703818360018060a01b0388165af1801561058957610c22575b50610af4565b610c3d903d8086833e610c358183612b8c565b8101906133e1565b5038610c1c565b90919660206101c06001928a5169ffffffffffffffffffff815116825265ffffffffffff84820151168483015264ffffffffff604082015116604083015261ffff806060830151166060840152608082015116608083015260a0858060a01b0381830151169083015260ff60c081818401511690840152858060a01b0360e08301511660e08401526101008083015190840152610120908183015116908301526101408082015115159083015261016080820151151590830152610180808201511515908301526101a0809101511515908201520198019101919091610bf4565b6001600160a01b0383163b1561057d5760405163036129cb60e61b81526001600160a01b03918216600482015290849082906024908290849088165af1801561058957908491610d76575b50610aea565b610d7f90612adb565b610489578238610d70565b6001600160a01b0384163b15610e035784610dc1916040518093819263d67b78fd60e01b8352602060048401526024830190612995565b0381836001600160a01b0389165af18015610df857908591610de4575b50610ada565b610ded90612adb565b61057d578338610dde565b6040513d87823e3d90fd5b8480fd5b6001600160a01b0385163b15610e805785610e3e91604051809381926331315e5960e11b8352602060048401526024830190612995565b0381836001600160a01b038a165af18015610e7557908691610e61575b50610ad2565b610e6a90612adb565b610e03578438610e5b565b6040513d88823e3d90fd5b8580fd5b015190503880610a50565b925060018b526000805160206151b3833981519152908b935b601f1984168510610eea576001945083601f19811610610ed1575b505050811b01600155610a66565b015160001960f88460031b161c19169055388080610ec3565b81810151835560209485019460019093019290910190610ea8565b90915060018b52601f830160051c6000805160206151b38339815191520160208410610f62575b908392915b601f820160051c6000805160206151b3833981519152018110610f545750610a3a565b8c8155849350600101610f31565b506000805160206151b3833981519152610f2c565b634e487b7160e01b8a52604160045260248afd5b0151905038806109fe565b92508b8052600080516020615193833981519152908c935b601f1984168510610fef576001945083601f19811610610fd6575b505050811b018955610a13565b015160001960f88460031b161c19169055388080610fc9565b81810151835560209485019460019093019290910190610fae565b9091508b8052601f830160051c6000805160206151938339815191520160208410611067575b908392915b8d601f830160051c60008051602061519383398151915201821061105a5750506109e8565b8155849350600101611035565b50600080516020615193833981519152611030565b634e487b7160e01b8b52604160045260248bfd5b8980fd5b600080fd5b8880fd5b8780fd5b6101c0843603126111b657906101c08060206024946040516110c281612b3a565b6110cb89612ce8565b81526110d8838a01612cff565b838201526110e860408a01612d12565b604082015260606110fa818b01612d24565b9082015261110a60808a01612d24565b608082015260a061111c818b016129e6565b9082015260c061112d818b01612d33565b9082015261113d60e08a016129e6565b60e0820152610100808a01359082015261012061115b818b01612d33565b9082015261014061116d818b01612c6b565b9082015261016061117f818b01612c6b565b90820152610180611191818b01612c6b565b908201526101a06111a3818b01612c6b565b90820152815201950194919250506108c5565b8c80fd5b8b80fd5b8680fd5b50346102ed576111d136612c22565b906111da614c8b565b60095483906001600160a01b0316803b156104855781604051809263d67b78fd60e01b82528183816112108a8a6004840161354c565b03925af180156103cf57611260575b50508160405192839283378101600081520390207fd36dc0c1a06103fdcaf15f3f6fb797d1a97997514c78de073640c8b5005454b86020604051338152a280f35b61126990612adb565b61048957823861121f565b50346102ed5760403660031901126102ed57602090610703906040906001600160a01b036112a06129ba565b168152601084528181206024358252845220614d44565b50346102ed5760203660031901126102ed576103a86112d76004356130c3565b604051918291602083526020830190612995565b50346102ed57602080600319360112610485576004356001600160401b03811161048957366023820112156104895780600401359061132982612bad565b916113376040519384612b8c565b80835260248484019160061b83010191368311610e8057602401905b8282106113cd5750505080519060008360405161136f81612b04565b8281520152835b828110611381578480f35b61138b8183612d64565b5180519091906001600160a01b03908116156113bb578251928601516001936113b5921633612d78565b01611376565b6040516314f4c13d60e21b8152600490fd5b604082360312610e80578460409182516113e681612b04565b6113ef856129e6565b81528285013583820152815201910190611353565b50346102ed57806003193601126102ed576006546040516001600160a01b039091168152602090f35b50346102ed5760803660031901126102ed576114476129ba565b61144f6129d0565b606435916001600160401b03831161057d573660238401121561057d57611483610296933690602481600401359101612c93565b91604435916139eb565b50346102ed5760403660031901126102ed576102966114aa6129ba565b6024359033612d78565b50346102ed576102966114c636612a5f565b90613604565b50346102ed576114e36114de36612a75565b6142fd565b906040519283526115006020916060838601526060850190612995565b9083820360408501528080845193848152019301945b8281106115235784840385f35b855180516001600160a01b031685528201518483015294810194604090930192600101611516565b50346102ed5760403660031901126102ed576115656129ba565b60243590811515809203611094576001600160a01b0316903382146115d85733835260046020526040832082600052602052604060002060ff1981541660ff83161790556040519081527f17307eab39ab6107e8899845ad3d59bd9653f200f220920489ca2b5937696c3160203392a380f35b6040516306f8139d60e11b8152600490fd5b50346102ed576115f936612c22565b90611602614c8b565b60095483906001600160a01b0316803b15610485578160405180926331315e5960e11b82528183816116388a8a6004840161354c565b03925af180156103cf57611688575b50508160405192839283378101600081520390207f7bc9110d5de090dd59e07912d2b93a5a27ac70a60c8d8e324db4f9ee8b8b5c136020604051338152a280f35b61169190612adb565b610489578238611647565b50346102ed57806003193601126102ed576009546040516001600160a01b039091168152602090f35b50346102ed57806003193601126102ed57604051908060018054916116e983613979565b808652928281169081156117585750600114611710575b6103a8856112d781870382612b8c565b92508083526000805160206151b38339815191525b8284106117405750505081016020016112d7826103a8611700565b80546020858701810191909152909301928101611725565b8695506103a8969350602092506112d794915060ff191682840152151560051b8201019293611700565b50346102ed5760203660031901126102ed57610703604060209260043581526011845220614d44565b50346102ed576117ba36612a75565b506020610703613345565b50346102ed57806003193601126102ed576007546040516001600160a01b039091168152602090f35b50346102ed5760403660031901126102ed576020906001600160a01b0390604090826118186129ba565b168152600f845281812060243582528452205416604051908152f35b50346102ed57600319906040368301126102ed576001600160401b039160043583811161048957611869903690600401612bc4565b9260243590811161048957906101e091360301126102ed576020610703836132c7565b50346102ed57806003193601126102ed576118a5614c8b565b600780546001600160a01b031981169091556000906001600160a01b03167f8be0079c531659141344cd1fd0a4f28419497f9722a3daafe3b4186f6b6457e08280a380f35b50346102ed57602090816003193601126102ed576119066129ba565b600954604051633de222bb60e21b81523060048201526001600160a01b03928316602482015291849183916044918391165afa91821561197c579161194f575b50604051908152f35b90508181813d8311611975575b6119668183612b8c565b81010312611094575138611946565b503d61195c565b604051903d90823e3d90fd5b50346102ed5760403660031901126102ed57600435906001600160401b0382116102ed576103a86119cd6119bf3660048601612a2f565b6119c76129d0565b916137d5565b604051918291602083526020830190612aa7565b50346102ed57806003193601126102ed576020600c54604051908152f35b50346102ed5760203660031901126102ed576020611a1e600435613946565b6040516001600160a01b039091168152f35b50346102ed57806003193601126102ed57600a546040516001600160a01b039091168152602090f35b50346102ed5760203660031901126102ed576020611a1e600435612fc7565b50346102ed5760403660031901126102ed57600435602435611a98614c8b565b60095483906001600160a01b0316803b15610485578180916044604051809481936324de8d6360e11b83528960048401528860248401525af180156103cf57611b11575b505060407f677da4fed654db8e604791fa2582f342e2001aa217e27f6985eb3e0f67e5a7fc918151908152336020820152a280f35b611b1a90612adb565b610489578238611adc565b50346102ed57806003193601126102ed576020600d54604051908152f35b50346102ed57610296611b55366129fa565b9060405192611b6384612b56565b8584526139eb565b50346102ed57806003193601126102ed576020600554604051908152f35b50346102ed57602080600319360112610485576001600160401b0360043581811161057d57611bbc903690600401612a2f565b919092611bc7614c8b565b845b838110611bd4578580f35b60059080821b860135603e198736030181121561109d5786018035601e1982360301811215611099578101928335938685116110905785859101911b36038113611099576001936119c786611c299401613406565b5001611bc9565b50611c3a36612a75565b90341580159061217f575b801561216f575b61215d576101c082016024611c618285614293565b905010801561212e575b61211c57611c7c611c849184614293565b8101906142c5565b91505080519282935b808510611cfb576009548490819085906001600160a01b0316803b15610ba1576040516386bc2be360e01b8152602060048201529183918391829084908290611cda906024830190612aa7565b03925af180156103cf57611ceb5750f35b611cf490612adb565b6102ed5780f35b611d088584939594612d64565b51808452600260205260408420549095906001600160a01b0390811690611d2e87613406565b160361210a57611d3d86613946565b6001600160a01b038116611f3b575b611de090611d5988614125565b87865260026020526040862080546001600160a01b031916905587866001600160a01b0383167fddf252ad1be2c89b69c2b068fc378daa952ba7f163c4a11628f55a4df523b3ef8280a460095460405163b67cb04760e01b815230600482015260248101999099526000989289916001600160a01b0316906101c090859081906044820190565b0381845afa9384156103cf578294611f08575b50835190803b1561048957606483926040519c8d9384926330b157e560e21b8452600484015260018060a01b03881660248401528160448401525af1988915611efb5760019596979899611eec575b509060a08301519182611e5e575b505050500190939093611c8d565b611ec7935191868060a01b03811615611ed0575b8282526011602052611e878460408420614e51565b505060a087901b8790039081168252600f602081815260408085208686528252808520548580529282528085208686529091529092205481169116612e81565b38808080611e50565b8282526011602052611ee58460408420614fd3565b5050611e72565b611ef590612adb565b38611e42565b50604051903d90823e3d90fd5b611f2d9194506101c03d6101c011611f34575b611f258183612b8c565b810190613c88565b9238611df3565b503d611f1b565b60095460405163b67cb04760e01b8152306004820152602481018990526001600160a01b0390911691906101c081604481865afa8015612030576101a0916000916120e9575b500151612076575b6040516308ed6c0160e41b815230600482015260248101899052602081604481865afa9081156120305760009161203c575b506001600160a01b031615611fd2575b9050611d4c565b813b1561109457604051638cec7d3960e01b8152600481018990526001600160a01b0382166024820152916000908390604490829084905af191821561203057611de092612021575b50611fcb565b61202a90612adb565b3861201b565b6040513d6000823e3d90fd5b906020823d60201161206e575b8161205660209383612b8c565b810103126102ed575061206890612fb3565b38611fbb565b3d9150612049565b600a546005546040516321d1336160e11b81526004810191909152610120918290829060249082906001600160a01b03165afa8015612030576120bb575b5050611f89565b816120da92903d106120e2575b6120d28183612b8c565b810190613574565b5038806120b4565b503d6120c8565b61210491506101c03d6101c011611f3457611f258183612b8c565b38611f81565b60405163075fd2b160e01b8152600490fd5b604051632a84050f60e01b8152600490fd5b506121398184614293565b60241161048957602001356001600160e01b03191663b3bcbb7960e01b1415611c6b565b604051633efca5c360e11b8152600490fd5b5060055460208301351415611c4c565b50600654600554604051636e49181f60e01b8152600481019190915233602482015290602090829060449082906001600160a01b03165afa9081156103cf5782916121cc575b5015611c45565b90506020813d82116121fd575b816121e660209383612b8c565b81010312610485576121f790613c7b565b386121c5565b3d91506121d9565b50346102ed57602080600319360112610485576001600160401b0360043581811161057d573660238201121561057d57806004013591821161057d576024906006368385831b84010111610e8057855b848110612260578680f35b80821b8301906040602319833603011261109d5761229d8760019360405161228781612b04565b6044898301359283835201359283910152613604565b01612255565b50346102ed576040906122b536612a5f565b60095484516329c5eaf560e11b815230600482015260248101939093526044830191909152909290839060649082906001600160a01b03165afa918215611efb5781809361231c575b5050604080516001600160a01b039290921682526020820192909252f35b915091506040823d604011612358575b8161233960409383612b8c565b810103126102ed5750602061234d82612fb3565b9101519038806122fe565b3d915061232c565b50346102ed5760403660031901126102ed576001600160401b0360043581811161048957366023820112156104895780600401359180831161057d576024906101c090368383870286010111610e80578235908111610e80576123c7903690600401612a2f565b6123cf614c8b565b806124d4575b5050836123e0578480f35b60095460405163229dad5f60e11b81526020600482015283810186905290869082906001600160a01b031660448201878701845b878b82106124b0575050508383809203925af1908115610e75578691612496575b50855b8581106124455750508480f35b8061245260019284612d64565b517f8aa4a03deb8db10032373886aa0376c918ccf36bcdb59ca4da2a807ac7ff1a046101e060405161248a818a8a88028d010161342a565b3388820152a201612438565b6124aa91503d8088833e610c358183612b8c565b38612435565b91945092945080826124c46001948761342a565b0193019101918993918593612414565b6009546001600160a01b031690813b1561109d576040516320512ba160e01b8152602060048201819052868201839052928991906001600160fb1b0384116104895781839181836044828960051b808d8484013781010301925af180156103cf5761258a575b5050875b81811061254c5750506123d5565b8061255a600192848761341a565b357f832d89d991be5351d793c20faf4b7dd44f8aa9ce39e3cb160c6317de6fbba72985604051338152a20161253e565b61259390612adb565b61109d57873861253a565b50346102ed5760203660031901126102ed576020906040906001600160a01b036125c66129ba565b168152600e83522054604051908152f35b50346102ed5760203660031901126102ed576125f16129ba565b906125fa614c8b565b6009546001600160a01b0390811692833b1561048957829160248392604051948593849263036129cb60e61b845216978860048401525af180156103cf5761266c575b50907fe7784d93cfbfa4408e19577e6cc0436f4dbb51214b70e100905dfce9def88c166020604051338152a280f35b61267590612adb565b3861263d565b50346102ed5761268a366129fa565b906126958233613a2a565b156126a35761029692613d4c565b60405163e5fa0e3560e01b8152600490fd5b50346102ed57806003193601126102ed576008546040516001600160a01b039091168152602090f35b50346102ed5760403660031901126102ed576126f86129ba565b602435906001600160a01b03808061270f85613946565b1692169180831461279957803314159081612777575b506126a35782845260036020526040842080546001600160a01b0319168317905561274f83613946565b167f8c5be1e5ebec7d5bd14f71427d1e84f3dd0314c0f7b2291e5b200ac8c7c3b9258480a480f35b9050845260046020526040842033855260205260ff6040852054161538612725565b60405163133f8be960e01b8152600490fd5b50346102ed5760203660031901126102ed576020611a1e6004356139b3565b50346102ed57806003193601126102ed57604051908080546127eb81613979565b808552916001918083169081156117585750600114612814576103a8856112d781870382612b8c565b80809450526000805160206151938339815191525b8284106128445750505081016020016112d7826103a8611700565b80546020858701810191909152909301928101612829565b9050346104855760203660031901126104855760043563ffffffff60e01b811680910361048957602092506306decc2d60e21b81149081156128a0575b5015158152f35b63b3bcbb7960e01b81149150811561294c575b811561293b575b811561292a575b8115612919575b81156128d6575b5038612899565b6380ac58cd60e01b811491508115612908575b81156128f7575b50386128cf565b6301ffc9a760e01b149050386128f0565b635b5e139f60e01b811491506128e9565b63152a902d60e11b811491506128c8565b632b13c58f60e01b811491506128c1565b63da9ee8b760e01b811491506128ba565b6371700c6960e01b811491506128b3565b35906001600160e01b03198216820361109457565b60005b8381106129855750506000910152565b8181015183820152602001612975565b906020916129ae81518092818552858086019101612972565b601f01601f1916010190565b600435906001600160a01b038216820361109457565b602435906001600160a01b038216820361109457565b35906001600160a01b038216820361109457565b6060906003190112611094576001600160a01b0390600435828116810361109457916024359081168103611094579060443590565b9181601f84011215611094578235916001600160401b038311611094576020808501948460051b01011161109457565b6040906003190112611094576004359060243590565b6003199060208183011261109457600435916001600160401b03831161109457826101e0920301126110945760040190565b90815180825260208080930193019160005b828110612ac7575050505090565b835185529381019392810192600101612ab9565b6001600160401b038111612aee57604052565b634e487b7160e01b600052604160045260246000fd5b604081019081106001600160401b03821117612aee57604052565b608081019081106001600160401b03821117612aee57604052565b6101c081019081106001600160401b03821117612aee57604052565b602081019081106001600160401b03821117612aee57604052565b606081019081106001600160401b03821117612aee57604052565b90601f801991011681019081106001600160401b03821117612aee57604052565b6001600160401b038111612aee5760051b60200190565b81601f8201121561109457803591612bdb83612bad565b92612be96040519485612b8c565b808452602092838086019260051b820101928311611094578301905b828210612c13575050505090565b81358152908301908301612c05565b906020600319830112611094576004356001600160401b039283821161109457806023830112156110945781600401359384116110945760248483010111611094576024019190565b3590811515820361109457565b6001600160401b038111612aee57601f01601f191660200190565b929192612c9f82612c78565b91612cad6040519384612b8c565b829481845281830111611094578281602093846000960137010152565b9080601f8301121561109457816020612ce593359101612c93565b90565b359069ffffffffffffffffffff8216820361109457565b359065ffffffffffff8216820361109457565b359064ffffffffff8216820361109457565b359061ffff8216820361109457565b359060ff8216820361109457565b805115612d4e5760200190565b634e487b7160e01b600052603260045260246000fd5b8051821015612d4e5760209160051b010190565b929160018060a01b0380941691600094838652602093600f85526040948588208589528152807f3134e8a2e6d97e929a7e54011ea5485d7d196dd5f0ba4d4ef95803e8e3fc257f60648a85878b8320541697818352600f86528b83208b845286528b8320818b1690816bffffffffffffffffffffffff60a01b825416179055898d51998a97868997a460095416906305c9a1d560e31b835230600484015260248301528960448301525afa958615612e7857508795612e41575b5050612e3f949550612e81565b565b9080929550813d8311612e71575b612e598183612b8c565b81010312610e8057612e3f9495505192859438612e32565b503d612e4f565b513d89823e3d90fd5b91926001600160a01b03918216929091168083148015612f7b575b612f7557808491612f12575b505081612eb457505050565b612ef87fed0c1e94c302bdbbd8bbd6a4fb7c3ed335c2292407cd816eadd075d019d0ce04918360005260106020526040600020856000526020526040600020614fd3565b6040805192835260208301919091523390820152606090a3565b8060005260106020526040600020826000526020527fed0c1e94c302bdbbd8bbd6a4fb7c3ed335c2292407cd816eadd075d019d0ce04612f56846040600020614e51565b6040805192835260208301919091523390820152606090a38238612ea8565b50505050565b508115612e9c565b91908201809211612f9057565b634e487b7160e01b600052601160045260246000fd5b91908203918211612f9057565b51906001600160a01b038216820361109457565b6009546040516308ed6c0160e41b8152306004820152602481018390526001600160a01b0392916020908290604490829087165afa9081156120305760009161302c575b50828116613026575060005260026020526040600020541690565b91505090565b906020823d821161305d575b8161304560209383612b8c565b810103126102ed575061305790612fb3565b3861300b565b3d9150613038565b602081830312611094578051906001600160401b038211611094570181601f8201121561109457805161309781612c78565b926130a56040519485612b8c565b8184526020828401011161109457612ce59160208085019101612972565b60095460408051630fab094760e01b815230600482015290926020926001600160a01b03908116928481602481875afa9081156132bc57600091613286575b5016806132375750835163f682eeaf60e01b815230600482015290600082602481865afa91821561322c5790849160009361320f575b508551630c8df17160e41b81523060048201526024810191909152919282908180604481015b03915afa908115613204576000916131d5575b509061319e612ce59392855190609160f51b8583015260228201526022815261319981612b71565b614a2e565b935193816131b58693518092868087019101612972565b82016131c982518093868085019101612972565b01038084520182612b8c565b908382813d83116131fd575b6131eb8183612b8c565b810103126102ed57505161319e613171565b503d6131e1565b84513d6000823e3d90fd5b6132269061315e943d8091833e6103c08183612b8c565b92613138565b85513d6000823e3d90fd5b9250600091506024845180948193636d02a25560e11b835260048301525afa91821561327c5750600091613269575090565b612ce5913d8091833e6103c08183612b8c565b513d6000823e3d90fd5b8581813d83116132b5575b61329b8183612b8c565b8101031261048557519082821682036102ed575038613102565b503d613291565b86513d6000823e3d90fd5b60206133019160018060a01b0360095416604051808095819463051330b560e21b8352306004840152604060248401526044830190612aa7565b03915afa90811561203057600091613317575090565b906020823d821161333d575b8161333060209383612b8c565b810103126102ed57505190565b3d9150613323565b600954604051631572f24960e11b815230600482015290602090829060249082906001600160a01b03165afa90811561203057600091613317575090565b81601f820112156110945780519161339a83612bad565b926133a86040519485612b8c565b808452602092838086019260051b820101928311611094578301905b8282106133d2575050505090565b815181529083019083016133c4565b906020828203126110945781516001600160401b03811161109457612ce59201613383565b356001600160a01b03811681036110945790565b9190811015612d4e5760051b0190565b69ffffffffffffffffffff61343e82612ce8565b16825265ffffffffffff61345460208301612cff565b16602083015264ffffffffff61346c60408301612d12565b16604083015261ffff8061348260608401612d24565b16606084015261349460808301612d24565b1660808301526001600160a01b03806134af60a084016129e6565b1660a084015260ff6134c360c08401612d33565b1660c08401526134d560e083016129e6565b1660e0830152610100808201359083015261012060ff6134f6828401612d33565b1690830152610140613509818301612c6b565b15159083015261016061351d818301612c6b565b151590830152610180613531818301612c6b565b1515908301526135456101a0809201612c6b565b1515910152565b90918060409360208452816020850152848401376000828201840152601f01601f1916010190565b80916101209283910312611094576040519182018281106001600160401b03821117612aee57604052805182526020810151602083015260408101516040830152606081015160608301526080810151608083015260a081015160a083015260c081015160c083015260e081015160018060a01b03811681036110945760e0830152610100809101519082015290565b600a54600554604080516321d1336160e11b815260048101929092526101209594939290916001600160a01b039187908290602490829086165afa9081156137ca5761010096976000926137ad575b5050600180968192015160f51c161461379c5790816000809493600954166044845180978193635d53f40760e11b83528860048401528a60248401525af193841561379157600094613776575b5060095482516304db994760e21b815230600482015260248101859052946020929183908790604490829086165afa9586156132045760009661373f575b5060005b8781106136f457505050505050505050565b806137008a9284612d64565b5161370b818a613a98565b878751913383527f031e1988c95a91ec4d655ff63a8f87a80bc9daf28d95ae10ee08c0022cfb5c8b88888d1694a4016136e2565b90958382813d831161376f575b6137568183612b8c565b810103126102ed575061376890612fb3565b94386136de565b503d61374c565b61378a91943d8091833e610c358183612b8c565b92386136a0565b82513d6000823e3d90fd5b8151631d2c125760e31b8152600490fd5b6137c39250803d106120e2576120d28183612b8c565b3880613653565b83513d6000823e3d90fd5b906137de614c8b565b6009546040805163eaa19ab360e01b81526000196004820152606060248201526064810184905294608486019490926001600160a01b0390879082168360005b8881106138ee5750509060009181838160019b8c604483015203925af19687156137ca576000976138ca575b5060005b85811061385f575050505050505090565b6138698189612d64565b51906138758287613a98565b61388081888661341a565b359161ffff8316809303611094578892865191600083523360208401527f598baf7bf150ca2f42be9e9f8f55e81d45f5715c3ff22bf46d697fabec7f31d688878b1694a40161384e565b6138e691973d8091833e6138de8183612b8c565b810190613916565b50953861384a565b9192509760019061ffff6139018b612d24565b1681526020809101990191019089929161381e565b91906040838203126110945782516001600160401b03811161109457602091613940918501613383565b92015190565b6000908152600260205260409020546001600160a01b031680156139675790565b60405163b49aa3b560e01b8152600490fd5b90600182811c921680156139a9575b602083101461399357565b634e487b7160e01b600052602260045260246000fd5b91607f1691613988565b6000818152600260205260409020546001600160a01b031615613967576000908152600360205260409020546001600160a01b031690565b9291906139f88233613a2a565b156126a35783613a0c8383613a1197613d4c565b614179565b15613a1857565b6040516336f57c1b60e11b8152600490fd5b906001600160a01b038080613a3e84613946565b16931691838314938415613a71575b508315613a5b575b50505090565b613a67919293506139b3565b1614388080613a55565b909350600052600460205260406000208260005260205260ff604060002054169238613a4d565b6001600160a01b0390811691908215613c69576000828152600260205260409020546001600160a01b0316613c5757613b529260009183835260209260028452604090818120846bffffffffffffffffffffffff60a01b8254161790558584827fddf252ad1be2c89b69c2b068fc378daa952ba7f163c4a11628f55a4df523b3ef8180a4600954825163b67cb04760e01b815230600482015260248101979097526101c09791968792918516918990829081906044820190565b0381855afa988915613c4d578399613c2e575b50508751813b1561048957829160648392865194859384926330b157e560e21b845260048401528160248401528a60448401525af18015613c2457613c10575b505060a08601519485613bbc575b50505050505050565b613c0496519485825260118152613bd587848420614fd3565b5050818052600f81528282208683528152838383205416948252600f8152828220908683525220541690612e81565b38808080808080613bb3565b613c1c91929650612adb565b933880613ba5565b83513d84823e3d90fd5b613c45929950803d10611f3457611f258183612b8c565b963880613b65565b84513d85823e3d90fd5b604051632eb5f0c360e21b8152600490fd5b604051633904578f60e11b8152600490fd5b5190811515820361109457565b90816101c09103126110945760405190613ca182612b3a565b805182526020810151602083015260408101516040830152606081015160608301526080810151608083015260a081015160a083015260c081015160c0830152613ced60e08201612fb3565b60e08301526101008082015190830152610120613d0b818301612fb3565b9083015261014080820151908301526101608082015190830152610180613d33818301613c7b565b90830152613d456101a0809201613c7b565b9082015290565b9291613d5781613946565b6001600160a01b038581169390918216849003614113578116908115614101578315928315613f21575b613e10959650613d9081614125565b600081815260026020908152604080832080546001600160a01b0319168717905592918286897fddf252ad1be2c89b69c2b068fc378daa952ba7f163c4a11628f55a4df523b3ef8480a4600954845163b67cb04760e01b815230600482015260248101949094526101c09991938492918716918b90829081906044820190565b0381855afa9a8b15613f1757839b613ef8575b50508951813b1561048957896064849283895195869485936330b157e560e21b8552600485015260248401528c60448401525af18015613eee57613eda575b505060a08801519687613e7b575b505050505050505050565b613eb2985196613ec0575b8252600f81528282208683528152838383205416948252600f8152828220908683525220541690612e81565b388080808080808080613e70565b86835260118252613ed388858520614fd3565b5050613e86565b613ee691929350612adb565b903880613e62565b85513d84823e3d90fd5b613f0f929b50803d10611f3457611f258183612b8c565b983880613e23565b86513d85823e3d90fd5b6009546040805163b67cb04760e01b8152306004820152602481018490529098918416906101c0908181604481865afa9081156140d9576101a0926000926140e4575b5050015161405f575b88516308ed6c0160e41b815230600482015260248101849052602081604481855afa8015614054578591600091614019575b501615613fae575b5050613d81565b803b15611094578851638cec7d3960e01b8152600481018490526001600160a01b039290921660248301526000908290604490829084905af1801561400e57613e10979850613fff575b8796613fa7565b61400890612adb565b38613ff8565b88513d6000823e3d90fd5b91506020823d821161404c575b8161403360209383612b8c565b810103126102ed57506140468591612fb3565b38613f9f565b3d9150614026565b8a513d6000823e3d90fd5b83600a54166005548a519182916321d1336160e11b835260048301528160246101209485935afa9182156140d9576001928392610100926000926140bc575b5050015160f41c1603613f6d5788516318cdaf9760e01b8152600490fd5b6140d29250803d106120e2576120d28183612b8c565b388061409e565b8b513d6000823e3d90fd5b6140fa9250803d10611f3457611f258183612b8c565b3880613f64565b604051632c95542760e01b8152600490fd5b60405163a195bc5360e01b8152600490fd5b600081815260036020526040812080546001600160a01b03191690556001600160a01b0361415283613946565b167f8c5be1e5ebec7d5bd14f71427d1e84f3dd0314c0f7b2291e5b200ac8c7c3b9258280a4565b9293600093909291803b15614288579484916141d39660405180948193630a85bd0160e11b9788845233600485015260018060a01b0380921660248501526044840152608060648401528260209b8c976084830190612995565b0393165af1849181614248575b50614237575050503d60001461422f573d6141fa81612c78565b906142086040519283612b8c565b81528091833d92013e5b8051918261422c576040516336f57c1b60e11b8152600490fd5b01fd5b506060614212565b6001600160e01b0319161492509050565b9091508581813d8311614281575b6142608183612b8c565b81010312610e0357516001600160e01b031981168103610e035790386141e0565b503d614256565b505050915050600190565b903590601e198136030182121561109457018035906001600160401b0382116110945760200191813603831361109457565b91606083830312611094578235926142df6020820161295d565b9260408201356001600160401b03811161109457612ce59201612bc4565b906080820135614465576101c082019160246143198483614293565b9050108015614436575b61211c5760409283519161433683612b04565b6001835260005b60208082101561436b5786516020929161435682612b04565b6000825260008183015282870101520161433d565b5050939291906143ab611c7c6143b39284965161438781612b04565b3081526000602082015261439a86612d41565b526143a485612d41565b5087614293565b9150506132c7565b6143bb613345565b6143ca818360c08901356150d8565b610180870135936127109081861461441b5750848103908111612f9057614417946143ff61440b94614405936105dc976150d8565b90612f83565b90615050565b946101a0810190614293565b9190565b96505095905061441792506105dc91506101a0810190614293565b506144418382614293565b60241161109457602001356001600160e01b03191663b3bcbb7960e01b1415614323565b6040516309f82f1b60e31b8152600490fd5b600060c082013590600c548083146000146149275750505060808101355b61018082016001600160a01b03806144ac83613406565b16600052602091600e835260409384600020549586826000936144ce84613406565b87806144d989613406565b1691161460001461491e5750015b6000916101e081019060446144fc8383614293565b905011806148f1575b61464b575b509091905081156145d457156145c3570194600e93929161456b9180881115614576578761453783613406565b7f2fb2733fb01b76e3290fa8b695d18e026ddd19c0a265ab90e95152e57da3033687878b51933385521694840392a4613406565b166000525260002055565b878111614584575b50613406565b8761458e83613406565b7fe0e7c81cf67a96dd0e39bcf11521b1f4c0098cc1dbe8c30750a11d9ebfc3ed4d8783888c519433865216950392a43861457e565b8551631b57826960e21b8152600490fd5b505094858194939294036145eb575b505050505050565b600e936145fb8761463793612fa6565b8761460583613406565b917fe0e7c81cf67a96dd0e39bcf11521b1f4c0098cc1dbe8c30750a11d9ebfc3ed4d87878b51953387521694a4613406565b1660005252600020553880808080806145e3565b9061465591614293565b8193910160a0848203126104855761466e89850161295d565b5061467b60608501612c6b565b936080810135906001600160401b03821161057d57019080601f83011215610489578135926146a984612bad565b926146b68c519485612b8c565b8484528a8401918b839660051b8301019384116102ed57508a809101915b8383106148d957505050508380614827575b61481e575b80511561450a576146fb86613406565b87600954168a51809463eaa19ab360e01b8252606482018760048401526060602484015285518091526084830191908d6000905b82821061480257505050509181600081819582604483015203925af19384156140545760009384956147e1575b50835193828a1693908c60005b87811061477f575050505050505050388061450a565b8660019261478d8386612d64565b51614798818a613a98565b7f598baf7bf150ca2f42be9e9f8f55e81d45f5715c3ff22bf46d697fabec7f31d661ffff6147c6868a612d64565b5193518a8152336020820152931692604090a4018d90614769565b9094506147f891933d8091833e6138de8183612b8c565b929092933861475c565b835161ffff16855289955093840193909201916001018e61472f565b600093506146eb565b506024608088600954168b5192838092634228826f60e11b82523060048301525afa801561405457600090614864575b60609150015115156146e6565b6080823d82116148d1575b8161487c60809383612b8c565b810103126102ed57506060906148c8828c519261489884612b1f565b6148a181613c7b565b84526148ae8d8201613c7b565b8d8501528d6148be818301613c7b565b9085015201613c7b565b82820152614857565b3d915061486f565b81906148e484612d24565b8152019101908a906146d4565b506148fc8282614293565b604411610e03578901356001600160e01b03191663b3bcbb7960e01b14614505565b935050916144e7565b600b546001600160a01b03169081156149e457600d5493604d85116149d0579060646020926040519485938492635268657960e11b84526004840152602483015260a089013560448301525afa91821561197c57809261499a575b505061499591600a0a60808401356150d8565b614495565b9091506020823d82116149c8575b816149b560209383612b8c565b810103126102ed57505161499538614982565b3d91506149a8565b634e487b7160e01b84526011600452602484fd5b5050505050565b906149f582612bad565b614a026040519182612b8c565b8281528092614a13601f1991612bad565b0190602036910137565b908151811015612d4e570160200190565b805115614c725760409081516105e081018181106001600160401b03821117612aee578352602e81526020906105c0368383013760009182614a6f83612d41565b52600193805184915b818310614bd15750505060ff809416614a90816149eb565b92845b828110614bb0575050508151614aa8816149eb565b92845b828110614b8857505050815193614ac185612c78565b95614ace81519788612b8c565b858752601f19614add87612c78565b013684890137845b868110614af6575050505050505090565b6001908251614b0481612b71565b603a81527f31323334353637383941424344454647484a4b4c4d4e50515253545556575859868201527f5a6162636465666768696a6b6d6e6f707172737475767778797a000000000000848201526001600160f81b031990614b739086614b6b858b612d64565b511690614a1d565b5116871a614b81828b614a1d565b5301614ae5565b60019087614b9d600019838651030185612d64565b5116614ba98288612d64565b5201614aab565b8087614bbe60019385612d64565b5116614bca8288612d64565b5201614a93565b939791969094614be18886614a1d565b5160f81c9381945b60ff90818a16871015614c315790614c1660019261ff00614c0b8f8b90612d64565b5160081b1690612f83565b603a9182820616614c27898f612d64565b5204950194614be9565b919550508099959298919693995b614c4e57506001019190614a78565b9660ff6001603a9282848c0616614c678483168b612d64565b520116970480614c3f565b50604051614c7f81612b56565b60008152600036813790565b6007546001600160a01b03163303614c9f57565b606460405162461bcd60e51b815260206004820152602060248201527f4f776e61626c653a2063616c6c6572206973206e6f7420746865206f776e65726044820152fd5b600780546001600160a01b039283166001600160a01b0319821681179092559091167f8be0079c531659141344cd1fd0a4f28419497f9722a3daafe3b4186f6b6457e0600080a3565b8054821015612d4e5760005260206000200190600090565b80546000929181614d62575050905060005b6001600160e01b031690565b60001982019182116149d057614d79929350614d2c565b505460201c614d56565b919043811015614e0d578254906000905b828210614db15750506000928115600014614d6257506000925050565b9091600190614dc6818518831c828616612f83565b918363ffffffff614dd7858a614d2c565b5054161115614dea575050915b90614d94565b909350810180911115614de457634e487b7160e01b600052601160045260246000fd5b606460405162461bcd60e51b815260206004820152602060248201527f436865636b706f696e74733a20626c6f636b206e6f7420796574206d696e65646044820152fd5b9190614e6590614e6084614d44565b612fa6565b918054614e7182614d44565b9181151580614fad575b15614ebb57614e8985614fe7565b906000198301928311612f905761441792614ea391614d2c565b509063ffffffff82549181199060201b169116179055565b9063ffffffff90814311614f5957614ed286614fe7565b9060405193614ee085612b04565b43841685526001600160e01b03928316602086019081529168010000000000000000811015612aee57614f1891600182018155614d2c565b939093614f43579351905163ffffffff9190941616921660201b63ffffffff19169190911790559190565b634e487b7160e01b600052600060045260246000fd5b60405162461bcd60e51b815260206004820152602660248201527f53616665436173743a2076616c756520646f65736e27742066697420696e203360448201526532206269747360d01b6064820152608490fd5b506000198201828111612f9057614fc963ffffffff9183614d2c565b5054164314614e7b565b9190614e6590614fe284614d44565b612f83565b6001600160e01b0390818111614ffb571690565b60405162461bcd60e51b815260206004820152602760248201527f53616665436173743a2076616c756520646f65736e27742066697420696e20326044820152663234206269747360c81b6064820152608490fd5b9190600019818409818402918280831092039180830392146150cd5761271090818310156150af577fbc01a36e2eb1c432ca57a786c226809d495182a9930be0ded288ce703afb7e9194950990828211900360fc1b910360041c170290565b6044838360405191631dcf306360e21b835260048301526024820152fd5b505061271090049150565b9091600019838309928083029283808610950394808603951461516e578285101561515057908291096001821901821680920460028082600302188083028203028083028203028083028203028083028203028083028203028092029003029360018380600003040190848311900302920304170290565b6044858460405191631dcf306360e21b835260048301526024820152fd5b50508092501561517c570490565b634e487b7160e01b600052601260045260246000fdfe290decd9548b62a8d60345a988386fc84ba6bc95484008f6362f93160ef3e563b10e2d527612073b26eecdfd717e6a320cf44b4afac2b0732d9fcbe2b7fa0cf6a2646970667358221220cc0a23a66bce58d2fd3b94c7792a42e6dcd7e0ccb203f960f075c6e10634645164736f6c63430008110033",
    "linkReferences": {}
  },
  "methodIdentifiers": {
    "adjustTiers((uint80,uint48,uint40,uint16,uint16,address,uint8,address,bytes32,uint8,bool,bool,bool,bool)[],uint256[])": "25eb91ee",
    "approve(address,uint256)": "095ea7b3",
    "balanceOf(address)": "70a08231",
    "codeOrigin()": "1d153ca4",
    "contractURI()": "e8a3d485",
    "creditsOf(address)": "245a45b5",
    "didPay((address,uint256,uint256,(address,uint256,uint256,uint256),(address,uint256,uint256,uint256),uint256,address,bool,string,bytes))": "da9ee8b7",
    "didRedeem((address,uint256,uint256,uint256,(address,uint256,uint256,uint256),(address,uint256,uint256,uint256),address,string,bytes))": "2b13c58f",
    "directory()": "c41c2f24",
    "firstOwnerOf(uint256)": "54c6d1f5",
    "fundingCycleStore()": "557e7155",
    "getApproved(uint256)": "081812fc",
    "getPastTierTotalVotes(uint256,uint256)": "d31cc52c",
    "getPastTierVotes(address,uint256,uint256)": "d40e7146",
    "getTierDelegate(address,uint256)": "82732b6d",
    "getTierTotalVotes(uint256)": "94c5c5ca",
    "getTierVotes(address,uint256)": "ca323efe",
    "initialize(uint256,address,string,string,address,string,address,string,((uint80,uint48,uint40,uint16,uint16,address,uint8,address,bytes32,uint8,bool,bool,bool,bool)[],uint256,uint256,address),address,(bool,bool,bool,bool))": "d1704baf",
    "isApprovedForAll(address,address)": "e985e9c5",
    "mintFor((uint16[],address)[])": "36c1a93b",
    "mintFor(uint16[],address)": "6ac6d941",
    "mintReservesFor((uint256,uint256)[])": "2a596e53",
    "mintReservesFor(uint256,uint256)": "aa4fb15b",
    "name()": "06fdde03",
    "owner()": "8da5cb5b",
    "ownerOf(uint256)": "6352211e",
    "payParams((address,address,(address,uint256,uint256,uint256),uint256,uint256,address,uint256,uint256,string,bytes))": "d46cf171",
    "prices()": "d3419bf3",
    "pricingCurrency()": "64640c1e",
    "pricingDecimals()": "4ecba625",
    "projectId()": "3fafa127",
    "redeemParams((address,address,uint256,uint256,uint256,uint256,uint256,(address,uint256,uint256,uint256),bool,uint256,string,bytes))": "a51cfd18",
    "redemptionWeightOf(uint256[],(address,address,uint256,uint256,uint256,uint256,uint256,(address,uint256,uint256,uint256),bool,uint256,string,bytes))": "7ba62bf9",
    "renounceOwnership()": "715018a6",
    "royaltyInfo(uint256,uint256)": "2a55205a",
    "safeTransferFrom(address,address,uint256)": "42842e0e",
    "safeTransferFrom(address,address,uint256,bytes)": "b88d4fde",
    "setApprovalForAll(address,bool)": "a22cb465",
    "setBaseUri(string)": "a0bcfc7f",
    "setContractUri(string)": "ccb4807b",
    "setDefaultReservedTokenBeneficiary(address)": "df487e26",
    "setEncodedIPFSUriOf(uint256,bytes32)": "525350ba",
    "setTierDelegate(address,uint256)": "ab951e39",
    "setTierDelegates((address,uint256)[])": "c74b13d9",
    "setTokenUriResolver(address)": "2407497e",
    "store()": "975057e7",
    "supportsInterface(bytes4)": "01ffc9a7",
    "symbol()": "95d89b41",
    "tokenURI(uint256)": "c87b56dd",
    "totalRedemptionWeight((address,address,uint256,uint256,uint256,uint256,uint256,(address,uint256,uint256,uint256),bool,uint256,string,bytes))": "9494bf72",
    "transferFrom(address,address,uint256)": "23b872dd",
    "transferOwnership(address)": "f2fde38b"
  },
  "id": 35
}