{
  "abi": [
    {
      "inputs": [],
      "name": "MAX_DISCOUNT_RATE",
      "outputs": [
        {
          "internalType": "uint256",
          "name": "",
          "type": "uint256"
        }
      ],
      "stateMutability": "view",
      "type": "function"
    },
    {
      "inputs": [],
      "name": "MAX_FEE",
      "outputs": [
        {
          "internalType": "uint256",
          "name": "",
          "type": "uint256"
        }
      ],
      "stateMutability": "view",
      "type": "function"
    },
    {
      "inputs": [],
      "name": "MAX_FEE_DISCOUNT",
      "outputs": [
        {
          "internalType": "uint256",
          "name": "",
          "type": "uint256"
        }
      ],
      "stateMutability": "view",
      "type": "function"
    },
    {
      "inputs": [],
      "name": "MAX_REDEMPTION_RATE",
      "outputs": [
        {
          "internalType": "uint256",
          "name": "",
          "type": "uint256"
        }
      ],
      "stateMutability": "view",
      "type": "function"
    },
    {
      "inputs": [],
      "name": "MAX_RESERVED_RATE",
      "outputs": [
        {
          "internalType": "uint256",
          "name": "",
          "type": "uint256"
        }
      ],
      "stateMutability": "view",
      "type": "function"
    },
    {
      "inputs": [],
      "name": "SPLITS_TOTAL_PERCENT",
      "outputs": [
        {
          "internalType": "uint256",
          "name": "",
          "type": "uint256"
        }
      ],
      "stateMutability": "view",
      "type": "function"
    }
  ],
  "bytecode": {
    "object": "0x608080604052346100195760d4908161001f823930815050f35b600080fdfe608060405260043610156012575b600080fd5b60003560e01c806319a9f94114605e5780634bb970421460655780635d14fef8146065578063870bc1fd14605e578063bc063e1a14605e5763d3c4fca914605857600080fd5b600d606c565b50600d606c565b50600d6086565b506000366003190112600d576020604051633b9aca008152f35b506000366003190112600d5760206040516127108152f3fea2646970667358221220dc04432d8cf493c46a2c0f7bc744547f7da27d79acb5f5eca37259d8c5b6b1f264736f6c63430008110033",
    "linkReferences": {}
  },
  "methodIdentifiers": {
    "MAX_DISCOUNT_RATE()": "870bc1fd",
    "MAX_FEE()": "bc063e1a",
    "MAX_FEE_DISCOUNT()": "19a9f941",
    "MAX_REDEMPTION_RATE()": "4bb97042",
    "MAX_RESERVED_RATE()": "5d14fef8",
    "SPLITS_TOTAL_PERCENT()": "d3c4fca9"
  },
  "id": 110
}