{
  "abi": [
    {
      "inputs": [
        {
          "internalType": "contract IJBDirectory",
          "name": "_directory",
          "type": "address"
        },
        {
          "internalType": "contract IJBFundingCycleStore",
          "name": "_fundingCycleStore",
          "type": "address"
        },
        {
          "internalType": "contract IJBPrices",
          "name": "_prices",
          "type": "address"
        }
      ],
      "stateMutability": "nonpayable",
      "type": "constructor"
    },
    {
      "inputs": [],
      "name": "CURRENCY_MISMATCH",
      "type": "error"
    },
    {
      "inputs": [],
      "name": "DISTRIBUTION_AMOUNT_LIMIT_REACHED",
      "type": "error"
    },
    {
      "inputs": [],
      "name": "FUNDING_CYCLE_DISTRIBUTION_PAUSED",
      "type": "error"
    },
    {
      "inputs": [],
      "name": "FUNDING_CYCLE_PAYMENT_PAUSED",
      "type": "error"
    },
    {
      "inputs": [],
      "name": "FUNDING_CYCLE_REDEEM_PAUSED",
      "type": "error"
    },
    {
      "inputs": [],
      "name": "INADEQUATE_CONTROLLER_ALLOWANCE",
      "type": "error"
    },
    {
      "inputs": [],
      "name": "INADEQUATE_PAYMENT_TERMINAL_STORE_BALANCE",
      "type": "error"
    },
    {
      "inputs": [],
      "name": "INSUFFICIENT_TOKENS",
      "type": "error"
    },
    {
      "inputs": [],
      "name": "INVALID_AMOUNT_TO_SEND_DELEGATE",
      "type": "error"
    },
    {
      "inputs": [],
      "name": "INVALID_FUNDING_CYCLE",
      "type": "error"
    },
    {
      "inputs": [],
      "name": "PAYMENT_TERMINAL_MIGRATION_NOT_ALLOWED",
      "type": "error"
    },
    {
      "inputs": [
        {
          "internalType": "uint256",
          "name": "prod1",
          "type": "uint256"
        },
        {
          "internalType": "uint256",
          "name": "denominator",
          "type": "uint256"
        }
      ],
      "name": "PRBMath__MulDivOverflow",
      "type": "error"
    },
    {
      "inputs": [
        {
          "internalType": "contract IJBSingleTokenPaymentTerminal",
          "name": "",
          "type": "address"
        },
        {
          "internalType": "uint256",
          "name": "",
          "type": "uint256"
        }
      ],
      "name": "balanceOf",
      "outputs": [
        {
          "internalType": "uint256",
          "name": "",
          "type": "uint256"
        }
      ],
      "stateMutability": "view",
      "type": "function"
    },
    {
      "inputs": [
        {
          "internalType": "contract IJBSingleTokenPaymentTerminal",
          "name": "_terminal",
          "type": "address"
        },
        {
          "internalType": "uint256",
          "name": "_projectId",
          "type": "uint256"
        }
      ],
      "name": "currentOverflowOf",
      "outputs": [
        {
          "internalType": "uint256",
          "name": "",
          "type": "uint256"
        }
      ],
      "stateMutability": "view",
      "type": "function"
    },
    {
      "inputs": [
        {
          "internalType": "uint256",
          "name": "_projectId",
          "type": "uint256"
        },
        {
          "internalType": "uint256",
          "name": "_tokenCount",
          "type": "uint256"
        },
        {
          "internalType": "uint256",
          "name": "_totalSupply",
          "type": "uint256"
        },
        {
          "internalType": "uint256",
          "name": "_overflow",
          "type": "uint256"
        }
      ],
      "name": "currentReclaimableOverflowOf",
      "outputs": [
        {
          "internalType": "uint256",
          "name": "",
          "type": "uint256"
        }
      ],
      "stateMutability": "view",
      "type": "function"
    },
    {
      "inputs": [
        {
          "internalType": "contract IJBSingleTokenPaymentTerminal",
          "name": "_terminal",
          "type": "address"
        },
        {
          "internalType": "uint256",
          "name": "_projectId",
          "type": "uint256"
        },
        {
          "internalType": "uint256",
          "name": "_tokenCount",
          "type": "uint256"
        },
        {
          "internalType": "bool",
          "name": "_useTotalOverflow",
          "type": "bool"
        }
      ],
      "name": "currentReclaimableOverflowOf",
      "outputs": [
        {
          "internalType": "uint256",
          "name": "",
          "type": "uint256"
        }
      ],
      "stateMutability": "view",
      "type": "function"
    },
    {
      "inputs": [
        {
          "internalType": "uint256",
          "name": "_projectId",
          "type": "uint256"
        },
        {
          "internalType": "uint256",
          "name": "_decimals",
          "type": "uint256"
        },
        {
          "internalType": "uint256",
          "name": "_currency",
          "type": "uint256"
        }
      ],
      "name": "currentTotalOverflowOf",
      "outputs": [
        {
          "internalType": "uint256",
          "name": "",
          "type": "uint256"
        }
      ],
      "stateMutability": "view",
      "type": "function"
    },
    {
      "inputs": [],
      "name": "directory",
      "outputs": [
        {
          "internalType": "contract IJBDirectory",
          "name": "",
          "type": "address"
        }
      ],
      "stateMutability": "view",
      "type": "function"
    },
    {
      "inputs": [],
      "name": "fundingCycleStore",
      "outputs": [
        {
          "internalType": "contract IJBFundingCycleStore",
          "name": "",
          "type": "address"
        }
      ],
      "stateMutability": "view",
      "type": "function"
    },
    {
      "inputs": [],
      "name": "prices",
      "outputs": [
        {
          "internalType": "contract IJBPrices",
          "name": "",
          "type": "address"
        }
      ],
      "stateMutability": "view",
      "type": "function"
    },
    {
      "inputs": [
        {
          "internalType": "uint256",
          "name": "_projectId",
          "type": "uint256"
        },
        {
          "internalType": "uint256",
          "name": "_amount",
          "type": "uint256"
        }
      ],
      "name": "recordAddedBalanceFor",
      "outputs": [],
      "stateMutability": "nonpayable",
      "type": "function"
    },
    {
      "inputs": [
        {
          "internalType": "uint256",
          "name": "_projectId",
          "type": "uint256"
        },
        {
          "internalType": "uint256",
          "name": "_amount",
          "type": "uint256"
        },
        {
          "internalType": "uint256",
          "name": "_currency",
          "type": "uint256"
        }
      ],
      "name": "recordDistributionFor",
      "outputs": [
        {
          "components": [
            {
              "internalType": "uint256",
              "name": "number",
              "type": "uint256"
            },
            {
              "internalType": "uint256",
              "name": "configuration",
              "type": "uint256"
            },
            {
              "internalType": "uint256",
              "name": "basedOn",
              "type": "uint256"
            },
            {
              "internalType": "uint256",
              "name": "start",
              "type": "uint256"
            },
            {
              "internalType": "uint256",
              "name": "duration",
              "type": "uint256"
            },
            {
              "internalType": "uint256",
              "name": "weight",
              "type": "uint256"
            },
            {
              "internalType": "uint256",
              "name": "discountRate",
              "type": "uint256"
            },
            {
              "internalType": "contract IJBFundingCycleBallot",
              "name": "ballot",
              "type": "address"
            },
            {
              "internalType": "uint256",
              "name": "metadata",
              "type": "uint256"
            }
          ],
          "internalType": "struct JBFundingCycle",
          "name": "fundingCycle",
          "type": "tuple"
        },
        {
          "internalType": "uint256",
          "name": "distributedAmount",
          "type": "uint256"
        }
      ],
      "stateMutability": "nonpayable",
      "type": "function"
    },
    {
      "inputs": [
        {
          "internalType": "uint256",
          "name": "_projectId",
          "type": "uint256"
        }
      ],
      "name": "recordMigration",
      "outputs": [
        {
          "internalType": "uint256",
          "name": "balance",
          "type": "uint256"
        }
      ],
      "stateMutability": "nonpayable",
      "type": "function"
    },
    {
      "inputs": [
        {
          "internalType": "address",
          "name": "_payer",
          "type": "address"
        },
        {
          "components": [
            {
              "internalType": "address",
              "name": "token",
              "type": "address"
            },
            {
              "internalType": "uint256",
              "name": "value",
              "type": "uint256"
            },
            {
              "internalType": "uint256",
              "name": "decimals",
              "type": "uint256"
            },
            {
              "internalType": "uint256",
              "name": "currency",
              "type": "uint256"
            }
          ],
          "internalType": "struct JBTokenAmount",
          "name": "_amount",
          "type": "tuple"
        },
        {
          "internalType": "uint256",
          "name": "_projectId",
          "type": "uint256"
        },
        {
          "internalType": "uint256",
          "name": "_baseWeightCurrency",
          "type": "uint256"
        },
        {
          "internalType": "address",
          "name": "_beneficiary",
          "type": "address"
        },
        {
          "internalType": "string",
          "name": "_memo",
          "type": "string"
        },
        {
          "internalType": "bytes",
          "name": "_metadata",
          "type": "bytes"
        }
      ],
      "name": "recordPaymentFrom",
      "outputs": [
        {
          "components": [
            {
              "internalType": "uint256",
              "name": "number",
              "type": "uint256"
            },
            {
              "internalType": "uint256",
              "name": "configuration",
              "type": "uint256"
            },
            {
              "internalType": "uint256",
              "name": "basedOn",
              "type": "uint256"
            },
            {
              "internalType": "uint256",
              "name": "start",
              "type": "uint256"
            },
            {
              "internalType": "uint256",
              "name": "duration",
              "type": "uint256"
            },
            {
              "internalType": "uint256",
              "name": "weight",
              "type": "uint256"
            },
            {
              "internalType": "uint256",
              "name": "discountRate",
              "type": "uint256"
            },
            {
              "internalType": "contract IJBFundingCycleBallot",
              "name": "ballot",
              "type": "address"
            },
            {
              "internalType": "uint256",
              "name": "metadata",
              "type": "uint256"
            }
          ],
          "internalType": "struct JBFundingCycle",
          "name": "fundingCycle",
          "type": "tuple"
        },
        {
          "internalType": "uint256",
          "name": "tokenCount",
          "type": "uint256"
        },
        {
          "components": [
            {
              "internalType": "contract IJBPayDelegate",
              "name": "delegate",
              "type": "address"
            },
            {
              "internalType": "uint256",
              "name": "amount",
              "type": "uint256"
            }
          ],
          "internalType": "struct JBPayDelegateAllocation[]",
          "name": "delegateAllocations",
          "type": "tuple[]"
        },
        {
          "internalType": "string",
          "name": "memo",
          "type": "string"
        }
      ],
      "stateMutability": "nonpayable",
      "type": "function"
    },
    {
      "inputs": [
        {
          "internalType": "address",
          "name": "_holder",
          "type": "address"
        },
        {
          "internalType": "uint256",
          "name": "_projectId",
          "type": "uint256"
        },
        {
          "internalType": "uint256",
          "name": "_tokenCount",
          "type": "uint256"
        },
        {
          "internalType": "string",
          "name": "_memo",
          "type": "string"
        },
        {
          "internalType": "bytes",
          "name": "_metadata",
          "type": "bytes"
        }
      ],
      "name": "recordRedemptionFor",
      "outputs": [
        {
          "components": [
            {
              "internalType": "uint256",
              "name": "number",
              "type": "uint256"
            },
            {
              "internalType": "uint256",
              "name": "configuration",
              "type": "uint256"
            },
            {
              "internalType": "uint256",
              "name": "basedOn",
              "type": "uint256"
            },
            {
              "internalType": "uint256",
              "name": "start",
              "type": "uint256"
            },
            {
              "internalType": "uint256",
              "name": "duration",
              "type": "uint256"
            },
            {
              "internalType": "uint256",
              "name": "weight",
              "type": "uint256"
            },
            {
              "internalType": "uint256",
              "name": "discountRate",
              "type": "uint256"
            },
            {
              "internalType": "contract IJBFundingCycleBallot",
              "name": "ballot",
              "type": "address"
            },
            {
              "internalType": "uint256",
              "name": "metadata",
              "type": "uint256"
            }
          ],
          "internalType": "struct JBFundingCycle",
          "name": "fundingCycle",
          "type": "tuple"
        },
        {
          "internalType": "uint256",
          "name": "reclaimAmount",
          "type": "uint256"
        },
        {
          "components": [
            {
              "internalType": "contract IJBRedemptionDelegate",
              "name": "delegate",
              "type": "address"
            },
            {
              "internalType": "uint256",
              "name": "amount",
              "type": "uint256"
            }
          ],
          "internalType": "struct JBRedemptionDelegateAllocation[]",
          "name": "delegateAllocations",
          "type": "tuple[]"
        },
        {
          "internalType": "string",
          "name": "memo",
          "type": "string"
        }
      ],
      "stateMutability": "nonpayable",
      "type": "function"
    },
    {
      "inputs": [
        {
          "internalType": "uint256",
          "name": "_projectId",
          "type": "uint256"
        },
        {
          "internalType": "uint256",
          "name": "_amount",
          "type": "uint256"
        },
        {
          "internalType": "uint256",
          "name": "_currency",
          "type": "uint256"
        }
      ],
      "name": "recordUsedAllowanceOf",
      "outputs": [
        {
          "components": [
            {
              "internalType": "uint256",
              "name": "number",
              "type": "uint256"
            },
            {
              "internalType": "uint256",
              "name": "configuration",
              "type": "uint256"
            },
            {
              "internalType": "uint256",
              "name": "basedOn",
              "type": "uint256"
            },
            {
              "internalType": "uint256",
              "name": "start",
              "type": "uint256"
            },
            {
              "internalType": "uint256",
              "name": "duration",
              "type": "uint256"
            },
            {
              "internalType": "uint256",
              "name": "weight",
              "type": "uint256"
            },
            {
              "internalType": "uint256",
              "name": "discountRate",
              "type": "uint256"
            },
            {
              "internalType": "contract IJBFundingCycleBallot",
              "name": "ballot",
              "type": "address"
            },
            {
              "internalType": "uint256",
              "name": "metadata",
              "type": "uint256"
            }
          ],
          "internalType": "struct JBFundingCycle",
          "name": "fundingCycle",
          "type": "tuple"
        },
        {
          "internalType": "uint256",
          "name": "usedAmount",
          "type": "uint256"
        }
      ],
      "stateMutability": "nonpayable",
      "type": "function"
    },
    {
      "inputs": [
        {
          "internalType": "contract IJBSingleTokenPaymentTerminal",
          "name": "",
          "type": "address"
        },
        {
          "internalType": "uint256",
          "name": "",
          "type": "uint256"
        },
        {
          "internalType": "uint256",
          "name": "",
          "type": "uint256"
        }
      ],
      "name": "usedDistributionLimitOf",
      "outputs": [
        {
          "internalType": "uint256",
          "name": "",
          "type": "uint256"
        }
      ],
      "stateMutability": "view",
      "type": "function"
    },
    {
      "inputs": [
        {
          "internalType": "contract IJBSingleTokenPaymentTerminal",
          "name": "",
          "type": "address"
        },
        {
          "internalType": "uint256",
          "name": "",
          "type": "uint256"
        },
        {
          "internalType": "uint256",
          "name": "",
          "type": "uint256"
        }
      ],
      "name": "usedOverflowAllowanceOf",
      "outputs": [
        {
          "internalType": "uint256",
          "name": "",
          "type": "uint256"
        }
      ],
      "stateMutability": "view",
      "type": "function"
    }
  ],
  "bytecode": {
    "object": "0x60e0346200014257601f62002f2f38819003918201601f19168301916001600160401b038311848410176200014757808492606094604052833981010312620001425780516001600160a01b03919082811681036200014257602082015191838316830362000142576040015192831683036200014257600160005560805260a05260c052604051612dd190816200015e823960805181818161041b0152818161077f015281816109fc0152818161147401528181611b1a0152818161265e01526128e8015260a05181818161020301528181610387015281816108d601528181610ae60152818161115301528181611228015281816113ef01528181611a5901528181611d4701528181611f2e0152612547015260c051818181610303015281816105ea0152818161162601528181612217015281816127990152612a0e0152f35b600080fd5b634e487b7160e01b600052604160045260246000fdfe608080604052600436101561001357600080fd5b60003560e01c908162fdd58e146117615750806325386715146113985780632fa1b39114611257578063557e7155146112125780636bb6a5ad1461110b578063a2df1f9514610828578063a57c7f5914610801578063b753d7e9146107e8578063c294b2f4146107ae578063c41c2f2414610769578063c664459714610332578063d3419bf3146102ed578063d49031c0146101bc578063d4c3a8d214610175578063e7c8e3e31461011a5763e8ba563a146100ce57600080fd5b34610115576100dc3661195d565b9160018060a01b031660005260026020526040600020906000526020526040600020906000526020526020604060002054604051908152f35b600080fd5b3461011557604036600319011261011557600435336000526001602052604060002081600052602052610154602435604060002054611eea565b90336000526001602052604060002090600052602052604060002055600080f35b34610115576101833661195d565b9160018060a01b031660005260036020526040600020906000526020526040600020906000526020526020604060002054604051908152f35b34610115576040366003190112610115576101d56117a4565b6040516321d1336160e11b815260248035600483018190529261012092916001600160a01b039084908490817f000000000000000000000000000000000000000000000000000000000000000085165afa9283156102ad576004946000946102b9575b50506020906040519485809263e5a6b10f60e01b825285165afa9283156102ad57600093610277575b602061026f85858886612612565b604051908152f35b9250906020833d82116102a5575b8161029260209383611884565b8101031261011557915191906020610261565b3d9150610285565b6040513d6000823e3d90fd5b602092945090816102de92903d106102e6575b6102d68183611884565b810190611987565b929086610238565b503d6102cc565b34610115576000366003190112610115576040517f00000000000000000000000000000000000000000000000000000000000000006001600160a01b03168152602090f35b3461011557610340366117ba565b91610349611db3565b5061035960026000541415611df8565b60026000556040516321d1336160e11b81526004810182905291610120906001600160a01b039082856024817f000000000000000000000000000000000000000000000000000000000000000086165afa9485156102ad5760009561074a575b50600191828061010088015160491c161461073857336000526020916002835260406000208660005283526040600020875160005283526103ff81604060002054611eea565b97604051632eec7b5560e11b81528760048201528481602481877f0000000000000000000000000000000000000000000000000000000000000000165afa9081156102ad5760009161071b575b5088850151604051637e062a3560e11b815290918682600481335afa9081156102ad578a876104be956040956000956106ec575b508551630e8db21360e41b8152600481019390935260248301523360448301526001600160a01b039093166064820152938492839182906084820190565b0392165afa9081156102ad576000906000926106ba575b50808b119081156106b1575b5061069f57810361068d5760405163e5a6b10f60e01b8152908482600481335afa9081156102ad57859260009261065c575b508082036105c2575050509050935b33600052828252604060002081600052825260406000205485116105b057610140963360005260028352604060002082600052835260406000208751600052835260406000205533600052828252604060002081600052825284604060002054039133600052838152604060002091600052526040600020556000556105ab60405180946117d4565b820152f35b6040516317e53f6760e11b8152600490fd5b6064906040519586938492635268657960e11b845260048401526024830152601260448301527f0000000000000000000000000000000000000000000000000000000000000000165afa9081156102ad5760009161062b575b6106259250612bf0565b93610522565b90508282813d8311610655575b6106428183611884565b810103126101155761062591519061061b565b503d610638565b8381949293503d8311610686575b6106748183611884565b8101031261011557849151908b610513565b503d61066a565b60405163e56ea4e760e01b8152600490fd5b604051630236b92b60e21b8152600490fd5b9050158b6104e1565b90506106de915060403d6040116106e5575b6106d68183611884565b81019061250a565b908b6104d5565b503d6106cc565b61070d9195508b3d8d11610714575b6107058183611884565b810190611a07565b9338610480565b503d6106fb565b6107329150853d8711610714576107058183611884565b8a61044c565b60405163861e9dcd60e01b8152600490fd5b610762919550833d85116102e6576102d68183611884565b93866103b9565b34610115576000366003190112610115576040517f00000000000000000000000000000000000000000000000000000000000000006001600160a01b03168152602090f35b34610115576080366003190112610115576107c76117a4565b6064359081151582036101155760209161026f916044359060243590611a26565b3461011557602061026f6107fb366117ba565b916128b7565b3461011557608036600319011261011557602061026f606435604435602435600435611d18565b346101155760a0366003190112610115576108416117a4565b6064356001600160401b0381116101155736602382011215610115576108719036906024816004013591016118c0565b6084356001600160401b038111610115576108909036906004016118f7565b90610899611db3565b506108a960026000541415611df8565b600260009081556040516321d1336160e11b815260248035600483015260609591949290610120908690817f00000000000000000000000000000000000000000000000000000000000000006001600160a01b03165afa9485156102ad576000956110e8575b50600180610100870151604a1c16146110d65760008660405161093181611832565b828152826020820152826040820152015260405192637e062a3560e11b8452602084600481335afa9384156102ad576000946110b5575b5060405163313ce56760e01b815294602086600481335afa9586156102ad57600096611081575b5060405163e5a6b10f60e01b815292602084600481335afa9384156102ad5760009461104d575b506001806101008a015160511c1614600014611039576109d984886024356128b7565b935b604051632eec7b5560e11b81526024803560048301529098906020908a90817f00000000000000000000000000000000000000000000000000000000000000006001600160a01b03165afa9889156102ad5760249960209160009161101c575b5060405163c18f2d3160e01b81528b3560048201529a8b9182906001600160a01b03165afa9889156102ad57600099610fe8575b508860443511610fd75785610fbe575b60405197610a8c89611832565b6001600160a01b03168852602088018390526040880152898701526101008801516001605382901c8116149081610fa8575b5015610f9a5750604051633157d5c760e21b81526024803560048301529095906020908790817f00000000000000000000000000000000000000000000000000000000000000006001600160a01b03165afa9586156102ad57600096610f69575b506020880151956001806101008b015160511c1614906003811015610f5357610f4457610b4b89612bd4565b915b60405195866101808101106001600160401b0361018089011117610f2e576000998a99610ccd996101808a01604052338a5260018060a01b031660208a015260243560408a01528d890152604435608089015260a088015260c087015260e086015261010085015261012084015261014083015261016082015260018060a01b0361010086015160541c16906040519485809481936314a39fa360e31b83526020600484015260018060a01b03815116602484015260018060a01b036020820151166044840152604081015160648401528a8101516084840152608081015160a484015260a081015160c484015260c081015160e4840152610c7e60e08201516101048501906060809160018060a01b03815116845260208101516020850152604081015160408501520151910152565b61010081015115156101848401526101208101516101a4840152610160610cb86101408301516101e06101c4870152610204860190611938565b910151838203602319016101e4850152611938565b03925af180156102ad57600091600094600092610e2d575b50509290915b828451610de1575b336000526001602052604060002060243560005260205260406000205481116105b05780610da0575b5060016000556040519261018090610d3785838101946117d4565b610120850152610140840152835180915260206101a0840194019060005b818110610d75578480610d718887838203610160850152611938565b0390f35b825180516001600160a01b031687526020908101518188015260409096019590920191600101610d55565b336000526001602052604060002060243560005260205260406000205403336000526001602052604060002060243560005260205260406000205584610d1c565b9160009391935b8551811015610e23576020610dfd8288611e9d565b51015180610e0f575b50600101610de8565b610e1c9060019295611eea565b9390610e06565b5091929092610cf3565b92509350503d90816000853e610e438285611884565b83828101031261011557825160208401516001600160401b03811161011557610e7190838601908601611e44565b9160408501516001600160401b03811161011557818601601f828801011215610115578086015191610ea283611e86565b96610eb06040519889611884565b83885260208089019460061b8483010101928282018411610115578101602001935b838510610ee757505050505090928480610ce5565b60408584840103126101155760405190610f008261184d565b8551906001600160a01b03821682036101155782602092604094528288015183820152815201940193610ed2565b634e487b7160e01b600052604160045260246000fd5b610f4d89612bb8565b91610b4d565b634e487b7160e01b600052602160045260246000fd5b610f8c91965060203d602011610f93575b610f848183611884565b8101906124f2565b9489610b1f565b503d610f7a565b969550935050505090610ceb565b60541c6001600160a01b0316151590508a610abe565b9150610fd185896044358c602435612520565b91610a7f565b604051625c579160e91b8152600490fd5b9098506020813d602011611014575b8161100460209383611884565b810103126101155751978b610a6f565b3d9150610ff7565b6110339150823d8411610714576107058183611884565b8d610a3b565b611047848960243533612612565b936109db565b9093506020813d602011611079575b8161106960209383611884565b81010312610115575192896109b6565b3d915061105c565b9095506020813d6020116110ad575b8161109d60209383611884565b810103126101155751948861098f565b3d9150611090565b6110cf91945060203d602011610714576107058183611884565b9287610968565b60405163a97cf58f60e01b8152600490fd5b6111049195506101203d610120116102e6576102d68183611884565b938661090f565b34610115576020806003193601126101155760043561112f60026000541415611df8565b60026000556040516321d1336160e11b8152600481018290526101209081816024817f00000000000000000000000000000000000000000000000000000000000000006001600160a01b03165afa9182156102ad576001928392610100926000926111f5575b50500151604d1c16036111e357336000526001825260406000208160005282526040600020549033600052600183526040600020906000528252600060408120556001600055604051908152f35b6040516373e4f05f60e11b8152600490fd5b61120b9250803d106102e6576102d68183611884565b8680611195565b34610115576000366003190112610115576040517f00000000000000000000000000000000000000000000000000000000000000006001600160a01b03168152602090f35b346101155761014080600319360112610115576112726117a4565b6080366023190112610115576001600160a01b039060e43582811681036101155761010435906001600160401b039283831161011557366023840112156101155782600401359184831161011557366024848601011161011557610124359485116101155760246112ea6113179636906004016118f7565b946112f3611db3565b5061130360026000541415611df8565b6002600055019160c4359060a43590611f05565b90600195939295806000556040519687956101809161133988848101986117d4565b61012088015286015281518094526101a08501936020809301926000975b828910611373578780610d718989838203610160850152611938565b8451805182168852820151828801529783019789975060409096019593810193611357565b34610115576113a6366117ba565b6113b1929192611db3565b506113c160026000541415611df8565b60026000556040516321d1336160e11b81526004810183905291610120906001600160a01b039082856024817f000000000000000000000000000000000000000000000000000000000000000086165afa9485156102ad57600095611742575b5033600052602091600383526040600020826000528352604060002096838701978851600052845261145881604060002054611eea565b91604051632eec7b5560e11b81528460048201528581602481857f0000000000000000000000000000000000000000000000000000000000000000165afa9081156102ad57600091611725575b508951604051637e062a3560e11b815290918782600481335afa9081156102ad57878561151595604095600095611706575b508551633d40dab160e11b8152600481019390935260248301523360448301526001600160a01b039093166064820152938492839182906084820190565b0392165afa9081156102ad576000906000926116e4575b508085119081156116db575b506116c957870361068d5760405163e5a6b10f60e01b8152968588600481335afa9788156102ad5760009861169a575b5085908881036115ff5750505061158390955b878433612612565b85116105b0576101409633600052600384526040600020836000528452604060002090516000528352604060002055336000526001825260406000208160005282526115d484604060002054611ec7565b9133600052600181526040600020916000525260406000205560016000556105ab60405180946117d4565b606460405180948193635268657960e11b835260048301528b6024830152601260448301527f0000000000000000000000000000000000000000000000000000000000000000165afa9081156102ad5760009161166b575b506116659061158392612bf0565b9561157b565b90508481813d8311611693575b6116828183611884565b810103126101155751611583611657565b503d611678565b9097508581813d83116116c2575b6116b28183611884565b8101031261011557519685611568565b503d6116a8565b604051635b76558960e11b8152600490fd5b9050158b611538565b90506116ff915060403d6040116106e5576106d68183611884565b908b61152c565b61171e9195508c8d3d10610714576107058183611884565b93386114d7565b61173c9150863d8811610714576107058183611884565b8a6114a5565b61175a919550833d85116102e6576102d68183611884565b9386611421565b34610115576040366003190112610115576020906001600160a01b036117856117a4565b1660005260018252604060002060243560005282526040600020548152f35b600435906001600160a01b038216820361011557565b606090600319011261011557600435906024359060443590565b805182526020810151602083015260408101516040830152606081015160608301526080810151608083015260a081015160a083015260c081015160c083015260018060a01b0360e08201511660e083015261010080910151910152565b608081019081106001600160401b03821117610f2e57604052565b604081019081106001600160401b03821117610f2e57604052565b61012081019081106001600160401b03821117610f2e57604052565b90601f801991011681019081106001600160401b03821117610f2e57604052565b6001600160401b038111610f2e57601f01601f191660200190565b9291926118cc826118a5565b916118da6040519384611884565b829481845281830111610115578281602093846000960137010152565b9080601f8301121561011557816020611912933591016118c0565b90565b60005b8381106119285750506000910152565b8181015183820152602001611918565b9060209161195181518092818552858086019101611915565b601f01601f1916010190565b6060906003190112610115576004356001600160a01b038116810361011557906024359060443590565b908161012091031261011557604051906119a082611868565b805182526020810151602083015260408101516040830152606081015160608301526080810151608083015260a081015160a083015260c081015160c083015260e081015160018060a01b03811681036101155760e0830152610100809101519082015290565b9081602091031261011557516001600160a01b03811681036101155790565b604080516321d1336160e11b815260048082018590529395939491939192610120916001600160a01b03919083816024817f000000000000000000000000000000000000000000000000000000000000000087165afa938415611bfb57600094611cf7575b5050819293600090600014611c755750855163313ce56760e01b8152916020911681838981845afa928315611bfb57908891600094611c43575b50829088519283809263e5a6b10f60e01b82525afa918215611bfb57600092611c12575b5050611af591886128b7565b945b8515611c06578451632eec7b5560e11b81528181018890529060209081836024817f000000000000000000000000000000000000000000000000000000000000000088165afa928315611bfb57908991600094611bd7575b506024908394958951968794859363c18f2d3160e01b8552840152165afa948515611bcd5750600094611b99575b5050828211611b8f5761191294612520565b5050505050600090565b8181959293953d8311611bc6575b611bb18183611884565b81010312611bc3575051913880611b7d565b80fd5b503d611ba7565b513d6000823e3d90fd5b83945090611bf3602492853d8711610714576107058183611884565b945090611b4f565b87513d6000823e3d90fd5b50505050505050600090565b81819392933d8311611c3c575b611c298183611884565b81010312611bc3575051611af538611ae9565b503d611c1f565b9150928282813d8311611c6e575b611c5b8183611884565b81010312611bc357505191879082611ac5565b503d611c51565b865163e5a6b10f60e01b81529192509060208189818787165afa918215611cec578591818b9294611cb2575b5050611cac93612612565b94611af7565b92509250506020823d8211611ce4575b81611ccf60209383611884565b81010312611bc35750518388611cac38611ca1565b3d9150611cc2565b8751903d90823e3d90fd5b8394509081611d1192903d106102e6576102d68183611884565b9238611a8b565b9291908215611daa57818111611daa576040516321d1336160e11b8152600481018590526101209485826024817f00000000000000000000000000000000000000000000000000000000000000006001600160a01b03165afa9182156102ad5761191296600093611d8b575b5050612520565b611da2929350803d106102e6576102d68183611884565b903880611d84565b50505050600090565b60405190611dc082611868565b816101006000918281528260208201528260408201528260608201528260808201528260a08201528260c08201528260e08201520152565b15611dff57565b60405162461bcd60e51b815260206004820152601f60248201527f5265656e7472616e637947756172643a207265656e7472616e742063616c6c006044820152606490fd5b81601f82011215610115578051611e5a816118a5565b92611e686040519485611884565b81845260208284010111610115576119129160208085019101611915565b6001600160401b038111610f2e5760051b60200190565b8051821015611eb15760209160051b010190565b634e487b7160e01b600052603260045260246000fd5b91908203918211611ed457565b634e487b7160e01b600052601160045260246000fd5b91908201809211611ed457565b604d8111611ed457600a0a90565b6040516321d1336160e11b815260048101839052969796606096909492939291610120866024817f00000000000000000000000000000000000000000000000000000000000000006001600160a01b03165afa9586156102ad576000966124cf575b5085998651156124bd5760018061010089015160481c16146124ab576101008701516001808260521c16149081612495575b50156124795760208701519260a08801519861ffff6101008a015160181c169160405194856101408101106001600160401b0361014088011117610f2e5761014086016040523386526001600160a01b03166020860152608036602319011261011557604051928360808101106001600160401b03608086011117610f2e57608084016040526024356001600160a01b03811690036101155760009b8c98612181988f8d90612089986024358152604435602082015260643560408201526084358282015260408c01528a0152608089015260018060a01b031660a088015260c087015260e086015236916118c0565b610100838101919091526101208301919091528601516040805163d46cf17160e01b815260206004820181905284516001600160a01b0390811660248401528186015181166044840152838601518051821660648501529182015160848401529281015160a48301526060015160c482015298899460549390931c9091169284928391808d015160e4840152608081015161010484015260a08101516001600160a01b031661012484015260c081015161014484015260e08101516101648401526101008101516101a06101848501526101209061216c906101c4860190611938565b910151838203602319016101a4850152611938565b03925af180156102ad5760009485968692612368575b50509493915b604435809487516122fa575b85156122ed5750806122a6575b5050811561229d57606435906084356000918082146000146121ec57505050906121e36121e99392611ef7565b91612d23565b92565b604051635268657960e11b8152600481019290925260248201526044810192909252906020816064817f00000000000000000000000000000000000000000000000000000000000000006001600160a01b03165afa91821561229157809261225b575b5050906121e992612d23565b9091506020823d8211612289575b8161227660209383611884565b81010312611bc35750516121e93861224f565b3d9150612269565b604051903d90823e3d90fd5b50600094915050565b6122ca90336000526001602052604060002083600052602052604060002054611eea565b9033600052600160205260406000209060005260205260406000205538806121b6565b9850600097945050505050565b979492909895939160005b885181101561235a57602061231a828b611e9d565b5101518061232c575b50600101612305565b909a8082116123485760019161234191611ec7565b9a90612323565b6040516336a8da9360e11b8152600490fd5b5091939598909294976121a9565b915095503d908186883e61237c8288611884565b8682810103126124755785519060208701516001600160401b038111612471576123ab90828901908901611e44565b956040880151906001600160401b038211611bc357828901601f838b01011215611bc35781890151926123dd84611e86565b996123eb6040519b8c611884565b848b526020808c019560061b858301010193828201851161246d578101602001945b8486106124235750505050505093943880612197565b604086848401031261246d5760405161243b8161184d565b86516001600160a01b038116810361246957918160409360209352828901518382015281520195019461240d565b8580fd5b8380fd5b8680fd5b8480fd5b5050929461248f915060a08501519336916118c0565b9361219d565b60541c6001600160a01b03161515905038611f99565b60405163a3bb913360e01b8152600490fd5b60405163174b338d60e11b8152600490fd5b6124eb9196506101203d610120116102e6576102d68183611884565b9438611f67565b90816020910312610115575160038110156101155790565b9190826040910312610115576020825192015190565b9392938483146125dd57604051633157d5c760e21b815260048101919091526020816024817f00000000000000000000000000000000000000000000000000000000000000006001600160a01b03165afa9081156102ad576000916125f4575b506003811015610f53576125e55761259790612bd4565b915b8215611daa5783826125aa92612d23565b91612710918282146125dd57818303928311611ed457611912946125d7936125d192612d23565b90611eea565b90612c9b565b505050905090565b6125ee90612bb8565b91612599565b61260c915060203d8111610f9357610f848183611884565b38612580565b91929060018060a01b0380841694600093868552602091600183526040948587208188528452858720549788156128aa578651632eec7b5560e11b8152600481018390529085826024817f00000000000000000000000000000000000000000000000000000000000000008b165afa9182156128a05790600492918a92612881575b5086850151878d8b5195868092637e062a3560e11b82525afa9384156128775791898b949261270a989796948e95612858575b508551630e8db21360e41b81526004810188905260248101919091526001600160a01b039283166044820152919093166064820152958692839182906084820190565b0392165afa998a1561284e578893899b612823575b5088526002855286882090885284528587209051875283528486205461274491611ec7565b9687151580612819575b61276d575b505050505082821160001461276757500390565b91505090565b906064839286999799519586938492635268657960e11b845260048401526024830152601260448301527f0000000000000000000000000000000000000000000000000000000000000000165afa928315612810575085926127e0575b50506127d591612bf0565b913880808080612753565b90809250813d8311612809575b6127f78183611884565b8101031261246d57516127d5386127ca565b503d6127ed565b513d87823e3d90fd5b508181141561274e565b612843919b506127449450889392933d8a116106e5576106d68183611884565b9a909391929161271f565b87513d8a823e3d90fd5b6128709195508b3d8d11610714576107058183611884565b93386126c7565b8a513d8d823e3d90fd5b612899919250873d8911610714576107058183611884565b9038612694565b88513d8b823e3d90fd5b5050505050505091505090565b6040805163d175415360e01b815260048082018490529395919360249360009390926001600160a01b0391858288817f000000000000000000000000000000000000000000000000000000000000000087165afa918215612b31578692612a8b575b508599869a5b83518c10156129b357846129338d86611e9d565b51168a5180916351970f4b60e11b82528989830152818c60209485935afa9182156129a9578a92612975575b505061296d90600192611eea565b9b019a61291f565b90809250813d83116129a2575b61298c8183611884565b8101031261299e57518161296d61295f565b8880fd5b503d612982565b8c513d8c823e3d90fd5b97955097959891509850600181146000146129e5575050505050915b50601281036129dc575090565b61191291612b5b565b60209260019260649287519687958694635268657960e11b8652850152830152601260448301527f0000000000000000000000000000000000000000000000000000000000000000165afa918215612a8257508491612a4f575b50612a4991612bf0565b916129cf565b90506020813d8211612a7a575b81612a6960209383611884565b8101031261246d5751612a49612a3f565b3d9150612a5c565b513d86823e3d90fd5b9091503d8087833e612a9d8183611884565b8101906020908181840312612b2d578051906001600160401b03821161299e57019180601f84011215612b2d578251612ad581611e86565b93612ae28c519586611884565b818552838086019260051b820101928311612b29578301905b828210612b0d57505050509038612919565b81518781168103612b25578152908301908301612afb565b8a80fd5b8980fd5b8780fd5b88513d88823e3d90fd5b8115612b45570490565b634e487b7160e01b600052601260045260246000fd5b9060128103612b68575090565b6012811115612b9a576011198101908111611ed457612b8690611ef7565b90818102918183041490151715611ed45790565b6012039060128211611ed457612bb261191292611ef7565b90612b3b565b610100015160281c61ffff16612710908103908111611ed45790565b610100015160381c61ffff16612710908103908111611ed45790565b670de0b6b3a7640000916000198383099280830292838086109503948086039514612c8e5782851015612c7057908291096001821901821680920460028082600302188083028203028083028203028083028203028083028203028083028203028092029003029360018380600003040190848311900302920304170290565b6044858460405191631dcf306360e21b835260048301526024820152fd5b5050906119129250612b3b565b919060001981840981840291828083109203918083039214612d18576127109081831015612cfa577fbc01a36e2eb1c432ca57a786c226809d495182a9930be0ded288ce703afb7e9194950990828211900360fc1b910360041c170290565b6044838360405191631dcf306360e21b835260048301526024820152fd5b505061271090049150565b90916000198383099280830292838086109503948086039514612c8e5782851015612c705790829109600182190182168092046002808260030218808302820302808302820302808302820302808302820302808302820302809202900302936001838060000304019084831190030292030417029056fea264697066735822122057fc56a870b051d1be1021f3f8ea90e3b781c589544bb551b3f65a67a27c29b364736f6c63430008110033",
    "linkReferences": {}
  },
  "methodIdentifiers": {
    "balanceOf(address,uint256)": "00fdd58e",
    "currentOverflowOf(address,uint256)": "d49031c0",
    "currentReclaimableOverflowOf(address,uint256,uint256,bool)": "c294b2f4",
    "currentReclaimableOverflowOf(uint256,uint256,uint256,uint256)": "a57c7f59",
    "currentTotalOverflowOf(uint256,uint256,uint256)": "b753d7e9",
    "directory()": "c41c2f24",
    "fundingCycleStore()": "557e7155",
    "prices()": "d3419bf3",
    "recordAddedBalanceFor(uint256,uint256)": "e7c8e3e3",
    "recordDistributionFor(uint256,uint256,uint256)": "c6644597",
    "recordMigration(uint256)": "6bb6a5ad",
    "recordPaymentFrom(address,(address,uint256,uint256,uint256),uint256,uint256,address,string,bytes)": "2fa1b391",
    "recordRedemptionFor(address,uint256,uint256,string,bytes)": "a2df1f95",
    "recordUsedAllowanceOf(uint256,uint256,uint256)": "25386715",
    "usedDistributionLimitOf(address,uint256,uint256)": "e8ba563a",
    "usedOverflowAllowanceOf(address,uint256,uint256)": "d4c3a8d2"
  },
  "id": 72
}