{
  "abi": [
    {
      "inputs": [
        {
          "internalType": "address",
          "name": "_contentStoreAddress",
          "type": "address"
        }
      ],
      "stateMutability": "nonpayable",
      "type": "constructor"
    },
    {
      "inputs": [],
      "name": "NotScriptOwner",
      "type": "error"
    },
    {
      "inputs": [],
      "name": "ScriptExists",
      "type": "error"
    },
    {
      "anonymous": false,
      "inputs": [
        {
          "indexed": true,
          "internalType": "string",
          "name": "name",
          "type": "string"
        },
        {
          "indexed": false,
          "internalType": "uint256",
          "name": "size",
          "type": "uint256"
        }
      ],
      "name": "ChunkStored",
      "type": "event"
    },
    {
      "anonymous": false,
      "inputs": [
        {
          "indexed": true,
          "internalType": "address",
          "name": "previousOwner",
          "type": "address"
        },
        {
          "indexed": true,
          "internalType": "address",
          "name": "newOwner",
          "type": "address"
        }
      ],
      "name": "OwnershipTransferred",
      "type": "event"
    },
    {
      "anonymous": false,
      "inputs": [
        {
          "indexed": true,
          "internalType": "string",
          "name": "name",
          "type": "string"
        },
        {
          "indexed": false,
          "internalType": "address",
          "name": "owner",
          "type": "address"
        },
        {
          "indexed": false,
          "internalType": "bytes",
          "name": "details",
          "type": "bytes"
        }
      ],
      "name": "ScriptCreated",
      "type": "event"
    },
    {
      "anonymous": false,
      "inputs": [
        {
          "indexed": true,
          "internalType": "string",
          "name": "name",
          "type": "string"
        },
        {
          "indexed": false,
          "internalType": "address",
          "name": "owner",
          "type": "address"
        },
        {
          "indexed": false,
          "internalType": "bytes",
          "name": "details",
          "type": "bytes"
        }
      ],
      "name": "ScriptDetailsUpdated",
      "type": "event"
    },
    {
      "anonymous": false,
      "inputs": [
        {
          "indexed": true,
          "internalType": "string",
          "name": "name",
          "type": "string"
        },
        {
          "indexed": false,
          "internalType": "bool",
          "name": "isVerified",
          "type": "bool"
        }
      ],
      "name": "ScriptVerificationUpdated",
      "type": "event"
    },
    {
      "inputs": [
        {
          "internalType": "string",
          "name": "name",
          "type": "string"
        },
        {
          "internalType": "bytes",
          "name": "chunk",
          "type": "bytes"
        }
      ],
      "name": "addChunkToScript",
      "outputs": [],
      "stateMutability": "nonpayable",
      "type": "function"
    },
    {
      "inputs": [],
      "name": "contentStore",
      "outputs": [
        {
          "internalType": "contract IContentStore",
          "name": "",
          "type": "address"
        }
      ],
      "stateMutability": "view",
      "type": "function"
    },
    {
      "inputs": [
        {
          "internalType": "string",
          "name": "name",
          "type": "string"
        },
        {
          "internalType": "bytes",
          "name": "details",
          "type": "bytes"
        }
      ],
      "name": "createScript",
      "outputs": [],
      "stateMutability": "nonpayable",
      "type": "function"
    },
    {
      "inputs": [
        {
          "internalType": "string",
          "name": "name",
          "type": "string"
        },
        {
          "internalType": "bytes",
          "name": "data",
          "type": "bytes"
        }
      ],
      "name": "getScript",
      "outputs": [
        {
          "internalType": "bytes",
          "name": "script",
          "type": "bytes"
        }
      ],
      "stateMutability": "view",
      "type": "function"
    },
    {
      "inputs": [
        {
          "internalType": "string",
          "name": "name",
          "type": "string"
        }
      ],
      "name": "getScriptChunkPointers",
      "outputs": [
        {
          "internalType": "address[]",
          "name": "pointers",
          "type": "address[]"
        }
      ],
      "stateMutability": "view",
      "type": "function"
    },
    {
      "inputs": [],
      "name": "owner",
      "outputs": [
        {
          "internalType": "address",
          "name": "",
          "type": "address"
        }
      ],
      "stateMutability": "view",
      "type": "function"
    },
    {
      "inputs": [],
      "name": "renounceOwnership",
      "outputs": [],
      "stateMutability": "nonpayable",
      "type": "function"
    },
    {
      "inputs": [
        {
          "internalType": "string",
          "name": "",
          "type": "string"
        }
      ],
      "name": "scripts",
      "outputs": [
        {
          "internalType": "bool",
          "name": "isVerified",
          "type": "bool"
        },
        {
          "internalType": "address",
          "name": "owner",
          "type": "address"
        },
        {
          "internalType": "uint256",
          "name": "size",
          "type": "uint256"
        },
        {
          "internalType": "bytes",
          "name": "details",
          "type": "bytes"
        }
      ],
      "stateMutability": "view",
      "type": "function"
    },
    {
      "inputs": [
        {
          "internalType": "address",
          "name": "newOwner",
          "type": "address"
        }
      ],
      "name": "transferOwnership",
      "outputs": [],
      "stateMutability": "nonpayable",
      "type": "function"
    },
    {
      "inputs": [
        {
          "internalType": "string",
          "name": "name",
          "type": "string"
        },
        {
          "internalType": "bytes",
          "name": "details",
          "type": "bytes"
        }
      ],
      "name": "updateDetails",
      "outputs": [],
      "stateMutability": "nonpayable",
      "type": "function"
    },
    {
      "inputs": [
        {
          "internalType": "string",
          "name": "name",
          "type": "string"
        },
        {
          "internalType": "bool",
          "name": "isVerified",
          "type": "bool"
        }
      ],
      "name": "updateScriptVerification",
      "outputs": [],
      "stateMutability": "nonpayable",
      "type": "function"
    }
  ],
  "bytecode": {
    "object": "0x60a0346100b057601f61105738819003918201601f19168301916001600160401b038311848410176100b5578084926020946040528339810103126100b057516001600160a01b0390818116908190036100b0576000543360018060a01b0319821617600055604051923391167f8be0079c531659141344cd1fd0a4f28419497f9722a3daafe3b4186f6b6457e0600080a3608052610f8b90816100cc823960805181818161029f01526103a20152f35b600080fd5b634e487b7160e01b600052604160045260246000fdfe6080604052600436101561001257600080fd5b60003560e01c80633998d026146100c75780633a6e674c146100c25780633b7aa8d9146100bd578063715018a6146100b85780638652d669146100b35780638da5cb5b146100ae578063ae0f8497146100a9578063c3766aff146100a4578063f2fde38b1461009f578063f66188a41461009a5763f96355941461009557600080fd5b610a99565b6109e5565b61091e565b6107a1565b6106bd565b6105bf565b6104ed565b61048f565b610347565b610289565b6101d6565b634e487b7160e01b600052604160045260246000fd5b60a0810190811067ffffffffffffffff8211176100fe57604052565b6100cc565b6020810190811067ffffffffffffffff8211176100fe57604052565b90601f8019910116810190811067ffffffffffffffff8211176100fe57604052565b92919267ffffffffffffffff82116100fe576040519161016b601f8201601f19166020018461011f565b829481845281830111610188578281602093846000960137010152565b600080fd5b9080601f83011215610188578160206101a893359101610141565b90565b6020600319820112610188576004359067ffffffffffffffff8211610188576101a89160040161018d565b346101885760036101ee6101e9366101ab565b61060b565b0160405190819080548084526020809401908192600052846000209060005b8682821061026c5786866102238288038361011f565b604051928392818401908285525180915260408401929160005b82811061024c57505050500390f35b83516001600160a01b03168552869550938101939281019260010161023d565b83546001600160a01b03168552909301926001928301920161020d565b34610188576000366003190112610188576040517f00000000000000000000000000000000000000000000000000000000000000006001600160a01b03168152602090f35b9181601f840112156101885782359167ffffffffffffffff8311610188576020838186019501011161018857565b60406003198201126101885767ffffffffffffffff916004358381116101885782610329916004016102ce565b9390939260243591821161018857610343916004016102ce565b9091565b3461018857610355366102fc565b92916001600160a01b038061036e6101e9368588610141565b5460081c16330361047d578460409161039e946000845180978195829463093e983960e01b845260048401610eb8565b03927f0000000000000000000000000000000000000000000000000000000000000000165af1908115610478577f4c4439fb488c666dfac05b75b1eaa33ddec20e80ade108bbfbf9a346101a17fa936104136104329361044395600091610448575b50600361040d8585610c07565b01610ed5565b600161041f8383610c07565b0161042b878254610f32565b9055610e44565b604051938452929081906020820190565b0390a2005b610469915060403d8111610471575b610461818361011f565b810190610e9c565b905038610400565b503d610457565b610ec9565b604051632421876d60e11b8152600490fd5b34610188576000806003193601126104ea576104a9610baf565b80546001600160a01b03198116825581906001600160a01b03167f8be0079c531659141344cd1fd0a4f28419497f9722a3daafe3b4186f6b6457e08280a380f35b80fd5b34610188576104fb366102fc565b90926001600160a01b036105136101e9368685610141565b5460081c166105ad577f35023683f3e2601679984b8499066b14c71937187f37bdb34221581a22792e0a9261059c9161059760405161055181610103565b6000815260405190610562826100e2565b600082523360208301526000604083015261057e36888b610141565b606083015260808201526105928484610c07565b610d01565b610e44565b926104436040519283923384610e7a565b60405163069e29bb60e11b8152600490fd5b34610188576000366003190112610188576000546040516001600160a01b039091168152602090f35b60005b8381106105fb5750506000910152565b81810151838201526020016105eb565b60206106249181604051938285809451938492016105e8565b8101600181520301902090565b90600182811c92168015610661575b602083101461064b57565b634e487b7160e01b600052602260045260246000fd5b91607f1691610640565b90602091610684815180928185528580860191016105e8565b601f01601f1916010190565b90926080926101a895941515835260018060a01b031660208301526040820152816060820152019061066b565b34610188576106ce6101e9366101ab565b805460016002818401549301604051916000918054906106ed82610631565b808652918381169081156107775750600114610739575b505050906107178161073593038261011f565b604051938493600881901c6001600160a01b03169060ff1685610690565b0390f35b90925060005260209182600020916000925b8284106107645750505082010161071782610735610704565b805486850186015292840192810161074b565b8695506107179450602092506107359693915060ff191682840152151560051b8201019293610704565b34610188576107af366102fc565b90929091906001600160a01b036107ca6101e9368585610141565b5460081c16330361047d5760405182828237828101600282600192838152602094859103019020019167ffffffffffffffff86116100fe57610816866108108554610631565b85610c37565b600090601f8711600114610879575091858061059c95937fee4b871e75b741fc8f590502e8d6eef71a1fd737732e9586c2ebbd5c63f172fc98979560009361086e575b501b906000198760031b1c1916179055610e44565b8a0135925038610859565b90601f19871661088e85600052602060002090565b9282905b8a8383106108f7575050509161059c959391887fee4b871e75b741fc8f590502e8d6eef71a1fd737732e9586c2ebbd5c63f172fc99989694106108dd575b505085811b019055610e44565b890135600019600389901b60f8161c1916905538806108d0565b8401358555938501939283019290810190610892565b6001600160a01b0381160361018857565b346101885760203660031901126101885760043561093b8161090d565b610943610baf565b6001600160a01b03908116801561099157600080546001600160a01b03198116831782559092167f8be0079c531659141344cd1fd0a4f28419497f9722a3daafe3b4186f6b6457e08380a380f35b60405162461bcd60e51b815260206004820152602660248201527f4f776e61626c653a206e6577206f776e657220697320746865207a65726f206160448201526564647265737360d01b6064820152608490fd5b346101885760403660031901126101885760043567ffffffffffffffff811161018857610a169036906004016102ce565b6024359182151592838103610188577fd5c4aa2b5240e0e08c3bbb0802a6dfcd8bc9967b86d7e94970e324fccf1e6d2b92602092610597610a7e93610a59610baf565b60405184848237868186810160018152030190209060ff801983541691151516179055565b92604051908152a2005b9060206101a892818152019061066b565b346101885760403660031901126101885767ffffffffffffffff60043581811161018857610acb90369060040161018d565b90602435908111610188573660238201121561018857600391610afb610b01923690602481600401359101610141565b5061060b565b0160405180918054808352602080930191600052826000209060005b818110610b925750505082610b3391038361011f565b8151918190604051926000915b858310610b6657601f198085018652601f85011685016040819052806107358782610a88565b909192600190838560051b8401015190813b90600019928484840191838b01903c010193019190610b40565b82546001600160a01b031684529284019260019283019201610b1d565b6000546001600160a01b03163303610bc357565b606460405162461bcd60e51b815260206004820152602060248201527f4f776e61626c653a2063616c6c6572206973206e6f7420746865206f776e65726044820152fd5b6020908260405193849283378101600181520301902090565b818110610c2b575050565b60008155600101610c20565b9190601f8111610c4657505050565b610c72926000526020600020906020601f840160051c83019310610c74575b601f0160051c0190610c20565b565b9091508190610c65565b81519167ffffffffffffffff83116100fe57600160401b83116100fe578154838355808410610ce3575b50602080910191600052806000209060005b848110610cc8575050505050565b83516001600160a01b03168382015592810192600101610cba565b610cfb90836000528460206000209182019101610c20565b38610ca8565b610d1a82511515829060ff801983541691151516179055565b6020828101518254610100600160a81b03191660089190911b610100600160a81b031617825560408301516001808401919091556060840151805190949260028501929067ffffffffffffffff83116100fe57610d8183610d7b8654610631565b86610c37565b80601f8411600114610dca57509180806080959360039795610c729a600094610dbf575b50501b9160001990871b1c19161790555b01519101610c7e565b015192503880610da5565b9193949596601f198416610de387600052602060002090565b936000905b828210610e2d57505092608095928592610c729a99966003999610610e15575b505050811b019055610db6565b015160001983891b60f8161c19169055388080610e08565b808886978294978701518155019601940190610de8565b81604051928392833781016000815203902090565b908060209392818452848401376000828201840152601f01601f1916010190565b6001600160a01b0390911681526040602082018190526101a893910191610e59565b919082604091031261018857602082519201516101a88161090d565b9160206101a8938181520191610e59565b6040513d6000823e3d90fd5b805490600160401b8210156100fe5760018201808255821015610f1c576000526020600020019060018060a01b03166bffffffffffffffffffffffff60a01b825416179055565b634e487b7160e01b600052603260045260246000fd5b91908201809211610f3f57565b634e487b7160e01b600052601160045260246000fdfea26469706673582212204465ddb557036a3501a6257f9323b68b0e2357a82f7d17882a117366ba199eed64736f6c63430008120033",
    "linkReferences": {}
  },
  "methodIdentifiers": {
    "addChunkToScript(string,bytes)": "3b7aa8d9",
    "contentStore()": "3a6e674c",
    "createScript(string,bytes)": "8652d669",
    "getScript(string,bytes)": "f9635594",
    "getScriptChunkPointers(string)": "3998d026",
    "owner()": "8da5cb5b",
    "renounceOwnership()": "715018a6",
    "scripts(string)": "ae0f8497",
    "transferOwnership(address)": "f2fde38b",
    "updateDetails(string,bytes)": "c3766aff",
    "updateScriptVerification(string,bool)": "f66188a4"
  },
  "id": 175
}