{
  "abi": [
    {
      "inputs": [
        {
          "internalType": "address",
          "name": "_defifaCodeOrigin",
          "type": "address"
        },
        {
          "internalType": "contract IJBController",
          "name": "_controller",
          "type": "address"
        },
        {
          "internalType": "address",
          "name": "_token",
          "type": "address"
        },
        {
          "internalType": "address",
          "name": "_protocolFeeProjectTokenAccount",
          "type": "address"
        }
      ],
      "stateMutability": "nonpayable",
      "type": "constructor"
    },
    {
      "inputs": [],
      "name": "GAME_OVER",
      "type": "error"
    },
    {
      "inputs": [],
      "name": "INVALID_GAME_CONFIGURATION",
      "type": "error"
    },
    {
      "inputs": [],
      "name": "PHASE_ALREADY_QUEUED",
      "type": "error"
    },
    {
      "inputs": [],
      "name": "UNEXPECTED_TERMINAL_CURRENCY",
      "type": "error"
    },
    {
      "inputs": [],
      "name": "SPLIT_DOMAIN",
      "outputs": [
        {
          "internalType": "uint256",
          "name": "",
          "type": "uint256"
        }
      ],
      "stateMutability": "view",
      "type": "function"
    },
    {
      "inputs": [],
      "name": "SPLIT_PROJECT_ID",
      "outputs": [
        {
          "internalType": "uint256",
          "name": "",
          "type": "uint256"
        }
      ],
      "stateMutability": "view",
      "type": "function"
    },
    {
      "inputs": [],
      "name": "claimProtocolProjectToken",
      "outputs": [],
      "stateMutability": "nonpayable",
      "type": "function"
    },
    {
      "inputs": [],
      "name": "controller",
      "outputs": [
        {
          "internalType": "contract IJBController",
          "name": "",
          "type": "address"
        }
      ],
      "stateMutability": "view",
      "type": "function"
    },
    {
      "inputs": [
        {
          "internalType": "uint256",
          "name": "_gameId",
          "type": "uint256"
        }
      ],
      "name": "currentGamePhaseOf",
      "outputs": [
        {
          "internalType": "uint256",
          "name": "",
          "type": "uint256"
        }
      ],
      "stateMutability": "view",
      "type": "function"
    },
    {
      "inputs": [],
      "name": "defifaCodeOrigin",
      "outputs": [
        {
          "internalType": "address",
          "name": "",
          "type": "address"
        }
      ],
      "stateMutability": "view",
      "type": "function"
    },
    {
      "inputs": [
        {
          "internalType": "uint256",
          "name": "_gameId",
          "type": "uint256"
        }
      ],
      "name": "distributionLimit",
      "outputs": [
        {
          "internalType": "uint256",
          "name": "",
          "type": "uint256"
        }
      ],
      "stateMutability": "view",
      "type": "function"
    },
    {
      "inputs": [
        {
          "internalType": "uint256",
          "name": "_gameId",
          "type": "uint256"
        }
      ],
      "name": "endOf",
      "outputs": [
        {
          "internalType": "uint256",
          "name": "",
          "type": "uint256"
        }
      ],
      "stateMutability": "view",
      "type": "function"
    },
    {
      "inputs": [
        {
          "internalType": "uint256",
          "name": "_gameId",
          "type": "uint256"
        }
      ],
      "name": "holdFeesDuring",
      "outputs": [
        {
          "internalType": "bool",
          "name": "",
          "type": "bool"
        }
      ],
      "stateMutability": "view",
      "type": "function"
    },
    {
      "inputs": [
        {
          "components": [
            {
              "internalType": "string",
              "name": "name",
              "type": "string"
            },
            {
              "internalType": "string",
              "name": "symbol",
              "type": "string"
            },
            {
              "internalType": "string",
              "name": "baseUri",
              "type": "string"
            },
            {
              "internalType": "string",
              "name": "contractUri",
              "type": "string"
            },
            {
              "components": [
                {
                  "internalType": "uint80",
                  "name": "contributionFloor",
                  "type": "uint80"
                },
                {
                  "internalType": "uint48",
                  "name": "lockedUntil",
                  "type": "uint48"
                },
                {
                  "internalType": "uint40",
                  "name": "initialQuantity",
                  "type": "uint40"
                },
                {
                  "internalType": "uint16",
                  "name": "votingUnits",
                  "type": "uint16"
                },
                {
                  "internalType": "uint16",
                  "name": "reservedRate",
                  "type": "uint16"
                },
                {
                  "internalType": "address",
                  "name": "reservedTokenBeneficiary",
                  "type": "address"
                },
                {
                  "internalType": "uint8",
                  "name": "royaltyRate",
                  "type": "uint8"
                },
                {
                  "internalType": "address",
                  "name": "royaltyBeneficiary",
                  "type": "address"
                },
                {
                  "internalType": "bytes32",
                  "name": "encodedIPFSUri",
                  "type": "bytes32"
                },
                {
                  "internalType": "uint8",
                  "name": "category",
                  "type": "uint8"
                },
                {
                  "internalType": "bool",
                  "name": "allowManualMint",
                  "type": "bool"
                },
                {
                  "internalType": "bool",
                  "name": "shouldUseReservedTokenBeneficiaryAsDefault",
                  "type": "bool"
                },
                {
                  "internalType": "bool",
                  "name": "shouldUseRoyaltyBeneficiaryAsDefault",
                  "type": "bool"
                },
                {
                  "internalType": "bool",
                  "name": "transfersPausable",
                  "type": "bool"
                }
              ],
              "internalType": "struct JB721TierParams[]",
              "name": "tiers",
              "type": "tuple[]"
            },
            {
              "internalType": "string[]",
              "name": "tierNames",
              "type": "string[]"
            },
            {
              "internalType": "contract IJBTiered721DelegateStore",
              "name": "store",
              "type": "address"
            },
            {
              "internalType": "address",
              "name": "owner",
              "type": "address"
            }
          ],
          "internalType": "struct DefifaDelegateData",
          "name": "_delegateData",
          "type": "tuple"
        },
        {
          "components": [
            {
              "components": [
                {
                  "internalType": "string",
                  "name": "content",
                  "type": "string"
                },
                {
                  "internalType": "uint256",
                  "name": "domain",
                  "type": "uint256"
                }
              ],
              "internalType": "struct JBProjectMetadata",
              "name": "projectMetadata",
              "type": "tuple"
            },
            {
              "internalType": "uint48",
              "name": "mintDuration",
              "type": "uint48"
            },
            {
              "internalType": "uint48",
              "name": "refundPeriodDuration",
              "type": "uint48"
            },
            {
              "internalType": "uint48",
              "name": "start",
              "type": "uint48"
            },
            {
              "internalType": "uint48",
              "name": "end",
              "type": "uint48"
            },
            {
              "internalType": "bool",
              "name": "holdFees",
              "type": "bool"
            },
            {
              "components": [
                {
                  "internalType": "bool",
                  "name": "preferClaimed",
                  "type": "bool"
                },
                {
                  "internalType": "bool",
                  "name": "preferAddToBalance",
                  "type": "bool"
                },
                {
                  "internalType": "uint256",
                  "name": "percent",
                  "type": "uint256"
                },
                {
                  "internalType": "uint256",
                  "name": "projectId",
                  "type": "uint256"
                },
                {
                  "internalType": "address payable",
                  "name": "beneficiary",
                  "type": "address"
                },
                {
                  "internalType": "uint256",
                  "name": "lockedUntil",
                  "type": "uint256"
                },
                {
                  "internalType": "contract IJBSplitAllocator",
                  "name": "allocator",
                  "type": "address"
                }
              ],
              "internalType": "struct JBSplit[]",
              "name": "splits",
              "type": "tuple[]"
            },
            {
              "internalType": "uint88",
              "name": "distributionLimit",
              "type": "uint88"
            },
            {
              "internalType": "contract IJBPaymentTerminal",
              "name": "terminal",
              "type": "address"
            }
          ],
          "internalType": "struct DefifaLaunchProjectData",
          "name": "_launchProjectData",
          "type": "tuple"
        }
      ],
      "name": "launchGameWith",
      "outputs": [
        {
          "internalType": "uint256",
          "name": "gameId",
          "type": "uint256"
        }
      ],
      "stateMutability": "nonpayable",
      "type": "function"
    },
    {
      "inputs": [
        {
          "internalType": "uint256",
          "name": "_gameId",
          "type": "uint256"
        }
      ],
      "name": "mintDurationOf",
      "outputs": [
        {
          "internalType": "uint256",
          "name": "",
          "type": "uint256"
        }
      ],
      "stateMutability": "view",
      "type": "function"
    },
    {
      "inputs": [
        {
          "internalType": "uint256",
          "name": "_gameId",
          "type": "uint256"
        }
      ],
      "name": "nextPhaseNeedsQueueing",
      "outputs": [
        {
          "internalType": "bool",
          "name": "",
          "type": "bool"
        }
      ],
      "stateMutability": "view",
      "type": "function"
    },
    {
      "inputs": [
        {
          "internalType": "address",
          "name": "",
          "type": "address"
        },
        {
          "internalType": "address",
          "name": "",
          "type": "address"
        },
        {
          "internalType": "uint256",
          "name": "",
          "type": "uint256"
        },
        {
          "internalType": "bytes",
          "name": "",
          "type": "bytes"
        }
      ],
      "name": "onERC721Received",
      "outputs": [
        {
          "internalType": "bytes4",
          "name": "",
          "type": "bytes4"
        }
      ],
      "stateMutability": "pure",
      "type": "function"
    },
    {
      "inputs": [],
      "name": "protocolFeeProjectTokenAccount",
      "outputs": [
        {
          "internalType": "address",
          "name": "",
          "type": "address"
        }
      ],
      "stateMutability": "view",
      "type": "function"
    },
    {
      "inputs": [
        {
          "internalType": "uint256",
          "name": "_gameId",
          "type": "uint256"
        }
      ],
      "name": "queueNextPhaseOf",
      "outputs": [
        {
          "internalType": "uint256",
          "name": "configuration",
          "type": "uint256"
        }
      ],
      "stateMutability": "nonpayable",
      "type": "function"
    },
    {
      "inputs": [
        {
          "internalType": "uint256",
          "name": "_gameId",
          "type": "uint256"
        }
      ],
      "name": "refundPeriodDurationOf",
      "outputs": [
        {
          "internalType": "uint256",
          "name": "",
          "type": "uint256"
        }
      ],
      "stateMutability": "view",
      "type": "function"
    },
    {
      "inputs": [
        {
          "internalType": "uint256",
          "name": "_gameId",
          "type": "uint256"
        }
      ],
      "name": "startOf",
      "outputs": [
        {
          "internalType": "uint256",
          "name": "",
          "type": "uint256"
        }
      ],
      "stateMutability": "view",
      "type": "function"
    },
    {
      "inputs": [
        {
          "internalType": "uint256",
          "name": "_gameId",
          "type": "uint256"
        }
      ],
      "name": "terminalOf",
      "outputs": [
        {
          "internalType": "contract IJBPaymentTerminal",
          "name": "",
          "type": "address"
        }
      ],
      "stateMutability": "view",
      "type": "function"
    },
    {
      "inputs": [
        {
          "internalType": "uint256",
          "name": "_gameId",
          "type": "uint256"
        }
      ],
      "name": "timesFor",
      "outputs": [
        {
          "components": [
            {
              "internalType": "uint48",
              "name": "mintDuration",
              "type": "uint48"
            },
            {
              "internalType": "uint48",
              "name": "refundPeriodDuration",
              "type": "uint48"
            },
            {
              "internalType": "uint48",
              "name": "start",
              "type": "uint48"
            },
            {
              "internalType": "uint48",
              "name": "end",
              "type": "uint48"
            }
          ],
          "internalType": "struct DefifaTimeData",
          "name": "",
          "type": "tuple"
        }
      ],
      "stateMutability": "view",
      "type": "function"
    },
    {
      "inputs": [],
      "name": "token",
      "outputs": [
        {
          "internalType": "address",
          "name": "",
          "type": "address"
        }
      ],
      "stateMutability": "view",
      "type": "function"
    }
  ],
  "bytecode": {
    "object": "0x610100346200015057601f6200337f38819003918201601f19168301916001600160401b03831184841017620001555780849260809460405283398101031262000150576200004e816200016b565b60208201519091906001600160a01b038116810362000150576200008360606200007b604085016200016b565b93016200016b565b9260805260c05260a05260e0526040516131fe908162000181823960805181818161049e0152610ede015260a05181818161013101528181610c3401528181610df901528181610e5b015281816128bd015261291c015260c051818181610176015281816101d40152818161051601528181610ba101528181610f4701528181610fa001528181611467015281816117ba01528181611dab015281816124e401528181612547015281816127b00152818161298b0152612c68015260e0518181816102930152611c440152f35b600080fd5b634e487b7160e01b600052604160045260246000fd5b51906001600160a01b0382168203620001505756fe608080604052600436101561001357600080fd5b600090813560e01c9081630589d29214611e74575080630715610a14611d7a5780631109fff214611d46578063150b7a0214611cd05780631c069dbb14611ca957806327655cfd14611c735780633f3090d914611c2e5780634fe0eced14611bfb578063711590b11461070757806378632633146106d857806381312a14146104e9578063a372c2a9146104cd578063a71e971614610488578063b07925d3146103ea578063b41e7f47146103b6578063b965933e14610382578063ca449a25146101a5578063f77c479114610160578063fc0c546a1461011b5763ff16a2f2146100fd57600080fd5b34610118578060031936011261011857602090604051908152f35b80fd5b50346101185780600319360112610118576040517f00000000000000000000000000000000000000000000000000000000000000006001600160a01b03168152602090f35b50346101185780600319360112610118576040517f00000000000000000000000000000000000000000000000000000000000000006001600160a01b03168152602090f35b5034610118578060031936011261011857604051630619306360e41b80825282916001600160a01b03906020907f00000000000000000000000000000000000000000000000000000000000000008316908281600481855afa9081156103775783918591889161035a575b50169460046040518094819382525afa9081156103225783918391879161032d575b50604460405180948193635287af3760e01b835230600484015260016024840152165afa9182156103225785926102ec575b5050823b156102e7576084849283604051958694859363ac689bcd60e01b8552306004860152600160248601527f000000000000000000000000000000000000000000000000000000000000000016604485015260648401525af180156102dc576102cc5750f35b6102d590611f54565b6101185780f35b6040513d84823e3d90fd5b505050fd5b8195508092503d831161031b575b6103048183611fb9565b81010312610316578392513880610264565b600080fd5b503d6102fa565b6040513d87823e3d90fd5b61034d9150823d8411610353575b6103458183611fb9565b810190612084565b38610232565b503d61033b565b6103719150833d8511610353576103458183611fb9565b38610210565b6040513d88823e3d90fd5b50346101185760203660031901126101185765ffffffffffff60406020926004358152808452205460901c16604051908152f35b50346101185760203660031901126101185765ffffffffffff60406020926004358152808452205460601c16604051908152f35b5034610118576020366003190112610118576040816080926060835161040f81611f1e565b82815282602082015282858201520152600435815280602052206040519061043682611f1e565b5465ffffffffffff9081808216938481528160208201818560301c16815281606060408501948288831c168652019560901c168552604051968752511660208601525116604084015251166060820152f35b50346101185780600319360112610118576040517f00000000000000000000000000000000000000000000000000000000000000006001600160a01b03168152602090f35b5034610118578060031936011261011857602060405160018152f35b503461011857602090816003193601126101185760405163557e715560e01b808252916001600160a01b037f0000000000000000000000000000000000000000000000000000000000000000811660048035908790869081855afa9485156106cd5784956106ac575b5082939495604051966321d1336160e11b885282600489015287602481610120988994165afa96871561037757908891879861066c575b5060046040518095819382525afa9182156103225790849291869261064a575b506024906040519485938492630b8aa00f60e31b84526004840152165afa92831561063e578093610602575b5050508260048351141592836105f1575b506040518315158152f35b8101519101511490503882816105e6565b90918093503d8411610637575b6106198184611fb9565b8201928284031261011857509061062f916120a3565b3880806105d5565b503d61060f565b604051903d90823e3d90fd5b602491925061066590893d8b11610353576103458183611fb9565b91906105a9565b91509650843d86116106a5575b6106838183611fb9565b81019085818303126106a157889161069a916120a3565b9638610589565b8680fd5b503d610679565b839495506106c690883d8a11610353576103458183611fb9565b9493610552565b6040513d86823e3d90fd5b5034610118576020366003190112610118576040602091600435815260018352205460f81c6040519015158152f35b5034610118576040366003190112610118576001600160401b03600435116101185761010060043536036003190112610118576040519061010082018281106001600160401b03821117611be757604052600435600401356001600160401b0381116115055761077e906004369181350101611fda565b8252602460043501356001600160401b038111611505576107a6906004369181350101611fda565b6020830152604460043501356001600160401b038111611505576107d1906004369181350101611fda565b6040830152606460043501356001600160401b038111611505576107fc906004369181350101611fda565b6060830152608460043501356001600160401b038111611505573660238260043501011215611505576108356004828135010135612030565b906108436040519283611fb9565b60048035820190810135808452602084019291366101c090920201602401116116ba576024816004350101915b600480358301908101356101c002016024018310611a8b57505050608083015260a460043501356001600160401b038111611505573660238260043501011215611505576108c46004828135010135612030565b906108d26040519283611fb9565b600480358201908101358084526020840192913660059290921b01602401116116ba576024816004350101915b6004803583019081013560051b016024018310611a595750505060a083015260043560c401356001600160a01b03811690036101185760c4600435013560c083015261094f60e460043501611ea2565b60e08301526001600160401b03602435116101185761012060243536036003190112610118576040519061098282611eb6565b6001600160401b03602435600401351161011857604060031960243560048101350136030112610118576040516109b881611ee8565b6001600160401b03600460243581013560243501013511611505576109ec3660046024358181013501808201350101611fda565b81526024803560040135813501013560208201528252610a0f6024803501612047565b6020830152610a22604460243501612047565b6040830152610a35606460243501612047565b6060830152610a48608460243501612047565b6080830152610a5b60a460243501612077565b60a083015260c460243501356001600160401b0381116115055736602382602435010112156115055760048160243501013590610a9782612030565b91610aa56040519384611fb9565b808352602083019136602460e0840283823501010111611a555760248181350101925b602460e0840283823501010184106119b3575050505060c083015260243560e401356001600160581b03811690036101185760243560e481013560e084015261010401356001600160a01b038116900361011857610104602435013561010083015265ffffffffffff606083015116156119a0575b610b76610b6365ffffffffffff60608501511665ffffffffffff60408601511690612123565b65ffffffffffff60208501511690612123565b65ffffffffffff42911610801561197f575b61196d576040516322de550f60e21b81526020816004817f00000000000000000000000000000000000000000000000000000000000000006001600160a01b03165afa9081156102dc57829161192a575b506040516306661abd60e01b81529190602090839060049082906001600160a01b03165afa91821561191d5781926118e9575b506001820182116118d55761010083015160405163df21a7dd60e01b81526001600160a01b037f000000000000000000000000000000000000000000000000000000000000000081166004830152600185016024830152909160209183916044918391165afa9081156102dc57829161189b575b50156118895765ffffffffffff60208401511665ffffffffffff60408501511665ffffffffffff60608601511665ffffffffffff6080870151169060405193610cc885611f1e565b84526020840192835260408401908152606084019182526001860185528460205265ffffffffffff604086209451166bffffffffffff0000000000008554945160301b169165ffffffffffff60601b905160601b169265ffffffffffff60901b905160901b16936001600160401b0360c01b1617171717905560018060a01b03610100840151166001600160581b0360e08501511660a085015115159060405192610d7284611f39565b83526020808401918252604080850193845260018781018752909152842092519051915160a09290921b6affffffffffffffffffffff60a01b166001600160a01b03919091161790151560f81b6001600160f81b03191617905560c08301515161176b575b6080840151610100840151604051631982d67960e01b81526001600160a01b037f000000000000000000000000000000000000000000000000000000000000000081166004830152929692909160209183916024918391165afa8015611509578390611738575b61010086015160405163b7bad1b160e01b81526001600160a01b037f00000000000000000000000000000000000000000000000000000000000000008116600483015290935060209184916024918391165afa9182156106cd578492611704575b5060405196610ead88611f1e565b875260208701526040860152816060860152604051733d602d80600a3d3981f3363d3d373d3d3d363d7360601b81527f000000000000000000000000000000000000000000000000000000000000000060601b60148201526e5af43d82803e903d91602b57fd5bf360881b6028820152603760018060a01b039184f0169081156116c6576040516331070bc960e21b8152956020876004817f00000000000000000000000000000000000000000000000000000000000000006001600160a01b03165afa9687156106cd57849761167e575b50815160208084015160405163557e715560e01b81529293929091816004817f00000000000000000000000000000000000000000000000000000000000000006001600160a01b03165afa908115611673578791611654575b50604085015160608601519060018060a01b0360c0880151169260405194610fff86611f1e565b8a86528a60208701528a60408701526001606087015260a0890151978a3b1561165057928e9895928c9895928e98956040519b8c9a635574191360e11b8c5260010160048c0152600160a01b600190031660248b015260448a016101e090526101e48a0161106c916122c2565b8981036003190160648b0152611081916122c2565b6001600160a01b0390911660848901528781036003190160a48901526110a6916122c2565b8760c48801526003198782030160e48801526110c1916122c2565b600319868203016101048701528351936080825260808201855180915260a083019560200190895b81811061155d575050509060608260208296959401516020840152604081015160408401528160018060a01b0391015116910152610124860152805115156101448601526020810151151561016486015260408101511515610184860152015115156101a4840152600319838203016101c4840152815180825260208201916020808360051b83010194019286915b83831061152c5750505050508190038183875af180156106cd57908491611518575b505060e001516001600160a01b0316813b15611514576040519063f2fde38b60e01b82526004820152828160248183865af18015611509576114f1575b506024906113ff6103e094956113ec604051936111f385611ee8565b60018552602036818701376101008301516001600160a01b0316611216866121ae565b5282519065ffffffffffff61133581602087015116956040519661123988611f1e565b87528a60208801528a60408801528a60608801526040519361125a85611f39565b8b85528b60208601528b604086015260a08201511515906112908d6040519061128282611ee8565b8152600160208201526131a3565b916040519661129e88611f67565b87528d602088015261271080604089015260608801528d60808801528d60a08801528d60c08801528d60e08801528d6101008801528d6101208801528d6101408801526101608701528c6101808701528c6101a087015260016101c087015260016101e087015261020086015261022085015282604061132b826060850151168360208601511690612123565b9201511690612123565b6113d36040519361134585611f9e565b600085526113c9604051986113598a611f9e565b60008a526040519e8f9d8e63b3c5267360e01b815230600482015201528c61040460206113948b5160406103e48601526104248501906122c2565b9a0151910152805160448e0152602081015160648e0152604081015160848e0152606001516001600160a01b031660a48d0152565b60c48b019061302d565b16610344880152868203600319016103648801526121d1565b848103600319016103848601529061312f565b600319838203016103a484015260208083519283815201920190845b8181106114cf5750505081810360031981016103c484015260148252732232b334b3309033b0b6b290383430b9b290189760611b60209283015290919060400181846001600160a01b037f0000000000000000000000000000000000000000000000000000000000000000165af190811561063e57506114a4575b602082600160405191018152f35b602090813d83116114c8575b6114ba8183611fb9565b810103126103165781611496565b503d6114b0565b82516001600160a01b031684528694506020938401939092019160010161141b565b6114fb8391611f54565b61150557846111d7565b5080fd5b6040513d85823e3d90fd5b8280fd5b61152190611f54565b61151457828661119a565b9295509295509260208061154c600193601f1986820301875289516122c2565b970193019301899593879592611178565b9294966020919496989a508299506101c0906001935169ffffffffffffffffffff815116825265ffffffffffff84820151168483015264ffffffffff604082015116604083015261ffff8060608301511660608401526080820151166080830152848060a01b0360a08201511660a083015260ff8060c08301511660c0840152858060a01b0360e08301511660e0840152610100820151610100840152610120820151166101208301526101408082015115159083015261016080820151151590830152610180808201511515908301526101a0809101511515908201520198019101908c989694928a989694926110e9565b8b80fd5b61166d915060203d602011610353576103458183611fb9565b38610fd8565b6040513d89823e3d90fd5b9096506020813d6020116116be575b8161169a60209383611fb9565b810103126116ba57516001600160a01b03811681036116ba579538610f7f565b8380fd5b3d915061168d565b60405162461bcd60e51b8152602060048201526016602482015275115490cc4c4d8dce8818dc99585d194819985a5b195960521b6044820152606490fd5b9091506020813d602011611730575b8161172060209383611fb9565b8101031261031657519038610e9f565b3d9150611713565b506020813d602011611763575b8161175260209383611fb9565b810103126103165760249051610e3e565b3d9150611745565b61177361215e565b60c08401516040519061178582611ee8565b6001850182526020820152611799826121ae565b526117a3816121ae565b50604051630af7f80160e21b8152906020826004817f00000000000000000000000000000000000000000000000000000000000000006001600160a01b03165afa918215611509578392611868575b506001600160a01b0382163b156115145761183b8392839260405194858094819363796d225b60e11b8352600160048401528360248401526060604484015260648301906121d1565b03926001600160a01b03165af180156102dc57611859575b50610dd7565b61186290611f54565b38611853565b61188291925060203d602011610353576103458183611fb9565b90386117f2565b604051631b93d9cb60e11b8152600490fd5b90506020813d6020116118cd575b816118b660209383611fb9565b81010312611505576118c790612151565b38610c80565b3d91506118a9565b634e487b7160e01b81526011600452602490fd5b9091506020813d602011611915575b8161190560209383611fb9565b8101031261150557519038610c0c565b3d91506118f8565b50604051903d90823e3d90fd5b90506020813d602011611965575b8161194560209383611fb9565b8101031261150557516001600160a01b0381168103611505576020610bd9565b3d9150611938565b604051633a7c40a160e11b8152600490fd5b5065ffffffffffff60808301511665ffffffffffff60608401511611610b88565b65ffffffffffff42166060830152610b3d565b60e084360312611a51576040516119c981611f03565b6119d285612077565b81526119e060208601612077565b6020820152604085810135908201526060808601359082015260808501356001600160a01b03811690036106a1576080858101359082015260a0808601359082015260c08501356001600160a01b03811690036106a15760c08581013590820152815260e090930192602001610ac8565b8580fd5b8480fd5b6001600160401b03833511611a555760208091611a80366024873587600435010101611fda565b8152019201916108ff565b6101c083360312611a5557604051806101c08101106001600160401b036101c083011117611bd3576101c0810160405269ffffffffffffffffffff843516843503611a515783358152611ae060208501612047565b6020820152604084013564ffffffffff81169003611a515760206024926101c09260408701356040820152611b176060880161205a565b60608201526080611b2981890161205a565b9082015260a0611b3a818901611ea2565b9082015260c0611b4b818901612069565b90820152611b5b60e08801611ea2565b60e0820152610100870135610100820152610120611b7a818901612069565b90820152610140611b8c818901612077565b90820152610160611b9e818901612077565b90820152610180611bb0818901612077565b908201526101a0611bc2818901612077565b908201528152019301929050610870565b634e487b7160e01b86526041600452602486fd5b634e487b7160e01b82526041600452602482fd5b503461011857602036600319011261011857602090600435815260018252604060018060a01b0391205416604051908152f35b50346101185780600319360112610118576040517f00000000000000000000000000000000000000000000000000000000000000006001600160a01b03168152602090f35b5034610118576020366003190112610118576001600160581b036040602092600435815260018452205460a01c16604051908152f35b5034610118576020366003190112610118576020611cc86004356124c7565b604051908152f35b5034610118576080366003190112610118576001600160a01b03600435818116036115055760243590811603610118576064356001600160401b038082116115145736602383011215611514578160040135908111611514573691016024011161011857604051630a85bd0160e11b8152602090f35b50346101185760203660031901126101185765ffffffffffff60406020926004358152808452205460301c16604051908152f35b50346101185760203660031901126101185760405163557e715560e01b81526001600160a01b0391906020816004817f000000000000000000000000000000000000000000000000000000000000000087165afa9081156102dc578291611e56575b50604051906321d1336160e11b8252600435600483015281602481610120968794165afa91821561063e578092611e1a575b60208351604051908152f35b909150823d8411611e4f575b611e308184611fb9565b820192828403126101185750602091611e48916120a3565b3880611e0e565b503d611e26565b611e6e915060203d8111610353576103458183611fb9565b38611ddc565b9050346115055760203660031901126115055765ffffffffffff604060209360043581528085522054168152f35b35906001600160a01b038216820361031657565b61012081019081106001600160401b03821117611ed257604052565b634e487b7160e01b600052604160045260246000fd5b604081019081106001600160401b03821117611ed257604052565b60e081019081106001600160401b03821117611ed257604052565b608081019081106001600160401b03821117611ed257604052565b606081019081106001600160401b03821117611ed257604052565b6001600160401b038111611ed257604052565b61024081019081106001600160401b03821117611ed257604052565b60c081019081106001600160401b03821117611ed257604052565b602081019081106001600160401b03821117611ed257604052565b90601f801991011681019081106001600160401b03821117611ed257604052565b81601f82011215610316578035906001600160401b038211611ed2576040519261200e601f8401601f191660200185611fb9565b8284526020838301011161031657816000926020809301838601378301015290565b6001600160401b038111611ed25760051b60200190565b359065ffffffffffff8216820361031657565b359061ffff8216820361031657565b359060ff8216820361031657565b3590811515820361031657565b9081602091031261031657516001600160a01b03811681036103165790565b919082610120910312610316576040516120bc81611eb6565b8092805182526020810151602083015260408101516040830152606081015160608301526080810151608083015260a081015160a083015260c081015160c083015260e081015160018060a01b03811681036103165760e083015261010080910151910152565b65ffffffffffff918216908216039190821161213b57565b634e487b7160e01b600052601160045260246000fd5b5190811515820361031657565b60409081519161216d83611ee8565b600183528291600091825b6020808210156121a55782516020929161219182611ee8565b868252606081830152828901015201612178565b50505091925050565b8051156121bb5760200190565b634e487b7160e01b600052603260045260246000fd5b908082519081815260208091019281808460051b830101950193600080925b858410612201575050505050505090565b9091929380959697601f1983820301855288519060408381830193805184520151928185840152835180915284606080940194019287925b82841061225b57505050505090806001929901940194019295949391906121f0565b845180511515875287810151151588880152818101518288015282810151838801526080808201516001600160a01b039081169189019190915260a0808301519089015260c09182015116908701528b9660e0909601959094019360019390930192612239565b919082519283825260005b8481106122ee575050826000602080949584010152601f8019910116010190565b6020818301810151848301820152016122cd565b80820392916103a084126103165761231a90826120a3565b926102809061011f1901818112610316576040519261024092838501926001600160401b039086851082861117611ed257606013610316576102a09086820190811185821017611ed25760405261012090612376848301612151565b8552610140612386858201612151565b9561026096878a01526101609081870161239f90612151565b868b01528952610180918287015160208b01526101a0938488015160408c01526101c0958689015160608d01526101e0978c898b016123dd90612151565b90608001528c6102009b8c8c016123f390612151565b60a08301526102209d8e8d0161240890612151565b60c08401528c0161241890612151565b60e08301528b0161242890612151565b906101000152890161243990612151565b908c0152870161244890612151565b908a01526124596102c08701612151565b9089015261246a6102e08601612151565b9088015261247b6103008501612151565b9087015261248c6103208401612151565b9086015261249d6103408301612151565b908501526103608101516001600160a01b0381168103610316576103809285015201519082015290565b604051638776c49960e01b8152600481018290526103a0816024817f00000000000000000000000000000000000000000000000000000000000000006001600160a01b03165afa90811561281b576000908192613009575b50600481511015612ff7576040516304acdec560e21b8152600481018490526103a0816024817f00000000000000000000000000000000000000000000000000000000000000006001600160a01b03165afa90811561281b57600091612fc5575b5060208083015191015103612fb35751600181036128275750906020906040610200938460018060a01b0391015116826000526000845281600020948251956125c887611f1e565b5495606065ffffffffffff8089168352808960301c169889898501528181841c168785015260901c1691015282519561260087611f1e565b86526000858701526000838701526000606087015282519161262183611f39565b6000835260008684015260008484015261264e845161263f81611ee8565b600081526001888201526131a3565b9184519361265b85611f67565b84526000878501526127108086860152606085015260016080850152600060a0850152600060c0850152600060e08501526000610100850152600061012085015260006101408501526000610160850152600061018085015260006101a085015260016101c085015260016101e0850152830152610220820152732232b334b3309033b0b6b290383430b9b290191760611b8461279861278485516126ff81611f9e565b6000815261276887519661271288611f9e565b60008852885163175b7be560e31b8152600481019a909a528b5160248b015260208c015160448b015260408c015160648b01526060909b01516001600160a01b031660848a015297998a989060a48a019061302d565b60006103248901526103a06103448901526103a48801906121d1565b60031994858883030161036489015261312f565b858103938401610384870152601481520152018160007f00000000000000000000000000000000000000000000000000000000000000006001600160a01b03165af190811561281b576000916127ec575090565b906020823d602011612813575b8161280660209383611fb9565b8101031261011857505190565b3d91506127f9565b6040513d6000823e3d90fd5b600203612e8e576102000151600082815260016020526040908190209051916001600160a01b03169061285983611f39565b5460018060a01b03811683526001600160581b038160a01c16602084015260f81c151560408301526040519161288e83611ee8565b6001835260005b60208110612e4d57508051602080830151604051631982d67960e01b81526001600160a01b037f00000000000000000000000000000000000000000000000000000000000000008116600483015290931692916001600160581b039091169082602481865afa91821561281b57600092612e19575b506040519261291884611f83565b83527f00000000000000000000000000000000000000000000000000000000000000006001600160a01b031660208401526040830152606082015260006080820181905260a082015261296a846121ae565b52612974836121ae565b50604051630af7f80160e21b8152916020836004817f00000000000000000000000000000000000000000000000000000000000000006001600160a01b03165afa92831561281b576064936000918291612dfa575b506040516369e11cc560e01b815260016004820152602481018390526044810188905294859182906001600160a01b03165afa92831561281b57600093612cc8575b50825160009015612cb15750612a1f61215e565b9260405190612a2d82611ee8565b600182526020820152612a3f846121ae565b52612a49836121ae565b505b84600052600060205260406000209060405191612a6783611f1e565b549165ffffffffffff928381168252838160301c16602083015283808260601c169182604085015260901c16606081930152612aa291612123565b9160405192612ab084611f1e565b16825260208201600090526040820160009052606082016000905260405192612ad884611f39565b600084526020840160009052604084016000905260400151151590604051612aff81611ee8565b60008082526020820152612b12906131a3565b9160405194612b2086611f67565b8552602085016000905260408501600090526060850160009052608085016001905260a085016000905260c085016001905260e08501600090526101008501600090526101208501600090526101408501600090526101608501526101808401600090526101a08401600090526101c08401600190526101e08401600190526102008401526102208301526040519463175b7be560e31b8652600486015260248501612bf2916060908051835260208101516020840152604081015160408401528160018060a01b0391015116910152565b60a48401612bff9161302d565b60006103248401526103a0610344840152612c1f906103a48401906121d1565b90600319918284820301610364850152612c389161312f565b82810391820161038484015260148152732232b334b3309033b0b6b290383430b9b290199760611b6020909101527f00000000000000000000000000000000000000000000000000000000000000006001600160a01b0316908290604001815a602094600091f190811561281b576000916127ec575090565b604051919350612cc082611f9e565b815291612a4b565b90923d8082843e612cd98184611fb9565b6020838281010312611505578251916001600160401b03831161011857818401601f848601011215610118578284015191612d1383612030565b94612d216040519687611fb9565b8386526020860194828201602060e087028385010101116116ba57602081830101955b602060e0870283850101018710612d6357505050505050509138612a0b565b60e0878585010312611a5557604051612d7b81611f03565b612d8488612151565b8152612d9260208901612151565b6020820152604088810151908201526060808901519082015260808801516001600160a01b03811681036106a157608082015260a0888101519082015260c08801516001600160a01b03811681036106a15760c0820152815260e09690960195602001612d44565b612e13915060203d602011610353576103458183611fb9565b386129c9565b90916020823d602011612e45575b81612e3460209383611fb9565b81010312610118575051903861290a565b3d9150612e27565b602090604051612e5c81611f83565b60008152600083820152600060408201526000606082015260006080820152600060a082015282828701015201612895565b61020090810151604080519360209390926001600160a01b031690612eb286611f1e565b6000865260008587015260008387015260006060870152825191612ed583611f39565b60008352600086840152600084840152612f028451612ef381611ee8565b600081526000888201526131a3565b91845193612f0f85611f67565b84526000878501526127108086860152606085015260016080850152600060a0850152600060c0850152600060e08501526000610100850152600061012085015260006101408501526000610160850152600061018085015260006101a085015260016101c085015260016101e0850152830152610220820152732232b334b3309033b0b6b290383430b9b2901a1760611b8461279861278485516126ff81611f9e565b6040516311f4338560e01b8152600490fd5b612fe991506103a03d6103a011612ff0575b612fe18183611fb9565b810190612302565b5038612580565b503d612fd7565b60405163dc7a251560e01b8152600490fd5b905061302691506103a03d6103a011612ff057612fe18183611fb9565b903861251f565b61026090604081518051151585526020810151151560208601520151151560408401526020810151606084015260408101516080840152606081015160a08401526080810151151560c084015260a0810151151560e084015260c0810151151590610100918285015260e081015115159161012092838601528101511515916101409283860152810151151591610160928386015281015115159161018092838601528101511515916101a092838601528101511515916101c092838601528101511515916101e092838601528101511515916102009283860152810151151591610220928386015260018060a01b0390820151166102408501520151910152565b90815180825260208080930193019160005b82811061314f575050505090565b835180516001600160a01b03908116875281840151168684015260408082015190870152606080820151908701526080808201519087015260a0908101519086015260c09094019392810192600101613141565b9060009180516131bf575b602001516131b857565b9060021790565b600192506131ae56fea26469706673582212205e010378393bcb3c879ae721ed5cf3b19e5f12032cd1c2b7fc8e374d65305ab164736f6c63430008110033",
    "linkReferences": {}
  },
  "methodIdentifiers": {
    "SPLIT_DOMAIN()": "ff16a2f2",
    "SPLIT_PROJECT_ID()": "a372c2a9",
    "claimProtocolProjectToken()": "ca449a25",
    "controller()": "f77c4791",
    "currentGamePhaseOf(uint256)": "0715610a",
    "defifaCodeOrigin()": "a71e9716",
    "distributionLimit(uint256)": "27655cfd",
    "endOf(uint256)": "b965933e",
    "holdFeesDuring(uint256)": "78632633",
    "launchGameWith((string,string,string,string,(uint80,uint48,uint40,uint16,uint16,address,uint8,address,bytes32,uint8,bool,bool,bool,bool)[],string[],address,address),((string,uint256),uint48,uint48,uint48,uint48,bool,(bool,bool,uint256,uint256,address,uint256,address)[],uint88,address))": "711590b1",
    "mintDurationOf(uint256)": "0589d292",
    "nextPhaseNeedsQueueing(uint256)": "81312a14",
    "onERC721Received(address,address,uint256,bytes)": "150b7a02",
    "protocolFeeProjectTokenAccount()": "3f3090d9",
    "queueNextPhaseOf(uint256)": "1c069dbb",
    "refundPeriodDurationOf(uint256)": "1109fff2",
    "startOf(uint256)": "b41e7f47",
    "terminalOf(uint256)": "4fe0eced",
    "timesFor(uint256)": "b07925d3",
    "token()": "fc0c546a"
  },
  "id": 1
}