{
  "abi": [
    {
      "inputs": [
        {
          "internalType": "address",
          "name": "_defifaCodeOrigin",
          "type": "address"
        },
        {
          "internalType": "contract IJBController",
          "name": "_controller",
          "type": "address"
        },
        {
          "internalType": "address",
          "name": "_token",
          "type": "address"
        },
        {
          "internalType": "address",
          "name": "_protocolFeeProjectTokenAccount",
          "type": "address"
        }
      ],
      "stateMutability": "nonpayable",
      "type": "constructor"
    },
    {
      "inputs": [],
      "name": "GAME_OVER",
      "type": "error"
    },
    {
      "inputs": [],
      "name": "INVALID_GAME_CONFIGURATION",
      "type": "error"
    },
    {
      "inputs": [],
      "name": "PHASE_ALREADY_QUEUED",
      "type": "error"
    },
    {
      "inputs": [],
      "name": "UNEXPECTED_TERMINAL_CURRENCY",
      "type": "error"
    },
    {
      "inputs": [],
      "name": "SPLIT_DOMAIN",
      "outputs": [
        {
          "internalType": "uint256",
          "name": "",
          "type": "uint256"
        }
      ],
      "stateMutability": "view",
      "type": "function"
    },
    {
      "inputs": [],
      "name": "SPLIT_PROJECT_ID",
      "outputs": [
        {
          "internalType": "uint256",
          "name": "",
          "type": "uint256"
        }
      ],
      "stateMutability": "view",
      "type": "function"
    },
    {
      "inputs": [],
      "name": "claimProtocolProjectToken",
      "outputs": [],
      "stateMutability": "nonpayable",
      "type": "function"
    },
    {
      "inputs": [],
      "name": "controller",
      "outputs": [
        {
          "internalType": "contract IJBController",
          "name": "",
          "type": "address"
        }
      ],
      "stateMutability": "view",
      "type": "function"
    },
    {
      "inputs": [
        {
          "internalType": "uint256",
          "name": "_gameId",
          "type": "uint256"
        }
      ],
      "name": "currentGamePhaseOf",
      "outputs": [
        {
          "internalType": "uint256",
          "name": "",
          "type": "uint256"
        }
      ],
      "stateMutability": "view",
      "type": "function"
    },
    {
      "inputs": [],
      "name": "defifaCodeOrigin",
      "outputs": [
        {
          "internalType": "address",
          "name": "",
          "type": "address"
        }
      ],
      "stateMutability": "view",
      "type": "function"
    },
    {
      "inputs": [
        {
          "internalType": "uint256",
          "name": "_gameId",
          "type": "uint256"
        }
      ],
      "name": "distributionLimit",
      "outputs": [
        {
          "internalType": "uint256",
          "name": "",
          "type": "uint256"
        }
      ],
      "stateMutability": "view",
      "type": "function"
    },
    {
      "inputs": [
        {
          "internalType": "uint256",
          "name": "_gameId",
          "type": "uint256"
        }
      ],
      "name": "endOf",
      "outputs": [
        {
          "internalType": "uint256",
          "name": "",
          "type": "uint256"
        }
      ],
      "stateMutability": "view",
      "type": "function"
    },
    {
      "inputs": [
        {
          "internalType": "uint256",
          "name": "_gameId",
          "type": "uint256"
        }
      ],
      "name": "holdFeesDuring",
      "outputs": [
        {
          "internalType": "bool",
          "name": "",
          "type": "bool"
        }
      ],
      "stateMutability": "view",
      "type": "function"
    },
    {
      "inputs": [
        {
          "components": [
            {
              "internalType": "string",
              "name": "name",
              "type": "string"
            },
            {
              "internalType": "string",
              "name": "symbol",
              "type": "string"
            },
            {
              "internalType": "string",
              "name": "baseUri",
              "type": "string"
            },
            {
              "internalType": "string",
              "name": "contractUri",
              "type": "string"
            },
            {
              "components": [
                {
                  "internalType": "uint80",
                  "name": "contributionFloor",
                  "type": "uint80"
                },
                {
                  "internalType": "uint48",
                  "name": "lockedUntil",
                  "type": "uint48"
                },
                {
                  "internalType": "uint40",
                  "name": "initialQuantity",
                  "type": "uint40"
                },
                {
                  "internalType": "uint16",
                  "name": "votingUnits",
                  "type": "uint16"
                },
                {
                  "internalType": "uint16",
                  "name": "reservedRate",
                  "type": "uint16"
                },
                {
                  "internalType": "address",
                  "name": "reservedTokenBeneficiary",
                  "type": "address"
                },
                {
                  "internalType": "bytes32",
                  "name": "encodedIPFSUri",
                  "type": "bytes32"
                },
                {
                  "internalType": "bool",
                  "name": "allowManualMint",
                  "type": "bool"
                },
                {
                  "internalType": "bool",
                  "name": "shouldUseBeneficiaryAsDefault",
                  "type": "bool"
                },
                {
                  "internalType": "bool",
                  "name": "transfersPausable",
                  "type": "bool"
                }
              ],
              "internalType": "struct JB721TierParams[]",
              "name": "tiers",
              "type": "tuple[]"
            },
            {
              "internalType": "contract IJBTiered721DelegateStore",
              "name": "store",
              "type": "address"
            },
            {
              "internalType": "address",
              "name": "owner",
              "type": "address"
            }
          ],
          "internalType": "struct DefifaDelegateData",
          "name": "_delegateData",
          "type": "tuple"
        },
        {
          "components": [
            {
              "components": [
                {
                  "internalType": "string",
                  "name": "content",
                  "type": "string"
                },
                {
                  "internalType": "uint256",
                  "name": "domain",
                  "type": "uint256"
                }
              ],
              "internalType": "struct JBProjectMetadata",
              "name": "projectMetadata",
              "type": "tuple"
            },
            {
              "internalType": "uint48",
              "name": "mintDuration",
              "type": "uint48"
            },
            {
              "internalType": "uint48",
              "name": "refundPeriodDuration",
              "type": "uint48"
            },
            {
              "internalType": "uint48",
              "name": "start",
              "type": "uint48"
            },
            {
              "internalType": "uint48",
              "name": "end",
              "type": "uint48"
            },
            {
              "internalType": "bool",
              "name": "holdFees",
              "type": "bool"
            },
            {
              "components": [
                {
                  "internalType": "bool",
                  "name": "preferClaimed",
                  "type": "bool"
                },
                {
                  "internalType": "bool",
                  "name": "preferAddToBalance",
                  "type": "bool"
                },
                {
                  "internalType": "uint256",
                  "name": "percent",
                  "type": "uint256"
                },
                {
                  "internalType": "uint256",
                  "name": "projectId",
                  "type": "uint256"
                },
                {
                  "internalType": "address payable",
                  "name": "beneficiary",
                  "type": "address"
                },
                {
                  "internalType": "uint256",
                  "name": "lockedUntil",
                  "type": "uint256"
                },
                {
                  "internalType": "contract IJBSplitAllocator",
                  "name": "allocator",
                  "type": "address"
                }
              ],
              "internalType": "struct JBSplit[]",
              "name": "splits",
              "type": "tuple[]"
            },
            {
              "internalType": "uint88",
              "name": "distributionLimit",
              "type": "uint88"
            },
            {
              "internalType": "contract IJBPaymentTerminal",
              "name": "terminal",
              "type": "address"
            }
          ],
          "internalType": "struct DefifaLaunchProjectData",
          "name": "_launchProjectData",
          "type": "tuple"
        }
      ],
      "name": "launchGameWith",
      "outputs": [
        {
          "internalType": "uint256",
          "name": "gameId",
          "type": "uint256"
        }
      ],
      "stateMutability": "nonpayable",
      "type": "function"
    },
    {
      "inputs": [
        {
          "internalType": "uint256",
          "name": "_gameId",
          "type": "uint256"
        }
      ],
      "name": "mintDurationOf",
      "outputs": [
        {
          "internalType": "uint256",
          "name": "",
          "type": "uint256"
        }
      ],
      "stateMutability": "view",
      "type": "function"
    },
    {
      "inputs": [
        {
          "internalType": "uint256",
          "name": "_gameId",
          "type": "uint256"
        }
      ],
      "name": "nextPhaseNeedsQueueing",
      "outputs": [
        {
          "internalType": "bool",
          "name": "",
          "type": "bool"
        }
      ],
      "stateMutability": "view",
      "type": "function"
    },
    {
      "inputs": [
        {
          "internalType": "address",
          "name": "",
          "type": "address"
        },
        {
          "internalType": "address",
          "name": "",
          "type": "address"
        },
        {
          "internalType": "uint256",
          "name": "",
          "type": "uint256"
        },
        {
          "internalType": "bytes",
          "name": "",
          "type": "bytes"
        }
      ],
      "name": "onERC721Received",
      "outputs": [
        {
          "internalType": "bytes4",
          "name": "",
          "type": "bytes4"
        }
      ],
      "stateMutability": "pure",
      "type": "function"
    },
    {
      "inputs": [],
      "name": "protocolFeeProjectTokenAccount",
      "outputs": [
        {
          "internalType": "address",
          "name": "",
          "type": "address"
        }
      ],
      "stateMutability": "view",
      "type": "function"
    },
    {
      "inputs": [
        {
          "internalType": "uint256",
          "name": "_gameId",
          "type": "uint256"
        }
      ],
      "name": "queueNextPhaseOf",
      "outputs": [
        {
          "internalType": "uint256",
          "name": "configuration",
          "type": "uint256"
        }
      ],
      "stateMutability": "nonpayable",
      "type": "function"
    },
    {
      "inputs": [
        {
          "internalType": "uint256",
          "name": "_gameId",
          "type": "uint256"
        }
      ],
      "name": "refundPeriodDurationOf",
      "outputs": [
        {
          "internalType": "uint256",
          "name": "",
          "type": "uint256"
        }
      ],
      "stateMutability": "view",
      "type": "function"
    },
    {
      "inputs": [
        {
          "internalType": "uint256",
          "name": "_gameId",
          "type": "uint256"
        }
      ],
      "name": "startOf",
      "outputs": [
        {
          "internalType": "uint256",
          "name": "",
          "type": "uint256"
        }
      ],
      "stateMutability": "view",
      "type": "function"
    },
    {
      "inputs": [
        {
          "internalType": "uint256",
          "name": "_gameId",
          "type": "uint256"
        }
      ],
      "name": "terminalOf",
      "outputs": [
        {
          "internalType": "contract IJBPaymentTerminal",
          "name": "",
          "type": "address"
        }
      ],
      "stateMutability": "view",
      "type": "function"
    },
    {
      "inputs": [
        {
          "internalType": "uint256",
          "name": "_gameId",
          "type": "uint256"
        }
      ],
      "name": "timesFor",
      "outputs": [
        {
          "components": [
            {
              "internalType": "uint48",
              "name": "mintDuration",
              "type": "uint48"
            },
            {
              "internalType": "uint48",
              "name": "refundPeriodDuration",
              "type": "uint48"
            },
            {
              "internalType": "uint48",
              "name": "start",
              "type": "uint48"
            },
            {
              "internalType": "uint48",
              "name": "end",
              "type": "uint48"
            }
          ],
          "internalType": "struct DefifaTimeData",
          "name": "",
          "type": "tuple"
        }
      ],
      "stateMutability": "view",
      "type": "function"
    },
    {
      "inputs": [],
      "name": "token",
      "outputs": [
        {
          "internalType": "address",
          "name": "",
          "type": "address"
        }
      ],
      "stateMutability": "view",
      "type": "function"
    }
  ],
  "bytecode": {
    "object": "0x6101006040523480156200001257600080fd5b506040516200369538038062003695833981016040819052620000359162000071565b6001600160a01b0393841660805291831660c052821660a0521660e052620000d9565b6001600160a01b03811681146200006e57600080fd5b50565b600080600080608085870312156200008857600080fd5b8451620000958162000058565b6020860151909450620000a88162000058565b6040860151909350620000bb8162000058565b6060860151909250620000ce8162000058565b939692955090935050565b60805160a05160c05160e0516134e8620001ad6000396000818161022e0152610a06015260008181610459015281816104af015281816105ad0152818161067d015281816107690152818161085e0152818161097301528181610a2701528181610bfb01528181610f66015281816111df0152818161126b01528181611527015281816117ad015281816119e101528181611c5b0152611f5101526000818161048001528181610d04015281816110770152818161111101526116d30152600081816102eb01526111a701526134e86000f3fe608060405234801561001057600080fd5b506004361061012c5760003560e01c8063a372c2a9116100ad578063ca449a2511610071578063ca449a2514610437578063ebcfaa6514610441578063f77c479114610454578063fc0c546a1461047b578063ff16a2f2146104a257600080fd5b8063a372c2a9146102de578063a71e9716146102e6578063b07925d31461030d578063b41e7f47146103d9578063b965933e1461040857600080fd5b806327655cfd116100f457806327655cfd146101f95780633f3090d9146102295780634fe0eced14610268578063786326331461029157806381312a14146102cb57600080fd5b80630589d292146101315780630715610a1461016c5780631109fff21461017f578063150b7a02146101ae5780631c069dbb146101e6575b600080fd5b61015961013f3660046120f1565b60009081526020819052604090205465ffffffffffff1690565b6040519081526020015b60405180910390f35b61015961017a3660046120f1565b6104aa565b61015961018d3660046120f1565b600090815260208190526040902054600160301b900465ffffffffffff1690565b6101cd6101bc36600461212d565b630a85bd0160e11b95945050505050565b6040516001600160e01b03199091168152602001610163565b6101596101f43660046120f1565b6105a6565b6101596102073660046120f1565b600090815260016020526040902054600160a01b90046001600160581b031690565b6102507f000000000000000000000000000000000000000000000000000000000000000081565b6040516001600160a01b039091168152602001610163565b6102506102763660046120f1565b6000908152600160205260409020546001600160a01b031690565b6102bb61029f3660046120f1565b600090815260016020526040902054600160f81b900460ff1690565b6040519015158152602001610163565b6102bb6102d93660046120f1565b610764565b610159600181565b6102507f000000000000000000000000000000000000000000000000000000000000000081565b61039761031b3660046120f1565b60408051608081018252600080825260208201819052918101829052606081019190915250600090815260208181526040918290208251608081018452905465ffffffffffff8082168352600160301b8204811693830193909352600160601b8104831693820193909352600160901b90920416606082015290565b6040516101639190815165ffffffffffff9081168252602080840151821690830152604080840151821690830152606092830151169181019190915260800190565b6101596103e73660046120f1565b600090815260208190526040902054600160601b900465ffffffffffff1690565b6101596104163660046120f1565b600090815260208190526040902054600160901b900465ffffffffffff1690565b61043f610971565b005b61015961044f366004612704565b610b8a565b6102507f000000000000000000000000000000000000000000000000000000000000000081565b6102507f000000000000000000000000000000000000000000000000000000000000000081565b610159600081565b6000807f00000000000000000000000000000000000000000000000000000000000000006001600160a01b031663557e71556040518163ffffffff1660e01b8152600401602060405180830381865afa15801561050b573d6000803e3d6000fd5b505050506040513d601f19601f8201168201806040525081019061052f9190612847565b6001600160a01b03166343a266c2846040518263ffffffff1660e01b815260040161055c91815260200190565b61012060405180830381865afa15801561057a573d6000803e3d6000fd5b505050506040513d601f19601f8201168201806040525081019061059e91906128ef565b519392505050565b60008060007f00000000000000000000000000000000000000000000000000000000000000006001600160a01b0316638776c499856040518263ffffffff1660e01b81526004016105f991815260200190565b6103a060405180830381865afa158015610617573d6000803e3d6000fd5b505050506040513d601f19601f8201168201806040525081019061063b919061298e565b9150915060048260000151106106645760405163dc7a251560e01b815260040160405180910390fd5b6040516304acdec560e21b8152600481018590526000907f00000000000000000000000000000000000000000000000000000000000000006001600160a01b0316906312b37b14906024016103a060405180830381865afa1580156106cd573d6000803e3d6000fd5b505050506040513d601f19601f820116820180604052508101906106f1919061298e565b509050806020015183602001511461071c576040516311f4338560e01b815260040160405180910390fd5b825160010361073d57610734858361020001516113f5565b95945050505050565b82516002036107555761073485836102000151611641565b61073485836102000151611b78565b6000807f00000000000000000000000000000000000000000000000000000000000000006001600160a01b031663557e71556040518163ffffffff1660e01b8152600401602060405180830381865afa1580156107c5573d6000803e3d6000fd5b505050506040513d601f19601f820116820180604052508101906107e99190612847565b6001600160a01b03166343a266c2846040518263ffffffff1660e01b815260040161081691815260200190565b61012060405180830381865afa158015610834573d6000803e3d6000fd5b505050506040513d601f19601f8201168201806040525081019061085891906128ef565b905060007f00000000000000000000000000000000000000000000000000000000000000006001600160a01b031663557e71556040518163ffffffff1660e01b8152600401602060405180830381865afa1580156108ba573d6000803e3d6000fd5b505050506040513d601f19601f820116820180604052508101906108de9190612847565b6001600160a01b0316635c550078856040518263ffffffff1660e01b815260040161090b91815260200190565b61012060405180830381865afa158015610929573d6000803e3d6000fd5b505050506040513d601f19601f8201168201806040525081019061094d91906128ef565b8251909150600414801590610969575080602001518260200151145b949350505050565b7f00000000000000000000000000000000000000000000000000000000000000006001600160a01b031663619306306040518163ffffffff1660e01b8152600401602060405180830381865afa1580156109cf573d6000803e3d6000fd5b505050506040513d601f19601f820116820180604052508101906109f39190612847565b6001600160a01b031663ac689bcd3060017f00000000000000000000000000000000000000000000000000000000000000007f00000000000000000000000000000000000000000000000000000000000000006001600160a01b031663619306306040518163ffffffff1660e01b8152600401602060405180830381865afa158015610a83573d6000803e3d6000fd5b505050506040513d601f19601f82011682018060405250810190610aa79190612847565b604051635287af3760e01b8152306004820152600160248201526001600160a01b039190911690635287af3790604401602060405180830381865afa158015610af4573d6000803e3d6000fd5b505050506040513d601f19601f82011682018060405250810190610b189190612b08565b6040516001600160e01b031960e087901b1681526001600160a01b0394851660048201526024810193909352921660448201526064810191909152608401600060405180830381600087803b158015610b7057600080fd5b505af1158015610b84573d6000803e3d6000fd5b50505050565b600042826020015183604001518460600151610ba69190612b37565b610bb09190612b37565b65ffffffffffff161080610bdb5750816060015165ffffffffffff16826080015165ffffffffffff16105b15610bf957604051633a7c40a160e11b815260040160405180910390fd5b7f00000000000000000000000000000000000000000000000000000000000000006001600160a01b0316638b79543c6040518163ffffffff1660e01b8152600401602060405180830381865afa158015610c57573d6000803e3d6000fd5b505050506040513d601f19601f82011682018060405250810190610c7b9190612847565b6001600160a01b03166306661abd6040518163ffffffff1660e01b8152600401602060405180830381865afa158015610cb8573d6000803e3d6000fd5b505050506040513d601f19601f82011682018060405250810190610cdc9190612b08565b610ce7906001612b5d565b61010083015160405163df21a7dd60e01b81526001600160a01b037f0000000000000000000000000000000000000000000000000000000000000000811660048301526024820184905292935091169063df21a7dd90604401602060405180830381865afa158015610d5d573d6000803e3d6000fd5b505050506040513d601f19601f82011682018060405250810190610d819190612b70565b610d9e57604051631b93d9cb60e11b815260040160405180910390fd5b604080516080808201835260208086015165ffffffffffff908116845286850151811682850190815260608089015183168688019081529489015183168187019081526000898152808652888120975188549451975192518616600160901b0265ffffffffffff60901b19938716600160601b02939093166bffffffffffffffffffffffff60601b19988716600160301b026bffffffffffffffffffffffff19909616919096161793909317959095169290921793909317909355835192830184526101008601516001600160a01b03908116845260e08701516001600160581b0390811685840190815260a0890151151586880190815288865260019094529590932093518454955192511515600160f81b026001600160f81b0393909416600160a01b026001600160f81b0319909616911617939093179290921691909117905560c0820151511561104b57604080516001808252818301909252600091816020015b604080518082019091526000815260606020820152815260200190600190039081610f0357905050905060405180604001604052808381526020018460c0015181525081600081518110610f5957610f59612b8d565b60200260200101819052507f00000000000000000000000000000000000000000000000000000000000000006001600160a01b0316632bdfe0046040518163ffffffff1660e01b8152600401602060405180830381865afa158015610fc2573d6000803e3d6000fd5b505050506040513d601f19601f82011682018060405250810190610fe69190612847565b6001600160a01b031663f2da44b660016000846040518463ffffffff1660e01b815260040161101793929190612c83565b600060405180830381600087803b15801561103157600080fd5b505af1158015611045573d6000803e3d6000fd5b50505050505b604080516080808201835285015181526101008401519151631982d67960e01b81526001600160a01b037f0000000000000000000000000000000000000000000000000000000000000000811660048301526000936020840192911690631982d67990602401602060405180830381865afa1580156110ce573d6000803e3d6000fd5b505050506040513d601f19601f820116820180604052508101906110f29190612b08565b815261010085015160405163b7bad1b160e01b81526001600160a01b037f0000000000000000000000000000000000000000000000000000000000000000811660048301526020909301929091169063b7bad1b190602401602060405180830381865afa158015611167573d6000803e3d6000fd5b505050506040513d601f19601f8201168201806040525081019061118b9190612b08565b815260200160006001600160a01b0316815250905060006111cb7f0000000000000000000000000000000000000000000000000000000000000000611d73565b9050806001600160a01b031663cac486a8847f00000000000000000000000000000000000000000000000000000000000000006001600160a01b031663c41c2f246040518163ffffffff1660e01b8152600401602060405180830381865afa15801561123b573d6000803e3d6000fd5b505050506040513d601f19601f8201168201806040525081019061125f9190612847565b886000015189602001517f00000000000000000000000000000000000000000000000000000000000000006001600160a01b031663557e71556040518163ffffffff1660e01b8152600401602060405180830381865afa1580156112c7573d6000803e3d6000fd5b505050506040513d601f19601f820116820180604052508101906112eb9190612847565b8b6040015160008d606001518b8f60a001516040518060800160405280600015158152602001600015158152602001600015158152602001600115158152506040518c63ffffffff1660e01b81526004016113509b9a99989796959493929190612df0565b600060405180830381600087803b15801561136a57600080fd5b505af115801561137e573d6000803e3d6000fd5b5050505060c085015160405163f2fde38b60e01b81526001600160a01b0391821660048201529082169063f2fde38b90602401600060405180830381600087803b1580156113cb57600080fd5b505af11580156113df573d6000803e3d6000fd5b505050506113ed8482611e14565b505092915050565b600082815260208181526040808320815160808082018452915465ffffffffffff8082168352600160301b82048116838701908152600160601b8304821684870152600160901b9092048116606080850191909152855180860187529251909116825281860187905281850187905281810187905284516102a081018652610240810188815261026082018990526102808201899052815280870188905261271081870181905291810191909152600193810184905260a0810187905260c0810187905260e08101879052610100810187905261012081018790526101408101879052610160810187905261018081018790526101a081018790526101c081018490526101e081018490526001600160a01b0388811661020083015285518087019096528786529585019390935290937f0000000000000000000000000000000000000000000000000000000000000000169263badbdf289288929161022082019061156090612089565b905260408051600080825260208201909252816115a0565b6040805180820190915260008152606060208201528152602001906001900390816115785790505b5060408051600080825260208201909252906115d2565b6115bf6120a9565b8152602001906001900390816115b75790505b506040518763ffffffff1660e01b81526004016115f4969594939291906130e3565b6020604051808303816000875af1158015611613573d6000803e3d6000fd5b505050506040513d601f19601f820116820180604052508101906116379190612b08565b9150505b92915050565b6000828152600160208181526040808420815160608101835290546001600160a01b0381168252600160a01b81046001600160581b031682850152600160f81b900460ff16151581830152815184815280830190925292849282015b6116a56120a9565b81526020019060019003908161169d579050506040805160c08101825284516001600160a01b0390811682527f0000000000000000000000000000000000000000000000000000000000000000811660208084018290528701516001600160581b03168385015286519351631982d67960e01b815260048101919091529394509092606084019290911690631982d67990602401602060405180830381865afa158015611756573d6000803e3d6000fd5b505050506040513d601f19601f8201168201806040525081019061177a9190612b08565b81526020016000815260200160008152508160008151811061179e5761179e612b8d565b602002602001018190525060007f00000000000000000000000000000000000000000000000000000000000000006001600160a01b0316632bdfe0046040518163ffffffff1660e01b8152600401602060405180830381865afa158015611809573d6000803e3d6000fd5b505050506040513d601f19601f8201168201806040525081019061182d9190612847565b6040516369e11cc560e01b81526001600482015260006024820152604481018890526001600160a01b0391909116906369e11cc590606401600060405180830381865afa158015611882573d6000803e3d6000fd5b505050506040513d6000823e601f3d908101601f191682016040526118aa9190810190613171565b90506060815160001461192f5760408051600180825281830190925290816020015b6040805180820190915260008152606060208201528152602001906001900390816118cc579050509050604051806040016040528060018152602001838152508160008151811061191f5761191f612b8d565b6020026020010181905250611971565b604080516000808252602082019092529061196d565b6040805180820190915260008152606060208201528152602001906001900390816119455790505b5090505b60008781526020818152604091829020825160808082018552915465ffffffffffff8082168352600160301b8204811694830194909452600160601b81048416828601908152600160901b9091049093166060820190815284519283019094529151925191926001600160a01b037f0000000000000000000000000000000000000000000000000000000000000000169263badbdf28928c9290918291611a1791612b37565b65ffffffffffff168152600060208083018290526040808401839052606093840183905280516102a081018252610240810184815261026082018590526102808201859052815280830184905280820184905293840183905260016080850181905260a0850184905260c0850181905260e085018490526101008501849052610120850184905261014085018490528d820151151561016086015261018085018490526101a085018490526101c085018190526101e08501526001600160a01b038f16610200850152805180820190915282815290810191909152610220820190611b0190612089565b8152506000878a6040518763ffffffff1660e01b8152600401611b299695949392919061327a565b6020604051808303816000875af1158015611b48573d6000803e3d6000fd5b505050506040513d601f19601f82011682018060405250810190611b6c9190612b08565b98975050505050505050565b604080516080808201835260008083526020808401829052838501829052606080850183905285516102a081018752610240810184815261026082018590526102808201859052815280830184905261271081880181905291810191909152600193810184905260a0810183905260c0810183905260e08101839052610100810183905261012081018390526101408101839052610160810183905261018081018390526101a081018390526101c081018490526101e08101939093526001600160a01b03868116610200850152855180870190965282865290850182905290937f00000000000000000000000000000000000000000000000000000000000000009091169263badbdf28928792610220820190611c9590612089565b90526040805160008082526020820190925281611cd5565b604080518082019091526000815260606020820152815260200190600190039081611cad5790505b506040805160008082526020820190925290611d07565b611cf46120a9565b815260200190600190039081611cec5790505b506040518763ffffffff1660e01b8152600401611d2996959493929190613308565b6020604051808303816000875af1158015611d48573d6000803e3d6000fd5b505050506040513d601f19601f82011682018060405250810190611d6c9190612b08565b9392505050565b6000604051733d602d80600a3d3981f3363d3d373d3d3d363d7360601b81528260601b60148201526e5af43d82803e903d91602b57fd5bf360881b60288201526037816000f09150506001600160a01b038116611e0f5760405162461bcd60e51b8152602060048201526016602482015275115490cc4c4d8dce8818dc99585d194819985a5b195960521b604482015260640160405180910390fd5b919050565b6040805160018082528183019092526000916020808301908036833701905050905082610100015181600081518110611e4f57611e4f612b8d565b6001600160a01b03928316602091820292909201810191909152845160408051608080820183528885015165ffffffffffff1682526000828601819052828401819052606080840182905284516102a08101865261024081018381526102608201849052610280820184905281528088018390526127108187018190529181019190915291820181905260a080830182905260c0830182905260e083018290526101008301829052610120830182905261014083018290528a0151151561016083015261018082018190526101a0820181905260016101c083018190526101e083018190528988166102008401528451808601909552908452948301949094527f00000000000000000000000000000000000000000000000000000000000000009094169363b3c5267393309392610220820190611f8c90612089565b9052604089015160208a015160608b0151611fa79190612b37565b611fb19190612b37565b6040805160008082526020820190925290611fef565b604080518082019091526000815260606020820152815260200190600190039081611fc75790505b506040805160008082526020820190925290612021565b61200e6120a9565b8152602001906001900390816120065790505b50896040518963ffffffff1660e01b81526004016120469897969594939291906133cf565b6020604051808303816000875af1158015612065573d6000803e3d6000fd5b505050506040513d601f19601f82011682018060405250810190610b849190612b08565b805160009015612097576001175b816020015115611e0f57600217919050565b6040518060c0016040528060006001600160a01b0316815260200160006001600160a01b03168152602001600081526020016000815260200160008152602001600081525090565b60006020828403121561210357600080fd5b5035919050565b6001600160a01b038116811461211f57600080fd5b50565b8035611e0f8161210a565b60008060008060006080868803121561214557600080fd5b85356121508161210a565b945060208601356121608161210a565b93506040860135925060608601356001600160401b038082111561218357600080fd5b818801915088601f83011261219757600080fd5b8135818111156121a657600080fd5b8960208285010111156121b857600080fd5b9699959850939650602001949392505050565b634e487b7160e01b600052604160045260246000fd5b60405161014081016001600160401b0381118282101715612204576122046121cb565b60405290565b60405160e081016001600160401b0381118282101715612204576122046121cb565b60405161012081016001600160401b0381118282101715612204576122046121cb565b60405161024081016001600160401b0381118282101715612204576122046121cb565b604051601f8201601f191681016001600160401b038111828210171561229a5761229a6121cb565b604052919050565b600082601f8301126122b357600080fd5b81356001600160401b038111156122cc576122cc6121cb565b6122df601f8201601f1916602001612272565b8181528460208386010111156122f457600080fd5b816020850160208301376000918101602001919091529392505050565b60006001600160401b0382111561232a5761232a6121cb565b5060051b60200190565b803569ffffffffffffffffffff81168114611e0f57600080fd5b803565ffffffffffff81168114611e0f57600080fd5b803564ffffffffff81168114611e0f57600080fd5b803561ffff81168114611e0f57600080fd5b801515811461211f57600080fd5b8035611e0f8161238b565b600082601f8301126123b557600080fd5b813560206123ca6123c583612311565b612272565b82815261014092830285018201928282019190878511156123ea57600080fd5b8387015b858110156124b85781818a0312156124065760008081fd5b61240e6121e1565b61241782612334565b815261242486830161234e565b868201526040612435818401612364565b908201526060612446838201612379565b908201526080612457838201612379565b9082015260a0612468838201612122565b9082015260c0828101359082015260e0612483818401612399565b90820152610100612495838201612399565b908201526101206124a7838201612399565b9082015284529284019281016123ee565b5090979650505050505050565b6000604082840312156124d757600080fd5b604051604081016001600160401b0382821081831117156124fa576124fa6121cb565b81604052829350843591508082111561251257600080fd5b5061251f858286016122a2565b825250602083013560208201525092915050565b600082601f83011261254457600080fd5b813560206125546123c583612311565b82815260e0928302850182019282820191908785111561257357600080fd5b8387015b858110156124b85781818a03121561258f5760008081fd5b61259761220a565b81356125a28161238b565b8152818601356125b18161238b565b8187015260408281013590820152606080830135908201526080808301356125d88161210a565b9082015260a0828101359082015260c0808301356125f58161210a565b908201528452928401928101612577565b80356001600160581b0381168114611e0f57600080fd5b6000610120828403121561263057600080fd5b61263861222c565b905081356001600160401b038082111561265157600080fd5b61265d858386016124c5565b835261266b6020850161234e565b602084015261267c6040850161234e565b604084015261268d6060850161234e565b606084015261269e6080850161234e565b60808401526126af60a08501612399565b60a084015260c08401359150808211156126c857600080fd5b506126d584828501612533565b60c0830152506126e760e08301612606565b60e08201526101006126fa818401612122565b9082015292915050565b6000806040838503121561271757600080fd5b82356001600160401b038082111561272e57600080fd5b9084019060e0828703121561274257600080fd5b61274a61220a565b82358281111561275957600080fd5b612765888286016122a2565b82525060208301358281111561277a57600080fd5b612786888286016122a2565b60208301525060408301358281111561279e57600080fd5b6127aa888286016122a2565b6040830152506060830135828111156127c257600080fd5b6127ce888286016122a2565b6060830152506080830135828111156127e657600080fd5b6127f2888286016123a4565b60808301525061280460a08401612122565b60a082015261281560c08401612122565b60c08201529350602085013591508082111561283057600080fd5b5061283d8582860161261d565b9150509250929050565b60006020828403121561285957600080fd5b8151611d6c8161210a565b8051611e0f8161210a565b6000610120828403121561288257600080fd5b61288a61222c565b9050815181526020820151602082015260408201516040820152606082015160608201526080820151608082015260a082015160a082015260c082015160c08201526128d860e08301612864565b60e082015261010080830151818301525092915050565b6000610120828403121561290257600080fd5b611d6c838361286f565b8051611e0f8161238b565b60006060828403121561292957600080fd5b604051606081018181106001600160401b038211171561294b5761294b6121cb565b8060405250809150825161295e8161238b565b8152602083015161296e8161238b565b602082015260408301516129818161238b565b6040919091015292915050565b6000808284036103a08112156129a357600080fd5b6129ad858561286f565b92506101206102808061011f19840112156129c757600080fd5b6129cf61224f565b92506129dd87838801612917565b83526101808087015160208501526101a08088015160408601526101c08089015160608701526101e0612a11818b0161290c565b6080880152610200612a24818c0161290c565b60a0890152610220612a37818d0161290c565b60c08a0152612a496102408d0161290c565b60e08a0152612a5b6102608d0161290c565b6101008a0152612a6c878d0161290c565b888a0152612a7d6102a08d0161290c565b6101408a0152612a906102c08d0161290c565b6101608a0152612aa36102e08d0161290c565b868a0152612ab46103008d0161290c565b858a0152612ac56103208d0161290c565b848a0152612ad66103408d0161290c565b838a0152612ae76103608d01612864565b828a01526103808c0151818a01525050505050505050809150509250929050565b600060208284031215612b1a57600080fd5b5051919050565b634e487b7160e01b600052601160045260246000fd5b65ffffffffffff828116828216039080821115612b5657612b56612b21565b5092915050565b8082018082111561163b5761163b612b21565b600060208284031215612b8257600080fd5b8151611d6c8161238b565b634e487b7160e01b600052603260045260246000fd5b600081518084526020808501808196508360051b810191508286016000805b86811015612c75578385038a52825180518652860151604087870181905281518188018190529188019160609081890190865b81811015612c5e5785518051151584528c81015115158d850152858101518685015284810151858501526080808201516001600160a01b039081169186019190915260a0808301519086015260c0918201511690840152948b019460e090920191600101612bf5565b50509c89019c975050509286019250600101612bc2565b509298975050505050505050565b8381528260208201526060604082015260006107346060830184612ba3565b6000815180845260005b81811015612cc857602081850181015186830182015201612cac565b506000602082860101526020601f19601f83011685010191505092915050565b80516080808452815184820181905260009260a0916020918201918388019190865b82811015612db5578451805169ffffffffffffffffffff1685528281015165ffffffffffff168386015260408082015164ffffffffff169086015260608082015161ffff90811691870191909152888201511688860152868101516001600160a01b03168786015260c0808201519086015260e08082015115159086015261010080820151151590860152610120908101511515908501529381019361014090930192600101612d0a565b5080880151818a015250506040860151604088015260608601519350612de660608801856001600160a01b03169052565b9695505050505050565b8b81526001600160a01b038b811660208301526101c060408301819052600091612e1c8483018e612ca2565b91508382036060850152612e30828d612ca2565b9150808b16608085015283820360a0850152612e4c828b612ca2565b90891660c085015283810360e08501529050612e688188612ca2565b9050828103610100840152612e7d8187612ce8565b915050612e966101208301856001600160a01b03169052565b825115156101408301526020830151151561016083015260408301511515610180830152606083015115156101a08301529c9b505050505050505050505050565b8051825260208082015190830152604080820151908301526060908101516001600160a01b0316910152565b612f288282518051151582526020808201511515908301526040908101511515910152565b6020810151606083015260408101516080830152606081015160a08301526080810151612f5960c084018215159052565b5060a081015180151560e08401525060c0810151610100612f7d8185018315159052565b60e08301519150610120612f948186018415159052565b90830151915061014090612fab8583018415159052565b8301519150610160612fc08582018415159052565b90830151915061018090612fd78583018415159052565b83015191506101a0612fec8582018415159052565b9083015191506101c0906130038583018415159052565b83015191506101e06130188582018415159052565b9083015191506102009061302f8583018415159052565b83015191506102206130448582018415159052565b908301516001600160a01b0316610240850152909101516102609092019190915250565b600081518084526020808501945080840160005b838110156130d857815180516001600160a01b03908116895284820151168489015260408082015190890152606080820151908901526080808201519089015260a0908101519088015260c0909601959082019060010161307c565b509495945050505050565b60006103a08883526130f86020840189612ed7565b61310560a0840188612f03565b856103208401528061034084015261311f81840186612ba3565b90508281036103608401526131348185613068565b83810361038090940193909352505060148152732232b334b3309033b0b6b290383430b9b290191760611b60208201526040019695505050505050565b6000602080838503121561318457600080fd5b82516001600160401b0381111561319a57600080fd5b8301601f810185136131ab57600080fd5b80516131b96123c582612311565b81815260e091820283018401918482019190888411156131d857600080fd5b938501935b8385101561326e5780858a0312156131f55760008081fd5b6131fd61220a565b85516132088161238b565b8152858701516132178161238b565b81880152604086810151908201526060808701519082015260808087015161323e8161210a565b9082015260a0868101519082015260c08087015161325b8161210a565b90820152835293840193918501916131dd565b50979650505050505050565b60006103a088835261328f6020840189612ed7565b61329c60a0840188612f03565b85610320840152806103408401526132b681840186612ba3565b90508281036103608401526132cb8185613068565b83810361038090940193909352505060148152732232b334b3309033b0b6b290383430b9b290199760611b60208201526040019695505050505050565b60006103a088835261331d6020840189612ed7565b61332a60a0840188612f03565b856103208401528061034084015261334481840186612ba3565b90508281036103608401526133598185613068565b83810361038090940193909352505060148152732232b334b3309033b0b6b290383430b9b2901a1760611b60208201526040019695505050505050565b600081518084526020808501945080840160005b838110156130d85781516001600160a01b0316875295820195908201906001016133aa565b6001600160a01b03891681526103e0602082018190528851604083830152600091906133ff610420850182612ca2565b91505060208a015161040084015261341a604084018a612ed7565b61342760c0840189612f03565b65ffffffffffff87166103408401528281036103608401526134498187612ba3565b905082810361038084015261345e8186613068565b90508281036103a08401526134738185613396565b8381036103c085015260148152732232b334b3309033b0b6b290383430b9b290189760611b60208201529050604081019b9a505050505050505050505056fea26469706673582212202aed9ccb6fe81e0b88587cfe4fde55c45cb83140fc5942f1e6a35b7e89028a5d64736f6c63430008100033",
    "linkReferences": {}
  },
  "methodIdentifiers": {
    "SPLIT_DOMAIN()": "ff16a2f2",
    "SPLIT_PROJECT_ID()": "a372c2a9",
    "claimProtocolProjectToken()": "ca449a25",
    "controller()": "f77c4791",
    "currentGamePhaseOf(uint256)": "0715610a",
    "defifaCodeOrigin()": "a71e9716",
    "distributionLimit(uint256)": "27655cfd",
    "endOf(uint256)": "b965933e",
    "holdFeesDuring(uint256)": "78632633",
    "launchGameWith((string,string,string,string,(uint80,uint48,uint40,uint16,uint16,address,bytes32,bool,bool,bool)[],address,address),((string,uint256),uint48,uint48,uint48,uint48,bool,(bool,bool,uint256,uint256,address,uint256,address)[],uint88,address))": "ebcfaa65",
    "mintDurationOf(uint256)": "0589d292",
    "nextPhaseNeedsQueueing(uint256)": "81312a14",
    "onERC721Received(address,address,uint256,bytes)": "150b7a02",
    "protocolFeeProjectTokenAccount()": "3f3090d9",
    "queueNextPhaseOf(uint256)": "1c069dbb",
    "refundPeriodDurationOf(uint256)": "1109fff2",
    "startOf(uint256)": "b41e7f47",
    "terminalOf(uint256)": "4fe0eced",
    "timesFor(uint256)": "b07925d3",
    "token()": "fc0c546a"
  },
  "id": 1
}